{
	"contracts/Counter.sol": {
		"Counter": {
			"abi": [
				{
					"inputs": [],
					"name": "dec",
					"outputs": [],
					"stateMutability": "nonpayable",
					"type": "function"
				},
				{
					"inputs": [
						{
							"internalType": "uint256",
							"name": "x",
							"type": "uint256"
						},
						{
							"internalType": "uint256",
							"name": "y",
							"type": "uint256"
						}
					],
					"name": "getadd",
					"outputs": [
						{
							"internalType": "uint256",
							"name": "",
							"type": "uint256"
						}
					],
					"stateMutability": "nonpayable",
					"type": "function"
				},
				{
					"inputs": [],
					"name": "getcount",
					"outputs": [
						{
							"internalType": "uint256",
							"name": "",
							"type": "uint256"
						}
					],
					"stateMutability": "view",
					"type": "function"
				},
				{
					"inputs": [
						{
							"internalType": "uint256",
							"name": "x",
							"type": "uint256"
						},
						{
							"internalType": "uint256",
							"name": "y",
							"type": "uint256"
						}
					],
					"name": "getsub",
					"outputs": [
						{
							"internalType": "uint256",
							"name": "",
							"type": "uint256"
						}
					],
					"stateMutability": "nonpayable",
					"type": "function"
				},
				{
					"inputs": [],
					"name": "inc",
					"outputs": [],
					"stateMutability": "nonpayable",
					"type": "function"
				},
				{
					"inputs": [],
					"name": "sub",
					"outputs": [
						{
							"internalType": "uint256",
							"name": "",
							"type": "uint256"
						}
					],
					"stateMutability": "view",
					"type": "function"
				},
				{
					"inputs": [],
					"name": "sum",
					"outputs": [
						{
							"internalType": "uint256",
							"name": "",
							"type": "uint256"
						}
					],
					"stateMutability": "view",
					"type": "function"
				}
			],
			"devdoc": {
				"kind": "dev",
				"methods": {},
				"version": 1
			},
			"evm": {
				"assembly": "    /* \"contracts/Counter.sol\":57:584  contract Counter\r... */\n  mstore(0x40, 0x80)\n  callvalue\n  dup1\n  iszero\n  tag_1\n  jumpi\n  0x00\n  dup1\n  revert\ntag_1:\n  pop\n  dataSize(sub_0)\n  dup1\n  dataOffset(sub_0)\n  0x00\n  codecopy\n  0x00\n  return\nstop\n\nsub_0: assembly {\n        /* \"contracts/Counter.sol\":57:584  contract Counter\r... */\n      mstore(0x40, 0x80)\n      callvalue\n      dup1\n      iszero\n      tag_1\n      jumpi\n      0x00\n      dup1\n      revert\n    tag_1:\n      pop\n      jumpi(tag_2, lt(calldatasize, 0x04))\n      shr(0xe0, calldataload(0x00))\n      dup1\n      0x989ace02\n      gt\n      tag_10\n      jumpi\n      dup1\n      0x989ace02\n      eq\n      tag_6\n      jumpi\n      dup1\n      0x9ed2d84d\n      eq\n      tag_7\n      jumpi\n      dup1\n      0xb3bcfa82\n      eq\n      tag_8\n      jumpi\n      dup1\n      0xc54124be\n      eq\n      tag_9\n      jumpi\n      jump(tag_2)\n    tag_10:\n      dup1\n      0x146af82b\n      eq\n      tag_3\n      jumpi\n      dup1\n      0x371303c0\n      eq\n      tag_4\n      jumpi\n      dup1\n      0x853255cc\n      eq\n      tag_5\n      jumpi\n    tag_2:\n      0x00\n      dup1\n      revert\n        /* \"contracts/Counter.sol\":276:361  function getcount() public view returns (uint)\r... */\n    tag_3:\n      tag_11\n      tag_12\n      jump\t// in\n    tag_11:\n      mload(0x40)\n      tag_13\n      swap2\n      swap1\n      tag_14\n      jump\t// in\n    tag_13:\n      mload(0x40)\n      dup1\n      swap2\n      sub\n      swap1\n      return\n        /* \"contracts/Counter.sol\":154:209  function inc() public\r... */\n    tag_4:\n      tag_15\n      tag_16\n      jump\t// in\n    tag_15:\n      stop\n        /* \"contracts/Counter.sol\":108:123  uint public sum */\n    tag_5:\n      tag_17\n      tag_18\n      jump\t// in\n    tag_17:\n      mload(0x40)\n      tag_19\n      swap2\n      swap1\n      tag_14\n      jump\t// in\n    tag_19:\n      mload(0x40)\n      dup1\n      swap2\n      sub\n      swap1\n      return\n        /* \"contracts/Counter.sol\":477:581  function getsub(uint x,uint y) public returns(uint)\r... */\n    tag_6:\n      tag_20\n      0x04\n      dup1\n      calldatasize\n      sub\n      dup2\n      add\n      swap1\n      tag_21\n      swap2\n      swap1\n      tag_22\n      jump\t// in\n    tag_21:\n      tag_23\n      jump\t// in\n    tag_20:\n      mload(0x40)\n      tag_24\n      swap2\n      swap1\n      tag_14\n      jump\t// in\n    tag_24:\n      mload(0x40)\n      dup1\n      swap2\n      sub\n      swap1\n      return\n        /* \"contracts/Counter.sol\":367:471  function getadd(uint x,uint y) public returns(uint)\r... */\n    tag_7:\n      tag_25\n      0x04\n      dup1\n      calldatasize\n      sub\n      dup2\n      add\n      swap1\n      tag_26\n      swap2\n      swap1\n      tag_22\n      jump\t// in\n    tag_26:\n      tag_27\n      jump\t// in\n    tag_25:\n      mload(0x40)\n      tag_28\n      swap2\n      swap1\n      tag_14\n      jump\t// in\n    tag_28:\n      mload(0x40)\n      dup1\n      swap2\n      sub\n      swap1\n      return\n        /* \"contracts/Counter.sol\":215:270  function dec() public\r... */\n    tag_8:\n      tag_29\n      tag_30\n      jump\t// in\n    tag_29:\n      stop\n        /* \"contracts/Counter.sol\":130:145  uint public sub */\n    tag_9:\n      tag_31\n      tag_32\n      jump\t// in\n    tag_31:\n      mload(0x40)\n      tag_33\n      swap2\n      swap1\n      tag_14\n      jump\t// in\n    tag_33:\n      mload(0x40)\n      dup1\n      swap2\n      sub\n      swap1\n      return\n        /* \"contracts/Counter.sol\":276:361  function getcount() public view returns (uint)\r... */\n    tag_12:\n        /* \"contracts/Counter.sol\":317:321  uint */\n      0x00\n        /* \"contracts/Counter.sol\":346:353  counter */\n      dup1\n      sload\n        /* \"contracts/Counter.sol\":339:353  return counter */\n      swap1\n      pop\n        /* \"contracts/Counter.sol\":276:361  function getcount() public view returns (uint)\r... */\n      swap1\n      jump\t// out\n        /* \"contracts/Counter.sol\":154:209  function inc() public\r... */\n    tag_16:\n        /* \"contracts/Counter.sol\":192:199  counter */\n      0x00\n      dup1\n        /* \"contracts/Counter.sol\":192:201  counter++ */\n      dup2\n      sload\n      dup1\n      swap3\n      swap2\n      swap1\n      tag_36\n      swap1\n      tag_37\n      jump\t// in\n    tag_36:\n      swap2\n      swap1\n      pop\n      sstore\n      pop\n        /* \"contracts/Counter.sol\":154:209  function inc() public\r... */\n      jump\t// out\n        /* \"contracts/Counter.sol\":108:123  uint public sum */\n    tag_18:\n      sload(0x01)\n      dup2\n      jump\t// out\n        /* \"contracts/Counter.sol\":477:581  function getsub(uint x,uint y) public returns(uint)\r... */\n    tag_23:\n        /* \"contracts/Counter.sol\":523:527  uint */\n      0x00\n        /* \"contracts/Counter.sol\":551:552  y */\n      dup2\n        /* \"contracts/Counter.sol\":549:550  x */\n      dup4\n        /* \"contracts/Counter.sol\":549:552  x-y */\n      tag_39\n      swap2\n      swap1\n      tag_40\n      jump\t// in\n    tag_39:\n        /* \"contracts/Counter.sol\":545:548  sub */\n      0x02\n        /* \"contracts/Counter.sol\":545:552  sub=x-y */\n      dup2\n      swap1\n      sstore\n      pop\n        /* \"contracts/Counter.sol\":570:573  sub */\n      sload(0x02)\n        /* \"contracts/Counter.sol\":563:573  return sub */\n      swap1\n      pop\n        /* \"contracts/Counter.sol\":477:581  function getsub(uint x,uint y) public returns(uint)\r... */\n      swap3\n      swap2\n      pop\n      pop\n      jump\t// out\n        /* \"contracts/Counter.sol\":367:471  function getadd(uint x,uint y) public returns(uint)\r... */\n    tag_27:\n        /* \"contracts/Counter.sol\":413:417  uint */\n      0x00\n        /* \"contracts/Counter.sol\":441:442  y */\n      dup2\n        /* \"contracts/Counter.sol\":439:440  x */\n      dup4\n        /* \"contracts/Counter.sol\":439:442  x+y */\n      tag_42\n      swap2\n      swap1\n      tag_43\n      jump\t// in\n    tag_42:\n        /* \"contracts/Counter.sol\":435:438  sum */\n      0x01\n        /* \"contracts/Counter.sol\":435:442  sum=x+y */\n      dup2\n      swap1\n      sstore\n      pop\n        /* \"contracts/Counter.sol\":460:463  sum */\n      sload(0x01)\n        /* \"contracts/Counter.sol\":453:463  return sum */\n      swap1\n      pop\n        /* \"contracts/Counter.sol\":367:471  function getadd(uint x,uint y) public returns(uint)\r... */\n      swap3\n      swap2\n      pop\n      pop\n      jump\t// out\n        /* \"contracts/Counter.sol\":215:270  function dec() public\r... */\n    tag_30:\n        /* \"contracts/Counter.sol\":253:260  counter */\n      0x00\n      dup1\n        /* \"contracts/Counter.sol\":253:262  counter-- */\n      dup2\n      sload\n      dup1\n      swap3\n      swap2\n      swap1\n      tag_45\n      swap1\n      tag_46\n      jump\t// in\n    tag_45:\n      swap2\n      swap1\n      pop\n      sstore\n      pop\n        /* \"contracts/Counter.sol\":215:270  function dec() public\r... */\n      jump\t// out\n        /* \"contracts/Counter.sol\":130:145  uint public sub */\n    tag_32:\n      sload(0x02)\n      dup2\n      jump\t// out\n        /* \"#utility.yul\":7:146   */\n    tag_48:\n        /* \"#utility.yul\":53:58   */\n      0x00\n        /* \"#utility.yul\":91:97   */\n      dup2\n        /* \"#utility.yul\":78:98   */\n      calldataload\n        /* \"#utility.yul\":69:98   */\n      swap1\n      pop\n        /* \"#utility.yul\":107:140   */\n      tag_50\n        /* \"#utility.yul\":134:139   */\n      dup2\n        /* \"#utility.yul\":107:140   */\n      tag_51\n      jump\t// in\n    tag_50:\n        /* \"#utility.yul\":7:146   */\n      swap3\n      swap2\n      pop\n      pop\n      jump\t// out\n        /* \"#utility.yul\":152:626   */\n    tag_22:\n        /* \"#utility.yul\":220:226   */\n      0x00\n        /* \"#utility.yul\":228:234   */\n      dup1\n        /* \"#utility.yul\":277:279   */\n      0x40\n        /* \"#utility.yul\":265:274   */\n      dup4\n        /* \"#utility.yul\":256:263   */\n      dup6\n        /* \"#utility.yul\":252:275   */\n      sub\n        /* \"#utility.yul\":248:280   */\n      slt\n        /* \"#utility.yul\":245:364   */\n      iszero\n      tag_53\n      jumpi\n        /* \"#utility.yul\":283:362   */\n      tag_54\n      tag_55\n      jump\t// in\n    tag_54:\n        /* \"#utility.yul\":245:364   */\n    tag_53:\n        /* \"#utility.yul\":403:404   */\n      0x00\n        /* \"#utility.yul\":428:481   */\n      tag_56\n        /* \"#utility.yul\":473:480   */\n      dup6\n        /* \"#utility.yul\":464:470   */\n      dup3\n        /* \"#utility.yul\":453:462   */\n      dup7\n        /* \"#utility.yul\":449:471   */\n      add\n        /* \"#utility.yul\":428:481   */\n      tag_48\n      jump\t// in\n    tag_56:\n        /* \"#utility.yul\":418:481   */\n      swap3\n      pop\n        /* \"#utility.yul\":374:491   */\n      pop\n        /* \"#utility.yul\":530:532   */\n      0x20\n        /* \"#utility.yul\":556:609   */\n      tag_57\n        /* \"#utility.yul\":601:608   */\n      dup6\n        /* \"#utility.yul\":592:598   */\n      dup3\n        /* \"#utility.yul\":581:590   */\n      dup7\n        /* \"#utility.yul\":577:599   */\n      add\n        /* \"#utility.yul\":556:609   */\n      tag_48\n      jump\t// in\n    tag_57:\n        /* \"#utility.yul\":546:609   */\n      swap2\n      pop\n        /* \"#utility.yul\":501:619   */\n      pop\n        /* \"#utility.yul\":152:626   */\n      swap3\n      pop\n      swap3\n      swap1\n      pop\n      jump\t// out\n        /* \"#utility.yul\":632:750   */\n    tag_58:\n        /* \"#utility.yul\":719:743   */\n      tag_60\n        /* \"#utility.yul\":737:742   */\n      dup2\n        /* \"#utility.yul\":719:743   */\n      tag_61\n      jump\t// in\n    tag_60:\n        /* \"#utility.yul\":714:717   */\n      dup3\n        /* \"#utility.yul\":707:744   */\n      mstore\n        /* \"#utility.yul\":632:750   */\n      pop\n      pop\n      jump\t// out\n        /* \"#utility.yul\":756:978   */\n    tag_14:\n        /* \"#utility.yul\":849:853   */\n      0x00\n        /* \"#utility.yul\":887:889   */\n      0x20\n        /* \"#utility.yul\":876:885   */\n      dup3\n        /* \"#utility.yul\":872:890   */\n      add\n        /* \"#utility.yul\":864:890   */\n      swap1\n      pop\n        /* \"#utility.yul\":900:971   */\n      tag_63\n        /* \"#utility.yul\":968:969   */\n      0x00\n        /* \"#utility.yul\":957:966   */\n      dup4\n        /* \"#utility.yul\":953:970   */\n      add\n        /* \"#utility.yul\":944:950   */\n      dup5\n        /* \"#utility.yul\":900:971   */\n      tag_58\n      jump\t// in\n    tag_63:\n        /* \"#utility.yul\":756:978   */\n      swap3\n      swap2\n      pop\n      pop\n      jump\t// out\n        /* \"#utility.yul\":1065:1370   */\n    tag_43:\n        /* \"#utility.yul\":1105:1108   */\n      0x00\n        /* \"#utility.yul\":1124:1144   */\n      tag_67\n        /* \"#utility.yul\":1142:1143   */\n      dup3\n        /* \"#utility.yul\":1124:1144   */\n      tag_61\n      jump\t// in\n    tag_67:\n        /* \"#utility.yul\":1119:1144   */\n      swap2\n      pop\n        /* \"#utility.yul\":1158:1178   */\n      tag_68\n        /* \"#utility.yul\":1176:1177   */\n      dup4\n        /* \"#utility.yul\":1158:1178   */\n      tag_61\n      jump\t// in\n    tag_68:\n        /* \"#utility.yul\":1153:1178   */\n      swap3\n      pop\n        /* \"#utility.yul\":1312:1313   */\n      dup3\n        /* \"#utility.yul\":1244:1310   */\n      0xffffffffffffffffffffffffffffffffffffffffffffffffffffffffffffffff\n        /* \"#utility.yul\":1240:1314   */\n      sub\n        /* \"#utility.yul\":1237:1238   */\n      dup3\n        /* \"#utility.yul\":1234:1315   */\n      gt\n        /* \"#utility.yul\":1231:1338   */\n      iszero\n      tag_69\n      jumpi\n        /* \"#utility.yul\":1318:1336   */\n      tag_70\n      tag_71\n      jump\t// in\n    tag_70:\n        /* \"#utility.yul\":1231:1338   */\n    tag_69:\n        /* \"#utility.yul\":1362:1363   */\n      dup3\n        /* \"#utility.yul\":1359:1360   */\n      dup3\n        /* \"#utility.yul\":1355:1364   */\n      add\n        /* \"#utility.yul\":1348:1364   */\n      swap1\n      pop\n        /* \"#utility.yul\":1065:1370   */\n      swap3\n      swap2\n      pop\n      pop\n      jump\t// out\n        /* \"#utility.yul\":1376:1567   */\n    tag_40:\n        /* \"#utility.yul\":1416:1420   */\n      0x00\n        /* \"#utility.yul\":1436:1456   */\n      tag_73\n        /* \"#utility.yul\":1454:1455   */\n      dup3\n        /* \"#utility.yul\":1436:1456   */\n      tag_61\n      jump\t// in\n    tag_73:\n        /* \"#utility.yul\":1431:1456   */\n      swap2\n      pop\n        /* \"#utility.yul\":1470:1490   */\n      tag_74\n        /* \"#utility.yul\":1488:1489   */\n      dup4\n        /* \"#utility.yul\":1470:1490   */\n      tag_61\n      jump\t// in\n    tag_74:\n        /* \"#utility.yul\":1465:1490   */\n      swap3\n      pop\n        /* \"#utility.yul\":1509:1510   */\n      dup3\n        /* \"#utility.yul\":1506:1507   */\n      dup3\n        /* \"#utility.yul\":1503:1511   */\n      lt\n        /* \"#utility.yul\":1500:1534   */\n      iszero\n      tag_75\n      jumpi\n        /* \"#utility.yul\":1514:1532   */\n      tag_76\n      tag_71\n      jump\t// in\n    tag_76:\n        /* \"#utility.yul\":1500:1534   */\n    tag_75:\n        /* \"#utility.yul\":1559:1560   */\n      dup3\n        /* \"#utility.yul\":1556:1557   */\n      dup3\n        /* \"#utility.yul\":1552:1561   */\n      sub\n        /* \"#utility.yul\":1544:1561   */\n      swap1\n      pop\n        /* \"#utility.yul\":1376:1567   */\n      swap3\n      swap2\n      pop\n      pop\n      jump\t// out\n        /* \"#utility.yul\":1573:1650   */\n    tag_61:\n        /* \"#utility.yul\":1610:1617   */\n      0x00\n        /* \"#utility.yul\":1639:1644   */\n      dup2\n        /* \"#utility.yul\":1628:1644   */\n      swap1\n      pop\n        /* \"#utility.yul\":1573:1650   */\n      swap2\n      swap1\n      pop\n      jump\t// out\n        /* \"#utility.yul\":1656:1827   */\n    tag_46:\n        /* \"#utility.yul\":1695:1698   */\n      0x00\n        /* \"#utility.yul\":1718:1742   */\n      tag_79\n        /* \"#utility.yul\":1736:1741   */\n      dup3\n        /* \"#utility.yul\":1718:1742   */\n      tag_61\n      jump\t// in\n    tag_79:\n        /* \"#utility.yul\":1709:1742   */\n      swap2\n      pop\n        /* \"#utility.yul\":1764:1768   */\n      0x00\n        /* \"#utility.yul\":1757:1762   */\n      dup3\n        /* \"#utility.yul\":1754:1769   */\n      eq\n        /* \"#utility.yul\":1751:1792   */\n      iszero\n      tag_80\n      jumpi\n        /* \"#utility.yul\":1772:1790   */\n      tag_81\n      tag_71\n      jump\t// in\n    tag_81:\n        /* \"#utility.yul\":1751:1792   */\n    tag_80:\n        /* \"#utility.yul\":1819:1820   */\n      0x01\n        /* \"#utility.yul\":1812:1817   */\n      dup3\n        /* \"#utility.yul\":1808:1821   */\n      sub\n        /* \"#utility.yul\":1801:1821   */\n      swap1\n      pop\n        /* \"#utility.yul\":1656:1827   */\n      swap2\n      swap1\n      pop\n      jump\t// out\n        /* \"#utility.yul\":1833:2066   */\n    tag_37:\n        /* \"#utility.yul\":1872:1875   */\n      0x00\n        /* \"#utility.yul\":1895:1919   */\n      tag_83\n        /* \"#utility.yul\":1913:1918   */\n      dup3\n        /* \"#utility.yul\":1895:1919   */\n      tag_61\n      jump\t// in\n    tag_83:\n        /* \"#utility.yul\":1886:1919   */\n      swap2\n      pop\n        /* \"#utility.yul\":1941:2007   */\n      0xffffffffffffffffffffffffffffffffffffffffffffffffffffffffffffffff\n        /* \"#utility.yul\":1934:1939   */\n      dup3\n        /* \"#utility.yul\":1931:2008   */\n      eq\n        /* \"#utility.yul\":1928:2031   */\n      iszero\n      tag_84\n      jumpi\n        /* \"#utility.yul\":2011:2029   */\n      tag_85\n      tag_71\n      jump\t// in\n    tag_85:\n        /* \"#utility.yul\":1928:2031   */\n    tag_84:\n        /* \"#utility.yul\":2058:2059   */\n      0x01\n        /* \"#utility.yul\":2051:2056   */\n      dup3\n        /* \"#utility.yul\":2047:2060   */\n      add\n        /* \"#utility.yul\":2040:2060   */\n      swap1\n      pop\n        /* \"#utility.yul\":1833:2066   */\n      swap2\n      swap1\n      pop\n      jump\t// out\n        /* \"#utility.yul\":2072:2252   */\n    tag_71:\n        /* \"#utility.yul\":2120:2197   */\n      0x4e487b7100000000000000000000000000000000000000000000000000000000\n        /* \"#utility.yul\":2117:2118   */\n      0x00\n        /* \"#utility.yul\":2110:2198   */\n      mstore\n        /* \"#utility.yul\":2217:2221   */\n      0x11\n        /* \"#utility.yul\":2214:2215   */\n      0x04\n        /* \"#utility.yul\":2207:2222   */\n      mstore\n        /* \"#utility.yul\":2241:2245   */\n      0x24\n        /* \"#utility.yul\":2238:2239   */\n      0x00\n        /* \"#utility.yul\":2231:2246   */\n      revert\n        /* \"#utility.yul\":2381:2498   */\n    tag_55:\n        /* \"#utility.yul\":2490:2491   */\n      0x00\n        /* \"#utility.yul\":2487:2488   */\n      dup1\n        /* \"#utility.yul\":2480:2492   */\n      revert\n        /* \"#utility.yul\":2504:2626   */\n    tag_51:\n        /* \"#utility.yul\":2577:2601   */\n      tag_91\n        /* \"#utility.yul\":2595:2600   */\n      dup2\n        /* \"#utility.yul\":2577:2601   */\n      tag_61\n      jump\t// in\n    tag_91:\n        /* \"#utility.yul\":2570:2575   */\n      dup2\n        /* \"#utility.yul\":2567:2602   */\n      eq\n        /* \"#utility.yul\":2557:2620   */\n      tag_92\n      jumpi\n        /* \"#utility.yul\":2616:2617   */\n      0x00\n        /* \"#utility.yul\":2613:2614   */\n      dup1\n        /* \"#utility.yul\":2606:2618   */\n      revert\n        /* \"#utility.yul\":2557:2620   */\n    tag_92:\n        /* \"#utility.yul\":2504:2626   */\n      pop\n      jump\t// out\n\n    auxdata: 0xa264697066735822122061d9ce0a3606422934f488f6edeb75a075fb074fdac4aa56987083eb77724e2164736f6c63430008070033\n}\n",
				"bytecode": {
					"linkReferences": {},
					"object": "608060405234801561001057600080fd5b506103dc806100206000396000f3fe608060405234801561001057600080fd5b506004361061007d5760003560e01c8063989ace021161005b578063989ace02146100c85780639ed2d84d146100f8578063b3bcfa8214610128578063c54124be146101325761007d565b8063146af82b14610082578063371303c0146100a0578063853255cc146100aa575b600080fd5b61008a610150565b6040516100979190610239565b60405180910390f35b6100a8610159565b005b6100b2610172565b6040516100bf9190610239565b60405180910390f35b6100e260048036038101906100dd91906101ea565b610178565b6040516100ef9190610239565b60405180910390f35b610112600480360381019061010d91906101ea565b610197565b60405161011f9190610239565b60405180910390f35b6101306101b6565b005b61013a6101cf565b6040516101479190610239565b60405180910390f35b60008054905090565b60008081548092919061016b90610312565b9190505550565b60015481565b6000818361018691906102aa565b600281905550600254905092915050565b600081836101a59190610254565b600181905550600154905092915050565b6000808154809291906101c8906102e8565b9190505550565b60025481565b6000813590506101e48161038f565b92915050565b600080604083850312156102015761020061038a565b5b600061020f858286016101d5565b9250506020610220858286016101d5565b9150509250929050565b610233816102de565b82525050565b600060208201905061024e600083018461022a565b92915050565b600061025f826102de565b915061026a836102de565b9250827fffffffffffffffffffffffffffffffffffffffffffffffffffffffffffffffff0382111561029f5761029e61035b565b5b828201905092915050565b60006102b5826102de565b91506102c0836102de565b9250828210156102d3576102d261035b565b5b828203905092915050565b6000819050919050565b60006102f3826102de565b915060008214156103075761030661035b565b5b600182039050919050565b600061031d826102de565b91507fffffffffffffffffffffffffffffffffffffffffffffffffffffffffffffffff8214156103505761034f61035b565b5b600182019050919050565b7f4e487b7100000000000000000000000000000000000000000000000000000000600052601160045260246000fd5b600080fd5b610398816102de565b81146103a357600080fd5b5056fea264697066735822122061d9ce0a3606422934f488f6edeb75a075fb074fdac4aa56987083eb77724e2164736f6c63430008070033",
					"opcodes": "PUSH1 0x80 PUSH1 0x40 MSTORE CALLVALUE DUP1 ISZERO PUSH2 0x10 JUMPI PUSH1 0x0 DUP1 REVERT JUMPDEST POP PUSH2 0x3DC DUP1 PUSH2 0x20 PUSH1 0x0 CODECOPY PUSH1 0x0 RETURN INVALID PUSH1 0x80 PUSH1 0x40 MSTORE CALLVALUE DUP1 ISZERO PUSH2 0x10 JUMPI PUSH1 0x0 DUP1 REVERT JUMPDEST POP PUSH1 0x4 CALLDATASIZE LT PUSH2 0x7D JUMPI PUSH1 0x0 CALLDATALOAD PUSH1 0xE0 SHR DUP1 PUSH4 0x989ACE02 GT PUSH2 0x5B JUMPI DUP1 PUSH4 0x989ACE02 EQ PUSH2 0xC8 JUMPI DUP1 PUSH4 0x9ED2D84D EQ PUSH2 0xF8 JUMPI DUP1 PUSH4 0xB3BCFA82 EQ PUSH2 0x128 JUMPI DUP1 PUSH4 0xC54124BE EQ PUSH2 0x132 JUMPI PUSH2 0x7D JUMP JUMPDEST DUP1 PUSH4 0x146AF82B EQ PUSH2 0x82 JUMPI DUP1 PUSH4 0x371303C0 EQ PUSH2 0xA0 JUMPI DUP1 PUSH4 0x853255CC EQ PUSH2 0xAA JUMPI JUMPDEST PUSH1 0x0 DUP1 REVERT JUMPDEST PUSH2 0x8A PUSH2 0x150 JUMP JUMPDEST PUSH1 0x40 MLOAD PUSH2 0x97 SWAP2 SWAP1 PUSH2 0x239 JUMP JUMPDEST PUSH1 0x40 MLOAD DUP1 SWAP2 SUB SWAP1 RETURN JUMPDEST PUSH2 0xA8 PUSH2 0x159 JUMP JUMPDEST STOP JUMPDEST PUSH2 0xB2 PUSH2 0x172 JUMP JUMPDEST PUSH1 0x40 MLOAD PUSH2 0xBF SWAP2 SWAP1 PUSH2 0x239 JUMP JUMPDEST PUSH1 0x40 MLOAD DUP1 SWAP2 SUB SWAP1 RETURN JUMPDEST PUSH2 0xE2 PUSH1 0x4 DUP1 CALLDATASIZE SUB DUP2 ADD SWAP1 PUSH2 0xDD SWAP2 SWAP1 PUSH2 0x1EA JUMP JUMPDEST PUSH2 0x178 JUMP JUMPDEST PUSH1 0x40 MLOAD PUSH2 0xEF SWAP2 SWAP1 PUSH2 0x239 JUMP JUMPDEST PUSH1 0x40 MLOAD DUP1 SWAP2 SUB SWAP1 RETURN JUMPDEST PUSH2 0x112 PUSH1 0x4 DUP1 CALLDATASIZE SUB DUP2 ADD SWAP1 PUSH2 0x10D SWAP2 SWAP1 PUSH2 0x1EA JUMP JUMPDEST PUSH2 0x197 JUMP JUMPDEST PUSH1 0x40 MLOAD PUSH2 0x11F SWAP2 SWAP1 PUSH2 0x239 JUMP JUMPDEST PUSH1 0x40 MLOAD DUP1 SWAP2 SUB SWAP1 RETURN JUMPDEST PUSH2 0x130 PUSH2 0x1B6 JUMP JUMPDEST STOP JUMPDEST PUSH2 0x13A PUSH2 0x1CF JUMP JUMPDEST PUSH1 0x40 MLOAD PUSH2 0x147 SWAP2 SWAP1 PUSH2 0x239 JUMP JUMPDEST PUSH1 0x40 MLOAD DUP1 SWAP2 SUB SWAP1 RETURN JUMPDEST PUSH1 0x0 DUP1 SLOAD SWAP1 POP SWAP1 JUMP JUMPDEST PUSH1 0x0 DUP1 DUP2 SLOAD DUP1 SWAP3 SWAP2 SWAP1 PUSH2 0x16B SWAP1 PUSH2 0x312 JUMP JUMPDEST SWAP2 SWAP1 POP SSTORE POP JUMP JUMPDEST PUSH1 0x1 SLOAD DUP2 JUMP JUMPDEST PUSH1 0x0 DUP2 DUP4 PUSH2 0x186 SWAP2 SWAP1 PUSH2 0x2AA JUMP JUMPDEST PUSH1 0x2 DUP2 SWAP1 SSTORE POP PUSH1 0x2 SLOAD SWAP1 POP SWAP3 SWAP2 POP POP JUMP JUMPDEST PUSH1 0x0 DUP2 DUP4 PUSH2 0x1A5 SWAP2 SWAP1 PUSH2 0x254 JUMP JUMPDEST PUSH1 0x1 DUP2 SWAP1 SSTORE POP PUSH1 0x1 SLOAD SWAP1 POP SWAP3 SWAP2 POP POP JUMP JUMPDEST PUSH1 0x0 DUP1 DUP2 SLOAD DUP1 SWAP3 SWAP2 SWAP1 PUSH2 0x1C8 SWAP1 PUSH2 0x2E8 JUMP JUMPDEST SWAP2 SWAP1 POP SSTORE POP JUMP JUMPDEST PUSH1 0x2 SLOAD DUP2 JUMP JUMPDEST PUSH1 0x0 DUP2 CALLDATALOAD SWAP1 POP PUSH2 0x1E4 DUP2 PUSH2 0x38F JUMP JUMPDEST SWAP3 SWAP2 POP POP JUMP JUMPDEST PUSH1 0x0 DUP1 PUSH1 0x40 DUP4 DUP6 SUB SLT ISZERO PUSH2 0x201 JUMPI PUSH2 0x200 PUSH2 0x38A JUMP JUMPDEST JUMPDEST PUSH1 0x0 PUSH2 0x20F DUP6 DUP3 DUP7 ADD PUSH2 0x1D5 JUMP JUMPDEST SWAP3 POP POP PUSH1 0x20 PUSH2 0x220 DUP6 DUP3 DUP7 ADD PUSH2 0x1D5 JUMP JUMPDEST SWAP2 POP POP SWAP3 POP SWAP3 SWAP1 POP JUMP JUMPDEST PUSH2 0x233 DUP2 PUSH2 0x2DE JUMP JUMPDEST DUP3 MSTORE POP POP JUMP JUMPDEST PUSH1 0x0 PUSH1 0x20 DUP3 ADD SWAP1 POP PUSH2 0x24E PUSH1 0x0 DUP4 ADD DUP5 PUSH2 0x22A JUMP JUMPDEST SWAP3 SWAP2 POP POP JUMP JUMPDEST PUSH1 0x0 PUSH2 0x25F DUP3 PUSH2 0x2DE JUMP JUMPDEST SWAP2 POP PUSH2 0x26A DUP4 PUSH2 0x2DE JUMP JUMPDEST SWAP3 POP DUP3 PUSH32 0xFFFFFFFFFFFFFFFFFFFFFFFFFFFFFFFFFFFFFFFFFFFFFFFFFFFFFFFFFFFFFFFF SUB DUP3 GT ISZERO PUSH2 0x29F JUMPI PUSH2 0x29E PUSH2 0x35B JUMP JUMPDEST JUMPDEST DUP3 DUP3 ADD SWAP1 POP SWAP3 SWAP2 POP POP JUMP JUMPDEST PUSH1 0x0 PUSH2 0x2B5 DUP3 PUSH2 0x2DE JUMP JUMPDEST SWAP2 POP PUSH2 0x2C0 DUP4 PUSH2 0x2DE JUMP JUMPDEST SWAP3 POP DUP3 DUP3 LT ISZERO PUSH2 0x2D3 JUMPI PUSH2 0x2D2 PUSH2 0x35B JUMP JUMPDEST JUMPDEST DUP3 DUP3 SUB SWAP1 POP SWAP3 SWAP2 POP POP JUMP JUMPDEST PUSH1 0x0 DUP2 SWAP1 POP SWAP2 SWAP1 POP JUMP JUMPDEST PUSH1 0x0 PUSH2 0x2F3 DUP3 PUSH2 0x2DE JUMP JUMPDEST SWAP2 POP PUSH1 0x0 DUP3 EQ ISZERO PUSH2 0x307 JUMPI PUSH2 0x306 PUSH2 0x35B JUMP JUMPDEST JUMPDEST PUSH1 0x1 DUP3 SUB SWAP1 POP SWAP2 SWAP1 POP JUMP JUMPDEST PUSH1 0x0 PUSH2 0x31D DUP3 PUSH2 0x2DE JUMP JUMPDEST SWAP2 POP PUSH32 0xFFFFFFFFFFFFFFFFFFFFFFFFFFFFFFFFFFFFFFFFFFFFFFFFFFFFFFFFFFFFFFFF DUP3 EQ ISZERO PUSH2 0x350 JUMPI PUSH2 0x34F PUSH2 0x35B JUMP JUMPDEST JUMPDEST PUSH1 0x1 DUP3 ADD SWAP1 POP SWAP2 SWAP1 POP JUMP JUMPDEST PUSH32 0x4E487B7100000000000000000000000000000000000000000000000000000000 PUSH1 0x0 MSTORE PUSH1 0x11 PUSH1 0x4 MSTORE PUSH1 0x24 PUSH1 0x0 REVERT JUMPDEST PUSH1 0x0 DUP1 REVERT JUMPDEST PUSH2 0x398 DUP2 PUSH2 0x2DE JUMP JUMPDEST DUP2 EQ PUSH2 0x3A3 JUMPI PUSH1 0x0 DUP1 REVERT JUMPDEST POP JUMP INVALID LOG2 PUSH5 0x6970667358 0x22 SLT KECCAK256 PUSH2 0xD9CE EXP CALLDATASIZE MOD TIMESTAMP 0x29 CALLVALUE DELEGATECALL DUP9 0xF6 0xED 0xEB PUSH22 0xA075FB074FDAC4AA56987083EB77724E2164736F6C63 NUMBER STOP ADDMOD SMOD STOP CALLER "
				},
				"gasEstimates": {
					"creation": {
						"codeDepositCost": "197600",
						"executionCost": "238",
						"totalCost": "197838"
					},
					"external": {
						"dec()": "24548",
						"getadd(uint256,uint256)": "infinite",
						"getcount()": "2438",
						"getsub(uint256,uint256)": "infinite",
						"inc()": "24527",
						"sub()": "2495",
						"sum()": "2474"
					}
				},
				"methodIdentifiers": {
					"dec()": "b3bcfa82",
					"getadd(uint256,uint256)": "9ed2d84d",
					"getcount()": "146af82b",
					"getsub(uint256,uint256)": "989ace02",
					"inc()": "371303c0",
					"sub()": "c54124be",
					"sum()": "853255cc"
				}
			},
			"storageLayout": {
				"storage": [
					{
						"astId": 3,
						"contract": "contracts/Counter.sol:Counter",
						"label": "counter",
						"offset": 0,
						"slot": "0",
						"type": "t_uint256"
					},
					{
						"astId": 5,
						"contract": "contracts/Counter.sol:Counter",
						"label": "sum",
						"offset": 0,
						"slot": "1",
						"type": "t_uint256"
					},
					{
						"astId": 7,
						"contract": "contracts/Counter.sol:Counter",
						"label": "sub",
						"offset": 0,
						"slot": "2",
						"type": "t_uint256"
					}
				],
				"types": {
					"t_uint256": {
						"encoding": "inplace",
						"label": "uint256",
						"numberOfBytes": "32"
					}
				}
			},
			"userdoc": {
				"kind": "user",
				"methods": {},
				"version": 1
			}
		}
	}
}