{
	"contracts/FallbackReceive.sol": {
		"FallbackReceive": {
			"abi": [
				{
					"stateMutability": "payable",
					"type": "fallback"
				},
				{
					"inputs": [],
					"name": "amount",
					"outputs": [
						{
							"internalType": "uint256",
							"name": "",
							"type": "uint256"
						}
					],
					"stateMutability": "view",
					"type": "function"
				},
				{
					"inputs": [],
					"name": "balance",
					"outputs": [
						{
							"internalType": "uint256",
							"name": "",
							"type": "uint256"
						}
					],
					"stateMutability": "view",
					"type": "function"
				},
				{
					"inputs": [],
					"name": "called",
					"outputs": [
						{
							"internalType": "string",
							"name": "",
							"type": "string"
						}
					],
					"stateMutability": "view",
					"type": "function"
				},
				{
					"inputs": [],
					"name": "data",
					"outputs": [
						{
							"internalType": "bytes",
							"name": "",
							"type": "bytes"
						}
					],
					"stateMutability": "view",
					"type": "function"
				},
				{
					"inputs": [],
					"name": "receiver_balance",
					"outputs": [
						{
							"internalType": "uint256",
							"name": "",
							"type": "uint256"
						}
					],
					"stateMutability": "view",
					"type": "function"
				},
				{
					"inputs": [],
					"name": "sender_balance",
					"outputs": [
						{
							"internalType": "uint256",
							"name": "",
							"type": "uint256"
						}
					],
					"stateMutability": "view",
					"type": "function"
				},
				{
					"stateMutability": "payable",
					"type": "receive"
				}
			],
			"devdoc": {
				"kind": "dev",
				"methods": {},
				"version": 1
			},
			"evm": {
				"assembly": "    /* \"contracts/FallbackReceive.sol\":58:776  contract FallbackReceive\r... */\n  mstore(0x40, 0x80)\n    /* \"contracts/FallbackReceive.sol\":91:115  string  public called=\"\" */\n  mload(0x40)\n  dup1\n  0x20\n  add\n  0x40\n  mstore\n  dup1\n  0x00\n  dup2\n  mstore\n  pop\n  0x00\n  swap1\n  dup1\n  mload\n  swap1\n  0x20\n  add\n  swap1\n  tag_1\n  swap3\n  swap2\n  swap1\n  tag_2\n  jump\t// in\ntag_1:\n  pop\n    /* \"contracts/FallbackReceive.sol\":143:144  0 */\n  0x00\n    /* \"contracts/FallbackReceive.sol\":123:144  uint public  amount=0 */\n  0x01\n  sstore\n    /* \"contracts/FallbackReceive.sol\":195:196  0 */\n  0x00\n    /* \"contracts/FallbackReceive.sol\":175:196  uint public balance=0 */\n  0x03\n  sstore\n    /* \"contracts/FallbackReceive.sol\":230:231  0 */\n  0x00\n    /* \"contracts/FallbackReceive.sol\":203:231  uint public sender_balance=0 */\n  0x04\n  sstore\n    /* \"contracts/FallbackReceive.sol\":267:268  0 */\n  0x00\n    /* \"contracts/FallbackReceive.sol\":238:268  uint public receiver_balance=0 */\n  0x05\n  sstore\n    /* \"contracts/FallbackReceive.sol\":58:776  contract FallbackReceive\r... */\n  callvalue\n  dup1\n  iszero\n  tag_3\n  jumpi\n  0x00\n  dup1\n  revert\ntag_3:\n  pop\n  jump(tag_4)\ntag_2:\n  dup3\n  dup1\n  sload\n  tag_5\n  swap1\n  tag_6\n  jump\t// in\ntag_5:\n  swap1\n  0x00\n  mstore\n  keccak256(0x00, 0x20)\n  swap1\n  0x1f\n  add\n  0x20\n  swap1\n  div\n  dup2\n  add\n  swap3\n  dup3\n  tag_8\n  jumpi\n  0x00\n  dup6\n  sstore\n  jump(tag_7)\ntag_8:\n  dup3\n  0x1f\n  lt\n  tag_9\n  jumpi\n  dup1\n  mload\n  not(0xff)\n  and\n  dup4\n  dup1\n  add\n  or\n  dup6\n  sstore\n  jump(tag_7)\ntag_9:\n  dup3\n  dup1\n  add\n  0x01\n  add\n  dup6\n  sstore\n  dup3\n  iszero\n  tag_7\n  jumpi\n  swap2\n  dup3\n  add\ntag_10:\n  dup3\n  dup2\n  gt\n  iszero\n  tag_11\n  jumpi\n  dup3\n  mload\n  dup3\n  sstore\n  swap2\n  0x20\n  add\n  swap2\n  swap1\n  0x01\n  add\n  swap1\n  jump(tag_10)\ntag_11:\ntag_7:\n  pop\n  swap1\n  pop\n  tag_12\n  swap2\n  swap1\n  tag_13\n  jump\t// in\ntag_12:\n  pop\n  swap1\n  jump\t// out\ntag_13:\ntag_14:\n  dup1\n  dup3\n  gt\n  iszero\n  tag_15\n  jumpi\n  0x00\n  dup2\n  0x00\n  swap1\n  sstore\n  pop\n  0x01\n  add\n  jump(tag_14)\ntag_15:\n  pop\n  swap1\n  jump\t// out\n    /* \"#utility.yul\":7:327   */\ntag_6:\n    /* \"#utility.yul\":51:57   */\n  0x00\n    /* \"#utility.yul\":88:89   */\n  0x02\n    /* \"#utility.yul\":82:86   */\n  dup3\n    /* \"#utility.yul\":78:90   */\n  div\n    /* \"#utility.yul\":68:90   */\n  swap1\n  pop\n    /* \"#utility.yul\":135:136   */\n  0x01\n    /* \"#utility.yul\":129:133   */\n  dup3\n    /* \"#utility.yul\":125:137   */\n  and\n    /* \"#utility.yul\":156:174   */\n  dup1\n    /* \"#utility.yul\":146:227   */\n  tag_18\n  jumpi\n    /* \"#utility.yul\":212:216   */\n  0x7f\n    /* \"#utility.yul\":204:210   */\n  dup3\n    /* \"#utility.yul\":200:217   */\n  and\n    /* \"#utility.yul\":190:217   */\n  swap2\n  pop\n    /* \"#utility.yul\":146:227   */\ntag_18:\n    /* \"#utility.yul\":274:276   */\n  0x20\n    /* \"#utility.yul\":266:272   */\n  dup3\n    /* \"#utility.yul\":263:277   */\n  lt\n    /* \"#utility.yul\":243:261   */\n  dup2\n    /* \"#utility.yul\":240:278   */\n  eq\n    /* \"#utility.yul\":237:321   */\n  iszero\n  tag_19\n  jumpi\n    /* \"#utility.yul\":293:311   */\n  tag_20\n  tag_21\n  jump\t// in\ntag_20:\n    /* \"#utility.yul\":237:321   */\ntag_19:\n    /* \"#utility.yul\":58:327   */\n  pop\n    /* \"#utility.yul\":7:327   */\n  swap2\n  swap1\n  pop\n  jump\t// out\n    /* \"#utility.yul\":333:513   */\ntag_21:\n    /* \"#utility.yul\":381:458   */\n  0x4e487b7100000000000000000000000000000000000000000000000000000000\n    /* \"#utility.yul\":378:379   */\n  0x00\n    /* \"#utility.yul\":371:459   */\n  mstore\n    /* \"#utility.yul\":478:482   */\n  0x22\n    /* \"#utility.yul\":475:476   */\n  0x04\n    /* \"#utility.yul\":468:483   */\n  mstore\n    /* \"#utility.yul\":502:506   */\n  0x24\n    /* \"#utility.yul\":499:500   */\n  0x00\n    /* \"#utility.yul\":492:507   */\n  revert\n    /* \"contracts/FallbackReceive.sol\":58:776  contract FallbackReceive\r... */\ntag_4:\n  dataSize(sub_0)\n  dup1\n  dataOffset(sub_0)\n  0x00\n  codecopy\n  0x00\n  return\nstop\n\nsub_0: assembly {\n        /* \"contracts/FallbackReceive.sol\":58:776  contract FallbackReceive\r... */\n      mstore(0x40, 0x80)\n      jumpi(tag_1, lt(calldatasize, 0x04))\n      shr(0xe0, calldataload(0x00))\n      dup1\n      0x50f9b6cd\n      eq\n      tag_3\n      jumpi\n      dup1\n      0x73d4a13a\n      eq\n      tag_4\n      jumpi\n      dup1\n      0x9f239a7f\n      eq\n      tag_5\n      jumpi\n      dup1\n      0xaa8c217c\n      eq\n      tag_6\n      jumpi\n      dup1\n      0xb69ef8a8\n      eq\n      tag_7\n      jumpi\n      dup1\n      0xdea75771\n      eq\n      tag_8\n      jumpi\n      jump(tag_2)\n    tag_1:\n      jumpi(tag_2, calldatasize)\n        /* \"contracts/FallbackReceive.sol\":318:343  called=\"receive function\" */\n      mload(0x40)\n      dup1\n      0x40\n      add\n      0x40\n      mstore\n      dup1\n      0x10\n      dup2\n      mstore\n      0x20\n      add\n      0x726563656976652066756e6374696f6e00000000000000000000000000000000\n      dup2\n      mstore\n      pop\n        /* \"contracts/FallbackReceive.sol\":318:324  called */\n      0x00\n        /* \"contracts/FallbackReceive.sol\":318:343  called=\"receive function\" */\n      swap1\n      dup1\n      mload\n      swap1\n      0x20\n      add\n      swap1\n      tag_11\n      swap3\n      swap2\n      swap1\n      tag_12\n      jump\t// in\n    tag_11:\n      pop\n        /* \"contracts/FallbackReceive.sol\":362:371  msg.value */\n      callvalue\n        /* \"contracts/FallbackReceive.sol\":355:361  amount */\n      0x01\n        /* \"contracts/FallbackReceive.sol\":355:371  amount=msg.value */\n      dup2\n      swap1\n      sstore\n      pop\n        /* \"contracts/FallbackReceive.sol\":393:414  address(this).balance */\n      selfbalance\n        /* \"contracts/FallbackReceive.sol\":383:390  balance */\n      0x03\n        /* \"contracts/FallbackReceive.sol\":383:414  balance = address(this).balance */\n      dup2\n      swap1\n      sstore\n      pop\n        /* \"contracts/FallbackReceive.sol\":451:461  msg.sender */\n      caller\n        /* \"contracts/FallbackReceive.sol\":443:470  address(msg.sender).balance */\n      0xffffffffffffffffffffffffffffffffffffffff\n      and\n      balance\n        /* \"contracts/FallbackReceive.sol\":426:442  receiver_balance */\n      0x05\n        /* \"contracts/FallbackReceive.sol\":426:470  receiver_balance=address(msg.sender).balance */\n      dup2\n      swap1\n      sstore\n      pop\n        /* \"contracts/FallbackReceive.sol\":58:776  contract FallbackReceive\r... */\n      stop\n    tag_2:\n        /* \"contracts/FallbackReceive.sol\":536:562  called=\"fallback function\" */\n      mload(0x40)\n      dup1\n      0x40\n      add\n      0x40\n      mstore\n      dup1\n      0x11\n      dup2\n      mstore\n      0x20\n      add\n      0x66616c6c6261636b2066756e6374696f6e000000000000000000000000000000\n      dup2\n      mstore\n      pop\n        /* \"contracts/FallbackReceive.sol\":536:542  called */\n      0x00\n        /* \"contracts/FallbackReceive.sol\":536:562  called=\"fallback function\" */\n      swap1\n      dup1\n      mload\n      swap1\n      0x20\n      add\n      swap1\n      tag_15\n      swap3\n      swap2\n      swap1\n      tag_12\n      jump\t// in\n    tag_15:\n      pop\n        /* \"contracts/FallbackReceive.sol\":581:590  msg.value */\n      callvalue\n        /* \"contracts/FallbackReceive.sol\":574:580  amount */\n      0x01\n        /* \"contracts/FallbackReceive.sol\":574:590  amount=msg.value */\n      dup2\n      swap1\n      sstore\n      pop\n        /* \"contracts/FallbackReceive.sol\":609:617  msg.data */\n      0x00\n      calldatasize\n        /* \"contracts/FallbackReceive.sol\":602:606  data */\n      0x02\n        /* \"contracts/FallbackReceive.sol\":602:617  data = msg.data */\n      swap2\n      swap1\n      tag_16\n      swap3\n      swap2\n      swap1\n      tag_17\n      jump\t// in\n    tag_16:\n      pop\n        /* \"contracts/FallbackReceive.sol\":639:660  address(this).balance */\n      selfbalance\n        /* \"contracts/FallbackReceive.sol\":629:636  balance */\n      0x03\n        /* \"contracts/FallbackReceive.sol\":629:660  balance = address(this).balance */\n      dup2\n      swap1\n      sstore\n      pop\n        /* \"contracts/FallbackReceive.sol\":689:699  msg.sender */\n      caller\n        /* \"contracts/FallbackReceive.sol\":688:708  (msg.sender).balance */\n      0xffffffffffffffffffffffffffffffffffffffff\n      and\n      balance\n        /* \"contracts/FallbackReceive.sol\":673:687  sender_balance */\n      0x04\n        /* \"contracts/FallbackReceive.sol\":673:708  sender_balance=(msg.sender).balance */\n      dup2\n      swap1\n      sstore\n      pop\n        /* \"contracts/FallbackReceive.sol\":746:756  msg.sender */\n      caller\n        /* \"contracts/FallbackReceive.sol\":738:765  address(msg.sender).balance */\n      0xffffffffffffffffffffffffffffffffffffffff\n      and\n      balance\n        /* \"contracts/FallbackReceive.sol\":721:737  receiver_balance */\n      0x05\n        /* \"contracts/FallbackReceive.sol\":721:765  receiver_balance=address(msg.sender).balance */\n      dup2\n      swap1\n      sstore\n      pop\n        /* \"contracts/FallbackReceive.sol\":58:776  contract FallbackReceive\r... */\n      stop\n        /* \"contracts/FallbackReceive.sol\":91:115  string  public called=\"\" */\n    tag_3:\n      callvalue\n      dup1\n      iszero\n      tag_18\n      jumpi\n      0x00\n      dup1\n      revert\n    tag_18:\n      pop\n      tag_19\n      tag_20\n      jump\t// in\n    tag_19:\n      mload(0x40)\n      tag_21\n      swap2\n      swap1\n      tag_22\n      jump\t// in\n    tag_21:\n      mload(0x40)\n      dup1\n      swap2\n      sub\n      swap1\n      return\n        /* \"contracts/FallbackReceive.sol\":151:168  bytes public data */\n    tag_4:\n      callvalue\n      dup1\n      iszero\n      tag_23\n      jumpi\n      0x00\n      dup1\n      revert\n    tag_23:\n      pop\n      tag_24\n      tag_25\n      jump\t// in\n    tag_24:\n      mload(0x40)\n      tag_26\n      swap2\n      swap1\n      tag_27\n      jump\t// in\n    tag_26:\n      mload(0x40)\n      dup1\n      swap2\n      sub\n      swap1\n      return\n        /* \"contracts/FallbackReceive.sol\":203:231  uint public sender_balance=0 */\n    tag_5:\n      callvalue\n      dup1\n      iszero\n      tag_28\n      jumpi\n      0x00\n      dup1\n      revert\n    tag_28:\n      pop\n      tag_29\n      tag_30\n      jump\t// in\n    tag_29:\n      mload(0x40)\n      tag_31\n      swap2\n      swap1\n      tag_32\n      jump\t// in\n    tag_31:\n      mload(0x40)\n      dup1\n      swap2\n      sub\n      swap1\n      return\n        /* \"contracts/FallbackReceive.sol\":123:144  uint public  amount=0 */\n    tag_6:\n      callvalue\n      dup1\n      iszero\n      tag_33\n      jumpi\n      0x00\n      dup1\n      revert\n    tag_33:\n      pop\n      tag_34\n      tag_35\n      jump\t// in\n    tag_34:\n      mload(0x40)\n      tag_36\n      swap2\n      swap1\n      tag_32\n      jump\t// in\n    tag_36:\n      mload(0x40)\n      dup1\n      swap2\n      sub\n      swap1\n      return\n        /* \"contracts/FallbackReceive.sol\":175:196  uint public balance=0 */\n    tag_7:\n      callvalue\n      dup1\n      iszero\n      tag_37\n      jumpi\n      0x00\n      dup1\n      revert\n    tag_37:\n      pop\n      tag_38\n      tag_39\n      jump\t// in\n    tag_38:\n      mload(0x40)\n      tag_40\n      swap2\n      swap1\n      tag_32\n      jump\t// in\n    tag_40:\n      mload(0x40)\n      dup1\n      swap2\n      sub\n      swap1\n      return\n        /* \"contracts/FallbackReceive.sol\":238:268  uint public receiver_balance=0 */\n    tag_8:\n      callvalue\n      dup1\n      iszero\n      tag_41\n      jumpi\n      0x00\n      dup1\n      revert\n    tag_41:\n      pop\n      tag_42\n      tag_43\n      jump\t// in\n    tag_42:\n      mload(0x40)\n      tag_44\n      swap2\n      swap1\n      tag_32\n      jump\t// in\n    tag_44:\n      mload(0x40)\n      dup1\n      swap2\n      sub\n      swap1\n      return\n        /* \"contracts/FallbackReceive.sol\":91:115  string  public called=\"\" */\n    tag_20:\n      0x00\n      dup1\n      sload\n      tag_45\n      swap1\n      tag_46\n      jump\t// in\n    tag_45:\n      dup1\n      0x1f\n      add\n      0x20\n      dup1\n      swap2\n      div\n      mul\n      0x20\n      add\n      mload(0x40)\n      swap1\n      dup2\n      add\n      0x40\n      mstore\n      dup1\n      swap3\n      swap2\n      swap1\n      dup2\n      dup2\n      mstore\n      0x20\n      add\n      dup3\n      dup1\n      sload\n      tag_47\n      swap1\n      tag_46\n      jump\t// in\n    tag_47:\n      dup1\n      iszero\n      tag_48\n      jumpi\n      dup1\n      0x1f\n      lt\n      tag_49\n      jumpi\n      0x0100\n      dup1\n      dup4\n      sload\n      div\n      mul\n      dup4\n      mstore\n      swap2\n      0x20\n      add\n      swap2\n      jump(tag_48)\n    tag_49:\n      dup3\n      add\n      swap2\n      swap1\n      0x00\n      mstore\n      keccak256(0x00, 0x20)\n      swap1\n    tag_50:\n      dup2\n      sload\n      dup2\n      mstore\n      swap1\n      0x01\n      add\n      swap1\n      0x20\n      add\n      dup1\n      dup4\n      gt\n      tag_50\n      jumpi\n      dup3\n      swap1\n      sub\n      0x1f\n      and\n      dup3\n      add\n      swap2\n    tag_48:\n      pop\n      pop\n      pop\n      pop\n      pop\n      dup2\n      jump\t// out\n        /* \"contracts/FallbackReceive.sol\":151:168  bytes public data */\n    tag_25:\n      0x02\n      dup1\n      sload\n      tag_51\n      swap1\n      tag_46\n      jump\t// in\n    tag_51:\n      dup1\n      0x1f\n      add\n      0x20\n      dup1\n      swap2\n      div\n      mul\n      0x20\n      add\n      mload(0x40)\n      swap1\n      dup2\n      add\n      0x40\n      mstore\n      dup1\n      swap3\n      swap2\n      swap1\n      dup2\n      dup2\n      mstore\n      0x20\n      add\n      dup3\n      dup1\n      sload\n      tag_52\n      swap1\n      tag_46\n      jump\t// in\n    tag_52:\n      dup1\n      iszero\n      tag_53\n      jumpi\n      dup1\n      0x1f\n      lt\n      tag_54\n      jumpi\n      0x0100\n      dup1\n      dup4\n      sload\n      div\n      mul\n      dup4\n      mstore\n      swap2\n      0x20\n      add\n      swap2\n      jump(tag_53)\n    tag_54:\n      dup3\n      add\n      swap2\n      swap1\n      0x00\n      mstore\n      keccak256(0x00, 0x20)\n      swap1\n    tag_55:\n      dup2\n      sload\n      dup2\n      mstore\n      swap1\n      0x01\n      add\n      swap1\n      0x20\n      add\n      dup1\n      dup4\n      gt\n      tag_55\n      jumpi\n      dup3\n      swap1\n      sub\n      0x1f\n      and\n      dup3\n      add\n      swap2\n    tag_53:\n      pop\n      pop\n      pop\n      pop\n      pop\n      dup2\n      jump\t// out\n        /* \"contracts/FallbackReceive.sol\":203:231  uint public sender_balance=0 */\n    tag_30:\n      sload(0x04)\n      dup2\n      jump\t// out\n        /* \"contracts/FallbackReceive.sol\":123:144  uint public  amount=0 */\n    tag_35:\n      sload(0x01)\n      dup2\n      jump\t// out\n        /* \"contracts/FallbackReceive.sol\":175:196  uint public balance=0 */\n    tag_39:\n      sload(0x03)\n      dup2\n      jump\t// out\n        /* \"contracts/FallbackReceive.sol\":238:268  uint public receiver_balance=0 */\n    tag_43:\n      sload(0x05)\n      dup2\n      jump\t// out\n    tag_12:\n      dup3\n      dup1\n      sload\n      tag_56\n      swap1\n      tag_46\n      jump\t// in\n    tag_56:\n      swap1\n      0x00\n      mstore\n      keccak256(0x00, 0x20)\n      swap1\n      0x1f\n      add\n      0x20\n      swap1\n      div\n      dup2\n      add\n      swap3\n      dup3\n      tag_58\n      jumpi\n      0x00\n      dup6\n      sstore\n      jump(tag_57)\n    tag_58:\n      dup3\n      0x1f\n      lt\n      tag_59\n      jumpi\n      dup1\n      mload\n      not(0xff)\n      and\n      dup4\n      dup1\n      add\n      or\n      dup6\n      sstore\n      jump(tag_57)\n    tag_59:\n      dup3\n      dup1\n      add\n      0x01\n      add\n      dup6\n      sstore\n      dup3\n      iszero\n      tag_57\n      jumpi\n      swap2\n      dup3\n      add\n    tag_60:\n      dup3\n      dup2\n      gt\n      iszero\n      tag_61\n      jumpi\n      dup3\n      mload\n      dup3\n      sstore\n      swap2\n      0x20\n      add\n      swap2\n      swap1\n      0x01\n      add\n      swap1\n      jump(tag_60)\n    tag_61:\n    tag_57:\n      pop\n      swap1\n      pop\n      tag_62\n      swap2\n      swap1\n      tag_63\n      jump\t// in\n    tag_62:\n      pop\n      swap1\n      jump\t// out\n    tag_17:\n      dup3\n      dup1\n      sload\n      tag_64\n      swap1\n      tag_46\n      jump\t// in\n    tag_64:\n      swap1\n      0x00\n      mstore\n      keccak256(0x00, 0x20)\n      swap1\n      0x1f\n      add\n      0x20\n      swap1\n      div\n      dup2\n      add\n      swap3\n      dup3\n      tag_66\n      jumpi\n      0x00\n      dup6\n      sstore\n      jump(tag_65)\n    tag_66:\n      dup3\n      0x1f\n      lt\n      tag_67\n      jumpi\n      dup1\n      calldataload\n      not(0xff)\n      and\n      dup4\n      dup1\n      add\n      or\n      dup6\n      sstore\n      jump(tag_65)\n    tag_67:\n      dup3\n      dup1\n      add\n      0x01\n      add\n      dup6\n      sstore\n      dup3\n      iszero\n      tag_65\n      jumpi\n      swap2\n      dup3\n      add\n    tag_68:\n      dup3\n      dup2\n      gt\n      iszero\n      tag_69\n      jumpi\n      dup3\n      calldataload\n      dup3\n      sstore\n      swap2\n      0x20\n      add\n      swap2\n      swap1\n      0x01\n      add\n      swap1\n      jump(tag_68)\n    tag_69:\n    tag_65:\n      pop\n      swap1\n      pop\n      tag_70\n      swap2\n      swap1\n      tag_63\n      jump\t// in\n    tag_70:\n      pop\n      swap1\n      jump\t// out\n    tag_63:\n    tag_71:\n      dup1\n      dup3\n      gt\n      iszero\n      tag_72\n      jumpi\n      0x00\n      dup2\n      0x00\n      swap1\n      sstore\n      pop\n      0x01\n      add\n      jump(tag_71)\n    tag_72:\n      pop\n      swap1\n      jump\t// out\n        /* \"#utility.yul\":7:367   */\n    tag_74:\n        /* \"#utility.yul\":93:96   */\n      0x00\n        /* \"#utility.yul\":121:159   */\n      tag_76\n        /* \"#utility.yul\":153:158   */\n      dup3\n        /* \"#utility.yul\":121:159   */\n      tag_77\n      jump\t// in\n    tag_76:\n        /* \"#utility.yul\":175:245   */\n      tag_78\n        /* \"#utility.yul\":238:244   */\n      dup2\n        /* \"#utility.yul\":233:236   */\n      dup6\n        /* \"#utility.yul\":175:245   */\n      tag_79\n      jump\t// in\n    tag_78:\n        /* \"#utility.yul\":168:245   */\n      swap4\n      pop\n        /* \"#utility.yul\":254:306   */\n      tag_80\n        /* \"#utility.yul\":299:305   */\n      dup2\n        /* \"#utility.yul\":294:297   */\n      dup6\n        /* \"#utility.yul\":287:291   */\n      0x20\n        /* \"#utility.yul\":280:285   */\n      dup7\n        /* \"#utility.yul\":276:292   */\n      add\n        /* \"#utility.yul\":254:306   */\n      tag_81\n      jump\t// in\n    tag_80:\n        /* \"#utility.yul\":331:360   */\n      tag_82\n        /* \"#utility.yul\":353:359   */\n      dup2\n        /* \"#utility.yul\":331:360   */\n      tag_83\n      jump\t// in\n    tag_82:\n        /* \"#utility.yul\":326:329   */\n      dup5\n        /* \"#utility.yul\":322:361   */\n      add\n        /* \"#utility.yul\":315:361   */\n      swap2\n      pop\n        /* \"#utility.yul\":97:367   */\n      pop\n        /* \"#utility.yul\":7:367   */\n      swap3\n      swap2\n      pop\n      pop\n      jump\t// out\n        /* \"#utility.yul\":373:737   */\n    tag_84:\n        /* \"#utility.yul\":461:464   */\n      0x00\n        /* \"#utility.yul\":489:528   */\n      tag_86\n        /* \"#utility.yul\":522:527   */\n      dup3\n        /* \"#utility.yul\":489:528   */\n      tag_87\n      jump\t// in\n    tag_86:\n        /* \"#utility.yul\":544:615   */\n      tag_88\n        /* \"#utility.yul\":608:614   */\n      dup2\n        /* \"#utility.yul\":603:606   */\n      dup6\n        /* \"#utility.yul\":544:615   */\n      tag_89\n      jump\t// in\n    tag_88:\n        /* \"#utility.yul\":537:615   */\n      swap4\n      pop\n        /* \"#utility.yul\":624:676   */\n      tag_90\n        /* \"#utility.yul\":669:675   */\n      dup2\n        /* \"#utility.yul\":664:667   */\n      dup6\n        /* \"#utility.yul\":657:661   */\n      0x20\n        /* \"#utility.yul\":650:655   */\n      dup7\n        /* \"#utility.yul\":646:662   */\n      add\n        /* \"#utility.yul\":624:676   */\n      tag_81\n      jump\t// in\n    tag_90:\n        /* \"#utility.yul\":701:730   */\n      tag_91\n        /* \"#utility.yul\":723:729   */\n      dup2\n        /* \"#utility.yul\":701:730   */\n      tag_83\n      jump\t// in\n    tag_91:\n        /* \"#utility.yul\":696:699   */\n      dup5\n        /* \"#utility.yul\":692:731   */\n      add\n        /* \"#utility.yul\":685:731   */\n      swap2\n      pop\n        /* \"#utility.yul\":465:737   */\n      pop\n        /* \"#utility.yul\":373:737   */\n      swap3\n      swap2\n      pop\n      pop\n      jump\t// out\n        /* \"#utility.yul\":743:861   */\n    tag_92:\n        /* \"#utility.yul\":830:854   */\n      tag_94\n        /* \"#utility.yul\":848:853   */\n      dup2\n        /* \"#utility.yul\":830:854   */\n      tag_95\n      jump\t// in\n    tag_94:\n        /* \"#utility.yul\":825:828   */\n      dup3\n        /* \"#utility.yul\":818:855   */\n      mstore\n        /* \"#utility.yul\":743:861   */\n      pop\n      pop\n      jump\t// out\n        /* \"#utility.yul\":867:1176   */\n    tag_27:\n        /* \"#utility.yul\":978:982   */\n      0x00\n        /* \"#utility.yul\":1016:1018   */\n      0x20\n        /* \"#utility.yul\":1005:1014   */\n      dup3\n        /* \"#utility.yul\":1001:1019   */\n      add\n        /* \"#utility.yul\":993:1019   */\n      swap1\n      pop\n        /* \"#utility.yul\":1065:1074   */\n      dup2\n        /* \"#utility.yul\":1059:1063   */\n      dup2\n        /* \"#utility.yul\":1055:1075   */\n      sub\n        /* \"#utility.yul\":1051:1052   */\n      0x00\n        /* \"#utility.yul\":1040:1049   */\n      dup4\n        /* \"#utility.yul\":1036:1053   */\n      add\n        /* \"#utility.yul\":1029:1076   */\n      mstore\n        /* \"#utility.yul\":1093:1169   */\n      tag_97\n        /* \"#utility.yul\":1164:1168   */\n      dup2\n        /* \"#utility.yul\":1155:1161   */\n      dup5\n        /* \"#utility.yul\":1093:1169   */\n      tag_74\n      jump\t// in\n    tag_97:\n        /* \"#utility.yul\":1085:1169   */\n      swap1\n      pop\n        /* \"#utility.yul\":867:1176   */\n      swap3\n      swap2\n      pop\n      pop\n      jump\t// out\n        /* \"#utility.yul\":1182:1495   */\n    tag_22:\n        /* \"#utility.yul\":1295:1299   */\n      0x00\n        /* \"#utility.yul\":1333:1335   */\n      0x20\n        /* \"#utility.yul\":1322:1331   */\n      dup3\n        /* \"#utility.yul\":1318:1336   */\n      add\n        /* \"#utility.yul\":1310:1336   */\n      swap1\n      pop\n        /* \"#utility.yul\":1382:1391   */\n      dup2\n        /* \"#utility.yul\":1376:1380   */\n      dup2\n        /* \"#utility.yul\":1372:1392   */\n      sub\n        /* \"#utility.yul\":1368:1369   */\n      0x00\n        /* \"#utility.yul\":1357:1366   */\n      dup4\n        /* \"#utility.yul\":1353:1370   */\n      add\n        /* \"#utility.yul\":1346:1393   */\n      mstore\n        /* \"#utility.yul\":1410:1488   */\n      tag_99\n        /* \"#utility.yul\":1483:1487   */\n      dup2\n        /* \"#utility.yul\":1474:1480   */\n      dup5\n        /* \"#utility.yul\":1410:1488   */\n      tag_84\n      jump\t// in\n    tag_99:\n        /* \"#utility.yul\":1402:1488   */\n      swap1\n      pop\n        /* \"#utility.yul\":1182:1495   */\n      swap3\n      swap2\n      pop\n      pop\n      jump\t// out\n        /* \"#utility.yul\":1501:1723   */\n    tag_32:\n        /* \"#utility.yul\":1594:1598   */\n      0x00\n        /* \"#utility.yul\":1632:1634   */\n      0x20\n        /* \"#utility.yul\":1621:1630   */\n      dup3\n        /* \"#utility.yul\":1617:1635   */\n      add\n        /* \"#utility.yul\":1609:1635   */\n      swap1\n      pop\n        /* \"#utility.yul\":1645:1716   */\n      tag_101\n        /* \"#utility.yul\":1713:1714   */\n      0x00\n        /* \"#utility.yul\":1702:1711   */\n      dup4\n        /* \"#utility.yul\":1698:1715   */\n      add\n        /* \"#utility.yul\":1689:1695   */\n      dup5\n        /* \"#utility.yul\":1645:1716   */\n      tag_92\n      jump\t// in\n    tag_101:\n        /* \"#utility.yul\":1501:1723   */\n      swap3\n      swap2\n      pop\n      pop\n      jump\t// out\n        /* \"#utility.yul\":1729:1827   */\n    tag_77:\n        /* \"#utility.yul\":1780:1786   */\n      0x00\n        /* \"#utility.yul\":1814:1819   */\n      dup2\n        /* \"#utility.yul\":1808:1820   */\n      mload\n        /* \"#utility.yul\":1798:1820   */\n      swap1\n      pop\n        /* \"#utility.yul\":1729:1827   */\n      swap2\n      swap1\n      pop\n      jump\t// out\n        /* \"#utility.yul\":1833:1932   */\n    tag_87:\n        /* \"#utility.yul\":1885:1891   */\n      0x00\n        /* \"#utility.yul\":1919:1924   */\n      dup2\n        /* \"#utility.yul\":1913:1925   */\n      mload\n        /* \"#utility.yul\":1903:1925   */\n      swap1\n      pop\n        /* \"#utility.yul\":1833:1932   */\n      swap2\n      swap1\n      pop\n      jump\t// out\n        /* \"#utility.yul\":1938:2106   */\n    tag_79:\n        /* \"#utility.yul\":2021:2032   */\n      0x00\n        /* \"#utility.yul\":2055:2061   */\n      dup3\n        /* \"#utility.yul\":2050:2053   */\n      dup3\n        /* \"#utility.yul\":2043:2062   */\n      mstore\n        /* \"#utility.yul\":2095:2099   */\n      0x20\n        /* \"#utility.yul\":2090:2093   */\n      dup3\n        /* \"#utility.yul\":2086:2100   */\n      add\n        /* \"#utility.yul\":2071:2100   */\n      swap1\n      pop\n        /* \"#utility.yul\":1938:2106   */\n      swap3\n      swap2\n      pop\n      pop\n      jump\t// out\n        /* \"#utility.yul\":2112:2281   */\n    tag_89:\n        /* \"#utility.yul\":2196:2207   */\n      0x00\n        /* \"#utility.yul\":2230:2236   */\n      dup3\n        /* \"#utility.yul\":2225:2228   */\n      dup3\n        /* \"#utility.yul\":2218:2237   */\n      mstore\n        /* \"#utility.yul\":2270:2274   */\n      0x20\n        /* \"#utility.yul\":2265:2268   */\n      dup3\n        /* \"#utility.yul\":2261:2275   */\n      add\n        /* \"#utility.yul\":2246:2275   */\n      swap1\n      pop\n        /* \"#utility.yul\":2112:2281   */\n      swap3\n      swap2\n      pop\n      pop\n      jump\t// out\n        /* \"#utility.yul\":2287:2364   */\n    tag_95:\n        /* \"#utility.yul\":2324:2331   */\n      0x00\n        /* \"#utility.yul\":2353:2358   */\n      dup2\n        /* \"#utility.yul\":2342:2358   */\n      swap1\n      pop\n        /* \"#utility.yul\":2287:2364   */\n      swap2\n      swap1\n      pop\n      jump\t// out\n        /* \"#utility.yul\":2370:2677   */\n    tag_81:\n        /* \"#utility.yul\":2438:2439   */\n      0x00\n        /* \"#utility.yul\":2448:2561   */\n    tag_108:\n        /* \"#utility.yul\":2462:2468   */\n      dup4\n        /* \"#utility.yul\":2459:2460   */\n      dup2\n        /* \"#utility.yul\":2456:2469   */\n      lt\n        /* \"#utility.yul\":2448:2561   */\n      iszero\n      tag_110\n      jumpi\n        /* \"#utility.yul\":2547:2548   */\n      dup1\n        /* \"#utility.yul\":2542:2545   */\n      dup3\n        /* \"#utility.yul\":2538:2549   */\n      add\n        /* \"#utility.yul\":2532:2550   */\n      mload\n        /* \"#utility.yul\":2528:2529   */\n      dup2\n        /* \"#utility.yul\":2523:2526   */\n      dup5\n        /* \"#utility.yul\":2519:2530   */\n      add\n        /* \"#utility.yul\":2512:2551   */\n      mstore\n        /* \"#utility.yul\":2484:2486   */\n      0x20\n        /* \"#utility.yul\":2481:2482   */\n      dup2\n        /* \"#utility.yul\":2477:2487   */\n      add\n        /* \"#utility.yul\":2472:2487   */\n      swap1\n      pop\n        /* \"#utility.yul\":2448:2561   */\n      jump(tag_108)\n    tag_110:\n        /* \"#utility.yul\":2579:2585   */\n      dup4\n        /* \"#utility.yul\":2576:2577   */\n      dup2\n        /* \"#utility.yul\":2573:2586   */\n      gt\n        /* \"#utility.yul\":2570:2671   */\n      iszero\n      tag_111\n      jumpi\n        /* \"#utility.yul\":2659:2660   */\n      0x00\n        /* \"#utility.yul\":2650:2656   */\n      dup5\n        /* \"#utility.yul\":2645:2648   */\n      dup5\n        /* \"#utility.yul\":2641:2657   */\n      add\n        /* \"#utility.yul\":2634:2661   */\n      mstore\n        /* \"#utility.yul\":2570:2671   */\n    tag_111:\n        /* \"#utility.yul\":2419:2677   */\n      pop\n        /* \"#utility.yul\":2370:2677   */\n      pop\n      pop\n      pop\n      jump\t// out\n        /* \"#utility.yul\":2683:3003   */\n    tag_46:\n        /* \"#utility.yul\":2727:2733   */\n      0x00\n        /* \"#utility.yul\":2764:2765   */\n      0x02\n        /* \"#utility.yul\":2758:2762   */\n      dup3\n        /* \"#utility.yul\":2754:2766   */\n      div\n        /* \"#utility.yul\":2744:2766   */\n      swap1\n      pop\n        /* \"#utility.yul\":2811:2812   */\n      0x01\n        /* \"#utility.yul\":2805:2809   */\n      dup3\n        /* \"#utility.yul\":2801:2813   */\n      and\n        /* \"#utility.yul\":2832:2850   */\n      dup1\n        /* \"#utility.yul\":2822:2903   */\n      tag_113\n      jumpi\n        /* \"#utility.yul\":2888:2892   */\n      0x7f\n        /* \"#utility.yul\":2880:2886   */\n      dup3\n        /* \"#utility.yul\":2876:2893   */\n      and\n        /* \"#utility.yul\":2866:2893   */\n      swap2\n      pop\n        /* \"#utility.yul\":2822:2903   */\n    tag_113:\n        /* \"#utility.yul\":2950:2952   */\n      0x20\n        /* \"#utility.yul\":2942:2948   */\n      dup3\n        /* \"#utility.yul\":2939:2953   */\n      lt\n        /* \"#utility.yul\":2919:2937   */\n      dup2\n        /* \"#utility.yul\":2916:2954   */\n      eq\n        /* \"#utility.yul\":2913:2997   */\n      iszero\n      tag_114\n      jumpi\n        /* \"#utility.yul\":2969:2987   */\n      tag_115\n      tag_116\n      jump\t// in\n    tag_115:\n        /* \"#utility.yul\":2913:2997   */\n    tag_114:\n        /* \"#utility.yul\":2734:3003   */\n      pop\n        /* \"#utility.yul\":2683:3003   */\n      swap2\n      swap1\n      pop\n      jump\t// out\n        /* \"#utility.yul\":3009:3189   */\n    tag_116:\n        /* \"#utility.yul\":3057:3134   */\n      0x4e487b7100000000000000000000000000000000000000000000000000000000\n        /* \"#utility.yul\":3054:3055   */\n      0x00\n        /* \"#utility.yul\":3047:3135   */\n      mstore\n        /* \"#utility.yul\":3154:3158   */\n      0x22\n        /* \"#utility.yul\":3151:3152   */\n      0x04\n        /* \"#utility.yul\":3144:3159   */\n      mstore\n        /* \"#utility.yul\":3178:3182   */\n      0x24\n        /* \"#utility.yul\":3175:3176   */\n      0x00\n        /* \"#utility.yul\":3168:3183   */\n      revert\n        /* \"#utility.yul\":3195:3297   */\n    tag_83:\n        /* \"#utility.yul\":3236:3242   */\n      0x00\n        /* \"#utility.yul\":3287:3289   */\n      0x1f\n        /* \"#utility.yul\":3283:3290   */\n      not\n        /* \"#utility.yul\":3278:3280   */\n      0x1f\n        /* \"#utility.yul\":3271:3276   */\n      dup4\n        /* \"#utility.yul\":3267:3281   */\n      add\n        /* \"#utility.yul\":3263:3291   */\n      and\n        /* \"#utility.yul\":3253:3291   */\n      swap1\n      pop\n        /* \"#utility.yul\":3195:3297   */\n      swap2\n      swap1\n      pop\n      jump\t// out\n\n    auxdata: 0xa26469706673582212207830e1665fa51409abdc9a434819364d0eb09eb14a30f456a0ff230e60080f1564736f6c63430008070033\n}\n",
				"bytecode": {
					"linkReferences": {},
					"object": "60806040526040518060200160405280600081525060009080519060200190610029929190610050565b50600060015560006003556000600455600060055534801561004a57600080fd5b50610154565b82805461005c906100f3565b90600052602060002090601f01602090048101928261007e57600085556100c5565b82601f1061009757805160ff19168380011785556100c5565b828001600101855582156100c5579182015b828111156100c45782518255916020019190600101906100a9565b5b5090506100d291906100d6565b5090565b5b808211156100ef5760008160009055506001016100d7565b5090565b6000600282049050600182168061010b57607f821691505b6020821081141561011f5761011e610125565b5b50919050565b7f4e487b7100000000000000000000000000000000000000000000000000000000600052602260045260246000fd5b6106df806101636000396000f3fe6080604052600436106100595760003560e01c806350f9b6cd1461018357806373d4a13a146101ae5780639f239a7f146101d9578063aa8c217c14610204578063b69ef8a81461022f578063dea757711461025a576100d8565b366100d8576040518060400160405280601081526020017f726563656976652066756e6374696f6e00000000000000000000000000000000815250600090805190602001906100a99291906103b9565b5034600181905550476003819055503373ffffffffffffffffffffffffffffffffffffffff1631600581905550005b6040518060400160405280601181526020017f66616c6c6261636b2066756e6374696f6e000000000000000000000000000000815250600090805190602001906101239291906103b9565b50346001819055506000366002919061013d92919061043f565b50476003819055503373ffffffffffffffffffffffffffffffffffffffff16316004819055503373ffffffffffffffffffffffffffffffffffffffff1631600581905550005b34801561018f57600080fd5b50610198610285565b6040516101a59190610585565b60405180910390f35b3480156101ba57600080fd5b506101c3610313565b6040516101d09190610563565b60405180910390f35b3480156101e557600080fd5b506101ee6103a1565b6040516101fb91906105a7565b60405180910390f35b34801561021057600080fd5b506102196103a7565b60405161022691906105a7565b60405180910390f35b34801561023b57600080fd5b506102446103ad565b60405161025191906105a7565b60405180910390f35b34801561026657600080fd5b5061026f6103b3565b60405161027c91906105a7565b60405180910390f35b6000805461029290610637565b80601f01602080910402602001604051908101604052809291908181526020018280546102be90610637565b801561030b5780601f106102e05761010080835404028352916020019161030b565b820191906000526020600020905b8154815290600101906020018083116102ee57829003601f168201915b505050505081565b6002805461032090610637565b80601f016020809104026020016040519081016040528092919081815260200182805461034c90610637565b80156103995780601f1061036e57610100808354040283529160200191610399565b820191906000526020600020905b81548152906001019060200180831161037c57829003601f168201915b505050505081565b60045481565b60015481565b60035481565b60055481565b8280546103c590610637565b90600052602060002090601f0160209004810192826103e7576000855561042e565b82601f1061040057805160ff191683800117855561042e565b8280016001018555821561042e579182015b8281111561042d578251825591602001919060010190610412565b5b50905061043b91906104c5565b5090565b82805461044b90610637565b90600052602060002090601f01602090048101928261046d57600085556104b4565b82601f1061048657803560ff19168380011785556104b4565b828001600101855582156104b4579182015b828111156104b3578235825591602001919060010190610498565b5b5090506104c191906104c5565b5090565b5b808211156104de5760008160009055506001016104c6565b5090565b60006104ed826105c2565b6104f781856105d8565b9350610507818560208601610604565b61051081610698565b840191505092915050565b6000610526826105cd565b61053081856105e9565b9350610540818560208601610604565b61054981610698565b840191505092915050565b61055d816105fa565b82525050565b6000602082019050818103600083015261057d81846104e2565b905092915050565b6000602082019050818103600083015261059f818461051b565b905092915050565b60006020820190506105bc6000830184610554565b92915050565b600081519050919050565b600081519050919050565b600082825260208201905092915050565b600082825260208201905092915050565b6000819050919050565b60005b83811015610622578082015181840152602081019050610607565b83811115610631576000848401525b50505050565b6000600282049050600182168061064f57607f821691505b6020821081141561066357610662610669565b5b50919050565b7f4e487b7100000000000000000000000000000000000000000000000000000000600052602260045260246000fd5b6000601f19601f830116905091905056fea26469706673582212207830e1665fa51409abdc9a434819364d0eb09eb14a30f456a0ff230e60080f1564736f6c63430008070033",
					"opcodes": "PUSH1 0x80 PUSH1 0x40 MSTORE PUSH1 0x40 MLOAD DUP1 PUSH1 0x20 ADD PUSH1 0x40 MSTORE DUP1 PUSH1 0x0 DUP2 MSTORE POP PUSH1 0x0 SWAP1 DUP1 MLOAD SWAP1 PUSH1 0x20 ADD SWAP1 PUSH2 0x29 SWAP3 SWAP2 SWAP1 PUSH2 0x50 JUMP JUMPDEST POP PUSH1 0x0 PUSH1 0x1 SSTORE PUSH1 0x0 PUSH1 0x3 SSTORE PUSH1 0x0 PUSH1 0x4 SSTORE PUSH1 0x0 PUSH1 0x5 SSTORE CALLVALUE DUP1 ISZERO PUSH2 0x4A JUMPI PUSH1 0x0 DUP1 REVERT JUMPDEST POP PUSH2 0x154 JUMP JUMPDEST DUP3 DUP1 SLOAD PUSH2 0x5C SWAP1 PUSH2 0xF3 JUMP JUMPDEST SWAP1 PUSH1 0x0 MSTORE PUSH1 0x20 PUSH1 0x0 KECCAK256 SWAP1 PUSH1 0x1F ADD PUSH1 0x20 SWAP1 DIV DUP2 ADD SWAP3 DUP3 PUSH2 0x7E JUMPI PUSH1 0x0 DUP6 SSTORE PUSH2 0xC5 JUMP JUMPDEST DUP3 PUSH1 0x1F LT PUSH2 0x97 JUMPI DUP1 MLOAD PUSH1 0xFF NOT AND DUP4 DUP1 ADD OR DUP6 SSTORE PUSH2 0xC5 JUMP JUMPDEST DUP3 DUP1 ADD PUSH1 0x1 ADD DUP6 SSTORE DUP3 ISZERO PUSH2 0xC5 JUMPI SWAP2 DUP3 ADD JUMPDEST DUP3 DUP2 GT ISZERO PUSH2 0xC4 JUMPI DUP3 MLOAD DUP3 SSTORE SWAP2 PUSH1 0x20 ADD SWAP2 SWAP1 PUSH1 0x1 ADD SWAP1 PUSH2 0xA9 JUMP JUMPDEST JUMPDEST POP SWAP1 POP PUSH2 0xD2 SWAP2 SWAP1 PUSH2 0xD6 JUMP JUMPDEST POP SWAP1 JUMP JUMPDEST JUMPDEST DUP1 DUP3 GT ISZERO PUSH2 0xEF JUMPI PUSH1 0x0 DUP2 PUSH1 0x0 SWAP1 SSTORE POP PUSH1 0x1 ADD PUSH2 0xD7 JUMP JUMPDEST POP SWAP1 JUMP JUMPDEST PUSH1 0x0 PUSH1 0x2 DUP3 DIV SWAP1 POP PUSH1 0x1 DUP3 AND DUP1 PUSH2 0x10B JUMPI PUSH1 0x7F DUP3 AND SWAP2 POP JUMPDEST PUSH1 0x20 DUP3 LT DUP2 EQ ISZERO PUSH2 0x11F JUMPI PUSH2 0x11E PUSH2 0x125 JUMP JUMPDEST JUMPDEST POP SWAP2 SWAP1 POP JUMP JUMPDEST PUSH32 0x4E487B7100000000000000000000000000000000000000000000000000000000 PUSH1 0x0 MSTORE PUSH1 0x22 PUSH1 0x4 MSTORE PUSH1 0x24 PUSH1 0x0 REVERT JUMPDEST PUSH2 0x6DF DUP1 PUSH2 0x163 PUSH1 0x0 CODECOPY PUSH1 0x0 RETURN INVALID PUSH1 0x80 PUSH1 0x40 MSTORE PUSH1 0x4 CALLDATASIZE LT PUSH2 0x59 JUMPI PUSH1 0x0 CALLDATALOAD PUSH1 0xE0 SHR DUP1 PUSH4 0x50F9B6CD EQ PUSH2 0x183 JUMPI DUP1 PUSH4 0x73D4A13A EQ PUSH2 0x1AE JUMPI DUP1 PUSH4 0x9F239A7F EQ PUSH2 0x1D9 JUMPI DUP1 PUSH4 0xAA8C217C EQ PUSH2 0x204 JUMPI DUP1 PUSH4 0xB69EF8A8 EQ PUSH2 0x22F JUMPI DUP1 PUSH4 0xDEA75771 EQ PUSH2 0x25A JUMPI PUSH2 0xD8 JUMP JUMPDEST CALLDATASIZE PUSH2 0xD8 JUMPI PUSH1 0x40 MLOAD DUP1 PUSH1 0x40 ADD PUSH1 0x40 MSTORE DUP1 PUSH1 0x10 DUP2 MSTORE PUSH1 0x20 ADD PUSH32 0x726563656976652066756E6374696F6E00000000000000000000000000000000 DUP2 MSTORE POP PUSH1 0x0 SWAP1 DUP1 MLOAD SWAP1 PUSH1 0x20 ADD SWAP1 PUSH2 0xA9 SWAP3 SWAP2 SWAP1 PUSH2 0x3B9 JUMP JUMPDEST POP CALLVALUE PUSH1 0x1 DUP2 SWAP1 SSTORE POP SELFBALANCE PUSH1 0x3 DUP2 SWAP1 SSTORE POP CALLER PUSH20 0xFFFFFFFFFFFFFFFFFFFFFFFFFFFFFFFFFFFFFFFF AND BALANCE PUSH1 0x5 DUP2 SWAP1 SSTORE POP STOP JUMPDEST PUSH1 0x40 MLOAD DUP1 PUSH1 0x40 ADD PUSH1 0x40 MSTORE DUP1 PUSH1 0x11 DUP2 MSTORE PUSH1 0x20 ADD PUSH32 0x66616C6C6261636B2066756E6374696F6E000000000000000000000000000000 DUP2 MSTORE POP PUSH1 0x0 SWAP1 DUP1 MLOAD SWAP1 PUSH1 0x20 ADD SWAP1 PUSH2 0x123 SWAP3 SWAP2 SWAP1 PUSH2 0x3B9 JUMP JUMPDEST POP CALLVALUE PUSH1 0x1 DUP2 SWAP1 SSTORE POP PUSH1 0x0 CALLDATASIZE PUSH1 0x2 SWAP2 SWAP1 PUSH2 0x13D SWAP3 SWAP2 SWAP1 PUSH2 0x43F JUMP JUMPDEST POP SELFBALANCE PUSH1 0x3 DUP2 SWAP1 SSTORE POP CALLER PUSH20 0xFFFFFFFFFFFFFFFFFFFFFFFFFFFFFFFFFFFFFFFF AND BALANCE PUSH1 0x4 DUP2 SWAP1 SSTORE POP CALLER PUSH20 0xFFFFFFFFFFFFFFFFFFFFFFFFFFFFFFFFFFFFFFFF AND BALANCE PUSH1 0x5 DUP2 SWAP1 SSTORE POP STOP JUMPDEST CALLVALUE DUP1 ISZERO PUSH2 0x18F JUMPI PUSH1 0x0 DUP1 REVERT JUMPDEST POP PUSH2 0x198 PUSH2 0x285 JUMP JUMPDEST PUSH1 0x40 MLOAD PUSH2 0x1A5 SWAP2 SWAP1 PUSH2 0x585 JUMP JUMPDEST PUSH1 0x40 MLOAD DUP1 SWAP2 SUB SWAP1 RETURN JUMPDEST CALLVALUE DUP1 ISZERO PUSH2 0x1BA JUMPI PUSH1 0x0 DUP1 REVERT JUMPDEST POP PUSH2 0x1C3 PUSH2 0x313 JUMP JUMPDEST PUSH1 0x40 MLOAD PUSH2 0x1D0 SWAP2 SWAP1 PUSH2 0x563 JUMP JUMPDEST PUSH1 0x40 MLOAD DUP1 SWAP2 SUB SWAP1 RETURN JUMPDEST CALLVALUE DUP1 ISZERO PUSH2 0x1E5 JUMPI PUSH1 0x0 DUP1 REVERT JUMPDEST POP PUSH2 0x1EE PUSH2 0x3A1 JUMP JUMPDEST PUSH1 0x40 MLOAD PUSH2 0x1FB SWAP2 SWAP1 PUSH2 0x5A7 JUMP JUMPDEST PUSH1 0x40 MLOAD DUP1 SWAP2 SUB SWAP1 RETURN JUMPDEST CALLVALUE DUP1 ISZERO PUSH2 0x210 JUMPI PUSH1 0x0 DUP1 REVERT JUMPDEST POP PUSH2 0x219 PUSH2 0x3A7 JUMP JUMPDEST PUSH1 0x40 MLOAD PUSH2 0x226 SWAP2 SWAP1 PUSH2 0x5A7 JUMP JUMPDEST PUSH1 0x40 MLOAD DUP1 SWAP2 SUB SWAP1 RETURN JUMPDEST CALLVALUE DUP1 ISZERO PUSH2 0x23B JUMPI PUSH1 0x0 DUP1 REVERT JUMPDEST POP PUSH2 0x244 PUSH2 0x3AD JUMP JUMPDEST PUSH1 0x40 MLOAD PUSH2 0x251 SWAP2 SWAP1 PUSH2 0x5A7 JUMP JUMPDEST PUSH1 0x40 MLOAD DUP1 SWAP2 SUB SWAP1 RETURN JUMPDEST CALLVALUE DUP1 ISZERO PUSH2 0x266 JUMPI PUSH1 0x0 DUP1 REVERT JUMPDEST POP PUSH2 0x26F PUSH2 0x3B3 JUMP JUMPDEST PUSH1 0x40 MLOAD PUSH2 0x27C SWAP2 SWAP1 PUSH2 0x5A7 JUMP JUMPDEST PUSH1 0x40 MLOAD DUP1 SWAP2 SUB SWAP1 RETURN JUMPDEST PUSH1 0x0 DUP1 SLOAD PUSH2 0x292 SWAP1 PUSH2 0x637 JUMP JUMPDEST DUP1 PUSH1 0x1F ADD PUSH1 0x20 DUP1 SWAP2 DIV MUL PUSH1 0x20 ADD PUSH1 0x40 MLOAD SWAP1 DUP2 ADD PUSH1 0x40 MSTORE DUP1 SWAP3 SWAP2 SWAP1 DUP2 DUP2 MSTORE PUSH1 0x20 ADD DUP3 DUP1 SLOAD PUSH2 0x2BE SWAP1 PUSH2 0x637 JUMP JUMPDEST DUP1 ISZERO PUSH2 0x30B JUMPI DUP1 PUSH1 0x1F LT PUSH2 0x2E0 JUMPI PUSH2 0x100 DUP1 DUP4 SLOAD DIV MUL DUP4 MSTORE SWAP2 PUSH1 0x20 ADD SWAP2 PUSH2 0x30B JUMP JUMPDEST DUP3 ADD SWAP2 SWAP1 PUSH1 0x0 MSTORE PUSH1 0x20 PUSH1 0x0 KECCAK256 SWAP1 JUMPDEST DUP2 SLOAD DUP2 MSTORE SWAP1 PUSH1 0x1 ADD SWAP1 PUSH1 0x20 ADD DUP1 DUP4 GT PUSH2 0x2EE JUMPI DUP3 SWAP1 SUB PUSH1 0x1F AND DUP3 ADD SWAP2 JUMPDEST POP POP POP POP POP DUP2 JUMP JUMPDEST PUSH1 0x2 DUP1 SLOAD PUSH2 0x320 SWAP1 PUSH2 0x637 JUMP JUMPDEST DUP1 PUSH1 0x1F ADD PUSH1 0x20 DUP1 SWAP2 DIV MUL PUSH1 0x20 ADD PUSH1 0x40 MLOAD SWAP1 DUP2 ADD PUSH1 0x40 MSTORE DUP1 SWAP3 SWAP2 SWAP1 DUP2 DUP2 MSTORE PUSH1 0x20 ADD DUP3 DUP1 SLOAD PUSH2 0x34C SWAP1 PUSH2 0x637 JUMP JUMPDEST DUP1 ISZERO PUSH2 0x399 JUMPI DUP1 PUSH1 0x1F LT PUSH2 0x36E JUMPI PUSH2 0x100 DUP1 DUP4 SLOAD DIV MUL DUP4 MSTORE SWAP2 PUSH1 0x20 ADD SWAP2 PUSH2 0x399 JUMP JUMPDEST DUP3 ADD SWAP2 SWAP1 PUSH1 0x0 MSTORE PUSH1 0x20 PUSH1 0x0 KECCAK256 SWAP1 JUMPDEST DUP2 SLOAD DUP2 MSTORE SWAP1 PUSH1 0x1 ADD SWAP1 PUSH1 0x20 ADD DUP1 DUP4 GT PUSH2 0x37C JUMPI DUP3 SWAP1 SUB PUSH1 0x1F AND DUP3 ADD SWAP2 JUMPDEST POP POP POP POP POP DUP2 JUMP JUMPDEST PUSH1 0x4 SLOAD DUP2 JUMP JUMPDEST PUSH1 0x1 SLOAD DUP2 JUMP JUMPDEST PUSH1 0x3 SLOAD DUP2 JUMP JUMPDEST PUSH1 0x5 SLOAD DUP2 JUMP JUMPDEST DUP3 DUP1 SLOAD PUSH2 0x3C5 SWAP1 PUSH2 0x637 JUMP JUMPDEST SWAP1 PUSH1 0x0 MSTORE PUSH1 0x20 PUSH1 0x0 KECCAK256 SWAP1 PUSH1 0x1F ADD PUSH1 0x20 SWAP1 DIV DUP2 ADD SWAP3 DUP3 PUSH2 0x3E7 JUMPI PUSH1 0x0 DUP6 SSTORE PUSH2 0x42E JUMP JUMPDEST DUP3 PUSH1 0x1F LT PUSH2 0x400 JUMPI DUP1 MLOAD PUSH1 0xFF NOT AND DUP4 DUP1 ADD OR DUP6 SSTORE PUSH2 0x42E JUMP JUMPDEST DUP3 DUP1 ADD PUSH1 0x1 ADD DUP6 SSTORE DUP3 ISZERO PUSH2 0x42E JUMPI SWAP2 DUP3 ADD JUMPDEST DUP3 DUP2 GT ISZERO PUSH2 0x42D JUMPI DUP3 MLOAD DUP3 SSTORE SWAP2 PUSH1 0x20 ADD SWAP2 SWAP1 PUSH1 0x1 ADD SWAP1 PUSH2 0x412 JUMP JUMPDEST JUMPDEST POP SWAP1 POP PUSH2 0x43B SWAP2 SWAP1 PUSH2 0x4C5 JUMP JUMPDEST POP SWAP1 JUMP JUMPDEST DUP3 DUP1 SLOAD PUSH2 0x44B SWAP1 PUSH2 0x637 JUMP JUMPDEST SWAP1 PUSH1 0x0 MSTORE PUSH1 0x20 PUSH1 0x0 KECCAK256 SWAP1 PUSH1 0x1F ADD PUSH1 0x20 SWAP1 DIV DUP2 ADD SWAP3 DUP3 PUSH2 0x46D JUMPI PUSH1 0x0 DUP6 SSTORE PUSH2 0x4B4 JUMP JUMPDEST DUP3 PUSH1 0x1F LT PUSH2 0x486 JUMPI DUP1 CALLDATALOAD PUSH1 0xFF NOT AND DUP4 DUP1 ADD OR DUP6 SSTORE PUSH2 0x4B4 JUMP JUMPDEST DUP3 DUP1 ADD PUSH1 0x1 ADD DUP6 SSTORE DUP3 ISZERO PUSH2 0x4B4 JUMPI SWAP2 DUP3 ADD JUMPDEST DUP3 DUP2 GT ISZERO PUSH2 0x4B3 JUMPI DUP3 CALLDATALOAD DUP3 SSTORE SWAP2 PUSH1 0x20 ADD SWAP2 SWAP1 PUSH1 0x1 ADD SWAP1 PUSH2 0x498 JUMP JUMPDEST JUMPDEST POP SWAP1 POP PUSH2 0x4C1 SWAP2 SWAP1 PUSH2 0x4C5 JUMP JUMPDEST POP SWAP1 JUMP JUMPDEST JUMPDEST DUP1 DUP3 GT ISZERO PUSH2 0x4DE JUMPI PUSH1 0x0 DUP2 PUSH1 0x0 SWAP1 SSTORE POP PUSH1 0x1 ADD PUSH2 0x4C6 JUMP JUMPDEST POP SWAP1 JUMP JUMPDEST PUSH1 0x0 PUSH2 0x4ED DUP3 PUSH2 0x5C2 JUMP JUMPDEST PUSH2 0x4F7 DUP2 DUP6 PUSH2 0x5D8 JUMP JUMPDEST SWAP4 POP PUSH2 0x507 DUP2 DUP6 PUSH1 0x20 DUP7 ADD PUSH2 0x604 JUMP JUMPDEST PUSH2 0x510 DUP2 PUSH2 0x698 JUMP JUMPDEST DUP5 ADD SWAP2 POP POP SWAP3 SWAP2 POP POP JUMP JUMPDEST PUSH1 0x0 PUSH2 0x526 DUP3 PUSH2 0x5CD JUMP JUMPDEST PUSH2 0x530 DUP2 DUP6 PUSH2 0x5E9 JUMP JUMPDEST SWAP4 POP PUSH2 0x540 DUP2 DUP6 PUSH1 0x20 DUP7 ADD PUSH2 0x604 JUMP JUMPDEST PUSH2 0x549 DUP2 PUSH2 0x698 JUMP JUMPDEST DUP5 ADD SWAP2 POP POP SWAP3 SWAP2 POP POP JUMP JUMPDEST PUSH2 0x55D DUP2 PUSH2 0x5FA JUMP JUMPDEST DUP3 MSTORE POP POP JUMP JUMPDEST PUSH1 0x0 PUSH1 0x20 DUP3 ADD SWAP1 POP DUP2 DUP2 SUB PUSH1 0x0 DUP4 ADD MSTORE PUSH2 0x57D DUP2 DUP5 PUSH2 0x4E2 JUMP JUMPDEST SWAP1 POP SWAP3 SWAP2 POP POP JUMP JUMPDEST PUSH1 0x0 PUSH1 0x20 DUP3 ADD SWAP1 POP DUP2 DUP2 SUB PUSH1 0x0 DUP4 ADD MSTORE PUSH2 0x59F DUP2 DUP5 PUSH2 0x51B JUMP JUMPDEST SWAP1 POP SWAP3 SWAP2 POP POP JUMP JUMPDEST PUSH1 0x0 PUSH1 0x20 DUP3 ADD SWAP1 POP PUSH2 0x5BC PUSH1 0x0 DUP4 ADD DUP5 PUSH2 0x554 JUMP JUMPDEST SWAP3 SWAP2 POP POP JUMP JUMPDEST PUSH1 0x0 DUP2 MLOAD SWAP1 POP SWAP2 SWAP1 POP JUMP JUMPDEST PUSH1 0x0 DUP2 MLOAD SWAP1 POP SWAP2 SWAP1 POP JUMP JUMPDEST PUSH1 0x0 DUP3 DUP3 MSTORE PUSH1 0x20 DUP3 ADD SWAP1 POP SWAP3 SWAP2 POP POP JUMP JUMPDEST PUSH1 0x0 DUP3 DUP3 MSTORE PUSH1 0x20 DUP3 ADD SWAP1 POP SWAP3 SWAP2 POP POP JUMP JUMPDEST PUSH1 0x0 DUP2 SWAP1 POP SWAP2 SWAP1 POP JUMP JUMPDEST PUSH1 0x0 JUMPDEST DUP4 DUP2 LT ISZERO PUSH2 0x622 JUMPI DUP1 DUP3 ADD MLOAD DUP2 DUP5 ADD MSTORE PUSH1 0x20 DUP2 ADD SWAP1 POP PUSH2 0x607 JUMP JUMPDEST DUP4 DUP2 GT ISZERO PUSH2 0x631 JUMPI PUSH1 0x0 DUP5 DUP5 ADD MSTORE JUMPDEST POP POP POP POP JUMP JUMPDEST PUSH1 0x0 PUSH1 0x2 DUP3 DIV SWAP1 POP PUSH1 0x1 DUP3 AND DUP1 PUSH2 0x64F JUMPI PUSH1 0x7F DUP3 AND SWAP2 POP JUMPDEST PUSH1 0x20 DUP3 LT DUP2 EQ ISZERO PUSH2 0x663 JUMPI PUSH2 0x662 PUSH2 0x669 JUMP JUMPDEST JUMPDEST POP SWAP2 SWAP1 POP JUMP JUMPDEST PUSH32 0x4E487B7100000000000000000000000000000000000000000000000000000000 PUSH1 0x0 MSTORE PUSH1 0x22 PUSH1 0x4 MSTORE PUSH1 0x24 PUSH1 0x0 REVERT JUMPDEST PUSH1 0x0 PUSH1 0x1F NOT PUSH1 0x1F DUP4 ADD AND SWAP1 POP SWAP2 SWAP1 POP JUMP INVALID LOG2 PUSH5 0x6970667358 0x22 SLT KECCAK256 PUSH25 0x30E1665FA51409ABDC9A434819364D0EB09EB14A30F456A0FF 0x23 0xE PUSH1 0x8 0xF ISZERO PUSH5 0x736F6C6343 STOP ADDMOD SMOD STOP CALLER "
				},
				"gasEstimates": {
					"creation": {
						"codeDepositCost": "351800",
						"executionCost": "infinite",
						"totalCost": "infinite"
					},
					"external": {
						"": "infinite",
						"amount()": "2473",
						"balance()": "2495",
						"called()": "infinite",
						"data()": "infinite",
						"receiver_balance()": "2517",
						"sender_balance()": "2451"
					}
				},
				"methodIdentifiers": {
					"amount()": "aa8c217c",
					"balance()": "b69ef8a8",
					"called()": "50f9b6cd",
					"data()": "73d4a13a",
					"receiver_balance()": "dea75771",
					"sender_balance()": "9f239a7f"
				}
			},
			"storageLayout": {
				"storage": [
					{
						"astId": 4,
						"contract": "contracts/FallbackReceive.sol:FallbackReceive",
						"label": "called",
						"offset": 0,
						"slot": "0",
						"type": "t_string_storage"
					},
					{
						"astId": 7,
						"contract": "contracts/FallbackReceive.sol:FallbackReceive",
						"label": "amount",
						"offset": 0,
						"slot": "1",
						"type": "t_uint256"
					},
					{
						"astId": 9,
						"contract": "contracts/FallbackReceive.sol:FallbackReceive",
						"label": "data",
						"offset": 0,
						"slot": "2",
						"type": "t_bytes_storage"
					},
					{
						"astId": 12,
						"contract": "contracts/FallbackReceive.sol:FallbackReceive",
						"label": "balance",
						"offset": 0,
						"slot": "3",
						"type": "t_uint256"
					},
					{
						"astId": 15,
						"contract": "contracts/FallbackReceive.sol:FallbackReceive",
						"label": "sender_balance",
						"offset": 0,
						"slot": "4",
						"type": "t_uint256"
					},
					{
						"astId": 18,
						"contract": "contracts/FallbackReceive.sol:FallbackReceive",
						"label": "receiver_balance",
						"offset": 0,
						"slot": "5",
						"type": "t_uint256"
					}
				],
				"types": {
					"t_bytes_storage": {
						"encoding": "bytes",
						"label": "bytes",
						"numberOfBytes": "32"
					},
					"t_string_storage": {
						"encoding": "bytes",
						"label": "string",
						"numberOfBytes": "32"
					},
					"t_uint256": {
						"encoding": "inplace",
						"label": "uint256",
						"numberOfBytes": "32"
					}
				}
			},
			"userdoc": {
				"kind": "user",
				"methods": {},
				"version": 1
			}
		}
	}
}