{
	"contracts/Accountbalance.sol": {
		"Accountbalance": {
			"abi": [
				{
					"inputs": [],
					"stateMutability": "nonpayable",
					"type": "constructor"
				},
				{
					"inputs": [
						{
							"internalType": "address",
							"name": "",
							"type": "address"
						}
					],
					"name": "balance",
					"outputs": [
						{
							"internalType": "uint256",
							"name": "",
							"type": "uint256"
						}
					],
					"stateMutability": "view",
					"type": "function"
				},
				{
					"inputs": [],
					"name": "getBalance",
					"outputs": [
						{
							"internalType": "uint256",
							"name": "",
							"type": "uint256"
						}
					],
					"stateMutability": "view",
					"type": "function"
				},
				{
					"inputs": [],
					"name": "owner",
					"outputs": [
						{
							"internalType": "address",
							"name": "",
							"type": "address"
						}
					],
					"stateMutability": "view",
					"type": "function"
				},
				{
					"inputs": [
						{
							"internalType": "uint256",
							"name": "x",
							"type": "uint256"
						}
					],
					"name": "setBalance",
					"outputs": [],
					"stateMutability": "nonpayable",
					"type": "function"
				},
				{
					"inputs": [
						{
							"internalType": "address",
							"name": "to",
							"type": "address"
						},
						{
							"internalType": "uint256",
							"name": "x",
							"type": "uint256"
						}
					],
					"name": "setTransfer",
					"outputs": [],
					"stateMutability": "nonpayable",
					"type": "function"
				}
			],
			"devdoc": {
				"kind": "dev",
				"methods": {},
				"version": 1
			},
			"evm": {
				"assembly": "    /* \"contracts/Accountbalance.sol\":58:902  contract Accountbalance\r... */\n  mstore(0x40, 0x80)\n    /* \"contracts/Accountbalance.sol\":198:248  constructor(){\r... */\n  callvalue\n  dup1\n  iszero\n  tag_1\n  jumpi\n  0x00\n  dup1\n  revert\ntag_1:\n  pop\n    /* \"contracts/Accountbalance.sol\":229:239  msg.sender */\n  caller\n    /* \"contracts/Accountbalance.sol\":223:228  owner */\n  0x01\n  0x00\n    /* \"contracts/Accountbalance.sol\":223:239  owner=msg.sender */\n  0x0100\n  exp\n  dup2\n  sload\n  dup2\n  0xffffffffffffffffffffffffffffffffffffffff\n  mul\n  not\n  and\n  swap1\n  dup4\n  0xffffffffffffffffffffffffffffffffffffffff\n  and\n  mul\n  or\n  swap1\n  sstore\n  pop\n    /* \"contracts/Accountbalance.sol\":58:902  contract Accountbalance\r... */\n  dataSize(sub_0)\n  dup1\n  dataOffset(sub_0)\n  0x00\n  codecopy\n  0x00\n  return\nstop\n\nsub_0: assembly {\n        /* \"contracts/Accountbalance.sol\":58:902  contract Accountbalance\r... */\n      mstore(0x40, 0x80)\n      callvalue\n      dup1\n      iszero\n      tag_1\n      jumpi\n      0x00\n      dup1\n      revert\n    tag_1:\n      pop\n      jumpi(tag_2, lt(calldatasize, 0x04))\n      shr(0xe0, calldataload(0x00))\n      dup1\n      0x12065fe0\n      eq\n      tag_3\n      jumpi\n      dup1\n      0x57414c07\n      eq\n      tag_4\n      jumpi\n      dup1\n      0x8da5cb5b\n      eq\n      tag_5\n      jumpi\n      dup1\n      0xe3d670d7\n      eq\n      tag_6\n      jumpi\n      dup1\n      0xfb1669ca\n      eq\n      tag_7\n      jumpi\n    tag_2:\n      0x00\n      dup1\n      revert\n        /* \"contracts/Accountbalance.sol\":432:533  function getBalance() public view returns(uint)\r... */\n    tag_3:\n      tag_8\n      tag_9\n      jump\t// in\n    tag_8:\n      mload(0x40)\n      tag_10\n      swap2\n      swap1\n      tag_11\n      jump\t// in\n    tag_10:\n      mload(0x40)\n      dup1\n      swap2\n      sub\n      swap1\n      return\n        /* \"contracts/Accountbalance.sol\":540:899  function setTransfer(address to, uint x) public\r... */\n    tag_4:\n      tag_12\n      0x04\n      dup1\n      calldatasize\n      sub\n      dup2\n      add\n      swap1\n      tag_13\n      swap2\n      swap1\n      tag_14\n      jump\t// in\n    tag_13:\n      tag_15\n      jump\t// in\n    tag_12:\n      stop\n        /* \"contracts/Accountbalance.sol\":170:190  address public owner */\n    tag_5:\n      tag_16\n      tag_17\n      jump\t// in\n    tag_16:\n      mload(0x40)\n      tag_18\n      swap2\n      swap1\n      tag_19\n      jump\t// in\n    tag_18:\n      mload(0x40)\n      dup1\n      swap2\n      sub\n      swap1\n      return\n        /* \"contracts/Accountbalance.sol\":126:162  mapping(address=>uint)public balance */\n    tag_6:\n      tag_20\n      0x04\n      dup1\n      calldatasize\n      sub\n      dup2\n      add\n      swap1\n      tag_21\n      swap2\n      swap1\n      tag_22\n      jump\t// in\n    tag_21:\n      tag_23\n      jump\t// in\n    tag_20:\n      mload(0x40)\n      tag_24\n      swap2\n      swap1\n      tag_11\n      jump\t// in\n    tag_24:\n      mload(0x40)\n      dup1\n      swap2\n      sub\n      swap1\n      return\n        /* \"contracts/Accountbalance.sol\":262:425  function setBalance(uint x) public \r... */\n    tag_7:\n      tag_25\n      0x04\n      dup1\n      calldatasize\n      sub\n      dup2\n      add\n      swap1\n      tag_26\n      swap2\n      swap1\n      tag_27\n      jump\t// in\n    tag_26:\n      tag_28\n      jump\t// in\n    tag_25:\n      stop\n        /* \"contracts/Accountbalance.sol\":432:533  function getBalance() public view returns(uint)\r... */\n    tag_9:\n        /* \"contracts/Accountbalance.sol\":474:478  uint */\n      0x00\n        /* \"contracts/Accountbalance.sol\":505:512  balance */\n      dup1\n        /* \"contracts/Accountbalance.sol\":505:524  balance[msg.sender] */\n      0x00\n        /* \"contracts/Accountbalance.sol\":513:523  msg.sender */\n      caller\n        /* \"contracts/Accountbalance.sol\":505:524  balance[msg.sender] */\n      0xffffffffffffffffffffffffffffffffffffffff\n      and\n      0xffffffffffffffffffffffffffffffffffffffff\n      and\n      dup2\n      mstore\n      0x20\n      add\n      swap1\n      dup2\n      mstore\n      0x20\n      add\n      0x00\n      keccak256\n      sload\n        /* \"contracts/Accountbalance.sol\":498:524  return balance[msg.sender] */\n      swap1\n      pop\n        /* \"contracts/Accountbalance.sol\":432:533  function getBalance() public view returns(uint)\r... */\n      swap1\n      jump\t// out\n        /* \"contracts/Accountbalance.sol\":540:899  function setTransfer(address to, uint x) public\r... */\n    tag_15:\n        /* \"contracts/Accountbalance.sol\":750:751  x */\n      dup1\n        /* \"contracts/Accountbalance.sol\":730:737  balance */\n      0x00\n        /* \"contracts/Accountbalance.sol\":730:749  balance[msg.sender] */\n      dup1\n        /* \"contracts/Accountbalance.sol\":738:748  msg.sender */\n      caller\n        /* \"contracts/Accountbalance.sol\":730:749  balance[msg.sender] */\n      0xffffffffffffffffffffffffffffffffffffffff\n      and\n      0xffffffffffffffffffffffffffffffffffffffff\n      and\n      dup2\n      mstore\n      0x20\n      add\n      swap1\n      dup2\n      mstore\n      0x20\n      add\n      0x00\n      keccak256\n      sload\n        /* \"contracts/Accountbalance.sol\":730:751  balance[msg.sender]>x */\n      gt\n        /* \"contracts/Accountbalance.sol\":730:760  balance[msg.sender]>x && x>100 */\n      dup1\n      iszero\n      tag_31\n      jumpi\n      pop\n        /* \"contracts/Accountbalance.sol\":757:760  100 */\n      0x64\n        /* \"contracts/Accountbalance.sol\":755:756  x */\n      dup2\n        /* \"contracts/Accountbalance.sol\":755:760  x>100 */\n      gt\n        /* \"contracts/Accountbalance.sol\":730:760  balance[msg.sender]>x && x>100 */\n    tag_31:\n        /* \"contracts/Accountbalance.sol\":723:761  assert(balance[msg.sender]>x && x>100) */\n      tag_32\n      jumpi\n      tag_33\n      tag_34\n      jump\t// in\n    tag_33:\n    tag_32:\n        /* \"contracts/Accountbalance.sol\":862:863  x */\n      dup1\n        /* \"contracts/Accountbalance.sol\":840:847  balance */\n      0x00\n        /* \"contracts/Accountbalance.sol\":840:859  balance[msg.sender] */\n      dup1\n        /* \"contracts/Accountbalance.sol\":848:858  msg.sender */\n      caller\n        /* \"contracts/Accountbalance.sol\":840:859  balance[msg.sender] */\n      0xffffffffffffffffffffffffffffffffffffffff\n      and\n      0xffffffffffffffffffffffffffffffffffffffff\n      and\n      dup2\n      mstore\n      0x20\n      add\n      swap1\n      dup2\n      mstore\n      0x20\n      add\n      0x00\n      keccak256\n      0x00\n        /* \"contracts/Accountbalance.sol\":840:863  balance[msg.sender] -=x */\n      dup3\n      dup3\n      sload\n      tag_35\n      swap2\n      swap1\n      tag_36\n      jump\t// in\n    tag_35:\n      swap3\n      pop\n      pop\n      dup2\n      swap1\n      sstore\n      pop\n        /* \"contracts/Accountbalance.sol\":889:890  x */\n      dup1\n        /* \"contracts/Accountbalance.sol\":875:882  balance */\n      0x00\n        /* \"contracts/Accountbalance.sol\":875:886  balance[to] */\n      dup1\n        /* \"contracts/Accountbalance.sol\":883:885  to */\n      dup5\n        /* \"contracts/Accountbalance.sol\":875:886  balance[to] */\n      0xffffffffffffffffffffffffffffffffffffffff\n      and\n      0xffffffffffffffffffffffffffffffffffffffff\n      and\n      dup2\n      mstore\n      0x20\n      add\n      swap1\n      dup2\n      mstore\n      0x20\n      add\n      0x00\n      keccak256\n      0x00\n        /* \"contracts/Accountbalance.sol\":875:890  balance[to] +=x */\n      dup3\n      dup3\n      sload\n      tag_37\n      swap2\n      swap1\n      tag_38\n      jump\t// in\n    tag_37:\n      swap3\n      pop\n      pop\n      dup2\n      swap1\n      sstore\n      pop\n        /* \"contracts/Accountbalance.sol\":540:899  function setTransfer(address to, uint x) public\r... */\n      pop\n      pop\n      jump\t// out\n        /* \"contracts/Accountbalance.sol\":170:190  address public owner */\n    tag_17:\n      0x01\n      0x00\n      swap1\n      sload\n      swap1\n      0x0100\n      exp\n      swap1\n      div\n      0xffffffffffffffffffffffffffffffffffffffff\n      and\n      dup2\n      jump\t// out\n        /* \"contracts/Accountbalance.sol\":126:162  mapping(address=>uint)public balance */\n    tag_23:\n      mstore(0x20, 0x00)\n      dup1\n      0x00\n      mstore\n      keccak256(0x00, 0x40)\n      0x00\n      swap2\n      pop\n      swap1\n      pop\n      sload\n      dup2\n      jump\t// out\n        /* \"contracts/Accountbalance.sol\":262:425  function setBalance(uint x) public \r... */\n    tag_28:\n        /* \"contracts/Accountbalance.sol\":336:341  owner */\n      0x01\n      0x00\n      swap1\n      sload\n      swap1\n      0x0100\n      exp\n      swap1\n      div\n      0xffffffffffffffffffffffffffffffffffffffff\n      and\n        /* \"contracts/Accountbalance.sol\":324:341  msg.sender==owner */\n      0xffffffffffffffffffffffffffffffffffffffff\n      and\n        /* \"contracts/Accountbalance.sol\":324:334  msg.sender */\n      caller\n        /* \"contracts/Accountbalance.sol\":324:341  msg.sender==owner */\n      0xffffffffffffffffffffffffffffffffffffffff\n      and\n      eq\n        /* \"contracts/Accountbalance.sol\":316:381  require(msg.sender==owner,\"Only owner is allowed to add balance\") */\n      tag_40\n      jumpi\n      mload(0x40)\n      0x08c379a000000000000000000000000000000000000000000000000000000000\n      dup2\n      mstore\n      0x04\n      add\n      tag_41\n      swap1\n      tag_42\n      jump\t// in\n    tag_41:\n      mload(0x40)\n      dup1\n      swap2\n      sub\n      swap1\n      revert\n    tag_40:\n        /* \"contracts/Accountbalance.sol\":415:416  x */\n      dup1\n        /* \"contracts/Accountbalance.sol\":393:400  balance */\n      0x00\n        /* \"contracts/Accountbalance.sol\":393:412  balance[msg.sender] */\n      dup1\n        /* \"contracts/Accountbalance.sol\":401:411  msg.sender */\n      caller\n        /* \"contracts/Accountbalance.sol\":393:412  balance[msg.sender] */\n      0xffffffffffffffffffffffffffffffffffffffff\n      and\n      0xffffffffffffffffffffffffffffffffffffffff\n      and\n      dup2\n      mstore\n      0x20\n      add\n      swap1\n      dup2\n      mstore\n      0x20\n      add\n      0x00\n      keccak256\n      0x00\n        /* \"contracts/Accountbalance.sol\":393:416  balance[msg.sender] +=x */\n      dup3\n      dup3\n      sload\n      tag_43\n      swap2\n      swap1\n      tag_38\n      jump\t// in\n    tag_43:\n      swap3\n      pop\n      pop\n      dup2\n      swap1\n      sstore\n      pop\n        /* \"contracts/Accountbalance.sol\":262:425  function setBalance(uint x) public \r... */\n      pop\n      jump\t// out\n        /* \"#utility.yul\":7:146   */\n    tag_45:\n        /* \"#utility.yul\":53:58   */\n      0x00\n        /* \"#utility.yul\":91:97   */\n      dup2\n        /* \"#utility.yul\":78:98   */\n      calldataload\n        /* \"#utility.yul\":69:98   */\n      swap1\n      pop\n        /* \"#utility.yul\":107:140   */\n      tag_47\n        /* \"#utility.yul\":134:139   */\n      dup2\n        /* \"#utility.yul\":107:140   */\n      tag_48\n      jump\t// in\n    tag_47:\n        /* \"#utility.yul\":7:146   */\n      swap3\n      swap2\n      pop\n      pop\n      jump\t// out\n        /* \"#utility.yul\":152:291   */\n    tag_49:\n        /* \"#utility.yul\":198:203   */\n      0x00\n        /* \"#utility.yul\":236:242   */\n      dup2\n        /* \"#utility.yul\":223:243   */\n      calldataload\n        /* \"#utility.yul\":214:243   */\n      swap1\n      pop\n        /* \"#utility.yul\":252:285   */\n      tag_51\n        /* \"#utility.yul\":279:284   */\n      dup2\n        /* \"#utility.yul\":252:285   */\n      tag_52\n      jump\t// in\n    tag_51:\n        /* \"#utility.yul\":152:291   */\n      swap3\n      swap2\n      pop\n      pop\n      jump\t// out\n        /* \"#utility.yul\":297:626   */\n    tag_22:\n        /* \"#utility.yul\":356:362   */\n      0x00\n        /* \"#utility.yul\":405:407   */\n      0x20\n        /* \"#utility.yul\":393:402   */\n      dup3\n        /* \"#utility.yul\":384:391   */\n      dup5\n        /* \"#utility.yul\":380:403   */\n      sub\n        /* \"#utility.yul\":376:408   */\n      slt\n        /* \"#utility.yul\":373:492   */\n      iszero\n      tag_54\n      jumpi\n        /* \"#utility.yul\":411:490   */\n      tag_55\n      tag_56\n      jump\t// in\n    tag_55:\n        /* \"#utility.yul\":373:492   */\n    tag_54:\n        /* \"#utility.yul\":531:532   */\n      0x00\n        /* \"#utility.yul\":556:609   */\n      tag_57\n        /* \"#utility.yul\":601:608   */\n      dup5\n        /* \"#utility.yul\":592:598   */\n      dup3\n        /* \"#utility.yul\":581:590   */\n      dup6\n        /* \"#utility.yul\":577:599   */\n      add\n        /* \"#utility.yul\":556:609   */\n      tag_45\n      jump\t// in\n    tag_57:\n        /* \"#utility.yul\":546:609   */\n      swap2\n      pop\n        /* \"#utility.yul\":502:619   */\n      pop\n        /* \"#utility.yul\":297:626   */\n      swap3\n      swap2\n      pop\n      pop\n      jump\t// out\n        /* \"#utility.yul\":632:1106   */\n    tag_14:\n        /* \"#utility.yul\":700:706   */\n      0x00\n        /* \"#utility.yul\":708:714   */\n      dup1\n        /* \"#utility.yul\":757:759   */\n      0x40\n        /* \"#utility.yul\":745:754   */\n      dup4\n        /* \"#utility.yul\":736:743   */\n      dup6\n        /* \"#utility.yul\":732:755   */\n      sub\n        /* \"#utility.yul\":728:760   */\n      slt\n        /* \"#utility.yul\":725:844   */\n      iszero\n      tag_59\n      jumpi\n        /* \"#utility.yul\":763:842   */\n      tag_60\n      tag_56\n      jump\t// in\n    tag_60:\n        /* \"#utility.yul\":725:844   */\n    tag_59:\n        /* \"#utility.yul\":883:884   */\n      0x00\n        /* \"#utility.yul\":908:961   */\n      tag_61\n        /* \"#utility.yul\":953:960   */\n      dup6\n        /* \"#utility.yul\":944:950   */\n      dup3\n        /* \"#utility.yul\":933:942   */\n      dup7\n        /* \"#utility.yul\":929:951   */\n      add\n        /* \"#utility.yul\":908:961   */\n      tag_45\n      jump\t// in\n    tag_61:\n        /* \"#utility.yul\":898:961   */\n      swap3\n      pop\n        /* \"#utility.yul\":854:971   */\n      pop\n        /* \"#utility.yul\":1010:1012   */\n      0x20\n        /* \"#utility.yul\":1036:1089   */\n      tag_62\n        /* \"#utility.yul\":1081:1088   */\n      dup6\n        /* \"#utility.yul\":1072:1078   */\n      dup3\n        /* \"#utility.yul\":1061:1070   */\n      dup7\n        /* \"#utility.yul\":1057:1079   */\n      add\n        /* \"#utility.yul\":1036:1089   */\n      tag_49\n      jump\t// in\n    tag_62:\n        /* \"#utility.yul\":1026:1089   */\n      swap2\n      pop\n        /* \"#utility.yul\":981:1099   */\n      pop\n        /* \"#utility.yul\":632:1106   */\n      swap3\n      pop\n      swap3\n      swap1\n      pop\n      jump\t// out\n        /* \"#utility.yul\":1112:1441   */\n    tag_27:\n        /* \"#utility.yul\":1171:1177   */\n      0x00\n        /* \"#utility.yul\":1220:1222   */\n      0x20\n        /* \"#utility.yul\":1208:1217   */\n      dup3\n        /* \"#utility.yul\":1199:1206   */\n      dup5\n        /* \"#utility.yul\":1195:1218   */\n      sub\n        /* \"#utility.yul\":1191:1223   */\n      slt\n        /* \"#utility.yul\":1188:1307   */\n      iszero\n      tag_64\n      jumpi\n        /* \"#utility.yul\":1226:1305   */\n      tag_65\n      tag_56\n      jump\t// in\n    tag_65:\n        /* \"#utility.yul\":1188:1307   */\n    tag_64:\n        /* \"#utility.yul\":1346:1347   */\n      0x00\n        /* \"#utility.yul\":1371:1424   */\n      tag_66\n        /* \"#utility.yul\":1416:1423   */\n      dup5\n        /* \"#utility.yul\":1407:1413   */\n      dup3\n        /* \"#utility.yul\":1396:1405   */\n      dup6\n        /* \"#utility.yul\":1392:1414   */\n      add\n        /* \"#utility.yul\":1371:1424   */\n      tag_49\n      jump\t// in\n    tag_66:\n        /* \"#utility.yul\":1361:1424   */\n      swap2\n      pop\n        /* \"#utility.yul\":1317:1434   */\n      pop\n        /* \"#utility.yul\":1112:1441   */\n      swap3\n      swap2\n      pop\n      pop\n      jump\t// out\n        /* \"#utility.yul\":1447:1565   */\n    tag_67:\n        /* \"#utility.yul\":1534:1558   */\n      tag_69\n        /* \"#utility.yul\":1552:1557   */\n      dup2\n        /* \"#utility.yul\":1534:1558   */\n      tag_70\n      jump\t// in\n    tag_69:\n        /* \"#utility.yul\":1529:1532   */\n      dup3\n        /* \"#utility.yul\":1522:1559   */\n      mstore\n        /* \"#utility.yul\":1447:1565   */\n      pop\n      pop\n      jump\t// out\n        /* \"#utility.yul\":1571:1937   */\n    tag_71:\n        /* \"#utility.yul\":1713:1716   */\n      0x00\n        /* \"#utility.yul\":1734:1801   */\n      tag_73\n        /* \"#utility.yul\":1798:1800   */\n      0x24\n        /* \"#utility.yul\":1793:1796   */\n      dup4\n        /* \"#utility.yul\":1734:1801   */\n      tag_74\n      jump\t// in\n    tag_73:\n        /* \"#utility.yul\":1727:1801   */\n      swap2\n      pop\n        /* \"#utility.yul\":1810:1903   */\n      tag_75\n        /* \"#utility.yul\":1899:1902   */\n      dup3\n        /* \"#utility.yul\":1810:1903   */\n      tag_76\n      jump\t// in\n    tag_75:\n        /* \"#utility.yul\":1928:1930   */\n      0x40\n        /* \"#utility.yul\":1923:1926   */\n      dup3\n        /* \"#utility.yul\":1919:1931   */\n      add\n        /* \"#utility.yul\":1912:1931   */\n      swap1\n      pop\n        /* \"#utility.yul\":1571:1937   */\n      swap2\n      swap1\n      pop\n      jump\t// out\n        /* \"#utility.yul\":1943:2061   */\n    tag_77:\n        /* \"#utility.yul\":2030:2054   */\n      tag_79\n        /* \"#utility.yul\":2048:2053   */\n      dup2\n        /* \"#utility.yul\":2030:2054   */\n      tag_80\n      jump\t// in\n    tag_79:\n        /* \"#utility.yul\":2025:2028   */\n      dup3\n        /* \"#utility.yul\":2018:2055   */\n      mstore\n        /* \"#utility.yul\":1943:2061   */\n      pop\n      pop\n      jump\t// out\n        /* \"#utility.yul\":2067:2289   */\n    tag_19:\n        /* \"#utility.yul\":2160:2164   */\n      0x00\n        /* \"#utility.yul\":2198:2200   */\n      0x20\n        /* \"#utility.yul\":2187:2196   */\n      dup3\n        /* \"#utility.yul\":2183:2201   */\n      add\n        /* \"#utility.yul\":2175:2201   */\n      swap1\n      pop\n        /* \"#utility.yul\":2211:2282   */\n      tag_82\n        /* \"#utility.yul\":2279:2280   */\n      0x00\n        /* \"#utility.yul\":2268:2277   */\n      dup4\n        /* \"#utility.yul\":2264:2281   */\n      add\n        /* \"#utility.yul\":2255:2261   */\n      dup5\n        /* \"#utility.yul\":2211:2282   */\n      tag_67\n      jump\t// in\n    tag_82:\n        /* \"#utility.yul\":2067:2289   */\n      swap3\n      swap2\n      pop\n      pop\n      jump\t// out\n        /* \"#utility.yul\":2295:2714   */\n    tag_42:\n        /* \"#utility.yul\":2461:2465   */\n      0x00\n        /* \"#utility.yul\":2499:2501   */\n      0x20\n        /* \"#utility.yul\":2488:2497   */\n      dup3\n        /* \"#utility.yul\":2484:2502   */\n      add\n        /* \"#utility.yul\":2476:2502   */\n      swap1\n      pop\n        /* \"#utility.yul\":2548:2557   */\n      dup2\n        /* \"#utility.yul\":2542:2546   */\n      dup2\n        /* \"#utility.yul\":2538:2558   */\n      sub\n        /* \"#utility.yul\":2534:2535   */\n      0x00\n        /* \"#utility.yul\":2523:2532   */\n      dup4\n        /* \"#utility.yul\":2519:2536   */\n      add\n        /* \"#utility.yul\":2512:2559   */\n      mstore\n        /* \"#utility.yul\":2576:2707   */\n      tag_84\n        /* \"#utility.yul\":2702:2706   */\n      dup2\n        /* \"#utility.yul\":2576:2707   */\n      tag_71\n      jump\t// in\n    tag_84:\n        /* \"#utility.yul\":2568:2707   */\n      swap1\n      pop\n        /* \"#utility.yul\":2295:2714   */\n      swap2\n      swap1\n      pop\n      jump\t// out\n        /* \"#utility.yul\":2720:2942   */\n    tag_11:\n        /* \"#utility.yul\":2813:2817   */\n      0x00\n        /* \"#utility.yul\":2851:2853   */\n      0x20\n        /* \"#utility.yul\":2840:2849   */\n      dup3\n        /* \"#utility.yul\":2836:2854   */\n      add\n        /* \"#utility.yul\":2828:2854   */\n      swap1\n      pop\n        /* \"#utility.yul\":2864:2935   */\n      tag_86\n        /* \"#utility.yul\":2932:2933   */\n      0x00\n        /* \"#utility.yul\":2921:2930   */\n      dup4\n        /* \"#utility.yul\":2917:2934   */\n      add\n        /* \"#utility.yul\":2908:2914   */\n      dup5\n        /* \"#utility.yul\":2864:2935   */\n      tag_77\n      jump\t// in\n    tag_86:\n        /* \"#utility.yul\":2720:2942   */\n      swap3\n      swap2\n      pop\n      pop\n      jump\t// out\n        /* \"#utility.yul\":3029:3198   */\n    tag_74:\n        /* \"#utility.yul\":3113:3124   */\n      0x00\n        /* \"#utility.yul\":3147:3153   */\n      dup3\n        /* \"#utility.yul\":3142:3145   */\n      dup3\n        /* \"#utility.yul\":3135:3154   */\n      mstore\n        /* \"#utility.yul\":3187:3191   */\n      0x20\n        /* \"#utility.yul\":3182:3185   */\n      dup3\n        /* \"#utility.yul\":3178:3192   */\n      add\n        /* \"#utility.yul\":3163:3192   */\n      swap1\n      pop\n        /* \"#utility.yul\":3029:3198   */\n      swap3\n      swap2\n      pop\n      pop\n      jump\t// out\n        /* \"#utility.yul\":3204:3509   */\n    tag_38:\n        /* \"#utility.yul\":3244:3247   */\n      0x00\n        /* \"#utility.yul\":3263:3283   */\n      tag_91\n        /* \"#utility.yul\":3281:3282   */\n      dup3\n        /* \"#utility.yul\":3263:3283   */\n      tag_80\n      jump\t// in\n    tag_91:\n        /* \"#utility.yul\":3258:3283   */\n      swap2\n      pop\n        /* \"#utility.yul\":3297:3317   */\n      tag_92\n        /* \"#utility.yul\":3315:3316   */\n      dup4\n        /* \"#utility.yul\":3297:3317   */\n      tag_80\n      jump\t// in\n    tag_92:\n        /* \"#utility.yul\":3292:3317   */\n      swap3\n      pop\n        /* \"#utility.yul\":3451:3452   */\n      dup3\n        /* \"#utility.yul\":3383:3449   */\n      0xffffffffffffffffffffffffffffffffffffffffffffffffffffffffffffffff\n        /* \"#utility.yul\":3379:3453   */\n      sub\n        /* \"#utility.yul\":3376:3377   */\n      dup3\n        /* \"#utility.yul\":3373:3454   */\n      gt\n        /* \"#utility.yul\":3370:3477   */\n      iszero\n      tag_93\n      jumpi\n        /* \"#utility.yul\":3457:3475   */\n      tag_94\n      tag_95\n      jump\t// in\n    tag_94:\n        /* \"#utility.yul\":3370:3477   */\n    tag_93:\n        /* \"#utility.yul\":3501:3502   */\n      dup3\n        /* \"#utility.yul\":3498:3499   */\n      dup3\n        /* \"#utility.yul\":3494:3503   */\n      add\n        /* \"#utility.yul\":3487:3503   */\n      swap1\n      pop\n        /* \"#utility.yul\":3204:3509   */\n      swap3\n      swap2\n      pop\n      pop\n      jump\t// out\n        /* \"#utility.yul\":3515:3706   */\n    tag_36:\n        /* \"#utility.yul\":3555:3559   */\n      0x00\n        /* \"#utility.yul\":3575:3595   */\n      tag_97\n        /* \"#utility.yul\":3593:3594   */\n      dup3\n        /* \"#utility.yul\":3575:3595   */\n      tag_80\n      jump\t// in\n    tag_97:\n        /* \"#utility.yul\":3570:3595   */\n      swap2\n      pop\n        /* \"#utility.yul\":3609:3629   */\n      tag_98\n        /* \"#utility.yul\":3627:3628   */\n      dup4\n        /* \"#utility.yul\":3609:3629   */\n      tag_80\n      jump\t// in\n    tag_98:\n        /* \"#utility.yul\":3604:3629   */\n      swap3\n      pop\n        /* \"#utility.yul\":3648:3649   */\n      dup3\n        /* \"#utility.yul\":3645:3646   */\n      dup3\n        /* \"#utility.yul\":3642:3650   */\n      lt\n        /* \"#utility.yul\":3639:3673   */\n      iszero\n      tag_99\n      jumpi\n        /* \"#utility.yul\":3653:3671   */\n      tag_100\n      tag_95\n      jump\t// in\n    tag_100:\n        /* \"#utility.yul\":3639:3673   */\n    tag_99:\n        /* \"#utility.yul\":3698:3699   */\n      dup3\n        /* \"#utility.yul\":3695:3696   */\n      dup3\n        /* \"#utility.yul\":3691:3700   */\n      sub\n        /* \"#utility.yul\":3683:3700   */\n      swap1\n      pop\n        /* \"#utility.yul\":3515:3706   */\n      swap3\n      swap2\n      pop\n      pop\n      jump\t// out\n        /* \"#utility.yul\":3712:3808   */\n    tag_70:\n        /* \"#utility.yul\":3749:3756   */\n      0x00\n        /* \"#utility.yul\":3778:3802   */\n      tag_102\n        /* \"#utility.yul\":3796:3801   */\n      dup3\n        /* \"#utility.yul\":3778:3802   */\n      tag_103\n      jump\t// in\n    tag_102:\n        /* \"#utility.yul\":3767:3802   */\n      swap1\n      pop\n        /* \"#utility.yul\":3712:3808   */\n      swap2\n      swap1\n      pop\n      jump\t// out\n        /* \"#utility.yul\":3814:3940   */\n    tag_103:\n        /* \"#utility.yul\":3851:3858   */\n      0x00\n        /* \"#utility.yul\":3891:3933   */\n      0xffffffffffffffffffffffffffffffffffffffff\n        /* \"#utility.yul\":3884:3889   */\n      dup3\n        /* \"#utility.yul\":3880:3934   */\n      and\n        /* \"#utility.yul\":3869:3934   */\n      swap1\n      pop\n        /* \"#utility.yul\":3814:3940   */\n      swap2\n      swap1\n      pop\n      jump\t// out\n        /* \"#utility.yul\":3946:4023   */\n    tag_80:\n        /* \"#utility.yul\":3983:3990   */\n      0x00\n        /* \"#utility.yul\":4012:4017   */\n      dup2\n        /* \"#utility.yul\":4001:4017   */\n      swap1\n      pop\n        /* \"#utility.yul\":3946:4023   */\n      swap2\n      swap1\n      pop\n      jump\t// out\n        /* \"#utility.yul\":4029:4209   */\n    tag_34:\n        /* \"#utility.yul\":4077:4154   */\n      0x4e487b7100000000000000000000000000000000000000000000000000000000\n        /* \"#utility.yul\":4074:4075   */\n      0x00\n        /* \"#utility.yul\":4067:4155   */\n      mstore\n        /* \"#utility.yul\":4174:4178   */\n      0x01\n        /* \"#utility.yul\":4171:4172   */\n      0x04\n        /* \"#utility.yul\":4164:4179   */\n      mstore\n        /* \"#utility.yul\":4198:4202   */\n      0x24\n        /* \"#utility.yul\":4195:4196   */\n      0x00\n        /* \"#utility.yul\":4188:4203   */\n      revert\n        /* \"#utility.yul\":4215:4395   */\n    tag_95:\n        /* \"#utility.yul\":4263:4340   */\n      0x4e487b7100000000000000000000000000000000000000000000000000000000\n        /* \"#utility.yul\":4260:4261   */\n      0x00\n        /* \"#utility.yul\":4253:4341   */\n      mstore\n        /* \"#utility.yul\":4360:4364   */\n      0x11\n        /* \"#utility.yul\":4357:4358   */\n      0x04\n        /* \"#utility.yul\":4350:4365   */\n      mstore\n        /* \"#utility.yul\":4384:4388   */\n      0x24\n        /* \"#utility.yul\":4381:4382   */\n      0x00\n        /* \"#utility.yul\":4374:4389   */\n      revert\n        /* \"#utility.yul\":4524:4641   */\n    tag_56:\n        /* \"#utility.yul\":4633:4634   */\n      0x00\n        /* \"#utility.yul\":4630:4631   */\n      dup1\n        /* \"#utility.yul\":4623:4635   */\n      revert\n        /* \"#utility.yul\":4647:4870   */\n    tag_76:\n        /* \"#utility.yul\":4787:4821   */\n      0x4f6e6c79206f776e657220697320616c6c6f77656420746f206164642062616c\n        /* \"#utility.yul\":4783:4784   */\n      0x00\n        /* \"#utility.yul\":4775:4781   */\n      dup3\n        /* \"#utility.yul\":4771:4785   */\n      add\n        /* \"#utility.yul\":4764:4822   */\n      mstore\n        /* \"#utility.yul\":4856:4862   */\n      0x616e636500000000000000000000000000000000000000000000000000000000\n        /* \"#utility.yul\":4851:4853   */\n      0x20\n        /* \"#utility.yul\":4843:4849   */\n      dup3\n        /* \"#utility.yul\":4839:4854   */\n      add\n        /* \"#utility.yul\":4832:4863   */\n      mstore\n        /* \"#utility.yul\":4647:4870   */\n      pop\n      jump\t// out\n        /* \"#utility.yul\":4876:4998   */\n    tag_48:\n        /* \"#utility.yul\":4949:4973   */\n      tag_113\n        /* \"#utility.yul\":4967:4972   */\n      dup2\n        /* \"#utility.yul\":4949:4973   */\n      tag_70\n      jump\t// in\n    tag_113:\n        /* \"#utility.yul\":4942:4947   */\n      dup2\n        /* \"#utility.yul\":4939:4974   */\n      eq\n        /* \"#utility.yul\":4929:4992   */\n      tag_114\n      jumpi\n        /* \"#utility.yul\":4988:4989   */\n      0x00\n        /* \"#utility.yul\":4985:4986   */\n      dup1\n        /* \"#utility.yul\":4978:4990   */\n      revert\n        /* \"#utility.yul\":4929:4992   */\n    tag_114:\n        /* \"#utility.yul\":4876:4998   */\n      pop\n      jump\t// out\n        /* \"#utility.yul\":5004:5126   */\n    tag_52:\n        /* \"#utility.yul\":5077:5101   */\n      tag_116\n        /* \"#utility.yul\":5095:5100   */\n      dup2\n        /* \"#utility.yul\":5077:5101   */\n      tag_80\n      jump\t// in\n    tag_116:\n        /* \"#utility.yul\":5070:5075   */\n      dup2\n        /* \"#utility.yul\":5067:5102   */\n      eq\n        /* \"#utility.yul\":5057:5120   */\n      tag_117\n      jumpi\n        /* \"#utility.yul\":5116:5117   */\n      0x00\n        /* \"#utility.yul\":5113:5114   */\n      dup1\n        /* \"#utility.yul\":5106:5118   */\n      revert\n        /* \"#utility.yul\":5057:5120   */\n    tag_117:\n        /* \"#utility.yul\":5004:5126   */\n      pop\n      jump\t// out\n\n    auxdata: 0xa2646970667358221220f764db772fb0f76ba8553222e29d8e699b835f989e7a611c615b856ba214043264736f6c63430008070033\n}\n",
				"bytecode": {
					"linkReferences": {},
					"object": "608060405234801561001057600080fd5b5033600160006101000a81548173ffffffffffffffffffffffffffffffffffffffff021916908373ffffffffffffffffffffffffffffffffffffffff1602179055506106bc806100616000396000f3fe608060405234801561001057600080fd5b50600436106100575760003560e01c806312065fe01461005c57806357414c071461007a5780638da5cb5b14610096578063e3d670d7146100b4578063fb1669ca146100e4575b600080fd5b610064610100565b60405161007191906104b4565b60405180910390f35b610094600480360381019061008f91906103cb565b610146565b005b61009e61024e565b6040516100ab9190610479565b60405180910390f35b6100ce60048036038101906100c9919061039e565b610274565b6040516100db91906104b4565b60405180910390f35b6100fe60048036038101906100f9919061040b565b61028c565b005b60008060003373ffffffffffffffffffffffffffffffffffffffff1673ffffffffffffffffffffffffffffffffffffffff16815260200190815260200160002054905090565b806000803373ffffffffffffffffffffffffffffffffffffffff1673ffffffffffffffffffffffffffffffffffffffff168152602001908152602001600020541180156101935750606481115b6101a05761019f6105a6565b5b806000803373ffffffffffffffffffffffffffffffffffffffff1673ffffffffffffffffffffffffffffffffffffffff16815260200190815260200160002060008282546101ee9190610536565b92505081905550806000808473ffffffffffffffffffffffffffffffffffffffff1673ffffffffffffffffffffffffffffffffffffffff168152602001908152602001600020600082825461024391906104e0565b925050819055505050565b600160009054906101000a900473ffffffffffffffffffffffffffffffffffffffff1681565b60006020528060005260406000206000915090505481565b600160009054906101000a900473ffffffffffffffffffffffffffffffffffffffff1673ffffffffffffffffffffffffffffffffffffffff163373ffffffffffffffffffffffffffffffffffffffff161461031c576040517f08c379a000000000000000000000000000000000000000000000000000000000815260040161031390610494565b60405180910390fd5b806000803373ffffffffffffffffffffffffffffffffffffffff1673ffffffffffffffffffffffffffffffffffffffff168152602001908152602001600020600082825461036a91906104e0565b9250508190555050565b60008135905061038381610658565b92915050565b6000813590506103988161066f565b92915050565b6000602082840312156103b4576103b3610604565b5b60006103c284828501610374565b91505092915050565b600080604083850312156103e2576103e1610604565b5b60006103f085828601610374565b925050602061040185828601610389565b9150509250929050565b60006020828403121561042157610420610604565b5b600061042f84828501610389565b91505092915050565b6104418161056a565b82525050565b60006104546024836104cf565b915061045f82610609565b604082019050919050565b6104738161059c565b82525050565b600060208201905061048e6000830184610438565b92915050565b600060208201905081810360008301526104ad81610447565b9050919050565b60006020820190506104c9600083018461046a565b92915050565b600082825260208201905092915050565b60006104eb8261059c565b91506104f68361059c565b9250827fffffffffffffffffffffffffffffffffffffffffffffffffffffffffffffffff0382111561052b5761052a6105d5565b5b828201905092915050565b60006105418261059c565b915061054c8361059c565b92508282101561055f5761055e6105d5565b5b828203905092915050565b60006105758261057c565b9050919050565b600073ffffffffffffffffffffffffffffffffffffffff82169050919050565b6000819050919050565b7f4e487b7100000000000000000000000000000000000000000000000000000000600052600160045260246000fd5b7f4e487b7100000000000000000000000000000000000000000000000000000000600052601160045260246000fd5b600080fd5b7f4f6e6c79206f776e657220697320616c6c6f77656420746f206164642062616c60008201527f616e636500000000000000000000000000000000000000000000000000000000602082015250565b6106618161056a565b811461066c57600080fd5b50565b6106788161059c565b811461068357600080fd5b5056fea2646970667358221220f764db772fb0f76ba8553222e29d8e699b835f989e7a611c615b856ba214043264736f6c63430008070033",
					"opcodes": "PUSH1 0x80 PUSH1 0x40 MSTORE CALLVALUE DUP1 ISZERO PUSH2 0x10 JUMPI PUSH1 0x0 DUP1 REVERT JUMPDEST POP CALLER PUSH1 0x1 PUSH1 0x0 PUSH2 0x100 EXP DUP2 SLOAD DUP2 PUSH20 0xFFFFFFFFFFFFFFFFFFFFFFFFFFFFFFFFFFFFFFFF MUL NOT AND SWAP1 DUP4 PUSH20 0xFFFFFFFFFFFFFFFFFFFFFFFFFFFFFFFFFFFFFFFF AND MUL OR SWAP1 SSTORE POP PUSH2 0x6BC DUP1 PUSH2 0x61 PUSH1 0x0 CODECOPY PUSH1 0x0 RETURN INVALID PUSH1 0x80 PUSH1 0x40 MSTORE CALLVALUE DUP1 ISZERO PUSH2 0x10 JUMPI PUSH1 0x0 DUP1 REVERT JUMPDEST POP PUSH1 0x4 CALLDATASIZE LT PUSH2 0x57 JUMPI PUSH1 0x0 CALLDATALOAD PUSH1 0xE0 SHR DUP1 PUSH4 0x12065FE0 EQ PUSH2 0x5C JUMPI DUP1 PUSH4 0x57414C07 EQ PUSH2 0x7A JUMPI DUP1 PUSH4 0x8DA5CB5B EQ PUSH2 0x96 JUMPI DUP1 PUSH4 0xE3D670D7 EQ PUSH2 0xB4 JUMPI DUP1 PUSH4 0xFB1669CA EQ PUSH2 0xE4 JUMPI JUMPDEST PUSH1 0x0 DUP1 REVERT JUMPDEST PUSH2 0x64 PUSH2 0x100 JUMP JUMPDEST PUSH1 0x40 MLOAD PUSH2 0x71 SWAP2 SWAP1 PUSH2 0x4B4 JUMP JUMPDEST PUSH1 0x40 MLOAD DUP1 SWAP2 SUB SWAP1 RETURN JUMPDEST PUSH2 0x94 PUSH1 0x4 DUP1 CALLDATASIZE SUB DUP2 ADD SWAP1 PUSH2 0x8F SWAP2 SWAP1 PUSH2 0x3CB JUMP JUMPDEST PUSH2 0x146 JUMP JUMPDEST STOP JUMPDEST PUSH2 0x9E PUSH2 0x24E JUMP JUMPDEST PUSH1 0x40 MLOAD PUSH2 0xAB SWAP2 SWAP1 PUSH2 0x479 JUMP JUMPDEST PUSH1 0x40 MLOAD DUP1 SWAP2 SUB SWAP1 RETURN JUMPDEST PUSH2 0xCE PUSH1 0x4 DUP1 CALLDATASIZE SUB DUP2 ADD SWAP1 PUSH2 0xC9 SWAP2 SWAP1 PUSH2 0x39E JUMP JUMPDEST PUSH2 0x274 JUMP JUMPDEST PUSH1 0x40 MLOAD PUSH2 0xDB SWAP2 SWAP1 PUSH2 0x4B4 JUMP JUMPDEST PUSH1 0x40 MLOAD DUP1 SWAP2 SUB SWAP1 RETURN JUMPDEST PUSH2 0xFE PUSH1 0x4 DUP1 CALLDATASIZE SUB DUP2 ADD SWAP1 PUSH2 0xF9 SWAP2 SWAP1 PUSH2 0x40B JUMP JUMPDEST PUSH2 0x28C JUMP JUMPDEST STOP JUMPDEST PUSH1 0x0 DUP1 PUSH1 0x0 CALLER PUSH20 0xFFFFFFFFFFFFFFFFFFFFFFFFFFFFFFFFFFFFFFFF AND PUSH20 0xFFFFFFFFFFFFFFFFFFFFFFFFFFFFFFFFFFFFFFFF AND DUP2 MSTORE PUSH1 0x20 ADD SWAP1 DUP2 MSTORE PUSH1 0x20 ADD PUSH1 0x0 KECCAK256 SLOAD SWAP1 POP SWAP1 JUMP JUMPDEST DUP1 PUSH1 0x0 DUP1 CALLER PUSH20 0xFFFFFFFFFFFFFFFFFFFFFFFFFFFFFFFFFFFFFFFF AND PUSH20 0xFFFFFFFFFFFFFFFFFFFFFFFFFFFFFFFFFFFFFFFF AND DUP2 MSTORE PUSH1 0x20 ADD SWAP1 DUP2 MSTORE PUSH1 0x20 ADD PUSH1 0x0 KECCAK256 SLOAD GT DUP1 ISZERO PUSH2 0x193 JUMPI POP PUSH1 0x64 DUP2 GT JUMPDEST PUSH2 0x1A0 JUMPI PUSH2 0x19F PUSH2 0x5A6 JUMP JUMPDEST JUMPDEST DUP1 PUSH1 0x0 DUP1 CALLER PUSH20 0xFFFFFFFFFFFFFFFFFFFFFFFFFFFFFFFFFFFFFFFF AND PUSH20 0xFFFFFFFFFFFFFFFFFFFFFFFFFFFFFFFFFFFFFFFF AND DUP2 MSTORE PUSH1 0x20 ADD SWAP1 DUP2 MSTORE PUSH1 0x20 ADD PUSH1 0x0 KECCAK256 PUSH1 0x0 DUP3 DUP3 SLOAD PUSH2 0x1EE SWAP2 SWAP1 PUSH2 0x536 JUMP JUMPDEST SWAP3 POP POP DUP2 SWAP1 SSTORE POP DUP1 PUSH1 0x0 DUP1 DUP5 PUSH20 0xFFFFFFFFFFFFFFFFFFFFFFFFFFFFFFFFFFFFFFFF AND PUSH20 0xFFFFFFFFFFFFFFFFFFFFFFFFFFFFFFFFFFFFFFFF AND DUP2 MSTORE PUSH1 0x20 ADD SWAP1 DUP2 MSTORE PUSH1 0x20 ADD PUSH1 0x0 KECCAK256 PUSH1 0x0 DUP3 DUP3 SLOAD PUSH2 0x243 SWAP2 SWAP1 PUSH2 0x4E0 JUMP JUMPDEST SWAP3 POP POP DUP2 SWAP1 SSTORE POP POP POP JUMP JUMPDEST PUSH1 0x1 PUSH1 0x0 SWAP1 SLOAD SWAP1 PUSH2 0x100 EXP SWAP1 DIV PUSH20 0xFFFFFFFFFFFFFFFFFFFFFFFFFFFFFFFFFFFFFFFF AND DUP2 JUMP JUMPDEST PUSH1 0x0 PUSH1 0x20 MSTORE DUP1 PUSH1 0x0 MSTORE PUSH1 0x40 PUSH1 0x0 KECCAK256 PUSH1 0x0 SWAP2 POP SWAP1 POP SLOAD DUP2 JUMP JUMPDEST PUSH1 0x1 PUSH1 0x0 SWAP1 SLOAD SWAP1 PUSH2 0x100 EXP SWAP1 DIV PUSH20 0xFFFFFFFFFFFFFFFFFFFFFFFFFFFFFFFFFFFFFFFF AND PUSH20 0xFFFFFFFFFFFFFFFFFFFFFFFFFFFFFFFFFFFFFFFF AND CALLER PUSH20 0xFFFFFFFFFFFFFFFFFFFFFFFFFFFFFFFFFFFFFFFF AND EQ PUSH2 0x31C JUMPI PUSH1 0x40 MLOAD PUSH32 0x8C379A000000000000000000000000000000000000000000000000000000000 DUP2 MSTORE PUSH1 0x4 ADD PUSH2 0x313 SWAP1 PUSH2 0x494 JUMP JUMPDEST PUSH1 0x40 MLOAD DUP1 SWAP2 SUB SWAP1 REVERT JUMPDEST DUP1 PUSH1 0x0 DUP1 CALLER PUSH20 0xFFFFFFFFFFFFFFFFFFFFFFFFFFFFFFFFFFFFFFFF AND PUSH20 0xFFFFFFFFFFFFFFFFFFFFFFFFFFFFFFFFFFFFFFFF AND DUP2 MSTORE PUSH1 0x20 ADD SWAP1 DUP2 MSTORE PUSH1 0x20 ADD PUSH1 0x0 KECCAK256 PUSH1 0x0 DUP3 DUP3 SLOAD PUSH2 0x36A SWAP2 SWAP1 PUSH2 0x4E0 JUMP JUMPDEST SWAP3 POP POP DUP2 SWAP1 SSTORE POP POP JUMP JUMPDEST PUSH1 0x0 DUP2 CALLDATALOAD SWAP1 POP PUSH2 0x383 DUP2 PUSH2 0x658 JUMP JUMPDEST SWAP3 SWAP2 POP POP JUMP JUMPDEST PUSH1 0x0 DUP2 CALLDATALOAD SWAP1 POP PUSH2 0x398 DUP2 PUSH2 0x66F JUMP JUMPDEST SWAP3 SWAP2 POP POP JUMP JUMPDEST PUSH1 0x0 PUSH1 0x20 DUP3 DUP5 SUB SLT ISZERO PUSH2 0x3B4 JUMPI PUSH2 0x3B3 PUSH2 0x604 JUMP JUMPDEST JUMPDEST PUSH1 0x0 PUSH2 0x3C2 DUP5 DUP3 DUP6 ADD PUSH2 0x374 JUMP JUMPDEST SWAP2 POP POP SWAP3 SWAP2 POP POP JUMP JUMPDEST PUSH1 0x0 DUP1 PUSH1 0x40 DUP4 DUP6 SUB SLT ISZERO PUSH2 0x3E2 JUMPI PUSH2 0x3E1 PUSH2 0x604 JUMP JUMPDEST JUMPDEST PUSH1 0x0 PUSH2 0x3F0 DUP6 DUP3 DUP7 ADD PUSH2 0x374 JUMP JUMPDEST SWAP3 POP POP PUSH1 0x20 PUSH2 0x401 DUP6 DUP3 DUP7 ADD PUSH2 0x389 JUMP JUMPDEST SWAP2 POP POP SWAP3 POP SWAP3 SWAP1 POP JUMP JUMPDEST PUSH1 0x0 PUSH1 0x20 DUP3 DUP5 SUB SLT ISZERO PUSH2 0x421 JUMPI PUSH2 0x420 PUSH2 0x604 JUMP JUMPDEST JUMPDEST PUSH1 0x0 PUSH2 0x42F DUP5 DUP3 DUP6 ADD PUSH2 0x389 JUMP JUMPDEST SWAP2 POP POP SWAP3 SWAP2 POP POP JUMP JUMPDEST PUSH2 0x441 DUP2 PUSH2 0x56A JUMP JUMPDEST DUP3 MSTORE POP POP JUMP JUMPDEST PUSH1 0x0 PUSH2 0x454 PUSH1 0x24 DUP4 PUSH2 0x4CF JUMP JUMPDEST SWAP2 POP PUSH2 0x45F DUP3 PUSH2 0x609 JUMP JUMPDEST PUSH1 0x40 DUP3 ADD SWAP1 POP SWAP2 SWAP1 POP JUMP JUMPDEST PUSH2 0x473 DUP2 PUSH2 0x59C JUMP JUMPDEST DUP3 MSTORE POP POP JUMP JUMPDEST PUSH1 0x0 PUSH1 0x20 DUP3 ADD SWAP1 POP PUSH2 0x48E PUSH1 0x0 DUP4 ADD DUP5 PUSH2 0x438 JUMP JUMPDEST SWAP3 SWAP2 POP POP JUMP JUMPDEST PUSH1 0x0 PUSH1 0x20 DUP3 ADD SWAP1 POP DUP2 DUP2 SUB PUSH1 0x0 DUP4 ADD MSTORE PUSH2 0x4AD DUP2 PUSH2 0x447 JUMP JUMPDEST SWAP1 POP SWAP2 SWAP1 POP JUMP JUMPDEST PUSH1 0x0 PUSH1 0x20 DUP3 ADD SWAP1 POP PUSH2 0x4C9 PUSH1 0x0 DUP4 ADD DUP5 PUSH2 0x46A JUMP JUMPDEST SWAP3 SWAP2 POP POP JUMP JUMPDEST PUSH1 0x0 DUP3 DUP3 MSTORE PUSH1 0x20 DUP3 ADD SWAP1 POP SWAP3 SWAP2 POP POP JUMP JUMPDEST PUSH1 0x0 PUSH2 0x4EB DUP3 PUSH2 0x59C JUMP JUMPDEST SWAP2 POP PUSH2 0x4F6 DUP4 PUSH2 0x59C JUMP JUMPDEST SWAP3 POP DUP3 PUSH32 0xFFFFFFFFFFFFFFFFFFFFFFFFFFFFFFFFFFFFFFFFFFFFFFFFFFFFFFFFFFFFFFFF SUB DUP3 GT ISZERO PUSH2 0x52B JUMPI PUSH2 0x52A PUSH2 0x5D5 JUMP JUMPDEST JUMPDEST DUP3 DUP3 ADD SWAP1 POP SWAP3 SWAP2 POP POP JUMP JUMPDEST PUSH1 0x0 PUSH2 0x541 DUP3 PUSH2 0x59C JUMP JUMPDEST SWAP2 POP PUSH2 0x54C DUP4 PUSH2 0x59C JUMP JUMPDEST SWAP3 POP DUP3 DUP3 LT ISZERO PUSH2 0x55F JUMPI PUSH2 0x55E PUSH2 0x5D5 JUMP JUMPDEST JUMPDEST DUP3 DUP3 SUB SWAP1 POP SWAP3 SWAP2 POP POP JUMP JUMPDEST PUSH1 0x0 PUSH2 0x575 DUP3 PUSH2 0x57C JUMP JUMPDEST SWAP1 POP SWAP2 SWAP1 POP JUMP JUMPDEST PUSH1 0x0 PUSH20 0xFFFFFFFFFFFFFFFFFFFFFFFFFFFFFFFFFFFFFFFF DUP3 AND SWAP1 POP SWAP2 SWAP1 POP JUMP JUMPDEST PUSH1 0x0 DUP2 SWAP1 POP SWAP2 SWAP1 POP JUMP JUMPDEST PUSH32 0x4E487B7100000000000000000000000000000000000000000000000000000000 PUSH1 0x0 MSTORE PUSH1 0x1 PUSH1 0x4 MSTORE PUSH1 0x24 PUSH1 0x0 REVERT JUMPDEST PUSH32 0x4E487B7100000000000000000000000000000000000000000000000000000000 PUSH1 0x0 MSTORE PUSH1 0x11 PUSH1 0x4 MSTORE PUSH1 0x24 PUSH1 0x0 REVERT JUMPDEST PUSH1 0x0 DUP1 REVERT JUMPDEST PUSH32 0x4F6E6C79206F776E657220697320616C6C6F77656420746F206164642062616C PUSH1 0x0 DUP3 ADD MSTORE PUSH32 0x616E636500000000000000000000000000000000000000000000000000000000 PUSH1 0x20 DUP3 ADD MSTORE POP JUMP JUMPDEST PUSH2 0x661 DUP2 PUSH2 0x56A JUMP JUMPDEST DUP2 EQ PUSH2 0x66C JUMPI PUSH1 0x0 DUP1 REVERT JUMPDEST POP JUMP JUMPDEST PUSH2 0x678 DUP2 PUSH2 0x59C JUMP JUMPDEST DUP2 EQ PUSH2 0x683 JUMPI PUSH1 0x0 DUP1 REVERT JUMPDEST POP JUMP INVALID LOG2 PUSH5 0x6970667358 0x22 SLT KECCAK256 0xF7 PUSH5 0xDB772FB0F7 PUSH12 0xA8553222E29D8E699B835F98 SWAP15 PUSH27 0x611C615B856BA214043264736F6C63430008070033000000000000 "
				},
				"gasEstimates": {
					"creation": {
						"codeDepositCost": "344800",
						"executionCost": "24646",
						"totalCost": "369446"
					},
					"external": {
						"balance(address)": "2858",
						"getBalance()": "2504",
						"owner()": "2536",
						"setBalance(uint256)": "infinite",
						"setTransfer(address,uint256)": "infinite"
					}
				},
				"methodIdentifiers": {
					"balance(address)": "e3d670d7",
					"getBalance()": "12065fe0",
					"owner()": "8da5cb5b",
					"setBalance(uint256)": "fb1669ca",
					"setTransfer(address,uint256)": "57414c07"
				}
			},
			"storageLayout": {
				"storage": [
					{
						"astId": 5,
						"contract": "contracts/Accountbalance.sol:Accountbalance",
						"label": "balance",
						"offset": 0,
						"slot": "0",
						"type": "t_mapping(t_address,t_uint256)"
					},
					{
						"astId": 7,
						"contract": "contracts/Accountbalance.sol:Accountbalance",
						"label": "owner",
						"offset": 0,
						"slot": "1",
						"type": "t_address"
					}
				],
				"types": {
					"t_address": {
						"encoding": "inplace",
						"label": "address",
						"numberOfBytes": "20"
					},
					"t_mapping(t_address,t_uint256)": {
						"encoding": "mapping",
						"key": "t_address",
						"label": "mapping(address => uint256)",
						"numberOfBytes": "32",
						"value": "t_uint256"
					},
					"t_uint256": {
						"encoding": "inplace",
						"label": "uint256",
						"numberOfBytes": "32"
					}
				}
			},
			"userdoc": {
				"kind": "user",
				"methods": {},
				"version": 1
			}
		}
	}
}