{
	"contracts/Counter.sol": {
		"Counter": {
			"abi": [
				{
					"inputs": [],
					"name": "dec",
					"outputs": [],
					"stateMutability": "nonpayable",
					"type": "function"
				},
				{
					"inputs": [
						{
							"internalType": "uint256",
							"name": "x",
							"type": "uint256"
						},
						{
							"internalType": "uint256",
							"name": "y",
							"type": "uint256"
						}
					],
					"name": "getadd",
					"outputs": [
						{
							"internalType": "uint256",
							"name": "",
							"type": "uint256"
						}
					],
					"stateMutability": "nonpayable",
					"type": "function"
				},
				{
					"inputs": [],
					"name": "getcount",
					"outputs": [
						{
							"internalType": "uint256",
							"name": "",
							"type": "uint256"
						}
					],
					"stateMutability": "view",
					"type": "function"
				},
				{
					"inputs": [
						{
							"internalType": "uint256",
							"name": "x",
							"type": "uint256"
						},
						{
							"internalType": "uint256",
							"name": "y",
							"type": "uint256"
						}
					],
					"name": "getsub",
					"outputs": [
						{
							"internalType": "uint256",
							"name": "",
							"type": "uint256"
						}
					],
					"stateMutability": "nonpayable",
					"type": "function"
				},
				{
					"inputs": [],
					"name": "inc",
					"outputs": [],
					"stateMutability": "nonpayable",
					"type": "function"
				},
				{
					"inputs": [],
					"name": "sum",
					"outputs": [
						{
							"internalType": "uint256",
							"name": "",
							"type": "uint256"
						}
					],
					"stateMutability": "view",
					"type": "function"
				}
			],
			"devdoc": {
				"kind": "dev",
				"methods": {},
				"version": 1
			},
			"evm": {
				"assembly": "    /* \"contracts/Counter.sol\":57:562  contract Counter\r... */\n  mstore(0x40, 0x80)\n  callvalue\n  dup1\n  iszero\n  tag_1\n  jumpi\n  0x00\n  dup1\n  revert\ntag_1:\n  pop\n  dataSize(sub_0)\n  dup1\n  dataOffset(sub_0)\n  0x00\n  codecopy\n  0x00\n  return\nstop\n\nsub_0: assembly {\n        /* \"contracts/Counter.sol\":57:562  contract Counter\r... */\n      mstore(0x40, 0x80)\n      callvalue\n      dup1\n      iszero\n      tag_1\n      jumpi\n      0x00\n      dup1\n      revert\n    tag_1:\n      pop\n      jumpi(tag_2, lt(calldatasize, 0x04))\n      shr(0xe0, calldataload(0x00))\n      dup1\n      0x146af82b\n      eq\n      tag_3\n      jumpi\n      dup1\n      0x371303c0\n      eq\n      tag_4\n      jumpi\n      dup1\n      0x853255cc\n      eq\n      tag_5\n      jumpi\n      dup1\n      0x989ace02\n      eq\n      tag_6\n      jumpi\n      dup1\n      0x9ed2d84d\n      eq\n      tag_7\n      jumpi\n      dup1\n      0xb3bcfa82\n      eq\n      tag_8\n      jumpi\n    tag_2:\n      0x00\n      dup1\n      revert\n        /* \"contracts/Counter.sol\":254:339  function getcount() public view returns (uint)\r... */\n    tag_3:\n      tag_9\n      tag_10\n      jump\t// in\n    tag_9:\n      mload(0x40)\n      tag_11\n      swap2\n      swap1\n      tag_12\n      jump\t// in\n    tag_11:\n      mload(0x40)\n      dup1\n      swap2\n      sub\n      swap1\n      return\n        /* \"contracts/Counter.sol\":132:187  function inc() public\r... */\n    tag_4:\n      tag_13\n      tag_14\n      jump\t// in\n    tag_13:\n      stop\n        /* \"contracts/Counter.sol\":108:123  uint public sum */\n    tag_5:\n      tag_15\n      tag_16\n      jump\t// in\n    tag_15:\n      mload(0x40)\n      tag_17\n      swap2\n      swap1\n      tag_12\n      jump\t// in\n    tag_17:\n      mload(0x40)\n      dup1\n      swap2\n      sub\n      swap1\n      return\n        /* \"contracts/Counter.sol\":455:559  function getsub(uint x,uint y) public returns(uint)\r... */\n    tag_6:\n      tag_18\n      0x04\n      dup1\n      calldatasize\n      sub\n      dup2\n      add\n      swap1\n      tag_19\n      swap2\n      swap1\n      tag_20\n      jump\t// in\n    tag_19:\n      tag_21\n      jump\t// in\n    tag_18:\n      mload(0x40)\n      tag_22\n      swap2\n      swap1\n      tag_12\n      jump\t// in\n    tag_22:\n      mload(0x40)\n      dup1\n      swap2\n      sub\n      swap1\n      return\n        /* \"contracts/Counter.sol\":345:449  function getadd(uint x,uint y) public returns(uint)\r... */\n    tag_7:\n      tag_23\n      0x04\n      dup1\n      calldatasize\n      sub\n      dup2\n      add\n      swap1\n      tag_24\n      swap2\n      swap1\n      tag_20\n      jump\t// in\n    tag_24:\n      tag_25\n      jump\t// in\n    tag_23:\n      mload(0x40)\n      tag_26\n      swap2\n      swap1\n      tag_12\n      jump\t// in\n    tag_26:\n      mload(0x40)\n      dup1\n      swap2\n      sub\n      swap1\n      return\n        /* \"contracts/Counter.sol\":193:248  function dec() public\r... */\n    tag_8:\n      tag_27\n      tag_28\n      jump\t// in\n    tag_27:\n      stop\n        /* \"contracts/Counter.sol\":254:339  function getcount() public view returns (uint)\r... */\n    tag_10:\n        /* \"contracts/Counter.sol\":295:299  uint */\n      0x00\n        /* \"contracts/Counter.sol\":324:331  counter */\n      dup1\n      sload\n        /* \"contracts/Counter.sol\":317:331  return counter */\n      swap1\n      pop\n        /* \"contracts/Counter.sol\":254:339  function getcount() public view returns (uint)\r... */\n      swap1\n      jump\t// out\n        /* \"contracts/Counter.sol\":132:187  function inc() public\r... */\n    tag_14:\n        /* \"contracts/Counter.sol\":170:177  counter */\n      0x00\n      dup1\n        /* \"contracts/Counter.sol\":170:179  counter++ */\n      dup2\n      sload\n      dup1\n      swap3\n      swap2\n      swap1\n      tag_31\n      swap1\n      tag_32\n      jump\t// in\n    tag_31:\n      swap2\n      swap1\n      pop\n      sstore\n      pop\n        /* \"contracts/Counter.sol\":132:187  function inc() public\r... */\n      jump\t// out\n        /* \"contracts/Counter.sol\":108:123  uint public sum */\n    tag_16:\n      sload(0x01)\n      dup2\n      jump\t// out\n        /* \"contracts/Counter.sol\":455:559  function getsub(uint x,uint y) public returns(uint)\r... */\n    tag_21:\n        /* \"contracts/Counter.sol\":501:505  uint */\n      0x00\n        /* \"contracts/Counter.sol\":529:530  y */\n      dup2\n        /* \"contracts/Counter.sol\":527:528  x */\n      dup4\n        /* \"contracts/Counter.sol\":527:530  x+y */\n      tag_34\n      swap2\n      swap1\n      tag_35\n      jump\t// in\n    tag_34:\n        /* \"contracts/Counter.sol\":523:526  sum */\n      0x01\n        /* \"contracts/Counter.sol\":523:530  sum=x+y */\n      dup2\n      swap1\n      sstore\n      pop\n        /* \"contracts/Counter.sol\":548:551  sum */\n      sload(0x01)\n        /* \"contracts/Counter.sol\":541:551  return sum */\n      swap1\n      pop\n        /* \"contracts/Counter.sol\":455:559  function getsub(uint x,uint y) public returns(uint)\r... */\n      swap3\n      swap2\n      pop\n      pop\n      jump\t// out\n        /* \"contracts/Counter.sol\":345:449  function getadd(uint x,uint y) public returns(uint)\r... */\n    tag_25:\n        /* \"contracts/Counter.sol\":391:395  uint */\n      0x00\n        /* \"contracts/Counter.sol\":419:420  y */\n      dup2\n        /* \"contracts/Counter.sol\":417:418  x */\n      dup4\n        /* \"contracts/Counter.sol\":417:420  x+y */\n      tag_37\n      swap2\n      swap1\n      tag_35\n      jump\t// in\n    tag_37:\n        /* \"contracts/Counter.sol\":413:416  sum */\n      0x01\n        /* \"contracts/Counter.sol\":413:420  sum=x+y */\n      dup2\n      swap1\n      sstore\n      pop\n        /* \"contracts/Counter.sol\":438:441  sum */\n      sload(0x01)\n        /* \"contracts/Counter.sol\":431:441  return sum */\n      swap1\n      pop\n        /* \"contracts/Counter.sol\":345:449  function getadd(uint x,uint y) public returns(uint)\r... */\n      swap3\n      swap2\n      pop\n      pop\n      jump\t// out\n        /* \"contracts/Counter.sol\":193:248  function dec() public\r... */\n    tag_28:\n        /* \"contracts/Counter.sol\":231:238  counter */\n      0x00\n      dup1\n        /* \"contracts/Counter.sol\":231:240  counter-- */\n      dup2\n      sload\n      dup1\n      swap3\n      swap2\n      swap1\n      tag_39\n      swap1\n      tag_40\n      jump\t// in\n    tag_39:\n      swap2\n      swap1\n      pop\n      sstore\n      pop\n        /* \"contracts/Counter.sol\":193:248  function dec() public\r... */\n      jump\t// out\n        /* \"#utility.yul\":7:146   */\n    tag_42:\n        /* \"#utility.yul\":53:58   */\n      0x00\n        /* \"#utility.yul\":91:97   */\n      dup2\n        /* \"#utility.yul\":78:98   */\n      calldataload\n        /* \"#utility.yul\":69:98   */\n      swap1\n      pop\n        /* \"#utility.yul\":107:140   */\n      tag_44\n        /* \"#utility.yul\":134:139   */\n      dup2\n        /* \"#utility.yul\":107:140   */\n      tag_45\n      jump\t// in\n    tag_44:\n        /* \"#utility.yul\":7:146   */\n      swap3\n      swap2\n      pop\n      pop\n      jump\t// out\n        /* \"#utility.yul\":152:626   */\n    tag_20:\n        /* \"#utility.yul\":220:226   */\n      0x00\n        /* \"#utility.yul\":228:234   */\n      dup1\n        /* \"#utility.yul\":277:279   */\n      0x40\n        /* \"#utility.yul\":265:274   */\n      dup4\n        /* \"#utility.yul\":256:263   */\n      dup6\n        /* \"#utility.yul\":252:275   */\n      sub\n        /* \"#utility.yul\":248:280   */\n      slt\n        /* \"#utility.yul\":245:364   */\n      iszero\n      tag_47\n      jumpi\n        /* \"#utility.yul\":283:362   */\n      tag_48\n      tag_49\n      jump\t// in\n    tag_48:\n        /* \"#utility.yul\":245:364   */\n    tag_47:\n        /* \"#utility.yul\":403:404   */\n      0x00\n        /* \"#utility.yul\":428:481   */\n      tag_50\n        /* \"#utility.yul\":473:480   */\n      dup6\n        /* \"#utility.yul\":464:470   */\n      dup3\n        /* \"#utility.yul\":453:462   */\n      dup7\n        /* \"#utility.yul\":449:471   */\n      add\n        /* \"#utility.yul\":428:481   */\n      tag_42\n      jump\t// in\n    tag_50:\n        /* \"#utility.yul\":418:481   */\n      swap3\n      pop\n        /* \"#utility.yul\":374:491   */\n      pop\n        /* \"#utility.yul\":530:532   */\n      0x20\n        /* \"#utility.yul\":556:609   */\n      tag_51\n        /* \"#utility.yul\":601:608   */\n      dup6\n        /* \"#utility.yul\":592:598   */\n      dup3\n        /* \"#utility.yul\":581:590   */\n      dup7\n        /* \"#utility.yul\":577:599   */\n      add\n        /* \"#utility.yul\":556:609   */\n      tag_42\n      jump\t// in\n    tag_51:\n        /* \"#utility.yul\":546:609   */\n      swap2\n      pop\n        /* \"#utility.yul\":501:619   */\n      pop\n        /* \"#utility.yul\":152:626   */\n      swap3\n      pop\n      swap3\n      swap1\n      pop\n      jump\t// out\n        /* \"#utility.yul\":632:750   */\n    tag_52:\n        /* \"#utility.yul\":719:743   */\n      tag_54\n        /* \"#utility.yul\":737:742   */\n      dup2\n        /* \"#utility.yul\":719:743   */\n      tag_55\n      jump\t// in\n    tag_54:\n        /* \"#utility.yul\":714:717   */\n      dup3\n        /* \"#utility.yul\":707:744   */\n      mstore\n        /* \"#utility.yul\":632:750   */\n      pop\n      pop\n      jump\t// out\n        /* \"#utility.yul\":756:978   */\n    tag_12:\n        /* \"#utility.yul\":849:853   */\n      0x00\n        /* \"#utility.yul\":887:889   */\n      0x20\n        /* \"#utility.yul\":876:885   */\n      dup3\n        /* \"#utility.yul\":872:890   */\n      add\n        /* \"#utility.yul\":864:890   */\n      swap1\n      pop\n        /* \"#utility.yul\":900:971   */\n      tag_57\n        /* \"#utility.yul\":968:969   */\n      0x00\n        /* \"#utility.yul\":957:966   */\n      dup4\n        /* \"#utility.yul\":953:970   */\n      add\n        /* \"#utility.yul\":944:950   */\n      dup5\n        /* \"#utility.yul\":900:971   */\n      tag_52\n      jump\t// in\n    tag_57:\n        /* \"#utility.yul\":756:978   */\n      swap3\n      swap2\n      pop\n      pop\n      jump\t// out\n        /* \"#utility.yul\":1065:1370   */\n    tag_35:\n        /* \"#utility.yul\":1105:1108   */\n      0x00\n        /* \"#utility.yul\":1124:1144   */\n      tag_61\n        /* \"#utility.yul\":1142:1143   */\n      dup3\n        /* \"#utility.yul\":1124:1144   */\n      tag_55\n      jump\t// in\n    tag_61:\n        /* \"#utility.yul\":1119:1144   */\n      swap2\n      pop\n        /* \"#utility.yul\":1158:1178   */\n      tag_62\n        /* \"#utility.yul\":1176:1177   */\n      dup4\n        /* \"#utility.yul\":1158:1178   */\n      tag_55\n      jump\t// in\n    tag_62:\n        /* \"#utility.yul\":1153:1178   */\n      swap3\n      pop\n        /* \"#utility.yul\":1312:1313   */\n      dup3\n        /* \"#utility.yul\":1244:1310   */\n      0xffffffffffffffffffffffffffffffffffffffffffffffffffffffffffffffff\n        /* \"#utility.yul\":1240:1314   */\n      sub\n        /* \"#utility.yul\":1237:1238   */\n      dup3\n        /* \"#utility.yul\":1234:1315   */\n      gt\n        /* \"#utility.yul\":1231:1338   */\n      iszero\n      tag_63\n      jumpi\n        /* \"#utility.yul\":1318:1336   */\n      tag_64\n      tag_65\n      jump\t// in\n    tag_64:\n        /* \"#utility.yul\":1231:1338   */\n    tag_63:\n        /* \"#utility.yul\":1362:1363   */\n      dup3\n        /* \"#utility.yul\":1359:1360   */\n      dup3\n        /* \"#utility.yul\":1355:1364   */\n      add\n        /* \"#utility.yul\":1348:1364   */\n      swap1\n      pop\n        /* \"#utility.yul\":1065:1370   */\n      swap3\n      swap2\n      pop\n      pop\n      jump\t// out\n        /* \"#utility.yul\":1376:1453   */\n    tag_55:\n        /* \"#utility.yul\":1413:1420   */\n      0x00\n        /* \"#utility.yul\":1442:1447   */\n      dup2\n        /* \"#utility.yul\":1431:1447   */\n      swap1\n      pop\n        /* \"#utility.yul\":1376:1453   */\n      swap2\n      swap1\n      pop\n      jump\t// out\n        /* \"#utility.yul\":1459:1630   */\n    tag_40:\n        /* \"#utility.yul\":1498:1501   */\n      0x00\n        /* \"#utility.yul\":1521:1545   */\n      tag_68\n        /* \"#utility.yul\":1539:1544   */\n      dup3\n        /* \"#utility.yul\":1521:1545   */\n      tag_55\n      jump\t// in\n    tag_68:\n        /* \"#utility.yul\":1512:1545   */\n      swap2\n      pop\n        /* \"#utility.yul\":1567:1571   */\n      0x00\n        /* \"#utility.yul\":1560:1565   */\n      dup3\n        /* \"#utility.yul\":1557:1572   */\n      eq\n        /* \"#utility.yul\":1554:1595   */\n      iszero\n      tag_69\n      jumpi\n        /* \"#utility.yul\":1575:1593   */\n      tag_70\n      tag_65\n      jump\t// in\n    tag_70:\n        /* \"#utility.yul\":1554:1595   */\n    tag_69:\n        /* \"#utility.yul\":1622:1623   */\n      0x01\n        /* \"#utility.yul\":1615:1620   */\n      dup3\n        /* \"#utility.yul\":1611:1624   */\n      sub\n        /* \"#utility.yul\":1604:1624   */\n      swap1\n      pop\n        /* \"#utility.yul\":1459:1630   */\n      swap2\n      swap1\n      pop\n      jump\t// out\n        /* \"#utility.yul\":1636:1869   */\n    tag_32:\n        /* \"#utility.yul\":1675:1678   */\n      0x00\n        /* \"#utility.yul\":1698:1722   */\n      tag_72\n        /* \"#utility.yul\":1716:1721   */\n      dup3\n        /* \"#utility.yul\":1698:1722   */\n      tag_55\n      jump\t// in\n    tag_72:\n        /* \"#utility.yul\":1689:1722   */\n      swap2\n      pop\n        /* \"#utility.yul\":1744:1810   */\n      0xffffffffffffffffffffffffffffffffffffffffffffffffffffffffffffffff\n        /* \"#utility.yul\":1737:1742   */\n      dup3\n        /* \"#utility.yul\":1734:1811   */\n      eq\n        /* \"#utility.yul\":1731:1834   */\n      iszero\n      tag_73\n      jumpi\n        /* \"#utility.yul\":1814:1832   */\n      tag_74\n      tag_65\n      jump\t// in\n    tag_74:\n        /* \"#utility.yul\":1731:1834   */\n    tag_73:\n        /* \"#utility.yul\":1861:1862   */\n      0x01\n        /* \"#utility.yul\":1854:1859   */\n      dup3\n        /* \"#utility.yul\":1850:1863   */\n      add\n        /* \"#utility.yul\":1843:1863   */\n      swap1\n      pop\n        /* \"#utility.yul\":1636:1869   */\n      swap2\n      swap1\n      pop\n      jump\t// out\n        /* \"#utility.yul\":1875:2055   */\n    tag_65:\n        /* \"#utility.yul\":1923:2000   */\n      0x4e487b7100000000000000000000000000000000000000000000000000000000\n        /* \"#utility.yul\":1920:1921   */\n      0x00\n        /* \"#utility.yul\":1913:2001   */\n      mstore\n        /* \"#utility.yul\":2020:2024   */\n      0x11\n        /* \"#utility.yul\":2017:2018   */\n      0x04\n        /* \"#utility.yul\":2010:2025   */\n      mstore\n        /* \"#utility.yul\":2044:2048   */\n      0x24\n        /* \"#utility.yul\":2041:2042   */\n      0x00\n        /* \"#utility.yul\":2034:2049   */\n      revert\n        /* \"#utility.yul\":2184:2301   */\n    tag_49:\n        /* \"#utility.yul\":2293:2294   */\n      0x00\n        /* \"#utility.yul\":2290:2291   */\n      dup1\n        /* \"#utility.yul\":2283:2295   */\n      revert\n        /* \"#utility.yul\":2307:2429   */\n    tag_45:\n        /* \"#utility.yul\":2380:2404   */\n      tag_80\n        /* \"#utility.yul\":2398:2403   */\n      dup2\n        /* \"#utility.yul\":2380:2404   */\n      tag_55\n      jump\t// in\n    tag_80:\n        /* \"#utility.yul\":2373:2378   */\n      dup2\n        /* \"#utility.yul\":2370:2405   */\n      eq\n        /* \"#utility.yul\":2360:2423   */\n      tag_81\n      jumpi\n        /* \"#utility.yul\":2419:2420   */\n      0x00\n        /* \"#utility.yul\":2416:2417   */\n      dup1\n        /* \"#utility.yul\":2409:2421   */\n      revert\n        /* \"#utility.yul\":2360:2423   */\n    tag_81:\n        /* \"#utility.yul\":2307:2429   */\n      pop\n      jump\t// out\n\n    auxdata: 0xa26469706673582212203d3c763cd4f2bba61c31bb6e8656effeaaefc1f8bfbc26fd131e53dc10e09ce264736f6c63430008070033\n}\n",
				"bytecode": {
					"linkReferences": {},
					"object": "608060405234801561001057600080fd5b50610369806100206000396000f3fe608060405234801561001057600080fd5b50600436106100625760003560e01c8063146af82b14610067578063371303c014610085578063853255cc1461008f578063989ace02146100ad5780639ed2d84d146100dd578063b3bcfa821461010d575b600080fd5b61006f610117565b60405161007c91906101fa565b60405180910390f35b61008d610120565b005b610097610139565b6040516100a491906101fa565b60405180910390f35b6100c760048036038101906100c291906101ab565b61013f565b6040516100d491906101fa565b60405180910390f35b6100f760048036038101906100f291906101ab565b61015e565b60405161010491906101fa565b60405180910390f35b61011561017d565b005b60008054905090565b6000808154809291906101329061029f565b9190505550565b60015481565b6000818361014d9190610215565b600181905550600154905092915050565b6000818361016c9190610215565b600181905550600154905092915050565b60008081548092919061018f90610275565b9190505550565b6000813590506101a58161031c565b92915050565b600080604083850312156101c2576101c1610317565b5b60006101d085828601610196565b92505060206101e185828601610196565b9150509250929050565b6101f48161026b565b82525050565b600060208201905061020f60008301846101eb565b92915050565b60006102208261026b565b915061022b8361026b565b9250827fffffffffffffffffffffffffffffffffffffffffffffffffffffffffffffffff038211156102605761025f6102e8565b5b828201905092915050565b6000819050919050565b60006102808261026b565b91506000821415610294576102936102e8565b5b600182039050919050565b60006102aa8261026b565b91507fffffffffffffffffffffffffffffffffffffffffffffffffffffffffffffffff8214156102dd576102dc6102e8565b5b600182019050919050565b7f4e487b7100000000000000000000000000000000000000000000000000000000600052601160045260246000fd5b600080fd5b6103258161026b565b811461033057600080fd5b5056fea26469706673582212203d3c763cd4f2bba61c31bb6e8656effeaaefc1f8bfbc26fd131e53dc10e09ce264736f6c63430008070033",
					"opcodes": "PUSH1 0x80 PUSH1 0x40 MSTORE CALLVALUE DUP1 ISZERO PUSH2 0x10 JUMPI PUSH1 0x0 DUP1 REVERT JUMPDEST POP PUSH2 0x369 DUP1 PUSH2 0x20 PUSH1 0x0 CODECOPY PUSH1 0x0 RETURN INVALID PUSH1 0x80 PUSH1 0x40 MSTORE CALLVALUE DUP1 ISZERO PUSH2 0x10 JUMPI PUSH1 0x0 DUP1 REVERT JUMPDEST POP PUSH1 0x4 CALLDATASIZE LT PUSH2 0x62 JUMPI PUSH1 0x0 CALLDATALOAD PUSH1 0xE0 SHR DUP1 PUSH4 0x146AF82B EQ PUSH2 0x67 JUMPI DUP1 PUSH4 0x371303C0 EQ PUSH2 0x85 JUMPI DUP1 PUSH4 0x853255CC EQ PUSH2 0x8F JUMPI DUP1 PUSH4 0x989ACE02 EQ PUSH2 0xAD JUMPI DUP1 PUSH4 0x9ED2D84D EQ PUSH2 0xDD JUMPI DUP1 PUSH4 0xB3BCFA82 EQ PUSH2 0x10D JUMPI JUMPDEST PUSH1 0x0 DUP1 REVERT JUMPDEST PUSH2 0x6F PUSH2 0x117 JUMP JUMPDEST PUSH1 0x40 MLOAD PUSH2 0x7C SWAP2 SWAP1 PUSH2 0x1FA JUMP JUMPDEST PUSH1 0x40 MLOAD DUP1 SWAP2 SUB SWAP1 RETURN JUMPDEST PUSH2 0x8D PUSH2 0x120 JUMP JUMPDEST STOP JUMPDEST PUSH2 0x97 PUSH2 0x139 JUMP JUMPDEST PUSH1 0x40 MLOAD PUSH2 0xA4 SWAP2 SWAP1 PUSH2 0x1FA JUMP JUMPDEST PUSH1 0x40 MLOAD DUP1 SWAP2 SUB SWAP1 RETURN JUMPDEST PUSH2 0xC7 PUSH1 0x4 DUP1 CALLDATASIZE SUB DUP2 ADD SWAP1 PUSH2 0xC2 SWAP2 SWAP1 PUSH2 0x1AB JUMP JUMPDEST PUSH2 0x13F JUMP JUMPDEST PUSH1 0x40 MLOAD PUSH2 0xD4 SWAP2 SWAP1 PUSH2 0x1FA JUMP JUMPDEST PUSH1 0x40 MLOAD DUP1 SWAP2 SUB SWAP1 RETURN JUMPDEST PUSH2 0xF7 PUSH1 0x4 DUP1 CALLDATASIZE SUB DUP2 ADD SWAP1 PUSH2 0xF2 SWAP2 SWAP1 PUSH2 0x1AB JUMP JUMPDEST PUSH2 0x15E JUMP JUMPDEST PUSH1 0x40 MLOAD PUSH2 0x104 SWAP2 SWAP1 PUSH2 0x1FA JUMP JUMPDEST PUSH1 0x40 MLOAD DUP1 SWAP2 SUB SWAP1 RETURN JUMPDEST PUSH2 0x115 PUSH2 0x17D JUMP JUMPDEST STOP JUMPDEST PUSH1 0x0 DUP1 SLOAD SWAP1 POP SWAP1 JUMP JUMPDEST PUSH1 0x0 DUP1 DUP2 SLOAD DUP1 SWAP3 SWAP2 SWAP1 PUSH2 0x132 SWAP1 PUSH2 0x29F JUMP JUMPDEST SWAP2 SWAP1 POP SSTORE POP JUMP JUMPDEST PUSH1 0x1 SLOAD DUP2 JUMP JUMPDEST PUSH1 0x0 DUP2 DUP4 PUSH2 0x14D SWAP2 SWAP1 PUSH2 0x215 JUMP JUMPDEST PUSH1 0x1 DUP2 SWAP1 SSTORE POP PUSH1 0x1 SLOAD SWAP1 POP SWAP3 SWAP2 POP POP JUMP JUMPDEST PUSH1 0x0 DUP2 DUP4 PUSH2 0x16C SWAP2 SWAP1 PUSH2 0x215 JUMP JUMPDEST PUSH1 0x1 DUP2 SWAP1 SSTORE POP PUSH1 0x1 SLOAD SWAP1 POP SWAP3 SWAP2 POP POP JUMP JUMPDEST PUSH1 0x0 DUP1 DUP2 SLOAD DUP1 SWAP3 SWAP2 SWAP1 PUSH2 0x18F SWAP1 PUSH2 0x275 JUMP JUMPDEST SWAP2 SWAP1 POP SSTORE POP JUMP JUMPDEST PUSH1 0x0 DUP2 CALLDATALOAD SWAP1 POP PUSH2 0x1A5 DUP2 PUSH2 0x31C JUMP JUMPDEST SWAP3 SWAP2 POP POP JUMP JUMPDEST PUSH1 0x0 DUP1 PUSH1 0x40 DUP4 DUP6 SUB SLT ISZERO PUSH2 0x1C2 JUMPI PUSH2 0x1C1 PUSH2 0x317 JUMP JUMPDEST JUMPDEST PUSH1 0x0 PUSH2 0x1D0 DUP6 DUP3 DUP7 ADD PUSH2 0x196 JUMP JUMPDEST SWAP3 POP POP PUSH1 0x20 PUSH2 0x1E1 DUP6 DUP3 DUP7 ADD PUSH2 0x196 JUMP JUMPDEST SWAP2 POP POP SWAP3 POP SWAP3 SWAP1 POP JUMP JUMPDEST PUSH2 0x1F4 DUP2 PUSH2 0x26B JUMP JUMPDEST DUP3 MSTORE POP POP JUMP JUMPDEST PUSH1 0x0 PUSH1 0x20 DUP3 ADD SWAP1 POP PUSH2 0x20F PUSH1 0x0 DUP4 ADD DUP5 PUSH2 0x1EB JUMP JUMPDEST SWAP3 SWAP2 POP POP JUMP JUMPDEST PUSH1 0x0 PUSH2 0x220 DUP3 PUSH2 0x26B JUMP JUMPDEST SWAP2 POP PUSH2 0x22B DUP4 PUSH2 0x26B JUMP JUMPDEST SWAP3 POP DUP3 PUSH32 0xFFFFFFFFFFFFFFFFFFFFFFFFFFFFFFFFFFFFFFFFFFFFFFFFFFFFFFFFFFFFFFFF SUB DUP3 GT ISZERO PUSH2 0x260 JUMPI PUSH2 0x25F PUSH2 0x2E8 JUMP JUMPDEST JUMPDEST DUP3 DUP3 ADD SWAP1 POP SWAP3 SWAP2 POP POP JUMP JUMPDEST PUSH1 0x0 DUP2 SWAP1 POP SWAP2 SWAP1 POP JUMP JUMPDEST PUSH1 0x0 PUSH2 0x280 DUP3 PUSH2 0x26B JUMP JUMPDEST SWAP2 POP PUSH1 0x0 DUP3 EQ ISZERO PUSH2 0x294 JUMPI PUSH2 0x293 PUSH2 0x2E8 JUMP JUMPDEST JUMPDEST PUSH1 0x1 DUP3 SUB SWAP1 POP SWAP2 SWAP1 POP JUMP JUMPDEST PUSH1 0x0 PUSH2 0x2AA DUP3 PUSH2 0x26B JUMP JUMPDEST SWAP2 POP PUSH32 0xFFFFFFFFFFFFFFFFFFFFFFFFFFFFFFFFFFFFFFFFFFFFFFFFFFFFFFFFFFFFFFFF DUP3 EQ ISZERO PUSH2 0x2DD JUMPI PUSH2 0x2DC PUSH2 0x2E8 JUMP JUMPDEST JUMPDEST PUSH1 0x1 DUP3 ADD SWAP1 POP SWAP2 SWAP1 POP JUMP JUMPDEST PUSH32 0x4E487B7100000000000000000000000000000000000000000000000000000000 PUSH1 0x0 MSTORE PUSH1 0x11 PUSH1 0x4 MSTORE PUSH1 0x24 PUSH1 0x0 REVERT JUMPDEST PUSH1 0x0 DUP1 REVERT JUMPDEST PUSH2 0x325 DUP2 PUSH2 0x26B JUMP JUMPDEST DUP2 EQ PUSH2 0x330 JUMPI PUSH1 0x0 DUP1 REVERT JUMPDEST POP JUMP INVALID LOG2 PUSH5 0x6970667358 0x22 SLT KECCAK256 RETURNDATASIZE EXTCODECOPY PUSH23 0x3CD4F2BBA61C31BB6E8656EFFEAAEFC1F8BFBC26FD131E MSTORE8 0xDC LT 0xE0 SWAP13 0xE2 PUSH5 0x736F6C6343 STOP ADDMOD SMOD STOP CALLER "
				},
				"gasEstimates": {
					"creation": {
						"codeDepositCost": "174600",
						"executionCost": "220",
						"totalCost": "174820"
					},
					"external": {
						"dec()": "24592",
						"getadd(uint256,uint256)": "infinite",
						"getcount()": "2415",
						"getsub(uint256,uint256)": "infinite",
						"inc()": "24504",
						"sum()": "2451"
					}
				},
				"methodIdentifiers": {
					"dec()": "b3bcfa82",
					"getadd(uint256,uint256)": "9ed2d84d",
					"getcount()": "146af82b",
					"getsub(uint256,uint256)": "989ace02",
					"inc()": "371303c0",
					"sum()": "853255cc"
				}
			},
			"storageLayout": {
				"storage": [
					{
						"astId": 3,
						"contract": "contracts/Counter.sol:Counter",
						"label": "counter",
						"offset": 0,
						"slot": "0",
						"type": "t_uint256"
					},
					{
						"astId": 5,
						"contract": "contracts/Counter.sol:Counter",
						"label": "sum",
						"offset": 0,
						"slot": "1",
						"type": "t_uint256"
					}
				],
				"types": {
					"t_uint256": {
						"encoding": "inplace",
						"label": "uint256",
						"numberOfBytes": "32"
					}
				}
			},
			"userdoc": {
				"kind": "user",
				"methods": {},
				"version": 1
			}
		}
	}
}