{
	"contracts/ReturnMultipleValue.sol": {
		"ReturnMultipleValue": {
			"abi": [
				{
					"inputs": [],
					"name": "AssignValues",
					"outputs": [
						{
							"internalType": "uint256",
							"name": "x",
							"type": "uint256"
						},
						{
							"internalType": "bool",
							"name": "y",
							"type": "bool"
						},
						{
							"internalType": "int256",
							"name": "z",
							"type": "int256"
						}
					],
					"stateMutability": "pure",
					"type": "function"
				},
				{
					"inputs": [],
					"name": "DeafultValue",
					"outputs": [
						{
							"internalType": "uint256",
							"name": "x",
							"type": "uint256"
						},
						{
							"internalType": "bool",
							"name": "y",
							"type": "bool"
						},
						{
							"internalType": "int256",
							"name": "z",
							"type": "int256"
						}
					],
					"stateMutability": "pure",
					"type": "function"
				},
				{
					"inputs": [],
					"name": "destructuing",
					"outputs": [
						{
							"internalType": "uint256",
							"name": "",
							"type": "uint256"
						},
						{
							"internalType": "bool",
							"name": "",
							"type": "bool"
						},
						{
							"internalType": "uint256",
							"name": "",
							"type": "uint256"
						},
						{
							"internalType": "uint256",
							"name": "",
							"type": "uint256"
						},
						{
							"internalType": "uint256",
							"name": "",
							"type": "uint256"
						}
					],
					"stateMutability": "pure",
					"type": "function"
				},
				{
					"inputs": [],
					"name": "returnMultiple",
					"outputs": [
						{
							"internalType": "uint256",
							"name": "",
							"type": "uint256"
						},
						{
							"internalType": "bool",
							"name": "",
							"type": "bool"
						},
						{
							"internalType": "uint256",
							"name": "",
							"type": "uint256"
						},
						{
							"internalType": "uint256",
							"name": "",
							"type": "uint256"
						},
						{
							"internalType": "bool",
							"name": "",
							"type": "bool"
						}
					],
					"stateMutability": "pure",
					"type": "function"
				},
				{
					"inputs": [],
					"name": "returnNamed",
					"outputs": [
						{
							"internalType": "uint256",
							"name": "x",
							"type": "uint256"
						},
						{
							"internalType": "bool",
							"name": "y",
							"type": "bool"
						},
						{
							"internalType": "int256",
							"name": "z",
							"type": "int256"
						}
					],
					"stateMutability": "pure",
					"type": "function"
				},
				{
					"inputs": [],
					"name": "returnThree",
					"outputs": [
						{
							"internalType": "uint256",
							"name": "",
							"type": "uint256"
						},
						{
							"internalType": "bool",
							"name": "",
							"type": "bool"
						},
						{
							"internalType": "uint256",
							"name": "",
							"type": "uint256"
						}
					],
					"stateMutability": "pure",
					"type": "function"
				}
			],
			"devdoc": {
				"kind": "dev",
				"methods": {},
				"version": 1
			},
			"evm": {
				"assembly": "    /* \"contracts/ReturnMultipleValue.sol\":56:942  contract ReturnMultipleValue{\r... */\n  mstore(0x40, 0x80)\n  callvalue\n  dup1\n  iszero\n  tag_1\n  jumpi\n  0x00\n  dup1\n  revert\ntag_1:\n  pop\n  dataSize(sub_0)\n  dup1\n  dataOffset(sub_0)\n  0x00\n  codecopy\n  0x00\n  return\nstop\n\nsub_0: assembly {\n        /* \"contracts/ReturnMultipleValue.sol\":56:942  contract ReturnMultipleValue{\r... */\n      mstore(0x40, 0x80)\n      callvalue\n      dup1\n      iszero\n      tag_1\n      jumpi\n      0x00\n      dup1\n      revert\n    tag_1:\n      pop\n      jumpi(tag_2, lt(calldatasize, 0x04))\n      shr(0xe0, calldataload(0x00))\n      dup1\n      0x25f776ca\n      eq\n      tag_3\n      jumpi\n      dup1\n      0x3dece511\n      eq\n      tag_4\n      jumpi\n      dup1\n      0x3fb4df5c\n      eq\n      tag_5\n      jumpi\n      dup1\n      0xc187ab41\n      eq\n      tag_6\n      jumpi\n      dup1\n      0xe61e4008\n      eq\n      tag_7\n      jumpi\n      dup1\n      0xeb0faae8\n      eq\n      tag_8\n      jumpi\n    tag_2:\n      0x00\n      dup1\n      revert\n        /* \"contracts/ReturnMultipleValue.sol\":713:928  function destructuing() public pure returns(uint,bool,uint,uint,uint)\r... */\n    tag_3:\n      tag_9\n      tag_10\n      jump\t// in\n    tag_9:\n      mload(0x40)\n      tag_11\n      swap6\n      swap5\n      swap4\n      swap3\n      swap2\n      swap1\n      tag_12\n      jump\t// in\n    tag_11:\n      mload(0x40)\n      dup1\n      swap2\n      sub\n      swap1\n      return\n        /* \"contracts/ReturnMultipleValue.sol\":329:438  function returnNamed() public pure returns(uint x, bool y, int z)\r... */\n    tag_4:\n      tag_13\n      tag_14\n      jump\t// in\n    tag_13:\n      mload(0x40)\n      tag_15\n      swap4\n      swap3\n      swap2\n      swap1\n      tag_16\n      jump\t// in\n    tag_15:\n      mload(0x40)\n      dup1\n      swap2\n      sub\n      swap1\n      return\n        /* \"contracts/ReturnMultipleValue.sol\":604:707  function DeafultValue()public pure returns(uint x,bool y, int z)\r... */\n    tag_5:\n      tag_17\n      tag_18\n      jump\t// in\n    tag_17:\n      mload(0x40)\n      tag_19\n      swap4\n      swap3\n      swap2\n      swap1\n      tag_16\n      jump\t// in\n    tag_19:\n      mload(0x40)\n      dup1\n      swap2\n      sub\n      swap1\n      return\n        /* \"contracts/ReturnMultipleValue.sol\":91:193  function returnThree() public pure returns(uint,bool,uint)\r... */\n    tag_6:\n      tag_20\n      tag_21\n      jump\t// in\n    tag_20:\n      mload(0x40)\n      tag_22\n      swap4\n      swap3\n      swap2\n      swap1\n      tag_23\n      jump\t// in\n    tag_22:\n      mload(0x40)\n      dup1\n      swap2\n      sub\n      swap1\n      return\n        /* \"contracts/ReturnMultipleValue.sol\":199:323  function returnMultiple() public pure returns(uint,bool,uint,uint,bool)\r... */\n    tag_7:\n      tag_24\n      tag_25\n      jump\t// in\n    tag_24:\n      mload(0x40)\n      tag_26\n      swap6\n      swap5\n      swap4\n      swap3\n      swap2\n      swap1\n      tag_27\n      jump\t// in\n    tag_26:\n      mload(0x40)\n      dup1\n      swap2\n      sub\n      swap1\n      return\n        /* \"contracts/ReturnMultipleValue.sol\":444:598  function AssignValues() public pure returns(uint x, bool y, int z)\r... */\n    tag_8:\n      tag_28\n      tag_29\n      jump\t// in\n    tag_28:\n      mload(0x40)\n      tag_30\n      swap4\n      swap3\n      swap2\n      swap1\n      tag_16\n      jump\t// in\n    tag_30:\n      mload(0x40)\n      dup1\n      swap2\n      sub\n      swap1\n      return\n        /* \"contracts/ReturnMultipleValue.sol\":713:928  function destructuing() public pure returns(uint,bool,uint,uint,uint)\r... */\n    tag_10:\n        /* \"contracts/ReturnMultipleValue.sol\":757:761  uint */\n      0x00\n        /* \"contracts/ReturnMultipleValue.sol\":762:766  bool */\n      dup1\n        /* \"contracts/ReturnMultipleValue.sol\":767:771  uint */\n      0x00\n        /* \"contracts/ReturnMultipleValue.sol\":772:776  uint */\n      dup1\n        /* \"contracts/ReturnMultipleValue.sol\":777:781  uint */\n      0x00\n        /* \"contracts/ReturnMultipleValue.sol\":800:806  uint x */\n      dup1\n        /* \"contracts/ReturnMultipleValue.sol\":807:813  bool y */\n      0x00\n        /* \"contracts/ReturnMultipleValue.sol\":814:820  uint z */\n      dup1\n        /* \"contracts/ReturnMultipleValue.sol\":822:835  returnThree() */\n      tag_32\n        /* \"contracts/ReturnMultipleValue.sol\":822:833  returnThree */\n      tag_21\n        /* \"contracts/ReturnMultipleValue.sol\":822:835  returnThree() */\n      jump\t// in\n    tag_32:\n        /* \"contracts/ReturnMultipleValue.sol\":799:835  (uint x,bool y,uint z)=returnThree() */\n      swap3\n      pop\n      swap3\n      pop\n      swap3\n      pop\n        /* \"contracts/ReturnMultipleValue.sol\":850:853  300 */\n      0x012c\n        /* \"contracts/ReturnMultipleValue.sol\":848:849  x */\n      dup4\n        /* \"contracts/ReturnMultipleValue.sol\":848:853  x+300 */\n      tag_33\n      swap2\n      swap1\n      tag_34\n      jump\t// in\n    tag_33:\n        /* \"contracts/ReturnMultipleValue.sol\":846:853  x=x+300 */\n      swap3\n      pop\n        /* \"contracts/ReturnMultipleValue.sol\":865:871  uint a */\n      0x00\n        /* \"contracts/ReturnMultipleValue.sol\":873:879  uint b */\n      dup1\n        /* \"contracts/ReturnMultipleValue.sol\":882:884  10 */\n      0x0a\n        /* \"contracts/ReturnMultipleValue.sol\":885:887  20 */\n      0x14\n        /* \"contracts/ReturnMultipleValue.sol\":888:890  30 */\n      0x1e\n        /* \"contracts/ReturnMultipleValue.sol\":864:891  (uint a,,uint b)=(10,20,30) */\n      swap3\n      pop\n      pop\n      swap2\n      pop\n        /* \"contracts/ReturnMultipleValue.sol\":910:911  x */\n      dup5\n        /* \"contracts/ReturnMultipleValue.sol\":912:913  y */\n      dup5\n        /* \"contracts/ReturnMultipleValue.sol\":914:915  z */\n      dup5\n        /* \"contracts/ReturnMultipleValue.sol\":916:917  a */\n      dup5\n        /* \"contracts/ReturnMultipleValue.sol\":918:919  b */\n      dup5\n        /* \"contracts/ReturnMultipleValue.sol\":902:920  return (x,y,z,a,b) */\n      swap10\n      pop\n      swap10\n      pop\n      swap10\n      pop\n      swap10\n      pop\n      swap10\n      pop\n      pop\n      pop\n      pop\n      pop\n      pop\n        /* \"contracts/ReturnMultipleValue.sol\":713:928  function destructuing() public pure returns(uint,bool,uint,uint,uint)\r... */\n      swap1\n      swap2\n      swap3\n      swap4\n      swap5\n      jump\t// out\n        /* \"contracts/ReturnMultipleValue.sol\":329:438  function returnNamed() public pure returns(uint x, bool y, int z)\r... */\n    tag_14:\n        /* \"contracts/ReturnMultipleValue.sol\":372:378  uint x */\n      0x00\n        /* \"contracts/ReturnMultipleValue.sol\":380:386  bool y */\n      dup1\n        /* \"contracts/ReturnMultipleValue.sol\":388:393  int z */\n      0x00\n        /* \"contracts/ReturnMultipleValue.sol\":418:420  10 */\n      0x0a\n        /* \"contracts/ReturnMultipleValue.sol\":421:425  true */\n      0x01\n        /* \"contracts/ReturnMultipleValue.sol\":426:429  -12 */\n      0xfffffffffffffffffffffffffffffffffffffffffffffffffffffffffffffff4\n        /* \"contracts/ReturnMultipleValue.sol\":411:430  return(10,true,-12) */\n      swap3\n      pop\n      swap3\n      pop\n      swap3\n      pop\n        /* \"contracts/ReturnMultipleValue.sol\":329:438  function returnNamed() public pure returns(uint x, bool y, int z)\r... */\n      swap1\n      swap2\n      swap3\n      jump\t// out\n        /* \"contracts/ReturnMultipleValue.sol\":604:707  function DeafultValue()public pure returns(uint x,bool y, int z)\r... */\n    tag_18:\n        /* \"contracts/ReturnMultipleValue.sol\":647:653  uint x */\n      0x00\n        /* \"contracts/ReturnMultipleValue.sol\":654:660  bool y */\n      dup1\n        /* \"contracts/ReturnMultipleValue.sol\":662:667  int z */\n      0x00\n        /* \"contracts/ReturnMultipleValue.sol\":604:707  function DeafultValue()public pure returns(uint x,bool y, int z)\r... */\n      swap1\n      swap2\n      swap3\n      jump\t// out\n        /* \"contracts/ReturnMultipleValue.sol\":91:193  function returnThree() public pure returns(uint,bool,uint)\r... */\n    tag_21:\n        /* \"contracts/ReturnMultipleValue.sol\":134:138  uint */\n      0x00\n        /* \"contracts/ReturnMultipleValue.sol\":139:143  bool */\n      dup1\n        /* \"contracts/ReturnMultipleValue.sol\":144:148  uint */\n      0x00\n        /* \"contracts/ReturnMultipleValue.sol\":174:175  5 */\n      0x05\n        /* \"contracts/ReturnMultipleValue.sol\":176:180  true */\n      0x01\n        /* \"contracts/ReturnMultipleValue.sol\":181:184  100 */\n      0x64\n        /* \"contracts/ReturnMultipleValue.sol\":166:185  return (5,true,100) */\n      swap3\n      pop\n      swap3\n      pop\n      swap3\n      pop\n        /* \"contracts/ReturnMultipleValue.sol\":91:193  function returnThree() public pure returns(uint,bool,uint)\r... */\n      swap1\n      swap2\n      swap3\n      jump\t// out\n        /* \"contracts/ReturnMultipleValue.sol\":199:323  function returnMultiple() public pure returns(uint,bool,uint,uint,bool)\r... */\n    tag_25:\n        /* \"contracts/ReturnMultipleValue.sol\":245:249  uint */\n      0x00\n        /* \"contracts/ReturnMultipleValue.sol\":250:254  bool */\n      dup1\n        /* \"contracts/ReturnMultipleValue.sol\":255:259  uint */\n      0x00\n        /* \"contracts/ReturnMultipleValue.sol\":260:264  uint */\n      dup1\n        /* \"contracts/ReturnMultipleValue.sol\":265:269  bool */\n      0x00\n        /* \"contracts/ReturnMultipleValue.sol\":295:296  5 */\n      0x05\n        /* \"contracts/ReturnMultipleValue.sol\":297:301  true */\n      0x01\n        /* \"contracts/ReturnMultipleValue.sol\":302:305  100 */\n      0x64\n        /* \"contracts/ReturnMultipleValue.sol\":306:308  12 */\n      0x0c\n        /* \"contracts/ReturnMultipleValue.sol\":309:314  false */\n      0x00\n        /* \"contracts/ReturnMultipleValue.sol\":287:315  return (5,true,100,12,false) */\n      swap5\n      pop\n      swap5\n      pop\n      swap5\n      pop\n      swap5\n      pop\n      swap5\n      pop\n        /* \"contracts/ReturnMultipleValue.sol\":199:323  function returnMultiple() public pure returns(uint,bool,uint,uint,bool)\r... */\n      swap1\n      swap2\n      swap3\n      swap4\n      swap5\n      jump\t// out\n        /* \"contracts/ReturnMultipleValue.sol\":444:598  function AssignValues() public pure returns(uint x, bool y, int z)\r... */\n    tag_29:\n        /* \"contracts/ReturnMultipleValue.sol\":488:494  uint x */\n      0x00\n        /* \"contracts/ReturnMultipleValue.sol\":496:502  bool y */\n      dup1\n        /* \"contracts/ReturnMultipleValue.sol\":504:509  int z */\n      0x00\n        /* \"contracts/ReturnMultipleValue.sol\":529:531  30 */\n      0x1e\n        /* \"contracts/ReturnMultipleValue.sol\":527:531  x=30 */\n      swap3\n      pop\n        /* \"contracts/ReturnMultipleValue.sol\":544:549  false */\n      0x00\n        /* \"contracts/ReturnMultipleValue.sol\":542:549  y=false */\n      swap2\n      pop\n        /* \"contracts/ReturnMultipleValue.sol\":562:565  -20 */\n      0xffffffffffffffffffffffffffffffffffffffffffffffffffffffffffffffec\n        /* \"contracts/ReturnMultipleValue.sol\":560:565  z=-20 */\n      swap1\n      pop\n        /* \"contracts/ReturnMultipleValue.sol\":444:598  function AssignValues() public pure returns(uint x, bool y, int z)\r... */\n      swap1\n      swap2\n      swap3\n      jump\t// out\n        /* \"#utility.yul\":7:116   */\n    tag_41:\n        /* \"#utility.yul\":88:109   */\n      tag_43\n        /* \"#utility.yul\":103:108   */\n      dup2\n        /* \"#utility.yul\":88:109   */\n      tag_44\n      jump\t// in\n    tag_43:\n        /* \"#utility.yul\":83:86   */\n      dup3\n        /* \"#utility.yul\":76:110   */\n      mstore\n        /* \"#utility.yul\":7:116   */\n      pop\n      pop\n      jump\t// out\n        /* \"#utility.yul\":122:237   */\n    tag_45:\n        /* \"#utility.yul\":207:230   */\n      tag_47\n        /* \"#utility.yul\":224:229   */\n      dup2\n        /* \"#utility.yul\":207:230   */\n      tag_48\n      jump\t// in\n    tag_47:\n        /* \"#utility.yul\":202:205   */\n      dup3\n        /* \"#utility.yul\":195:231   */\n      mstore\n        /* \"#utility.yul\":122:237   */\n      pop\n      pop\n      jump\t// out\n        /* \"#utility.yul\":243:361   */\n    tag_49:\n        /* \"#utility.yul\":330:354   */\n      tag_51\n        /* \"#utility.yul\":348:353   */\n      dup2\n        /* \"#utility.yul\":330:354   */\n      tag_52\n      jump\t// in\n    tag_51:\n        /* \"#utility.yul\":325:328   */\n      dup3\n        /* \"#utility.yul\":318:355   */\n      mstore\n        /* \"#utility.yul\":243:361   */\n      pop\n      pop\n      jump\t// out\n        /* \"#utility.yul\":367:793   */\n    tag_16:\n        /* \"#utility.yul\":508:512   */\n      0x00\n        /* \"#utility.yul\":546:548   */\n      0x60\n        /* \"#utility.yul\":535:544   */\n      dup3\n        /* \"#utility.yul\":531:549   */\n      add\n        /* \"#utility.yul\":523:549   */\n      swap1\n      pop\n        /* \"#utility.yul\":559:630   */\n      tag_54\n        /* \"#utility.yul\":627:628   */\n      0x00\n        /* \"#utility.yul\":616:625   */\n      dup4\n        /* \"#utility.yul\":612:629   */\n      add\n        /* \"#utility.yul\":603:609   */\n      dup7\n        /* \"#utility.yul\":559:630   */\n      tag_49\n      jump\t// in\n    tag_54:\n        /* \"#utility.yul\":640:706   */\n      tag_55\n        /* \"#utility.yul\":702:704   */\n      0x20\n        /* \"#utility.yul\":691:700   */\n      dup4\n        /* \"#utility.yul\":687:705   */\n      add\n        /* \"#utility.yul\":678:684   */\n      dup6\n        /* \"#utility.yul\":640:706   */\n      tag_41\n      jump\t// in\n    tag_55:\n        /* \"#utility.yul\":716:786   */\n      tag_56\n        /* \"#utility.yul\":782:784   */\n      0x40\n        /* \"#utility.yul\":771:780   */\n      dup4\n        /* \"#utility.yul\":767:785   */\n      add\n        /* \"#utility.yul\":758:764   */\n      dup5\n        /* \"#utility.yul\":716:786   */\n      tag_45\n      jump\t// in\n    tag_56:\n        /* \"#utility.yul\":367:793   */\n      swap5\n      swap4\n      pop\n      pop\n      pop\n      pop\n      jump\t// out\n        /* \"#utility.yul\":799:1229   */\n    tag_23:\n        /* \"#utility.yul\":942:946   */\n      0x00\n        /* \"#utility.yul\":980:982   */\n      0x60\n        /* \"#utility.yul\":969:978   */\n      dup3\n        /* \"#utility.yul\":965:983   */\n      add\n        /* \"#utility.yul\":957:983   */\n      swap1\n      pop\n        /* \"#utility.yul\":993:1064   */\n      tag_58\n        /* \"#utility.yul\":1061:1062   */\n      0x00\n        /* \"#utility.yul\":1050:1059   */\n      dup4\n        /* \"#utility.yul\":1046:1063   */\n      add\n        /* \"#utility.yul\":1037:1043   */\n      dup7\n        /* \"#utility.yul\":993:1064   */\n      tag_49\n      jump\t// in\n    tag_58:\n        /* \"#utility.yul\":1074:1140   */\n      tag_59\n        /* \"#utility.yul\":1136:1138   */\n      0x20\n        /* \"#utility.yul\":1125:1134   */\n      dup4\n        /* \"#utility.yul\":1121:1139   */\n      add\n        /* \"#utility.yul\":1112:1118   */\n      dup6\n        /* \"#utility.yul\":1074:1140   */\n      tag_41\n      jump\t// in\n    tag_59:\n        /* \"#utility.yul\":1150:1222   */\n      tag_60\n        /* \"#utility.yul\":1218:1220   */\n      0x40\n        /* \"#utility.yul\":1207:1216   */\n      dup4\n        /* \"#utility.yul\":1203:1221   */\n      add\n        /* \"#utility.yul\":1194:1200   */\n      dup5\n        /* \"#utility.yul\":1150:1222   */\n      tag_49\n      jump\t// in\n    tag_60:\n        /* \"#utility.yul\":799:1229   */\n      swap5\n      swap4\n      pop\n      pop\n      pop\n      pop\n      jump\t// out\n        /* \"#utility.yul\":1235:1875   */\n    tag_27:\n        /* \"#utility.yul\":1428:1432   */\n      0x00\n        /* \"#utility.yul\":1466:1469   */\n      0xa0\n        /* \"#utility.yul\":1455:1464   */\n      dup3\n        /* \"#utility.yul\":1451:1470   */\n      add\n        /* \"#utility.yul\":1443:1470   */\n      swap1\n      pop\n        /* \"#utility.yul\":1480:1551   */\n      tag_62\n        /* \"#utility.yul\":1548:1549   */\n      0x00\n        /* \"#utility.yul\":1537:1546   */\n      dup4\n        /* \"#utility.yul\":1533:1550   */\n      add\n        /* \"#utility.yul\":1524:1530   */\n      dup9\n        /* \"#utility.yul\":1480:1551   */\n      tag_49\n      jump\t// in\n    tag_62:\n        /* \"#utility.yul\":1561:1627   */\n      tag_63\n        /* \"#utility.yul\":1623:1625   */\n      0x20\n        /* \"#utility.yul\":1612:1621   */\n      dup4\n        /* \"#utility.yul\":1608:1626   */\n      add\n        /* \"#utility.yul\":1599:1605   */\n      dup8\n        /* \"#utility.yul\":1561:1627   */\n      tag_41\n      jump\t// in\n    tag_63:\n        /* \"#utility.yul\":1637:1709   */\n      tag_64\n        /* \"#utility.yul\":1705:1707   */\n      0x40\n        /* \"#utility.yul\":1694:1703   */\n      dup4\n        /* \"#utility.yul\":1690:1708   */\n      add\n        /* \"#utility.yul\":1681:1687   */\n      dup7\n        /* \"#utility.yul\":1637:1709   */\n      tag_49\n      jump\t// in\n    tag_64:\n        /* \"#utility.yul\":1719:1791   */\n      tag_65\n        /* \"#utility.yul\":1787:1789   */\n      0x60\n        /* \"#utility.yul\":1776:1785   */\n      dup4\n        /* \"#utility.yul\":1772:1790   */\n      add\n        /* \"#utility.yul\":1763:1769   */\n      dup6\n        /* \"#utility.yul\":1719:1791   */\n      tag_49\n      jump\t// in\n    tag_65:\n        /* \"#utility.yul\":1801:1868   */\n      tag_66\n        /* \"#utility.yul\":1863:1866   */\n      0x80\n        /* \"#utility.yul\":1852:1861   */\n      dup4\n        /* \"#utility.yul\":1848:1867   */\n      add\n        /* \"#utility.yul\":1839:1845   */\n      dup5\n        /* \"#utility.yul\":1801:1868   */\n      tag_41\n      jump\t// in\n    tag_66:\n        /* \"#utility.yul\":1235:1875   */\n      swap7\n      swap6\n      pop\n      pop\n      pop\n      pop\n      pop\n      pop\n      jump\t// out\n        /* \"#utility.yul\":1881:2533   */\n    tag_12:\n        /* \"#utility.yul\":2080:2084   */\n      0x00\n        /* \"#utility.yul\":2118:2121   */\n      0xa0\n        /* \"#utility.yul\":2107:2116   */\n      dup3\n        /* \"#utility.yul\":2103:2122   */\n      add\n        /* \"#utility.yul\":2095:2122   */\n      swap1\n      pop\n        /* \"#utility.yul\":2132:2203   */\n      tag_68\n        /* \"#utility.yul\":2200:2201   */\n      0x00\n        /* \"#utility.yul\":2189:2198   */\n      dup4\n        /* \"#utility.yul\":2185:2202   */\n      add\n        /* \"#utility.yul\":2176:2182   */\n      dup9\n        /* \"#utility.yul\":2132:2203   */\n      tag_49\n      jump\t// in\n    tag_68:\n        /* \"#utility.yul\":2213:2279   */\n      tag_69\n        /* \"#utility.yul\":2275:2277   */\n      0x20\n        /* \"#utility.yul\":2264:2273   */\n      dup4\n        /* \"#utility.yul\":2260:2278   */\n      add\n        /* \"#utility.yul\":2251:2257   */\n      dup8\n        /* \"#utility.yul\":2213:2279   */\n      tag_41\n      jump\t// in\n    tag_69:\n        /* \"#utility.yul\":2289:2361   */\n      tag_70\n        /* \"#utility.yul\":2357:2359   */\n      0x40\n        /* \"#utility.yul\":2346:2355   */\n      dup4\n        /* \"#utility.yul\":2342:2360   */\n      add\n        /* \"#utility.yul\":2333:2339   */\n      dup7\n        /* \"#utility.yul\":2289:2361   */\n      tag_49\n      jump\t// in\n    tag_70:\n        /* \"#utility.yul\":2371:2443   */\n      tag_71\n        /* \"#utility.yul\":2439:2441   */\n      0x60\n        /* \"#utility.yul\":2428:2437   */\n      dup4\n        /* \"#utility.yul\":2424:2442   */\n      add\n        /* \"#utility.yul\":2415:2421   */\n      dup6\n        /* \"#utility.yul\":2371:2443   */\n      tag_49\n      jump\t// in\n    tag_71:\n        /* \"#utility.yul\":2453:2526   */\n      tag_72\n        /* \"#utility.yul\":2521:2524   */\n      0x80\n        /* \"#utility.yul\":2510:2519   */\n      dup4\n        /* \"#utility.yul\":2506:2525   */\n      add\n        /* \"#utility.yul\":2497:2503   */\n      dup5\n        /* \"#utility.yul\":2453:2526   */\n      tag_49\n      jump\t// in\n    tag_72:\n        /* \"#utility.yul\":1881:2533   */\n      swap7\n      swap6\n      pop\n      pop\n      pop\n      pop\n      pop\n      pop\n      jump\t// out\n        /* \"#utility.yul\":2539:2844   */\n    tag_34:\n        /* \"#utility.yul\":2579:2582   */\n      0x00\n        /* \"#utility.yul\":2598:2618   */\n      tag_74\n        /* \"#utility.yul\":2616:2617   */\n      dup3\n        /* \"#utility.yul\":2598:2618   */\n      tag_52\n      jump\t// in\n    tag_74:\n        /* \"#utility.yul\":2593:2618   */\n      swap2\n      pop\n        /* \"#utility.yul\":2632:2652   */\n      tag_75\n        /* \"#utility.yul\":2650:2651   */\n      dup4\n        /* \"#utility.yul\":2632:2652   */\n      tag_52\n      jump\t// in\n    tag_75:\n        /* \"#utility.yul\":2627:2652   */\n      swap3\n      pop\n        /* \"#utility.yul\":2786:2787   */\n      dup3\n        /* \"#utility.yul\":2718:2784   */\n      0xffffffffffffffffffffffffffffffffffffffffffffffffffffffffffffffff\n        /* \"#utility.yul\":2714:2788   */\n      sub\n        /* \"#utility.yul\":2711:2712   */\n      dup3\n        /* \"#utility.yul\":2708:2789   */\n      gt\n        /* \"#utility.yul\":2705:2812   */\n      iszero\n      tag_76\n      jumpi\n        /* \"#utility.yul\":2792:2810   */\n      tag_77\n      tag_78\n      jump\t// in\n    tag_77:\n        /* \"#utility.yul\":2705:2812   */\n    tag_76:\n        /* \"#utility.yul\":2836:2837   */\n      dup3\n        /* \"#utility.yul\":2833:2834   */\n      dup3\n        /* \"#utility.yul\":2829:2838   */\n      add\n        /* \"#utility.yul\":2822:2838   */\n      swap1\n      pop\n        /* \"#utility.yul\":2539:2844   */\n      swap3\n      swap2\n      pop\n      pop\n      jump\t// out\n        /* \"#utility.yul\":2850:2940   */\n    tag_44:\n        /* \"#utility.yul\":2884:2891   */\n      0x00\n        /* \"#utility.yul\":2927:2932   */\n      dup2\n        /* \"#utility.yul\":2920:2933   */\n      iszero\n        /* \"#utility.yul\":2913:2934   */\n      iszero\n        /* \"#utility.yul\":2902:2934   */\n      swap1\n      pop\n        /* \"#utility.yul\":2850:2940   */\n      swap2\n      swap1\n      pop\n      jump\t// out\n        /* \"#utility.yul\":2946:3022   */\n    tag_48:\n        /* \"#utility.yul\":2982:2989   */\n      0x00\n        /* \"#utility.yul\":3011:3016   */\n      dup2\n        /* \"#utility.yul\":3000:3016   */\n      swap1\n      pop\n        /* \"#utility.yul\":2946:3022   */\n      swap2\n      swap1\n      pop\n      jump\t// out\n        /* \"#utility.yul\":3028:3105   */\n    tag_52:\n        /* \"#utility.yul\":3065:3072   */\n      0x00\n        /* \"#utility.yul\":3094:3099   */\n      dup2\n        /* \"#utility.yul\":3083:3099   */\n      swap1\n      pop\n        /* \"#utility.yul\":3028:3105   */\n      swap2\n      swap1\n      pop\n      jump\t// out\n        /* \"#utility.yul\":3111:3291   */\n    tag_78:\n        /* \"#utility.yul\":3159:3236   */\n      0x4e487b7100000000000000000000000000000000000000000000000000000000\n        /* \"#utility.yul\":3156:3157   */\n      0x00\n        /* \"#utility.yul\":3149:3237   */\n      mstore\n        /* \"#utility.yul\":3256:3260   */\n      0x11\n        /* \"#utility.yul\":3253:3254   */\n      0x04\n        /* \"#utility.yul\":3246:3261   */\n      mstore\n        /* \"#utility.yul\":3280:3284   */\n      0x24\n        /* \"#utility.yul\":3277:3278   */\n      0x00\n        /* \"#utility.yul\":3270:3285   */\n      revert\n\n    auxdata: 0xa264697066735822122064ebd1e3a8946dbd6ffbd670e56d20a617b38b172d7e43c8b0b1513c3ff761c764736f6c63430008070033\n}\n",
				"bytecode": {
					"linkReferences": {},
					"object": "608060405234801561001057600080fd5b50610447806100206000396000f3fe608060405234801561001057600080fd5b50600436106100625760003560e01c806325f776ca146100675780633dece511146100895780633fb4df5c146100a9578063c187ab41146100c9578063e61e4008146100e9578063eb0faae81461010b575b600080fd5b61006f61012b565b604051610080959493929190610319565b60405180910390f35b61009161017e565b6040516100a093929190610258565b60405180910390f35b6100b16101b3565b6040516100c093929190610258565b60405180910390f35b6100d16101bd565b6040516100e09392919061028f565b60405180910390f35b6100f16101d3565b6040516101029594939291906102c6565b60405180910390f35b6101136101f6565b60405161012293929190610258565b60405180910390f35b60008060008060008060008061013f6101bd565b92509250925061012c83610153919061036c565b9250600080600a6014601e925050915084848484849950995099509950995050505050509091929394565b6000806000600a60017ffffffffffffffffffffffffffffffffffffffffffffffffffffffffffffffff4925092509250909192565b6000806000909192565b6000806000600560016064925092509250909192565b6000806000806000600560016064600c6000945094509450945094509091929394565b6000806000601e9250600091507fffffffffffffffffffffffffffffffffffffffffffffffffffffffffffffffec9050909192565b610234816103c2565b82525050565b610243816103ce565b82525050565b610252816103d8565b82525050565b600060608201905061026d6000830186610249565b61027a602083018561022b565b610287604083018461023a565b949350505050565b60006060820190506102a46000830186610249565b6102b1602083018561022b565b6102be6040830184610249565b949350505050565b600060a0820190506102db6000830188610249565b6102e8602083018761022b565b6102f56040830186610249565b6103026060830185610249565b61030f608083018461022b565b9695505050505050565b600060a08201905061032e6000830188610249565b61033b602083018761022b565b6103486040830186610249565b6103556060830185610249565b6103626080830184610249565b9695505050505050565b6000610377826103d8565b9150610382836103d8565b9250827fffffffffffffffffffffffffffffffffffffffffffffffffffffffffffffffff038211156103b7576103b66103e2565b5b828201905092915050565b60008115159050919050565b6000819050919050565b6000819050919050565b7f4e487b7100000000000000000000000000000000000000000000000000000000600052601160045260246000fdfea264697066735822122064ebd1e3a8946dbd6ffbd670e56d20a617b38b172d7e43c8b0b1513c3ff761c764736f6c63430008070033",
					"opcodes": "PUSH1 0x80 PUSH1 0x40 MSTORE CALLVALUE DUP1 ISZERO PUSH2 0x10 JUMPI PUSH1 0x0 DUP1 REVERT JUMPDEST POP PUSH2 0x447 DUP1 PUSH2 0x20 PUSH1 0x0 CODECOPY PUSH1 0x0 RETURN INVALID PUSH1 0x80 PUSH1 0x40 MSTORE CALLVALUE DUP1 ISZERO PUSH2 0x10 JUMPI PUSH1 0x0 DUP1 REVERT JUMPDEST POP PUSH1 0x4 CALLDATASIZE LT PUSH2 0x62 JUMPI PUSH1 0x0 CALLDATALOAD PUSH1 0xE0 SHR DUP1 PUSH4 0x25F776CA EQ PUSH2 0x67 JUMPI DUP1 PUSH4 0x3DECE511 EQ PUSH2 0x89 JUMPI DUP1 PUSH4 0x3FB4DF5C EQ PUSH2 0xA9 JUMPI DUP1 PUSH4 0xC187AB41 EQ PUSH2 0xC9 JUMPI DUP1 PUSH4 0xE61E4008 EQ PUSH2 0xE9 JUMPI DUP1 PUSH4 0xEB0FAAE8 EQ PUSH2 0x10B JUMPI JUMPDEST PUSH1 0x0 DUP1 REVERT JUMPDEST PUSH2 0x6F PUSH2 0x12B JUMP JUMPDEST PUSH1 0x40 MLOAD PUSH2 0x80 SWAP6 SWAP5 SWAP4 SWAP3 SWAP2 SWAP1 PUSH2 0x319 JUMP JUMPDEST PUSH1 0x40 MLOAD DUP1 SWAP2 SUB SWAP1 RETURN JUMPDEST PUSH2 0x91 PUSH2 0x17E JUMP JUMPDEST PUSH1 0x40 MLOAD PUSH2 0xA0 SWAP4 SWAP3 SWAP2 SWAP1 PUSH2 0x258 JUMP JUMPDEST PUSH1 0x40 MLOAD DUP1 SWAP2 SUB SWAP1 RETURN JUMPDEST PUSH2 0xB1 PUSH2 0x1B3 JUMP JUMPDEST PUSH1 0x40 MLOAD PUSH2 0xC0 SWAP4 SWAP3 SWAP2 SWAP1 PUSH2 0x258 JUMP JUMPDEST PUSH1 0x40 MLOAD DUP1 SWAP2 SUB SWAP1 RETURN JUMPDEST PUSH2 0xD1 PUSH2 0x1BD JUMP JUMPDEST PUSH1 0x40 MLOAD PUSH2 0xE0 SWAP4 SWAP3 SWAP2 SWAP1 PUSH2 0x28F JUMP JUMPDEST PUSH1 0x40 MLOAD DUP1 SWAP2 SUB SWAP1 RETURN JUMPDEST PUSH2 0xF1 PUSH2 0x1D3 JUMP JUMPDEST PUSH1 0x40 MLOAD PUSH2 0x102 SWAP6 SWAP5 SWAP4 SWAP3 SWAP2 SWAP1 PUSH2 0x2C6 JUMP JUMPDEST PUSH1 0x40 MLOAD DUP1 SWAP2 SUB SWAP1 RETURN JUMPDEST PUSH2 0x113 PUSH2 0x1F6 JUMP JUMPDEST PUSH1 0x40 MLOAD PUSH2 0x122 SWAP4 SWAP3 SWAP2 SWAP1 PUSH2 0x258 JUMP JUMPDEST PUSH1 0x40 MLOAD DUP1 SWAP2 SUB SWAP1 RETURN JUMPDEST PUSH1 0x0 DUP1 PUSH1 0x0 DUP1 PUSH1 0x0 DUP1 PUSH1 0x0 DUP1 PUSH2 0x13F PUSH2 0x1BD JUMP JUMPDEST SWAP3 POP SWAP3 POP SWAP3 POP PUSH2 0x12C DUP4 PUSH2 0x153 SWAP2 SWAP1 PUSH2 0x36C JUMP JUMPDEST SWAP3 POP PUSH1 0x0 DUP1 PUSH1 0xA PUSH1 0x14 PUSH1 0x1E SWAP3 POP POP SWAP2 POP DUP5 DUP5 DUP5 DUP5 DUP5 SWAP10 POP SWAP10 POP SWAP10 POP SWAP10 POP SWAP10 POP POP POP POP POP POP SWAP1 SWAP2 SWAP3 SWAP4 SWAP5 JUMP JUMPDEST PUSH1 0x0 DUP1 PUSH1 0x0 PUSH1 0xA PUSH1 0x1 PUSH32 0xFFFFFFFFFFFFFFFFFFFFFFFFFFFFFFFFFFFFFFFFFFFFFFFFFFFFFFFFFFFFFFF4 SWAP3 POP SWAP3 POP SWAP3 POP SWAP1 SWAP2 SWAP3 JUMP JUMPDEST PUSH1 0x0 DUP1 PUSH1 0x0 SWAP1 SWAP2 SWAP3 JUMP JUMPDEST PUSH1 0x0 DUP1 PUSH1 0x0 PUSH1 0x5 PUSH1 0x1 PUSH1 0x64 SWAP3 POP SWAP3 POP SWAP3 POP SWAP1 SWAP2 SWAP3 JUMP JUMPDEST PUSH1 0x0 DUP1 PUSH1 0x0 DUP1 PUSH1 0x0 PUSH1 0x5 PUSH1 0x1 PUSH1 0x64 PUSH1 0xC PUSH1 0x0 SWAP5 POP SWAP5 POP SWAP5 POP SWAP5 POP SWAP5 POP SWAP1 SWAP2 SWAP3 SWAP4 SWAP5 JUMP JUMPDEST PUSH1 0x0 DUP1 PUSH1 0x0 PUSH1 0x1E SWAP3 POP PUSH1 0x0 SWAP2 POP PUSH32 0xFFFFFFFFFFFFFFFFFFFFFFFFFFFFFFFFFFFFFFFFFFFFFFFFFFFFFFFFFFFFFFEC SWAP1 POP SWAP1 SWAP2 SWAP3 JUMP JUMPDEST PUSH2 0x234 DUP2 PUSH2 0x3C2 JUMP JUMPDEST DUP3 MSTORE POP POP JUMP JUMPDEST PUSH2 0x243 DUP2 PUSH2 0x3CE JUMP JUMPDEST DUP3 MSTORE POP POP JUMP JUMPDEST PUSH2 0x252 DUP2 PUSH2 0x3D8 JUMP JUMPDEST DUP3 MSTORE POP POP JUMP JUMPDEST PUSH1 0x0 PUSH1 0x60 DUP3 ADD SWAP1 POP PUSH2 0x26D PUSH1 0x0 DUP4 ADD DUP7 PUSH2 0x249 JUMP JUMPDEST PUSH2 0x27A PUSH1 0x20 DUP4 ADD DUP6 PUSH2 0x22B JUMP JUMPDEST PUSH2 0x287 PUSH1 0x40 DUP4 ADD DUP5 PUSH2 0x23A JUMP JUMPDEST SWAP5 SWAP4 POP POP POP POP JUMP JUMPDEST PUSH1 0x0 PUSH1 0x60 DUP3 ADD SWAP1 POP PUSH2 0x2A4 PUSH1 0x0 DUP4 ADD DUP7 PUSH2 0x249 JUMP JUMPDEST PUSH2 0x2B1 PUSH1 0x20 DUP4 ADD DUP6 PUSH2 0x22B JUMP JUMPDEST PUSH2 0x2BE PUSH1 0x40 DUP4 ADD DUP5 PUSH2 0x249 JUMP JUMPDEST SWAP5 SWAP4 POP POP POP POP JUMP JUMPDEST PUSH1 0x0 PUSH1 0xA0 DUP3 ADD SWAP1 POP PUSH2 0x2DB PUSH1 0x0 DUP4 ADD DUP9 PUSH2 0x249 JUMP JUMPDEST PUSH2 0x2E8 PUSH1 0x20 DUP4 ADD DUP8 PUSH2 0x22B JUMP JUMPDEST PUSH2 0x2F5 PUSH1 0x40 DUP4 ADD DUP7 PUSH2 0x249 JUMP JUMPDEST PUSH2 0x302 PUSH1 0x60 DUP4 ADD DUP6 PUSH2 0x249 JUMP JUMPDEST PUSH2 0x30F PUSH1 0x80 DUP4 ADD DUP5 PUSH2 0x22B JUMP JUMPDEST SWAP7 SWAP6 POP POP POP POP POP POP JUMP JUMPDEST PUSH1 0x0 PUSH1 0xA0 DUP3 ADD SWAP1 POP PUSH2 0x32E PUSH1 0x0 DUP4 ADD DUP9 PUSH2 0x249 JUMP JUMPDEST PUSH2 0x33B PUSH1 0x20 DUP4 ADD DUP8 PUSH2 0x22B JUMP JUMPDEST PUSH2 0x348 PUSH1 0x40 DUP4 ADD DUP7 PUSH2 0x249 JUMP JUMPDEST PUSH2 0x355 PUSH1 0x60 DUP4 ADD DUP6 PUSH2 0x249 JUMP JUMPDEST PUSH2 0x362 PUSH1 0x80 DUP4 ADD DUP5 PUSH2 0x249 JUMP JUMPDEST SWAP7 SWAP6 POP POP POP POP POP POP JUMP JUMPDEST PUSH1 0x0 PUSH2 0x377 DUP3 PUSH2 0x3D8 JUMP JUMPDEST SWAP2 POP PUSH2 0x382 DUP4 PUSH2 0x3D8 JUMP JUMPDEST SWAP3 POP DUP3 PUSH32 0xFFFFFFFFFFFFFFFFFFFFFFFFFFFFFFFFFFFFFFFFFFFFFFFFFFFFFFFFFFFFFFFF SUB DUP3 GT ISZERO PUSH2 0x3B7 JUMPI PUSH2 0x3B6 PUSH2 0x3E2 JUMP JUMPDEST JUMPDEST DUP3 DUP3 ADD SWAP1 POP SWAP3 SWAP2 POP POP JUMP JUMPDEST PUSH1 0x0 DUP2 ISZERO ISZERO SWAP1 POP SWAP2 SWAP1 POP JUMP JUMPDEST PUSH1 0x0 DUP2 SWAP1 POP SWAP2 SWAP1 POP JUMP JUMPDEST PUSH1 0x0 DUP2 SWAP1 POP SWAP2 SWAP1 POP JUMP JUMPDEST PUSH32 0x4E487B7100000000000000000000000000000000000000000000000000000000 PUSH1 0x0 MSTORE PUSH1 0x11 PUSH1 0x4 MSTORE PUSH1 0x24 PUSH1 0x0 REVERT INVALID LOG2 PUSH5 0x6970667358 0x22 SLT KECCAK256 PUSH5 0xEBD1E3A894 PUSH14 0xBD6FFBD670E56D20A617B38B172D PUSH31 0x43C8B0B1513C3FF761C764736F6C6343000807003300000000000000000000 "
				},
				"gasEstimates": {
					"creation": {
						"codeDepositCost": "219000",
						"executionCost": "263",
						"totalCost": "219263"
					},
					"external": {
						"AssignValues()": "659",
						"DeafultValue()": "569",
						"destructuing()": "infinite",
						"returnMultiple()": "infinite",
						"returnNamed()": "571",
						"returnThree()": "infinite"
					}
				},
				"methodIdentifiers": {
					"AssignValues()": "eb0faae8",
					"DeafultValue()": "3fb4df5c",
					"destructuing()": "25f776ca",
					"returnMultiple()": "e61e4008",
					"returnNamed()": "3dece511",
					"returnThree()": "c187ab41"
				}
			},
			"storageLayout": {
				"storage": [],
				"types": null
			},
			"userdoc": {
				"kind": "user",
				"methods": {},
				"version": 1
			}
		}
	}
}