{
	"contracts/ReturnMultipleValue.sol": {
		"ThirdFunction": {
			"abi": [
				{
					"inputs": [],
					"name": "CallThirdFunctionwithkeyValue",
					"outputs": [
						{
							"internalType": "address",
							"name": "",
							"type": "address"
						},
						{
							"internalType": "bool",
							"name": "",
							"type": "bool"
						}
					],
					"stateMutability": "view",
					"type": "function"
				},
				{
					"inputs": [
						{
							"internalType": "address",
							"name": "a",
							"type": "address"
						},
						{
							"internalType": "bool",
							"name": "b",
							"type": "bool"
						}
					],
					"name": "ThirdValueFunction",
					"outputs": [
						{
							"internalType": "address",
							"name": "",
							"type": "address"
						},
						{
							"internalType": "bool",
							"name": "",
							"type": "bool"
						}
					],
					"stateMutability": "pure",
					"type": "function"
				},
				{
					"inputs": [],
					"name": "callThirdFunction",
					"outputs": [
						{
							"internalType": "address",
							"name": "",
							"type": "address"
						},
						{
							"internalType": "bool",
							"name": "",
							"type": "bool"
						}
					],
					"stateMutability": "view",
					"type": "function"
				}
			],
			"devdoc": {
				"kind": "dev",
				"methods": {},
				"version": 1
			},
			"evm": {
				"assembly": "    /* \"contracts/ReturnMultipleValue.sol\":1493:1936  contract ThirdFunction\r... */\n  mstore(0x40, 0x80)\n  callvalue\n  dup1\n  iszero\n  tag_1\n  jumpi\n  0x00\n  dup1\n  revert\ntag_1:\n  pop\n  dataSize(sub_0)\n  dup1\n  dataOffset(sub_0)\n  0x00\n  codecopy\n  0x00\n  return\nstop\n\nsub_0: assembly {\n        /* \"contracts/ReturnMultipleValue.sol\":1493:1936  contract ThirdFunction\r... */\n      mstore(0x40, 0x80)\n      callvalue\n      dup1\n      iszero\n      tag_1\n      jumpi\n      0x00\n      dup1\n      revert\n    tag_1:\n      pop\n      jumpi(tag_2, lt(calldatasize, 0x04))\n      shr(0xe0, calldataload(0x00))\n      dup1\n      0x0b96b2b6\n      eq\n      tag_3\n      jumpi\n      dup1\n      0x535af6b7\n      eq\n      tag_4\n      jumpi\n      dup1\n      0x551fd774\n      eq\n      tag_5\n      jumpi\n    tag_2:\n      0x00\n      dup1\n      revert\n        /* \"contracts/ReturnMultipleValue.sol\":1638:1769  function callThirdFunction() external view returns(address,bool)\r... */\n    tag_3:\n      tag_6\n      tag_7\n      jump\t// in\n    tag_6:\n      mload(0x40)\n      tag_8\n      swap3\n      swap2\n      swap1\n      tag_9\n      jump\t// in\n    tag_8:\n      mload(0x40)\n      dup1\n      swap2\n      sub\n      swap1\n      return\n        /* \"contracts/ReturnMultipleValue.sol\":1775:1933  function CallThirdFunctionwithkeyValue()external view returns(address,bool)\r... */\n    tag_4:\n      tag_10\n      tag_11\n      jump\t// in\n    tag_10:\n      mload(0x40)\n      tag_12\n      swap3\n      swap2\n      swap1\n      tag_9\n      jump\t// in\n    tag_12:\n      mload(0x40)\n      dup1\n      swap2\n      sub\n      swap1\n      return\n        /* \"contracts/ReturnMultipleValue.sol\":1524:1632  function ThirdValueFunction(address a,bool b)public pure returns(address,bool){\r... */\n    tag_5:\n      tag_13\n      0x04\n      dup1\n      calldatasize\n      sub\n      dup2\n      add\n      swap1\n      tag_14\n      swap2\n      swap1\n      tag_15\n      jump\t// in\n    tag_14:\n      tag_16\n      jump\t// in\n    tag_13:\n      mload(0x40)\n      tag_17\n      swap3\n      swap2\n      swap1\n      tag_9\n      jump\t// in\n    tag_17:\n      mload(0x40)\n      dup1\n      swap2\n      sub\n      swap1\n      return\n        /* \"contracts/ReturnMultipleValue.sol\":1638:1769  function callThirdFunction() external view returns(address,bool)\r... */\n    tag_7:\n        /* \"contracts/ReturnMultipleValue.sol\":1689:1696  address */\n      0x00\n        /* \"contracts/ReturnMultipleValue.sol\":1697:1701  bool */\n      dup1\n        /* \"contracts/ReturnMultipleValue.sol\":1726:1761  ThirdValueFunction(address(0),true) */\n      tag_19\n        /* \"contracts/ReturnMultipleValue.sol\":1753:1754  0 */\n      0x00\n        /* \"contracts/ReturnMultipleValue.sol\":1756:1760  true */\n      0x01\n        /* \"contracts/ReturnMultipleValue.sol\":1726:1744  ThirdValueFunction */\n      tag_16\n        /* \"contracts/ReturnMultipleValue.sol\":1726:1761  ThirdValueFunction(address(0),true) */\n      jump\t// in\n    tag_19:\n        /* \"contracts/ReturnMultipleValue.sol\":1719:1761  return ThirdValueFunction(address(0),true) */\n      swap2\n      pop\n      swap2\n      pop\n        /* \"contracts/ReturnMultipleValue.sol\":1638:1769  function callThirdFunction() external view returns(address,bool)\r... */\n      swap1\n      swap2\n      jump\t// out\n        /* \"contracts/ReturnMultipleValue.sol\":1775:1933  function CallThirdFunctionwithkeyValue()external view returns(address,bool)\r... */\n    tag_11:\n        /* \"contracts/ReturnMultipleValue.sol\":1837:1844  address */\n      0x00\n        /* \"contracts/ReturnMultipleValue.sol\":1845:1849  bool */\n      dup1\n        /* \"contracts/ReturnMultipleValue.sol\":1874:1915  ThirdValueFunction({a:address(0),b:true}) */\n      tag_21\n        /* \"contracts/ReturnMultipleValue.sol\":1904:1905  0 */\n      0x00\n        /* \"contracts/ReturnMultipleValue.sol\":1909:1913  true */\n      0x01\n        /* \"contracts/ReturnMultipleValue.sol\":1874:1892  ThirdValueFunction */\n      tag_16\n        /* \"contracts/ReturnMultipleValue.sol\":1874:1915  ThirdValueFunction({a:address(0),b:true}) */\n      jump\t// in\n    tag_21:\n        /* \"contracts/ReturnMultipleValue.sol\":1867:1915  return ThirdValueFunction({a:address(0),b:true}) */\n      swap2\n      pop\n      swap2\n      pop\n        /* \"contracts/ReturnMultipleValue.sol\":1775:1933  function CallThirdFunctionwithkeyValue()external view returns(address,bool)\r... */\n      swap1\n      swap2\n      jump\t// out\n        /* \"contracts/ReturnMultipleValue.sol\":1524:1632  function ThirdValueFunction(address a,bool b)public pure returns(address,bool){\r... */\n    tag_16:\n        /* \"contracts/ReturnMultipleValue.sol\":1589:1596  address */\n      0x00\n        /* \"contracts/ReturnMultipleValue.sol\":1597:1601  bool */\n      dup1\n        /* \"contracts/ReturnMultipleValue.sol\":1620:1621  a */\n      dup4\n        /* \"contracts/ReturnMultipleValue.sol\":1622:1623  b */\n      dup4\n        /* \"contracts/ReturnMultipleValue.sol\":1613:1624  return(a,b) */\n      swap2\n      pop\n      swap2\n      pop\n        /* \"contracts/ReturnMultipleValue.sol\":1524:1632  function ThirdValueFunction(address a,bool b)public pure returns(address,bool){\r... */\n      swap3\n      pop\n      swap3\n      swap1\n      pop\n      jump\t// out\n        /* \"#utility.yul\":7:146   */\n    tag_24:\n        /* \"#utility.yul\":53:58   */\n      0x00\n        /* \"#utility.yul\":91:97   */\n      dup2\n        /* \"#utility.yul\":78:98   */\n      calldataload\n        /* \"#utility.yul\":69:98   */\n      swap1\n      pop\n        /* \"#utility.yul\":107:140   */\n      tag_26\n        /* \"#utility.yul\":134:139   */\n      dup2\n        /* \"#utility.yul\":107:140   */\n      tag_27\n      jump\t// in\n    tag_26:\n        /* \"#utility.yul\":7:146   */\n      swap3\n      swap2\n      pop\n      pop\n      jump\t// out\n        /* \"#utility.yul\":152:285   */\n    tag_28:\n        /* \"#utility.yul\":195:200   */\n      0x00\n        /* \"#utility.yul\":233:239   */\n      dup2\n        /* \"#utility.yul\":220:240   */\n      calldataload\n        /* \"#utility.yul\":211:240   */\n      swap1\n      pop\n        /* \"#utility.yul\":249:279   */\n      tag_30\n        /* \"#utility.yul\":273:278   */\n      dup2\n        /* \"#utility.yul\":249:279   */\n      tag_31\n      jump\t// in\n    tag_30:\n        /* \"#utility.yul\":152:285   */\n      swap3\n      swap2\n      pop\n      pop\n      jump\t// out\n        /* \"#utility.yul\":291:759   */\n    tag_15:\n        /* \"#utility.yul\":356:362   */\n      0x00\n        /* \"#utility.yul\":364:370   */\n      dup1\n        /* \"#utility.yul\":413:415   */\n      0x40\n        /* \"#utility.yul\":401:410   */\n      dup4\n        /* \"#utility.yul\":392:399   */\n      dup6\n        /* \"#utility.yul\":388:411   */\n      sub\n        /* \"#utility.yul\":384:416   */\n      slt\n        /* \"#utility.yul\":381:500   */\n      iszero\n      tag_33\n      jumpi\n        /* \"#utility.yul\":419:498   */\n      tag_34\n      tag_35\n      jump\t// in\n    tag_34:\n        /* \"#utility.yul\":381:500   */\n    tag_33:\n        /* \"#utility.yul\":539:540   */\n      0x00\n        /* \"#utility.yul\":564:617   */\n      tag_36\n        /* \"#utility.yul\":609:616   */\n      dup6\n        /* \"#utility.yul\":600:606   */\n      dup3\n        /* \"#utility.yul\":589:598   */\n      dup7\n        /* \"#utility.yul\":585:607   */\n      add\n        /* \"#utility.yul\":564:617   */\n      tag_24\n      jump\t// in\n    tag_36:\n        /* \"#utility.yul\":554:617   */\n      swap3\n      pop\n        /* \"#utility.yul\":510:627   */\n      pop\n        /* \"#utility.yul\":666:668   */\n      0x20\n        /* \"#utility.yul\":692:742   */\n      tag_37\n        /* \"#utility.yul\":734:741   */\n      dup6\n        /* \"#utility.yul\":725:731   */\n      dup3\n        /* \"#utility.yul\":714:723   */\n      dup7\n        /* \"#utility.yul\":710:732   */\n      add\n        /* \"#utility.yul\":692:742   */\n      tag_28\n      jump\t// in\n    tag_37:\n        /* \"#utility.yul\":682:742   */\n      swap2\n      pop\n        /* \"#utility.yul\":637:752   */\n      pop\n        /* \"#utility.yul\":291:759   */\n      swap3\n      pop\n      swap3\n      swap1\n      pop\n      jump\t// out\n        /* \"#utility.yul\":765:883   */\n    tag_38:\n        /* \"#utility.yul\":852:876   */\n      tag_40\n        /* \"#utility.yul\":870:875   */\n      dup2\n        /* \"#utility.yul\":852:876   */\n      tag_41\n      jump\t// in\n    tag_40:\n        /* \"#utility.yul\":847:850   */\n      dup3\n        /* \"#utility.yul\":840:877   */\n      mstore\n        /* \"#utility.yul\":765:883   */\n      pop\n      pop\n      jump\t// out\n        /* \"#utility.yul\":889:998   */\n    tag_42:\n        /* \"#utility.yul\":970:991   */\n      tag_44\n        /* \"#utility.yul\":985:990   */\n      dup2\n        /* \"#utility.yul\":970:991   */\n      tag_45\n      jump\t// in\n    tag_44:\n        /* \"#utility.yul\":965:968   */\n      dup3\n        /* \"#utility.yul\":958:992   */\n      mstore\n        /* \"#utility.yul\":889:998   */\n      pop\n      pop\n      jump\t// out\n        /* \"#utility.yul\":1004:1324   */\n    tag_9:\n        /* \"#utility.yul\":1119:1123   */\n      0x00\n        /* \"#utility.yul\":1157:1159   */\n      0x40\n        /* \"#utility.yul\":1146:1155   */\n      dup3\n        /* \"#utility.yul\":1142:1160   */\n      add\n        /* \"#utility.yul\":1134:1160   */\n      swap1\n      pop\n        /* \"#utility.yul\":1170:1241   */\n      tag_47\n        /* \"#utility.yul\":1238:1239   */\n      0x00\n        /* \"#utility.yul\":1227:1236   */\n      dup4\n        /* \"#utility.yul\":1223:1240   */\n      add\n        /* \"#utility.yul\":1214:1220   */\n      dup6\n        /* \"#utility.yul\":1170:1241   */\n      tag_38\n      jump\t// in\n    tag_47:\n        /* \"#utility.yul\":1251:1317   */\n      tag_48\n        /* \"#utility.yul\":1313:1315   */\n      0x20\n        /* \"#utility.yul\":1302:1311   */\n      dup4\n        /* \"#utility.yul\":1298:1316   */\n      add\n        /* \"#utility.yul\":1289:1295   */\n      dup5\n        /* \"#utility.yul\":1251:1317   */\n      tag_42\n      jump\t// in\n    tag_48:\n        /* \"#utility.yul\":1004:1324   */\n      swap4\n      swap3\n      pop\n      pop\n      pop\n      jump\t// out\n        /* \"#utility.yul\":1411:1507   */\n    tag_41:\n        /* \"#utility.yul\":1448:1455   */\n      0x00\n        /* \"#utility.yul\":1477:1501   */\n      tag_52\n        /* \"#utility.yul\":1495:1500   */\n      dup3\n        /* \"#utility.yul\":1477:1501   */\n      tag_53\n      jump\t// in\n    tag_52:\n        /* \"#utility.yul\":1466:1501   */\n      swap1\n      pop\n        /* \"#utility.yul\":1411:1507   */\n      swap2\n      swap1\n      pop\n      jump\t// out\n        /* \"#utility.yul\":1513:1603   */\n    tag_45:\n        /* \"#utility.yul\":1547:1554   */\n      0x00\n        /* \"#utility.yul\":1590:1595   */\n      dup2\n        /* \"#utility.yul\":1583:1596   */\n      iszero\n        /* \"#utility.yul\":1576:1597   */\n      iszero\n        /* \"#utility.yul\":1565:1597   */\n      swap1\n      pop\n        /* \"#utility.yul\":1513:1603   */\n      swap2\n      swap1\n      pop\n      jump\t// out\n        /* \"#utility.yul\":1609:1735   */\n    tag_53:\n        /* \"#utility.yul\":1646:1653   */\n      0x00\n        /* \"#utility.yul\":1686:1728   */\n      0xffffffffffffffffffffffffffffffffffffffff\n        /* \"#utility.yul\":1679:1684   */\n      dup3\n        /* \"#utility.yul\":1675:1729   */\n      and\n        /* \"#utility.yul\":1664:1729   */\n      swap1\n      pop\n        /* \"#utility.yul\":1609:1735   */\n      swap2\n      swap1\n      pop\n      jump\t// out\n        /* \"#utility.yul\":1864:1981   */\n    tag_35:\n        /* \"#utility.yul\":1973:1974   */\n      0x00\n        /* \"#utility.yul\":1970:1971   */\n      dup1\n        /* \"#utility.yul\":1963:1975   */\n      revert\n        /* \"#utility.yul\":1987:2109   */\n    tag_27:\n        /* \"#utility.yul\":2060:2084   */\n      tag_60\n        /* \"#utility.yul\":2078:2083   */\n      dup2\n        /* \"#utility.yul\":2060:2084   */\n      tag_41\n      jump\t// in\n    tag_60:\n        /* \"#utility.yul\":2053:2058   */\n      dup2\n        /* \"#utility.yul\":2050:2085   */\n      eq\n        /* \"#utility.yul\":2040:2103   */\n      tag_61\n      jumpi\n        /* \"#utility.yul\":2099:2100   */\n      0x00\n        /* \"#utility.yul\":2096:2097   */\n      dup1\n        /* \"#utility.yul\":2089:2101   */\n      revert\n        /* \"#utility.yul\":2040:2103   */\n    tag_61:\n        /* \"#utility.yul\":1987:2109   */\n      pop\n      jump\t// out\n        /* \"#utility.yul\":2115:2231   */\n    tag_31:\n        /* \"#utility.yul\":2185:2206   */\n      tag_63\n        /* \"#utility.yul\":2200:2205   */\n      dup2\n        /* \"#utility.yul\":2185:2206   */\n      tag_45\n      jump\t// in\n    tag_63:\n        /* \"#utility.yul\":2178:2183   */\n      dup2\n        /* \"#utility.yul\":2175:2207   */\n      eq\n        /* \"#utility.yul\":2165:2225   */\n      tag_64\n      jumpi\n        /* \"#utility.yul\":2221:2222   */\n      0x00\n        /* \"#utility.yul\":2218:2219   */\n      dup1\n        /* \"#utility.yul\":2211:2223   */\n      revert\n        /* \"#utility.yul\":2165:2225   */\n    tag_64:\n        /* \"#utility.yul\":2115:2231   */\n      pop\n      jump\t// out\n\n    auxdata: 0xa2646970667358221220496a2381114fe1b0068229bc9b8658a63953d83a53c964e132a93ff63436634a64736f6c63430008070033\n}\n",
				"bytecode": {
					"linkReferences": {},
					"object": "608060405234801561001057600080fd5b5061024b806100206000396000f3fe608060405234801561001057600080fd5b50600436106100415760003560e01c80630b96b2b614610046578063535af6b714610065578063551fd77414610084575b600080fd5b61004e6100b5565b60405161005c92919061017b565b60405180910390f35b61006d6100cc565b60405161007b92919061017b565b60405180910390f35b61009e6004803603810190610099919061011d565b6100e3565b6040516100ac92919061017b565b60405180910390f35b6000806100c4600060016100e3565b915091509091565b6000806100db600060016100e3565b915091509091565b6000808383915091509250929050565b600081359050610102816101e7565b92915050565b600081359050610117816101fe565b92915050565b60008060408385031215610134576101336101e2565b5b6000610142858286016100f3565b925050602061015385828601610108565b9150509250929050565b610166816101a4565b82525050565b610175816101b6565b82525050565b6000604082019050610190600083018561015d565b61019d602083018461016c565b9392505050565b60006101af826101c2565b9050919050565b60008115159050919050565b600073ffffffffffffffffffffffffffffffffffffffff82169050919050565b600080fd5b6101f0816101a4565b81146101fb57600080fd5b50565b610207816101b6565b811461021257600080fd5b5056fea2646970667358221220496a2381114fe1b0068229bc9b8658a63953d83a53c964e132a93ff63436634a64736f6c63430008070033",
					"opcodes": "PUSH1 0x80 PUSH1 0x40 MSTORE CALLVALUE DUP1 ISZERO PUSH2 0x10 JUMPI PUSH1 0x0 DUP1 REVERT JUMPDEST POP PUSH2 0x24B DUP1 PUSH2 0x20 PUSH1 0x0 CODECOPY PUSH1 0x0 RETURN INVALID PUSH1 0x80 PUSH1 0x40 MSTORE CALLVALUE DUP1 ISZERO PUSH2 0x10 JUMPI PUSH1 0x0 DUP1 REVERT JUMPDEST POP PUSH1 0x4 CALLDATASIZE LT PUSH2 0x41 JUMPI PUSH1 0x0 CALLDATALOAD PUSH1 0xE0 SHR DUP1 PUSH4 0xB96B2B6 EQ PUSH2 0x46 JUMPI DUP1 PUSH4 0x535AF6B7 EQ PUSH2 0x65 JUMPI DUP1 PUSH4 0x551FD774 EQ PUSH2 0x84 JUMPI JUMPDEST PUSH1 0x0 DUP1 REVERT JUMPDEST PUSH2 0x4E PUSH2 0xB5 JUMP JUMPDEST PUSH1 0x40 MLOAD PUSH2 0x5C SWAP3 SWAP2 SWAP1 PUSH2 0x17B JUMP JUMPDEST PUSH1 0x40 MLOAD DUP1 SWAP2 SUB SWAP1 RETURN JUMPDEST PUSH2 0x6D PUSH2 0xCC JUMP JUMPDEST PUSH1 0x40 MLOAD PUSH2 0x7B SWAP3 SWAP2 SWAP1 PUSH2 0x17B JUMP JUMPDEST PUSH1 0x40 MLOAD DUP1 SWAP2 SUB SWAP1 RETURN JUMPDEST PUSH2 0x9E PUSH1 0x4 DUP1 CALLDATASIZE SUB DUP2 ADD SWAP1 PUSH2 0x99 SWAP2 SWAP1 PUSH2 0x11D JUMP JUMPDEST PUSH2 0xE3 JUMP JUMPDEST PUSH1 0x40 MLOAD PUSH2 0xAC SWAP3 SWAP2 SWAP1 PUSH2 0x17B JUMP JUMPDEST PUSH1 0x40 MLOAD DUP1 SWAP2 SUB SWAP1 RETURN JUMPDEST PUSH1 0x0 DUP1 PUSH2 0xC4 PUSH1 0x0 PUSH1 0x1 PUSH2 0xE3 JUMP JUMPDEST SWAP2 POP SWAP2 POP SWAP1 SWAP2 JUMP JUMPDEST PUSH1 0x0 DUP1 PUSH2 0xDB PUSH1 0x0 PUSH1 0x1 PUSH2 0xE3 JUMP JUMPDEST SWAP2 POP SWAP2 POP SWAP1 SWAP2 JUMP JUMPDEST PUSH1 0x0 DUP1 DUP4 DUP4 SWAP2 POP SWAP2 POP SWAP3 POP SWAP3 SWAP1 POP JUMP JUMPDEST PUSH1 0x0 DUP2 CALLDATALOAD SWAP1 POP PUSH2 0x102 DUP2 PUSH2 0x1E7 JUMP JUMPDEST SWAP3 SWAP2 POP POP JUMP JUMPDEST PUSH1 0x0 DUP2 CALLDATALOAD SWAP1 POP PUSH2 0x117 DUP2 PUSH2 0x1FE JUMP JUMPDEST SWAP3 SWAP2 POP POP JUMP JUMPDEST PUSH1 0x0 DUP1 PUSH1 0x40 DUP4 DUP6 SUB SLT ISZERO PUSH2 0x134 JUMPI PUSH2 0x133 PUSH2 0x1E2 JUMP JUMPDEST JUMPDEST PUSH1 0x0 PUSH2 0x142 DUP6 DUP3 DUP7 ADD PUSH2 0xF3 JUMP JUMPDEST SWAP3 POP POP PUSH1 0x20 PUSH2 0x153 DUP6 DUP3 DUP7 ADD PUSH2 0x108 JUMP JUMPDEST SWAP2 POP POP SWAP3 POP SWAP3 SWAP1 POP JUMP JUMPDEST PUSH2 0x166 DUP2 PUSH2 0x1A4 JUMP JUMPDEST DUP3 MSTORE POP POP JUMP JUMPDEST PUSH2 0x175 DUP2 PUSH2 0x1B6 JUMP JUMPDEST DUP3 MSTORE POP POP JUMP JUMPDEST PUSH1 0x0 PUSH1 0x40 DUP3 ADD SWAP1 POP PUSH2 0x190 PUSH1 0x0 DUP4 ADD DUP6 PUSH2 0x15D JUMP JUMPDEST PUSH2 0x19D PUSH1 0x20 DUP4 ADD DUP5 PUSH2 0x16C JUMP JUMPDEST SWAP4 SWAP3 POP POP POP JUMP JUMPDEST PUSH1 0x0 PUSH2 0x1AF DUP3 PUSH2 0x1C2 JUMP JUMPDEST SWAP1 POP SWAP2 SWAP1 POP JUMP JUMPDEST PUSH1 0x0 DUP2 ISZERO ISZERO SWAP1 POP SWAP2 SWAP1 POP JUMP JUMPDEST PUSH1 0x0 PUSH20 0xFFFFFFFFFFFFFFFFFFFFFFFFFFFFFFFFFFFFFFFF DUP3 AND SWAP1 POP SWAP2 SWAP1 POP JUMP JUMPDEST PUSH1 0x0 DUP1 REVERT JUMPDEST PUSH2 0x1F0 DUP2 PUSH2 0x1A4 JUMP JUMPDEST DUP2 EQ PUSH2 0x1FB JUMPI PUSH1 0x0 DUP1 REVERT JUMPDEST POP JUMP JUMPDEST PUSH2 0x207 DUP2 PUSH2 0x1B6 JUMP JUMPDEST DUP2 EQ PUSH2 0x212 JUMPI PUSH1 0x0 DUP1 REVERT JUMPDEST POP JUMP INVALID LOG2 PUSH5 0x6970667358 0x22 SLT KECCAK256 0x49 PUSH11 0x2381114FE1B0068229BC9B DUP7 PC 0xA6 CODECOPY MSTORE8 0xD8 GASPRICE MSTORE8 0xC9 PUSH5 0xE132A93FF6 CALLVALUE CALLDATASIZE PUSH4 0x4A64736F PUSH13 0x63430008070033000000000000 "
				},
				"gasEstimates": {
					"creation": {
						"codeDepositCost": "117400",
						"executionCost": "165",
						"totalCost": "117565"
					},
					"external": {
						"CallThirdFunctionwithkeyValue()": "565",
						"ThirdValueFunction(address,bool)": "infinite",
						"callThirdFunction()": "543"
					}
				},
				"methodIdentifiers": {
					"CallThirdFunctionwithkeyValue()": "535af6b7",
					"ThirdValueFunction(address,bool)": "551fd774",
					"callThirdFunction()": "0b96b2b6"
				}
			},
			"storageLayout": {
				"storage": [],
				"types": null
			},
			"userdoc": {
				"kind": "user",
				"methods": {},
				"version": 1
			}
		}
	}
}