{
	"contracts/CalldataMemoryStorage.sol": {
		"CallMemSto": {
			"abi": [
				{
					"inputs": [
						{
							"internalType": "string",
							"name": "name",
							"type": "string"
						}
					],
					"name": "displayNameCallData",
					"outputs": [
						{
							"internalType": "string",
							"name": "",
							"type": "string"
						}
					],
					"stateMutability": "pure",
					"type": "function"
				},
				{
					"inputs": [
						{
							"internalType": "string",
							"name": "name",
							"type": "string"
						}
					],
					"name": "displayNameMemory",
					"outputs": [
						{
							"internalType": "string",
							"name": "",
							"type": "string"
						}
					],
					"stateMutability": "pure",
					"type": "function"
				},
				{
					"inputs": [],
					"name": "displayNameStorageMemory",
					"outputs": [
						{
							"internalType": "string",
							"name": "",
							"type": "string"
						}
					],
					"stateMutability": "view",
					"type": "function"
				},
				{
					"inputs": [],
					"name": "sto_name",
					"outputs": [
						{
							"internalType": "string",
							"name": "",
							"type": "string"
						}
					],
					"stateMutability": "view",
					"type": "function"
				}
			],
			"devdoc": {
				"kind": "dev",
				"methods": {},
				"version": 1
			},
			"evm": {
				"assembly": "    /* \"contracts/CalldataMemoryStorage.sol\":56:646  contract CallMemSto\r... */\n  mstore(0x40, 0x80)\n    /* \"contracts/CalldataMemoryStorage.sol\":84:114  string public sto_name=\"Mohan\" */\n  mload(0x40)\n  dup1\n  0x40\n  add\n  0x40\n  mstore\n  dup1\n  0x05\n  dup2\n  mstore\n  0x20\n  add\n  0x4d6f68616e000000000000000000000000000000000000000000000000000000\n  dup2\n  mstore\n  pop\n  0x00\n  swap1\n  dup1\n  mload\n  swap1\n  0x20\n  add\n  swap1\n  tag_1\n  swap3\n  swap2\n  swap1\n  tag_2\n  jump\t// in\ntag_1:\n  pop\n    /* \"contracts/CalldataMemoryStorage.sol\":56:646  contract CallMemSto\r... */\n  callvalue\n  dup1\n  iszero\n  tag_3\n  jumpi\n  0x00\n  dup1\n  revert\ntag_3:\n  pop\n  jump(tag_4)\ntag_2:\n  dup3\n  dup1\n  sload\n  tag_5\n  swap1\n  tag_6\n  jump\t// in\ntag_5:\n  swap1\n  0x00\n  mstore\n  keccak256(0x00, 0x20)\n  swap1\n  0x1f\n  add\n  0x20\n  swap1\n  div\n  dup2\n  add\n  swap3\n  dup3\n  tag_8\n  jumpi\n  0x00\n  dup6\n  sstore\n  jump(tag_7)\ntag_8:\n  dup3\n  0x1f\n  lt\n  tag_9\n  jumpi\n  dup1\n  mload\n  not(0xff)\n  and\n  dup4\n  dup1\n  add\n  or\n  dup6\n  sstore\n  jump(tag_7)\ntag_9:\n  dup3\n  dup1\n  add\n  0x01\n  add\n  dup6\n  sstore\n  dup3\n  iszero\n  tag_7\n  jumpi\n  swap2\n  dup3\n  add\ntag_10:\n  dup3\n  dup2\n  gt\n  iszero\n  tag_11\n  jumpi\n  dup3\n  mload\n  dup3\n  sstore\n  swap2\n  0x20\n  add\n  swap2\n  swap1\n  0x01\n  add\n  swap1\n  jump(tag_10)\ntag_11:\ntag_7:\n  pop\n  swap1\n  pop\n  tag_12\n  swap2\n  swap1\n  tag_13\n  jump\t// in\ntag_12:\n  pop\n  swap1\n  jump\t// out\ntag_13:\ntag_14:\n  dup1\n  dup3\n  gt\n  iszero\n  tag_15\n  jumpi\n  0x00\n  dup2\n  0x00\n  swap1\n  sstore\n  pop\n  0x01\n  add\n  jump(tag_14)\ntag_15:\n  pop\n  swap1\n  jump\t// out\n    /* \"#utility.yul\":7:327   */\ntag_6:\n    /* \"#utility.yul\":51:57   */\n  0x00\n    /* \"#utility.yul\":88:89   */\n  0x02\n    /* \"#utility.yul\":82:86   */\n  dup3\n    /* \"#utility.yul\":78:90   */\n  div\n    /* \"#utility.yul\":68:90   */\n  swap1\n  pop\n    /* \"#utility.yul\":135:136   */\n  0x01\n    /* \"#utility.yul\":129:133   */\n  dup3\n    /* \"#utility.yul\":125:137   */\n  and\n    /* \"#utility.yul\":156:174   */\n  dup1\n    /* \"#utility.yul\":146:227   */\n  tag_18\n  jumpi\n    /* \"#utility.yul\":212:216   */\n  0x7f\n    /* \"#utility.yul\":204:210   */\n  dup3\n    /* \"#utility.yul\":200:217   */\n  and\n    /* \"#utility.yul\":190:217   */\n  swap2\n  pop\n    /* \"#utility.yul\":146:227   */\ntag_18:\n    /* \"#utility.yul\":274:276   */\n  0x20\n    /* \"#utility.yul\":266:272   */\n  dup3\n    /* \"#utility.yul\":263:277   */\n  lt\n    /* \"#utility.yul\":243:261   */\n  dup2\n    /* \"#utility.yul\":240:278   */\n  eq\n    /* \"#utility.yul\":237:321   */\n  iszero\n  tag_19\n  jumpi\n    /* \"#utility.yul\":293:311   */\n  tag_20\n  tag_21\n  jump\t// in\ntag_20:\n    /* \"#utility.yul\":237:321   */\ntag_19:\n    /* \"#utility.yul\":58:327   */\n  pop\n    /* \"#utility.yul\":7:327   */\n  swap2\n  swap1\n  pop\n  jump\t// out\n    /* \"#utility.yul\":333:513   */\ntag_21:\n    /* \"#utility.yul\":381:458   */\n  0x4e487b7100000000000000000000000000000000000000000000000000000000\n    /* \"#utility.yul\":378:379   */\n  0x00\n    /* \"#utility.yul\":371:459   */\n  mstore\n    /* \"#utility.yul\":478:482   */\n  0x22\n    /* \"#utility.yul\":475:476   */\n  0x04\n    /* \"#utility.yul\":468:483   */\n  mstore\n    /* \"#utility.yul\":502:506   */\n  0x24\n    /* \"#utility.yul\":499:500   */\n  0x00\n    /* \"#utility.yul\":492:507   */\n  revert\n    /* \"contracts/CalldataMemoryStorage.sol\":56:646  contract CallMemSto\r... */\ntag_4:\n  dataSize(sub_0)\n  dup1\n  dataOffset(sub_0)\n  0x00\n  codecopy\n  0x00\n  return\nstop\n\nsub_0: assembly {\n        /* \"contracts/CalldataMemoryStorage.sol\":56:646  contract CallMemSto\r... */\n      mstore(0x40, 0x80)\n      callvalue\n      dup1\n      iszero\n      tag_1\n      jumpi\n      0x00\n      dup1\n      revert\n    tag_1:\n      pop\n      jumpi(tag_2, lt(calldatasize, 0x04))\n      shr(0xe0, calldataload(0x00))\n      dup1\n      0x0823d633\n      eq\n      tag_3\n      jumpi\n      dup1\n      0x6cde0810\n      eq\n      tag_4\n      jumpi\n      dup1\n      0xd07edf63\n      eq\n      tag_5\n      jumpi\n      dup1\n      0xf762846f\n      eq\n      tag_6\n      jumpi\n    tag_2:\n      0x00\n      dup1\n      revert\n        /* \"contracts/CalldataMemoryStorage.sol\":245:369  function displayNameCallData(string  calldata name) public pure returns(string calldata)\r... */\n    tag_3:\n      tag_7\n      0x04\n      dup1\n      calldatasize\n      sub\n      dup2\n      add\n      swap1\n      tag_8\n      swap2\n      swap1\n      tag_9\n      jump\t// in\n    tag_8:\n      tag_10\n      jump\t// in\n    tag_7:\n      mload(0x40)\n      tag_11\n      swap3\n      swap2\n      swap1\n      tag_12\n      jump\t// in\n    tag_11:\n      mload(0x40)\n      dup1\n      swap2\n      sub\n      swap1\n      return\n        /* \"contracts/CalldataMemoryStorage.sol\":375:504  function displayNameStorageMemory() public view returns(string memory)\r... */\n    tag_4:\n      tag_13\n      tag_14\n      jump\t// in\n    tag_13:\n      mload(0x40)\n      tag_15\n      swap2\n      swap1\n      tag_16\n      jump\t// in\n    tag_15:\n      mload(0x40)\n      dup1\n      swap2\n      sub\n      swap1\n      return\n        /* \"contracts/CalldataMemoryStorage.sol\":121:239  function displayNameMemory(string  memory name) public pure returns(string memory)\r... */\n    tag_5:\n      tag_17\n      0x04\n      dup1\n      calldatasize\n      sub\n      dup2\n      add\n      swap1\n      tag_18\n      swap2\n      swap1\n      tag_19\n      jump\t// in\n    tag_18:\n      tag_20\n      jump\t// in\n    tag_17:\n      mload(0x40)\n      tag_21\n      swap2\n      swap1\n      tag_16\n      jump\t// in\n    tag_21:\n      mload(0x40)\n      dup1\n      swap2\n      sub\n      swap1\n      return\n        /* \"contracts/CalldataMemoryStorage.sol\":84:114  string public sto_name=\"Mohan\" */\n    tag_6:\n      tag_22\n      tag_23\n      jump\t// in\n    tag_22:\n      mload(0x40)\n      tag_24\n      swap2\n      swap1\n      tag_16\n      jump\t// in\n    tag_24:\n      mload(0x40)\n      dup1\n      swap2\n      sub\n      swap1\n      return\n        /* \"contracts/CalldataMemoryStorage.sol\":245:369  function displayNameCallData(string  calldata name) public pure returns(string calldata)\r... */\n    tag_10:\n        /* \"contracts/CalldataMemoryStorage.sol\":317:332  string calldata */\n      calldatasize\n      0x00\n        /* \"contracts/CalldataMemoryStorage.sol\":357:361  name */\n      dup4\n      dup4\n        /* \"contracts/CalldataMemoryStorage.sol\":350:361  return name */\n      swap2\n      pop\n      swap2\n      pop\n        /* \"contracts/CalldataMemoryStorage.sol\":245:369  function displayNameCallData(string  calldata name) public pure returns(string calldata)\r... */\n      swap3\n      pop\n      swap3\n      swap1\n      pop\n      jump\t// out\n        /* \"contracts/CalldataMemoryStorage.sol\":375:504  function displayNameStorageMemory() public view returns(string memory)\r... */\n    tag_14:\n        /* \"contracts/CalldataMemoryStorage.sol\":431:444  string memory */\n      0x60\n        /* \"contracts/CalldataMemoryStorage.sol\":488:496  sto_name */\n      0x00\n        /* \"contracts/CalldataMemoryStorage.sol\":481:496  return sto_name */\n      dup1\n      sload\n      tag_27\n      swap1\n      tag_28\n      jump\t// in\n    tag_27:\n      dup1\n      0x1f\n      add\n      0x20\n      dup1\n      swap2\n      div\n      mul\n      0x20\n      add\n      mload(0x40)\n      swap1\n      dup2\n      add\n      0x40\n      mstore\n      dup1\n      swap3\n      swap2\n      swap1\n      dup2\n      dup2\n      mstore\n      0x20\n      add\n      dup3\n      dup1\n      sload\n      tag_29\n      swap1\n      tag_28\n      jump\t// in\n    tag_29:\n      dup1\n      iszero\n      tag_30\n      jumpi\n      dup1\n      0x1f\n      lt\n      tag_31\n      jumpi\n      0x0100\n      dup1\n      dup4\n      sload\n      div\n      mul\n      dup4\n      mstore\n      swap2\n      0x20\n      add\n      swap2\n      jump(tag_30)\n    tag_31:\n      dup3\n      add\n      swap2\n      swap1\n      0x00\n      mstore\n      keccak256(0x00, 0x20)\n      swap1\n    tag_32:\n      dup2\n      sload\n      dup2\n      mstore\n      swap1\n      0x01\n      add\n      swap1\n      0x20\n      add\n      dup1\n      dup4\n      gt\n      tag_32\n      jumpi\n      dup3\n      swap1\n      sub\n      0x1f\n      and\n      dup3\n      add\n      swap2\n    tag_30:\n      pop\n      pop\n      pop\n      pop\n      pop\n      swap1\n      pop\n        /* \"contracts/CalldataMemoryStorage.sol\":375:504  function displayNameStorageMemory() public view returns(string memory)\r... */\n      swap1\n      jump\t// out\n        /* \"contracts/CalldataMemoryStorage.sol\":121:239  function displayNameMemory(string  memory name) public pure returns(string memory)\r... */\n    tag_20:\n        /* \"contracts/CalldataMemoryStorage.sol\":189:202  string memory */\n      0x60\n        /* \"contracts/CalldataMemoryStorage.sol\":227:231  name */\n      dup2\n        /* \"contracts/CalldataMemoryStorage.sol\":220:231  return name */\n      swap1\n      pop\n        /* \"contracts/CalldataMemoryStorage.sol\":121:239  function displayNameMemory(string  memory name) public pure returns(string memory)\r... */\n      swap2\n      swap1\n      pop\n      jump\t// out\n        /* \"contracts/CalldataMemoryStorage.sol\":84:114  string public sto_name=\"Mohan\" */\n    tag_23:\n      0x00\n      dup1\n      sload\n      tag_34\n      swap1\n      tag_28\n      jump\t// in\n    tag_34:\n      dup1\n      0x1f\n      add\n      0x20\n      dup1\n      swap2\n      div\n      mul\n      0x20\n      add\n      mload(0x40)\n      swap1\n      dup2\n      add\n      0x40\n      mstore\n      dup1\n      swap3\n      swap2\n      swap1\n      dup2\n      dup2\n      mstore\n      0x20\n      add\n      dup3\n      dup1\n      sload\n      tag_35\n      swap1\n      tag_28\n      jump\t// in\n    tag_35:\n      dup1\n      iszero\n      tag_36\n      jumpi\n      dup1\n      0x1f\n      lt\n      tag_37\n      jumpi\n      0x0100\n      dup1\n      dup4\n      sload\n      div\n      mul\n      dup4\n      mstore\n      swap2\n      0x20\n      add\n      swap2\n      jump(tag_36)\n    tag_37:\n      dup3\n      add\n      swap2\n      swap1\n      0x00\n      mstore\n      keccak256(0x00, 0x20)\n      swap1\n    tag_38:\n      dup2\n      sload\n      dup2\n      mstore\n      swap1\n      0x01\n      add\n      swap1\n      0x20\n      add\n      dup1\n      dup4\n      gt\n      tag_38\n      jumpi\n      dup3\n      swap1\n      sub\n      0x1f\n      and\n      dup3\n      add\n      swap2\n    tag_36:\n      pop\n      pop\n      pop\n      pop\n      pop\n      dup2\n      jump\t// out\n        /* \"#utility.yul\":7:419   */\n    tag_40:\n        /* \"#utility.yul\":85:90   */\n      0x00\n        /* \"#utility.yul\":110:176   */\n      tag_42\n        /* \"#utility.yul\":126:175   */\n      tag_43\n        /* \"#utility.yul\":168:174   */\n      dup5\n        /* \"#utility.yul\":126:175   */\n      tag_44\n      jump\t// in\n    tag_43:\n        /* \"#utility.yul\":110:176   */\n      tag_45\n      jump\t// in\n    tag_42:\n        /* \"#utility.yul\":101:176   */\n      swap1\n      pop\n        /* \"#utility.yul\":199:205   */\n      dup3\n        /* \"#utility.yul\":192:197   */\n      dup2\n        /* \"#utility.yul\":185:206   */\n      mstore\n        /* \"#utility.yul\":237:241   */\n      0x20\n        /* \"#utility.yul\":230:235   */\n      dup2\n        /* \"#utility.yul\":226:242   */\n      add\n        /* \"#utility.yul\":275:278   */\n      dup5\n        /* \"#utility.yul\":266:272   */\n      dup5\n        /* \"#utility.yul\":261:264   */\n      dup5\n        /* \"#utility.yul\":257:273   */\n      add\n        /* \"#utility.yul\":254:279   */\n      gt\n        /* \"#utility.yul\":251:363   */\n      iszero\n      tag_46\n      jumpi\n        /* \"#utility.yul\":282:361   */\n      tag_47\n      tag_48\n      jump\t// in\n    tag_47:\n        /* \"#utility.yul\":251:363   */\n    tag_46:\n        /* \"#utility.yul\":372:413   */\n      tag_49\n        /* \"#utility.yul\":406:412   */\n      dup5\n        /* \"#utility.yul\":401:404   */\n      dup3\n        /* \"#utility.yul\":396:399   */\n      dup6\n        /* \"#utility.yul\":372:413   */\n      tag_50\n      jump\t// in\n    tag_49:\n        /* \"#utility.yul\":91:419   */\n      pop\n        /* \"#utility.yul\":7:419   */\n      swap4\n      swap3\n      pop\n      pop\n      pop\n      jump\t// out\n        /* \"#utility.yul\":439:992   */\n    tag_51:\n        /* \"#utility.yul\":497:505   */\n      0x00\n        /* \"#utility.yul\":507:513   */\n      dup1\n        /* \"#utility.yul\":557:560   */\n      dup4\n        /* \"#utility.yul\":550:554   */\n      0x1f\n        /* \"#utility.yul\":542:548   */\n      dup5\n        /* \"#utility.yul\":538:555   */\n      add\n        /* \"#utility.yul\":534:561   */\n      slt\n        /* \"#utility.yul\":524:646   */\n      tag_53\n      jumpi\n        /* \"#utility.yul\":565:644   */\n      tag_54\n      tag_55\n      jump\t// in\n    tag_54:\n        /* \"#utility.yul\":524:646   */\n    tag_53:\n        /* \"#utility.yul\":678:684   */\n      dup3\n        /* \"#utility.yul\":665:685   */\n      calldataload\n        /* \"#utility.yul\":655:685   */\n      swap1\n      pop\n        /* \"#utility.yul\":708:726   */\n      0xffffffffffffffff\n        /* \"#utility.yul\":700:706   */\n      dup2\n        /* \"#utility.yul\":697:727   */\n      gt\n        /* \"#utility.yul\":694:811   */\n      iszero\n      tag_56\n      jumpi\n        /* \"#utility.yul\":730:809   */\n      tag_57\n      tag_58\n      jump\t// in\n    tag_57:\n        /* \"#utility.yul\":694:811   */\n    tag_56:\n        /* \"#utility.yul\":844:848   */\n      0x20\n        /* \"#utility.yul\":836:842   */\n      dup4\n        /* \"#utility.yul\":832:849   */\n      add\n        /* \"#utility.yul\":820:849   */\n      swap2\n      pop\n        /* \"#utility.yul\":898:901   */\n      dup4\n        /* \"#utility.yul\":890:894   */\n      0x01\n        /* \"#utility.yul\":882:888   */\n      dup3\n        /* \"#utility.yul\":878:895   */\n      mul\n        /* \"#utility.yul\":868:876   */\n      dup4\n        /* \"#utility.yul\":864:896   */\n      add\n        /* \"#utility.yul\":861:902   */\n      gt\n        /* \"#utility.yul\":858:986   */\n      iszero\n      tag_59\n      jumpi\n        /* \"#utility.yul\":905:984   */\n      tag_60\n      tag_61\n      jump\t// in\n    tag_60:\n        /* \"#utility.yul\":858:986   */\n    tag_59:\n        /* \"#utility.yul\":439:992   */\n      swap3\n      pop\n      swap3\n      swap1\n      pop\n      jump\t// out\n        /* \"#utility.yul\":1012:1352   */\n    tag_62:\n        /* \"#utility.yul\":1068:1073   */\n      0x00\n        /* \"#utility.yul\":1117:1120   */\n      dup3\n        /* \"#utility.yul\":1110:1114   */\n      0x1f\n        /* \"#utility.yul\":1102:1108   */\n      dup4\n        /* \"#utility.yul\":1098:1115   */\n      add\n        /* \"#utility.yul\":1094:1121   */\n      slt\n        /* \"#utility.yul\":1084:1206   */\n      tag_64\n      jumpi\n        /* \"#utility.yul\":1125:1204   */\n      tag_65\n      tag_55\n      jump\t// in\n    tag_65:\n        /* \"#utility.yul\":1084:1206   */\n    tag_64:\n        /* \"#utility.yul\":1242:1248   */\n      dup2\n        /* \"#utility.yul\":1229:1249   */\n      calldataload\n        /* \"#utility.yul\":1267:1346   */\n      tag_66\n        /* \"#utility.yul\":1342:1345   */\n      dup5\n        /* \"#utility.yul\":1334:1340   */\n      dup3\n        /* \"#utility.yul\":1327:1331   */\n      0x20\n        /* \"#utility.yul\":1319:1325   */\n      dup7\n        /* \"#utility.yul\":1315:1332   */\n      add\n        /* \"#utility.yul\":1267:1346   */\n      tag_40\n      jump\t// in\n    tag_66:\n        /* \"#utility.yul\":1258:1346   */\n      swap2\n      pop\n        /* \"#utility.yul\":1074:1352   */\n      pop\n        /* \"#utility.yul\":1012:1352   */\n      swap3\n      swap2\n      pop\n      pop\n      jump\t// out\n        /* \"#utility.yul\":1358:1887   */\n    tag_9:\n        /* \"#utility.yul\":1429:1435   */\n      0x00\n        /* \"#utility.yul\":1437:1443   */\n      dup1\n        /* \"#utility.yul\":1486:1488   */\n      0x20\n        /* \"#utility.yul\":1474:1483   */\n      dup4\n        /* \"#utility.yul\":1465:1472   */\n      dup6\n        /* \"#utility.yul\":1461:1484   */\n      sub\n        /* \"#utility.yul\":1457:1489   */\n      slt\n        /* \"#utility.yul\":1454:1573   */\n      iszero\n      tag_68\n      jumpi\n        /* \"#utility.yul\":1492:1571   */\n      tag_69\n      tag_70\n      jump\t// in\n    tag_69:\n        /* \"#utility.yul\":1454:1573   */\n    tag_68:\n        /* \"#utility.yul\":1640:1641   */\n      0x00\n        /* \"#utility.yul\":1629:1638   */\n      dup4\n        /* \"#utility.yul\":1625:1642   */\n      add\n        /* \"#utility.yul\":1612:1643   */\n      calldataload\n        /* \"#utility.yul\":1670:1688   */\n      0xffffffffffffffff\n        /* \"#utility.yul\":1662:1668   */\n      dup2\n        /* \"#utility.yul\":1659:1689   */\n      gt\n        /* \"#utility.yul\":1656:1773   */\n      iszero\n      tag_71\n      jumpi\n        /* \"#utility.yul\":1692:1771   */\n      tag_72\n      tag_73\n      jump\t// in\n    tag_72:\n        /* \"#utility.yul\":1656:1773   */\n    tag_71:\n        /* \"#utility.yul\":1805:1870   */\n      tag_74\n        /* \"#utility.yul\":1862:1869   */\n      dup6\n        /* \"#utility.yul\":1853:1859   */\n      dup3\n        /* \"#utility.yul\":1842:1851   */\n      dup7\n        /* \"#utility.yul\":1838:1860   */\n      add\n        /* \"#utility.yul\":1805:1870   */\n      tag_51\n      jump\t// in\n    tag_74:\n        /* \"#utility.yul\":1787:1870   */\n      swap3\n      pop\n      swap3\n      pop\n        /* \"#utility.yul\":1583:1880   */\n      pop\n        /* \"#utility.yul\":1358:1887   */\n      swap3\n      pop\n      swap3\n      swap1\n      pop\n      jump\t// out\n        /* \"#utility.yul\":1893:2402   */\n    tag_19:\n        /* \"#utility.yul\":1962:1968   */\n      0x00\n        /* \"#utility.yul\":2011:2013   */\n      0x20\n        /* \"#utility.yul\":1999:2008   */\n      dup3\n        /* \"#utility.yul\":1990:1997   */\n      dup5\n        /* \"#utility.yul\":1986:2009   */\n      sub\n        /* \"#utility.yul\":1982:2014   */\n      slt\n        /* \"#utility.yul\":1979:2098   */\n      iszero\n      tag_76\n      jumpi\n        /* \"#utility.yul\":2017:2096   */\n      tag_77\n      tag_70\n      jump\t// in\n    tag_77:\n        /* \"#utility.yul\":1979:2098   */\n    tag_76:\n        /* \"#utility.yul\":2165:2166   */\n      0x00\n        /* \"#utility.yul\":2154:2163   */\n      dup3\n        /* \"#utility.yul\":2150:2167   */\n      add\n        /* \"#utility.yul\":2137:2168   */\n      calldataload\n        /* \"#utility.yul\":2195:2213   */\n      0xffffffffffffffff\n        /* \"#utility.yul\":2187:2193   */\n      dup2\n        /* \"#utility.yul\":2184:2214   */\n      gt\n        /* \"#utility.yul\":2181:2298   */\n      iszero\n      tag_78\n      jumpi\n        /* \"#utility.yul\":2217:2296   */\n      tag_79\n      tag_73\n      jump\t// in\n    tag_79:\n        /* \"#utility.yul\":2181:2298   */\n    tag_78:\n        /* \"#utility.yul\":2322:2385   */\n      tag_80\n        /* \"#utility.yul\":2377:2384   */\n      dup5\n        /* \"#utility.yul\":2368:2374   */\n      dup3\n        /* \"#utility.yul\":2357:2366   */\n      dup6\n        /* \"#utility.yul\":2353:2375   */\n      add\n        /* \"#utility.yul\":2322:2385   */\n      tag_62\n      jump\t// in\n    tag_80:\n        /* \"#utility.yul\":2312:2385   */\n      swap2\n      pop\n        /* \"#utility.yul\":2108:2395   */\n      pop\n        /* \"#utility.yul\":1893:2402   */\n      swap3\n      swap2\n      pop\n      pop\n      jump\t// out\n        /* \"#utility.yul\":2432:2736   */\n    tag_81:\n        /* \"#utility.yul\":2530:2533   */\n      0x00\n        /* \"#utility.yul\":2551:2622   */\n      tag_83\n        /* \"#utility.yul\":2615:2621   */\n      dup4\n        /* \"#utility.yul\":2610:2613   */\n      dup6\n        /* \"#utility.yul\":2551:2622   */\n      tag_84\n      jump\t// in\n    tag_83:\n        /* \"#utility.yul\":2544:2622   */\n      swap4\n      pop\n        /* \"#utility.yul\":2632:2675   */\n      tag_85\n        /* \"#utility.yul\":2668:2674   */\n      dup4\n        /* \"#utility.yul\":2663:2666   */\n      dup6\n        /* \"#utility.yul\":2656:2661   */\n      dup5\n        /* \"#utility.yul\":2632:2675   */\n      tag_50\n      jump\t// in\n    tag_85:\n        /* \"#utility.yul\":2700:2729   */\n      tag_86\n        /* \"#utility.yul\":2722:2728   */\n      dup4\n        /* \"#utility.yul\":2700:2729   */\n      tag_87\n      jump\t// in\n    tag_86:\n        /* \"#utility.yul\":2695:2698   */\n      dup5\n        /* \"#utility.yul\":2691:2730   */\n      add\n        /* \"#utility.yul\":2684:2730   */\n      swap1\n      pop\n        /* \"#utility.yul\":2432:2736   */\n      swap4\n      swap3\n      pop\n      pop\n      pop\n      jump\t// out\n        /* \"#utility.yul\":2742:3106   */\n    tag_88:\n        /* \"#utility.yul\":2830:2833   */\n      0x00\n        /* \"#utility.yul\":2858:2897   */\n      tag_90\n        /* \"#utility.yul\":2891:2896   */\n      dup3\n        /* \"#utility.yul\":2858:2897   */\n      tag_91\n      jump\t// in\n    tag_90:\n        /* \"#utility.yul\":2913:2984   */\n      tag_92\n        /* \"#utility.yul\":2977:2983   */\n      dup2\n        /* \"#utility.yul\":2972:2975   */\n      dup6\n        /* \"#utility.yul\":2913:2984   */\n      tag_84\n      jump\t// in\n    tag_92:\n        /* \"#utility.yul\":2906:2984   */\n      swap4\n      pop\n        /* \"#utility.yul\":2993:3045   */\n      tag_93\n        /* \"#utility.yul\":3038:3044   */\n      dup2\n        /* \"#utility.yul\":3033:3036   */\n      dup6\n        /* \"#utility.yul\":3026:3030   */\n      0x20\n        /* \"#utility.yul\":3019:3024   */\n      dup7\n        /* \"#utility.yul\":3015:3031   */\n      add\n        /* \"#utility.yul\":2993:3045   */\n      tag_94\n      jump\t// in\n    tag_93:\n        /* \"#utility.yul\":3070:3099   */\n      tag_95\n        /* \"#utility.yul\":3092:3098   */\n      dup2\n        /* \"#utility.yul\":3070:3099   */\n      tag_87\n      jump\t// in\n    tag_95:\n        /* \"#utility.yul\":3065:3068   */\n      dup5\n        /* \"#utility.yul\":3061:3100   */\n      add\n        /* \"#utility.yul\":3054:3100   */\n      swap2\n      pop\n        /* \"#utility.yul\":2834:3106   */\n      pop\n        /* \"#utility.yul\":2742:3106   */\n      swap3\n      swap2\n      pop\n      pop\n      jump\t// out\n        /* \"#utility.yul\":3112:3445   */\n    tag_12:\n        /* \"#utility.yul\":3235:3239   */\n      0x00\n        /* \"#utility.yul\":3273:3275   */\n      0x20\n        /* \"#utility.yul\":3262:3271   */\n      dup3\n        /* \"#utility.yul\":3258:3276   */\n      add\n        /* \"#utility.yul\":3250:3276   */\n      swap1\n      pop\n        /* \"#utility.yul\":3322:3331   */\n      dup2\n        /* \"#utility.yul\":3316:3320   */\n      dup2\n        /* \"#utility.yul\":3312:3332   */\n      sub\n        /* \"#utility.yul\":3308:3309   */\n      0x00\n        /* \"#utility.yul\":3297:3306   */\n      dup4\n        /* \"#utility.yul\":3293:3310   */\n      add\n        /* \"#utility.yul\":3286:3333   */\n      mstore\n        /* \"#utility.yul\":3350:3438   */\n      tag_97\n        /* \"#utility.yul\":3433:3437   */\n      dup2\n        /* \"#utility.yul\":3424:3430   */\n      dup5\n        /* \"#utility.yul\":3416:3422   */\n      dup7\n        /* \"#utility.yul\":3350:3438   */\n      tag_81\n      jump\t// in\n    tag_97:\n        /* \"#utility.yul\":3342:3438   */\n      swap1\n      pop\n        /* \"#utility.yul\":3112:3445   */\n      swap4\n      swap3\n      pop\n      pop\n      pop\n      jump\t// out\n        /* \"#utility.yul\":3451:3764   */\n    tag_16:\n        /* \"#utility.yul\":3564:3568   */\n      0x00\n        /* \"#utility.yul\":3602:3604   */\n      0x20\n        /* \"#utility.yul\":3591:3600   */\n      dup3\n        /* \"#utility.yul\":3587:3605   */\n      add\n        /* \"#utility.yul\":3579:3605   */\n      swap1\n      pop\n        /* \"#utility.yul\":3651:3660   */\n      dup2\n        /* \"#utility.yul\":3645:3649   */\n      dup2\n        /* \"#utility.yul\":3641:3661   */\n      sub\n        /* \"#utility.yul\":3637:3638   */\n      0x00\n        /* \"#utility.yul\":3626:3635   */\n      dup4\n        /* \"#utility.yul\":3622:3639   */\n      add\n        /* \"#utility.yul\":3615:3662   */\n      mstore\n        /* \"#utility.yul\":3679:3757   */\n      tag_99\n        /* \"#utility.yul\":3752:3756   */\n      dup2\n        /* \"#utility.yul\":3743:3749   */\n      dup5\n        /* \"#utility.yul\":3679:3757   */\n      tag_88\n      jump\t// in\n    tag_99:\n        /* \"#utility.yul\":3671:3757   */\n      swap1\n      pop\n        /* \"#utility.yul\":3451:3764   */\n      swap3\n      swap2\n      pop\n      pop\n      jump\t// out\n        /* \"#utility.yul\":3770:3899   */\n    tag_45:\n        /* \"#utility.yul\":3804:3810   */\n      0x00\n        /* \"#utility.yul\":3831:3851   */\n      tag_101\n      tag_102\n      jump\t// in\n    tag_101:\n        /* \"#utility.yul\":3821:3851   */\n      swap1\n      pop\n        /* \"#utility.yul\":3860:3893   */\n      tag_103\n        /* \"#utility.yul\":3888:3892   */\n      dup3\n        /* \"#utility.yul\":3880:3886   */\n      dup3\n        /* \"#utility.yul\":3860:3893   */\n      tag_104\n      jump\t// in\n    tag_103:\n        /* \"#utility.yul\":3770:3899   */\n      swap2\n      swap1\n      pop\n      jump\t// out\n        /* \"#utility.yul\":3905:3980   */\n    tag_102:\n        /* \"#utility.yul\":3938:3944   */\n      0x00\n        /* \"#utility.yul\":3971:3973   */\n      0x40\n        /* \"#utility.yul\":3965:3974   */\n      mload\n        /* \"#utility.yul\":3955:3974   */\n      swap1\n      pop\n        /* \"#utility.yul\":3905:3980   */\n      swap1\n      jump\t// out\n        /* \"#utility.yul\":3986:4294   */\n    tag_44:\n        /* \"#utility.yul\":4048:4052   */\n      0x00\n        /* \"#utility.yul\":4138:4156   */\n      0xffffffffffffffff\n        /* \"#utility.yul\":4130:4136   */\n      dup3\n        /* \"#utility.yul\":4127:4157   */\n      gt\n        /* \"#utility.yul\":4124:4180   */\n      iszero\n      tag_107\n      jumpi\n        /* \"#utility.yul\":4160:4178   */\n      tag_108\n      tag_109\n      jump\t// in\n    tag_108:\n        /* \"#utility.yul\":4124:4180   */\n    tag_107:\n        /* \"#utility.yul\":4198:4227   */\n      tag_110\n        /* \"#utility.yul\":4220:4226   */\n      dup3\n        /* \"#utility.yul\":4198:4227   */\n      tag_87\n      jump\t// in\n    tag_110:\n        /* \"#utility.yul\":4190:4227   */\n      swap1\n      pop\n        /* \"#utility.yul\":4282:4286   */\n      0x20\n        /* \"#utility.yul\":4276:4280   */\n      dup2\n        /* \"#utility.yul\":4272:4287   */\n      add\n        /* \"#utility.yul\":4264:4287   */\n      swap1\n      pop\n        /* \"#utility.yul\":3986:4294   */\n      swap2\n      swap1\n      pop\n      jump\t// out\n        /* \"#utility.yul\":4300:4399   */\n    tag_91:\n        /* \"#utility.yul\":4352:4358   */\n      0x00\n        /* \"#utility.yul\":4386:4391   */\n      dup2\n        /* \"#utility.yul\":4380:4392   */\n      mload\n        /* \"#utility.yul\":4370:4392   */\n      swap1\n      pop\n        /* \"#utility.yul\":4300:4399   */\n      swap2\n      swap1\n      pop\n      jump\t// out\n        /* \"#utility.yul\":4405:4574   */\n    tag_84:\n        /* \"#utility.yul\":4489:4500   */\n      0x00\n        /* \"#utility.yul\":4523:4529   */\n      dup3\n        /* \"#utility.yul\":4518:4521   */\n      dup3\n        /* \"#utility.yul\":4511:4530   */\n      mstore\n        /* \"#utility.yul\":4563:4567   */\n      0x20\n        /* \"#utility.yul\":4558:4561   */\n      dup3\n        /* \"#utility.yul\":4554:4568   */\n      add\n        /* \"#utility.yul\":4539:4568   */\n      swap1\n      pop\n        /* \"#utility.yul\":4405:4574   */\n      swap3\n      swap2\n      pop\n      pop\n      jump\t// out\n        /* \"#utility.yul\":4580:4734   */\n    tag_50:\n        /* \"#utility.yul\":4664:4670   */\n      dup3\n        /* \"#utility.yul\":4659:4662   */\n      dup2\n        /* \"#utility.yul\":4654:4657   */\n      dup4\n        /* \"#utility.yul\":4641:4671   */\n      calldatacopy\n        /* \"#utility.yul\":4726:4727   */\n      0x00\n        /* \"#utility.yul\":4717:4723   */\n      dup4\n        /* \"#utility.yul\":4712:4715   */\n      dup4\n        /* \"#utility.yul\":4708:4724   */\n      add\n        /* \"#utility.yul\":4701:4728   */\n      mstore\n        /* \"#utility.yul\":4580:4734   */\n      pop\n      pop\n      pop\n      jump\t// out\n        /* \"#utility.yul\":4740:5047   */\n    tag_94:\n        /* \"#utility.yul\":4808:4809   */\n      0x00\n        /* \"#utility.yul\":4818:4931   */\n    tag_115:\n        /* \"#utility.yul\":4832:4838   */\n      dup4\n        /* \"#utility.yul\":4829:4830   */\n      dup2\n        /* \"#utility.yul\":4826:4839   */\n      lt\n        /* \"#utility.yul\":4818:4931   */\n      iszero\n      tag_117\n      jumpi\n        /* \"#utility.yul\":4917:4918   */\n      dup1\n        /* \"#utility.yul\":4912:4915   */\n      dup3\n        /* \"#utility.yul\":4908:4919   */\n      add\n        /* \"#utility.yul\":4902:4920   */\n      mload\n        /* \"#utility.yul\":4898:4899   */\n      dup2\n        /* \"#utility.yul\":4893:4896   */\n      dup5\n        /* \"#utility.yul\":4889:4900   */\n      add\n        /* \"#utility.yul\":4882:4921   */\n      mstore\n        /* \"#utility.yul\":4854:4856   */\n      0x20\n        /* \"#utility.yul\":4851:4852   */\n      dup2\n        /* \"#utility.yul\":4847:4857   */\n      add\n        /* \"#utility.yul\":4842:4857   */\n      swap1\n      pop\n        /* \"#utility.yul\":4818:4931   */\n      jump(tag_115)\n    tag_117:\n        /* \"#utility.yul\":4949:4955   */\n      dup4\n        /* \"#utility.yul\":4946:4947   */\n      dup2\n        /* \"#utility.yul\":4943:4956   */\n      gt\n        /* \"#utility.yul\":4940:5041   */\n      iszero\n      tag_118\n      jumpi\n        /* \"#utility.yul\":5029:5030   */\n      0x00\n        /* \"#utility.yul\":5020:5026   */\n      dup5\n        /* \"#utility.yul\":5015:5018   */\n      dup5\n        /* \"#utility.yul\":5011:5027   */\n      add\n        /* \"#utility.yul\":5004:5031   */\n      mstore\n        /* \"#utility.yul\":4940:5041   */\n    tag_118:\n        /* \"#utility.yul\":4789:5047   */\n      pop\n        /* \"#utility.yul\":4740:5047   */\n      pop\n      pop\n      pop\n      jump\t// out\n        /* \"#utility.yul\":5053:5373   */\n    tag_28:\n        /* \"#utility.yul\":5097:5103   */\n      0x00\n        /* \"#utility.yul\":5134:5135   */\n      0x02\n        /* \"#utility.yul\":5128:5132   */\n      dup3\n        /* \"#utility.yul\":5124:5136   */\n      div\n        /* \"#utility.yul\":5114:5136   */\n      swap1\n      pop\n        /* \"#utility.yul\":5181:5182   */\n      0x01\n        /* \"#utility.yul\":5175:5179   */\n      dup3\n        /* \"#utility.yul\":5171:5183   */\n      and\n        /* \"#utility.yul\":5202:5220   */\n      dup1\n        /* \"#utility.yul\":5192:5273   */\n      tag_120\n      jumpi\n        /* \"#utility.yul\":5258:5262   */\n      0x7f\n        /* \"#utility.yul\":5250:5256   */\n      dup3\n        /* \"#utility.yul\":5246:5263   */\n      and\n        /* \"#utility.yul\":5236:5263   */\n      swap2\n      pop\n        /* \"#utility.yul\":5192:5273   */\n    tag_120:\n        /* \"#utility.yul\":5320:5322   */\n      0x20\n        /* \"#utility.yul\":5312:5318   */\n      dup3\n        /* \"#utility.yul\":5309:5323   */\n      lt\n        /* \"#utility.yul\":5289:5307   */\n      dup2\n        /* \"#utility.yul\":5286:5324   */\n      eq\n        /* \"#utility.yul\":5283:5367   */\n      iszero\n      tag_121\n      jumpi\n        /* \"#utility.yul\":5339:5357   */\n      tag_122\n      tag_123\n      jump\t// in\n    tag_122:\n        /* \"#utility.yul\":5283:5367   */\n    tag_121:\n        /* \"#utility.yul\":5104:5373   */\n      pop\n        /* \"#utility.yul\":5053:5373   */\n      swap2\n      swap1\n      pop\n      jump\t// out\n        /* \"#utility.yul\":5379:5660   */\n    tag_104:\n        /* \"#utility.yul\":5462:5489   */\n      tag_125\n        /* \"#utility.yul\":5484:5488   */\n      dup3\n        /* \"#utility.yul\":5462:5489   */\n      tag_87\n      jump\t// in\n    tag_125:\n        /* \"#utility.yul\":5454:5460   */\n      dup2\n        /* \"#utility.yul\":5450:5490   */\n      add\n        /* \"#utility.yul\":5592:5598   */\n      dup2\n        /* \"#utility.yul\":5580:5590   */\n      dup2\n        /* \"#utility.yul\":5577:5599   */\n      lt\n        /* \"#utility.yul\":5556:5574   */\n      0xffffffffffffffff\n        /* \"#utility.yul\":5544:5554   */\n      dup3\n        /* \"#utility.yul\":5541:5575   */\n      gt\n        /* \"#utility.yul\":5538:5600   */\n      or\n        /* \"#utility.yul\":5535:5623   */\n      iszero\n      tag_126\n      jumpi\n        /* \"#utility.yul\":5603:5621   */\n      tag_127\n      tag_109\n      jump\t// in\n    tag_127:\n        /* \"#utility.yul\":5535:5623   */\n    tag_126:\n        /* \"#utility.yul\":5643:5653   */\n      dup1\n        /* \"#utility.yul\":5639:5641   */\n      0x40\n        /* \"#utility.yul\":5632:5654   */\n      mstore\n        /* \"#utility.yul\":5422:5660   */\n      pop\n        /* \"#utility.yul\":5379:5660   */\n      pop\n      pop\n      jump\t// out\n        /* \"#utility.yul\":5666:5846   */\n    tag_123:\n        /* \"#utility.yul\":5714:5791   */\n      0x4e487b7100000000000000000000000000000000000000000000000000000000\n        /* \"#utility.yul\":5711:5712   */\n      0x00\n        /* \"#utility.yul\":5704:5792   */\n      mstore\n        /* \"#utility.yul\":5811:5815   */\n      0x22\n        /* \"#utility.yul\":5808:5809   */\n      0x04\n        /* \"#utility.yul\":5801:5816   */\n      mstore\n        /* \"#utility.yul\":5835:5839   */\n      0x24\n        /* \"#utility.yul\":5832:5833   */\n      0x00\n        /* \"#utility.yul\":5825:5840   */\n      revert\n        /* \"#utility.yul\":5852:6032   */\n    tag_109:\n        /* \"#utility.yul\":5900:5977   */\n      0x4e487b7100000000000000000000000000000000000000000000000000000000\n        /* \"#utility.yul\":5897:5898   */\n      0x00\n        /* \"#utility.yul\":5890:5978   */\n      mstore\n        /* \"#utility.yul\":5997:6001   */\n      0x41\n        /* \"#utility.yul\":5994:5995   */\n      0x04\n        /* \"#utility.yul\":5987:6002   */\n      mstore\n        /* \"#utility.yul\":6021:6025   */\n      0x24\n        /* \"#utility.yul\":6018:6019   */\n      0x00\n        /* \"#utility.yul\":6011:6026   */\n      revert\n        /* \"#utility.yul\":6038:6155   */\n    tag_58:\n        /* \"#utility.yul\":6147:6148   */\n      0x00\n        /* \"#utility.yul\":6144:6145   */\n      dup1\n        /* \"#utility.yul\":6137:6149   */\n      revert\n        /* \"#utility.yul\":6161:6278   */\n    tag_55:\n        /* \"#utility.yul\":6270:6271   */\n      0x00\n        /* \"#utility.yul\":6267:6268   */\n      dup1\n        /* \"#utility.yul\":6260:6272   */\n      revert\n        /* \"#utility.yul\":6284:6401   */\n    tag_61:\n        /* \"#utility.yul\":6393:6394   */\n      0x00\n        /* \"#utility.yul\":6390:6391   */\n      dup1\n        /* \"#utility.yul\":6383:6395   */\n      revert\n        /* \"#utility.yul\":6407:6524   */\n    tag_48:\n        /* \"#utility.yul\":6516:6517   */\n      0x00\n        /* \"#utility.yul\":6513:6514   */\n      dup1\n        /* \"#utility.yul\":6506:6518   */\n      revert\n        /* \"#utility.yul\":6530:6647   */\n    tag_73:\n        /* \"#utility.yul\":6639:6640   */\n      0x00\n        /* \"#utility.yul\":6636:6637   */\n      dup1\n        /* \"#utility.yul\":6629:6641   */\n      revert\n        /* \"#utility.yul\":6653:6770   */\n    tag_70:\n        /* \"#utility.yul\":6762:6763   */\n      0x00\n        /* \"#utility.yul\":6759:6760   */\n      dup1\n        /* \"#utility.yul\":6752:6764   */\n      revert\n        /* \"#utility.yul\":6776:6878   */\n    tag_87:\n        /* \"#utility.yul\":6817:6823   */\n      0x00\n        /* \"#utility.yul\":6868:6870   */\n      0x1f\n        /* \"#utility.yul\":6864:6871   */\n      not\n        /* \"#utility.yul\":6859:6861   */\n      0x1f\n        /* \"#utility.yul\":6852:6857   */\n      dup4\n        /* \"#utility.yul\":6848:6862   */\n      add\n        /* \"#utility.yul\":6844:6872   */\n      and\n        /* \"#utility.yul\":6834:6872   */\n      swap1\n      pop\n        /* \"#utility.yul\":6776:6878   */\n      swap2\n      swap1\n      pop\n      jump\t// out\n\n    auxdata: 0xa264697066735822122093bde7e8edcd24246b6de87b8a1f4e66fa3fb38390da4510c353e0daf67e570364736f6c63430008070033\n}\n",
				"bytecode": {
					"linkReferences": {},
					"object": "60806040526040518060400160405280600581526020017f4d6f68616e0000000000000000000000000000000000000000000000000000008152506000908051906020019061004f929190610062565b5034801561005c57600080fd5b50610166565b82805461006e90610105565b90600052602060002090601f01602090048101928261009057600085556100d7565b82601f106100a957805160ff19168380011785556100d7565b828001600101855582156100d7579182015b828111156100d65782518255916020019190600101906100bb565b5b5090506100e491906100e8565b5090565b5b808211156101015760008160009055506001016100e9565b5090565b6000600282049050600182168061011d57607f821691505b6020821081141561013157610130610137565b5b50919050565b7f4e487b7100000000000000000000000000000000000000000000000000000000600052602260045260246000fd5b61060a806101756000396000f3fe608060405234801561001057600080fd5b506004361061004c5760003560e01c80630823d633146100515780636cde081014610082578063d07edf63146100a0578063f762846f146100d0575b600080fd5b61006b600480360381019061006691906102ee565b6100ee565b6040516100799291906103ea565b60405180910390f35b61008a6100fe565b604051610097919061040e565b60405180910390f35b6100ba60048036038101906100b5919061033b565b610190565b6040516100c7919061040e565b60405180910390f35b6100d861019a565b6040516100e5919061040e565b60405180910390f35b3660008383915091509250929050565b60606000805461010d906104e4565b80601f0160208091040260200160405190810160405280929190818152602001828054610139906104e4565b80156101865780601f1061015b57610100808354040283529160200191610186565b820191906000526020600020905b81548152906001019060200180831161016957829003601f168201915b5050505050905090565b6060819050919050565b600080546101a7906104e4565b80601f01602080910402602001604051908101604052809291908181526020018280546101d3906104e4565b80156102205780601f106101f557610100808354040283529160200191610220565b820191906000526020600020905b81548152906001019060200180831161020357829003601f168201915b505050505081565b600061023b61023684610455565b610430565b905082815260208101848484011115610257576102566105b4565b5b6102628482856104a2565b509392505050565b60008083601f8401126102805761027f6105aa565b5b8235905067ffffffffffffffff81111561029d5761029c6105a5565b5b6020830191508360018202830111156102b9576102b86105af565b5b9250929050565b600082601f8301126102d5576102d46105aa565b5b81356102e5848260208601610228565b91505092915050565b60008060208385031215610305576103046105be565b5b600083013567ffffffffffffffff811115610323576103226105b9565b5b61032f8582860161026a565b92509250509250929050565b600060208284031215610351576103506105be565b5b600082013567ffffffffffffffff81111561036f5761036e6105b9565b5b61037b848285016102c0565b91505092915050565b60006103908385610491565b935061039d8385846104a2565b6103a6836105c3565b840190509392505050565b60006103bc82610486565b6103c68185610491565b93506103d68185602086016104b1565b6103df816105c3565b840191505092915050565b60006020820190508181036000830152610405818486610384565b90509392505050565b6000602082019050818103600083015261042881846103b1565b905092915050565b600061043a61044b565b90506104468282610516565b919050565b6000604051905090565b600067ffffffffffffffff8211156104705761046f610576565b5b610479826105c3565b9050602081019050919050565b600081519050919050565b600082825260208201905092915050565b82818337600083830152505050565b60005b838110156104cf5780820151818401526020810190506104b4565b838111156104de576000848401525b50505050565b600060028204905060018216806104fc57607f821691505b602082108114156105105761050f610547565b5b50919050565b61051f826105c3565b810181811067ffffffffffffffff8211171561053e5761053d610576565b5b80604052505050565b7f4e487b7100000000000000000000000000000000000000000000000000000000600052602260045260246000fd5b7f4e487b7100000000000000000000000000000000000000000000000000000000600052604160045260246000fd5b600080fd5b600080fd5b600080fd5b600080fd5b600080fd5b600080fd5b6000601f19601f830116905091905056fea264697066735822122093bde7e8edcd24246b6de87b8a1f4e66fa3fb38390da4510c353e0daf67e570364736f6c63430008070033",
					"opcodes": "PUSH1 0x80 PUSH1 0x40 MSTORE PUSH1 0x40 MLOAD DUP1 PUSH1 0x40 ADD PUSH1 0x40 MSTORE DUP1 PUSH1 0x5 DUP2 MSTORE PUSH1 0x20 ADD PUSH32 0x4D6F68616E000000000000000000000000000000000000000000000000000000 DUP2 MSTORE POP PUSH1 0x0 SWAP1 DUP1 MLOAD SWAP1 PUSH1 0x20 ADD SWAP1 PUSH2 0x4F SWAP3 SWAP2 SWAP1 PUSH2 0x62 JUMP JUMPDEST POP CALLVALUE DUP1 ISZERO PUSH2 0x5C JUMPI PUSH1 0x0 DUP1 REVERT JUMPDEST POP PUSH2 0x166 JUMP JUMPDEST DUP3 DUP1 SLOAD PUSH2 0x6E SWAP1 PUSH2 0x105 JUMP JUMPDEST SWAP1 PUSH1 0x0 MSTORE PUSH1 0x20 PUSH1 0x0 KECCAK256 SWAP1 PUSH1 0x1F ADD PUSH1 0x20 SWAP1 DIV DUP2 ADD SWAP3 DUP3 PUSH2 0x90 JUMPI PUSH1 0x0 DUP6 SSTORE PUSH2 0xD7 JUMP JUMPDEST DUP3 PUSH1 0x1F LT PUSH2 0xA9 JUMPI DUP1 MLOAD PUSH1 0xFF NOT AND DUP4 DUP1 ADD OR DUP6 SSTORE PUSH2 0xD7 JUMP JUMPDEST DUP3 DUP1 ADD PUSH1 0x1 ADD DUP6 SSTORE DUP3 ISZERO PUSH2 0xD7 JUMPI SWAP2 DUP3 ADD JUMPDEST DUP3 DUP2 GT ISZERO PUSH2 0xD6 JUMPI DUP3 MLOAD DUP3 SSTORE SWAP2 PUSH1 0x20 ADD SWAP2 SWAP1 PUSH1 0x1 ADD SWAP1 PUSH2 0xBB JUMP JUMPDEST JUMPDEST POP SWAP1 POP PUSH2 0xE4 SWAP2 SWAP1 PUSH2 0xE8 JUMP JUMPDEST POP SWAP1 JUMP JUMPDEST JUMPDEST DUP1 DUP3 GT ISZERO PUSH2 0x101 JUMPI PUSH1 0x0 DUP2 PUSH1 0x0 SWAP1 SSTORE POP PUSH1 0x1 ADD PUSH2 0xE9 JUMP JUMPDEST POP SWAP1 JUMP JUMPDEST PUSH1 0x0 PUSH1 0x2 DUP3 DIV SWAP1 POP PUSH1 0x1 DUP3 AND DUP1 PUSH2 0x11D JUMPI PUSH1 0x7F DUP3 AND SWAP2 POP JUMPDEST PUSH1 0x20 DUP3 LT DUP2 EQ ISZERO PUSH2 0x131 JUMPI PUSH2 0x130 PUSH2 0x137 JUMP JUMPDEST JUMPDEST POP SWAP2 SWAP1 POP JUMP JUMPDEST PUSH32 0x4E487B7100000000000000000000000000000000000000000000000000000000 PUSH1 0x0 MSTORE PUSH1 0x22 PUSH1 0x4 MSTORE PUSH1 0x24 PUSH1 0x0 REVERT JUMPDEST PUSH2 0x60A DUP1 PUSH2 0x175 PUSH1 0x0 CODECOPY PUSH1 0x0 RETURN INVALID PUSH1 0x80 PUSH1 0x40 MSTORE CALLVALUE DUP1 ISZERO PUSH2 0x10 JUMPI PUSH1 0x0 DUP1 REVERT JUMPDEST POP PUSH1 0x4 CALLDATASIZE LT PUSH2 0x4C JUMPI PUSH1 0x0 CALLDATALOAD PUSH1 0xE0 SHR DUP1 PUSH4 0x823D633 EQ PUSH2 0x51 JUMPI DUP1 PUSH4 0x6CDE0810 EQ PUSH2 0x82 JUMPI DUP1 PUSH4 0xD07EDF63 EQ PUSH2 0xA0 JUMPI DUP1 PUSH4 0xF762846F EQ PUSH2 0xD0 JUMPI JUMPDEST PUSH1 0x0 DUP1 REVERT JUMPDEST PUSH2 0x6B PUSH1 0x4 DUP1 CALLDATASIZE SUB DUP2 ADD SWAP1 PUSH2 0x66 SWAP2 SWAP1 PUSH2 0x2EE JUMP JUMPDEST PUSH2 0xEE JUMP JUMPDEST PUSH1 0x40 MLOAD PUSH2 0x79 SWAP3 SWAP2 SWAP1 PUSH2 0x3EA JUMP JUMPDEST PUSH1 0x40 MLOAD DUP1 SWAP2 SUB SWAP1 RETURN JUMPDEST PUSH2 0x8A PUSH2 0xFE JUMP JUMPDEST PUSH1 0x40 MLOAD PUSH2 0x97 SWAP2 SWAP1 PUSH2 0x40E JUMP JUMPDEST PUSH1 0x40 MLOAD DUP1 SWAP2 SUB SWAP1 RETURN JUMPDEST PUSH2 0xBA PUSH1 0x4 DUP1 CALLDATASIZE SUB DUP2 ADD SWAP1 PUSH2 0xB5 SWAP2 SWAP1 PUSH2 0x33B JUMP JUMPDEST PUSH2 0x190 JUMP JUMPDEST PUSH1 0x40 MLOAD PUSH2 0xC7 SWAP2 SWAP1 PUSH2 0x40E JUMP JUMPDEST PUSH1 0x40 MLOAD DUP1 SWAP2 SUB SWAP1 RETURN JUMPDEST PUSH2 0xD8 PUSH2 0x19A JUMP JUMPDEST PUSH1 0x40 MLOAD PUSH2 0xE5 SWAP2 SWAP1 PUSH2 0x40E JUMP JUMPDEST PUSH1 0x40 MLOAD DUP1 SWAP2 SUB SWAP1 RETURN JUMPDEST CALLDATASIZE PUSH1 0x0 DUP4 DUP4 SWAP2 POP SWAP2 POP SWAP3 POP SWAP3 SWAP1 POP JUMP JUMPDEST PUSH1 0x60 PUSH1 0x0 DUP1 SLOAD PUSH2 0x10D SWAP1 PUSH2 0x4E4 JUMP JUMPDEST DUP1 PUSH1 0x1F ADD PUSH1 0x20 DUP1 SWAP2 DIV MUL PUSH1 0x20 ADD PUSH1 0x40 MLOAD SWAP1 DUP2 ADD PUSH1 0x40 MSTORE DUP1 SWAP3 SWAP2 SWAP1 DUP2 DUP2 MSTORE PUSH1 0x20 ADD DUP3 DUP1 SLOAD PUSH2 0x139 SWAP1 PUSH2 0x4E4 JUMP JUMPDEST DUP1 ISZERO PUSH2 0x186 JUMPI DUP1 PUSH1 0x1F LT PUSH2 0x15B JUMPI PUSH2 0x100 DUP1 DUP4 SLOAD DIV MUL DUP4 MSTORE SWAP2 PUSH1 0x20 ADD SWAP2 PUSH2 0x186 JUMP JUMPDEST DUP3 ADD SWAP2 SWAP1 PUSH1 0x0 MSTORE PUSH1 0x20 PUSH1 0x0 KECCAK256 SWAP1 JUMPDEST DUP2 SLOAD DUP2 MSTORE SWAP1 PUSH1 0x1 ADD SWAP1 PUSH1 0x20 ADD DUP1 DUP4 GT PUSH2 0x169 JUMPI DUP3 SWAP1 SUB PUSH1 0x1F AND DUP3 ADD SWAP2 JUMPDEST POP POP POP POP POP SWAP1 POP SWAP1 JUMP JUMPDEST PUSH1 0x60 DUP2 SWAP1 POP SWAP2 SWAP1 POP JUMP JUMPDEST PUSH1 0x0 DUP1 SLOAD PUSH2 0x1A7 SWAP1 PUSH2 0x4E4 JUMP JUMPDEST DUP1 PUSH1 0x1F ADD PUSH1 0x20 DUP1 SWAP2 DIV MUL PUSH1 0x20 ADD PUSH1 0x40 MLOAD SWAP1 DUP2 ADD PUSH1 0x40 MSTORE DUP1 SWAP3 SWAP2 SWAP1 DUP2 DUP2 MSTORE PUSH1 0x20 ADD DUP3 DUP1 SLOAD PUSH2 0x1D3 SWAP1 PUSH2 0x4E4 JUMP JUMPDEST DUP1 ISZERO PUSH2 0x220 JUMPI DUP1 PUSH1 0x1F LT PUSH2 0x1F5 JUMPI PUSH2 0x100 DUP1 DUP4 SLOAD DIV MUL DUP4 MSTORE SWAP2 PUSH1 0x20 ADD SWAP2 PUSH2 0x220 JUMP JUMPDEST DUP3 ADD SWAP2 SWAP1 PUSH1 0x0 MSTORE PUSH1 0x20 PUSH1 0x0 KECCAK256 SWAP1 JUMPDEST DUP2 SLOAD DUP2 MSTORE SWAP1 PUSH1 0x1 ADD SWAP1 PUSH1 0x20 ADD DUP1 DUP4 GT PUSH2 0x203 JUMPI DUP3 SWAP1 SUB PUSH1 0x1F AND DUP3 ADD SWAP2 JUMPDEST POP POP POP POP POP DUP2 JUMP JUMPDEST PUSH1 0x0 PUSH2 0x23B PUSH2 0x236 DUP5 PUSH2 0x455 JUMP JUMPDEST PUSH2 0x430 JUMP JUMPDEST SWAP1 POP DUP3 DUP2 MSTORE PUSH1 0x20 DUP2 ADD DUP5 DUP5 DUP5 ADD GT ISZERO PUSH2 0x257 JUMPI PUSH2 0x256 PUSH2 0x5B4 JUMP JUMPDEST JUMPDEST PUSH2 0x262 DUP5 DUP3 DUP6 PUSH2 0x4A2 JUMP JUMPDEST POP SWAP4 SWAP3 POP POP POP JUMP JUMPDEST PUSH1 0x0 DUP1 DUP4 PUSH1 0x1F DUP5 ADD SLT PUSH2 0x280 JUMPI PUSH2 0x27F PUSH2 0x5AA JUMP JUMPDEST JUMPDEST DUP3 CALLDATALOAD SWAP1 POP PUSH8 0xFFFFFFFFFFFFFFFF DUP2 GT ISZERO PUSH2 0x29D JUMPI PUSH2 0x29C PUSH2 0x5A5 JUMP JUMPDEST JUMPDEST PUSH1 0x20 DUP4 ADD SWAP2 POP DUP4 PUSH1 0x1 DUP3 MUL DUP4 ADD GT ISZERO PUSH2 0x2B9 JUMPI PUSH2 0x2B8 PUSH2 0x5AF JUMP JUMPDEST JUMPDEST SWAP3 POP SWAP3 SWAP1 POP JUMP JUMPDEST PUSH1 0x0 DUP3 PUSH1 0x1F DUP4 ADD SLT PUSH2 0x2D5 JUMPI PUSH2 0x2D4 PUSH2 0x5AA JUMP JUMPDEST JUMPDEST DUP2 CALLDATALOAD PUSH2 0x2E5 DUP5 DUP3 PUSH1 0x20 DUP7 ADD PUSH2 0x228 JUMP JUMPDEST SWAP2 POP POP SWAP3 SWAP2 POP POP JUMP JUMPDEST PUSH1 0x0 DUP1 PUSH1 0x20 DUP4 DUP6 SUB SLT ISZERO PUSH2 0x305 JUMPI PUSH2 0x304 PUSH2 0x5BE JUMP JUMPDEST JUMPDEST PUSH1 0x0 DUP4 ADD CALLDATALOAD PUSH8 0xFFFFFFFFFFFFFFFF DUP2 GT ISZERO PUSH2 0x323 JUMPI PUSH2 0x322 PUSH2 0x5B9 JUMP JUMPDEST JUMPDEST PUSH2 0x32F DUP6 DUP3 DUP7 ADD PUSH2 0x26A JUMP JUMPDEST SWAP3 POP SWAP3 POP POP SWAP3 POP SWAP3 SWAP1 POP JUMP JUMPDEST PUSH1 0x0 PUSH1 0x20 DUP3 DUP5 SUB SLT ISZERO PUSH2 0x351 JUMPI PUSH2 0x350 PUSH2 0x5BE JUMP JUMPDEST JUMPDEST PUSH1 0x0 DUP3 ADD CALLDATALOAD PUSH8 0xFFFFFFFFFFFFFFFF DUP2 GT ISZERO PUSH2 0x36F JUMPI PUSH2 0x36E PUSH2 0x5B9 JUMP JUMPDEST JUMPDEST PUSH2 0x37B DUP5 DUP3 DUP6 ADD PUSH2 0x2C0 JUMP JUMPDEST SWAP2 POP POP SWAP3 SWAP2 POP POP JUMP JUMPDEST PUSH1 0x0 PUSH2 0x390 DUP4 DUP6 PUSH2 0x491 JUMP JUMPDEST SWAP4 POP PUSH2 0x39D DUP4 DUP6 DUP5 PUSH2 0x4A2 JUMP JUMPDEST PUSH2 0x3A6 DUP4 PUSH2 0x5C3 JUMP JUMPDEST DUP5 ADD SWAP1 POP SWAP4 SWAP3 POP POP POP JUMP JUMPDEST PUSH1 0x0 PUSH2 0x3BC DUP3 PUSH2 0x486 JUMP JUMPDEST PUSH2 0x3C6 DUP2 DUP6 PUSH2 0x491 JUMP JUMPDEST SWAP4 POP PUSH2 0x3D6 DUP2 DUP6 PUSH1 0x20 DUP7 ADD PUSH2 0x4B1 JUMP JUMPDEST PUSH2 0x3DF DUP2 PUSH2 0x5C3 JUMP JUMPDEST DUP5 ADD SWAP2 POP POP SWAP3 SWAP2 POP POP JUMP JUMPDEST PUSH1 0x0 PUSH1 0x20 DUP3 ADD SWAP1 POP DUP2 DUP2 SUB PUSH1 0x0 DUP4 ADD MSTORE PUSH2 0x405 DUP2 DUP5 DUP7 PUSH2 0x384 JUMP JUMPDEST SWAP1 POP SWAP4 SWAP3 POP POP POP JUMP JUMPDEST PUSH1 0x0 PUSH1 0x20 DUP3 ADD SWAP1 POP DUP2 DUP2 SUB PUSH1 0x0 DUP4 ADD MSTORE PUSH2 0x428 DUP2 DUP5 PUSH2 0x3B1 JUMP JUMPDEST SWAP1 POP SWAP3 SWAP2 POP POP JUMP JUMPDEST PUSH1 0x0 PUSH2 0x43A PUSH2 0x44B JUMP JUMPDEST SWAP1 POP PUSH2 0x446 DUP3 DUP3 PUSH2 0x516 JUMP JUMPDEST SWAP2 SWAP1 POP JUMP JUMPDEST PUSH1 0x0 PUSH1 0x40 MLOAD SWAP1 POP SWAP1 JUMP JUMPDEST PUSH1 0x0 PUSH8 0xFFFFFFFFFFFFFFFF DUP3 GT ISZERO PUSH2 0x470 JUMPI PUSH2 0x46F PUSH2 0x576 JUMP JUMPDEST JUMPDEST PUSH2 0x479 DUP3 PUSH2 0x5C3 JUMP JUMPDEST SWAP1 POP PUSH1 0x20 DUP2 ADD SWAP1 POP SWAP2 SWAP1 POP JUMP JUMPDEST PUSH1 0x0 DUP2 MLOAD SWAP1 POP SWAP2 SWAP1 POP JUMP JUMPDEST PUSH1 0x0 DUP3 DUP3 MSTORE PUSH1 0x20 DUP3 ADD SWAP1 POP SWAP3 SWAP2 POP POP JUMP JUMPDEST DUP3 DUP2 DUP4 CALLDATACOPY PUSH1 0x0 DUP4 DUP4 ADD MSTORE POP POP POP JUMP JUMPDEST PUSH1 0x0 JUMPDEST DUP4 DUP2 LT ISZERO PUSH2 0x4CF JUMPI DUP1 DUP3 ADD MLOAD DUP2 DUP5 ADD MSTORE PUSH1 0x20 DUP2 ADD SWAP1 POP PUSH2 0x4B4 JUMP JUMPDEST DUP4 DUP2 GT ISZERO PUSH2 0x4DE JUMPI PUSH1 0x0 DUP5 DUP5 ADD MSTORE JUMPDEST POP POP POP POP JUMP JUMPDEST PUSH1 0x0 PUSH1 0x2 DUP3 DIV SWAP1 POP PUSH1 0x1 DUP3 AND DUP1 PUSH2 0x4FC JUMPI PUSH1 0x7F DUP3 AND SWAP2 POP JUMPDEST PUSH1 0x20 DUP3 LT DUP2 EQ ISZERO PUSH2 0x510 JUMPI PUSH2 0x50F PUSH2 0x547 JUMP JUMPDEST JUMPDEST POP SWAP2 SWAP1 POP JUMP JUMPDEST PUSH2 0x51F DUP3 PUSH2 0x5C3 JUMP JUMPDEST DUP2 ADD DUP2 DUP2 LT PUSH8 0xFFFFFFFFFFFFFFFF DUP3 GT OR ISZERO PUSH2 0x53E JUMPI PUSH2 0x53D PUSH2 0x576 JUMP JUMPDEST JUMPDEST DUP1 PUSH1 0x40 MSTORE POP POP POP JUMP JUMPDEST PUSH32 0x4E487B7100000000000000000000000000000000000000000000000000000000 PUSH1 0x0 MSTORE PUSH1 0x22 PUSH1 0x4 MSTORE PUSH1 0x24 PUSH1 0x0 REVERT JUMPDEST PUSH32 0x4E487B7100000000000000000000000000000000000000000000000000000000 PUSH1 0x0 MSTORE PUSH1 0x41 PUSH1 0x4 MSTORE PUSH1 0x24 PUSH1 0x0 REVERT JUMPDEST PUSH1 0x0 DUP1 REVERT JUMPDEST PUSH1 0x0 DUP1 REVERT JUMPDEST PUSH1 0x0 DUP1 REVERT JUMPDEST PUSH1 0x0 DUP1 REVERT JUMPDEST PUSH1 0x0 DUP1 REVERT JUMPDEST PUSH1 0x0 DUP1 REVERT JUMPDEST PUSH1 0x0 PUSH1 0x1F NOT PUSH1 0x1F DUP4 ADD AND SWAP1 POP SWAP2 SWAP1 POP JUMP INVALID LOG2 PUSH5 0x6970667358 0x22 SLT KECCAK256 SWAP4 0xBD 0xE7 0xE8 0xED 0xCD 0x24 0x24 PUSH12 0x6DE87B8A1F4E66FA3FB38390 0xDA GASLIMIT LT 0xC3 MSTORE8 0xE0 0xDA 0xF6 PUSH31 0x570364736F6C63430008070033000000000000000000000000000000000000 "
				},
				"gasEstimates": {
					"creation": {
						"codeDepositCost": "309200",
						"executionCost": "infinite",
						"totalCost": "infinite"
					},
					"external": {
						"displayNameCallData(string)": "infinite",
						"displayNameMemory(string)": "infinite",
						"displayNameStorageMemory()": "infinite",
						"sto_name()": "infinite"
					}
				},
				"methodIdentifiers": {
					"displayNameCallData(string)": "0823d633",
					"displayNameMemory(string)": "d07edf63",
					"displayNameStorageMemory()": "6cde0810",
					"sto_name()": "f762846f"
				}
			},
			"storageLayout": {
				"storage": [
					{
						"astId": 4,
						"contract": "contracts/CalldataMemoryStorage.sol:CallMemSto",
						"label": "sto_name",
						"offset": 0,
						"slot": "0",
						"type": "t_string_storage"
					}
				],
				"types": {
					"t_string_storage": {
						"encoding": "bytes",
						"label": "string",
						"numberOfBytes": "32"
					}
				}
			},
			"userdoc": {
				"kind": "user",
				"methods": {},
				"version": 1
			}
		}
	}
}