{
	"contracts/Array.sol": {
		"Arraydemo": {
			"abi": [
				{
					"inputs": [
						{
							"internalType": "uint256",
							"name": "x",
							"type": "uint256"
						}
					],
					"name": "addNumber",
					"outputs": [],
					"stateMutability": "nonpayable",
					"type": "function"
				},
				{
					"inputs": [
						{
							"internalType": "uint256",
							"name": "index",
							"type": "uint256"
						}
					],
					"name": "deleteNumber",
					"outputs": [],
					"stateMutability": "nonpayable",
					"type": "function"
				},
				{
					"inputs": [
						{
							"internalType": "uint256",
							"name": "",
							"type": "uint256"
						}
					],
					"name": "fixednumber",
					"outputs": [
						{
							"internalType": "uint256",
							"name": "",
							"type": "uint256"
						}
					],
					"stateMutability": "view",
					"type": "function"
				},
				{
					"inputs": [],
					"name": "getLength",
					"outputs": [
						{
							"internalType": "uint256",
							"name": "",
							"type": "uint256"
						}
					],
					"stateMutability": "view",
					"type": "function"
				},
				{
					"inputs": [],
					"name": "getValues",
					"outputs": [
						{
							"internalType": "uint256[]",
							"name": "",
							"type": "uint256[]"
						}
					],
					"stateMutability": "view",
					"type": "function"
				},
				{
					"inputs": [],
					"name": "getValuesFixed",
					"outputs": [
						{
							"internalType": "uint256[4]",
							"name": "",
							"type": "uint256[4]"
						}
					],
					"stateMutability": "view",
					"type": "function"
				},
				{
					"inputs": [
						{
							"internalType": "uint256",
							"name": "",
							"type": "uint256"
						}
					],
					"name": "nums",
					"outputs": [
						{
							"internalType": "uint256",
							"name": "",
							"type": "uint256"
						}
					],
					"stateMutability": "view",
					"type": "function"
				},
				{
					"inputs": [],
					"name": "removeNumber",
					"outputs": [],
					"stateMutability": "nonpayable",
					"type": "function"
				},
				{
					"inputs": [
						{
							"internalType": "uint256",
							"name": "_index",
							"type": "uint256"
						},
						{
							"internalType": "uint256",
							"name": "_no",
							"type": "uint256"
						}
					],
					"name": "shiftNumber",
					"outputs": [],
					"stateMutability": "nonpayable",
					"type": "function"
				}
			],
			"devdoc": {
				"kind": "dev",
				"methods": {},
				"version": 1
			},
			"evm": {
				"assembly": "    /* \"contracts/Array.sol\":56:876  contract Arraydemo\r... */\n  mstore(0x40, 0x80)\n    /* \"contracts/Array.sol\":83:112  uint[] public nums=[12,13,22] */\n  mload(0x40)\n  dup1\n  0x60\n  add\n  0x40\n  mstore\n  dup1\n    /* \"contracts/Array.sol\":103:105  12 */\n  0x0c\n    /* \"contracts/Array.sol\":83:112  uint[] public nums=[12,13,22] */\n  0xff\n  and\n  dup2\n  mstore\n  0x20\n  add\n    /* \"contracts/Array.sol\":106:108  13 */\n  0x0d\n    /* \"contracts/Array.sol\":83:112  uint[] public nums=[12,13,22] */\n  0xff\n  and\n  dup2\n  mstore\n  0x20\n  add\n    /* \"contracts/Array.sol\":109:111  22 */\n  0x16\n    /* \"contracts/Array.sol\":83:112  uint[] public nums=[12,13,22] */\n  0xff\n  and\n  dup2\n  mstore\n  pop\n  0x00\n  swap1\n  0x03\n  tag_1\n  swap3\n  swap2\n  swap1\n  tag_2\n  jump\t// in\ntag_1:\n  pop\n    /* \"contracts/Array.sol\":56:876  contract Arraydemo\r... */\n  callvalue\n  dup1\n  iszero\n  tag_3\n  jumpi\n  0x00\n  dup1\n  revert\ntag_3:\n  pop\n  jump(tag_4)\ntag_2:\n  dup3\n  dup1\n  sload\n  dup3\n  dup3\n  sstore\n  swap1\n  0x00\n  mstore\n  keccak256(0x00, 0x20)\n  swap1\n  dup2\n  add\n  swap3\n  dup3\n  iszero\n  tag_5\n  jumpi\n  swap2\n  0x20\n  mul\n  dup3\n  add\ntag_6:\n  dup3\n  dup2\n  gt\n  iszero\n  tag_7\n  jumpi\n  dup3\n  mload\n  dup3\n  swap1\n  0xff\n  and\n  swap1\n  sstore\n  swap2\n  0x20\n  add\n  swap2\n  swap1\n  0x01\n  add\n  swap1\n  jump(tag_6)\ntag_7:\ntag_5:\n  pop\n  swap1\n  pop\n  tag_8\n  swap2\n  swap1\n  tag_9\n  jump\t// in\ntag_8:\n  pop\n  swap1\n  jump\t// out\ntag_9:\ntag_10:\n  dup1\n  dup3\n  gt\n  iszero\n  tag_11\n  jumpi\n  0x00\n  dup2\n  0x00\n  swap1\n  sstore\n  pop\n  0x01\n  add\n  jump(tag_10)\ntag_11:\n  pop\n  swap1\n  jump\t// out\ntag_4:\n  dataSize(sub_0)\n  dup1\n  dataOffset(sub_0)\n  0x00\n  codecopy\n  0x00\n  return\nstop\n\nsub_0: assembly {\n        /* \"contracts/Array.sol\":56:876  contract Arraydemo\r... */\n      mstore(0x40, 0x80)\n      callvalue\n      dup1\n      iszero\n      tag_1\n      jumpi\n      0x00\n      dup1\n      revert\n    tag_1:\n      pop\n      jumpi(tag_2, lt(calldatasize, 0x04))\n      shr(0xe0, calldataload(0x00))\n      dup1\n      0xa304654d\n      gt\n      tag_12\n      jumpi\n      dup1\n      0xa304654d\n      eq\n      tag_7\n      jumpi\n      dup1\n      0xbe1c766b\n      eq\n      tag_8\n      jumpi\n      dup1\n      0xd1bdbf6d\n      eq\n      tag_9\n      jumpi\n      dup1\n      0xfce68023\n      eq\n      tag_10\n      jumpi\n      dup1\n      0xfd1ee54c\n      eq\n      tag_11\n      jumpi\n      jump(tag_2)\n    tag_12:\n      dup1\n      0x067cda81\n      eq\n      tag_3\n      jumpi\n      dup1\n      0x0e15c63b\n      eq\n      tag_4\n      jumpi\n      dup1\n      0x19eb4a90\n      eq\n      tag_5\n      jumpi\n      dup1\n      0x79871817\n      eq\n      tag_6\n      jumpi\n    tag_2:\n      0x00\n      dup1\n      revert\n        /* \"contracts/Array.sol\":686:762  function deleteNumber(uint index)public{\r... */\n    tag_3:\n      tag_13\n      0x04\n      dup1\n      calldatasize\n      sub\n      dup2\n      add\n      swap1\n      tag_14\n      swap2\n      swap1\n      tag_15\n      jump\t// in\n    tag_14:\n      tag_16\n      jump\t// in\n    tag_13:\n      stop\n        /* \"contracts/Array.sol\":119:145  uint[4] public fixednumber */\n    tag_4:\n      tag_17\n      0x04\n      dup1\n      calldatasize\n      sub\n      dup2\n      add\n      swap1\n      tag_18\n      swap2\n      swap1\n      tag_15\n      jump\t// in\n    tag_18:\n      tag_19\n      jump\t// in\n    tag_17:\n      mload(0x40)\n      tag_20\n      swap2\n      swap1\n      tag_21\n      jump\t// in\n    tag_20:\n      mload(0x40)\n      dup1\n      swap2\n      sub\n      swap1\n      return\n        /* \"contracts/Array.sol\":152:242  function getValues()public view returns(uint[] memory)\r... */\n    tag_5:\n      tag_22\n      tag_23\n      jump\t// in\n    tag_22:\n      mload(0x40)\n      tag_24\n      swap2\n      swap1\n      tag_25\n      jump\t// in\n    tag_24:\n      mload(0x40)\n      dup1\n      swap2\n      sub\n      swap1\n      return\n        /* \"contracts/Array.sol\":768:873  function shiftNumber(uint _index,uint _no)public{\r... */\n    tag_6:\n      tag_26\n      0x04\n      dup1\n      calldatasize\n      sub\n      dup2\n      add\n      swap1\n      tag_27\n      swap2\n      swap1\n      tag_28\n      jump\t// in\n    tag_27:\n      tag_29\n      jump\t// in\n    tag_26:\n      stop\n        /* \"contracts/Array.sol\":616:680  function removeNumber()public\r... */\n    tag_7:\n      tag_30\n      tag_31\n      jump\t// in\n    tag_30:\n      stop\n        /* \"contracts/Array.sol\":358:446  function getLength()public view returns(uint)\r... */\n    tag_8:\n      tag_32\n      tag_33\n      jump\t// in\n    tag_32:\n      mload(0x40)\n      tag_34\n      swap2\n      swap1\n      tag_21\n      jump\t// in\n    tag_34:\n      mload(0x40)\n      dup1\n      swap2\n      sub\n      swap1\n      return\n        /* \"contracts/Array.sol\":248:352  function getValuesFixed() public view returns(uint[4] memory)\r... */\n    tag_9:\n      tag_35\n      tag_36\n      jump\t// in\n    tag_35:\n      mload(0x40)\n      tag_37\n      swap2\n      swap1\n      tag_38\n      jump\t// in\n    tag_37:\n      mload(0x40)\n      dup1\n      swap2\n      sub\n      swap1\n      return\n        /* \"contracts/Array.sol\":452:521  function addNumber(uint x)public\r... */\n    tag_10:\n      tag_39\n      0x04\n      dup1\n      calldatasize\n      sub\n      dup2\n      add\n      swap1\n      tag_40\n      swap2\n      swap1\n      tag_15\n      jump\t// in\n    tag_40:\n      tag_41\n      jump\t// in\n    tag_39:\n      stop\n        /* \"contracts/Array.sol\":83:112  uint[] public nums=[12,13,22] */\n    tag_11:\n      tag_42\n      0x04\n      dup1\n      calldatasize\n      sub\n      dup2\n      add\n      swap1\n      tag_43\n      swap2\n      swap1\n      tag_15\n      jump\t// in\n    tag_43:\n      tag_44\n      jump\t// in\n    tag_42:\n      mload(0x40)\n      tag_45\n      swap2\n      swap1\n      tag_21\n      jump\t// in\n    tag_45:\n      mload(0x40)\n      dup1\n      swap2\n      sub\n      swap1\n      return\n        /* \"contracts/Array.sol\":686:762  function deleteNumber(uint index)public{\r... */\n    tag_16:\n        /* \"contracts/Array.sol\":743:747  nums */\n      0x00\n        /* \"contracts/Array.sol\":748:753  index */\n      dup2\n        /* \"contracts/Array.sol\":743:754  nums[index] */\n      dup2\n      sload\n      dup2\n      lt\n      tag_47\n      jumpi\n      tag_48\n      tag_49\n      jump\t// in\n    tag_48:\n    tag_47:\n      swap1\n      0x00\n      mstore\n      keccak256(0x00, 0x20)\n      add\n        /* \"contracts/Array.sol\":736:754  delete nums[index] */\n      0x00\n      swap1\n      sstore\n        /* \"contracts/Array.sol\":686:762  function deleteNumber(uint index)public{\r... */\n      pop\n      jump\t// out\n        /* \"contracts/Array.sol\":119:145  uint[4] public fixednumber */\n    tag_19:\n      0x01\n      dup2\n      0x04\n      dup2\n      lt\n      tag_51\n      jumpi\n      0x00\n      dup1\n      revert\n    tag_51:\n      add\n      0x00\n      swap2\n      pop\n      swap1\n      pop\n      sload\n      dup2\n      jump\t// out\n        /* \"contracts/Array.sol\":152:242  function getValues()public view returns(uint[] memory)\r... */\n    tag_23:\n        /* \"contracts/Array.sol\":192:205  uint[] memory */\n      0x60\n        /* \"contracts/Array.sol\":230:234  nums */\n      0x00\n        /* \"contracts/Array.sol\":223:234  return nums */\n      dup1\n      sload\n      dup1\n      0x20\n      mul\n      0x20\n      add\n      mload(0x40)\n      swap1\n      dup2\n      add\n      0x40\n      mstore\n      dup1\n      swap3\n      swap2\n      swap1\n      dup2\n      dup2\n      mstore\n      0x20\n      add\n      dup3\n      dup1\n      sload\n      dup1\n      iszero\n      tag_54\n      jumpi\n      0x20\n      mul\n      dup3\n      add\n      swap2\n      swap1\n      0x00\n      mstore\n      keccak256(0x00, 0x20)\n      swap1\n    tag_55:\n      dup2\n      sload\n      dup2\n      mstore\n      0x20\n      add\n      swap1\n      0x01\n      add\n      swap1\n      dup1\n      dup4\n      gt\n      tag_55\n      jumpi\n    tag_54:\n      pop\n      pop\n      pop\n      pop\n      pop\n      swap1\n      pop\n        /* \"contracts/Array.sol\":152:242  function getValues()public view returns(uint[] memory)\r... */\n      swap1\n      jump\t// out\n        /* \"contracts/Array.sol\":768:873  function shiftNumber(uint _index,uint _no)public{\r... */\n    tag_29:\n        /* \"contracts/Array.sol\":840:843  _no */\n      dup1\n        /* \"contracts/Array.sol\":827:831  nums */\n      0x00\n        /* \"contracts/Array.sol\":832:838  _index */\n      dup4\n        /* \"contracts/Array.sol\":827:839  nums[_index] */\n      dup2\n      sload\n      dup2\n      lt\n      tag_57\n      jumpi\n      tag_58\n      tag_49\n      jump\t// in\n    tag_58:\n    tag_57:\n      swap1\n      0x00\n      mstore\n      keccak256(0x00, 0x20)\n      add\n        /* \"contracts/Array.sol\":827:843  nums[_index]=_no */\n      dup2\n      swap1\n      sstore\n      pop\n        /* \"contracts/Array.sol\":768:873  function shiftNumber(uint _index,uint _no)public{\r... */\n      pop\n      pop\n      jump\t// out\n        /* \"contracts/Array.sol\":616:680  function removeNumber()public\r... */\n    tag_31:\n        /* \"contracts/Array.sol\":662:666  nums */\n      0x00\n        /* \"contracts/Array.sol\":662:672  nums.pop() */\n      dup1\n      sload\n      dup1\n      tag_61\n      jumpi\n      tag_62\n      tag_63\n      jump\t// in\n    tag_62:\n    tag_61:\n      0x01\n      swap1\n      sub\n      dup2\n      dup2\n      swap1\n      0x00\n      mstore\n      keccak256(0x00, 0x20)\n      add\n      0x00\n      swap1\n      sstore\n      swap1\n      sstore\n        /* \"contracts/Array.sol\":616:680  function removeNumber()public\r... */\n      jump\t// out\n        /* \"contracts/Array.sol\":358:446  function getLength()public view returns(uint)\r... */\n    tag_33:\n        /* \"contracts/Array.sol\":398:402  uint */\n      0x00\n        /* \"contracts/Array.sol\":427:431  nums */\n      dup1\n        /* \"contracts/Array.sol\":427:438  nums.length */\n      dup1\n      sload\n      swap1\n      pop\n        /* \"contracts/Array.sol\":420:438  return nums.length */\n      swap1\n      pop\n        /* \"contracts/Array.sol\":358:446  function getLength()public view returns(uint)\r... */\n      swap1\n      jump\t// out\n        /* \"contracts/Array.sol\":248:352  function getValuesFixed() public view returns(uint[4] memory)\r... */\n    tag_36:\n        /* \"contracts/Array.sol\":294:308  uint[4] memory */\n      tag_66\n      tag_67\n      jump\t// in\n    tag_66:\n        /* \"contracts/Array.sol\":333:344  fixednumber */\n      0x01\n        /* \"contracts/Array.sol\":326:344  return fixednumber */\n      0x04\n      dup1\n      0x20\n      mul\n      mload(0x40)\n      swap1\n      dup2\n      add\n      0x40\n      mstore\n      dup1\n      swap3\n      swap2\n      swap1\n      dup3\n      0x04\n      dup1\n      iszero\n      tag_69\n      jumpi\n      0x20\n      mul\n      dup3\n      add\n      swap2\n    tag_70:\n      dup2\n      sload\n      dup2\n      mstore\n      0x20\n      add\n      swap1\n      0x01\n      add\n      swap1\n      dup1\n      dup4\n      gt\n      tag_70\n      jumpi\n    tag_69:\n      pop\n      pop\n      pop\n      pop\n      pop\n      swap1\n      pop\n        /* \"contracts/Array.sol\":248:352  function getValuesFixed() public view returns(uint[4] memory)\r... */\n      swap1\n      jump\t// out\n        /* \"contracts/Array.sol\":452:521  function addNumber(uint x)public\r... */\n    tag_41:\n        /* \"contracts/Array.sol\":501:505  nums */\n      0x00\n        /* \"contracts/Array.sol\":511:512  x */\n      dup2\n        /* \"contracts/Array.sol\":501:513  nums.push(x) */\n      swap1\n      dup1\n      0x01\n      dup2\n      sload\n      add\n      dup1\n      dup3\n      sstore\n      dup1\n      swap2\n      pop\n      pop\n      0x01\n      swap1\n      sub\n      swap1\n      0x00\n      mstore\n      keccak256(0x00, 0x20)\n      add\n      0x00\n      swap1\n      swap2\n      swap1\n      swap2\n      swap1\n      swap2\n      pop\n      sstore\n        /* \"contracts/Array.sol\":452:521  function addNumber(uint x)public\r... */\n      pop\n      jump\t// out\n        /* \"contracts/Array.sol\":83:112  uint[] public nums=[12,13,22] */\n    tag_44:\n      0x00\n      dup2\n      dup2\n      sload\n      dup2\n      lt\n      tag_73\n      jumpi\n      0x00\n      dup1\n      revert\n    tag_73:\n      swap1\n      0x00\n      mstore\n      keccak256(0x00, 0x20)\n      add\n      0x00\n      swap2\n      pop\n      swap1\n      pop\n      sload\n      dup2\n      jump\t// out\n    tag_67:\n      mload(0x40)\n      dup1\n      0x80\n      add\n      0x40\n      mstore\n      dup1\n      0x04\n      swap1\n      0x20\n      dup3\n      mul\n      dup1\n      calldatasize\n      dup4\n      calldatacopy\n      dup1\n      dup3\n      add\n      swap2\n      pop\n      pop\n      swap1\n      pop\n      pop\n      swap1\n      jump\t// out\n        /* \"#utility.yul\":7:146   */\n    tag_76:\n        /* \"#utility.yul\":53:58   */\n      0x00\n        /* \"#utility.yul\":91:97   */\n      dup2\n        /* \"#utility.yul\":78:98   */\n      calldataload\n        /* \"#utility.yul\":69:98   */\n      swap1\n      pop\n        /* \"#utility.yul\":107:140   */\n      tag_78\n        /* \"#utility.yul\":134:139   */\n      dup2\n        /* \"#utility.yul\":107:140   */\n      tag_79\n      jump\t// in\n    tag_78:\n        /* \"#utility.yul\":7:146   */\n      swap3\n      swap2\n      pop\n      pop\n      jump\t// out\n        /* \"#utility.yul\":152:481   */\n    tag_15:\n        /* \"#utility.yul\":211:217   */\n      0x00\n        /* \"#utility.yul\":260:262   */\n      0x20\n        /* \"#utility.yul\":248:257   */\n      dup3\n        /* \"#utility.yul\":239:246   */\n      dup5\n        /* \"#utility.yul\":235:258   */\n      sub\n        /* \"#utility.yul\":231:263   */\n      slt\n        /* \"#utility.yul\":228:347   */\n      iszero\n      tag_81\n      jumpi\n        /* \"#utility.yul\":266:345   */\n      tag_82\n      tag_83\n      jump\t// in\n    tag_82:\n        /* \"#utility.yul\":228:347   */\n    tag_81:\n        /* \"#utility.yul\":386:387   */\n      0x00\n        /* \"#utility.yul\":411:464   */\n      tag_84\n        /* \"#utility.yul\":456:463   */\n      dup5\n        /* \"#utility.yul\":447:453   */\n      dup3\n        /* \"#utility.yul\":436:445   */\n      dup6\n        /* \"#utility.yul\":432:454   */\n      add\n        /* \"#utility.yul\":411:464   */\n      tag_76\n      jump\t// in\n    tag_84:\n        /* \"#utility.yul\":401:464   */\n      swap2\n      pop\n        /* \"#utility.yul\":357:474   */\n      pop\n        /* \"#utility.yul\":152:481   */\n      swap3\n      swap2\n      pop\n      pop\n      jump\t// out\n        /* \"#utility.yul\":487:961   */\n    tag_28:\n        /* \"#utility.yul\":555:561   */\n      0x00\n        /* \"#utility.yul\":563:569   */\n      dup1\n        /* \"#utility.yul\":612:614   */\n      0x40\n        /* \"#utility.yul\":600:609   */\n      dup4\n        /* \"#utility.yul\":591:598   */\n      dup6\n        /* \"#utility.yul\":587:610   */\n      sub\n        /* \"#utility.yul\":583:615   */\n      slt\n        /* \"#utility.yul\":580:699   */\n      iszero\n      tag_86\n      jumpi\n        /* \"#utility.yul\":618:697   */\n      tag_87\n      tag_83\n      jump\t// in\n    tag_87:\n        /* \"#utility.yul\":580:699   */\n    tag_86:\n        /* \"#utility.yul\":738:739   */\n      0x00\n        /* \"#utility.yul\":763:816   */\n      tag_88\n        /* \"#utility.yul\":808:815   */\n      dup6\n        /* \"#utility.yul\":799:805   */\n      dup3\n        /* \"#utility.yul\":788:797   */\n      dup7\n        /* \"#utility.yul\":784:806   */\n      add\n        /* \"#utility.yul\":763:816   */\n      tag_76\n      jump\t// in\n    tag_88:\n        /* \"#utility.yul\":753:816   */\n      swap3\n      pop\n        /* \"#utility.yul\":709:826   */\n      pop\n        /* \"#utility.yul\":865:867   */\n      0x20\n        /* \"#utility.yul\":891:944   */\n      tag_89\n        /* \"#utility.yul\":936:943   */\n      dup6\n        /* \"#utility.yul\":927:933   */\n      dup3\n        /* \"#utility.yul\":916:925   */\n      dup7\n        /* \"#utility.yul\":912:934   */\n      add\n        /* \"#utility.yul\":891:944   */\n      tag_76\n      jump\t// in\n    tag_89:\n        /* \"#utility.yul\":881:944   */\n      swap2\n      pop\n        /* \"#utility.yul\":836:954   */\n      pop\n        /* \"#utility.yul\":487:961   */\n      swap3\n      pop\n      swap3\n      swap1\n      pop\n      jump\t// out\n        /* \"#utility.yul\":967:1146   */\n    tag_90:\n        /* \"#utility.yul\":1036:1046   */\n      0x00\n        /* \"#utility.yul\":1057:1103   */\n      tag_92\n        /* \"#utility.yul\":1099:1102   */\n      dup4\n        /* \"#utility.yul\":1091:1097   */\n      dup4\n        /* \"#utility.yul\":1057:1103   */\n      tag_93\n      jump\t// in\n    tag_92:\n        /* \"#utility.yul\":1135:1139   */\n      0x20\n        /* \"#utility.yul\":1130:1133   */\n      dup4\n        /* \"#utility.yul\":1126:1140   */\n      add\n        /* \"#utility.yul\":1112:1140   */\n      swap1\n      pop\n        /* \"#utility.yul\":967:1146   */\n      swap3\n      swap2\n      pop\n      pop\n      jump\t// out\n        /* \"#utility.yul\":1184:1878   */\n    tag_94:\n        /* \"#utility.yul\":1320:1372   */\n      tag_96\n        /* \"#utility.yul\":1366:1371   */\n      dup2\n        /* \"#utility.yul\":1320:1372   */\n      tag_97\n      jump\t// in\n    tag_96:\n        /* \"#utility.yul\":1388:1472   */\n      tag_98\n        /* \"#utility.yul\":1465:1471   */\n      dup2\n        /* \"#utility.yul\":1460:1463   */\n      dup5\n        /* \"#utility.yul\":1388:1472   */\n      tag_99\n      jump\t// in\n    tag_98:\n        /* \"#utility.yul\":1381:1472   */\n      swap3\n      pop\n        /* \"#utility.yul\":1496:1550   */\n      tag_100\n        /* \"#utility.yul\":1544:1549   */\n      dup3\n        /* \"#utility.yul\":1496:1550   */\n      tag_101\n      jump\t// in\n    tag_100:\n        /* \"#utility.yul\":1573:1580   */\n      dup1\n        /* \"#utility.yul\":1604:1605   */\n      0x00\n        /* \"#utility.yul\":1589:1871   */\n    tag_102:\n        /* \"#utility.yul\":1614:1620   */\n      dup4\n        /* \"#utility.yul\":1611:1612   */\n      dup2\n        /* \"#utility.yul\":1608:1621   */\n      lt\n        /* \"#utility.yul\":1589:1871   */\n      iszero\n      tag_104\n      jumpi\n        /* \"#utility.yul\":1690:1696   */\n      dup2\n        /* \"#utility.yul\":1684:1697   */\n      mload\n        /* \"#utility.yul\":1717:1780   */\n      tag_105\n        /* \"#utility.yul\":1776:1779   */\n      dup8\n        /* \"#utility.yul\":1761:1774   */\n      dup3\n        /* \"#utility.yul\":1717:1780   */\n      tag_90\n      jump\t// in\n    tag_105:\n        /* \"#utility.yul\":1710:1780   */\n      swap7\n      pop\n        /* \"#utility.yul\":1803:1861   */\n      tag_106\n        /* \"#utility.yul\":1854:1860   */\n      dup4\n        /* \"#utility.yul\":1803:1861   */\n      tag_107\n      jump\t// in\n    tag_106:\n        /* \"#utility.yul\":1793:1861   */\n      swap3\n      pop\n        /* \"#utility.yul\":1649:1871   */\n      pop\n        /* \"#utility.yul\":1636:1637   */\n      0x01\n        /* \"#utility.yul\":1633:1634   */\n      dup2\n        /* \"#utility.yul\":1629:1638   */\n      add\n        /* \"#utility.yul\":1624:1638   */\n      swap1\n      pop\n        /* \"#utility.yul\":1589:1871   */\n      jump(tag_102)\n    tag_104:\n        /* \"#utility.yul\":1593:1607   */\n      pop\n        /* \"#utility.yul\":1296:1878   */\n      pop\n      pop\n      pop\n        /* \"#utility.yul\":1184:1878   */\n      pop\n      pop\n      jump\t// out\n        /* \"#utility.yul\":1914:2646   */\n    tag_108:\n        /* \"#utility.yul\":2033:2036   */\n      0x00\n        /* \"#utility.yul\":2062:2116   */\n      tag_110\n        /* \"#utility.yul\":2110:2115   */\n      dup3\n        /* \"#utility.yul\":2062:2116   */\n      tag_111\n      jump\t// in\n    tag_110:\n        /* \"#utility.yul\":2132:2218   */\n      tag_112\n        /* \"#utility.yul\":2211:2217   */\n      dup2\n        /* \"#utility.yul\":2206:2209   */\n      dup6\n        /* \"#utility.yul\":2132:2218   */\n      tag_113\n      jump\t// in\n    tag_112:\n        /* \"#utility.yul\":2125:2218   */\n      swap4\n      pop\n        /* \"#utility.yul\":2242:2298   */\n      tag_114\n        /* \"#utility.yul\":2292:2297   */\n      dup4\n        /* \"#utility.yul\":2242:2298   */\n      tag_115\n      jump\t// in\n    tag_114:\n        /* \"#utility.yul\":2321:2328   */\n      dup1\n        /* \"#utility.yul\":2352:2353   */\n      0x00\n        /* \"#utility.yul\":2337:2621   */\n    tag_116:\n        /* \"#utility.yul\":2362:2368   */\n      dup4\n        /* \"#utility.yul\":2359:2360   */\n      dup2\n        /* \"#utility.yul\":2356:2369   */\n      lt\n        /* \"#utility.yul\":2337:2621   */\n      iszero\n      tag_118\n      jumpi\n        /* \"#utility.yul\":2438:2444   */\n      dup2\n        /* \"#utility.yul\":2432:2445   */\n      mload\n        /* \"#utility.yul\":2465:2528   */\n      tag_119\n        /* \"#utility.yul\":2524:2527   */\n      dup9\n        /* \"#utility.yul\":2509:2522   */\n      dup3\n        /* \"#utility.yul\":2465:2528   */\n      tag_90\n      jump\t// in\n    tag_119:\n        /* \"#utility.yul\":2458:2528   */\n      swap8\n      pop\n        /* \"#utility.yul\":2551:2611   */\n      tag_120\n        /* \"#utility.yul\":2604:2610   */\n      dup4\n        /* \"#utility.yul\":2551:2611   */\n      tag_121\n      jump\t// in\n    tag_120:\n        /* \"#utility.yul\":2541:2611   */\n      swap3\n      pop\n        /* \"#utility.yul\":2397:2621   */\n      pop\n        /* \"#utility.yul\":2384:2385   */\n      0x01\n        /* \"#utility.yul\":2381:2382   */\n      dup2\n        /* \"#utility.yul\":2377:2386   */\n      add\n        /* \"#utility.yul\":2372:2386   */\n      swap1\n      pop\n        /* \"#utility.yul\":2337:2621   */\n      jump(tag_116)\n    tag_118:\n        /* \"#utility.yul\":2341:2355   */\n      pop\n        /* \"#utility.yul\":2637:2640   */\n      dup6\n        /* \"#utility.yul\":2630:2640   */\n      swap4\n      pop\n        /* \"#utility.yul\":2038:2646   */\n      pop\n      pop\n      pop\n        /* \"#utility.yul\":1914:2646   */\n      swap3\n      swap2\n      pop\n      pop\n      jump\t// out\n        /* \"#utility.yul\":2652:2760   */\n    tag_93:\n        /* \"#utility.yul\":2729:2753   */\n      tag_123\n        /* \"#utility.yul\":2747:2752   */\n      dup2\n        /* \"#utility.yul\":2729:2753   */\n      tag_124\n      jump\t// in\n    tag_123:\n        /* \"#utility.yul\":2724:2727   */\n      dup3\n        /* \"#utility.yul\":2717:2754   */\n      mstore\n        /* \"#utility.yul\":2652:2760   */\n      pop\n      pop\n      jump\t// out\n        /* \"#utility.yul\":2766:2884   */\n    tag_125:\n        /* \"#utility.yul\":2853:2877   */\n      tag_127\n        /* \"#utility.yul\":2871:2876   */\n      dup2\n        /* \"#utility.yul\":2853:2877   */\n      tag_124\n      jump\t// in\n    tag_127:\n        /* \"#utility.yul\":2848:2851   */\n      dup3\n        /* \"#utility.yul\":2841:2878   */\n      mstore\n        /* \"#utility.yul\":2766:2884   */\n      pop\n      pop\n      jump\t// out\n        /* \"#utility.yul\":2890:3205   */\n    tag_38:\n        /* \"#utility.yul\":3029:3033   */\n      0x00\n        /* \"#utility.yul\":3067:3070   */\n      0x80\n        /* \"#utility.yul\":3056:3065   */\n      dup3\n        /* \"#utility.yul\":3052:3071   */\n      add\n        /* \"#utility.yul\":3044:3071   */\n      swap1\n      pop\n        /* \"#utility.yul\":3081:3198   */\n      tag_129\n        /* \"#utility.yul\":3195:3196   */\n      0x00\n        /* \"#utility.yul\":3184:3193   */\n      dup4\n        /* \"#utility.yul\":3180:3197   */\n      add\n        /* \"#utility.yul\":3171:3177   */\n      dup5\n        /* \"#utility.yul\":3081:3198   */\n      tag_94\n      jump\t// in\n    tag_129:\n        /* \"#utility.yul\":2890:3205   */\n      swap3\n      swap2\n      pop\n      pop\n      jump\t// out\n        /* \"#utility.yul\":3211:3584   */\n    tag_25:\n        /* \"#utility.yul\":3354:3358   */\n      0x00\n        /* \"#utility.yul\":3392:3394   */\n      0x20\n        /* \"#utility.yul\":3381:3390   */\n      dup3\n        /* \"#utility.yul\":3377:3395   */\n      add\n        /* \"#utility.yul\":3369:3395   */\n      swap1\n      pop\n        /* \"#utility.yul\":3441:3450   */\n      dup2\n        /* \"#utility.yul\":3435:3439   */\n      dup2\n        /* \"#utility.yul\":3431:3451   */\n      sub\n        /* \"#utility.yul\":3427:3428   */\n      0x00\n        /* \"#utility.yul\":3416:3425   */\n      dup4\n        /* \"#utility.yul\":3412:3429   */\n      add\n        /* \"#utility.yul\":3405:3452   */\n      mstore\n        /* \"#utility.yul\":3469:3577   */\n      tag_131\n        /* \"#utility.yul\":3572:3576   */\n      dup2\n        /* \"#utility.yul\":3563:3569   */\n      dup5\n        /* \"#utility.yul\":3469:3577   */\n      tag_108\n      jump\t// in\n    tag_131:\n        /* \"#utility.yul\":3461:3577   */\n      swap1\n      pop\n        /* \"#utility.yul\":3211:3584   */\n      swap3\n      swap2\n      pop\n      pop\n      jump\t// out\n        /* \"#utility.yul\":3590:3812   */\n    tag_21:\n        /* \"#utility.yul\":3683:3687   */\n      0x00\n        /* \"#utility.yul\":3721:3723   */\n      0x20\n        /* \"#utility.yul\":3710:3719   */\n      dup3\n        /* \"#utility.yul\":3706:3724   */\n      add\n        /* \"#utility.yul\":3698:3724   */\n      swap1\n      pop\n        /* \"#utility.yul\":3734:3805   */\n      tag_133\n        /* \"#utility.yul\":3802:3803   */\n      0x00\n        /* \"#utility.yul\":3791:3800   */\n      dup4\n        /* \"#utility.yul\":3787:3804   */\n      add\n        /* \"#utility.yul\":3778:3784   */\n      dup5\n        /* \"#utility.yul\":3734:3805   */\n      tag_125\n      jump\t// in\n    tag_133:\n        /* \"#utility.yul\":3590:3812   */\n      swap3\n      swap2\n      pop\n      pop\n      jump\t// out\n        /* \"#utility.yul\":3899:3997   */\n    tag_101:\n        /* \"#utility.yul\":3964:3968   */\n      0x00\n        /* \"#utility.yul\":3987:3990   */\n      dup2\n        /* \"#utility.yul\":3979:3990   */\n      swap1\n      pop\n        /* \"#utility.yul\":3899:3997   */\n      swap2\n      swap1\n      pop\n      jump\t// out\n        /* \"#utility.yul\":4003:4135   */\n    tag_115:\n        /* \"#utility.yul\":4070:4074   */\n      0x00\n        /* \"#utility.yul\":4093:4096   */\n      dup2\n        /* \"#utility.yul\":4085:4096   */\n      swap1\n      pop\n        /* \"#utility.yul\":4123:4127   */\n      0x20\n        /* \"#utility.yul\":4118:4121   */\n      dup3\n        /* \"#utility.yul\":4114:4128   */\n      add\n        /* \"#utility.yul\":4106:4128   */\n      swap1\n      pop\n        /* \"#utility.yul\":4003:4135   */\n      swap2\n      swap1\n      pop\n      jump\t// out\n        /* \"#utility.yul\":4141:4245   */\n    tag_97:\n        /* \"#utility.yul\":4206:4212   */\n      0x00\n        /* \"#utility.yul\":4234:4238   */\n      0x04\n        /* \"#utility.yul\":4224:4238   */\n      swap1\n      pop\n        /* \"#utility.yul\":4141:4245   */\n      swap2\n      swap1\n      pop\n      jump\t// out\n        /* \"#utility.yul\":4251:4365   */\n    tag_111:\n        /* \"#utility.yul\":4318:4324   */\n      0x00\n        /* \"#utility.yul\":4352:4357   */\n      dup2\n        /* \"#utility.yul\":4346:4358   */\n      mload\n        /* \"#utility.yul\":4336:4358   */\n      swap1\n      pop\n        /* \"#utility.yul\":4251:4365   */\n      swap2\n      swap1\n      pop\n      jump\t// out\n        /* \"#utility.yul\":4371:4482   */\n    tag_107:\n        /* \"#utility.yul\":4439:4443   */\n      0x00\n        /* \"#utility.yul\":4471:4475   */\n      0x20\n        /* \"#utility.yul\":4466:4469   */\n      dup3\n        /* \"#utility.yul\":4462:4476   */\n      add\n        /* \"#utility.yul\":4454:4476   */\n      swap1\n      pop\n        /* \"#utility.yul\":4371:4482   */\n      swap2\n      swap1\n      pop\n      jump\t// out\n        /* \"#utility.yul\":4488:4601   */\n    tag_121:\n        /* \"#utility.yul\":4558:4562   */\n      0x00\n        /* \"#utility.yul\":4590:4594   */\n      0x20\n        /* \"#utility.yul\":4585:4588   */\n      dup3\n        /* \"#utility.yul\":4581:4595   */\n      add\n        /* \"#utility.yul\":4573:4595   */\n      swap1\n      pop\n        /* \"#utility.yul\":4488:4601   */\n      swap2\n      swap1\n      pop\n      jump\t// out\n        /* \"#utility.yul\":4607:4750   */\n    tag_99:\n        /* \"#utility.yul\":4704:4715   */\n      0x00\n        /* \"#utility.yul\":4741:4744   */\n      dup2\n        /* \"#utility.yul\":4726:4744   */\n      swap1\n      pop\n        /* \"#utility.yul\":4607:4750   */\n      swap3\n      swap2\n      pop\n      pop\n      jump\t// out\n        /* \"#utility.yul\":4756:4940   */\n    tag_113:\n        /* \"#utility.yul\":4855:4866   */\n      0x00\n        /* \"#utility.yul\":4889:4895   */\n      dup3\n        /* \"#utility.yul\":4884:4887   */\n      dup3\n        /* \"#utility.yul\":4877:4896   */\n      mstore\n        /* \"#utility.yul\":4929:4933   */\n      0x20\n        /* \"#utility.yul\":4924:4927   */\n      dup3\n        /* \"#utility.yul\":4920:4934   */\n      add\n        /* \"#utility.yul\":4905:4934   */\n      swap1\n      pop\n        /* \"#utility.yul\":4756:4940   */\n      swap3\n      swap2\n      pop\n      pop\n      jump\t// out\n        /* \"#utility.yul\":4946:5023   */\n    tag_124:\n        /* \"#utility.yul\":4983:4990   */\n      0x00\n        /* \"#utility.yul\":5012:5017   */\n      dup2\n        /* \"#utility.yul\":5001:5017   */\n      swap1\n      pop\n        /* \"#utility.yul\":4946:5023   */\n      swap2\n      swap1\n      pop\n      jump\t// out\n        /* \"#utility.yul\":5029:5209   */\n    tag_63:\n        /* \"#utility.yul\":5077:5154   */\n      0x4e487b7100000000000000000000000000000000000000000000000000000000\n        /* \"#utility.yul\":5074:5075   */\n      0x00\n        /* \"#utility.yul\":5067:5155   */\n      mstore\n        /* \"#utility.yul\":5174:5178   */\n      0x31\n        /* \"#utility.yul\":5171:5172   */\n      0x04\n        /* \"#utility.yul\":5164:5179   */\n      mstore\n        /* \"#utility.yul\":5198:5202   */\n      0x24\n        /* \"#utility.yul\":5195:5196   */\n      0x00\n        /* \"#utility.yul\":5188:5203   */\n      revert\n        /* \"#utility.yul\":5215:5395   */\n    tag_49:\n        /* \"#utility.yul\":5263:5340   */\n      0x4e487b7100000000000000000000000000000000000000000000000000000000\n        /* \"#utility.yul\":5260:5261   */\n      0x00\n        /* \"#utility.yul\":5253:5341   */\n      mstore\n        /* \"#utility.yul\":5360:5364   */\n      0x32\n        /* \"#utility.yul\":5357:5358   */\n      0x04\n        /* \"#utility.yul\":5350:5365   */\n      mstore\n        /* \"#utility.yul\":5384:5388   */\n      0x24\n        /* \"#utility.yul\":5381:5382   */\n      0x00\n        /* \"#utility.yul\":5374:5389   */\n      revert\n        /* \"#utility.yul\":5524:5641   */\n    tag_83:\n        /* \"#utility.yul\":5633:5634   */\n      0x00\n        /* \"#utility.yul\":5630:5631   */\n      dup1\n        /* \"#utility.yul\":5623:5635   */\n      revert\n        /* \"#utility.yul\":5647:5769   */\n    tag_79:\n        /* \"#utility.yul\":5720:5744   */\n      tag_151\n        /* \"#utility.yul\":5738:5743   */\n      dup2\n        /* \"#utility.yul\":5720:5744   */\n      tag_124\n      jump\t// in\n    tag_151:\n        /* \"#utility.yul\":5713:5718   */\n      dup2\n        /* \"#utility.yul\":5710:5745   */\n      eq\n        /* \"#utility.yul\":5700:5763   */\n      tag_152\n      jumpi\n        /* \"#utility.yul\":5759:5760   */\n      0x00\n        /* \"#utility.yul\":5756:5757   */\n      dup1\n        /* \"#utility.yul\":5749:5761   */\n      revert\n        /* \"#utility.yul\":5700:5763   */\n    tag_152:\n        /* \"#utility.yul\":5647:5769   */\n      pop\n      jump\t// out\n\n    auxdata: 0xa2646970667358221220ed35b6797674064e496fe39147e339b1d2a74fd58863be5cfb8998964aeacb1964736f6c63430008070033\n}\n",
				"bytecode": {
					"linkReferences": {},
					"object": "60806040526040518060600160405280600c60ff168152602001600d60ff168152602001601660ff16815250600090600361003b92919061004e565b5034801561004857600080fd5b506100bd565b82805482825590600052602060002090810192821561008f579160200282015b8281111561008e578251829060ff1690559160200191906001019061006e565b5b50905061009c91906100a0565b5090565b5b808211156100b95760008160009055506001016100a1565b5090565b610647806100cc6000396000f3fe608060405234801561001057600080fd5b50600436106100935760003560e01c8063a304654d11610066578063a304654d1461011e578063be1c766b14610128578063d1bdbf6d14610146578063fce6802314610164578063fd1ee54c1461018057610093565b8063067cda81146100985780630e15c63b146100b457806319eb4a90146100e45780637987181714610102575b600080fd5b6100b260048036038101906100ad9190610377565b6101b0565b005b6100ce60048036038101906100c99190610377565b6101d5565b6040516100db919061050c565b60405180910390f35b6100ec6101f0565b6040516100f991906104ea565b60405180910390f35b61011c600480360381019061011791906103a4565b610248565b005b61012661026f565b005b610130610299565b60405161013d919061050c565b60405180910390f35b61014e6102a5565b60405161015b91906104cf565b60405180910390f35b61017e60048036038101906101799190610377565b6102f0565b005b61019a60048036038101906101959190610377565b61031c565b6040516101a7919061050c565b60405180910390f35b600081815481106101c4576101c36105c6565b5b906000526020600020016000905550565b600181600481106101e557600080fd5b016000915090505481565b6060600080548060200260200160405190810160405280929190818152602001828054801561023e57602002820191906000526020600020905b81548152602001906001019080831161022a575b5050505050905090565b806000838154811061025d5761025c6105c6565b5b90600052602060002001819055505050565b600080548061028157610280610597565b5b60019003818190600052602060002001600090559055565b60008080549050905090565b6102ad610340565b60016004806020026040519081016040528092919082600480156102e6576020028201915b8154815260200190600101908083116102d2575b5050505050905090565b600081908060018154018082558091505060019003906000526020600020016000909190919091505550565b6000818154811061032c57600080fd5b906000526020600020016000915090505481565b6040518060800160405280600490602082028036833780820191505090505090565b600081359050610371816105fa565b92915050565b60006020828403121561038d5761038c6105f5565b5b600061039b84828501610362565b91505092915050565b600080604083850312156103bb576103ba6105f5565b5b60006103c985828601610362565b92505060206103da85828601610362565b9150509250929050565b60006103f083836104b1565b60208301905092915050565b61040581610541565b61040f8184610571565b925061041a82610527565b8060005b8381101561044b57815161043287826103e4565b965061043d83610557565b92505060018101905061041e565b505050505050565b600061045e8261054c565b610468818561057c565b935061047383610531565b8060005b838110156104a457815161048b88826103e4565b975061049683610564565b925050600181019050610477565b5085935050505092915050565b6104ba8161058d565b82525050565b6104c98161058d565b82525050565b60006080820190506104e460008301846103fc565b92915050565b600060208201905081810360008301526105048184610453565b905092915050565b600060208201905061052160008301846104c0565b92915050565b6000819050919050565b6000819050602082019050919050565b600060049050919050565b600081519050919050565b6000602082019050919050565b6000602082019050919050565b600081905092915050565b600082825260208201905092915050565b6000819050919050565b7f4e487b7100000000000000000000000000000000000000000000000000000000600052603160045260246000fd5b7f4e487b7100000000000000000000000000000000000000000000000000000000600052603260045260246000fd5b600080fd5b6106038161058d565b811461060e57600080fd5b5056fea2646970667358221220ed35b6797674064e496fe39147e339b1d2a74fd58863be5cfb8998964aeacb1964736f6c63430008070033",
					"opcodes": "PUSH1 0x80 PUSH1 0x40 MSTORE PUSH1 0x40 MLOAD DUP1 PUSH1 0x60 ADD PUSH1 0x40 MSTORE DUP1 PUSH1 0xC PUSH1 0xFF AND DUP2 MSTORE PUSH1 0x20 ADD PUSH1 0xD PUSH1 0xFF AND DUP2 MSTORE PUSH1 0x20 ADD PUSH1 0x16 PUSH1 0xFF AND DUP2 MSTORE POP PUSH1 0x0 SWAP1 PUSH1 0x3 PUSH2 0x3B SWAP3 SWAP2 SWAP1 PUSH2 0x4E JUMP JUMPDEST POP CALLVALUE DUP1 ISZERO PUSH2 0x48 JUMPI PUSH1 0x0 DUP1 REVERT JUMPDEST POP PUSH2 0xBD JUMP JUMPDEST DUP3 DUP1 SLOAD DUP3 DUP3 SSTORE SWAP1 PUSH1 0x0 MSTORE PUSH1 0x20 PUSH1 0x0 KECCAK256 SWAP1 DUP2 ADD SWAP3 DUP3 ISZERO PUSH2 0x8F JUMPI SWAP2 PUSH1 0x20 MUL DUP3 ADD JUMPDEST DUP3 DUP2 GT ISZERO PUSH2 0x8E JUMPI DUP3 MLOAD DUP3 SWAP1 PUSH1 0xFF AND SWAP1 SSTORE SWAP2 PUSH1 0x20 ADD SWAP2 SWAP1 PUSH1 0x1 ADD SWAP1 PUSH2 0x6E JUMP JUMPDEST JUMPDEST POP SWAP1 POP PUSH2 0x9C SWAP2 SWAP1 PUSH2 0xA0 JUMP JUMPDEST POP SWAP1 JUMP JUMPDEST JUMPDEST DUP1 DUP3 GT ISZERO PUSH2 0xB9 JUMPI PUSH1 0x0 DUP2 PUSH1 0x0 SWAP1 SSTORE POP PUSH1 0x1 ADD PUSH2 0xA1 JUMP JUMPDEST POP SWAP1 JUMP JUMPDEST PUSH2 0x647 DUP1 PUSH2 0xCC PUSH1 0x0 CODECOPY PUSH1 0x0 RETURN INVALID PUSH1 0x80 PUSH1 0x40 MSTORE CALLVALUE DUP1 ISZERO PUSH2 0x10 JUMPI PUSH1 0x0 DUP1 REVERT JUMPDEST POP PUSH1 0x4 CALLDATASIZE LT PUSH2 0x93 JUMPI PUSH1 0x0 CALLDATALOAD PUSH1 0xE0 SHR DUP1 PUSH4 0xA304654D GT PUSH2 0x66 JUMPI DUP1 PUSH4 0xA304654D EQ PUSH2 0x11E JUMPI DUP1 PUSH4 0xBE1C766B EQ PUSH2 0x128 JUMPI DUP1 PUSH4 0xD1BDBF6D EQ PUSH2 0x146 JUMPI DUP1 PUSH4 0xFCE68023 EQ PUSH2 0x164 JUMPI DUP1 PUSH4 0xFD1EE54C EQ PUSH2 0x180 JUMPI PUSH2 0x93 JUMP JUMPDEST DUP1 PUSH4 0x67CDA81 EQ PUSH2 0x98 JUMPI DUP1 PUSH4 0xE15C63B EQ PUSH2 0xB4 JUMPI DUP1 PUSH4 0x19EB4A90 EQ PUSH2 0xE4 JUMPI DUP1 PUSH4 0x79871817 EQ PUSH2 0x102 JUMPI JUMPDEST PUSH1 0x0 DUP1 REVERT JUMPDEST PUSH2 0xB2 PUSH1 0x4 DUP1 CALLDATASIZE SUB DUP2 ADD SWAP1 PUSH2 0xAD SWAP2 SWAP1 PUSH2 0x377 JUMP JUMPDEST PUSH2 0x1B0 JUMP JUMPDEST STOP JUMPDEST PUSH2 0xCE PUSH1 0x4 DUP1 CALLDATASIZE SUB DUP2 ADD SWAP1 PUSH2 0xC9 SWAP2 SWAP1 PUSH2 0x377 JUMP JUMPDEST PUSH2 0x1D5 JUMP JUMPDEST PUSH1 0x40 MLOAD PUSH2 0xDB SWAP2 SWAP1 PUSH2 0x50C JUMP JUMPDEST PUSH1 0x40 MLOAD DUP1 SWAP2 SUB SWAP1 RETURN JUMPDEST PUSH2 0xEC PUSH2 0x1F0 JUMP JUMPDEST PUSH1 0x40 MLOAD PUSH2 0xF9 SWAP2 SWAP1 PUSH2 0x4EA JUMP JUMPDEST PUSH1 0x40 MLOAD DUP1 SWAP2 SUB SWAP1 RETURN JUMPDEST PUSH2 0x11C PUSH1 0x4 DUP1 CALLDATASIZE SUB DUP2 ADD SWAP1 PUSH2 0x117 SWAP2 SWAP1 PUSH2 0x3A4 JUMP JUMPDEST PUSH2 0x248 JUMP JUMPDEST STOP JUMPDEST PUSH2 0x126 PUSH2 0x26F JUMP JUMPDEST STOP JUMPDEST PUSH2 0x130 PUSH2 0x299 JUMP JUMPDEST PUSH1 0x40 MLOAD PUSH2 0x13D SWAP2 SWAP1 PUSH2 0x50C JUMP JUMPDEST PUSH1 0x40 MLOAD DUP1 SWAP2 SUB SWAP1 RETURN JUMPDEST PUSH2 0x14E PUSH2 0x2A5 JUMP JUMPDEST PUSH1 0x40 MLOAD PUSH2 0x15B SWAP2 SWAP1 PUSH2 0x4CF JUMP JUMPDEST PUSH1 0x40 MLOAD DUP1 SWAP2 SUB SWAP1 RETURN JUMPDEST PUSH2 0x17E PUSH1 0x4 DUP1 CALLDATASIZE SUB DUP2 ADD SWAP1 PUSH2 0x179 SWAP2 SWAP1 PUSH2 0x377 JUMP JUMPDEST PUSH2 0x2F0 JUMP JUMPDEST STOP JUMPDEST PUSH2 0x19A PUSH1 0x4 DUP1 CALLDATASIZE SUB DUP2 ADD SWAP1 PUSH2 0x195 SWAP2 SWAP1 PUSH2 0x377 JUMP JUMPDEST PUSH2 0x31C JUMP JUMPDEST PUSH1 0x40 MLOAD PUSH2 0x1A7 SWAP2 SWAP1 PUSH2 0x50C JUMP JUMPDEST PUSH1 0x40 MLOAD DUP1 SWAP2 SUB SWAP1 RETURN JUMPDEST PUSH1 0x0 DUP2 DUP2 SLOAD DUP2 LT PUSH2 0x1C4 JUMPI PUSH2 0x1C3 PUSH2 0x5C6 JUMP JUMPDEST JUMPDEST SWAP1 PUSH1 0x0 MSTORE PUSH1 0x20 PUSH1 0x0 KECCAK256 ADD PUSH1 0x0 SWAP1 SSTORE POP JUMP JUMPDEST PUSH1 0x1 DUP2 PUSH1 0x4 DUP2 LT PUSH2 0x1E5 JUMPI PUSH1 0x0 DUP1 REVERT JUMPDEST ADD PUSH1 0x0 SWAP2 POP SWAP1 POP SLOAD DUP2 JUMP JUMPDEST PUSH1 0x60 PUSH1 0x0 DUP1 SLOAD DUP1 PUSH1 0x20 MUL PUSH1 0x20 ADD PUSH1 0x40 MLOAD SWAP1 DUP2 ADD PUSH1 0x40 MSTORE DUP1 SWAP3 SWAP2 SWAP1 DUP2 DUP2 MSTORE PUSH1 0x20 ADD DUP3 DUP1 SLOAD DUP1 ISZERO PUSH2 0x23E JUMPI PUSH1 0x20 MUL DUP3 ADD SWAP2 SWAP1 PUSH1 0x0 MSTORE PUSH1 0x20 PUSH1 0x0 KECCAK256 SWAP1 JUMPDEST DUP2 SLOAD DUP2 MSTORE PUSH1 0x20 ADD SWAP1 PUSH1 0x1 ADD SWAP1 DUP1 DUP4 GT PUSH2 0x22A JUMPI JUMPDEST POP POP POP POP POP SWAP1 POP SWAP1 JUMP JUMPDEST DUP1 PUSH1 0x0 DUP4 DUP2 SLOAD DUP2 LT PUSH2 0x25D JUMPI PUSH2 0x25C PUSH2 0x5C6 JUMP JUMPDEST JUMPDEST SWAP1 PUSH1 0x0 MSTORE PUSH1 0x20 PUSH1 0x0 KECCAK256 ADD DUP2 SWAP1 SSTORE POP POP POP JUMP JUMPDEST PUSH1 0x0 DUP1 SLOAD DUP1 PUSH2 0x281 JUMPI PUSH2 0x280 PUSH2 0x597 JUMP JUMPDEST JUMPDEST PUSH1 0x1 SWAP1 SUB DUP2 DUP2 SWAP1 PUSH1 0x0 MSTORE PUSH1 0x20 PUSH1 0x0 KECCAK256 ADD PUSH1 0x0 SWAP1 SSTORE SWAP1 SSTORE JUMP JUMPDEST PUSH1 0x0 DUP1 DUP1 SLOAD SWAP1 POP SWAP1 POP SWAP1 JUMP JUMPDEST PUSH2 0x2AD PUSH2 0x340 JUMP JUMPDEST PUSH1 0x1 PUSH1 0x4 DUP1 PUSH1 0x20 MUL PUSH1 0x40 MLOAD SWAP1 DUP2 ADD PUSH1 0x40 MSTORE DUP1 SWAP3 SWAP2 SWAP1 DUP3 PUSH1 0x4 DUP1 ISZERO PUSH2 0x2E6 JUMPI PUSH1 0x20 MUL DUP3 ADD SWAP2 JUMPDEST DUP2 SLOAD DUP2 MSTORE PUSH1 0x20 ADD SWAP1 PUSH1 0x1 ADD SWAP1 DUP1 DUP4 GT PUSH2 0x2D2 JUMPI JUMPDEST POP POP POP POP POP SWAP1 POP SWAP1 JUMP JUMPDEST PUSH1 0x0 DUP2 SWAP1 DUP1 PUSH1 0x1 DUP2 SLOAD ADD DUP1 DUP3 SSTORE DUP1 SWAP2 POP POP PUSH1 0x1 SWAP1 SUB SWAP1 PUSH1 0x0 MSTORE PUSH1 0x20 PUSH1 0x0 KECCAK256 ADD PUSH1 0x0 SWAP1 SWAP2 SWAP1 SWAP2 SWAP1 SWAP2 POP SSTORE POP JUMP JUMPDEST PUSH1 0x0 DUP2 DUP2 SLOAD DUP2 LT PUSH2 0x32C JUMPI PUSH1 0x0 DUP1 REVERT JUMPDEST SWAP1 PUSH1 0x0 MSTORE PUSH1 0x20 PUSH1 0x0 KECCAK256 ADD PUSH1 0x0 SWAP2 POP SWAP1 POP SLOAD DUP2 JUMP JUMPDEST PUSH1 0x40 MLOAD DUP1 PUSH1 0x80 ADD PUSH1 0x40 MSTORE DUP1 PUSH1 0x4 SWAP1 PUSH1 0x20 DUP3 MUL DUP1 CALLDATASIZE DUP4 CALLDATACOPY DUP1 DUP3 ADD SWAP2 POP POP SWAP1 POP POP SWAP1 JUMP JUMPDEST PUSH1 0x0 DUP2 CALLDATALOAD SWAP1 POP PUSH2 0x371 DUP2 PUSH2 0x5FA JUMP JUMPDEST SWAP3 SWAP2 POP POP JUMP JUMPDEST PUSH1 0x0 PUSH1 0x20 DUP3 DUP5 SUB SLT ISZERO PUSH2 0x38D JUMPI PUSH2 0x38C PUSH2 0x5F5 JUMP JUMPDEST JUMPDEST PUSH1 0x0 PUSH2 0x39B DUP5 DUP3 DUP6 ADD PUSH2 0x362 JUMP JUMPDEST SWAP2 POP POP SWAP3 SWAP2 POP POP JUMP JUMPDEST PUSH1 0x0 DUP1 PUSH1 0x40 DUP4 DUP6 SUB SLT ISZERO PUSH2 0x3BB JUMPI PUSH2 0x3BA PUSH2 0x5F5 JUMP JUMPDEST JUMPDEST PUSH1 0x0 PUSH2 0x3C9 DUP6 DUP3 DUP7 ADD PUSH2 0x362 JUMP JUMPDEST SWAP3 POP POP PUSH1 0x20 PUSH2 0x3DA DUP6 DUP3 DUP7 ADD PUSH2 0x362 JUMP JUMPDEST SWAP2 POP POP SWAP3 POP SWAP3 SWAP1 POP JUMP JUMPDEST PUSH1 0x0 PUSH2 0x3F0 DUP4 DUP4 PUSH2 0x4B1 JUMP JUMPDEST PUSH1 0x20 DUP4 ADD SWAP1 POP SWAP3 SWAP2 POP POP JUMP JUMPDEST PUSH2 0x405 DUP2 PUSH2 0x541 JUMP JUMPDEST PUSH2 0x40F DUP2 DUP5 PUSH2 0x571 JUMP JUMPDEST SWAP3 POP PUSH2 0x41A DUP3 PUSH2 0x527 JUMP JUMPDEST DUP1 PUSH1 0x0 JUMPDEST DUP4 DUP2 LT ISZERO PUSH2 0x44B JUMPI DUP2 MLOAD PUSH2 0x432 DUP8 DUP3 PUSH2 0x3E4 JUMP JUMPDEST SWAP7 POP PUSH2 0x43D DUP4 PUSH2 0x557 JUMP JUMPDEST SWAP3 POP POP PUSH1 0x1 DUP2 ADD SWAP1 POP PUSH2 0x41E JUMP JUMPDEST POP POP POP POP POP POP JUMP JUMPDEST PUSH1 0x0 PUSH2 0x45E DUP3 PUSH2 0x54C JUMP JUMPDEST PUSH2 0x468 DUP2 DUP6 PUSH2 0x57C JUMP JUMPDEST SWAP4 POP PUSH2 0x473 DUP4 PUSH2 0x531 JUMP JUMPDEST DUP1 PUSH1 0x0 JUMPDEST DUP4 DUP2 LT ISZERO PUSH2 0x4A4 JUMPI DUP2 MLOAD PUSH2 0x48B DUP9 DUP3 PUSH2 0x3E4 JUMP JUMPDEST SWAP8 POP PUSH2 0x496 DUP4 PUSH2 0x564 JUMP JUMPDEST SWAP3 POP POP PUSH1 0x1 DUP2 ADD SWAP1 POP PUSH2 0x477 JUMP JUMPDEST POP DUP6 SWAP4 POP POP POP POP SWAP3 SWAP2 POP POP JUMP JUMPDEST PUSH2 0x4BA DUP2 PUSH2 0x58D JUMP JUMPDEST DUP3 MSTORE POP POP JUMP JUMPDEST PUSH2 0x4C9 DUP2 PUSH2 0x58D JUMP JUMPDEST DUP3 MSTORE POP POP JUMP JUMPDEST PUSH1 0x0 PUSH1 0x80 DUP3 ADD SWAP1 POP PUSH2 0x4E4 PUSH1 0x0 DUP4 ADD DUP5 PUSH2 0x3FC JUMP JUMPDEST SWAP3 SWAP2 POP POP JUMP JUMPDEST PUSH1 0x0 PUSH1 0x20 DUP3 ADD SWAP1 POP DUP2 DUP2 SUB PUSH1 0x0 DUP4 ADD MSTORE PUSH2 0x504 DUP2 DUP5 PUSH2 0x453 JUMP JUMPDEST SWAP1 POP SWAP3 SWAP2 POP POP JUMP JUMPDEST PUSH1 0x0 PUSH1 0x20 DUP3 ADD SWAP1 POP PUSH2 0x521 PUSH1 0x0 DUP4 ADD DUP5 PUSH2 0x4C0 JUMP JUMPDEST SWAP3 SWAP2 POP POP JUMP JUMPDEST PUSH1 0x0 DUP2 SWAP1 POP SWAP2 SWAP1 POP JUMP JUMPDEST PUSH1 0x0 DUP2 SWAP1 POP PUSH1 0x20 DUP3 ADD SWAP1 POP SWAP2 SWAP1 POP JUMP JUMPDEST PUSH1 0x0 PUSH1 0x4 SWAP1 POP SWAP2 SWAP1 POP JUMP JUMPDEST PUSH1 0x0 DUP2 MLOAD SWAP1 POP SWAP2 SWAP1 POP JUMP JUMPDEST PUSH1 0x0 PUSH1 0x20 DUP3 ADD SWAP1 POP SWAP2 SWAP1 POP JUMP JUMPDEST PUSH1 0x0 PUSH1 0x20 DUP3 ADD SWAP1 POP SWAP2 SWAP1 POP JUMP JUMPDEST PUSH1 0x0 DUP2 SWAP1 POP SWAP3 SWAP2 POP POP JUMP JUMPDEST PUSH1 0x0 DUP3 DUP3 MSTORE PUSH1 0x20 DUP3 ADD SWAP1 POP SWAP3 SWAP2 POP POP JUMP JUMPDEST PUSH1 0x0 DUP2 SWAP1 POP SWAP2 SWAP1 POP JUMP JUMPDEST PUSH32 0x4E487B7100000000000000000000000000000000000000000000000000000000 PUSH1 0x0 MSTORE PUSH1 0x31 PUSH1 0x4 MSTORE PUSH1 0x24 PUSH1 0x0 REVERT JUMPDEST PUSH32 0x4E487B7100000000000000000000000000000000000000000000000000000000 PUSH1 0x0 MSTORE PUSH1 0x32 PUSH1 0x4 MSTORE PUSH1 0x24 PUSH1 0x0 REVERT JUMPDEST PUSH1 0x0 DUP1 REVERT JUMPDEST PUSH2 0x603 DUP2 PUSH2 0x58D JUMP JUMPDEST DUP2 EQ PUSH2 0x60E JUMPI PUSH1 0x0 DUP1 REVERT JUMPDEST POP JUMP INVALID LOG2 PUSH5 0x6970667358 0x22 SLT KECCAK256 0xED CALLDATALOAD 0xB6 PUSH26 0x7674064E496FE39147E339B1D2A74FD58863BE5CFB8998964AEA 0xCB NOT PUSH5 0x736F6C6343 STOP ADDMOD SMOD STOP CALLER "
				},
				"gasEstimates": {
					"creation": {
						"codeDepositCost": "321400",
						"executionCost": "infinite",
						"totalCost": "infinite"
					},
					"external": {
						"addNumber(uint256)": "46895",
						"deleteNumber(uint256)": "7596",
						"fixednumber(uint256)": "infinite",
						"getLength()": "2467",
						"getValues()": "infinite",
						"getValuesFixed()": "infinite",
						"nums(uint256)": "infinite",
						"removeNumber()": "29445",
						"shiftNumber(uint256,uint256)": "infinite"
					}
				},
				"methodIdentifiers": {
					"addNumber(uint256)": "fce68023",
					"deleteNumber(uint256)": "067cda81",
					"fixednumber(uint256)": "0e15c63b",
					"getLength()": "be1c766b",
					"getValues()": "19eb4a90",
					"getValuesFixed()": "d1bdbf6d",
					"nums(uint256)": "fd1ee54c",
					"removeNumber()": "a304654d",
					"shiftNumber(uint256,uint256)": "79871817"
				}
			},
			"storageLayout": {
				"storage": [
					{
						"astId": 8,
						"contract": "contracts/Array.sol:Arraydemo",
						"label": "nums",
						"offset": 0,
						"slot": "0",
						"type": "t_array(t_uint256)dyn_storage"
					},
					{
						"astId": 12,
						"contract": "contracts/Array.sol:Arraydemo",
						"label": "fixednumber",
						"offset": 0,
						"slot": "1",
						"type": "t_array(t_uint256)4_storage"
					}
				],
				"types": {
					"t_array(t_uint256)4_storage": {
						"base": "t_uint256",
						"encoding": "inplace",
						"label": "uint256[4]",
						"numberOfBytes": "128"
					},
					"t_array(t_uint256)dyn_storage": {
						"base": "t_uint256",
						"encoding": "dynamic_array",
						"label": "uint256[]",
						"numberOfBytes": "32"
					},
					"t_uint256": {
						"encoding": "inplace",
						"label": "uint256",
						"numberOfBytes": "32"
					}
				}
			},
			"userdoc": {
				"kind": "user",
				"methods": {},
				"version": 1
			}
		}
	}
}