{
	"contracts/ContructorDemo.sol": {
		"A": {
			"abi": [
				{
					"inputs": [],
					"stateMutability": "nonpayable",
					"type": "constructor"
				},
				{
					"inputs": [],
					"name": "num",
					"outputs": [
						{
							"internalType": "uint256",
							"name": "",
							"type": "uint256"
						}
					],
					"stateMutability": "view",
					"type": "function"
				}
			],
			"devdoc": {
				"kind": "dev",
				"methods": {},
				"version": 1
			},
			"evm": {
				"assembly": "    /* \"contracts/ContructorDemo.sol\":58:145  contract A{\r... */\n  mstore(0x40, 0x80)\n    /* \"contracts/ContructorDemo.sol\":95:136  constructor() {\r... */\n  callvalue\n  dup1\n  iszero\n  tag_1\n  jumpi\n  0x00\n  dup1\n  revert\ntag_1:\n  pop\n    /* \"contracts/ContructorDemo.sol\":124:126  15 */\n  0x0f\n    /* \"contracts/ContructorDemo.sol\":120:123  num */\n  0x00\n    /* \"contracts/ContructorDemo.sol\":120:126  num=15 */\n  dup2\n  swap1\n  sstore\n  pop\n    /* \"contracts/ContructorDemo.sol\":58:145  contract A{\r... */\n  dataSize(sub_0)\n  dup1\n  dataOffset(sub_0)\n  0x00\n  codecopy\n  0x00\n  return\nstop\n\nsub_0: assembly {\n        /* \"contracts/ContructorDemo.sol\":58:145  contract A{\r... */\n      mstore(0x40, 0x80)\n      callvalue\n      dup1\n      iszero\n      tag_1\n      jumpi\n      0x00\n      dup1\n      revert\n    tag_1:\n      pop\n      jumpi(tag_2, lt(calldatasize, 0x04))\n      shr(0xe0, calldataload(0x00))\n      dup1\n      0x4e70b1dc\n      eq\n      tag_3\n      jumpi\n    tag_2:\n      0x00\n      dup1\n      revert\n        /* \"contracts/ContructorDemo.sol\":73:88  uint public num */\n    tag_3:\n      tag_4\n      tag_5\n      jump\t// in\n    tag_4:\n      mload(0x40)\n      tag_6\n      swap2\n      swap1\n      tag_7\n      jump\t// in\n    tag_6:\n      mload(0x40)\n      dup1\n      swap2\n      sub\n      swap1\n      return\n    tag_5:\n      sload(0x00)\n      dup2\n      jump\t// out\n        /* \"#utility.yul\":7:125   */\n    tag_9:\n        /* \"#utility.yul\":94:118   */\n      tag_11\n        /* \"#utility.yul\":112:117   */\n      dup2\n        /* \"#utility.yul\":94:118   */\n      tag_12\n      jump\t// in\n    tag_11:\n        /* \"#utility.yul\":89:92   */\n      dup3\n        /* \"#utility.yul\":82:119   */\n      mstore\n        /* \"#utility.yul\":7:125   */\n      pop\n      pop\n      jump\t// out\n        /* \"#utility.yul\":131:353   */\n    tag_7:\n        /* \"#utility.yul\":224:228   */\n      0x00\n        /* \"#utility.yul\":262:264   */\n      0x20\n        /* \"#utility.yul\":251:260   */\n      dup3\n        /* \"#utility.yul\":247:265   */\n      add\n        /* \"#utility.yul\":239:265   */\n      swap1\n      pop\n        /* \"#utility.yul\":275:346   */\n      tag_14\n        /* \"#utility.yul\":343:344   */\n      0x00\n        /* \"#utility.yul\":332:341   */\n      dup4\n        /* \"#utility.yul\":328:345   */\n      add\n        /* \"#utility.yul\":319:325   */\n      dup5\n        /* \"#utility.yul\":275:346   */\n      tag_9\n      jump\t// in\n    tag_14:\n        /* \"#utility.yul\":131:353   */\n      swap3\n      swap2\n      pop\n      pop\n      jump\t// out\n        /* \"#utility.yul\":359:436   */\n    tag_12:\n        /* \"#utility.yul\":396:403   */\n      0x00\n        /* \"#utility.yul\":425:430   */\n      dup2\n        /* \"#utility.yul\":414:430   */\n      swap1\n      pop\n        /* \"#utility.yul\":359:436   */\n      swap2\n      swap1\n      pop\n      jump\t// out\n\n    auxdata: 0xa2646970667358221220c859c47952e4172447ec737b0dab0827f10a10a0564809400135cef170d7267464736f6c63430008070033\n}\n",
				"bytecode": {
					"linkReferences": {},
					"object": "608060405234801561001057600080fd5b50600f60008190555060b3806100276000396000f3fe6080604052348015600f57600080fd5b506004361060285760003560e01c80634e70b1dc14602d575b600080fd5b60336047565b604051603e9190605a565b60405180910390f35b60005481565b6054816073565b82525050565b6000602082019050606d6000830184604d565b92915050565b600081905091905056fea2646970667358221220c859c47952e4172447ec737b0dab0827f10a10a0564809400135cef170d7267464736f6c63430008070033",
					"opcodes": "PUSH1 0x80 PUSH1 0x40 MSTORE CALLVALUE DUP1 ISZERO PUSH2 0x10 JUMPI PUSH1 0x0 DUP1 REVERT JUMPDEST POP PUSH1 0xF PUSH1 0x0 DUP2 SWAP1 SSTORE POP PUSH1 0xB3 DUP1 PUSH2 0x27 PUSH1 0x0 CODECOPY PUSH1 0x0 RETURN INVALID PUSH1 0x80 PUSH1 0x40 MSTORE CALLVALUE DUP1 ISZERO PUSH1 0xF JUMPI PUSH1 0x0 DUP1 REVERT JUMPDEST POP PUSH1 0x4 CALLDATASIZE LT PUSH1 0x28 JUMPI PUSH1 0x0 CALLDATALOAD PUSH1 0xE0 SHR DUP1 PUSH4 0x4E70B1DC EQ PUSH1 0x2D JUMPI JUMPDEST PUSH1 0x0 DUP1 REVERT JUMPDEST PUSH1 0x33 PUSH1 0x47 JUMP JUMPDEST PUSH1 0x40 MLOAD PUSH1 0x3E SWAP2 SWAP1 PUSH1 0x5A JUMP JUMPDEST PUSH1 0x40 MLOAD DUP1 SWAP2 SUB SWAP1 RETURN JUMPDEST PUSH1 0x0 SLOAD DUP2 JUMP JUMPDEST PUSH1 0x54 DUP2 PUSH1 0x73 JUMP JUMPDEST DUP3 MSTORE POP POP JUMP JUMPDEST PUSH1 0x0 PUSH1 0x20 DUP3 ADD SWAP1 POP PUSH1 0x6D PUSH1 0x0 DUP4 ADD DUP5 PUSH1 0x4D JUMP JUMPDEST SWAP3 SWAP2 POP POP JUMP JUMPDEST PUSH1 0x0 DUP2 SWAP1 POP SWAP2 SWAP1 POP JUMP INVALID LOG2 PUSH5 0x6970667358 0x22 SLT KECCAK256 0xC8 MSIZE 0xC4 PUSH26 0x52E4172447EC737B0DAB0827F10A10A0564809400135CEF170D7 0x26 PUSH21 0x64736F6C6343000807003300000000000000000000 "
				},
				"gasEstimates": {
					"creation": {
						"codeDepositCost": "35800",
						"executionCost": "22201",
						"totalCost": "58001"
					},
					"external": {
						"num()": "2407"
					}
				},
				"methodIdentifiers": {
					"num()": "4e70b1dc"
				}
			},
			"storageLayout": {
				"storage": [
					{
						"astId": 3,
						"contract": "contracts/ContructorDemo.sol:A",
						"label": "num",
						"offset": 0,
						"slot": "0",
						"type": "t_uint256"
					}
				],
				"types": {
					"t_uint256": {
						"encoding": "inplace",
						"label": "uint256",
						"numberOfBytes": "32"
					}
				}
			},
			"userdoc": {
				"kind": "user",
				"methods": {},
				"version": 1
			}
		}
	}
}