{
	"contracts/CallSendTransfer.sol": {
		"CallSendTransfer": {
			"abi": [
				{
					"inputs": [
						{
							"internalType": "address payable",
							"name": "_to",
							"type": "address"
						}
					],
					"name": "sendEtherCall",
					"outputs": [],
					"stateMutability": "payable",
					"type": "function"
				},
				{
					"inputs": [
						{
							"internalType": "address payable",
							"name": "_to",
							"type": "address"
						}
					],
					"name": "sendEtherSend",
					"outputs": [],
					"stateMutability": "payable",
					"type": "function"
				},
				{
					"inputs": [
						{
							"internalType": "address payable",
							"name": "_to",
							"type": "address"
						}
					],
					"name": "sendEtherTransfer",
					"outputs": [],
					"stateMutability": "payable",
					"type": "function"
				}
			],
			"devdoc": {
				"kind": "dev",
				"methods": {},
				"version": 1
			},
			"evm": {
				"assembly": "    /* \"contracts/CallSendTransfer.sol\":58:562  contract CallSendTransfer\r... */\n  mstore(0x40, 0x80)\n  callvalue\n  dup1\n  iszero\n  tag_1\n  jumpi\n  0x00\n  dup1\n  revert\ntag_1:\n  pop\n  dataSize(sub_0)\n  dup1\n  dataOffset(sub_0)\n  0x00\n  codecopy\n  0x00\n  return\nstop\n\nsub_0: assembly {\n        /* \"contracts/CallSendTransfer.sol\":58:562  contract CallSendTransfer\r... */\n      mstore(0x40, 0x80)\n      jumpi(tag_1, lt(calldatasize, 0x04))\n      shr(0xe0, calldataload(0x00))\n      dup1\n      0x1a7e1004\n      eq\n      tag_2\n      jumpi\n      dup1\n      0x4b3510cf\n      eq\n      tag_3\n      jumpi\n      dup1\n      0x5df088f9\n      eq\n      tag_4\n      jumpi\n    tag_1:\n      0x00\n      dup1\n      revert\n        /* \"contracts/CallSendTransfer.sol\":92:195  function sendEtherTransfer(address payable _to)public payable{\r... */\n    tag_2:\n      tag_5\n      0x04\n      dup1\n      calldatasize\n      sub\n      dup2\n      add\n      swap1\n      tag_6\n      swap2\n      swap1\n      tag_7\n      jump\t// in\n    tag_6:\n      tag_8\n      jump\t// in\n    tag_5:\n      stop\n        /* \"contracts/CallSendTransfer.sol\":201:353  function sendEtherSend(address payable _to)public payable{\r... */\n    tag_3:\n      tag_9\n      0x04\n      dup1\n      calldatasize\n      sub\n      dup2\n      add\n      swap1\n      tag_10\n      swap2\n      swap1\n      tag_7\n      jump\t// in\n    tag_10:\n      tag_11\n      jump\t// in\n    tag_9:\n      stop\n        /* \"contracts/CallSendTransfer.sol\":361:559  function sendEtherCall(address payable _to)public payable{\r... */\n    tag_4:\n      tag_12\n      0x04\n      dup1\n      calldatasize\n      sub\n      dup2\n      add\n      swap1\n      tag_13\n      swap2\n      swap1\n      tag_7\n      jump\t// in\n    tag_13:\n      tag_14\n      jump\t// in\n    tag_12:\n      stop\n        /* \"contracts/CallSendTransfer.sol\":92:195  function sendEtherTransfer(address payable _to)public payable{\r... */\n    tag_8:\n        /* \"contracts/CallSendTransfer.sol\":164:167  _to */\n      dup1\n        /* \"contracts/CallSendTransfer.sol\":164:176  _to.transfer */\n      0xffffffffffffffffffffffffffffffffffffffff\n      and\n        /* \"contracts/CallSendTransfer.sol\":164:187  _to.transfer(msg.value) */\n      0x08fc\n        /* \"contracts/CallSendTransfer.sol\":177:186  msg.value */\n      callvalue\n        /* \"contracts/CallSendTransfer.sol\":164:187  _to.transfer(msg.value) */\n      swap1\n      dup2\n      iszero\n      mul\n      swap1\n      mload(0x40)\n      0x00\n      mload(0x40)\n      dup1\n      dup4\n      sub\n      dup2\n      dup6\n      dup9\n      dup9\n      call\n      swap4\n      pop\n      pop\n      pop\n      pop\n      iszero\n      dup1\n      iszero\n      tag_17\n      jumpi\n      returndatasize\n      0x00\n      dup1\n      returndatacopy\n      revert(0x00, returndatasize)\n    tag_17:\n      pop\n        /* \"contracts/CallSendTransfer.sol\":92:195  function sendEtherTransfer(address payable _to)public payable{\r... */\n      pop\n      jump\t// out\n        /* \"contracts/CallSendTransfer.sol\":201:353  function sendEtherSend(address payable _to)public payable{\r... */\n    tag_11:\n        /* \"contracts/CallSendTransfer.sol\":269:278  bool sent */\n      0x00\n        /* \"contracts/CallSendTransfer.sol\":279:282  _to */\n      dup2\n        /* \"contracts/CallSendTransfer.sol\":279:287  _to.send */\n      0xffffffffffffffffffffffffffffffffffffffff\n      and\n        /* \"contracts/CallSendTransfer.sol\":279:298  _to.send(msg.value) */\n      0x08fc\n        /* \"contracts/CallSendTransfer.sol\":288:297  msg.value */\n      callvalue\n        /* \"contracts/CallSendTransfer.sol\":279:298  _to.send(msg.value) */\n      swap1\n      dup2\n      iszero\n      mul\n      swap1\n      mload(0x40)\n      0x00\n      mload(0x40)\n      dup1\n      dup4\n      sub\n      dup2\n      dup6\n      dup9\n      dup9\n      call\n      swap4\n      pop\n      pop\n      pop\n      pop\n        /* \"contracts/CallSendTransfer.sol\":269:298  bool sent=_to.send(msg.value) */\n      swap1\n      pop\n        /* \"contracts/CallSendTransfer.sol\":317:321  sent */\n      dup1\n        /* \"contracts/CallSendTransfer.sol\":309:345  require(sent,\"Failed to send ether\") */\n      tag_20\n      jumpi\n      mload(0x40)\n      0x08c379a000000000000000000000000000000000000000000000000000000000\n      dup2\n      mstore\n      0x04\n      add\n      tag_21\n      swap1\n      tag_22\n      jump\t// in\n    tag_21:\n      mload(0x40)\n      dup1\n      swap2\n      sub\n      swap1\n      revert\n    tag_20:\n        /* \"contracts/CallSendTransfer.sol\":258:353  {\r... */\n      pop\n        /* \"contracts/CallSendTransfer.sol\":201:353  function sendEtherSend(address payable _to)public payable{\r... */\n      pop\n      jump\t// out\n        /* \"contracts/CallSendTransfer.sol\":361:559  function sendEtherCall(address payable _to)public payable{\r... */\n    tag_14:\n        /* \"contracts/CallSendTransfer.sol\":430:439  bool sent */\n      0x00\n        /* \"contracts/CallSendTransfer.sol\":442:445  _to */\n      dup2\n        /* \"contracts/CallSendTransfer.sol\":442:450  _to.call */\n      0xffffffffffffffffffffffffffffffffffffffff\n      and\n        /* \"contracts/CallSendTransfer.sol\":455:460  10000 */\n      0x2710\n        /* \"contracts/CallSendTransfer.sol\":467:476  msg.value */\n      callvalue\n        /* \"contracts/CallSendTransfer.sol\":442:504  _to.call{gas:10000,value:msg.value}(\"Call Transfer is failed\") */\n      mload(0x40)\n      tag_24\n      swap1\n      tag_25\n      jump\t// in\n    tag_24:\n      0x00\n      mload(0x40)\n      dup1\n      dup4\n      sub\n      dup2\n      dup6\n      dup9\n      dup9\n      call\n      swap4\n      pop\n      pop\n      pop\n      pop\n      returndatasize\n      dup1\n      0x00\n      dup2\n      eq\n      tag_28\n      jumpi\n      mload(0x40)\n      swap2\n      pop\n      and(add(returndatasize, 0x3f), not(0x1f))\n      dup3\n      add\n      0x40\n      mstore\n      returndatasize\n      dup3\n      mstore\n      returndatasize\n      0x00\n      0x20\n      dup5\n      add\n      returndatacopy\n      jump(tag_27)\n    tag_28:\n      0x60\n      swap2\n      pop\n    tag_27:\n      pop\n        /* \"contracts/CallSendTransfer.sol\":429:504  (bool sent,)=_to.call{gas:10000,value:msg.value}(\"Call Transfer is failed\") */\n      pop\n      swap1\n      pop\n        /* \"contracts/CallSendTransfer.sol\":523:527  sent */\n      dup1\n        /* \"contracts/CallSendTransfer.sol\":515:551  require(sent,\"Failed to send ether\") */\n      tag_29\n      jumpi\n      mload(0x40)\n      0x08c379a000000000000000000000000000000000000000000000000000000000\n      dup2\n      mstore\n      0x04\n      add\n      tag_30\n      swap1\n      tag_22\n      jump\t// in\n    tag_30:\n      mload(0x40)\n      dup1\n      swap2\n      sub\n      swap1\n      revert\n    tag_29:\n        /* \"contracts/CallSendTransfer.sol\":418:559  {\r... */\n      pop\n        /* \"contracts/CallSendTransfer.sol\":361:559  function sendEtherCall(address payable _to)public payable{\r... */\n      pop\n      jump\t// out\n        /* \"#utility.yul\":7:162   */\n    tag_32:\n        /* \"#utility.yul\":61:66   */\n      0x00\n        /* \"#utility.yul\":99:105   */\n      dup2\n        /* \"#utility.yul\":86:106   */\n      calldataload\n        /* \"#utility.yul\":77:106   */\n      swap1\n      pop\n        /* \"#utility.yul\":115:156   */\n      tag_34\n        /* \"#utility.yul\":150:155   */\n      dup2\n        /* \"#utility.yul\":115:156   */\n      tag_35\n      jump\t// in\n    tag_34:\n        /* \"#utility.yul\":7:162   */\n      swap3\n      swap2\n      pop\n      pop\n      jump\t// out\n        /* \"#utility.yul\":168:513   */\n    tag_7:\n        /* \"#utility.yul\":235:241   */\n      0x00\n        /* \"#utility.yul\":284:286   */\n      0x20\n        /* \"#utility.yul\":272:281   */\n      dup3\n        /* \"#utility.yul\":263:270   */\n      dup5\n        /* \"#utility.yul\":259:282   */\n      sub\n        /* \"#utility.yul\":255:287   */\n      slt\n        /* \"#utility.yul\":252:371   */\n      iszero\n      tag_37\n      jumpi\n        /* \"#utility.yul\":290:369   */\n      tag_38\n      tag_39\n      jump\t// in\n    tag_38:\n        /* \"#utility.yul\":252:371   */\n    tag_37:\n        /* \"#utility.yul\":410:411   */\n      0x00\n        /* \"#utility.yul\":435:496   */\n      tag_40\n        /* \"#utility.yul\":488:495   */\n      dup5\n        /* \"#utility.yul\":479:485   */\n      dup3\n        /* \"#utility.yul\":468:477   */\n      dup6\n        /* \"#utility.yul\":464:486   */\n      add\n        /* \"#utility.yul\":435:496   */\n      tag_32\n      jump\t// in\n    tag_40:\n        /* \"#utility.yul\":425:496   */\n      swap2\n      pop\n        /* \"#utility.yul\":381:506   */\n      pop\n        /* \"#utility.yul\":168:513   */\n      swap3\n      swap2\n      pop\n      pop\n      jump\t// out\n        /* \"#utility.yul\":519:919   */\n    tag_41:\n        /* \"#utility.yul\":678:681   */\n      0x00\n        /* \"#utility.yul\":699:783   */\n      tag_43\n        /* \"#utility.yul\":780:782   */\n      0x17\n        /* \"#utility.yul\":775:778   */\n      dup4\n        /* \"#utility.yul\":699:783   */\n      tag_44\n      jump\t// in\n    tag_43:\n        /* \"#utility.yul\":692:783   */\n      swap2\n      pop\n        /* \"#utility.yul\":792:885   */\n      tag_45\n        /* \"#utility.yul\":881:884   */\n      dup3\n        /* \"#utility.yul\":792:885   */\n      tag_46\n      jump\t// in\n    tag_45:\n        /* \"#utility.yul\":910:912   */\n      0x17\n        /* \"#utility.yul\":905:908   */\n      dup3\n        /* \"#utility.yul\":901:913   */\n      add\n        /* \"#utility.yul\":894:913   */\n      swap1\n      pop\n        /* \"#utility.yul\":519:919   */\n      swap2\n      swap1\n      pop\n      jump\t// out\n        /* \"#utility.yul\":925:1291   */\n    tag_47:\n        /* \"#utility.yul\":1067:1070   */\n      0x00\n        /* \"#utility.yul\":1088:1155   */\n      tag_49\n        /* \"#utility.yul\":1152:1154   */\n      0x14\n        /* \"#utility.yul\":1147:1150   */\n      dup4\n        /* \"#utility.yul\":1088:1155   */\n      tag_50\n      jump\t// in\n    tag_49:\n        /* \"#utility.yul\":1081:1155   */\n      swap2\n      pop\n        /* \"#utility.yul\":1164:1257   */\n      tag_51\n        /* \"#utility.yul\":1253:1256   */\n      dup3\n        /* \"#utility.yul\":1164:1257   */\n      tag_52\n      jump\t// in\n    tag_51:\n        /* \"#utility.yul\":1282:1284   */\n      0x20\n        /* \"#utility.yul\":1277:1280   */\n      dup3\n        /* \"#utility.yul\":1273:1285   */\n      add\n        /* \"#utility.yul\":1266:1285   */\n      swap1\n      pop\n        /* \"#utility.yul\":925:1291   */\n      swap2\n      swap1\n      pop\n      jump\t// out\n        /* \"#utility.yul\":1297:1676   */\n    tag_25:\n        /* \"#utility.yul\":1481:1484   */\n      0x00\n        /* \"#utility.yul\":1503:1650   */\n      tag_54\n        /* \"#utility.yul\":1646:1649   */\n      dup3\n        /* \"#utility.yul\":1503:1650   */\n      tag_41\n      jump\t// in\n    tag_54:\n        /* \"#utility.yul\":1496:1650   */\n      swap2\n      pop\n        /* \"#utility.yul\":1667:1670   */\n      dup2\n        /* \"#utility.yul\":1660:1670   */\n      swap1\n      pop\n        /* \"#utility.yul\":1297:1676   */\n      swap2\n      swap1\n      pop\n      jump\t// out\n        /* \"#utility.yul\":1682:2101   */\n    tag_22:\n        /* \"#utility.yul\":1848:1852   */\n      0x00\n        /* \"#utility.yul\":1886:1888   */\n      0x20\n        /* \"#utility.yul\":1875:1884   */\n      dup3\n        /* \"#utility.yul\":1871:1889   */\n      add\n        /* \"#utility.yul\":1863:1889   */\n      swap1\n      pop\n        /* \"#utility.yul\":1935:1944   */\n      dup2\n        /* \"#utility.yul\":1929:1933   */\n      dup2\n        /* \"#utility.yul\":1925:1945   */\n      sub\n        /* \"#utility.yul\":1921:1922   */\n      0x00\n        /* \"#utility.yul\":1910:1919   */\n      dup4\n        /* \"#utility.yul\":1906:1923   */\n      add\n        /* \"#utility.yul\":1899:1946   */\n      mstore\n        /* \"#utility.yul\":1963:2094   */\n      tag_56\n        /* \"#utility.yul\":2089:2093   */\n      dup2\n        /* \"#utility.yul\":1963:2094   */\n      tag_47\n      jump\t// in\n    tag_56:\n        /* \"#utility.yul\":1955:2094   */\n      swap1\n      pop\n        /* \"#utility.yul\":1682:2101   */\n      swap2\n      swap1\n      pop\n      jump\t// out\n        /* \"#utility.yul\":2188:2335   */\n    tag_44:\n        /* \"#utility.yul\":2289:2300   */\n      0x00\n        /* \"#utility.yul\":2326:2329   */\n      dup2\n        /* \"#utility.yul\":2311:2329   */\n      swap1\n      pop\n        /* \"#utility.yul\":2188:2335   */\n      swap3\n      swap2\n      pop\n      pop\n      jump\t// out\n        /* \"#utility.yul\":2341:2510   */\n    tag_50:\n        /* \"#utility.yul\":2425:2436   */\n      0x00\n        /* \"#utility.yul\":2459:2465   */\n      dup3\n        /* \"#utility.yul\":2454:2457   */\n      dup3\n        /* \"#utility.yul\":2447:2466   */\n      mstore\n        /* \"#utility.yul\":2499:2503   */\n      0x20\n        /* \"#utility.yul\":2494:2497   */\n      dup3\n        /* \"#utility.yul\":2490:2504   */\n      add\n        /* \"#utility.yul\":2475:2504   */\n      swap1\n      pop\n        /* \"#utility.yul\":2341:2510   */\n      swap3\n      swap2\n      pop\n      pop\n      jump\t// out\n        /* \"#utility.yul\":2516:2620   */\n    tag_61:\n        /* \"#utility.yul\":2561:2568   */\n      0x00\n        /* \"#utility.yul\":2590:2614   */\n      tag_63\n        /* \"#utility.yul\":2608:2613   */\n      dup3\n        /* \"#utility.yul\":2590:2614   */\n      tag_64\n      jump\t// in\n    tag_63:\n        /* \"#utility.yul\":2579:2614   */\n      swap1\n      pop\n        /* \"#utility.yul\":2516:2620   */\n      swap2\n      swap1\n      pop\n      jump\t// out\n        /* \"#utility.yul\":2626:2752   */\n    tag_64:\n        /* \"#utility.yul\":2663:2670   */\n      0x00\n        /* \"#utility.yul\":2703:2745   */\n      0xffffffffffffffffffffffffffffffffffffffff\n        /* \"#utility.yul\":2696:2701   */\n      dup3\n        /* \"#utility.yul\":2692:2746   */\n      and\n        /* \"#utility.yul\":2681:2746   */\n      swap1\n      pop\n        /* \"#utility.yul\":2626:2752   */\n      swap2\n      swap1\n      pop\n      jump\t// out\n        /* \"#utility.yul\":2881:2998   */\n    tag_39:\n        /* \"#utility.yul\":2990:2991   */\n      0x00\n        /* \"#utility.yul\":2987:2988   */\n      dup1\n        /* \"#utility.yul\":2980:2992   */\n      revert\n        /* \"#utility.yul\":3004:3177   */\n    tag_46:\n        /* \"#utility.yul\":3144:3169   */\n      0x43616c6c205472616e73666572206973206661696c6564000000000000000000\n        /* \"#utility.yul\":3140:3141   */\n      0x00\n        /* \"#utility.yul\":3132:3138   */\n      dup3\n        /* \"#utility.yul\":3128:3142   */\n      add\n        /* \"#utility.yul\":3121:3170   */\n      mstore\n        /* \"#utility.yul\":3004:3177   */\n      pop\n      jump\t// out\n        /* \"#utility.yul\":3183:3353   */\n    tag_52:\n        /* \"#utility.yul\":3323:3345   */\n      0x4661696c656420746f2073656e64206574686572000000000000000000000000\n        /* \"#utility.yul\":3319:3320   */\n      0x00\n        /* \"#utility.yul\":3311:3317   */\n      dup3\n        /* \"#utility.yul\":3307:3321   */\n      add\n        /* \"#utility.yul\":3300:3346   */\n      mstore\n        /* \"#utility.yul\":3183:3353   */\n      pop\n      jump\t// out\n        /* \"#utility.yul\":3359:3497   */\n    tag_35:\n        /* \"#utility.yul\":3440:3472   */\n      tag_72\n        /* \"#utility.yul\":3466:3471   */\n      dup2\n        /* \"#utility.yul\":3440:3472   */\n      tag_61\n      jump\t// in\n    tag_72:\n        /* \"#utility.yul\":3433:3438   */\n      dup2\n        /* \"#utility.yul\":3430:3473   */\n      eq\n        /* \"#utility.yul\":3420:3491   */\n      tag_73\n      jumpi\n        /* \"#utility.yul\":3487:3488   */\n      0x00\n        /* \"#utility.yul\":3484:3485   */\n      dup1\n        /* \"#utility.yul\":3477:3489   */\n      revert\n        /* \"#utility.yul\":3420:3491   */\n    tag_73:\n        /* \"#utility.yul\":3359:3497   */\n      pop\n      jump\t// out\n\n    auxdata: 0xa264697066735822122075accd076f00535fb2c03d4c484e0cce5a3231eb1d9b6e82eb6943b66f6c51b564736f6c63430008070033\n}\n",
				"bytecode": {
					"linkReferences": {},
					"object": "608060405234801561001057600080fd5b506103b7806100206000396000f3fe6080604052600436106100345760003560e01c80631a7e1004146100395780634b3510cf146100555780635df088f914610071575b600080fd5b610053600480360381019061004e919061021d565b61008d565b005b61006f600480360381019061006a919061021d565b6100d7565b005b61008b6004803603810190610086919061021d565b610154565b005b8073ffffffffffffffffffffffffffffffffffffffff166108fc349081150290604051600060405180830381858888f193505050501580156100d3573d6000803e3d6000fd5b5050565b60008173ffffffffffffffffffffffffffffffffffffffff166108fc349081150290604051600060405180830381858888f19350505050905080610150576040517f08c379a0000000000000000000000000000000000000000000000000000000008152600401610147906102a5565b60405180910390fd5b5050565b60008173ffffffffffffffffffffffffffffffffffffffff166127103460405161017d90610290565b600060405180830381858888f193505050503d80600081146101bb576040519150601f19603f3d011682016040523d82523d6000602084013e6101c0565b606091505b5050905080610204576040517f08c379a00000000000000000000000000000000000000000000000000000000081526004016101fb906102a5565b60405180910390fd5b5050565b6000813590506102178161036a565b92915050565b60006020828403121561023357610232610313565b5b600061024184828501610208565b91505092915050565b60006102576017836102c5565b915061026282610318565b601782019050919050565b600061027a6014836102d0565b915061028582610341565b602082019050919050565b600061029b8261024a565b9150819050919050565b600060208201905081810360008301526102be8161026d565b9050919050565b600081905092915050565b600082825260208201905092915050565b60006102ec826102f3565b9050919050565b600073ffffffffffffffffffffffffffffffffffffffff82169050919050565b600080fd5b7f43616c6c205472616e73666572206973206661696c6564000000000000000000600082015250565b7f4661696c656420746f2073656e64206574686572000000000000000000000000600082015250565b610373816102e1565b811461037e57600080fd5b5056fea264697066735822122075accd076f00535fb2c03d4c484e0cce5a3231eb1d9b6e82eb6943b66f6c51b564736f6c63430008070033",
					"opcodes": "PUSH1 0x80 PUSH1 0x40 MSTORE CALLVALUE DUP1 ISZERO PUSH2 0x10 JUMPI PUSH1 0x0 DUP1 REVERT JUMPDEST POP PUSH2 0x3B7 DUP1 PUSH2 0x20 PUSH1 0x0 CODECOPY PUSH1 0x0 RETURN INVALID PUSH1 0x80 PUSH1 0x40 MSTORE PUSH1 0x4 CALLDATASIZE LT PUSH2 0x34 JUMPI PUSH1 0x0 CALLDATALOAD PUSH1 0xE0 SHR DUP1 PUSH4 0x1A7E1004 EQ PUSH2 0x39 JUMPI DUP1 PUSH4 0x4B3510CF EQ PUSH2 0x55 JUMPI DUP1 PUSH4 0x5DF088F9 EQ PUSH2 0x71 JUMPI JUMPDEST PUSH1 0x0 DUP1 REVERT JUMPDEST PUSH2 0x53 PUSH1 0x4 DUP1 CALLDATASIZE SUB DUP2 ADD SWAP1 PUSH2 0x4E SWAP2 SWAP1 PUSH2 0x21D JUMP JUMPDEST PUSH2 0x8D JUMP JUMPDEST STOP JUMPDEST PUSH2 0x6F PUSH1 0x4 DUP1 CALLDATASIZE SUB DUP2 ADD SWAP1 PUSH2 0x6A SWAP2 SWAP1 PUSH2 0x21D JUMP JUMPDEST PUSH2 0xD7 JUMP JUMPDEST STOP JUMPDEST PUSH2 0x8B PUSH1 0x4 DUP1 CALLDATASIZE SUB DUP2 ADD SWAP1 PUSH2 0x86 SWAP2 SWAP1 PUSH2 0x21D JUMP JUMPDEST PUSH2 0x154 JUMP JUMPDEST STOP JUMPDEST DUP1 PUSH20 0xFFFFFFFFFFFFFFFFFFFFFFFFFFFFFFFFFFFFFFFF AND PUSH2 0x8FC CALLVALUE SWAP1 DUP2 ISZERO MUL SWAP1 PUSH1 0x40 MLOAD PUSH1 0x0 PUSH1 0x40 MLOAD DUP1 DUP4 SUB DUP2 DUP6 DUP9 DUP9 CALL SWAP4 POP POP POP POP ISZERO DUP1 ISZERO PUSH2 0xD3 JUMPI RETURNDATASIZE PUSH1 0x0 DUP1 RETURNDATACOPY RETURNDATASIZE PUSH1 0x0 REVERT JUMPDEST POP POP JUMP JUMPDEST PUSH1 0x0 DUP2 PUSH20 0xFFFFFFFFFFFFFFFFFFFFFFFFFFFFFFFFFFFFFFFF AND PUSH2 0x8FC CALLVALUE SWAP1 DUP2 ISZERO MUL SWAP1 PUSH1 0x40 MLOAD PUSH1 0x0 PUSH1 0x40 MLOAD DUP1 DUP4 SUB DUP2 DUP6 DUP9 DUP9 CALL SWAP4 POP POP POP POP SWAP1 POP DUP1 PUSH2 0x150 JUMPI PUSH1 0x40 MLOAD PUSH32 0x8C379A000000000000000000000000000000000000000000000000000000000 DUP2 MSTORE PUSH1 0x4 ADD PUSH2 0x147 SWAP1 PUSH2 0x2A5 JUMP JUMPDEST PUSH1 0x40 MLOAD DUP1 SWAP2 SUB SWAP1 REVERT JUMPDEST POP POP JUMP JUMPDEST PUSH1 0x0 DUP2 PUSH20 0xFFFFFFFFFFFFFFFFFFFFFFFFFFFFFFFFFFFFFFFF AND PUSH2 0x2710 CALLVALUE PUSH1 0x40 MLOAD PUSH2 0x17D SWAP1 PUSH2 0x290 JUMP JUMPDEST PUSH1 0x0 PUSH1 0x40 MLOAD DUP1 DUP4 SUB DUP2 DUP6 DUP9 DUP9 CALL SWAP4 POP POP POP POP RETURNDATASIZE DUP1 PUSH1 0x0 DUP2 EQ PUSH2 0x1BB JUMPI PUSH1 0x40 MLOAD SWAP2 POP PUSH1 0x1F NOT PUSH1 0x3F RETURNDATASIZE ADD AND DUP3 ADD PUSH1 0x40 MSTORE RETURNDATASIZE DUP3 MSTORE RETURNDATASIZE PUSH1 0x0 PUSH1 0x20 DUP5 ADD RETURNDATACOPY PUSH2 0x1C0 JUMP JUMPDEST PUSH1 0x60 SWAP2 POP JUMPDEST POP POP SWAP1 POP DUP1 PUSH2 0x204 JUMPI PUSH1 0x40 MLOAD PUSH32 0x8C379A000000000000000000000000000000000000000000000000000000000 DUP2 MSTORE PUSH1 0x4 ADD PUSH2 0x1FB SWAP1 PUSH2 0x2A5 JUMP JUMPDEST PUSH1 0x40 MLOAD DUP1 SWAP2 SUB SWAP1 REVERT JUMPDEST POP POP JUMP JUMPDEST PUSH1 0x0 DUP2 CALLDATALOAD SWAP1 POP PUSH2 0x217 DUP2 PUSH2 0x36A JUMP JUMPDEST SWAP3 SWAP2 POP POP JUMP JUMPDEST PUSH1 0x0 PUSH1 0x20 DUP3 DUP5 SUB SLT ISZERO PUSH2 0x233 JUMPI PUSH2 0x232 PUSH2 0x313 JUMP JUMPDEST JUMPDEST PUSH1 0x0 PUSH2 0x241 DUP5 DUP3 DUP6 ADD PUSH2 0x208 JUMP JUMPDEST SWAP2 POP POP SWAP3 SWAP2 POP POP JUMP JUMPDEST PUSH1 0x0 PUSH2 0x257 PUSH1 0x17 DUP4 PUSH2 0x2C5 JUMP JUMPDEST SWAP2 POP PUSH2 0x262 DUP3 PUSH2 0x318 JUMP JUMPDEST PUSH1 0x17 DUP3 ADD SWAP1 POP SWAP2 SWAP1 POP JUMP JUMPDEST PUSH1 0x0 PUSH2 0x27A PUSH1 0x14 DUP4 PUSH2 0x2D0 JUMP JUMPDEST SWAP2 POP PUSH2 0x285 DUP3 PUSH2 0x341 JUMP JUMPDEST PUSH1 0x20 DUP3 ADD SWAP1 POP SWAP2 SWAP1 POP JUMP JUMPDEST PUSH1 0x0 PUSH2 0x29B DUP3 PUSH2 0x24A JUMP JUMPDEST SWAP2 POP DUP2 SWAP1 POP SWAP2 SWAP1 POP JUMP JUMPDEST PUSH1 0x0 PUSH1 0x20 DUP3 ADD SWAP1 POP DUP2 DUP2 SUB PUSH1 0x0 DUP4 ADD MSTORE PUSH2 0x2BE DUP2 PUSH2 0x26D JUMP JUMPDEST SWAP1 POP SWAP2 SWAP1 POP JUMP JUMPDEST PUSH1 0x0 DUP2 SWAP1 POP SWAP3 SWAP2 POP POP JUMP JUMPDEST PUSH1 0x0 DUP3 DUP3 MSTORE PUSH1 0x20 DUP3 ADD SWAP1 POP SWAP3 SWAP2 POP POP JUMP JUMPDEST PUSH1 0x0 PUSH2 0x2EC DUP3 PUSH2 0x2F3 JUMP JUMPDEST SWAP1 POP SWAP2 SWAP1 POP JUMP JUMPDEST PUSH1 0x0 PUSH20 0xFFFFFFFFFFFFFFFFFFFFFFFFFFFFFFFFFFFFFFFF DUP3 AND SWAP1 POP SWAP2 SWAP1 POP JUMP JUMPDEST PUSH1 0x0 DUP1 REVERT JUMPDEST PUSH32 0x43616C6C205472616E73666572206973206661696C6564000000000000000000 PUSH1 0x0 DUP3 ADD MSTORE POP JUMP JUMPDEST PUSH32 0x4661696C656420746F2073656E64206574686572000000000000000000000000 PUSH1 0x0 DUP3 ADD MSTORE POP JUMP JUMPDEST PUSH2 0x373 DUP2 PUSH2 0x2E1 JUMP JUMPDEST DUP2 EQ PUSH2 0x37E JUMPI PUSH1 0x0 DUP1 REVERT JUMPDEST POP JUMP INVALID LOG2 PUSH5 0x6970667358 0x22 SLT KECCAK256 PUSH22 0xACCD076F00535FB2C03D4C484E0CCE5A3231EB1D9B6E DUP3 0xEB PUSH10 0x43B66F6C51B564736F6C PUSH4 0x43000807 STOP CALLER "
				},
				"gasEstimates": {
					"creation": {
						"codeDepositCost": "190200",
						"executionCost": "232",
						"totalCost": "190432"
					},
					"external": {
						"sendEtherCall(address)": "infinite",
						"sendEtherSend(address)": "infinite",
						"sendEtherTransfer(address)": "infinite"
					}
				},
				"methodIdentifiers": {
					"sendEtherCall(address)": "5df088f9",
					"sendEtherSend(address)": "4b3510cf",
					"sendEtherTransfer(address)": "1a7e1004"
				}
			},
			"storageLayout": {
				"storage": [],
				"types": null
			},
			"userdoc": {
				"kind": "user",
				"methods": {},
				"version": 1
			}
		}
	}
}