{
	"contracts/Datatypes.sol": {
		"Primitive_type": {
			"abi": [
				{
					"inputs": [],
					"name": "add",
					"outputs": [
						{
							"internalType": "address",
							"name": "",
							"type": "address"
						}
					],
					"stateMutability": "view",
					"type": "function"
				},
				{
					"inputs": [],
					"name": "bool1",
					"outputs": [
						{
							"internalType": "bool",
							"name": "",
							"type": "bool"
						}
					],
					"stateMutability": "view",
					"type": "function"
				},
				{
					"inputs": [],
					"name": "maxInt",
					"outputs": [
						{
							"internalType": "int256",
							"name": "",
							"type": "int256"
						}
					],
					"stateMutability": "view",
					"type": "function"
				},
				{
					"inputs": [],
					"name": "minInt",
					"outputs": [
						{
							"internalType": "int256",
							"name": "",
							"type": "int256"
						}
					],
					"stateMutability": "view",
					"type": "function"
				}
			],
			"devdoc": {
				"kind": "dev",
				"methods": {},
				"version": 1
			},
			"evm": {
				"assembly": "    /* \"contracts/Datatypes.sol\":58:473  contract Primitive_type{\r... */\n  mstore(0x40, 0x80)\n    /* \"contracts/Datatypes.sol\":106:110  true */\n  0x01\n    /* \"contracts/Datatypes.sol\":88:110  bool public bool1=true */\n  0x00\n  dup1\n  0x0100\n  exp\n  dup2\n  sload\n  dup2\n  0xff\n  mul\n  not\n  and\n  swap1\n  dup4\n  iszero\n  iszero\n  mul\n  or\n  swap1\n  sstore\n  pop\n    /* \"contracts/Datatypes.sol\":126:127  4 */\n  0x04\n    /* \"contracts/Datatypes.sol\":117:127  uint8 u8=4 */\n  0x00\n  exp(0x0100, 0x01)\n  dup2\n  sload\n  dup2\n  0xff\n  mul\n  not\n  and\n  swap1\n  dup4\n  0xff\n  and\n  mul\n  or\n  swap1\n  sstore\n  pop\n    /* \"contracts/Datatypes.sol\":142:144  -4 */\n  0xfffffffffffffffffffffffffffffffffffffffffffffffffffffffffffffffc\n    /* \"contracts/Datatypes.sol\":134:144  int8 i8=-4 */\n  0x00\n  exp(0x0100, 0x02)\n  dup2\n  sload\n  dup2\n  0xff\n  mul\n  not\n  and\n  swap1\n  dup4\n  0x00\n  signextend\n  0xff\n  and\n  mul\n  or\n  swap1\n  sstore\n  pop\n    /* \"contracts/Datatypes.sol\":162:165  200 */\n  0xc8\n    /* \"contracts/Datatypes.sol\":151:165  uint16 u16=200 */\n  0x00\n  exp(0x0100, 0x03)\n  dup2\n  sload\n  dup2\n  0xffff\n  mul\n  not\n  and\n  swap1\n  dup4\n  0xffff\n  and\n  mul\n  or\n  swap1\n  sstore\n  pop\n    /* \"contracts/Datatypes.sol\":183:190  2000000 */\n  0x1e8480\n    /* \"contracts/Datatypes.sol\":172:190  uint64 u64=2000000 */\n  0x00\n  exp(0x0100, 0x05)\n  dup2\n  sload\n  dup2\n  0xffffffffffffffff\n  mul\n  not\n  and\n  swap1\n  dup4\n  0xffffffffffffffff\n  and\n  mul\n  or\n  swap1\n  sstore\n  pop\n    /* \"contracts/Datatypes.sol\":207:214  1000000 */\n  0x0f4240\n    /* \"contracts/Datatypes.sol\":197:214  uint u256=1000000 */\n  0x01\n  sstore\n    /* \"contracts/Datatypes.sol\":236:313  57896044618658097711785492504343953926634992332820282019728792003956564819968 */\n  0x8000000000000000000000000000000000000000000000000000000000000000\n    /* \"contracts/Datatypes.sol\":221:313  uint test_u256=57896044618658097711785492504343953926634992332820282019728792003956564819968 */\n  0x02\n  sstore\n    /* \"contracts/Datatypes.sol\":338:351  type(int).min */\n  0x8000000000000000000000000000000000000000000000000000000000000000\n    /* \"contracts/Datatypes.sol\":320:351  int public minInt=type(int).min */\n  0x03\n  sstore\n    /* \"contracts/Datatypes.sol\":376:389  type(int).max */\n  0x7fffffffffffffffffffffffffffffffffffffffffffffffffffffffffffffff\n    /* \"contracts/Datatypes.sol\":358:389  int public maxInt=type(int).max */\n  0x04\n  sstore\n    /* \"contracts/Datatypes.sol\":417:459  0x5B38Da6a701c568545dCfcB03FcB875f56beddC4 */\n  0x5b38da6a701c568545dcfcb03fcb875f56beddc4\n    /* \"contracts/Datatypes.sol\":398:459  address public add=0x5B38Da6a701c568545dCfcB03FcB875f56beddC4 */\n  0x05\n  exp(0x0100, 0x00)\n  dup2\n  sload\n  dup2\n  0xffffffffffffffffffffffffffffffffffffffff\n  mul\n  not\n  and\n  swap1\n  dup4\n  0xffffffffffffffffffffffffffffffffffffffff\n  and\n  mul\n  or\n  swap1\n  sstore\n  pop\n    /* \"contracts/Datatypes.sol\":58:473  contract Primitive_type{\r... */\n  callvalue\n  dup1\n  iszero\n  tag_1\n  jumpi\n  0x00\n  dup1\n  revert\ntag_1:\n  pop\n  dataSize(sub_0)\n  dup1\n  dataOffset(sub_0)\n  0x00\n  codecopy\n  0x00\n  return\nstop\n\nsub_0: assembly {\n        /* \"contracts/Datatypes.sol\":58:473  contract Primitive_type{\r... */\n      mstore(0x40, 0x80)\n      callvalue\n      dup1\n      iszero\n      tag_1\n      jumpi\n      0x00\n      dup1\n      revert\n    tag_1:\n      pop\n      jumpi(tag_2, lt(calldatasize, 0x04))\n      shr(0xe0, calldataload(0x00))\n      dup1\n      0x4f2be91f\n      eq\n      tag_3\n      jumpi\n      dup1\n      0x7a4c2571\n      eq\n      tag_4\n      jumpi\n      dup1\n      0x7e4e14cc\n      eq\n      tag_5\n      jumpi\n      dup1\n      0xec630c70\n      eq\n      tag_6\n      jumpi\n    tag_2:\n      0x00\n      dup1\n      revert\n        /* \"contracts/Datatypes.sol\":398:459  address public add=0x5B38Da6a701c568545dCfcB03FcB875f56beddC4 */\n    tag_3:\n      tag_7\n      tag_8\n      jump\t// in\n    tag_7:\n      mload(0x40)\n      tag_9\n      swap2\n      swap1\n      tag_10\n      jump\t// in\n    tag_9:\n      mload(0x40)\n      dup1\n      swap2\n      sub\n      swap1\n      return\n        /* \"contracts/Datatypes.sol\":358:389  int public maxInt=type(int).max */\n    tag_4:\n      tag_11\n      tag_12\n      jump\t// in\n    tag_11:\n      mload(0x40)\n      tag_13\n      swap2\n      swap1\n      tag_14\n      jump\t// in\n    tag_13:\n      mload(0x40)\n      dup1\n      swap2\n      sub\n      swap1\n      return\n        /* \"contracts/Datatypes.sol\":320:351  int public minInt=type(int).min */\n    tag_5:\n      tag_15\n      tag_16\n      jump\t// in\n    tag_15:\n      mload(0x40)\n      tag_17\n      swap2\n      swap1\n      tag_14\n      jump\t// in\n    tag_17:\n      mload(0x40)\n      dup1\n      swap2\n      sub\n      swap1\n      return\n        /* \"contracts/Datatypes.sol\":88:110  bool public bool1=true */\n    tag_6:\n      tag_18\n      tag_19\n      jump\t// in\n    tag_18:\n      mload(0x40)\n      tag_20\n      swap2\n      swap1\n      tag_21\n      jump\t// in\n    tag_20:\n      mload(0x40)\n      dup1\n      swap2\n      sub\n      swap1\n      return\n        /* \"contracts/Datatypes.sol\":398:459  address public add=0x5B38Da6a701c568545dCfcB03FcB875f56beddC4 */\n    tag_8:\n      0x05\n      0x00\n      swap1\n      sload\n      swap1\n      0x0100\n      exp\n      swap1\n      div\n      0xffffffffffffffffffffffffffffffffffffffff\n      and\n      dup2\n      jump\t// out\n        /* \"contracts/Datatypes.sol\":358:389  int public maxInt=type(int).max */\n    tag_12:\n      sload(0x04)\n      dup2\n      jump\t// out\n        /* \"contracts/Datatypes.sol\":320:351  int public minInt=type(int).min */\n    tag_16:\n      sload(0x03)\n      dup2\n      jump\t// out\n        /* \"contracts/Datatypes.sol\":88:110  bool public bool1=true */\n    tag_19:\n      0x00\n      dup1\n      sload\n      swap1\n      0x0100\n      exp\n      swap1\n      div\n      0xff\n      and\n      dup2\n      jump\t// out\n        /* \"#utility.yul\":7:125   */\n    tag_23:\n        /* \"#utility.yul\":94:118   */\n      tag_25\n        /* \"#utility.yul\":112:117   */\n      dup2\n        /* \"#utility.yul\":94:118   */\n      tag_26\n      jump\t// in\n    tag_25:\n        /* \"#utility.yul\":89:92   */\n      dup3\n        /* \"#utility.yul\":82:119   */\n      mstore\n        /* \"#utility.yul\":72:125   */\n      pop\n      pop\n      jump\t// out\n        /* \"#utility.yul\":131:240   */\n    tag_27:\n        /* \"#utility.yul\":212:233   */\n      tag_29\n        /* \"#utility.yul\":227:232   */\n      dup2\n        /* \"#utility.yul\":212:233   */\n      tag_30\n      jump\t// in\n    tag_29:\n        /* \"#utility.yul\":207:210   */\n      dup3\n        /* \"#utility.yul\":200:234   */\n      mstore\n        /* \"#utility.yul\":190:240   */\n      pop\n      pop\n      jump\t// out\n        /* \"#utility.yul\":246:361   */\n    tag_31:\n        /* \"#utility.yul\":331:354   */\n      tag_33\n        /* \"#utility.yul\":348:353   */\n      dup2\n        /* \"#utility.yul\":331:354   */\n      tag_34\n      jump\t// in\n    tag_33:\n        /* \"#utility.yul\":326:329   */\n      dup3\n        /* \"#utility.yul\":319:355   */\n      mstore\n        /* \"#utility.yul\":309:361   */\n      pop\n      pop\n      jump\t// out\n        /* \"#utility.yul\":367:589   */\n    tag_10:\n        /* \"#utility.yul\":460:464   */\n      0x00\n        /* \"#utility.yul\":498:500   */\n      0x20\n        /* \"#utility.yul\":487:496   */\n      dup3\n        /* \"#utility.yul\":483:501   */\n      add\n        /* \"#utility.yul\":475:501   */\n      swap1\n      pop\n        /* \"#utility.yul\":511:582   */\n      tag_36\n        /* \"#utility.yul\":579:580   */\n      0x00\n        /* \"#utility.yul\":568:577   */\n      dup4\n        /* \"#utility.yul\":564:581   */\n      add\n        /* \"#utility.yul\":555:561   */\n      dup5\n        /* \"#utility.yul\":511:582   */\n      tag_23\n      jump\t// in\n    tag_36:\n        /* \"#utility.yul\":465:589   */\n      swap3\n      swap2\n      pop\n      pop\n      jump\t// out\n        /* \"#utility.yul\":595:805   */\n    tag_21:\n        /* \"#utility.yul\":682:686   */\n      0x00\n        /* \"#utility.yul\":720:722   */\n      0x20\n        /* \"#utility.yul\":709:718   */\n      dup3\n        /* \"#utility.yul\":705:723   */\n      add\n        /* \"#utility.yul\":697:723   */\n      swap1\n      pop\n        /* \"#utility.yul\":733:798   */\n      tag_38\n        /* \"#utility.yul\":795:796   */\n      0x00\n        /* \"#utility.yul\":784:793   */\n      dup4\n        /* \"#utility.yul\":780:797   */\n      add\n        /* \"#utility.yul\":771:777   */\n      dup5\n        /* \"#utility.yul\":733:798   */\n      tag_27\n      jump\t// in\n    tag_38:\n        /* \"#utility.yul\":687:805   */\n      swap3\n      swap2\n      pop\n      pop\n      jump\t// out\n        /* \"#utility.yul\":811:1029   */\n    tag_14:\n        /* \"#utility.yul\":902:906   */\n      0x00\n        /* \"#utility.yul\":940:942   */\n      0x20\n        /* \"#utility.yul\":929:938   */\n      dup3\n        /* \"#utility.yul\":925:943   */\n      add\n        /* \"#utility.yul\":917:943   */\n      swap1\n      pop\n        /* \"#utility.yul\":953:1022   */\n      tag_40\n        /* \"#utility.yul\":1019:1020   */\n      0x00\n        /* \"#utility.yul\":1008:1017   */\n      dup4\n        /* \"#utility.yul\":1004:1021   */\n      add\n        /* \"#utility.yul\":995:1001   */\n      dup5\n        /* \"#utility.yul\":953:1022   */\n      tag_31\n      jump\t// in\n    tag_40:\n        /* \"#utility.yul\":907:1029   */\n      swap3\n      swap2\n      pop\n      pop\n      jump\t// out\n        /* \"#utility.yul\":1035:1131   */\n    tag_26:\n        /* \"#utility.yul\":1072:1079   */\n      0x00\n        /* \"#utility.yul\":1101:1125   */\n      tag_42\n        /* \"#utility.yul\":1119:1124   */\n      dup3\n        /* \"#utility.yul\":1101:1125   */\n      tag_43\n      jump\t// in\n    tag_42:\n        /* \"#utility.yul\":1090:1125   */\n      swap1\n      pop\n        /* \"#utility.yul\":1080:1131   */\n      swap2\n      swap1\n      pop\n      jump\t// out\n        /* \"#utility.yul\":1137:1227   */\n    tag_30:\n        /* \"#utility.yul\":1171:1178   */\n      0x00\n        /* \"#utility.yul\":1214:1219   */\n      dup2\n        /* \"#utility.yul\":1207:1220   */\n      iszero\n        /* \"#utility.yul\":1200:1221   */\n      iszero\n        /* \"#utility.yul\":1189:1221   */\n      swap1\n      pop\n        /* \"#utility.yul\":1179:1227   */\n      swap2\n      swap1\n      pop\n      jump\t// out\n        /* \"#utility.yul\":1233:1309   */\n    tag_34:\n        /* \"#utility.yul\":1269:1276   */\n      0x00\n        /* \"#utility.yul\":1298:1303   */\n      dup2\n        /* \"#utility.yul\":1287:1303   */\n      swap1\n      pop\n        /* \"#utility.yul\":1277:1309   */\n      swap2\n      swap1\n      pop\n      jump\t// out\n        /* \"#utility.yul\":1315:1441   */\n    tag_43:\n        /* \"#utility.yul\":1352:1359   */\n      0x00\n        /* \"#utility.yul\":1392:1434   */\n      0xffffffffffffffffffffffffffffffffffffffff\n        /* \"#utility.yul\":1385:1390   */\n      dup3\n        /* \"#utility.yul\":1381:1435   */\n      and\n        /* \"#utility.yul\":1370:1435   */\n      swap1\n      pop\n        /* \"#utility.yul\":1360:1441   */\n      swap2\n      swap1\n      pop\n      jump\t// out\n\n    auxdata: 0xa2646970667358221220327187b2db2909f30c9d6c298de077f39bc166e11e291fd7299be6cb2b775fa864736f6c63430008060033\n}\n",
				"bytecode": {
					"linkReferences": {},
					"object": "608060405260016000806101000a81548160ff0219169083151502179055506004600060016101000a81548160ff021916908360ff1602179055507ffffffffffffffffffffffffffffffffffffffffffffffffffffffffffffffffc600060026101000a81548160ff021916908360000b60ff16021790555060c8600060036101000a81548161ffff021916908361ffff160217905550621e8480600060056101000a81548167ffffffffffffffff021916908367ffffffffffffffff160217905550620f42406001557f80000000000000000000000000000000000000000000000000000000000000006002557f80000000000000000000000000000000000000000000000000000000000000006003557f7fffffffffffffffffffffffffffffffffffffffffffffffffffffffffffffff600455735b38da6a701c568545dcfcb03fcb875f56beddc4600560006101000a81548173ffffffffffffffffffffffffffffffffffffffff021916908373ffffffffffffffffffffffffffffffffffffffff16021790555034801561019657600080fd5b50610208806101a66000396000f3fe608060405234801561001057600080fd5b506004361061004c5760003560e01c80634f2be91f146100515780637a4c25711461006f5780637e4e14cc1461008d578063ec630c70146100ab575b600080fd5b6100596100c9565b6040516100669190610139565b60405180910390f35b6100776100ef565b604051610084919061016f565b60405180910390f35b6100956100f5565b6040516100a2919061016f565b60405180910390f35b6100b36100fb565b6040516100c09190610154565b60405180910390f35b600560009054906101000a900473ffffffffffffffffffffffffffffffffffffffff1681565b60045481565b60035481565b60008054906101000a900460ff1681565b6101158161018a565b82525050565b6101248161019c565b82525050565b610133816101a8565b82525050565b600060208201905061014e600083018461010c565b92915050565b6000602082019050610169600083018461011b565b92915050565b6000602082019050610184600083018461012a565b92915050565b6000610195826101b2565b9050919050565b60008115159050919050565b6000819050919050565b600073ffffffffffffffffffffffffffffffffffffffff8216905091905056fea2646970667358221220327187b2db2909f30c9d6c298de077f39bc166e11e291fd7299be6cb2b775fa864736f6c63430008060033",
					"opcodes": "PUSH1 0x80 PUSH1 0x40 MSTORE PUSH1 0x1 PUSH1 0x0 DUP1 PUSH2 0x100 EXP DUP2 SLOAD DUP2 PUSH1 0xFF MUL NOT AND SWAP1 DUP4 ISZERO ISZERO MUL OR SWAP1 SSTORE POP PUSH1 0x4 PUSH1 0x0 PUSH1 0x1 PUSH2 0x100 EXP DUP2 SLOAD DUP2 PUSH1 0xFF MUL NOT AND SWAP1 DUP4 PUSH1 0xFF AND MUL OR SWAP1 SSTORE POP PUSH32 0xFFFFFFFFFFFFFFFFFFFFFFFFFFFFFFFFFFFFFFFFFFFFFFFFFFFFFFFFFFFFFFFC PUSH1 0x0 PUSH1 0x2 PUSH2 0x100 EXP DUP2 SLOAD DUP2 PUSH1 0xFF MUL NOT AND SWAP1 DUP4 PUSH1 0x0 SIGNEXTEND PUSH1 0xFF AND MUL OR SWAP1 SSTORE POP PUSH1 0xC8 PUSH1 0x0 PUSH1 0x3 PUSH2 0x100 EXP DUP2 SLOAD DUP2 PUSH2 0xFFFF MUL NOT AND SWAP1 DUP4 PUSH2 0xFFFF AND MUL OR SWAP1 SSTORE POP PUSH3 0x1E8480 PUSH1 0x0 PUSH1 0x5 PUSH2 0x100 EXP DUP2 SLOAD DUP2 PUSH8 0xFFFFFFFFFFFFFFFF MUL NOT AND SWAP1 DUP4 PUSH8 0xFFFFFFFFFFFFFFFF AND MUL OR SWAP1 SSTORE POP PUSH3 0xF4240 PUSH1 0x1 SSTORE PUSH32 0x8000000000000000000000000000000000000000000000000000000000000000 PUSH1 0x2 SSTORE PUSH32 0x8000000000000000000000000000000000000000000000000000000000000000 PUSH1 0x3 SSTORE PUSH32 0x7FFFFFFFFFFFFFFFFFFFFFFFFFFFFFFFFFFFFFFFFFFFFFFFFFFFFFFFFFFFFFFF PUSH1 0x4 SSTORE PUSH20 0x5B38DA6A701C568545DCFCB03FCB875F56BEDDC4 PUSH1 0x5 PUSH1 0x0 PUSH2 0x100 EXP DUP2 SLOAD DUP2 PUSH20 0xFFFFFFFFFFFFFFFFFFFFFFFFFFFFFFFFFFFFFFFF MUL NOT AND SWAP1 DUP4 PUSH20 0xFFFFFFFFFFFFFFFFFFFFFFFFFFFFFFFFFFFFFFFF AND MUL OR SWAP1 SSTORE POP CALLVALUE DUP1 ISZERO PUSH2 0x196 JUMPI PUSH1 0x0 DUP1 REVERT JUMPDEST POP PUSH2 0x208 DUP1 PUSH2 0x1A6 PUSH1 0x0 CODECOPY PUSH1 0x0 RETURN INVALID PUSH1 0x80 PUSH1 0x40 MSTORE CALLVALUE DUP1 ISZERO PUSH2 0x10 JUMPI PUSH1 0x0 DUP1 REVERT JUMPDEST POP PUSH1 0x4 CALLDATASIZE LT PUSH2 0x4C JUMPI PUSH1 0x0 CALLDATALOAD PUSH1 0xE0 SHR DUP1 PUSH4 0x4F2BE91F EQ PUSH2 0x51 JUMPI DUP1 PUSH4 0x7A4C2571 EQ PUSH2 0x6F JUMPI DUP1 PUSH4 0x7E4E14CC EQ PUSH2 0x8D JUMPI DUP1 PUSH4 0xEC630C70 EQ PUSH2 0xAB JUMPI JUMPDEST PUSH1 0x0 DUP1 REVERT JUMPDEST PUSH2 0x59 PUSH2 0xC9 JUMP JUMPDEST PUSH1 0x40 MLOAD PUSH2 0x66 SWAP2 SWAP1 PUSH2 0x139 JUMP JUMPDEST PUSH1 0x40 MLOAD DUP1 SWAP2 SUB SWAP1 RETURN JUMPDEST PUSH2 0x77 PUSH2 0xEF JUMP JUMPDEST PUSH1 0x40 MLOAD PUSH2 0x84 SWAP2 SWAP1 PUSH2 0x16F JUMP JUMPDEST PUSH1 0x40 MLOAD DUP1 SWAP2 SUB SWAP1 RETURN JUMPDEST PUSH2 0x95 PUSH2 0xF5 JUMP JUMPDEST PUSH1 0x40 MLOAD PUSH2 0xA2 SWAP2 SWAP1 PUSH2 0x16F JUMP JUMPDEST PUSH1 0x40 MLOAD DUP1 SWAP2 SUB SWAP1 RETURN JUMPDEST PUSH2 0xB3 PUSH2 0xFB JUMP JUMPDEST PUSH1 0x40 MLOAD PUSH2 0xC0 SWAP2 SWAP1 PUSH2 0x154 JUMP JUMPDEST PUSH1 0x40 MLOAD DUP1 SWAP2 SUB SWAP1 RETURN JUMPDEST PUSH1 0x5 PUSH1 0x0 SWAP1 SLOAD SWAP1 PUSH2 0x100 EXP SWAP1 DIV PUSH20 0xFFFFFFFFFFFFFFFFFFFFFFFFFFFFFFFFFFFFFFFF AND DUP2 JUMP JUMPDEST PUSH1 0x4 SLOAD DUP2 JUMP JUMPDEST PUSH1 0x3 SLOAD DUP2 JUMP JUMPDEST PUSH1 0x0 DUP1 SLOAD SWAP1 PUSH2 0x100 EXP SWAP1 DIV PUSH1 0xFF AND DUP2 JUMP JUMPDEST PUSH2 0x115 DUP2 PUSH2 0x18A JUMP JUMPDEST DUP3 MSTORE POP POP JUMP JUMPDEST PUSH2 0x124 DUP2 PUSH2 0x19C JUMP JUMPDEST DUP3 MSTORE POP POP JUMP JUMPDEST PUSH2 0x133 DUP2 PUSH2 0x1A8 JUMP JUMPDEST DUP3 MSTORE POP POP JUMP JUMPDEST PUSH1 0x0 PUSH1 0x20 DUP3 ADD SWAP1 POP PUSH2 0x14E PUSH1 0x0 DUP4 ADD DUP5 PUSH2 0x10C JUMP JUMPDEST SWAP3 SWAP2 POP POP JUMP JUMPDEST PUSH1 0x0 PUSH1 0x20 DUP3 ADD SWAP1 POP PUSH2 0x169 PUSH1 0x0 DUP4 ADD DUP5 PUSH2 0x11B JUMP JUMPDEST SWAP3 SWAP2 POP POP JUMP JUMPDEST PUSH1 0x0 PUSH1 0x20 DUP3 ADD SWAP1 POP PUSH2 0x184 PUSH1 0x0 DUP4 ADD DUP5 PUSH2 0x12A JUMP JUMPDEST SWAP3 SWAP2 POP POP JUMP JUMPDEST PUSH1 0x0 PUSH2 0x195 DUP3 PUSH2 0x1B2 JUMP JUMPDEST SWAP1 POP SWAP2 SWAP1 POP JUMP JUMPDEST PUSH1 0x0 DUP2 ISZERO ISZERO SWAP1 POP SWAP2 SWAP1 POP JUMP JUMPDEST PUSH1 0x0 DUP2 SWAP1 POP SWAP2 SWAP1 POP JUMP JUMPDEST PUSH1 0x0 PUSH20 0xFFFFFFFFFFFFFFFFFFFFFFFFFFFFFFFFFFFFFFFF DUP3 AND SWAP1 POP SWAP2 SWAP1 POP JUMP INVALID LOG2 PUSH5 0x6970667358 0x22 SLT KECCAK256 ORIGIN PUSH18 0x87B2DB2909F30C9D6C298DE077F39BC166E1 0x1E 0x29 0x1F 0xD7 0x29 SWAP12 0xE6 0xCB 0x2B PUSH24 0x5FA864736F6C634300080600330000000000000000000000 "
				},
				"gasEstimates": {
					"creation": {
						"codeDepositCost": "104000",
						"executionCost": "234387",
						"totalCost": "338387"
					},
					"external": {
						"add()": "2492",
						"bool1()": "2512",
						"maxInt()": "2429",
						"minInt()": "2451"
					}
				},
				"methodIdentifiers": {
					"add()": "4f2be91f",
					"bool1()": "ec630c70",
					"maxInt()": "7a4c2571",
					"minInt()": "7e4e14cc"
				}
			},
			"storageLayout": {
				"storage": [
					{
						"astId": 4,
						"contract": "contracts/Datatypes.sol:Primitive_type",
						"label": "bool1",
						"offset": 0,
						"slot": "0",
						"type": "t_bool"
					},
					{
						"astId": 7,
						"contract": "contracts/Datatypes.sol:Primitive_type",
						"label": "u8",
						"offset": 1,
						"slot": "0",
						"type": "t_uint8"
					},
					{
						"astId": 11,
						"contract": "contracts/Datatypes.sol:Primitive_type",
						"label": "i8",
						"offset": 2,
						"slot": "0",
						"type": "t_int8"
					},
					{
						"astId": 14,
						"contract": "contracts/Datatypes.sol:Primitive_type",
						"label": "u16",
						"offset": 3,
						"slot": "0",
						"type": "t_uint16"
					},
					{
						"astId": 17,
						"contract": "contracts/Datatypes.sol:Primitive_type",
						"label": "u64",
						"offset": 5,
						"slot": "0",
						"type": "t_uint64"
					},
					{
						"astId": 20,
						"contract": "contracts/Datatypes.sol:Primitive_type",
						"label": "u256",
						"offset": 0,
						"slot": "1",
						"type": "t_uint256"
					},
					{
						"astId": 23,
						"contract": "contracts/Datatypes.sol:Primitive_type",
						"label": "test_u256",
						"offset": 0,
						"slot": "2",
						"type": "t_uint256"
					},
					{
						"astId": 30,
						"contract": "contracts/Datatypes.sol:Primitive_type",
						"label": "minInt",
						"offset": 0,
						"slot": "3",
						"type": "t_int256"
					},
					{
						"astId": 37,
						"contract": "contracts/Datatypes.sol:Primitive_type",
						"label": "maxInt",
						"offset": 0,
						"slot": "4",
						"type": "t_int256"
					},
					{
						"astId": 40,
						"contract": "contracts/Datatypes.sol:Primitive_type",
						"label": "add",
						"offset": 0,
						"slot": "5",
						"type": "t_address"
					}
				],
				"types": {
					"t_address": {
						"encoding": "inplace",
						"label": "address",
						"numberOfBytes": "20"
					},
					"t_bool": {
						"encoding": "inplace",
						"label": "bool",
						"numberOfBytes": "1"
					},
					"t_int256": {
						"encoding": "inplace",
						"label": "int256",
						"numberOfBytes": "32"
					},
					"t_int8": {
						"encoding": "inplace",
						"label": "int8",
						"numberOfBytes": "1"
					},
					"t_uint16": {
						"encoding": "inplace",
						"label": "uint16",
						"numberOfBytes": "2"
					},
					"t_uint256": {
						"encoding": "inplace",
						"label": "uint256",
						"numberOfBytes": "32"
					},
					"t_uint64": {
						"encoding": "inplace",
						"label": "uint64",
						"numberOfBytes": "8"
					},
					"t_uint8": {
						"encoding": "inplace",
						"label": "uint8",
						"numberOfBytes": "1"
					}
				}
			},
			"userdoc": {
				"kind": "user",
				"methods": {},
				"version": 1
			}
		}
	}
}