{
	"contracts/multisignaturewallet.sol": {
		"MutlisigWallet": {
			"abi": [
				{
					"inputs": [
						{
							"internalType": "address[]",
							"name": "_owners",
							"type": "address[]"
						},
						{
							"internalType": "uint256",
							"name": "_numConfirmationRequired",
							"type": "uint256"
						}
					],
					"stateMutability": "nonpayable",
					"type": "constructor"
				},
				{
					"anonymous": false,
					"inputs": [
						{
							"indexed": true,
							"internalType": "address",
							"name": "owner",
							"type": "address"
						},
						{
							"indexed": true,
							"internalType": "uint256",
							"name": "txIndex",
							"type": "uint256"
						}
					],
					"name": "ConfirmTransaction",
					"type": "event"
				},
				{
					"anonymous": false,
					"inputs": [
						{
							"indexed": true,
							"internalType": "address",
							"name": "sender",
							"type": "address"
						},
						{
							"indexed": false,
							"internalType": "uint256",
							"name": "amount",
							"type": "uint256"
						},
						{
							"indexed": false,
							"internalType": "uint256",
							"name": "balance",
							"type": "uint256"
						}
					],
					"name": "Deposit",
					"type": "event"
				},
				{
					"anonymous": false,
					"inputs": [
						{
							"indexed": true,
							"internalType": "address",
							"name": "owner",
							"type": "address"
						},
						{
							"indexed": true,
							"internalType": "uint256",
							"name": "txIndex",
							"type": "uint256"
						}
					],
					"name": "ExecuteTransaction",
					"type": "event"
				},
				{
					"anonymous": false,
					"inputs": [
						{
							"indexed": true,
							"internalType": "address",
							"name": "owner",
							"type": "address"
						},
						{
							"indexed": true,
							"internalType": "uint256",
							"name": "txIndex",
							"type": "uint256"
						}
					],
					"name": "RevokeTransaction",
					"type": "event"
				},
				{
					"anonymous": false,
					"inputs": [
						{
							"indexed": true,
							"internalType": "address",
							"name": "owner",
							"type": "address"
						},
						{
							"indexed": true,
							"internalType": "uint256",
							"name": "txIndex",
							"type": "uint256"
						},
						{
							"indexed": true,
							"internalType": "address",
							"name": "to",
							"type": "address"
						},
						{
							"indexed": false,
							"internalType": "uint256",
							"name": "value",
							"type": "uint256"
						},
						{
							"indexed": false,
							"internalType": "bytes",
							"name": "data",
							"type": "bytes"
						}
					],
					"name": "SubmitTransaction",
					"type": "event"
				},
				{
					"inputs": [
						{
							"internalType": "uint256",
							"name": "_txIndex",
							"type": "uint256"
						}
					],
					"name": "confirmTransaction",
					"outputs": [],
					"stateMutability": "nonpayable",
					"type": "function"
				},
				{
					"inputs": [
						{
							"internalType": "uint256",
							"name": "",
							"type": "uint256"
						},
						{
							"internalType": "address",
							"name": "",
							"type": "address"
						}
					],
					"name": "isConfirmed",
					"outputs": [
						{
							"internalType": "bool",
							"name": "",
							"type": "bool"
						}
					],
					"stateMutability": "view",
					"type": "function"
				},
				{
					"inputs": [
						{
							"internalType": "address",
							"name": "",
							"type": "address"
						}
					],
					"name": "isOwner",
					"outputs": [
						{
							"internalType": "bool",
							"name": "",
							"type": "bool"
						}
					],
					"stateMutability": "view",
					"type": "function"
				},
				{
					"inputs": [],
					"name": "numConfirmationsRequired",
					"outputs": [
						{
							"internalType": "uint256",
							"name": "",
							"type": "uint256"
						}
					],
					"stateMutability": "view",
					"type": "function"
				},
				{
					"inputs": [
						{
							"internalType": "uint256",
							"name": "",
							"type": "uint256"
						}
					],
					"name": "owners",
					"outputs": [
						{
							"internalType": "address",
							"name": "",
							"type": "address"
						}
					],
					"stateMutability": "view",
					"type": "function"
				},
				{
					"inputs": [
						{
							"internalType": "uint256",
							"name": "",
							"type": "uint256"
						}
					],
					"name": "transactions",
					"outputs": [
						{
							"internalType": "address",
							"name": "to",
							"type": "address"
						},
						{
							"internalType": "uint256",
							"name": "value",
							"type": "uint256"
						},
						{
							"internalType": "bytes",
							"name": "data",
							"type": "bytes"
						},
						{
							"internalType": "bool",
							"name": "executed",
							"type": "bool"
						},
						{
							"internalType": "uint256",
							"name": "numConfirmations",
							"type": "uint256"
						}
					],
					"stateMutability": "view",
					"type": "function"
				},
				{
					"stateMutability": "payable",
					"type": "receive"
				}
			],
			"devdoc": {
				"kind": "dev",
				"methods": {},
				"version": 1
			},
			"evm": {
				"assembly": "    /* \"contracts/multisignaturewallet.sol\":58:2621  contract MutlisigWallet{\r... */\n  mstore(0x40, 0x80)\n    /* \"contracts/multisignaturewallet.sol\":1482:2141  constructor(address[] memory _owners, uint _numConfirmationRequired){\r... */\n  callvalue\n  dup1\n  iszero\n  tag_1\n  jumpi\n  0x00\n  dup1\n  revert\ntag_1:\n  pop\n  mload(0x40)\n  sub(codesize, bytecodeSize)\n  dup1\n  bytecodeSize\n  dup4\n  codecopy\n  dup2\n  dup2\n  add\n  0x40\n  mstore\n  dup2\n  add\n  swap1\n  tag_2\n  swap2\n  swap1\n  tag_3\n  jump\t// in\ntag_2:\n    /* \"contracts/multisignaturewallet.sol\":1584:1585  0 */\n  0x00\n    /* \"contracts/multisignaturewallet.sol\":1569:1576  _owners */\n  dup3\n    /* \"contracts/multisignaturewallet.sol\":1569:1583  _owners.length */\n  mload\n    /* \"contracts/multisignaturewallet.sol\":1569:1585  _owners.length>0 */\n  gt\n    /* \"contracts/multisignaturewallet.sol\":1561:1616  require(_owners.length>0,\"at least one owner required\") */\n  tag_6\n  jumpi\n  mload(0x40)\n  0x08c379a000000000000000000000000000000000000000000000000000000000\n  dup2\n  mstore\n  0x04\n  add\n  tag_7\n  swap1\n  tag_8\n  jump\t// in\ntag_7:\n  mload(0x40)\n  dup1\n  swap2\n  sub\n  swap1\n  revert\ntag_6:\n    /* \"contracts/multisignaturewallet.sol\":1660:1661  0 */\n  0x00\n    /* \"contracts/multisignaturewallet.sol\":1635:1659  _numConfirmationRequired */\n  dup2\n    /* \"contracts/multisignaturewallet.sol\":1635:1661  _numConfirmationRequired>0 */\n  gt\n    /* \"contracts/multisignaturewallet.sol\":1635:1705  _numConfirmationRequired>0 && _numConfirmationRequired<=_owners.length */\n  dup1\n  iszero\n  tag_9\n  jumpi\n  pop\n    /* \"contracts/multisignaturewallet.sol\":1691:1698  _owners */\n  dup2\n    /* \"contracts/multisignaturewallet.sol\":1691:1705  _owners.length */\n  mload\n    /* \"contracts/multisignaturewallet.sol\":1665:1689  _numConfirmationRequired */\n  dup2\n    /* \"contracts/multisignaturewallet.sol\":1665:1705  _numConfirmationRequired<=_owners.length */\n  gt\n  iszero\n    /* \"contracts/multisignaturewallet.sol\":1635:1705  _numConfirmationRequired>0 && _numConfirmationRequired<=_owners.length */\ntag_9:\n    /* \"contracts/multisignaturewallet.sol\":1627:1774  require(_numConfirmationRequired>0 && _numConfirmationRequired<=_owners.length,\r... */\n  tag_10\n  jumpi\n  mload(0x40)\n  0x08c379a000000000000000000000000000000000000000000000000000000000\n  dup2\n  mstore\n  0x04\n  add\n  tag_11\n  swap1\n  tag_12\n  jump\t// in\ntag_11:\n  mload(0x40)\n  dup1\n  swap2\n  sub\n  swap1\n  revert\ntag_10:\n    /* \"contracts/multisignaturewallet.sol\":1789:1795  uint i */\n  0x00\n    /* \"contracts/multisignaturewallet.sol\":1785:2062  for(uint i=0;i<_owners.length;i++)\r... */\ntag_13:\n    /* \"contracts/multisignaturewallet.sol\":1800:1807  _owners */\n  dup3\n    /* \"contracts/multisignaturewallet.sol\":1800:1814  _owners.length */\n  mload\n    /* \"contracts/multisignaturewallet.sol\":1798:1799  i */\n  dup2\n    /* \"contracts/multisignaturewallet.sol\":1798:1814  i<_owners.length */\n  lt\n    /* \"contracts/multisignaturewallet.sol\":1785:2062  for(uint i=0;i<_owners.length;i++)\r... */\n  iszero\n  tag_14\n  jumpi\n    /* \"contracts/multisignaturewallet.sol\":1844:1857  address owner */\n  0x00\n    /* \"contracts/multisignaturewallet.sol\":1858:1865  _owners */\n  dup4\n    /* \"contracts/multisignaturewallet.sol\":1866:1867  i */\n  dup3\n    /* \"contracts/multisignaturewallet.sol\":1858:1868  _owners[i] */\n  dup2\n  mload\n  dup2\n  lt\n  tag_16\n  jumpi\n  tag_17\n  tag_18\n  jump\t// in\ntag_17:\ntag_16:\n  0x20\n  mul\n  0x20\n  add\n  add\n  mload\n    /* \"contracts/multisignaturewallet.sol\":1844:1868  address owner=_owners[i] */\n  swap1\n  pop\n    /* \"contracts/multisignaturewallet.sol\":1906:1907  0 */\n  0x00\n    /* \"contracts/multisignaturewallet.sol\":1891:1908  owner!=address(0) */\n  0xffffffffffffffffffffffffffffffffffffffff\n  and\n    /* \"contracts/multisignaturewallet.sol\":1891:1896  owner */\n  dup2\n    /* \"contracts/multisignaturewallet.sol\":1891:1908  owner!=address(0) */\n  0xffffffffffffffffffffffffffffffffffffffff\n  and\n  eq\n  iszero\n    /* \"contracts/multisignaturewallet.sol\":1883:1925  require(owner!=address(0),\"Invalid owner\") */\n  tag_19\n  jumpi\n  mload(0x40)\n  0x08c379a000000000000000000000000000000000000000000000000000000000\n  dup2\n  mstore\n  0x04\n  add\n  tag_20\n  swap1\n  tag_21\n  jump\t// in\ntag_20:\n  mload(0x40)\n  dup1\n  swap2\n  sub\n  swap1\n  revert\ntag_19:\n    /* \"contracts/multisignaturewallet.sol\":1949:1956  isOwner */\n  0x01\n    /* \"contracts/multisignaturewallet.sol\":1949:1963  isOwner[owner] */\n  0x00\n    /* \"contracts/multisignaturewallet.sol\":1957:1962  owner */\n  dup3\n    /* \"contracts/multisignaturewallet.sol\":1949:1963  isOwner[owner] */\n  0xffffffffffffffffffffffffffffffffffffffff\n  and\n  0xffffffffffffffffffffffffffffffffffffffff\n  and\n  dup2\n  mstore\n  0x20\n  add\n  swap1\n  dup2\n  mstore\n  0x20\n  add\n  0x00\n  keccak256\n  0x00\n  swap1\n  sload\n  swap1\n  0x0100\n  exp\n  swap1\n  div\n  0xff\n  and\n    /* \"contracts/multisignaturewallet.sol\":1948:1963  !isOwner[owner] */\n  iszero\n    /* \"contracts/multisignaturewallet.sol\":1940:1983  require(!isOwner[owner],\"Owner not unique\") */\n  tag_22\n  jumpi\n  mload(0x40)\n  0x08c379a000000000000000000000000000000000000000000000000000000000\n  dup2\n  mstore\n  0x04\n  add\n  tag_23\n  swap1\n  tag_24\n  jump\t// in\ntag_23:\n  mload(0x40)\n  dup1\n  swap2\n  sub\n  swap1\n  revert\ntag_22:\n    /* \"contracts/multisignaturewallet.sol\":2013:2017  true */\n  0x01\n    /* \"contracts/multisignaturewallet.sol\":1998:2005  isOwner */\n  dup1\n    /* \"contracts/multisignaturewallet.sol\":1998:2012  isOwner[owner] */\n  0x00\n    /* \"contracts/multisignaturewallet.sol\":2006:2011  owner */\n  dup4\n    /* \"contracts/multisignaturewallet.sol\":1998:2012  isOwner[owner] */\n  0xffffffffffffffffffffffffffffffffffffffff\n  and\n  0xffffffffffffffffffffffffffffffffffffffff\n  and\n  dup2\n  mstore\n  0x20\n  add\n  swap1\n  dup2\n  mstore\n  0x20\n  add\n  0x00\n  keccak256\n  0x00\n    /* \"contracts/multisignaturewallet.sol\":1998:2017  isOwner[owner]=true */\n  0x0100\n  exp\n  dup2\n  sload\n  dup2\n  0xff\n  mul\n  not\n  and\n  swap1\n  dup4\n  iszero\n  iszero\n  mul\n  or\n  swap1\n  sstore\n  pop\n    /* \"contracts/multisignaturewallet.sol\":2032:2038  owners */\n  0x00\n    /* \"contracts/multisignaturewallet.sol\":2044:2049  owner */\n  dup2\n    /* \"contracts/multisignaturewallet.sol\":2032:2050  owners.push(owner) */\n  swap1\n  dup1\n  0x01\n  dup2\n  sload\n  add\n  dup1\n  dup3\n  sstore\n  dup1\n  swap2\n  pop\n  pop\n  0x01\n  swap1\n  sub\n  swap1\n  0x00\n  mstore\n  keccak256(0x00, 0x20)\n  add\n  0x00\n  swap1\n  swap2\n  swap1\n  swap2\n  swap1\n  swap2\n  0x0100\n  exp\n  dup2\n  sload\n  dup2\n  0xffffffffffffffffffffffffffffffffffffffff\n  mul\n  not\n  and\n  swap1\n  dup4\n  0xffffffffffffffffffffffffffffffffffffffff\n  and\n  mul\n  or\n  swap1\n  sstore\n  pop\n    /* \"contracts/multisignaturewallet.sol\":1829:2062  {\r... */\n  pop\n    /* \"contracts/multisignaturewallet.sol\":1815:1818  i++ */\n  dup1\n  dup1\n  tag_26\n  swap1\n  tag_27\n  jump\t// in\ntag_26:\n  swap2\n  pop\n  pop\n    /* \"contracts/multisignaturewallet.sol\":1785:2062  for(uint i=0;i<_owners.length;i++)\r... */\n  jump(tag_13)\ntag_14:\n  pop\n    /* \"contracts/multisignaturewallet.sol\":2097:2121  _numConfirmationRequired */\n  dup1\n    /* \"contracts/multisignaturewallet.sol\":2072:2096  numConfirmationsRequired */\n  0x02\n    /* \"contracts/multisignaturewallet.sol\":2072:2121  numConfirmationsRequired=_numConfirmationRequired */\n  dup2\n  swap1\n  sstore\n  pop\n    /* \"contracts/multisignaturewallet.sol\":1482:2141  constructor(address[] memory _owners, uint _numConfirmationRequired){\r... */\n  pop\n  pop\n    /* \"contracts/multisignaturewallet.sol\":58:2621  contract MutlisigWallet{\r... */\n  jump(tag_28)\n    /* \"#utility.yul\":24:768   */\ntag_30:\n    /* \"#utility.yul\":131:136   */\n  0x00\n    /* \"#utility.yul\":156:237   */\n  tag_32\n    /* \"#utility.yul\":172:236   */\n  tag_33\n    /* \"#utility.yul\":229:235   */\n  dup5\n    /* \"#utility.yul\":172:236   */\n  tag_34\n  jump\t// in\ntag_33:\n    /* \"#utility.yul\":156:237   */\n  tag_35\n  jump\t// in\ntag_32:\n    /* \"#utility.yul\":147:237   */\n  swap1\n  pop\n    /* \"#utility.yul\":257:262   */\n  dup1\n    /* \"#utility.yul\":286:292   */\n  dup4\n    /* \"#utility.yul\":279:284   */\n  dup3\n    /* \"#utility.yul\":272:293   */\n  mstore\n    /* \"#utility.yul\":320:324   */\n  0x20\n    /* \"#utility.yul\":313:318   */\n  dup3\n    /* \"#utility.yul\":309:325   */\n  add\n    /* \"#utility.yul\":302:325   */\n  swap1\n  pop\n    /* \"#utility.yul\":346:352   */\n  dup3\n    /* \"#utility.yul\":396:399   */\n  dup6\n    /* \"#utility.yul\":388:392   */\n  0x20\n    /* \"#utility.yul\":380:386   */\n  dup7\n    /* \"#utility.yul\":376:393   */\n  mul\n    /* \"#utility.yul\":371:374   */\n  dup3\n    /* \"#utility.yul\":367:394   */\n  add\n    /* \"#utility.yul\":364:400   */\n  gt\n    /* \"#utility.yul\":361:504   */\n  iszero\n  tag_36\n  jumpi\n    /* \"#utility.yul\":415:494   */\n  tag_37\n  tag_38\n  jump\t// in\ntag_37:\n    /* \"#utility.yul\":361:504   */\ntag_36:\n    /* \"#utility.yul\":528:529   */\n  0x00\n    /* \"#utility.yul\":513:762   */\ntag_39:\n    /* \"#utility.yul\":538:544   */\n  dup6\n    /* \"#utility.yul\":535:536   */\n  dup2\n    /* \"#utility.yul\":532:545   */\n  lt\n    /* \"#utility.yul\":513:762   */\n  iszero\n  tag_41\n  jumpi\n    /* \"#utility.yul\":606:609   */\n  dup2\n    /* \"#utility.yul\":635:683   */\n  tag_42\n    /* \"#utility.yul\":679:682   */\n  dup9\n    /* \"#utility.yul\":667:677   */\n  dup3\n    /* \"#utility.yul\":635:683   */\n  tag_43\n  jump\t// in\ntag_42:\n    /* \"#utility.yul\":630:633   */\n  dup5\n    /* \"#utility.yul\":623:684   */\n  mstore\n    /* \"#utility.yul\":713:717   */\n  0x20\n    /* \"#utility.yul\":708:711   */\n  dup5\n    /* \"#utility.yul\":704:718   */\n  add\n    /* \"#utility.yul\":697:718   */\n  swap4\n  pop\n    /* \"#utility.yul\":747:751   */\n  0x20\n    /* \"#utility.yul\":742:745   */\n  dup4\n    /* \"#utility.yul\":738:752   */\n  add\n    /* \"#utility.yul\":731:752   */\n  swap3\n  pop\n    /* \"#utility.yul\":573:762   */\n  pop\n    /* \"#utility.yul\":560:561   */\n  0x01\n    /* \"#utility.yul\":557:558   */\n  dup2\n    /* \"#utility.yul\":553:562   */\n  add\n    /* \"#utility.yul\":548:562   */\n  swap1\n  pop\n    /* \"#utility.yul\":513:762   */\n  jump(tag_39)\ntag_41:\n    /* \"#utility.yul\":517:531   */\n  pop\n    /* \"#utility.yul\":137:768   */\n  pop\n  pop\n    /* \"#utility.yul\":24:768   */\n  swap4\n  swap3\n  pop\n  pop\n  pop\n  jump\t// out\n    /* \"#utility.yul\":774:917   */\ntag_43:\n    /* \"#utility.yul\":831:836   */\n  0x00\n    /* \"#utility.yul\":862:868   */\n  dup2\n    /* \"#utility.yul\":856:869   */\n  mload\n    /* \"#utility.yul\":847:869   */\n  swap1\n  pop\n    /* \"#utility.yul\":878:911   */\n  tag_45\n    /* \"#utility.yul\":905:910   */\n  dup2\n    /* \"#utility.yul\":878:911   */\n  tag_46\n  jump\t// in\ntag_45:\n    /* \"#utility.yul\":774:917   */\n  swap3\n  swap2\n  pop\n  pop\n  jump\t// out\n    /* \"#utility.yul\":940:1325   */\ntag_47:\n    /* \"#utility.yul\":1022:1027   */\n  0x00\n    /* \"#utility.yul\":1071:1074   */\n  dup3\n    /* \"#utility.yul\":1064:1068   */\n  0x1f\n    /* \"#utility.yul\":1056:1062   */\n  dup4\n    /* \"#utility.yul\":1052:1069   */\n  add\n    /* \"#utility.yul\":1048:1075   */\n  slt\n    /* \"#utility.yul\":1038:1160   */\n  tag_49\n  jumpi\n    /* \"#utility.yul\":1079:1158   */\n  tag_50\n  tag_51\n  jump\t// in\ntag_50:\n    /* \"#utility.yul\":1038:1160   */\ntag_49:\n    /* \"#utility.yul\":1189:1195   */\n  dup2\n    /* \"#utility.yul\":1183:1196   */\n  mload\n    /* \"#utility.yul\":1214:1319   */\n  tag_52\n    /* \"#utility.yul\":1315:1318   */\n  dup5\n    /* \"#utility.yul\":1307:1313   */\n  dup3\n    /* \"#utility.yul\":1300:1304   */\n  0x20\n    /* \"#utility.yul\":1292:1298   */\n  dup7\n    /* \"#utility.yul\":1288:1305   */\n  add\n    /* \"#utility.yul\":1214:1319   */\n  tag_30\n  jump\t// in\ntag_52:\n    /* \"#utility.yul\":1205:1319   */\n  swap2\n  pop\n    /* \"#utility.yul\":1028:1325   */\n  pop\n    /* \"#utility.yul\":940:1325   */\n  swap3\n  swap2\n  pop\n  pop\n  jump\t// out\n    /* \"#utility.yul\":1331:1474   */\ntag_53:\n    /* \"#utility.yul\":1388:1393   */\n  0x00\n    /* \"#utility.yul\":1419:1425   */\n  dup2\n    /* \"#utility.yul\":1413:1426   */\n  mload\n    /* \"#utility.yul\":1404:1426   */\n  swap1\n  pop\n    /* \"#utility.yul\":1435:1468   */\n  tag_55\n    /* \"#utility.yul\":1462:1467   */\n  dup2\n    /* \"#utility.yul\":1435:1468   */\n  tag_56\n  jump\t// in\ntag_55:\n    /* \"#utility.yul\":1331:1474   */\n  swap3\n  swap2\n  pop\n  pop\n  jump\t// out\n    /* \"#utility.yul\":1480:2190   */\ntag_3:\n    /* \"#utility.yul\":1584:1590   */\n  0x00\n    /* \"#utility.yul\":1592:1598   */\n  dup1\n    /* \"#utility.yul\":1641:1643   */\n  0x40\n    /* \"#utility.yul\":1629:1638   */\n  dup4\n    /* \"#utility.yul\":1620:1627   */\n  dup6\n    /* \"#utility.yul\":1616:1639   */\n  sub\n    /* \"#utility.yul\":1612:1644   */\n  slt\n    /* \"#utility.yul\":1609:1728   */\n  iszero\n  tag_58\n  jumpi\n    /* \"#utility.yul\":1647:1726   */\n  tag_59\n  tag_60\n  jump\t// in\ntag_59:\n    /* \"#utility.yul\":1609:1728   */\ntag_58:\n    /* \"#utility.yul\":1788:1789   */\n  0x00\n    /* \"#utility.yul\":1777:1786   */\n  dup4\n    /* \"#utility.yul\":1773:1790   */\n  add\n    /* \"#utility.yul\":1767:1791   */\n  mload\n    /* \"#utility.yul\":1818:1836   */\n  0xffffffffffffffff\n    /* \"#utility.yul\":1810:1816   */\n  dup2\n    /* \"#utility.yul\":1807:1837   */\n  gt\n    /* \"#utility.yul\":1804:1921   */\n  iszero\n  tag_61\n  jumpi\n    /* \"#utility.yul\":1840:1919   */\n  tag_62\n  tag_63\n  jump\t// in\ntag_62:\n    /* \"#utility.yul\":1804:1921   */\ntag_61:\n    /* \"#utility.yul\":1945:2034   */\n  tag_64\n    /* \"#utility.yul\":2026:2033   */\n  dup6\n    /* \"#utility.yul\":2017:2023   */\n  dup3\n    /* \"#utility.yul\":2006:2015   */\n  dup7\n    /* \"#utility.yul\":2002:2024   */\n  add\n    /* \"#utility.yul\":1945:2034   */\n  tag_47\n  jump\t// in\ntag_64:\n    /* \"#utility.yul\":1935:2034   */\n  swap3\n  pop\n    /* \"#utility.yul\":1738:2044   */\n  pop\n    /* \"#utility.yul\":2083:2085   */\n  0x20\n    /* \"#utility.yul\":2109:2173   */\n  tag_65\n    /* \"#utility.yul\":2165:2172   */\n  dup6\n    /* \"#utility.yul\":2156:2162   */\n  dup3\n    /* \"#utility.yul\":2145:2154   */\n  dup7\n    /* \"#utility.yul\":2141:2163   */\n  add\n    /* \"#utility.yul\":2109:2173   */\n  tag_53\n  jump\t// in\ntag_65:\n    /* \"#utility.yul\":2099:2173   */\n  swap2\n  pop\n    /* \"#utility.yul\":2054:2183   */\n  pop\n    /* \"#utility.yul\":1480:2190   */\n  swap3\n  pop\n  swap3\n  swap1\n  pop\n  jump\t// out\n    /* \"#utility.yul\":2196:2562   */\ntag_66:\n    /* \"#utility.yul\":2338:2341   */\n  0x00\n    /* \"#utility.yul\":2359:2426   */\n  tag_68\n    /* \"#utility.yul\":2423:2425   */\n  0x0d\n    /* \"#utility.yul\":2418:2421   */\n  dup4\n    /* \"#utility.yul\":2359:2426   */\n  tag_69\n  jump\t// in\ntag_68:\n    /* \"#utility.yul\":2352:2426   */\n  swap2\n  pop\n    /* \"#utility.yul\":2435:2528   */\n  tag_70\n    /* \"#utility.yul\":2524:2527   */\n  dup3\n    /* \"#utility.yul\":2435:2528   */\n  tag_71\n  jump\t// in\ntag_70:\n    /* \"#utility.yul\":2553:2555   */\n  0x20\n    /* \"#utility.yul\":2548:2551   */\n  dup3\n    /* \"#utility.yul\":2544:2556   */\n  add\n    /* \"#utility.yul\":2537:2556   */\n  swap1\n  pop\n    /* \"#utility.yul\":2196:2562   */\n  swap2\n  swap1\n  pop\n  jump\t// out\n    /* \"#utility.yul\":2568:2934   */\ntag_72:\n    /* \"#utility.yul\":2710:2713   */\n  0x00\n    /* \"#utility.yul\":2731:2798   */\n  tag_74\n    /* \"#utility.yul\":2795:2797   */\n  0x10\n    /* \"#utility.yul\":2790:2793   */\n  dup4\n    /* \"#utility.yul\":2731:2798   */\n  tag_69\n  jump\t// in\ntag_74:\n    /* \"#utility.yul\":2724:2798   */\n  swap2\n  pop\n    /* \"#utility.yul\":2807:2900   */\n  tag_75\n    /* \"#utility.yul\":2896:2899   */\n  dup3\n    /* \"#utility.yul\":2807:2900   */\n  tag_76\n  jump\t// in\ntag_75:\n    /* \"#utility.yul\":2925:2927   */\n  0x20\n    /* \"#utility.yul\":2920:2923   */\n  dup3\n    /* \"#utility.yul\":2916:2928   */\n  add\n    /* \"#utility.yul\":2909:2928   */\n  swap1\n  pop\n    /* \"#utility.yul\":2568:2934   */\n  swap2\n  swap1\n  pop\n  jump\t// out\n    /* \"#utility.yul\":2940:3306   */\ntag_77:\n    /* \"#utility.yul\":3082:3085   */\n  0x00\n    /* \"#utility.yul\":3103:3170   */\n  tag_79\n    /* \"#utility.yul\":3167:3169   */\n  0x1b\n    /* \"#utility.yul\":3162:3165   */\n  dup4\n    /* \"#utility.yul\":3103:3170   */\n  tag_69\n  jump\t// in\ntag_79:\n    /* \"#utility.yul\":3096:3170   */\n  swap2\n  pop\n    /* \"#utility.yul\":3179:3272   */\n  tag_80\n    /* \"#utility.yul\":3268:3271   */\n  dup3\n    /* \"#utility.yul\":3179:3272   */\n  tag_81\n  jump\t// in\ntag_80:\n    /* \"#utility.yul\":3297:3299   */\n  0x20\n    /* \"#utility.yul\":3292:3295   */\n  dup3\n    /* \"#utility.yul\":3288:3300   */\n  add\n    /* \"#utility.yul\":3281:3300   */\n  swap1\n  pop\n    /* \"#utility.yul\":2940:3306   */\n  swap2\n  swap1\n  pop\n  jump\t// out\n    /* \"#utility.yul\":3312:3678   */\ntag_82:\n    /* \"#utility.yul\":3454:3457   */\n  0x00\n    /* \"#utility.yul\":3475:3542   */\n  tag_84\n    /* \"#utility.yul\":3539:3541   */\n  0x37\n    /* \"#utility.yul\":3534:3537   */\n  dup4\n    /* \"#utility.yul\":3475:3542   */\n  tag_69\n  jump\t// in\ntag_84:\n    /* \"#utility.yul\":3468:3542   */\n  swap2\n  pop\n    /* \"#utility.yul\":3551:3644   */\n  tag_85\n    /* \"#utility.yul\":3640:3643   */\n  dup3\n    /* \"#utility.yul\":3551:3644   */\n  tag_86\n  jump\t// in\ntag_85:\n    /* \"#utility.yul\":3669:3671   */\n  0x40\n    /* \"#utility.yul\":3664:3667   */\n  dup3\n    /* \"#utility.yul\":3660:3672   */\n  add\n    /* \"#utility.yul\":3653:3672   */\n  swap1\n  pop\n    /* \"#utility.yul\":3312:3678   */\n  swap2\n  swap1\n  pop\n  jump\t// out\n    /* \"#utility.yul\":3684:4103   */\ntag_21:\n    /* \"#utility.yul\":3850:3854   */\n  0x00\n    /* \"#utility.yul\":3888:3890   */\n  0x20\n    /* \"#utility.yul\":3877:3886   */\n  dup3\n    /* \"#utility.yul\":3873:3891   */\n  add\n    /* \"#utility.yul\":3865:3891   */\n  swap1\n  pop\n    /* \"#utility.yul\":3937:3946   */\n  dup2\n    /* \"#utility.yul\":3931:3935   */\n  dup2\n    /* \"#utility.yul\":3927:3947   */\n  sub\n    /* \"#utility.yul\":3923:3924   */\n  0x00\n    /* \"#utility.yul\":3912:3921   */\n  dup4\n    /* \"#utility.yul\":3908:3925   */\n  add\n    /* \"#utility.yul\":3901:3948   */\n  mstore\n    /* \"#utility.yul\":3965:4096   */\n  tag_88\n    /* \"#utility.yul\":4091:4095   */\n  dup2\n    /* \"#utility.yul\":3965:4096   */\n  tag_66\n  jump\t// in\ntag_88:\n    /* \"#utility.yul\":3957:4096   */\n  swap1\n  pop\n    /* \"#utility.yul\":3684:4103   */\n  swap2\n  swap1\n  pop\n  jump\t// out\n    /* \"#utility.yul\":4109:4528   */\ntag_24:\n    /* \"#utility.yul\":4275:4279   */\n  0x00\n    /* \"#utility.yul\":4313:4315   */\n  0x20\n    /* \"#utility.yul\":4302:4311   */\n  dup3\n    /* \"#utility.yul\":4298:4316   */\n  add\n    /* \"#utility.yul\":4290:4316   */\n  swap1\n  pop\n    /* \"#utility.yul\":4362:4371   */\n  dup2\n    /* \"#utility.yul\":4356:4360   */\n  dup2\n    /* \"#utility.yul\":4352:4372   */\n  sub\n    /* \"#utility.yul\":4348:4349   */\n  0x00\n    /* \"#utility.yul\":4337:4346   */\n  dup4\n    /* \"#utility.yul\":4333:4350   */\n  add\n    /* \"#utility.yul\":4326:4373   */\n  mstore\n    /* \"#utility.yul\":4390:4521   */\n  tag_90\n    /* \"#utility.yul\":4516:4520   */\n  dup2\n    /* \"#utility.yul\":4390:4521   */\n  tag_72\n  jump\t// in\ntag_90:\n    /* \"#utility.yul\":4382:4521   */\n  swap1\n  pop\n    /* \"#utility.yul\":4109:4528   */\n  swap2\n  swap1\n  pop\n  jump\t// out\n    /* \"#utility.yul\":4534:4953   */\ntag_8:\n    /* \"#utility.yul\":4700:4704   */\n  0x00\n    /* \"#utility.yul\":4738:4740   */\n  0x20\n    /* \"#utility.yul\":4727:4736   */\n  dup3\n    /* \"#utility.yul\":4723:4741   */\n  add\n    /* \"#utility.yul\":4715:4741   */\n  swap1\n  pop\n    /* \"#utility.yul\":4787:4796   */\n  dup2\n    /* \"#utility.yul\":4781:4785   */\n  dup2\n    /* \"#utility.yul\":4777:4797   */\n  sub\n    /* \"#utility.yul\":4773:4774   */\n  0x00\n    /* \"#utility.yul\":4762:4771   */\n  dup4\n    /* \"#utility.yul\":4758:4775   */\n  add\n    /* \"#utility.yul\":4751:4798   */\n  mstore\n    /* \"#utility.yul\":4815:4946   */\n  tag_92\n    /* \"#utility.yul\":4941:4945   */\n  dup2\n    /* \"#utility.yul\":4815:4946   */\n  tag_77\n  jump\t// in\ntag_92:\n    /* \"#utility.yul\":4807:4946   */\n  swap1\n  pop\n    /* \"#utility.yul\":4534:4953   */\n  swap2\n  swap1\n  pop\n  jump\t// out\n    /* \"#utility.yul\":4959:5378   */\ntag_12:\n    /* \"#utility.yul\":5125:5129   */\n  0x00\n    /* \"#utility.yul\":5163:5165   */\n  0x20\n    /* \"#utility.yul\":5152:5161   */\n  dup3\n    /* \"#utility.yul\":5148:5166   */\n  add\n    /* \"#utility.yul\":5140:5166   */\n  swap1\n  pop\n    /* \"#utility.yul\":5212:5221   */\n  dup2\n    /* \"#utility.yul\":5206:5210   */\n  dup2\n    /* \"#utility.yul\":5202:5222   */\n  sub\n    /* \"#utility.yul\":5198:5199   */\n  0x00\n    /* \"#utility.yul\":5187:5196   */\n  dup4\n    /* \"#utility.yul\":5183:5200   */\n  add\n    /* \"#utility.yul\":5176:5223   */\n  mstore\n    /* \"#utility.yul\":5240:5371   */\n  tag_94\n    /* \"#utility.yul\":5366:5370   */\n  dup2\n    /* \"#utility.yul\":5240:5371   */\n  tag_82\n  jump\t// in\ntag_94:\n    /* \"#utility.yul\":5232:5371   */\n  swap1\n  pop\n    /* \"#utility.yul\":4959:5378   */\n  swap2\n  swap1\n  pop\n  jump\t// out\n    /* \"#utility.yul\":5384:5513   */\ntag_35:\n    /* \"#utility.yul\":5418:5424   */\n  0x00\n    /* \"#utility.yul\":5445:5465   */\n  tag_96\n  tag_97\n  jump\t// in\ntag_96:\n    /* \"#utility.yul\":5435:5465   */\n  swap1\n  pop\n    /* \"#utility.yul\":5474:5507   */\n  tag_98\n    /* \"#utility.yul\":5502:5506   */\n  dup3\n    /* \"#utility.yul\":5494:5500   */\n  dup3\n    /* \"#utility.yul\":5474:5507   */\n  tag_99\n  jump\t// in\ntag_98:\n    /* \"#utility.yul\":5384:5513   */\n  swap2\n  swap1\n  pop\n  jump\t// out\n    /* \"#utility.yul\":5519:5594   */\ntag_97:\n    /* \"#utility.yul\":5552:5558   */\n  0x00\n    /* \"#utility.yul\":5585:5587   */\n  0x40\n    /* \"#utility.yul\":5579:5588   */\n  mload\n    /* \"#utility.yul\":5569:5588   */\n  swap1\n  pop\n    /* \"#utility.yul\":5519:5594   */\n  swap1\n  jump\t// out\n    /* \"#utility.yul\":5600:5911   */\ntag_34:\n    /* \"#utility.yul\":5677:5681   */\n  0x00\n    /* \"#utility.yul\":5767:5785   */\n  0xffffffffffffffff\n    /* \"#utility.yul\":5759:5765   */\n  dup3\n    /* \"#utility.yul\":5756:5786   */\n  gt\n    /* \"#utility.yul\":5753:5809   */\n  iszero\n  tag_102\n  jumpi\n    /* \"#utility.yul\":5789:5807   */\n  tag_103\n  tag_104\n  jump\t// in\ntag_103:\n    /* \"#utility.yul\":5753:5809   */\ntag_102:\n    /* \"#utility.yul\":5839:5843   */\n  0x20\n    /* \"#utility.yul\":5831:5837   */\n  dup3\n    /* \"#utility.yul\":5827:5844   */\n  mul\n    /* \"#utility.yul\":5819:5844   */\n  swap1\n  pop\n    /* \"#utility.yul\":5899:5903   */\n  0x20\n    /* \"#utility.yul\":5893:5897   */\n  dup2\n    /* \"#utility.yul\":5889:5904   */\n  add\n    /* \"#utility.yul\":5881:5904   */\n  swap1\n  pop\n    /* \"#utility.yul\":5600:5911   */\n  swap2\n  swap1\n  pop\n  jump\t// out\n    /* \"#utility.yul\":5917:6086   */\ntag_69:\n    /* \"#utility.yul\":6001:6012   */\n  0x00\n    /* \"#utility.yul\":6035:6041   */\n  dup3\n    /* \"#utility.yul\":6030:6033   */\n  dup3\n    /* \"#utility.yul\":6023:6042   */\n  mstore\n    /* \"#utility.yul\":6075:6079   */\n  0x20\n    /* \"#utility.yul\":6070:6073   */\n  dup3\n    /* \"#utility.yul\":6066:6080   */\n  add\n    /* \"#utility.yul\":6051:6080   */\n  swap1\n  pop\n    /* \"#utility.yul\":5917:6086   */\n  swap3\n  swap2\n  pop\n  pop\n  jump\t// out\n    /* \"#utility.yul\":6092:6188   */\ntag_106:\n    /* \"#utility.yul\":6129:6136   */\n  0x00\n    /* \"#utility.yul\":6158:6182   */\n  tag_108\n    /* \"#utility.yul\":6176:6181   */\n  dup3\n    /* \"#utility.yul\":6158:6182   */\n  tag_109\n  jump\t// in\ntag_108:\n    /* \"#utility.yul\":6147:6182   */\n  swap1\n  pop\n    /* \"#utility.yul\":6092:6188   */\n  swap2\n  swap1\n  pop\n  jump\t// out\n    /* \"#utility.yul\":6194:6320   */\ntag_109:\n    /* \"#utility.yul\":6231:6238   */\n  0x00\n    /* \"#utility.yul\":6271:6313   */\n  0xffffffffffffffffffffffffffffffffffffffff\n    /* \"#utility.yul\":6264:6269   */\n  dup3\n    /* \"#utility.yul\":6260:6314   */\n  and\n    /* \"#utility.yul\":6249:6314   */\n  swap1\n  pop\n    /* \"#utility.yul\":6194:6320   */\n  swap2\n  swap1\n  pop\n  jump\t// out\n    /* \"#utility.yul\":6326:6403   */\ntag_111:\n    /* \"#utility.yul\":6363:6370   */\n  0x00\n    /* \"#utility.yul\":6392:6397   */\n  dup2\n    /* \"#utility.yul\":6381:6397   */\n  swap1\n  pop\n    /* \"#utility.yul\":6326:6403   */\n  swap2\n  swap1\n  pop\n  jump\t// out\n    /* \"#utility.yul\":6409:6690   */\ntag_99:\n    /* \"#utility.yul\":6492:6519   */\n  tag_114\n    /* \"#utility.yul\":6514:6518   */\n  dup3\n    /* \"#utility.yul\":6492:6519   */\n  tag_115\n  jump\t// in\ntag_114:\n    /* \"#utility.yul\":6484:6490   */\n  dup2\n    /* \"#utility.yul\":6480:6520   */\n  add\n    /* \"#utility.yul\":6622:6628   */\n  dup2\n    /* \"#utility.yul\":6610:6620   */\n  dup2\n    /* \"#utility.yul\":6607:6629   */\n  lt\n    /* \"#utility.yul\":6586:6604   */\n  0xffffffffffffffff\n    /* \"#utility.yul\":6574:6584   */\n  dup3\n    /* \"#utility.yul\":6571:6605   */\n  gt\n    /* \"#utility.yul\":6568:6630   */\n  or\n    /* \"#utility.yul\":6565:6653   */\n  iszero\n  tag_116\n  jumpi\n    /* \"#utility.yul\":6633:6651   */\n  tag_117\n  tag_104\n  jump\t// in\ntag_117:\n    /* \"#utility.yul\":6565:6653   */\ntag_116:\n    /* \"#utility.yul\":6673:6683   */\n  dup1\n    /* \"#utility.yul\":6669:6671   */\n  0x40\n    /* \"#utility.yul\":6662:6684   */\n  mstore\n    /* \"#utility.yul\":6452:6690   */\n  pop\n    /* \"#utility.yul\":6409:6690   */\n  pop\n  pop\n  jump\t// out\n    /* \"#utility.yul\":6696:6929   */\ntag_27:\n    /* \"#utility.yul\":6735:6738   */\n  0x00\n    /* \"#utility.yul\":6758:6782   */\n  tag_119\n    /* \"#utility.yul\":6776:6781   */\n  dup3\n    /* \"#utility.yul\":6758:6782   */\n  tag_111\n  jump\t// in\ntag_119:\n    /* \"#utility.yul\":6749:6782   */\n  swap2\n  pop\n    /* \"#utility.yul\":6804:6870   */\n  0xffffffffffffffffffffffffffffffffffffffffffffffffffffffffffffffff\n    /* \"#utility.yul\":6797:6802   */\n  dup3\n    /* \"#utility.yul\":6794:6871   */\n  eq\n    /* \"#utility.yul\":6791:6894   */\n  iszero\n  tag_120\n  jumpi\n    /* \"#utility.yul\":6874:6892   */\n  tag_121\n  tag_122\n  jump\t// in\ntag_121:\n    /* \"#utility.yul\":6791:6894   */\ntag_120:\n    /* \"#utility.yul\":6921:6922   */\n  0x01\n    /* \"#utility.yul\":6914:6919   */\n  dup3\n    /* \"#utility.yul\":6910:6923   */\n  add\n    /* \"#utility.yul\":6903:6923   */\n  swap1\n  pop\n    /* \"#utility.yul\":6696:6929   */\n  swap2\n  swap1\n  pop\n  jump\t// out\n    /* \"#utility.yul\":6935:7115   */\ntag_122:\n    /* \"#utility.yul\":6983:7060   */\n  0x4e487b7100000000000000000000000000000000000000000000000000000000\n    /* \"#utility.yul\":6980:6981   */\n  0x00\n    /* \"#utility.yul\":6973:7061   */\n  mstore\n    /* \"#utility.yul\":7080:7084   */\n  0x11\n    /* \"#utility.yul\":7077:7078   */\n  0x04\n    /* \"#utility.yul\":7070:7085   */\n  mstore\n    /* \"#utility.yul\":7104:7108   */\n  0x24\n    /* \"#utility.yul\":7101:7102   */\n  0x00\n    /* \"#utility.yul\":7094:7109   */\n  revert\n    /* \"#utility.yul\":7121:7301   */\ntag_18:\n    /* \"#utility.yul\":7169:7246   */\n  0x4e487b7100000000000000000000000000000000000000000000000000000000\n    /* \"#utility.yul\":7166:7167   */\n  0x00\n    /* \"#utility.yul\":7159:7247   */\n  mstore\n    /* \"#utility.yul\":7266:7270   */\n  0x32\n    /* \"#utility.yul\":7263:7264   */\n  0x04\n    /* \"#utility.yul\":7256:7271   */\n  mstore\n    /* \"#utility.yul\":7290:7294   */\n  0x24\n    /* \"#utility.yul\":7287:7288   */\n  0x00\n    /* \"#utility.yul\":7280:7295   */\n  revert\n    /* \"#utility.yul\":7307:7487   */\ntag_104:\n    /* \"#utility.yul\":7355:7432   */\n  0x4e487b7100000000000000000000000000000000000000000000000000000000\n    /* \"#utility.yul\":7352:7353   */\n  0x00\n    /* \"#utility.yul\":7345:7433   */\n  mstore\n    /* \"#utility.yul\":7452:7456   */\n  0x41\n    /* \"#utility.yul\":7449:7450   */\n  0x04\n    /* \"#utility.yul\":7442:7457   */\n  mstore\n    /* \"#utility.yul\":7476:7480   */\n  0x24\n    /* \"#utility.yul\":7473:7474   */\n  0x00\n    /* \"#utility.yul\":7466:7481   */\n  revert\n    /* \"#utility.yul\":7493:7610   */\ntag_51:\n    /* \"#utility.yul\":7602:7603   */\n  0x00\n    /* \"#utility.yul\":7599:7600   */\n  dup1\n    /* \"#utility.yul\":7592:7604   */\n  revert\n    /* \"#utility.yul\":7616:7733   */\ntag_38:\n    /* \"#utility.yul\":7725:7726   */\n  0x00\n    /* \"#utility.yul\":7722:7723   */\n  dup1\n    /* \"#utility.yul\":7715:7727   */\n  revert\n    /* \"#utility.yul\":7739:7856   */\ntag_63:\n    /* \"#utility.yul\":7848:7849   */\n  0x00\n    /* \"#utility.yul\":7845:7846   */\n  dup1\n    /* \"#utility.yul\":7838:7850   */\n  revert\n    /* \"#utility.yul\":7862:7979   */\ntag_60:\n    /* \"#utility.yul\":7971:7972   */\n  0x00\n    /* \"#utility.yul\":7968:7969   */\n  dup1\n    /* \"#utility.yul\":7961:7973   */\n  revert\n    /* \"#utility.yul\":7985:8087   */\ntag_115:\n    /* \"#utility.yul\":8026:8032   */\n  0x00\n    /* \"#utility.yul\":8077:8079   */\n  0x1f\n    /* \"#utility.yul\":8073:8080   */\n  not\n    /* \"#utility.yul\":8068:8070   */\n  0x1f\n    /* \"#utility.yul\":8061:8066   */\n  dup4\n    /* \"#utility.yul\":8057:8071   */\n  add\n    /* \"#utility.yul\":8053:8081   */\n  and\n    /* \"#utility.yul\":8043:8081   */\n  swap1\n  pop\n    /* \"#utility.yul\":7985:8087   */\n  swap2\n  swap1\n  pop\n  jump\t// out\n    /* \"#utility.yul\":8093:8256   */\ntag_71:\n    /* \"#utility.yul\":8233:8248   */\n  0x496e76616c6964206f776e657200000000000000000000000000000000000000\n    /* \"#utility.yul\":8229:8230   */\n  0x00\n    /* \"#utility.yul\":8221:8227   */\n  dup3\n    /* \"#utility.yul\":8217:8231   */\n  add\n    /* \"#utility.yul\":8210:8249   */\n  mstore\n    /* \"#utility.yul\":8093:8256   */\n  pop\n  jump\t// out\n    /* \"#utility.yul\":8262:8428   */\ntag_76:\n    /* \"#utility.yul\":8402:8420   */\n  0x4f776e6572206e6f7420756e6971756500000000000000000000000000000000\n    /* \"#utility.yul\":8398:8399   */\n  0x00\n    /* \"#utility.yul\":8390:8396   */\n  dup3\n    /* \"#utility.yul\":8386:8400   */\n  add\n    /* \"#utility.yul\":8379:8421   */\n  mstore\n    /* \"#utility.yul\":8262:8428   */\n  pop\n  jump\t// out\n    /* \"#utility.yul\":8434:8611   */\ntag_81:\n    /* \"#utility.yul\":8574:8603   */\n  0x6174206c65617374206f6e65206f776e65722072657175697265640000000000\n    /* \"#utility.yul\":8570:8571   */\n  0x00\n    /* \"#utility.yul\":8562:8568   */\n  dup3\n    /* \"#utility.yul\":8558:8572   */\n  add\n    /* \"#utility.yul\":8551:8604   */\n  mstore\n    /* \"#utility.yul\":8434:8611   */\n  pop\n  jump\t// out\n    /* \"#utility.yul\":8617:8859   */\ntag_86:\n    /* \"#utility.yul\":8757:8791   */\n  0x496e76616c6964206e756d626572206f6620726571756972656420636f6e6669\n    /* \"#utility.yul\":8753:8754   */\n  0x00\n    /* \"#utility.yul\":8745:8751   */\n  dup3\n    /* \"#utility.yul\":8741:8755   */\n  add\n    /* \"#utility.yul\":8734:8792   */\n  mstore\n    /* \"#utility.yul\":8826:8851   */\n  0x726d6174696f6e7320696e20636f6e7374727563746f72000000000000000000\n    /* \"#utility.yul\":8821:8823   */\n  0x20\n    /* \"#utility.yul\":8813:8819   */\n  dup3\n    /* \"#utility.yul\":8809:8824   */\n  add\n    /* \"#utility.yul\":8802:8852   */\n  mstore\n    /* \"#utility.yul\":8617:8859   */\n  pop\n  jump\t// out\n    /* \"#utility.yul\":8865:8987   */\ntag_46:\n    /* \"#utility.yul\":8938:8962   */\n  tag_136\n    /* \"#utility.yul\":8956:8961   */\n  dup2\n    /* \"#utility.yul\":8938:8962   */\n  tag_106\n  jump\t// in\ntag_136:\n    /* \"#utility.yul\":8931:8936   */\n  dup2\n    /* \"#utility.yul\":8928:8963   */\n  eq\n    /* \"#utility.yul\":8918:8981   */\n  tag_137\n  jumpi\n    /* \"#utility.yul\":8977:8978   */\n  0x00\n    /* \"#utility.yul\":8974:8975   */\n  dup1\n    /* \"#utility.yul\":8967:8979   */\n  revert\n    /* \"#utility.yul\":8918:8981   */\ntag_137:\n    /* \"#utility.yul\":8865:8987   */\n  pop\n  jump\t// out\n    /* \"#utility.yul\":8993:9115   */\ntag_56:\n    /* \"#utility.yul\":9066:9090   */\n  tag_139\n    /* \"#utility.yul\":9084:9089   */\n  dup2\n    /* \"#utility.yul\":9066:9090   */\n  tag_111\n  jump\t// in\ntag_139:\n    /* \"#utility.yul\":9059:9064   */\n  dup2\n    /* \"#utility.yul\":9056:9091   */\n  eq\n    /* \"#utility.yul\":9046:9109   */\n  tag_140\n  jumpi\n    /* \"#utility.yul\":9105:9106   */\n  0x00\n    /* \"#utility.yul\":9102:9103   */\n  dup1\n    /* \"#utility.yul\":9095:9107   */\n  revert\n    /* \"#utility.yul\":9046:9109   */\ntag_140:\n    /* \"#utility.yul\":8993:9115   */\n  pop\n  jump\t// out\n    /* \"contracts/multisignaturewallet.sol\":58:2621  contract MutlisigWallet{\r... */\ntag_28:\n  dataSize(sub_0)\n  dup1\n  dataOffset(sub_0)\n  0x00\n  codecopy\n  0x00\n  return\nstop\n\nsub_0: assembly {\n        /* \"contracts/multisignaturewallet.sol\":58:2621  contract MutlisigWallet{\r... */\n      mstore(0x40, 0x80)\n      jumpi(tag_1, lt(calldatasize, 0x04))\n      shr(0xe0, calldataload(0x00))\n      dup1\n      0x025e7c27\n      eq\n      tag_3\n      jumpi\n      dup1\n      0x2f54bf6e\n      eq\n      tag_4\n      jumpi\n      dup1\n      0x80f59a65\n      eq\n      tag_5\n      jumpi\n      dup1\n      0x9ace38c2\n      eq\n      tag_6\n      jumpi\n      dup1\n      0xc01a8c84\n      eq\n      tag_7\n      jumpi\n      dup1\n      0xd0549b85\n      eq\n      tag_8\n      jumpi\n      jump(tag_2)\n    tag_1:\n      jumpi(tag_2, calldatasize)\n        /* \"contracts/multisignaturewallet.sol\":2200:2210  msg.sender */\n      caller\n        /* \"contracts/multisignaturewallet.sol\":2192:2243  Deposit(msg.sender,msg.value,address(this).balance) */\n      0xffffffffffffffffffffffffffffffffffffffff\n      and\n      0x90890809c654f11d6e72a28fa60149770a0d11ec6c92319d6ceb2bb0a4ea1a15\n        /* \"contracts/multisignaturewallet.sol\":2211:2220  msg.value */\n      callvalue\n        /* \"contracts/multisignaturewallet.sol\":2221:2242  address(this).balance */\n      selfbalance\n        /* \"contracts/multisignaturewallet.sol\":2192:2243  Deposit(msg.sender,msg.value,address(this).balance) */\n      mload(0x40)\n      tag_11\n      swap3\n      swap2\n      swap1\n      tag_12\n      jump\t// in\n    tag_11:\n      mload(0x40)\n      dup1\n      swap2\n      sub\n      swap1\n      log2\n        /* \"contracts/multisignaturewallet.sol\":58:2621  contract MutlisigWallet{\r... */\n      stop\n    tag_2:\n      0x00\n      dup1\n      revert\n        /* \"contracts/multisignaturewallet.sol\":582:605  address[] public owners */\n    tag_3:\n      callvalue\n      dup1\n      iszero\n      tag_13\n      jumpi\n      0x00\n      dup1\n      revert\n    tag_13:\n      pop\n      tag_14\n      0x04\n      dup1\n      calldatasize\n      sub\n      dup2\n      add\n      swap1\n      tag_15\n      swap2\n      swap1\n      tag_16\n      jump\t// in\n    tag_15:\n      tag_17\n      jump\t// in\n    tag_14:\n      mload(0x40)\n      tag_18\n      swap2\n      swap1\n      tag_19\n      jump\t// in\n    tag_18:\n      mload(0x40)\n      dup1\n      swap2\n      sub\n      swap1\n      return\n        /* \"contracts/multisignaturewallet.sol\":612:649  mapping(address=>bool) public isOwner */\n    tag_4:\n      callvalue\n      dup1\n      iszero\n      tag_20\n      jumpi\n      0x00\n      dup1\n      revert\n    tag_20:\n      pop\n      tag_21\n      0x04\n      dup1\n      calldatasize\n      sub\n      dup2\n      add\n      swap1\n      tag_22\n      swap2\n      swap1\n      tag_23\n      jump\t// in\n    tag_22:\n      tag_24\n      jump\t// in\n    tag_21:\n      mload(0x40)\n      tag_25\n      swap2\n      swap1\n      tag_26\n      jump\t// in\n    tag_25:\n      mload(0x40)\n      dup1\n      swap2\n      sub\n      swap1\n      return\n        /* \"contracts/multisignaturewallet.sol\":855:911  mapping(uint=>mapping(address=>bool)) public isConfirmed */\n    tag_5:\n      callvalue\n      dup1\n      iszero\n      tag_27\n      jumpi\n      0x00\n      dup1\n      revert\n    tag_27:\n      pop\n      tag_28\n      0x04\n      dup1\n      calldatasize\n      sub\n      dup2\n      add\n      swap1\n      tag_29\n      swap2\n      swap1\n      tag_30\n      jump\t// in\n    tag_29:\n      tag_31\n      jump\t// in\n    tag_28:\n      mload(0x40)\n      tag_32\n      swap2\n      swap1\n      tag_26\n      jump\t// in\n    tag_32:\n      mload(0x40)\n      dup1\n      swap2\n      sub\n      swap1\n      return\n        /* \"contracts/multisignaturewallet.sol\":918:951  Transaction[] public transactions */\n    tag_6:\n      callvalue\n      dup1\n      iszero\n      tag_33\n      jumpi\n      0x00\n      dup1\n      revert\n    tag_33:\n      pop\n      tag_34\n      0x04\n      dup1\n      calldatasize\n      sub\n      dup2\n      add\n      swap1\n      tag_35\n      swap2\n      swap1\n      tag_16\n      jump\t// in\n    tag_35:\n      tag_36\n      jump\t// in\n    tag_34:\n      mload(0x40)\n      tag_37\n      swap6\n      swap5\n      swap4\n      swap3\n      swap2\n      swap1\n      tag_38\n      jump\t// in\n    tag_37:\n      mload(0x40)\n      dup1\n      swap2\n      sub\n      swap1\n      return\n        /* \"contracts/multisignaturewallet.sol\":2257:2618  function confirmTransaction(uint _txIndex)public onlyOwner \r... */\n    tag_7:\n      callvalue\n      dup1\n      iszero\n      tag_39\n      jumpi\n      0x00\n      dup1\n      revert\n    tag_39:\n      pop\n      tag_40\n      0x04\n      dup1\n      calldatasize\n      sub\n      dup2\n      add\n      swap1\n      tag_41\n      swap2\n      swap1\n      tag_16\n      jump\t// in\n    tag_41:\n      tag_42\n      jump\t// in\n    tag_40:\n      stop\n        /* \"contracts/multisignaturewallet.sol\":656:692  uint public numConfirmationsRequired */\n    tag_8:\n      callvalue\n      dup1\n      iszero\n      tag_43\n      jumpi\n      0x00\n      dup1\n      revert\n    tag_43:\n      pop\n      tag_44\n      tag_45\n      jump\t// in\n    tag_44:\n      mload(0x40)\n      tag_46\n      swap2\n      swap1\n      tag_47\n      jump\t// in\n    tag_46:\n      mload(0x40)\n      dup1\n      swap2\n      sub\n      swap1\n      return\n        /* \"contracts/multisignaturewallet.sol\":582:605  address[] public owners */\n    tag_17:\n      0x00\n      dup2\n      dup2\n      sload\n      dup2\n      lt\n      tag_48\n      jumpi\n      0x00\n      dup1\n      revert\n    tag_48:\n      swap1\n      0x00\n      mstore\n      keccak256(0x00, 0x20)\n      add\n      0x00\n      swap2\n      pop\n      sload\n      swap1\n      0x0100\n      exp\n      swap1\n      div\n      0xffffffffffffffffffffffffffffffffffffffff\n      and\n      dup2\n      jump\t// out\n        /* \"contracts/multisignaturewallet.sol\":612:649  mapping(address=>bool) public isOwner */\n    tag_24:\n      mstore(0x20, 0x01)\n      dup1\n      0x00\n      mstore\n      keccak256(0x00, 0x40)\n      0x00\n      swap2\n      pop\n      sload\n      swap1\n      0x0100\n      exp\n      swap1\n      div\n      0xff\n      and\n      dup2\n      jump\t// out\n        /* \"contracts/multisignaturewallet.sol\":855:911  mapping(uint=>mapping(address=>bool)) public isConfirmed */\n    tag_31:\n      mstore(0x20, 0x03)\n      dup2\n      0x00\n      mstore\n      mstore(0x20, keccak256(0x00, 0x40))\n      dup1\n      0x00\n      mstore\n      keccak256(0x00, 0x40)\n      0x00\n      swap2\n      pop\n      swap2\n      pop\n      swap1\n      sload\n      swap1\n      0x0100\n      exp\n      swap1\n      div\n      0xff\n      and\n      dup2\n      jump\t// out\n        /* \"contracts/multisignaturewallet.sol\":918:951  Transaction[] public transactions */\n    tag_36:\n      0x04\n      dup2\n      dup2\n      sload\n      dup2\n      lt\n      tag_50\n      jumpi\n      0x00\n      dup1\n      revert\n    tag_50:\n      swap1\n      0x00\n      mstore\n      keccak256(0x00, 0x20)\n      swap1\n      0x05\n      mul\n      add\n      0x00\n      swap2\n      pop\n      swap1\n      pop\n      dup1\n      0x00\n      add\n      0x00\n      swap1\n      sload\n      swap1\n      0x0100\n      exp\n      swap1\n      div\n      0xffffffffffffffffffffffffffffffffffffffff\n      and\n      swap1\n      dup1\n      0x01\n      add\n      sload\n      swap1\n      dup1\n      0x02\n      add\n      dup1\n      sload\n      tag_52\n      swap1\n      tag_53\n      jump\t// in\n    tag_52:\n      dup1\n      0x1f\n      add\n      0x20\n      dup1\n      swap2\n      div\n      mul\n      0x20\n      add\n      mload(0x40)\n      swap1\n      dup2\n      add\n      0x40\n      mstore\n      dup1\n      swap3\n      swap2\n      swap1\n      dup2\n      dup2\n      mstore\n      0x20\n      add\n      dup3\n      dup1\n      sload\n      tag_54\n      swap1\n      tag_53\n      jump\t// in\n    tag_54:\n      dup1\n      iszero\n      tag_55\n      jumpi\n      dup1\n      0x1f\n      lt\n      tag_56\n      jumpi\n      0x0100\n      dup1\n      dup4\n      sload\n      div\n      mul\n      dup4\n      mstore\n      swap2\n      0x20\n      add\n      swap2\n      jump(tag_55)\n    tag_56:\n      dup3\n      add\n      swap2\n      swap1\n      0x00\n      mstore\n      keccak256(0x00, 0x20)\n      swap1\n    tag_57:\n      dup2\n      sload\n      dup2\n      mstore\n      swap1\n      0x01\n      add\n      swap1\n      0x20\n      add\n      dup1\n      dup4\n      gt\n      tag_57\n      jumpi\n      dup3\n      swap1\n      sub\n      0x1f\n      and\n      dup3\n      add\n      swap2\n    tag_55:\n      pop\n      pop\n      pop\n      pop\n      pop\n      swap1\n      dup1\n      0x03\n      add\n      0x00\n      swap1\n      sload\n      swap1\n      0x0100\n      exp\n      swap1\n      div\n      0xff\n      and\n      swap1\n      dup1\n      0x04\n      add\n      sload\n      swap1\n      pop\n      dup6\n      jump\t// out\n        /* \"contracts/multisignaturewallet.sol\":2257:2618  function confirmTransaction(uint _txIndex)public onlyOwner \r... */\n    tag_42:\n        /* \"contracts/multisignaturewallet.sol\":1005:1012  isOwner */\n      0x01\n        /* \"contracts/multisignaturewallet.sol\":1005:1024  isOwner[msg.sender] */\n      0x00\n        /* \"contracts/multisignaturewallet.sol\":1013:1023  msg.sender */\n      caller\n        /* \"contracts/multisignaturewallet.sol\":1005:1024  isOwner[msg.sender] */\n      0xffffffffffffffffffffffffffffffffffffffff\n      and\n      0xffffffffffffffffffffffffffffffffffffffff\n      and\n      dup2\n      mstore\n      0x20\n      add\n      swap1\n      dup2\n      mstore\n      0x20\n      add\n      0x00\n      keccak256\n      0x00\n      swap1\n      sload\n      swap1\n      0x0100\n      exp\n      swap1\n      div\n      0xff\n      and\n        /* \"contracts/multisignaturewallet.sol\":997:1041  require(isOwner[msg.sender],\"Not the owner\") */\n      tag_59\n      jumpi\n      mload(0x40)\n      0x08c379a000000000000000000000000000000000000000000000000000000000\n      dup2\n      mstore\n      0x04\n      add\n      tag_60\n      swap1\n      tag_61\n      jump\t// in\n    tag_60:\n      mload(0x40)\n      dup1\n      swap2\n      sub\n      swap1\n      revert\n    tag_59:\n        /* \"contracts/multisignaturewallet.sol\":2331:2339  _txIndex */\n      dup1\n        /* \"contracts/multisignaturewallet.sol\":1127:1139  transactions */\n      0x04\n        /* \"contracts/multisignaturewallet.sol\":1127:1146  transactions.length */\n      dup1\n      sload\n      swap1\n      pop\n        /* \"contracts/multisignaturewallet.sol\":1118:1126  _txIndex */\n      dup2\n        /* \"contracts/multisignaturewallet.sol\":1118:1146  _txIndex<transactions.length */\n      lt\n        /* \"contracts/multisignaturewallet.sol\":1110:1176  require(_txIndex<transactions.length,\"transaction does not exist\") */\n      tag_63\n      jumpi\n      mload(0x40)\n      0x08c379a000000000000000000000000000000000000000000000000000000000\n      dup2\n      mstore\n      0x04\n      add\n      tag_64\n      swap1\n      tag_65\n      jump\t// in\n    tag_64:\n      mload(0x40)\n      dup1\n      swap2\n      sub\n      swap1\n      revert\n    tag_63:\n        /* \"contracts/multisignaturewallet.sol\":2358:2366  _txIndex */\n      dup2\n        /* \"contracts/multisignaturewallet.sol\":1263:1275  transactions */\n      0x04\n        /* \"contracts/multisignaturewallet.sol\":1276:1284  _txIndex */\n      dup2\n        /* \"contracts/multisignaturewallet.sol\":1263:1285  transactions[_txIndex] */\n      dup2\n      sload\n      dup2\n      lt\n      tag_67\n      jumpi\n      tag_68\n      tag_69\n      jump\t// in\n    tag_68:\n    tag_67:\n      swap1\n      0x00\n      mstore\n      keccak256(0x00, 0x20)\n      swap1\n      0x05\n      mul\n      add\n        /* \"contracts/multisignaturewallet.sol\":1263:1294  transactions[_txIndex].executed */\n      0x03\n      add\n      0x00\n      swap1\n      sload\n      swap1\n      0x0100\n      exp\n      swap1\n      div\n      0xff\n      and\n        /* \"contracts/multisignaturewallet.sol\":1262:1294  !transactions[_txIndex].executed */\n      iszero\n        /* \"contracts/multisignaturewallet.sol\":1254:1317  require(!transactions[_txIndex].executed,\"tx already executed\") */\n      tag_71\n      jumpi\n      mload(0x40)\n      0x08c379a000000000000000000000000000000000000000000000000000000000\n      dup2\n      mstore\n      0x04\n      add\n      tag_72\n      swap1\n      tag_73\n      jump\t// in\n    tag_72:\n      mload(0x40)\n      dup1\n      swap2\n      sub\n      swap1\n      revert\n    tag_71:\n        /* \"contracts/multisignaturewallet.sol\":2386:2394  _txIndex */\n      dup3\n        /* \"contracts/multisignaturewallet.sol\":1399:1410  isConfirmed */\n      0x03\n        /* \"contracts/multisignaturewallet.sol\":1399:1420  isConfirmed[_txIndex] */\n      0x00\n        /* \"contracts/multisignaturewallet.sol\":1411:1419  _txIndex */\n      dup3\n        /* \"contracts/multisignaturewallet.sol\":1399:1420  isConfirmed[_txIndex] */\n      dup2\n      mstore\n      0x20\n      add\n      swap1\n      dup2\n      mstore\n      0x20\n      add\n      0x00\n      keccak256\n        /* \"contracts/multisignaturewallet.sol\":1399:1432  isConfirmed[_txIndex][msg.sender] */\n      0x00\n        /* \"contracts/multisignaturewallet.sol\":1421:1431  msg.sender */\n      caller\n        /* \"contracts/multisignaturewallet.sol\":1399:1432  isConfirmed[_txIndex][msg.sender] */\n      0xffffffffffffffffffffffffffffffffffffffff\n      and\n      0xffffffffffffffffffffffffffffffffffffffff\n      and\n      dup2\n      mstore\n      0x20\n      add\n      swap1\n      dup2\n      mstore\n      0x20\n      add\n      0x00\n      keccak256\n      0x00\n      swap1\n      sload\n      swap1\n      0x0100\n      exp\n      swap1\n      div\n      0xff\n      and\n        /* \"contracts/multisignaturewallet.sol\":1398:1432  !isConfirmed[_txIndex][msg.sender] */\n      iszero\n        /* \"contracts/multisignaturewallet.sol\":1390:1456  require(!isConfirmed[_txIndex][msg.sender],\"tx already confirmed\") */\n      tag_75\n      jumpi\n      mload(0x40)\n      0x08c379a000000000000000000000000000000000000000000000000000000000\n      dup2\n      mstore\n      0x04\n      add\n      tag_76\n      swap1\n      tag_77\n      jump\t// in\n    tag_76:\n      mload(0x40)\n      dup1\n      swap2\n      sub\n      swap1\n      revert\n    tag_75:\n        /* \"contracts/multisignaturewallet.sol\":2406:2437  Transaction storage transaction */\n      0x00\n        /* \"contracts/multisignaturewallet.sol\":2440:2452  transactions */\n      0x04\n        /* \"contracts/multisignaturewallet.sol\":2453:2461  _txIndex */\n      dup6\n        /* \"contracts/multisignaturewallet.sol\":2440:2462  transactions[_txIndex] */\n      dup2\n      sload\n      dup2\n      lt\n      tag_79\n      jumpi\n      tag_80\n      tag_69\n      jump\t// in\n    tag_80:\n    tag_79:\n      swap1\n      0x00\n      mstore\n      keccak256(0x00, 0x20)\n      swap1\n      0x05\n      mul\n      add\n        /* \"contracts/multisignaturewallet.sol\":2406:2462  Transaction storage transaction = transactions[_txIndex] */\n      swap1\n      pop\n        /* \"contracts/multisignaturewallet.sol\":2503:2504  1 */\n      0x01\n        /* \"contracts/multisignaturewallet.sol\":2473:2484  transaction */\n      dup2\n        /* \"contracts/multisignaturewallet.sol\":2473:2501  transaction.numConfirmations */\n      0x04\n      add\n      0x00\n        /* \"contracts/multisignaturewallet.sol\":2473:2504  transaction.numConfirmations+=1 */\n      dup3\n      dup3\n      sload\n      tag_82\n      swap2\n      swap1\n      tag_83\n      jump\t// in\n    tag_82:\n      swap3\n      pop\n      pop\n      dup2\n      swap1\n      sstore\n      pop\n        /* \"contracts/multisignaturewallet.sol\":2549:2553  true */\n      0x01\n        /* \"contracts/multisignaturewallet.sol\":2515:2526  isConfirmed */\n      0x03\n        /* \"contracts/multisignaturewallet.sol\":2515:2536  isConfirmed[_txIndex] */\n      0x00\n        /* \"contracts/multisignaturewallet.sol\":2527:2535  _txIndex */\n      dup8\n        /* \"contracts/multisignaturewallet.sol\":2515:2536  isConfirmed[_txIndex] */\n      dup2\n      mstore\n      0x20\n      add\n      swap1\n      dup2\n      mstore\n      0x20\n      add\n      0x00\n      keccak256\n        /* \"contracts/multisignaturewallet.sol\":2515:2548  isConfirmed[_txIndex][msg.sender] */\n      0x00\n        /* \"contracts/multisignaturewallet.sol\":2537:2547  msg.sender */\n      caller\n        /* \"contracts/multisignaturewallet.sol\":2515:2548  isConfirmed[_txIndex][msg.sender] */\n      0xffffffffffffffffffffffffffffffffffffffff\n      and\n      0xffffffffffffffffffffffffffffffffffffffff\n      and\n      dup2\n      mstore\n      0x20\n      add\n      swap1\n      dup2\n      mstore\n      0x20\n      add\n      0x00\n      keccak256\n      0x00\n        /* \"contracts/multisignaturewallet.sol\":2515:2553  isConfirmed[_txIndex][msg.sender]=true */\n      0x0100\n      exp\n      dup2\n      sload\n      dup2\n      0xff\n      mul\n      not\n      and\n      swap1\n      dup4\n      iszero\n      iszero\n      mul\n      or\n      swap1\n      sstore\n      pop\n        /* \"contracts/multisignaturewallet.sol\":2601:2609  _txIndex */\n      dup5\n        /* \"contracts/multisignaturewallet.sol\":2590:2600  msg.sender */\n      caller\n        /* \"contracts/multisignaturewallet.sol\":2571:2610  ConfirmTransaction(msg.sender,_txIndex) */\n      0xffffffffffffffffffffffffffffffffffffffff\n      and\n      0x5cbe105e36805f7820e291f799d5794ff948af2a5f664e580382defb63390041\n      mload(0x40)\n      mload(0x40)\n      dup1\n      swap2\n      sub\n      swap1\n      log3\n        /* \"contracts/multisignaturewallet.sol\":2395:2618  {\r... */\n      pop\n        /* \"contracts/multisignaturewallet.sol\":1328:1329  _ */\n      pop\n        /* \"contracts/multisignaturewallet.sol\":1187:1188  _ */\n      pop\n        /* \"contracts/multisignaturewallet.sol\":1052:1053  _ */\n      pop\n        /* \"contracts/multisignaturewallet.sol\":2257:2618  function confirmTransaction(uint _txIndex)public onlyOwner \r... */\n      pop\n      jump\t// out\n        /* \"contracts/multisignaturewallet.sol\":656:692  uint public numConfirmationsRequired */\n    tag_45:\n      sload(0x02)\n      dup2\n      jump\t// out\n        /* \"#utility.yul\":7:146   */\n    tag_85:\n        /* \"#utility.yul\":53:58   */\n      0x00\n        /* \"#utility.yul\":91:97   */\n      dup2\n        /* \"#utility.yul\":78:98   */\n      calldataload\n        /* \"#utility.yul\":69:98   */\n      swap1\n      pop\n        /* \"#utility.yul\":107:140   */\n      tag_87\n        /* \"#utility.yul\":134:139   */\n      dup2\n        /* \"#utility.yul\":107:140   */\n      tag_88\n      jump\t// in\n    tag_87:\n        /* \"#utility.yul\":7:146   */\n      swap3\n      swap2\n      pop\n      pop\n      jump\t// out\n        /* \"#utility.yul\":152:291   */\n    tag_89:\n        /* \"#utility.yul\":198:203   */\n      0x00\n        /* \"#utility.yul\":236:242   */\n      dup2\n        /* \"#utility.yul\":223:243   */\n      calldataload\n        /* \"#utility.yul\":214:243   */\n      swap1\n      pop\n        /* \"#utility.yul\":252:285   */\n      tag_91\n        /* \"#utility.yul\":279:284   */\n      dup2\n        /* \"#utility.yul\":252:285   */\n      tag_92\n      jump\t// in\n    tag_91:\n        /* \"#utility.yul\":152:291   */\n      swap3\n      swap2\n      pop\n      pop\n      jump\t// out\n        /* \"#utility.yul\":297:626   */\n    tag_23:\n        /* \"#utility.yul\":356:362   */\n      0x00\n        /* \"#utility.yul\":405:407   */\n      0x20\n        /* \"#utility.yul\":393:402   */\n      dup3\n        /* \"#utility.yul\":384:391   */\n      dup5\n        /* \"#utility.yul\":380:403   */\n      sub\n        /* \"#utility.yul\":376:408   */\n      slt\n        /* \"#utility.yul\":373:492   */\n      iszero\n      tag_94\n      jumpi\n        /* \"#utility.yul\":411:490   */\n      tag_95\n      tag_96\n      jump\t// in\n    tag_95:\n        /* \"#utility.yul\":373:492   */\n    tag_94:\n        /* \"#utility.yul\":531:532   */\n      0x00\n        /* \"#utility.yul\":556:609   */\n      tag_97\n        /* \"#utility.yul\":601:608   */\n      dup5\n        /* \"#utility.yul\":592:598   */\n      dup3\n        /* \"#utility.yul\":581:590   */\n      dup6\n        /* \"#utility.yul\":577:599   */\n      add\n        /* \"#utility.yul\":556:609   */\n      tag_85\n      jump\t// in\n    tag_97:\n        /* \"#utility.yul\":546:609   */\n      swap2\n      pop\n        /* \"#utility.yul\":502:619   */\n      pop\n        /* \"#utility.yul\":297:626   */\n      swap3\n      swap2\n      pop\n      pop\n      jump\t// out\n        /* \"#utility.yul\":632:961   */\n    tag_16:\n        /* \"#utility.yul\":691:697   */\n      0x00\n        /* \"#utility.yul\":740:742   */\n      0x20\n        /* \"#utility.yul\":728:737   */\n      dup3\n        /* \"#utility.yul\":719:726   */\n      dup5\n        /* \"#utility.yul\":715:738   */\n      sub\n        /* \"#utility.yul\":711:743   */\n      slt\n        /* \"#utility.yul\":708:827   */\n      iszero\n      tag_99\n      jumpi\n        /* \"#utility.yul\":746:825   */\n      tag_100\n      tag_96\n      jump\t// in\n    tag_100:\n        /* \"#utility.yul\":708:827   */\n    tag_99:\n        /* \"#utility.yul\":866:867   */\n      0x00\n        /* \"#utility.yul\":891:944   */\n      tag_101\n        /* \"#utility.yul\":936:943   */\n      dup5\n        /* \"#utility.yul\":927:933   */\n      dup3\n        /* \"#utility.yul\":916:925   */\n      dup6\n        /* \"#utility.yul\":912:934   */\n      add\n        /* \"#utility.yul\":891:944   */\n      tag_89\n      jump\t// in\n    tag_101:\n        /* \"#utility.yul\":881:944   */\n      swap2\n      pop\n        /* \"#utility.yul\":837:954   */\n      pop\n        /* \"#utility.yul\":632:961   */\n      swap3\n      swap2\n      pop\n      pop\n      jump\t// out\n        /* \"#utility.yul\":967:1441   */\n    tag_30:\n        /* \"#utility.yul\":1035:1041   */\n      0x00\n        /* \"#utility.yul\":1043:1049   */\n      dup1\n        /* \"#utility.yul\":1092:1094   */\n      0x40\n        /* \"#utility.yul\":1080:1089   */\n      dup4\n        /* \"#utility.yul\":1071:1078   */\n      dup6\n        /* \"#utility.yul\":1067:1090   */\n      sub\n        /* \"#utility.yul\":1063:1095   */\n      slt\n        /* \"#utility.yul\":1060:1179   */\n      iszero\n      tag_103\n      jumpi\n        /* \"#utility.yul\":1098:1177   */\n      tag_104\n      tag_96\n      jump\t// in\n    tag_104:\n        /* \"#utility.yul\":1060:1179   */\n    tag_103:\n        /* \"#utility.yul\":1218:1219   */\n      0x00\n        /* \"#utility.yul\":1243:1296   */\n      tag_105\n        /* \"#utility.yul\":1288:1295   */\n      dup6\n        /* \"#utility.yul\":1279:1285   */\n      dup3\n        /* \"#utility.yul\":1268:1277   */\n      dup7\n        /* \"#utility.yul\":1264:1286   */\n      add\n        /* \"#utility.yul\":1243:1296   */\n      tag_89\n      jump\t// in\n    tag_105:\n        /* \"#utility.yul\":1233:1296   */\n      swap3\n      pop\n        /* \"#utility.yul\":1189:1306   */\n      pop\n        /* \"#utility.yul\":1345:1347   */\n      0x20\n        /* \"#utility.yul\":1371:1424   */\n      tag_106\n        /* \"#utility.yul\":1416:1423   */\n      dup6\n        /* \"#utility.yul\":1407:1413   */\n      dup3\n        /* \"#utility.yul\":1396:1405   */\n      dup7\n        /* \"#utility.yul\":1392:1414   */\n      add\n        /* \"#utility.yul\":1371:1424   */\n      tag_85\n      jump\t// in\n    tag_106:\n        /* \"#utility.yul\":1361:1424   */\n      swap2\n      pop\n        /* \"#utility.yul\":1316:1434   */\n      pop\n        /* \"#utility.yul\":967:1441   */\n      swap3\n      pop\n      swap3\n      swap1\n      pop\n      jump\t// out\n        /* \"#utility.yul\":1447:1565   */\n    tag_107:\n        /* \"#utility.yul\":1534:1558   */\n      tag_109\n        /* \"#utility.yul\":1552:1557   */\n      dup2\n        /* \"#utility.yul\":1534:1558   */\n      tag_110\n      jump\t// in\n    tag_109:\n        /* \"#utility.yul\":1529:1532   */\n      dup3\n        /* \"#utility.yul\":1522:1559   */\n      mstore\n        /* \"#utility.yul\":1447:1565   */\n      pop\n      pop\n      jump\t// out\n        /* \"#utility.yul\":1571:1680   */\n    tag_111:\n        /* \"#utility.yul\":1652:1673   */\n      tag_113\n        /* \"#utility.yul\":1667:1672   */\n      dup2\n        /* \"#utility.yul\":1652:1673   */\n      tag_114\n      jump\t// in\n    tag_113:\n        /* \"#utility.yul\":1647:1650   */\n      dup3\n        /* \"#utility.yul\":1640:1674   */\n      mstore\n        /* \"#utility.yul\":1571:1680   */\n      pop\n      pop\n      jump\t// out\n        /* \"#utility.yul\":1686:2046   */\n    tag_115:\n        /* \"#utility.yul\":1772:1775   */\n      0x00\n        /* \"#utility.yul\":1800:1838   */\n      tag_117\n        /* \"#utility.yul\":1832:1837   */\n      dup3\n        /* \"#utility.yul\":1800:1838   */\n      tag_118\n      jump\t// in\n    tag_117:\n        /* \"#utility.yul\":1854:1924   */\n      tag_119\n        /* \"#utility.yul\":1917:1923   */\n      dup2\n        /* \"#utility.yul\":1912:1915   */\n      dup6\n        /* \"#utility.yul\":1854:1924   */\n      tag_120\n      jump\t// in\n    tag_119:\n        /* \"#utility.yul\":1847:1924   */\n      swap4\n      pop\n        /* \"#utility.yul\":1933:1985   */\n      tag_121\n        /* \"#utility.yul\":1978:1984   */\n      dup2\n        /* \"#utility.yul\":1973:1976   */\n      dup6\n        /* \"#utility.yul\":1966:1970   */\n      0x20\n        /* \"#utility.yul\":1959:1964   */\n      dup7\n        /* \"#utility.yul\":1955:1971   */\n      add\n        /* \"#utility.yul\":1933:1985   */\n      tag_122\n      jump\t// in\n    tag_121:\n        /* \"#utility.yul\":2010:2039   */\n      tag_123\n        /* \"#utility.yul\":2032:2038   */\n      dup2\n        /* \"#utility.yul\":2010:2039   */\n      tag_124\n      jump\t// in\n    tag_123:\n        /* \"#utility.yul\":2005:2008   */\n      dup5\n        /* \"#utility.yul\":2001:2040   */\n      add\n        /* \"#utility.yul\":1994:2040   */\n      swap2\n      pop\n        /* \"#utility.yul\":1776:2046   */\n      pop\n        /* \"#utility.yul\":1686:2046   */\n      swap3\n      swap2\n      pop\n      pop\n      jump\t// out\n        /* \"#utility.yul\":2052:2418   */\n    tag_125:\n        /* \"#utility.yul\":2194:2197   */\n      0x00\n        /* \"#utility.yul\":2215:2282   */\n      tag_127\n        /* \"#utility.yul\":2279:2281   */\n      0x0d\n        /* \"#utility.yul\":2274:2277   */\n      dup4\n        /* \"#utility.yul\":2215:2282   */\n      tag_128\n      jump\t// in\n    tag_127:\n        /* \"#utility.yul\":2208:2282   */\n      swap2\n      pop\n        /* \"#utility.yul\":2291:2384   */\n      tag_129\n        /* \"#utility.yul\":2380:2383   */\n      dup3\n        /* \"#utility.yul\":2291:2384   */\n      tag_130\n      jump\t// in\n    tag_129:\n        /* \"#utility.yul\":2409:2411   */\n      0x20\n        /* \"#utility.yul\":2404:2407   */\n      dup3\n        /* \"#utility.yul\":2400:2412   */\n      add\n        /* \"#utility.yul\":2393:2412   */\n      swap1\n      pop\n        /* \"#utility.yul\":2052:2418   */\n      swap2\n      swap1\n      pop\n      jump\t// out\n        /* \"#utility.yul\":2424:2790   */\n    tag_131:\n        /* \"#utility.yul\":2566:2569   */\n      0x00\n        /* \"#utility.yul\":2587:2654   */\n      tag_133\n        /* \"#utility.yul\":2651:2653   */\n      0x14\n        /* \"#utility.yul\":2646:2649   */\n      dup4\n        /* \"#utility.yul\":2587:2654   */\n      tag_128\n      jump\t// in\n    tag_133:\n        /* \"#utility.yul\":2580:2654   */\n      swap2\n      pop\n        /* \"#utility.yul\":2663:2756   */\n      tag_134\n        /* \"#utility.yul\":2752:2755   */\n      dup3\n        /* \"#utility.yul\":2663:2756   */\n      tag_135\n      jump\t// in\n    tag_134:\n        /* \"#utility.yul\":2781:2783   */\n      0x20\n        /* \"#utility.yul\":2776:2779   */\n      dup3\n        /* \"#utility.yul\":2772:2784   */\n      add\n        /* \"#utility.yul\":2765:2784   */\n      swap1\n      pop\n        /* \"#utility.yul\":2424:2790   */\n      swap2\n      swap1\n      pop\n      jump\t// out\n        /* \"#utility.yul\":2796:3162   */\n    tag_136:\n        /* \"#utility.yul\":2938:2941   */\n      0x00\n        /* \"#utility.yul\":2959:3026   */\n      tag_138\n        /* \"#utility.yul\":3023:3025   */\n      0x13\n        /* \"#utility.yul\":3018:3021   */\n      dup4\n        /* \"#utility.yul\":2959:3026   */\n      tag_128\n      jump\t// in\n    tag_138:\n        /* \"#utility.yul\":2952:3026   */\n      swap2\n      pop\n        /* \"#utility.yul\":3035:3128   */\n      tag_139\n        /* \"#utility.yul\":3124:3127   */\n      dup3\n        /* \"#utility.yul\":3035:3128   */\n      tag_140\n      jump\t// in\n    tag_139:\n        /* \"#utility.yul\":3153:3155   */\n      0x20\n        /* \"#utility.yul\":3148:3151   */\n      dup3\n        /* \"#utility.yul\":3144:3156   */\n      add\n        /* \"#utility.yul\":3137:3156   */\n      swap1\n      pop\n        /* \"#utility.yul\":2796:3162   */\n      swap2\n      swap1\n      pop\n      jump\t// out\n        /* \"#utility.yul\":3168:3534   */\n    tag_141:\n        /* \"#utility.yul\":3310:3313   */\n      0x00\n        /* \"#utility.yul\":3331:3398   */\n      tag_143\n        /* \"#utility.yul\":3395:3397   */\n      0x1a\n        /* \"#utility.yul\":3390:3393   */\n      dup4\n        /* \"#utility.yul\":3331:3398   */\n      tag_128\n      jump\t// in\n    tag_143:\n        /* \"#utility.yul\":3324:3398   */\n      swap2\n      pop\n        /* \"#utility.yul\":3407:3500   */\n      tag_144\n        /* \"#utility.yul\":3496:3499   */\n      dup3\n        /* \"#utility.yul\":3407:3500   */\n      tag_145\n      jump\t// in\n    tag_144:\n        /* \"#utility.yul\":3525:3527   */\n      0x20\n        /* \"#utility.yul\":3520:3523   */\n      dup3\n        /* \"#utility.yul\":3516:3528   */\n      add\n        /* \"#utility.yul\":3509:3528   */\n      swap1\n      pop\n        /* \"#utility.yul\":3168:3534   */\n      swap2\n      swap1\n      pop\n      jump\t// out\n        /* \"#utility.yul\":3540:3658   */\n    tag_146:\n        /* \"#utility.yul\":3627:3651   */\n      tag_148\n        /* \"#utility.yul\":3645:3650   */\n      dup2\n        /* \"#utility.yul\":3627:3651   */\n      tag_149\n      jump\t// in\n    tag_148:\n        /* \"#utility.yul\":3622:3625   */\n      dup3\n        /* \"#utility.yul\":3615:3652   */\n      mstore\n        /* \"#utility.yul\":3540:3658   */\n      pop\n      pop\n      jump\t// out\n        /* \"#utility.yul\":3664:3886   */\n    tag_19:\n        /* \"#utility.yul\":3757:3761   */\n      0x00\n        /* \"#utility.yul\":3795:3797   */\n      0x20\n        /* \"#utility.yul\":3784:3793   */\n      dup3\n        /* \"#utility.yul\":3780:3798   */\n      add\n        /* \"#utility.yul\":3772:3798   */\n      swap1\n      pop\n        /* \"#utility.yul\":3808:3879   */\n      tag_151\n        /* \"#utility.yul\":3876:3877   */\n      0x00\n        /* \"#utility.yul\":3865:3874   */\n      dup4\n        /* \"#utility.yul\":3861:3878   */\n      add\n        /* \"#utility.yul\":3852:3858   */\n      dup5\n        /* \"#utility.yul\":3808:3879   */\n      tag_107\n      jump\t// in\n    tag_151:\n        /* \"#utility.yul\":3664:3886   */\n      swap3\n      swap2\n      pop\n      pop\n      jump\t// out\n        /* \"#utility.yul\":3892:4631   */\n    tag_38:\n        /* \"#utility.yul\":4109:4113   */\n      0x00\n        /* \"#utility.yul\":4147:4150   */\n      0xa0\n        /* \"#utility.yul\":4136:4145   */\n      dup3\n        /* \"#utility.yul\":4132:4151   */\n      add\n        /* \"#utility.yul\":4124:4151   */\n      swap1\n      pop\n        /* \"#utility.yul\":4161:4232   */\n      tag_153\n        /* \"#utility.yul\":4229:4230   */\n      0x00\n        /* \"#utility.yul\":4218:4227   */\n      dup4\n        /* \"#utility.yul\":4214:4231   */\n      add\n        /* \"#utility.yul\":4205:4211   */\n      dup9\n        /* \"#utility.yul\":4161:4232   */\n      tag_107\n      jump\t// in\n    tag_153:\n        /* \"#utility.yul\":4242:4314   */\n      tag_154\n        /* \"#utility.yul\":4310:4312   */\n      0x20\n        /* \"#utility.yul\":4299:4308   */\n      dup4\n        /* \"#utility.yul\":4295:4313   */\n      add\n        /* \"#utility.yul\":4286:4292   */\n      dup8\n        /* \"#utility.yul\":4242:4314   */\n      tag_146\n      jump\t// in\n    tag_154:\n        /* \"#utility.yul\":4361:4370   */\n      dup2\n        /* \"#utility.yul\":4355:4359   */\n      dup2\n        /* \"#utility.yul\":4351:4371   */\n      sub\n        /* \"#utility.yul\":4346:4348   */\n      0x40\n        /* \"#utility.yul\":4335:4344   */\n      dup4\n        /* \"#utility.yul\":4331:4349   */\n      add\n        /* \"#utility.yul\":4324:4372   */\n      mstore\n        /* \"#utility.yul\":4389:4465   */\n      tag_155\n        /* \"#utility.yul\":4460:4464   */\n      dup2\n        /* \"#utility.yul\":4451:4457   */\n      dup7\n        /* \"#utility.yul\":4389:4465   */\n      tag_115\n      jump\t// in\n    tag_155:\n        /* \"#utility.yul\":4381:4465   */\n      swap1\n      pop\n        /* \"#utility.yul\":4475:4541   */\n      tag_156\n        /* \"#utility.yul\":4537:4539   */\n      0x60\n        /* \"#utility.yul\":4526:4535   */\n      dup4\n        /* \"#utility.yul\":4522:4540   */\n      add\n        /* \"#utility.yul\":4513:4519   */\n      dup6\n        /* \"#utility.yul\":4475:4541   */\n      tag_111\n      jump\t// in\n    tag_156:\n        /* \"#utility.yul\":4551:4624   */\n      tag_157\n        /* \"#utility.yul\":4619:4622   */\n      0x80\n        /* \"#utility.yul\":4608:4617   */\n      dup4\n        /* \"#utility.yul\":4604:4623   */\n      add\n        /* \"#utility.yul\":4595:4601   */\n      dup5\n        /* \"#utility.yul\":4551:4624   */\n      tag_146\n      jump\t// in\n    tag_157:\n        /* \"#utility.yul\":3892:4631   */\n      swap7\n      swap6\n      pop\n      pop\n      pop\n      pop\n      pop\n      pop\n      jump\t// out\n        /* \"#utility.yul\":4637:4847   */\n    tag_26:\n        /* \"#utility.yul\":4724:4728   */\n      0x00\n        /* \"#utility.yul\":4762:4764   */\n      0x20\n        /* \"#utility.yul\":4751:4760   */\n      dup3\n        /* \"#utility.yul\":4747:4765   */\n      add\n        /* \"#utility.yul\":4739:4765   */\n      swap1\n      pop\n        /* \"#utility.yul\":4775:4840   */\n      tag_159\n        /* \"#utility.yul\":4837:4838   */\n      0x00\n        /* \"#utility.yul\":4826:4835   */\n      dup4\n        /* \"#utility.yul\":4822:4839   */\n      add\n        /* \"#utility.yul\":4813:4819   */\n      dup5\n        /* \"#utility.yul\":4775:4840   */\n      tag_111\n      jump\t// in\n    tag_159:\n        /* \"#utility.yul\":4637:4847   */\n      swap3\n      swap2\n      pop\n      pop\n      jump\t// out\n        /* \"#utility.yul\":4853:5272   */\n    tag_61:\n        /* \"#utility.yul\":5019:5023   */\n      0x00\n        /* \"#utility.yul\":5057:5059   */\n      0x20\n        /* \"#utility.yul\":5046:5055   */\n      dup3\n        /* \"#utility.yul\":5042:5060   */\n      add\n        /* \"#utility.yul\":5034:5060   */\n      swap1\n      pop\n        /* \"#utility.yul\":5106:5115   */\n      dup2\n        /* \"#utility.yul\":5100:5104   */\n      dup2\n        /* \"#utility.yul\":5096:5116   */\n      sub\n        /* \"#utility.yul\":5092:5093   */\n      0x00\n        /* \"#utility.yul\":5081:5090   */\n      dup4\n        /* \"#utility.yul\":5077:5094   */\n      add\n        /* \"#utility.yul\":5070:5117   */\n      mstore\n        /* \"#utility.yul\":5134:5265   */\n      tag_161\n        /* \"#utility.yul\":5260:5264   */\n      dup2\n        /* \"#utility.yul\":5134:5265   */\n      tag_125\n      jump\t// in\n    tag_161:\n        /* \"#utility.yul\":5126:5265   */\n      swap1\n      pop\n        /* \"#utility.yul\":4853:5272   */\n      swap2\n      swap1\n      pop\n      jump\t// out\n        /* \"#utility.yul\":5278:5697   */\n    tag_77:\n        /* \"#utility.yul\":5444:5448   */\n      0x00\n        /* \"#utility.yul\":5482:5484   */\n      0x20\n        /* \"#utility.yul\":5471:5480   */\n      dup3\n        /* \"#utility.yul\":5467:5485   */\n      add\n        /* \"#utility.yul\":5459:5485   */\n      swap1\n      pop\n        /* \"#utility.yul\":5531:5540   */\n      dup2\n        /* \"#utility.yul\":5525:5529   */\n      dup2\n        /* \"#utility.yul\":5521:5541   */\n      sub\n        /* \"#utility.yul\":5517:5518   */\n      0x00\n        /* \"#utility.yul\":5506:5515   */\n      dup4\n        /* \"#utility.yul\":5502:5519   */\n      add\n        /* \"#utility.yul\":5495:5542   */\n      mstore\n        /* \"#utility.yul\":5559:5690   */\n      tag_163\n        /* \"#utility.yul\":5685:5689   */\n      dup2\n        /* \"#utility.yul\":5559:5690   */\n      tag_131\n      jump\t// in\n    tag_163:\n        /* \"#utility.yul\":5551:5690   */\n      swap1\n      pop\n        /* \"#utility.yul\":5278:5697   */\n      swap2\n      swap1\n      pop\n      jump\t// out\n        /* \"#utility.yul\":5703:6122   */\n    tag_73:\n        /* \"#utility.yul\":5869:5873   */\n      0x00\n        /* \"#utility.yul\":5907:5909   */\n      0x20\n        /* \"#utility.yul\":5896:5905   */\n      dup3\n        /* \"#utility.yul\":5892:5910   */\n      add\n        /* \"#utility.yul\":5884:5910   */\n      swap1\n      pop\n        /* \"#utility.yul\":5956:5965   */\n      dup2\n        /* \"#utility.yul\":5950:5954   */\n      dup2\n        /* \"#utility.yul\":5946:5966   */\n      sub\n        /* \"#utility.yul\":5942:5943   */\n      0x00\n        /* \"#utility.yul\":5931:5940   */\n      dup4\n        /* \"#utility.yul\":5927:5944   */\n      add\n        /* \"#utility.yul\":5920:5967   */\n      mstore\n        /* \"#utility.yul\":5984:6115   */\n      tag_165\n        /* \"#utility.yul\":6110:6114   */\n      dup2\n        /* \"#utility.yul\":5984:6115   */\n      tag_136\n      jump\t// in\n    tag_165:\n        /* \"#utility.yul\":5976:6115   */\n      swap1\n      pop\n        /* \"#utility.yul\":5703:6122   */\n      swap2\n      swap1\n      pop\n      jump\t// out\n        /* \"#utility.yul\":6128:6547   */\n    tag_65:\n        /* \"#utility.yul\":6294:6298   */\n      0x00\n        /* \"#utility.yul\":6332:6334   */\n      0x20\n        /* \"#utility.yul\":6321:6330   */\n      dup3\n        /* \"#utility.yul\":6317:6335   */\n      add\n        /* \"#utility.yul\":6309:6335   */\n      swap1\n      pop\n        /* \"#utility.yul\":6381:6390   */\n      dup2\n        /* \"#utility.yul\":6375:6379   */\n      dup2\n        /* \"#utility.yul\":6371:6391   */\n      sub\n        /* \"#utility.yul\":6367:6368   */\n      0x00\n        /* \"#utility.yul\":6356:6365   */\n      dup4\n        /* \"#utility.yul\":6352:6369   */\n      add\n        /* \"#utility.yul\":6345:6392   */\n      mstore\n        /* \"#utility.yul\":6409:6540   */\n      tag_167\n        /* \"#utility.yul\":6535:6539   */\n      dup2\n        /* \"#utility.yul\":6409:6540   */\n      tag_141\n      jump\t// in\n    tag_167:\n        /* \"#utility.yul\":6401:6540   */\n      swap1\n      pop\n        /* \"#utility.yul\":6128:6547   */\n      swap2\n      swap1\n      pop\n      jump\t// out\n        /* \"#utility.yul\":6553:6775   */\n    tag_47:\n        /* \"#utility.yul\":6646:6650   */\n      0x00\n        /* \"#utility.yul\":6684:6686   */\n      0x20\n        /* \"#utility.yul\":6673:6682   */\n      dup3\n        /* \"#utility.yul\":6669:6687   */\n      add\n        /* \"#utility.yul\":6661:6687   */\n      swap1\n      pop\n        /* \"#utility.yul\":6697:6768   */\n      tag_169\n        /* \"#utility.yul\":6765:6766   */\n      0x00\n        /* \"#utility.yul\":6754:6763   */\n      dup4\n        /* \"#utility.yul\":6750:6767   */\n      add\n        /* \"#utility.yul\":6741:6747   */\n      dup5\n        /* \"#utility.yul\":6697:6768   */\n      tag_146\n      jump\t// in\n    tag_169:\n        /* \"#utility.yul\":6553:6775   */\n      swap3\n      swap2\n      pop\n      pop\n      jump\t// out\n        /* \"#utility.yul\":6781:7113   */\n    tag_12:\n        /* \"#utility.yul\":6902:6906   */\n      0x00\n        /* \"#utility.yul\":6940:6942   */\n      0x40\n        /* \"#utility.yul\":6929:6938   */\n      dup3\n        /* \"#utility.yul\":6925:6943   */\n      add\n        /* \"#utility.yul\":6917:6943   */\n      swap1\n      pop\n        /* \"#utility.yul\":6953:7024   */\n      tag_171\n        /* \"#utility.yul\":7021:7022   */\n      0x00\n        /* \"#utility.yul\":7010:7019   */\n      dup4\n        /* \"#utility.yul\":7006:7023   */\n      add\n        /* \"#utility.yul\":6997:7003   */\n      dup6\n        /* \"#utility.yul\":6953:7024   */\n      tag_146\n      jump\t// in\n    tag_171:\n        /* \"#utility.yul\":7034:7106   */\n      tag_172\n        /* \"#utility.yul\":7102:7104   */\n      0x20\n        /* \"#utility.yul\":7091:7100   */\n      dup4\n        /* \"#utility.yul\":7087:7105   */\n      add\n        /* \"#utility.yul\":7078:7084   */\n      dup5\n        /* \"#utility.yul\":7034:7106   */\n      tag_146\n      jump\t// in\n    tag_172:\n        /* \"#utility.yul\":6781:7113   */\n      swap4\n      swap3\n      pop\n      pop\n      pop\n      jump\t// out\n        /* \"#utility.yul\":7200:7298   */\n    tag_118:\n        /* \"#utility.yul\":7251:7257   */\n      0x00\n        /* \"#utility.yul\":7285:7290   */\n      dup2\n        /* \"#utility.yul\":7279:7291   */\n      mload\n        /* \"#utility.yul\":7269:7291   */\n      swap1\n      pop\n        /* \"#utility.yul\":7200:7298   */\n      swap2\n      swap1\n      pop\n      jump\t// out\n        /* \"#utility.yul\":7304:7472   */\n    tag_120:\n        /* \"#utility.yul\":7387:7398   */\n      0x00\n        /* \"#utility.yul\":7421:7427   */\n      dup3\n        /* \"#utility.yul\":7416:7419   */\n      dup3\n        /* \"#utility.yul\":7409:7428   */\n      mstore\n        /* \"#utility.yul\":7461:7465   */\n      0x20\n        /* \"#utility.yul\":7456:7459   */\n      dup3\n        /* \"#utility.yul\":7452:7466   */\n      add\n        /* \"#utility.yul\":7437:7466   */\n      swap1\n      pop\n        /* \"#utility.yul\":7304:7472   */\n      swap3\n      swap2\n      pop\n      pop\n      jump\t// out\n        /* \"#utility.yul\":7478:7647   */\n    tag_128:\n        /* \"#utility.yul\":7562:7573   */\n      0x00\n        /* \"#utility.yul\":7596:7602   */\n      dup3\n        /* \"#utility.yul\":7591:7594   */\n      dup3\n        /* \"#utility.yul\":7584:7603   */\n      mstore\n        /* \"#utility.yul\":7636:7640   */\n      0x20\n        /* \"#utility.yul\":7631:7634   */\n      dup3\n        /* \"#utility.yul\":7627:7641   */\n      add\n        /* \"#utility.yul\":7612:7641   */\n      swap1\n      pop\n        /* \"#utility.yul\":7478:7647   */\n      swap3\n      swap2\n      pop\n      pop\n      jump\t// out\n        /* \"#utility.yul\":7653:7958   */\n    tag_83:\n        /* \"#utility.yul\":7693:7696   */\n      0x00\n        /* \"#utility.yul\":7712:7732   */\n      tag_179\n        /* \"#utility.yul\":7730:7731   */\n      dup3\n        /* \"#utility.yul\":7712:7732   */\n      tag_149\n      jump\t// in\n    tag_179:\n        /* \"#utility.yul\":7707:7732   */\n      swap2\n      pop\n        /* \"#utility.yul\":7746:7766   */\n      tag_180\n        /* \"#utility.yul\":7764:7765   */\n      dup4\n        /* \"#utility.yul\":7746:7766   */\n      tag_149\n      jump\t// in\n    tag_180:\n        /* \"#utility.yul\":7741:7766   */\n      swap3\n      pop\n        /* \"#utility.yul\":7900:7901   */\n      dup3\n        /* \"#utility.yul\":7832:7898   */\n      0xffffffffffffffffffffffffffffffffffffffffffffffffffffffffffffffff\n        /* \"#utility.yul\":7828:7902   */\n      sub\n        /* \"#utility.yul\":7825:7826   */\n      dup3\n        /* \"#utility.yul\":7822:7903   */\n      gt\n        /* \"#utility.yul\":7819:7926   */\n      iszero\n      tag_181\n      jumpi\n        /* \"#utility.yul\":7906:7924   */\n      tag_182\n      tag_183\n      jump\t// in\n    tag_182:\n        /* \"#utility.yul\":7819:7926   */\n    tag_181:\n        /* \"#utility.yul\":7950:7951   */\n      dup3\n        /* \"#utility.yul\":7947:7948   */\n      dup3\n        /* \"#utility.yul\":7943:7952   */\n      add\n        /* \"#utility.yul\":7936:7952   */\n      swap1\n      pop\n        /* \"#utility.yul\":7653:7958   */\n      swap3\n      swap2\n      pop\n      pop\n      jump\t// out\n        /* \"#utility.yul\":7964:8060   */\n    tag_110:\n        /* \"#utility.yul\":8001:8008   */\n      0x00\n        /* \"#utility.yul\":8030:8054   */\n      tag_185\n        /* \"#utility.yul\":8048:8053   */\n      dup3\n        /* \"#utility.yul\":8030:8054   */\n      tag_186\n      jump\t// in\n    tag_185:\n        /* \"#utility.yul\":8019:8054   */\n      swap1\n      pop\n        /* \"#utility.yul\":7964:8060   */\n      swap2\n      swap1\n      pop\n      jump\t// out\n        /* \"#utility.yul\":8066:8156   */\n    tag_114:\n        /* \"#utility.yul\":8100:8107   */\n      0x00\n        /* \"#utility.yul\":8143:8148   */\n      dup2\n        /* \"#utility.yul\":8136:8149   */\n      iszero\n        /* \"#utility.yul\":8129:8150   */\n      iszero\n        /* \"#utility.yul\":8118:8150   */\n      swap1\n      pop\n        /* \"#utility.yul\":8066:8156   */\n      swap2\n      swap1\n      pop\n      jump\t// out\n        /* \"#utility.yul\":8162:8288   */\n    tag_186:\n        /* \"#utility.yul\":8199:8206   */\n      0x00\n        /* \"#utility.yul\":8239:8281   */\n      0xffffffffffffffffffffffffffffffffffffffff\n        /* \"#utility.yul\":8232:8237   */\n      dup3\n        /* \"#utility.yul\":8228:8282   */\n      and\n        /* \"#utility.yul\":8217:8282   */\n      swap1\n      pop\n        /* \"#utility.yul\":8162:8288   */\n      swap2\n      swap1\n      pop\n      jump\t// out\n        /* \"#utility.yul\":8294:8371   */\n    tag_149:\n        /* \"#utility.yul\":8331:8338   */\n      0x00\n        /* \"#utility.yul\":8360:8365   */\n      dup2\n        /* \"#utility.yul\":8349:8365   */\n      swap1\n      pop\n        /* \"#utility.yul\":8294:8371   */\n      swap2\n      swap1\n      pop\n      jump\t// out\n        /* \"#utility.yul\":8377:8684   */\n    tag_122:\n        /* \"#utility.yul\":8445:8446   */\n      0x00\n        /* \"#utility.yul\":8455:8568   */\n    tag_191:\n        /* \"#utility.yul\":8469:8475   */\n      dup4\n        /* \"#utility.yul\":8466:8467   */\n      dup2\n        /* \"#utility.yul\":8463:8476   */\n      lt\n        /* \"#utility.yul\":8455:8568   */\n      iszero\n      tag_193\n      jumpi\n        /* \"#utility.yul\":8554:8555   */\n      dup1\n        /* \"#utility.yul\":8549:8552   */\n      dup3\n        /* \"#utility.yul\":8545:8556   */\n      add\n        /* \"#utility.yul\":8539:8557   */\n      mload\n        /* \"#utility.yul\":8535:8536   */\n      dup2\n        /* \"#utility.yul\":8530:8533   */\n      dup5\n        /* \"#utility.yul\":8526:8537   */\n      add\n        /* \"#utility.yul\":8519:8558   */\n      mstore\n        /* \"#utility.yul\":8491:8493   */\n      0x20\n        /* \"#utility.yul\":8488:8489   */\n      dup2\n        /* \"#utility.yul\":8484:8494   */\n      add\n        /* \"#utility.yul\":8479:8494   */\n      swap1\n      pop\n        /* \"#utility.yul\":8455:8568   */\n      jump(tag_191)\n    tag_193:\n        /* \"#utility.yul\":8586:8592   */\n      dup4\n        /* \"#utility.yul\":8583:8584   */\n      dup2\n        /* \"#utility.yul\":8580:8593   */\n      gt\n        /* \"#utility.yul\":8577:8678   */\n      iszero\n      tag_194\n      jumpi\n        /* \"#utility.yul\":8666:8667   */\n      0x00\n        /* \"#utility.yul\":8657:8663   */\n      dup5\n        /* \"#utility.yul\":8652:8655   */\n      dup5\n        /* \"#utility.yul\":8648:8664   */\n      add\n        /* \"#utility.yul\":8641:8668   */\n      mstore\n        /* \"#utility.yul\":8577:8678   */\n    tag_194:\n        /* \"#utility.yul\":8426:8684   */\n      pop\n        /* \"#utility.yul\":8377:8684   */\n      pop\n      pop\n      pop\n      jump\t// out\n        /* \"#utility.yul\":8690:9010   */\n    tag_53:\n        /* \"#utility.yul\":8734:8740   */\n      0x00\n        /* \"#utility.yul\":8771:8772   */\n      0x02\n        /* \"#utility.yul\":8765:8769   */\n      dup3\n        /* \"#utility.yul\":8761:8773   */\n      div\n        /* \"#utility.yul\":8751:8773   */\n      swap1\n      pop\n        /* \"#utility.yul\":8818:8819   */\n      0x01\n        /* \"#utility.yul\":8812:8816   */\n      dup3\n        /* \"#utility.yul\":8808:8820   */\n      and\n        /* \"#utility.yul\":8839:8857   */\n      dup1\n        /* \"#utility.yul\":8829:8910   */\n      tag_196\n      jumpi\n        /* \"#utility.yul\":8895:8899   */\n      0x7f\n        /* \"#utility.yul\":8887:8893   */\n      dup3\n        /* \"#utility.yul\":8883:8900   */\n      and\n        /* \"#utility.yul\":8873:8900   */\n      swap2\n      pop\n        /* \"#utility.yul\":8829:8910   */\n    tag_196:\n        /* \"#utility.yul\":8957:8959   */\n      0x20\n        /* \"#utility.yul\":8949:8955   */\n      dup3\n        /* \"#utility.yul\":8946:8960   */\n      lt\n        /* \"#utility.yul\":8926:8944   */\n      dup2\n        /* \"#utility.yul\":8923:8961   */\n      eq\n        /* \"#utility.yul\":8920:9004   */\n      iszero\n      tag_197\n      jumpi\n        /* \"#utility.yul\":8976:8994   */\n      tag_198\n      tag_199\n      jump\t// in\n    tag_198:\n        /* \"#utility.yul\":8920:9004   */\n    tag_197:\n        /* \"#utility.yul\":8741:9010   */\n      pop\n        /* \"#utility.yul\":8690:9010   */\n      swap2\n      swap1\n      pop\n      jump\t// out\n        /* \"#utility.yul\":9016:9196   */\n    tag_183:\n        /* \"#utility.yul\":9064:9141   */\n      0x4e487b7100000000000000000000000000000000000000000000000000000000\n        /* \"#utility.yul\":9061:9062   */\n      0x00\n        /* \"#utility.yul\":9054:9142   */\n      mstore\n        /* \"#utility.yul\":9161:9165   */\n      0x11\n        /* \"#utility.yul\":9158:9159   */\n      0x04\n        /* \"#utility.yul\":9151:9166   */\n      mstore\n        /* \"#utility.yul\":9185:9189   */\n      0x24\n        /* \"#utility.yul\":9182:9183   */\n      0x00\n        /* \"#utility.yul\":9175:9190   */\n      revert\n        /* \"#utility.yul\":9202:9382   */\n    tag_199:\n        /* \"#utility.yul\":9250:9327   */\n      0x4e487b7100000000000000000000000000000000000000000000000000000000\n        /* \"#utility.yul\":9247:9248   */\n      0x00\n        /* \"#utility.yul\":9240:9328   */\n      mstore\n        /* \"#utility.yul\":9347:9351   */\n      0x22\n        /* \"#utility.yul\":9344:9345   */\n      0x04\n        /* \"#utility.yul\":9337:9352   */\n      mstore\n        /* \"#utility.yul\":9371:9375   */\n      0x24\n        /* \"#utility.yul\":9368:9369   */\n      0x00\n        /* \"#utility.yul\":9361:9376   */\n      revert\n        /* \"#utility.yul\":9388:9568   */\n    tag_69:\n        /* \"#utility.yul\":9436:9513   */\n      0x4e487b7100000000000000000000000000000000000000000000000000000000\n        /* \"#utility.yul\":9433:9434   */\n      0x00\n        /* \"#utility.yul\":9426:9514   */\n      mstore\n        /* \"#utility.yul\":9533:9537   */\n      0x32\n        /* \"#utility.yul\":9530:9531   */\n      0x04\n        /* \"#utility.yul\":9523:9538   */\n      mstore\n        /* \"#utility.yul\":9557:9561   */\n      0x24\n        /* \"#utility.yul\":9554:9555   */\n      0x00\n        /* \"#utility.yul\":9547:9562   */\n      revert\n        /* \"#utility.yul\":9697:9814   */\n    tag_96:\n        /* \"#utility.yul\":9806:9807   */\n      0x00\n        /* \"#utility.yul\":9803:9804   */\n      dup1\n        /* \"#utility.yul\":9796:9808   */\n      revert\n        /* \"#utility.yul\":9820:9922   */\n    tag_124:\n        /* \"#utility.yul\":9861:9867   */\n      0x00\n        /* \"#utility.yul\":9912:9914   */\n      0x1f\n        /* \"#utility.yul\":9908:9915   */\n      not\n        /* \"#utility.yul\":9903:9905   */\n      0x1f\n        /* \"#utility.yul\":9896:9901   */\n      dup4\n        /* \"#utility.yul\":9892:9906   */\n      add\n        /* \"#utility.yul\":9888:9916   */\n      and\n        /* \"#utility.yul\":9878:9916   */\n      swap1\n      pop\n        /* \"#utility.yul\":9820:9922   */\n      swap2\n      swap1\n      pop\n      jump\t// out\n        /* \"#utility.yul\":9928:10091   */\n    tag_130:\n        /* \"#utility.yul\":10068:10083   */\n      0x4e6f7420746865206f776e657200000000000000000000000000000000000000\n        /* \"#utility.yul\":10064:10065   */\n      0x00\n        /* \"#utility.yul\":10056:10062   */\n      dup3\n        /* \"#utility.yul\":10052:10066   */\n      add\n        /* \"#utility.yul\":10045:10084   */\n      mstore\n        /* \"#utility.yul\":9928:10091   */\n      pop\n      jump\t// out\n        /* \"#utility.yul\":10097:10267   */\n    tag_135:\n        /* \"#utility.yul\":10237:10259   */\n      0x747820616c726561647920636f6e6669726d6564000000000000000000000000\n        /* \"#utility.yul\":10233:10234   */\n      0x00\n        /* \"#utility.yul\":10225:10231   */\n      dup3\n        /* \"#utility.yul\":10221:10235   */\n      add\n        /* \"#utility.yul\":10214:10260   */\n      mstore\n        /* \"#utility.yul\":10097:10267   */\n      pop\n      jump\t// out\n        /* \"#utility.yul\":10273:10442   */\n    tag_140:\n        /* \"#utility.yul\":10413:10434   */\n      0x747820616c726561647920657865637574656400000000000000000000000000\n        /* \"#utility.yul\":10409:10410   */\n      0x00\n        /* \"#utility.yul\":10401:10407   */\n      dup3\n        /* \"#utility.yul\":10397:10411   */\n      add\n        /* \"#utility.yul\":10390:10435   */\n      mstore\n        /* \"#utility.yul\":10273:10442   */\n      pop\n      jump\t// out\n        /* \"#utility.yul\":10448:10624   */\n    tag_145:\n        /* \"#utility.yul\":10588:10616   */\n      0x7472616e73616374696f6e20646f6573206e6f74206578697374000000000000\n        /* \"#utility.yul\":10584:10585   */\n      0x00\n        /* \"#utility.yul\":10576:10582   */\n      dup3\n        /* \"#utility.yul\":10572:10586   */\n      add\n        /* \"#utility.yul\":10565:10617   */\n      mstore\n        /* \"#utility.yul\":10448:10624   */\n      pop\n      jump\t// out\n        /* \"#utility.yul\":10630:10752   */\n    tag_88:\n        /* \"#utility.yul\":10703:10727   */\n      tag_212\n        /* \"#utility.yul\":10721:10726   */\n      dup2\n        /* \"#utility.yul\":10703:10727   */\n      tag_110\n      jump\t// in\n    tag_212:\n        /* \"#utility.yul\":10696:10701   */\n      dup2\n        /* \"#utility.yul\":10693:10728   */\n      eq\n        /* \"#utility.yul\":10683:10746   */\n      tag_213\n      jumpi\n        /* \"#utility.yul\":10742:10743   */\n      0x00\n        /* \"#utility.yul\":10739:10740   */\n      dup1\n        /* \"#utility.yul\":10732:10744   */\n      revert\n        /* \"#utility.yul\":10683:10746   */\n    tag_213:\n        /* \"#utility.yul\":10630:10752   */\n      pop\n      jump\t// out\n        /* \"#utility.yul\":10758:10880   */\n    tag_92:\n        /* \"#utility.yul\":10831:10855   */\n      tag_215\n        /* \"#utility.yul\":10849:10854   */\n      dup2\n        /* \"#utility.yul\":10831:10855   */\n      tag_149\n      jump\t// in\n    tag_215:\n        /* \"#utility.yul\":10824:10829   */\n      dup2\n        /* \"#utility.yul\":10821:10856   */\n      eq\n        /* \"#utility.yul\":10811:10874   */\n      tag_216\n      jumpi\n        /* \"#utility.yul\":10870:10871   */\n      0x00\n        /* \"#utility.yul\":10867:10868   */\n      dup1\n        /* \"#utility.yul\":10860:10872   */\n      revert\n        /* \"#utility.yul\":10811:10874   */\n    tag_216:\n        /* \"#utility.yul\":10758:10880   */\n      pop\n      jump\t// out\n\n    auxdata: 0xa2646970667358221220034660e8437b14a3bcc2b6a62d0b5b939bdbbb2e4daea88603770ac46cbd60cb64736f6c63430008070033\n}\n",
				"bytecode": {
					"linkReferences": {},
					"object": "60806040523480156200001157600080fd5b5060405162001488380380620014888339818101604052810190620000379190620003c1565b60008251116200007e576040517f08c379a0000000000000000000000000000000000000000000000000000000008152600401620000759062000507565b60405180910390fd5b60008111801562000090575081518111155b620000d2576040517f08c379a0000000000000000000000000000000000000000000000000000000008152600401620000c99062000529565b60405180910390fd5b60005b8251811015620002d5576000838281518110620000f757620000f6620006a5565b5b60200260200101519050600073ffffffffffffffffffffffffffffffffffffffff168173ffffffffffffffffffffffffffffffffffffffff16141562000174576040517f08c379a00000000000000000000000000000000000000000000000000000000081526004016200016b90620004c3565b60405180910390fd5b600160008273ffffffffffffffffffffffffffffffffffffffff1673ffffffffffffffffffffffffffffffffffffffff16815260200190815260200160002060009054906101000a900460ff161562000204576040517f08c379a0000000000000000000000000000000000000000000000000000000008152600401620001fb90620004e5565b60405180910390fd5b60018060008373ffffffffffffffffffffffffffffffffffffffff1673ffffffffffffffffffffffffffffffffffffffff16815260200190815260200160002060006101000a81548160ff0219169083151502179055506000819080600181540180825580915050600190039060005260206000200160009091909190916101000a81548173ffffffffffffffffffffffffffffffffffffffff021916908373ffffffffffffffffffffffffffffffffffffffff160217905550508080620002cc9062000628565b915050620000d5565b5080600281905550505062000826565b6000620002fc620002f68462000574565b6200054b565b9050808382526020820190508285602086028201111562000322576200032162000708565b5b60005b858110156200035657816200033b888262000360565b84526020840193506020830192505060018101905062000325565b5050509392505050565b6000815190506200037181620007f2565b92915050565b600082601f8301126200038f576200038e62000703565b5b8151620003a1848260208601620002e5565b91505092915050565b600081519050620003bb816200080c565b92915050565b60008060408385031215620003db57620003da62000712565b5b600083015167ffffffffffffffff811115620003fc57620003fb6200070d565b5b6200040a8582860162000377565b92505060206200041d85828601620003aa565b9150509250929050565b600062000436600d83620005a3565b9150620004438262000728565b602082019050919050565b60006200045d601083620005a3565b91506200046a8262000751565b602082019050919050565b600062000484601b83620005a3565b915062000491826200077a565b602082019050919050565b6000620004ab603783620005a3565b9150620004b882620007a3565b604082019050919050565b60006020820190508181036000830152620004de8162000427565b9050919050565b6000602082019050818103600083015262000500816200044e565b9050919050565b60006020820190508181036000830152620005228162000475565b9050919050565b6000602082019050818103600083015262000544816200049c565b9050919050565b6000620005576200056a565b9050620005658282620005f2565b919050565b6000604051905090565b600067ffffffffffffffff821115620005925762000591620006d4565b5b602082029050602081019050919050565b600082825260208201905092915050565b6000620005c182620005c8565b9050919050565b600073ffffffffffffffffffffffffffffffffffffffff82169050919050565b6000819050919050565b620005fd8262000717565b810181811067ffffffffffffffff821117156200061f576200061e620006d4565b5b80604052505050565b60006200063582620005e8565b91507fffffffffffffffffffffffffffffffffffffffffffffffffffffffffffffffff8214156200066b576200066a62000676565b5b600182019050919050565b7f4e487b7100000000000000000000000000000000000000000000000000000000600052601160045260246000fd5b7f4e487b7100000000000000000000000000000000000000000000000000000000600052603260045260246000fd5b7f4e487b7100000000000000000000000000000000000000000000000000000000600052604160045260246000fd5b600080fd5b600080fd5b600080fd5b600080fd5b6000601f19601f8301169050919050565b7f496e76616c6964206f776e657200000000000000000000000000000000000000600082015250565b7f4f776e6572206e6f7420756e6971756500000000000000000000000000000000600082015250565b7f6174206c65617374206f6e65206f776e65722072657175697265640000000000600082015250565b7f496e76616c6964206e756d626572206f6620726571756972656420636f6e666960008201527f726d6174696f6e7320696e20636f6e7374727563746f72000000000000000000602082015250565b620007fd81620005b4565b81146200080957600080fd5b50565b6200081781620005e8565b81146200082357600080fd5b50565b610c5280620008366000396000f3fe6080604052600436106100595760003560e01c8063025e7c27146100b55780632f54bf6e146100f257806380f59a651461012f5780639ace38c21461016c578063c01a8c84146101ad578063d0549b85146101d6576100b0565b366100b0573373ffffffffffffffffffffffffffffffffffffffff167f90890809c654f11d6e72a28fa60149770a0d11ec6c92319d6ceb2bb0a4ea1a1534476040516100a692919061094e565b60405180910390a2005b600080fd5b3480156100c157600080fd5b506100dc60048036038101906100d791906106c4565b610201565b6040516100e99190610823565b60405180910390f35b3480156100fe57600080fd5b5061011960048036038101906101149190610697565b610240565b6040516101269190610898565b60405180910390f35b34801561013b57600080fd5b50610156600480360381019061015191906106f1565b610260565b6040516101639190610898565b60405180910390f35b34801561017857600080fd5b50610193600480360381019061018e91906106c4565b61028f565b6040516101a495949392919061083e565b60405180910390f35b3480156101b957600080fd5b506101d460048036038101906101cf91906106c4565b61038a565b005b3480156101e257600080fd5b506101eb610667565b6040516101f89190610933565b60405180910390f35b6000818154811061021157600080fd5b906000526020600020016000915054906101000a900473ffffffffffffffffffffffffffffffffffffffff1681565b60016020528060005260406000206000915054906101000a900460ff1681565b60036020528160005260406000206020528060005260406000206000915091509054906101000a900460ff1681565b6004818154811061029f57600080fd5b90600052602060002090600502016000915090508060000160009054906101000a900473ffffffffffffffffffffffffffffffffffffffff16908060010154908060020180546102ee90610a75565b80601f016020809104026020016040519081016040528092919081815260200182805461031a90610a75565b80156103675780601f1061033c57610100808354040283529160200191610367565b820191906000526020600020905b81548152906001019060200180831161034a57829003601f168201915b5050505050908060030160009054906101000a900460ff16908060040154905085565b600160003373ffffffffffffffffffffffffffffffffffffffff1673ffffffffffffffffffffffffffffffffffffffff16815260200190815260200160002060009054906101000a900460ff16610416576040517f08c379a000000000000000000000000000000000000000000000000000000000815260040161040d906108b3565b60405180910390fd5b80600480549050811061045e576040517f08c379a000000000000000000000000000000000000000000000000000000000815260040161045590610913565b60405180910390fd5b816004818154811061047357610472610b05565b5b906000526020600020906005020160030160009054906101000a900460ff16156104d2576040517f08c379a00000000000000000000000000000000000000000000000000000000081526004016104c9906108f3565b60405180910390fd5b826003600082815260200190815260200160002060003373ffffffffffffffffffffffffffffffffffffffff1673ffffffffffffffffffffffffffffffffffffffff16815260200190815260200160002060009054906101000a900460ff1615610571576040517f08c379a0000000000000000000000000000000000000000000000000000000008152600401610568906108d3565b60405180910390fd5b60006004858154811061058757610586610b05565b5b9060005260206000209060050201905060018160040160008282546105ac91906109a4565b9250508190555060016003600087815260200190815260200160002060003373ffffffffffffffffffffffffffffffffffffffff1673ffffffffffffffffffffffffffffffffffffffff16815260200190815260200160002060006101000a81548160ff021916908315150217905550843373ffffffffffffffffffffffffffffffffffffffff167f5cbe105e36805f7820e291f799d5794ff948af2a5f664e580382defb6339004160405160405180910390a35050505050565b60025481565b60008135905061067c81610bee565b92915050565b60008135905061069181610c05565b92915050565b6000602082840312156106ad576106ac610b34565b5b60006106bb8482850161066d565b91505092915050565b6000602082840312156106da576106d9610b34565b5b60006106e884828501610682565b91505092915050565b6000806040838503121561070857610707610b34565b5b600061071685828601610682565b92505060206107278582860161066d565b9150509250929050565b61073a816109fa565b82525050565b61074981610a0c565b82525050565b600061075a82610977565b6107648185610982565b9350610774818560208601610a42565b61077d81610b39565b840191505092915050565b6000610795600d83610993565b91506107a082610b4a565b602082019050919050565b60006107b8601483610993565b91506107c382610b73565b602082019050919050565b60006107db601383610993565b91506107e682610b9c565b602082019050919050565b60006107fe601a83610993565b915061080982610bc5565b602082019050919050565b61081d81610a38565b82525050565b60006020820190506108386000830184610731565b92915050565b600060a0820190506108536000830188610731565b6108606020830187610814565b8181036040830152610872818661074f565b90506108816060830185610740565b61088e6080830184610814565b9695505050505050565b60006020820190506108ad6000830184610740565b92915050565b600060208201905081810360008301526108cc81610788565b9050919050565b600060208201905081810360008301526108ec816107ab565b9050919050565b6000602082019050818103600083015261090c816107ce565b9050919050565b6000602082019050818103600083015261092c816107f1565b9050919050565b60006020820190506109486000830184610814565b92915050565b60006040820190506109636000830185610814565b6109706020830184610814565b9392505050565b600081519050919050565b600082825260208201905092915050565b600082825260208201905092915050565b60006109af82610a38565b91506109ba83610a38565b9250827fffffffffffffffffffffffffffffffffffffffffffffffffffffffffffffffff038211156109ef576109ee610aa7565b5b828201905092915050565b6000610a0582610a18565b9050919050565b60008115159050919050565b600073ffffffffffffffffffffffffffffffffffffffff82169050919050565b6000819050919050565b60005b83811015610a60578082015181840152602081019050610a45565b83811115610a6f576000848401525b50505050565b60006002820490506001821680610a8d57607f821691505b60208210811415610aa157610aa0610ad6565b5b50919050565b7f4e487b7100000000000000000000000000000000000000000000000000000000600052601160045260246000fd5b7f4e487b7100000000000000000000000000000000000000000000000000000000600052602260045260246000fd5b7f4e487b7100000000000000000000000000000000000000000000000000000000600052603260045260246000fd5b600080fd5b6000601f19601f8301169050919050565b7f4e6f7420746865206f776e657200000000000000000000000000000000000000600082015250565b7f747820616c726561647920636f6e6669726d6564000000000000000000000000600082015250565b7f747820616c726561647920657865637574656400000000000000000000000000600082015250565b7f7472616e73616374696f6e20646f6573206e6f74206578697374000000000000600082015250565b610bf7816109fa565b8114610c0257600080fd5b50565b610c0e81610a38565b8114610c1957600080fd5b5056fea2646970667358221220034660e8437b14a3bcc2b6a62d0b5b939bdbbb2e4daea88603770ac46cbd60cb64736f6c63430008070033",
					"opcodes": "PUSH1 0x80 PUSH1 0x40 MSTORE CALLVALUE DUP1 ISZERO PUSH3 0x11 JUMPI PUSH1 0x0 DUP1 REVERT JUMPDEST POP PUSH1 0x40 MLOAD PUSH3 0x1488 CODESIZE SUB DUP1 PUSH3 0x1488 DUP4 CODECOPY DUP2 DUP2 ADD PUSH1 0x40 MSTORE DUP2 ADD SWAP1 PUSH3 0x37 SWAP2 SWAP1 PUSH3 0x3C1 JUMP JUMPDEST PUSH1 0x0 DUP3 MLOAD GT PUSH3 0x7E JUMPI PUSH1 0x40 MLOAD PUSH32 0x8C379A000000000000000000000000000000000000000000000000000000000 DUP2 MSTORE PUSH1 0x4 ADD PUSH3 0x75 SWAP1 PUSH3 0x507 JUMP JUMPDEST PUSH1 0x40 MLOAD DUP1 SWAP2 SUB SWAP1 REVERT JUMPDEST PUSH1 0x0 DUP2 GT DUP1 ISZERO PUSH3 0x90 JUMPI POP DUP2 MLOAD DUP2 GT ISZERO JUMPDEST PUSH3 0xD2 JUMPI PUSH1 0x40 MLOAD PUSH32 0x8C379A000000000000000000000000000000000000000000000000000000000 DUP2 MSTORE PUSH1 0x4 ADD PUSH3 0xC9 SWAP1 PUSH3 0x529 JUMP JUMPDEST PUSH1 0x40 MLOAD DUP1 SWAP2 SUB SWAP1 REVERT JUMPDEST PUSH1 0x0 JUMPDEST DUP3 MLOAD DUP2 LT ISZERO PUSH3 0x2D5 JUMPI PUSH1 0x0 DUP4 DUP3 DUP2 MLOAD DUP2 LT PUSH3 0xF7 JUMPI PUSH3 0xF6 PUSH3 0x6A5 JUMP JUMPDEST JUMPDEST PUSH1 0x20 MUL PUSH1 0x20 ADD ADD MLOAD SWAP1 POP PUSH1 0x0 PUSH20 0xFFFFFFFFFFFFFFFFFFFFFFFFFFFFFFFFFFFFFFFF AND DUP2 PUSH20 0xFFFFFFFFFFFFFFFFFFFFFFFFFFFFFFFFFFFFFFFF AND EQ ISZERO PUSH3 0x174 JUMPI PUSH1 0x40 MLOAD PUSH32 0x8C379A000000000000000000000000000000000000000000000000000000000 DUP2 MSTORE PUSH1 0x4 ADD PUSH3 0x16B SWAP1 PUSH3 0x4C3 JUMP JUMPDEST PUSH1 0x40 MLOAD DUP1 SWAP2 SUB SWAP1 REVERT JUMPDEST PUSH1 0x1 PUSH1 0x0 DUP3 PUSH20 0xFFFFFFFFFFFFFFFFFFFFFFFFFFFFFFFFFFFFFFFF AND PUSH20 0xFFFFFFFFFFFFFFFFFFFFFFFFFFFFFFFFFFFFFFFF AND DUP2 MSTORE PUSH1 0x20 ADD SWAP1 DUP2 MSTORE PUSH1 0x20 ADD PUSH1 0x0 KECCAK256 PUSH1 0x0 SWAP1 SLOAD SWAP1 PUSH2 0x100 EXP SWAP1 DIV PUSH1 0xFF AND ISZERO PUSH3 0x204 JUMPI PUSH1 0x40 MLOAD PUSH32 0x8C379A000000000000000000000000000000000000000000000000000000000 DUP2 MSTORE PUSH1 0x4 ADD PUSH3 0x1FB SWAP1 PUSH3 0x4E5 JUMP JUMPDEST PUSH1 0x40 MLOAD DUP1 SWAP2 SUB SWAP1 REVERT JUMPDEST PUSH1 0x1 DUP1 PUSH1 0x0 DUP4 PUSH20 0xFFFFFFFFFFFFFFFFFFFFFFFFFFFFFFFFFFFFFFFF AND PUSH20 0xFFFFFFFFFFFFFFFFFFFFFFFFFFFFFFFFFFFFFFFF AND DUP2 MSTORE PUSH1 0x20 ADD SWAP1 DUP2 MSTORE PUSH1 0x20 ADD PUSH1 0x0 KECCAK256 PUSH1 0x0 PUSH2 0x100 EXP DUP2 SLOAD DUP2 PUSH1 0xFF MUL NOT AND SWAP1 DUP4 ISZERO ISZERO MUL OR SWAP1 SSTORE POP PUSH1 0x0 DUP2 SWAP1 DUP1 PUSH1 0x1 DUP2 SLOAD ADD DUP1 DUP3 SSTORE DUP1 SWAP2 POP POP PUSH1 0x1 SWAP1 SUB SWAP1 PUSH1 0x0 MSTORE PUSH1 0x20 PUSH1 0x0 KECCAK256 ADD PUSH1 0x0 SWAP1 SWAP2 SWAP1 SWAP2 SWAP1 SWAP2 PUSH2 0x100 EXP DUP2 SLOAD DUP2 PUSH20 0xFFFFFFFFFFFFFFFFFFFFFFFFFFFFFFFFFFFFFFFF MUL NOT AND SWAP1 DUP4 PUSH20 0xFFFFFFFFFFFFFFFFFFFFFFFFFFFFFFFFFFFFFFFF AND MUL OR SWAP1 SSTORE POP POP DUP1 DUP1 PUSH3 0x2CC SWAP1 PUSH3 0x628 JUMP JUMPDEST SWAP2 POP POP PUSH3 0xD5 JUMP JUMPDEST POP DUP1 PUSH1 0x2 DUP2 SWAP1 SSTORE POP POP POP PUSH3 0x826 JUMP JUMPDEST PUSH1 0x0 PUSH3 0x2FC PUSH3 0x2F6 DUP5 PUSH3 0x574 JUMP JUMPDEST PUSH3 0x54B JUMP JUMPDEST SWAP1 POP DUP1 DUP4 DUP3 MSTORE PUSH1 0x20 DUP3 ADD SWAP1 POP DUP3 DUP6 PUSH1 0x20 DUP7 MUL DUP3 ADD GT ISZERO PUSH3 0x322 JUMPI PUSH3 0x321 PUSH3 0x708 JUMP JUMPDEST JUMPDEST PUSH1 0x0 JUMPDEST DUP6 DUP2 LT ISZERO PUSH3 0x356 JUMPI DUP2 PUSH3 0x33B DUP9 DUP3 PUSH3 0x360 JUMP JUMPDEST DUP5 MSTORE PUSH1 0x20 DUP5 ADD SWAP4 POP PUSH1 0x20 DUP4 ADD SWAP3 POP POP PUSH1 0x1 DUP2 ADD SWAP1 POP PUSH3 0x325 JUMP JUMPDEST POP POP POP SWAP4 SWAP3 POP POP POP JUMP JUMPDEST PUSH1 0x0 DUP2 MLOAD SWAP1 POP PUSH3 0x371 DUP2 PUSH3 0x7F2 JUMP JUMPDEST SWAP3 SWAP2 POP POP JUMP JUMPDEST PUSH1 0x0 DUP3 PUSH1 0x1F DUP4 ADD SLT PUSH3 0x38F JUMPI PUSH3 0x38E PUSH3 0x703 JUMP JUMPDEST JUMPDEST DUP2 MLOAD PUSH3 0x3A1 DUP5 DUP3 PUSH1 0x20 DUP7 ADD PUSH3 0x2E5 JUMP JUMPDEST SWAP2 POP POP SWAP3 SWAP2 POP POP JUMP JUMPDEST PUSH1 0x0 DUP2 MLOAD SWAP1 POP PUSH3 0x3BB DUP2 PUSH3 0x80C JUMP JUMPDEST SWAP3 SWAP2 POP POP JUMP JUMPDEST PUSH1 0x0 DUP1 PUSH1 0x40 DUP4 DUP6 SUB SLT ISZERO PUSH3 0x3DB JUMPI PUSH3 0x3DA PUSH3 0x712 JUMP JUMPDEST JUMPDEST PUSH1 0x0 DUP4 ADD MLOAD PUSH8 0xFFFFFFFFFFFFFFFF DUP2 GT ISZERO PUSH3 0x3FC JUMPI PUSH3 0x3FB PUSH3 0x70D JUMP JUMPDEST JUMPDEST PUSH3 0x40A DUP6 DUP3 DUP7 ADD PUSH3 0x377 JUMP JUMPDEST SWAP3 POP POP PUSH1 0x20 PUSH3 0x41D DUP6 DUP3 DUP7 ADD PUSH3 0x3AA JUMP JUMPDEST SWAP2 POP POP SWAP3 POP SWAP3 SWAP1 POP JUMP JUMPDEST PUSH1 0x0 PUSH3 0x436 PUSH1 0xD DUP4 PUSH3 0x5A3 JUMP JUMPDEST SWAP2 POP PUSH3 0x443 DUP3 PUSH3 0x728 JUMP JUMPDEST PUSH1 0x20 DUP3 ADD SWAP1 POP SWAP2 SWAP1 POP JUMP JUMPDEST PUSH1 0x0 PUSH3 0x45D PUSH1 0x10 DUP4 PUSH3 0x5A3 JUMP JUMPDEST SWAP2 POP PUSH3 0x46A DUP3 PUSH3 0x751 JUMP JUMPDEST PUSH1 0x20 DUP3 ADD SWAP1 POP SWAP2 SWAP1 POP JUMP JUMPDEST PUSH1 0x0 PUSH3 0x484 PUSH1 0x1B DUP4 PUSH3 0x5A3 JUMP JUMPDEST SWAP2 POP PUSH3 0x491 DUP3 PUSH3 0x77A JUMP JUMPDEST PUSH1 0x20 DUP3 ADD SWAP1 POP SWAP2 SWAP1 POP JUMP JUMPDEST PUSH1 0x0 PUSH3 0x4AB PUSH1 0x37 DUP4 PUSH3 0x5A3 JUMP JUMPDEST SWAP2 POP PUSH3 0x4B8 DUP3 PUSH3 0x7A3 JUMP JUMPDEST PUSH1 0x40 DUP3 ADD SWAP1 POP SWAP2 SWAP1 POP JUMP JUMPDEST PUSH1 0x0 PUSH1 0x20 DUP3 ADD SWAP1 POP DUP2 DUP2 SUB PUSH1 0x0 DUP4 ADD MSTORE PUSH3 0x4DE DUP2 PUSH3 0x427 JUMP JUMPDEST SWAP1 POP SWAP2 SWAP1 POP JUMP JUMPDEST PUSH1 0x0 PUSH1 0x20 DUP3 ADD SWAP1 POP DUP2 DUP2 SUB PUSH1 0x0 DUP4 ADD MSTORE PUSH3 0x500 DUP2 PUSH3 0x44E JUMP JUMPDEST SWAP1 POP SWAP2 SWAP1 POP JUMP JUMPDEST PUSH1 0x0 PUSH1 0x20 DUP3 ADD SWAP1 POP DUP2 DUP2 SUB PUSH1 0x0 DUP4 ADD MSTORE PUSH3 0x522 DUP2 PUSH3 0x475 JUMP JUMPDEST SWAP1 POP SWAP2 SWAP1 POP JUMP JUMPDEST PUSH1 0x0 PUSH1 0x20 DUP3 ADD SWAP1 POP DUP2 DUP2 SUB PUSH1 0x0 DUP4 ADD MSTORE PUSH3 0x544 DUP2 PUSH3 0x49C JUMP JUMPDEST SWAP1 POP SWAP2 SWAP1 POP JUMP JUMPDEST PUSH1 0x0 PUSH3 0x557 PUSH3 0x56A JUMP JUMPDEST SWAP1 POP PUSH3 0x565 DUP3 DUP3 PUSH3 0x5F2 JUMP JUMPDEST SWAP2 SWAP1 POP JUMP JUMPDEST PUSH1 0x0 PUSH1 0x40 MLOAD SWAP1 POP SWAP1 JUMP JUMPDEST PUSH1 0x0 PUSH8 0xFFFFFFFFFFFFFFFF DUP3 GT ISZERO PUSH3 0x592 JUMPI PUSH3 0x591 PUSH3 0x6D4 JUMP JUMPDEST JUMPDEST PUSH1 0x20 DUP3 MUL SWAP1 POP PUSH1 0x20 DUP2 ADD SWAP1 POP SWAP2 SWAP1 POP JUMP JUMPDEST PUSH1 0x0 DUP3 DUP3 MSTORE PUSH1 0x20 DUP3 ADD SWAP1 POP SWAP3 SWAP2 POP POP JUMP JUMPDEST PUSH1 0x0 PUSH3 0x5C1 DUP3 PUSH3 0x5C8 JUMP JUMPDEST SWAP1 POP SWAP2 SWAP1 POP JUMP JUMPDEST PUSH1 0x0 PUSH20 0xFFFFFFFFFFFFFFFFFFFFFFFFFFFFFFFFFFFFFFFF DUP3 AND SWAP1 POP SWAP2 SWAP1 POP JUMP JUMPDEST PUSH1 0x0 DUP2 SWAP1 POP SWAP2 SWAP1 POP JUMP JUMPDEST PUSH3 0x5FD DUP3 PUSH3 0x717 JUMP JUMPDEST DUP2 ADD DUP2 DUP2 LT PUSH8 0xFFFFFFFFFFFFFFFF DUP3 GT OR ISZERO PUSH3 0x61F JUMPI PUSH3 0x61E PUSH3 0x6D4 JUMP JUMPDEST JUMPDEST DUP1 PUSH1 0x40 MSTORE POP POP POP JUMP JUMPDEST PUSH1 0x0 PUSH3 0x635 DUP3 PUSH3 0x5E8 JUMP JUMPDEST SWAP2 POP PUSH32 0xFFFFFFFFFFFFFFFFFFFFFFFFFFFFFFFFFFFFFFFFFFFFFFFFFFFFFFFFFFFFFFFF DUP3 EQ ISZERO PUSH3 0x66B JUMPI PUSH3 0x66A PUSH3 0x676 JUMP JUMPDEST JUMPDEST PUSH1 0x1 DUP3 ADD SWAP1 POP SWAP2 SWAP1 POP JUMP JUMPDEST PUSH32 0x4E487B7100000000000000000000000000000000000000000000000000000000 PUSH1 0x0 MSTORE PUSH1 0x11 PUSH1 0x4 MSTORE PUSH1 0x24 PUSH1 0x0 REVERT JUMPDEST PUSH32 0x4E487B7100000000000000000000000000000000000000000000000000000000 PUSH1 0x0 MSTORE PUSH1 0x32 PUSH1 0x4 MSTORE PUSH1 0x24 PUSH1 0x0 REVERT JUMPDEST PUSH32 0x4E487B7100000000000000000000000000000000000000000000000000000000 PUSH1 0x0 MSTORE PUSH1 0x41 PUSH1 0x4 MSTORE PUSH1 0x24 PUSH1 0x0 REVERT JUMPDEST PUSH1 0x0 DUP1 REVERT JUMPDEST PUSH1 0x0 DUP1 REVERT JUMPDEST PUSH1 0x0 DUP1 REVERT JUMPDEST PUSH1 0x0 DUP1 REVERT JUMPDEST PUSH1 0x0 PUSH1 0x1F NOT PUSH1 0x1F DUP4 ADD AND SWAP1 POP SWAP2 SWAP1 POP JUMP JUMPDEST PUSH32 0x496E76616C6964206F776E657200000000000000000000000000000000000000 PUSH1 0x0 DUP3 ADD MSTORE POP JUMP JUMPDEST PUSH32 0x4F776E6572206E6F7420756E6971756500000000000000000000000000000000 PUSH1 0x0 DUP3 ADD MSTORE POP JUMP JUMPDEST PUSH32 0x6174206C65617374206F6E65206F776E65722072657175697265640000000000 PUSH1 0x0 DUP3 ADD MSTORE POP JUMP JUMPDEST PUSH32 0x496E76616C6964206E756D626572206F6620726571756972656420636F6E6669 PUSH1 0x0 DUP3 ADD MSTORE PUSH32 0x726D6174696F6E7320696E20636F6E7374727563746F72000000000000000000 PUSH1 0x20 DUP3 ADD MSTORE POP JUMP JUMPDEST PUSH3 0x7FD DUP2 PUSH3 0x5B4 JUMP JUMPDEST DUP2 EQ PUSH3 0x809 JUMPI PUSH1 0x0 DUP1 REVERT JUMPDEST POP JUMP JUMPDEST PUSH3 0x817 DUP2 PUSH3 0x5E8 JUMP JUMPDEST DUP2 EQ PUSH3 0x823 JUMPI PUSH1 0x0 DUP1 REVERT JUMPDEST POP JUMP JUMPDEST PUSH2 0xC52 DUP1 PUSH3 0x836 PUSH1 0x0 CODECOPY PUSH1 0x0 RETURN INVALID PUSH1 0x80 PUSH1 0x40 MSTORE PUSH1 0x4 CALLDATASIZE LT PUSH2 0x59 JUMPI PUSH1 0x0 CALLDATALOAD PUSH1 0xE0 SHR DUP1 PUSH4 0x25E7C27 EQ PUSH2 0xB5 JUMPI DUP1 PUSH4 0x2F54BF6E EQ PUSH2 0xF2 JUMPI DUP1 PUSH4 0x80F59A65 EQ PUSH2 0x12F JUMPI DUP1 PUSH4 0x9ACE38C2 EQ PUSH2 0x16C JUMPI DUP1 PUSH4 0xC01A8C84 EQ PUSH2 0x1AD JUMPI DUP1 PUSH4 0xD0549B85 EQ PUSH2 0x1D6 JUMPI PUSH2 0xB0 JUMP JUMPDEST CALLDATASIZE PUSH2 0xB0 JUMPI CALLER PUSH20 0xFFFFFFFFFFFFFFFFFFFFFFFFFFFFFFFFFFFFFFFF AND PUSH32 0x90890809C654F11D6E72A28FA60149770A0D11EC6C92319D6CEB2BB0A4EA1A15 CALLVALUE SELFBALANCE PUSH1 0x40 MLOAD PUSH2 0xA6 SWAP3 SWAP2 SWAP1 PUSH2 0x94E JUMP JUMPDEST PUSH1 0x40 MLOAD DUP1 SWAP2 SUB SWAP1 LOG2 STOP JUMPDEST PUSH1 0x0 DUP1 REVERT JUMPDEST CALLVALUE DUP1 ISZERO PUSH2 0xC1 JUMPI PUSH1 0x0 DUP1 REVERT JUMPDEST POP PUSH2 0xDC PUSH1 0x4 DUP1 CALLDATASIZE SUB DUP2 ADD SWAP1 PUSH2 0xD7 SWAP2 SWAP1 PUSH2 0x6C4 JUMP JUMPDEST PUSH2 0x201 JUMP JUMPDEST PUSH1 0x40 MLOAD PUSH2 0xE9 SWAP2 SWAP1 PUSH2 0x823 JUMP JUMPDEST PUSH1 0x40 MLOAD DUP1 SWAP2 SUB SWAP1 RETURN JUMPDEST CALLVALUE DUP1 ISZERO PUSH2 0xFE JUMPI PUSH1 0x0 DUP1 REVERT JUMPDEST POP PUSH2 0x119 PUSH1 0x4 DUP1 CALLDATASIZE SUB DUP2 ADD SWAP1 PUSH2 0x114 SWAP2 SWAP1 PUSH2 0x697 JUMP JUMPDEST PUSH2 0x240 JUMP JUMPDEST PUSH1 0x40 MLOAD PUSH2 0x126 SWAP2 SWAP1 PUSH2 0x898 JUMP JUMPDEST PUSH1 0x40 MLOAD DUP1 SWAP2 SUB SWAP1 RETURN JUMPDEST CALLVALUE DUP1 ISZERO PUSH2 0x13B JUMPI PUSH1 0x0 DUP1 REVERT JUMPDEST POP PUSH2 0x156 PUSH1 0x4 DUP1 CALLDATASIZE SUB DUP2 ADD SWAP1 PUSH2 0x151 SWAP2 SWAP1 PUSH2 0x6F1 JUMP JUMPDEST PUSH2 0x260 JUMP JUMPDEST PUSH1 0x40 MLOAD PUSH2 0x163 SWAP2 SWAP1 PUSH2 0x898 JUMP JUMPDEST PUSH1 0x40 MLOAD DUP1 SWAP2 SUB SWAP1 RETURN JUMPDEST CALLVALUE DUP1 ISZERO PUSH2 0x178 JUMPI PUSH1 0x0 DUP1 REVERT JUMPDEST POP PUSH2 0x193 PUSH1 0x4 DUP1 CALLDATASIZE SUB DUP2 ADD SWAP1 PUSH2 0x18E SWAP2 SWAP1 PUSH2 0x6C4 JUMP JUMPDEST PUSH2 0x28F JUMP JUMPDEST PUSH1 0x40 MLOAD PUSH2 0x1A4 SWAP6 SWAP5 SWAP4 SWAP3 SWAP2 SWAP1 PUSH2 0x83E JUMP JUMPDEST PUSH1 0x40 MLOAD DUP1 SWAP2 SUB SWAP1 RETURN JUMPDEST CALLVALUE DUP1 ISZERO PUSH2 0x1B9 JUMPI PUSH1 0x0 DUP1 REVERT JUMPDEST POP PUSH2 0x1D4 PUSH1 0x4 DUP1 CALLDATASIZE SUB DUP2 ADD SWAP1 PUSH2 0x1CF SWAP2 SWAP1 PUSH2 0x6C4 JUMP JUMPDEST PUSH2 0x38A JUMP JUMPDEST STOP JUMPDEST CALLVALUE DUP1 ISZERO PUSH2 0x1E2 JUMPI PUSH1 0x0 DUP1 REVERT JUMPDEST POP PUSH2 0x1EB PUSH2 0x667 JUMP JUMPDEST PUSH1 0x40 MLOAD PUSH2 0x1F8 SWAP2 SWAP1 PUSH2 0x933 JUMP JUMPDEST PUSH1 0x40 MLOAD DUP1 SWAP2 SUB SWAP1 RETURN JUMPDEST PUSH1 0x0 DUP2 DUP2 SLOAD DUP2 LT PUSH2 0x211 JUMPI PUSH1 0x0 DUP1 REVERT JUMPDEST SWAP1 PUSH1 0x0 MSTORE PUSH1 0x20 PUSH1 0x0 KECCAK256 ADD PUSH1 0x0 SWAP2 POP SLOAD SWAP1 PUSH2 0x100 EXP SWAP1 DIV PUSH20 0xFFFFFFFFFFFFFFFFFFFFFFFFFFFFFFFFFFFFFFFF AND DUP2 JUMP JUMPDEST PUSH1 0x1 PUSH1 0x20 MSTORE DUP1 PUSH1 0x0 MSTORE PUSH1 0x40 PUSH1 0x0 KECCAK256 PUSH1 0x0 SWAP2 POP SLOAD SWAP1 PUSH2 0x100 EXP SWAP1 DIV PUSH1 0xFF AND DUP2 JUMP JUMPDEST PUSH1 0x3 PUSH1 0x20 MSTORE DUP2 PUSH1 0x0 MSTORE PUSH1 0x40 PUSH1 0x0 KECCAK256 PUSH1 0x20 MSTORE DUP1 PUSH1 0x0 MSTORE PUSH1 0x40 PUSH1 0x0 KECCAK256 PUSH1 0x0 SWAP2 POP SWAP2 POP SWAP1 SLOAD SWAP1 PUSH2 0x100 EXP SWAP1 DIV PUSH1 0xFF AND DUP2 JUMP JUMPDEST PUSH1 0x4 DUP2 DUP2 SLOAD DUP2 LT PUSH2 0x29F JUMPI PUSH1 0x0 DUP1 REVERT JUMPDEST SWAP1 PUSH1 0x0 MSTORE PUSH1 0x20 PUSH1 0x0 KECCAK256 SWAP1 PUSH1 0x5 MUL ADD PUSH1 0x0 SWAP2 POP SWAP1 POP DUP1 PUSH1 0x0 ADD PUSH1 0x0 SWAP1 SLOAD SWAP1 PUSH2 0x100 EXP SWAP1 DIV PUSH20 0xFFFFFFFFFFFFFFFFFFFFFFFFFFFFFFFFFFFFFFFF AND SWAP1 DUP1 PUSH1 0x1 ADD SLOAD SWAP1 DUP1 PUSH1 0x2 ADD DUP1 SLOAD PUSH2 0x2EE SWAP1 PUSH2 0xA75 JUMP JUMPDEST DUP1 PUSH1 0x1F ADD PUSH1 0x20 DUP1 SWAP2 DIV MUL PUSH1 0x20 ADD PUSH1 0x40 MLOAD SWAP1 DUP2 ADD PUSH1 0x40 MSTORE DUP1 SWAP3 SWAP2 SWAP1 DUP2 DUP2 MSTORE PUSH1 0x20 ADD DUP3 DUP1 SLOAD PUSH2 0x31A SWAP1 PUSH2 0xA75 JUMP JUMPDEST DUP1 ISZERO PUSH2 0x367 JUMPI DUP1 PUSH1 0x1F LT PUSH2 0x33C JUMPI PUSH2 0x100 DUP1 DUP4 SLOAD DIV MUL DUP4 MSTORE SWAP2 PUSH1 0x20 ADD SWAP2 PUSH2 0x367 JUMP JUMPDEST DUP3 ADD SWAP2 SWAP1 PUSH1 0x0 MSTORE PUSH1 0x20 PUSH1 0x0 KECCAK256 SWAP1 JUMPDEST DUP2 SLOAD DUP2 MSTORE SWAP1 PUSH1 0x1 ADD SWAP1 PUSH1 0x20 ADD DUP1 DUP4 GT PUSH2 0x34A JUMPI DUP3 SWAP1 SUB PUSH1 0x1F AND DUP3 ADD SWAP2 JUMPDEST POP POP POP POP POP SWAP1 DUP1 PUSH1 0x3 ADD PUSH1 0x0 SWAP1 SLOAD SWAP1 PUSH2 0x100 EXP SWAP1 DIV PUSH1 0xFF AND SWAP1 DUP1 PUSH1 0x4 ADD SLOAD SWAP1 POP DUP6 JUMP JUMPDEST PUSH1 0x1 PUSH1 0x0 CALLER PUSH20 0xFFFFFFFFFFFFFFFFFFFFFFFFFFFFFFFFFFFFFFFF AND PUSH20 0xFFFFFFFFFFFFFFFFFFFFFFFFFFFFFFFFFFFFFFFF AND DUP2 MSTORE PUSH1 0x20 ADD SWAP1 DUP2 MSTORE PUSH1 0x20 ADD PUSH1 0x0 KECCAK256 PUSH1 0x0 SWAP1 SLOAD SWAP1 PUSH2 0x100 EXP SWAP1 DIV PUSH1 0xFF AND PUSH2 0x416 JUMPI PUSH1 0x40 MLOAD PUSH32 0x8C379A000000000000000000000000000000000000000000000000000000000 DUP2 MSTORE PUSH1 0x4 ADD PUSH2 0x40D SWAP1 PUSH2 0x8B3 JUMP JUMPDEST PUSH1 0x40 MLOAD DUP1 SWAP2 SUB SWAP1 REVERT JUMPDEST DUP1 PUSH1 0x4 DUP1 SLOAD SWAP1 POP DUP2 LT PUSH2 0x45E JUMPI PUSH1 0x40 MLOAD PUSH32 0x8C379A000000000000000000000000000000000000000000000000000000000 DUP2 MSTORE PUSH1 0x4 ADD PUSH2 0x455 SWAP1 PUSH2 0x913 JUMP JUMPDEST PUSH1 0x40 MLOAD DUP1 SWAP2 SUB SWAP1 REVERT JUMPDEST DUP2 PUSH1 0x4 DUP2 DUP2 SLOAD DUP2 LT PUSH2 0x473 JUMPI PUSH2 0x472 PUSH2 0xB05 JUMP JUMPDEST JUMPDEST SWAP1 PUSH1 0x0 MSTORE PUSH1 0x20 PUSH1 0x0 KECCAK256 SWAP1 PUSH1 0x5 MUL ADD PUSH1 0x3 ADD PUSH1 0x0 SWAP1 SLOAD SWAP1 PUSH2 0x100 EXP SWAP1 DIV PUSH1 0xFF AND ISZERO PUSH2 0x4D2 JUMPI PUSH1 0x40 MLOAD PUSH32 0x8C379A000000000000000000000000000000000000000000000000000000000 DUP2 MSTORE PUSH1 0x4 ADD PUSH2 0x4C9 SWAP1 PUSH2 0x8F3 JUMP JUMPDEST PUSH1 0x40 MLOAD DUP1 SWAP2 SUB SWAP1 REVERT JUMPDEST DUP3 PUSH1 0x3 PUSH1 0x0 DUP3 DUP2 MSTORE PUSH1 0x20 ADD SWAP1 DUP2 MSTORE PUSH1 0x20 ADD PUSH1 0x0 KECCAK256 PUSH1 0x0 CALLER PUSH20 0xFFFFFFFFFFFFFFFFFFFFFFFFFFFFFFFFFFFFFFFF AND PUSH20 0xFFFFFFFFFFFFFFFFFFFFFFFFFFFFFFFFFFFFFFFF AND DUP2 MSTORE PUSH1 0x20 ADD SWAP1 DUP2 MSTORE PUSH1 0x20 ADD PUSH1 0x0 KECCAK256 PUSH1 0x0 SWAP1 SLOAD SWAP1 PUSH2 0x100 EXP SWAP1 DIV PUSH1 0xFF AND ISZERO PUSH2 0x571 JUMPI PUSH1 0x40 MLOAD PUSH32 0x8C379A000000000000000000000000000000000000000000000000000000000 DUP2 MSTORE PUSH1 0x4 ADD PUSH2 0x568 SWAP1 PUSH2 0x8D3 JUMP JUMPDEST PUSH1 0x40 MLOAD DUP1 SWAP2 SUB SWAP1 REVERT JUMPDEST PUSH1 0x0 PUSH1 0x4 DUP6 DUP2 SLOAD DUP2 LT PUSH2 0x587 JUMPI PUSH2 0x586 PUSH2 0xB05 JUMP JUMPDEST JUMPDEST SWAP1 PUSH1 0x0 MSTORE PUSH1 0x20 PUSH1 0x0 KECCAK256 SWAP1 PUSH1 0x5 MUL ADD SWAP1 POP PUSH1 0x1 DUP2 PUSH1 0x4 ADD PUSH1 0x0 DUP3 DUP3 SLOAD PUSH2 0x5AC SWAP2 SWAP1 PUSH2 0x9A4 JUMP JUMPDEST SWAP3 POP POP DUP2 SWAP1 SSTORE POP PUSH1 0x1 PUSH1 0x3 PUSH1 0x0 DUP8 DUP2 MSTORE PUSH1 0x20 ADD SWAP1 DUP2 MSTORE PUSH1 0x20 ADD PUSH1 0x0 KECCAK256 PUSH1 0x0 CALLER PUSH20 0xFFFFFFFFFFFFFFFFFFFFFFFFFFFFFFFFFFFFFFFF AND PUSH20 0xFFFFFFFFFFFFFFFFFFFFFFFFFFFFFFFFFFFFFFFF AND DUP2 MSTORE PUSH1 0x20 ADD SWAP1 DUP2 MSTORE PUSH1 0x20 ADD PUSH1 0x0 KECCAK256 PUSH1 0x0 PUSH2 0x100 EXP DUP2 SLOAD DUP2 PUSH1 0xFF MUL NOT AND SWAP1 DUP4 ISZERO ISZERO MUL OR SWAP1 SSTORE POP DUP5 CALLER PUSH20 0xFFFFFFFFFFFFFFFFFFFFFFFFFFFFFFFFFFFFFFFF AND PUSH32 0x5CBE105E36805F7820E291F799D5794FF948AF2A5F664E580382DEFB63390041 PUSH1 0x40 MLOAD PUSH1 0x40 MLOAD DUP1 SWAP2 SUB SWAP1 LOG3 POP POP POP POP POP JUMP JUMPDEST PUSH1 0x2 SLOAD DUP2 JUMP JUMPDEST PUSH1 0x0 DUP2 CALLDATALOAD SWAP1 POP PUSH2 0x67C DUP2 PUSH2 0xBEE JUMP JUMPDEST SWAP3 SWAP2 POP POP JUMP JUMPDEST PUSH1 0x0 DUP2 CALLDATALOAD SWAP1 POP PUSH2 0x691 DUP2 PUSH2 0xC05 JUMP JUMPDEST SWAP3 SWAP2 POP POP JUMP JUMPDEST PUSH1 0x0 PUSH1 0x20 DUP3 DUP5 SUB SLT ISZERO PUSH2 0x6AD JUMPI PUSH2 0x6AC PUSH2 0xB34 JUMP JUMPDEST JUMPDEST PUSH1 0x0 PUSH2 0x6BB DUP5 DUP3 DUP6 ADD PUSH2 0x66D JUMP JUMPDEST SWAP2 POP POP SWAP3 SWAP2 POP POP JUMP JUMPDEST PUSH1 0x0 PUSH1 0x20 DUP3 DUP5 SUB SLT ISZERO PUSH2 0x6DA JUMPI PUSH2 0x6D9 PUSH2 0xB34 JUMP JUMPDEST JUMPDEST PUSH1 0x0 PUSH2 0x6E8 DUP5 DUP3 DUP6 ADD PUSH2 0x682 JUMP JUMPDEST SWAP2 POP POP SWAP3 SWAP2 POP POP JUMP JUMPDEST PUSH1 0x0 DUP1 PUSH1 0x40 DUP4 DUP6 SUB SLT ISZERO PUSH2 0x708 JUMPI PUSH2 0x707 PUSH2 0xB34 JUMP JUMPDEST JUMPDEST PUSH1 0x0 PUSH2 0x716 DUP6 DUP3 DUP7 ADD PUSH2 0x682 JUMP JUMPDEST SWAP3 POP POP PUSH1 0x20 PUSH2 0x727 DUP6 DUP3 DUP7 ADD PUSH2 0x66D JUMP JUMPDEST SWAP2 POP POP SWAP3 POP SWAP3 SWAP1 POP JUMP JUMPDEST PUSH2 0x73A DUP2 PUSH2 0x9FA JUMP JUMPDEST DUP3 MSTORE POP POP JUMP JUMPDEST PUSH2 0x749 DUP2 PUSH2 0xA0C JUMP JUMPDEST DUP3 MSTORE POP POP JUMP JUMPDEST PUSH1 0x0 PUSH2 0x75A DUP3 PUSH2 0x977 JUMP JUMPDEST PUSH2 0x764 DUP2 DUP6 PUSH2 0x982 JUMP JUMPDEST SWAP4 POP PUSH2 0x774 DUP2 DUP6 PUSH1 0x20 DUP7 ADD PUSH2 0xA42 JUMP JUMPDEST PUSH2 0x77D DUP2 PUSH2 0xB39 JUMP JUMPDEST DUP5 ADD SWAP2 POP POP SWAP3 SWAP2 POP POP JUMP JUMPDEST PUSH1 0x0 PUSH2 0x795 PUSH1 0xD DUP4 PUSH2 0x993 JUMP JUMPDEST SWAP2 POP PUSH2 0x7A0 DUP3 PUSH2 0xB4A JUMP JUMPDEST PUSH1 0x20 DUP3 ADD SWAP1 POP SWAP2 SWAP1 POP JUMP JUMPDEST PUSH1 0x0 PUSH2 0x7B8 PUSH1 0x14 DUP4 PUSH2 0x993 JUMP JUMPDEST SWAP2 POP PUSH2 0x7C3 DUP3 PUSH2 0xB73 JUMP JUMPDEST PUSH1 0x20 DUP3 ADD SWAP1 POP SWAP2 SWAP1 POP JUMP JUMPDEST PUSH1 0x0 PUSH2 0x7DB PUSH1 0x13 DUP4 PUSH2 0x993 JUMP JUMPDEST SWAP2 POP PUSH2 0x7E6 DUP3 PUSH2 0xB9C JUMP JUMPDEST PUSH1 0x20 DUP3 ADD SWAP1 POP SWAP2 SWAP1 POP JUMP JUMPDEST PUSH1 0x0 PUSH2 0x7FE PUSH1 0x1A DUP4 PUSH2 0x993 JUMP JUMPDEST SWAP2 POP PUSH2 0x809 DUP3 PUSH2 0xBC5 JUMP JUMPDEST PUSH1 0x20 DUP3 ADD SWAP1 POP SWAP2 SWAP1 POP JUMP JUMPDEST PUSH2 0x81D DUP2 PUSH2 0xA38 JUMP JUMPDEST DUP3 MSTORE POP POP JUMP JUMPDEST PUSH1 0x0 PUSH1 0x20 DUP3 ADD SWAP1 POP PUSH2 0x838 PUSH1 0x0 DUP4 ADD DUP5 PUSH2 0x731 JUMP JUMPDEST SWAP3 SWAP2 POP POP JUMP JUMPDEST PUSH1 0x0 PUSH1 0xA0 DUP3 ADD SWAP1 POP PUSH2 0x853 PUSH1 0x0 DUP4 ADD DUP9 PUSH2 0x731 JUMP JUMPDEST PUSH2 0x860 PUSH1 0x20 DUP4 ADD DUP8 PUSH2 0x814 JUMP JUMPDEST DUP2 DUP2 SUB PUSH1 0x40 DUP4 ADD MSTORE PUSH2 0x872 DUP2 DUP7 PUSH2 0x74F JUMP JUMPDEST SWAP1 POP PUSH2 0x881 PUSH1 0x60 DUP4 ADD DUP6 PUSH2 0x740 JUMP JUMPDEST PUSH2 0x88E PUSH1 0x80 DUP4 ADD DUP5 PUSH2 0x814 JUMP JUMPDEST SWAP7 SWAP6 POP POP POP POP POP POP JUMP JUMPDEST PUSH1 0x0 PUSH1 0x20 DUP3 ADD SWAP1 POP PUSH2 0x8AD PUSH1 0x0 DUP4 ADD DUP5 PUSH2 0x740 JUMP JUMPDEST SWAP3 SWAP2 POP POP JUMP JUMPDEST PUSH1 0x0 PUSH1 0x20 DUP3 ADD SWAP1 POP DUP2 DUP2 SUB PUSH1 0x0 DUP4 ADD MSTORE PUSH2 0x8CC DUP2 PUSH2 0x788 JUMP JUMPDEST SWAP1 POP SWAP2 SWAP1 POP JUMP JUMPDEST PUSH1 0x0 PUSH1 0x20 DUP3 ADD SWAP1 POP DUP2 DUP2 SUB PUSH1 0x0 DUP4 ADD MSTORE PUSH2 0x8EC DUP2 PUSH2 0x7AB JUMP JUMPDEST SWAP1 POP SWAP2 SWAP1 POP JUMP JUMPDEST PUSH1 0x0 PUSH1 0x20 DUP3 ADD SWAP1 POP DUP2 DUP2 SUB PUSH1 0x0 DUP4 ADD MSTORE PUSH2 0x90C DUP2 PUSH2 0x7CE JUMP JUMPDEST SWAP1 POP SWAP2 SWAP1 POP JUMP JUMPDEST PUSH1 0x0 PUSH1 0x20 DUP3 ADD SWAP1 POP DUP2 DUP2 SUB PUSH1 0x0 DUP4 ADD MSTORE PUSH2 0x92C DUP2 PUSH2 0x7F1 JUMP JUMPDEST SWAP1 POP SWAP2 SWAP1 POP JUMP JUMPDEST PUSH1 0x0 PUSH1 0x20 DUP3 ADD SWAP1 POP PUSH2 0x948 PUSH1 0x0 DUP4 ADD DUP5 PUSH2 0x814 JUMP JUMPDEST SWAP3 SWAP2 POP POP JUMP JUMPDEST PUSH1 0x0 PUSH1 0x40 DUP3 ADD SWAP1 POP PUSH2 0x963 PUSH1 0x0 DUP4 ADD DUP6 PUSH2 0x814 JUMP JUMPDEST PUSH2 0x970 PUSH1 0x20 DUP4 ADD DUP5 PUSH2 0x814 JUMP JUMPDEST SWAP4 SWAP3 POP POP POP JUMP JUMPDEST PUSH1 0x0 DUP2 MLOAD SWAP1 POP SWAP2 SWAP1 POP JUMP JUMPDEST PUSH1 0x0 DUP3 DUP3 MSTORE PUSH1 0x20 DUP3 ADD SWAP1 POP SWAP3 SWAP2 POP POP JUMP JUMPDEST PUSH1 0x0 DUP3 DUP3 MSTORE PUSH1 0x20 DUP3 ADD SWAP1 POP SWAP3 SWAP2 POP POP JUMP JUMPDEST PUSH1 0x0 PUSH2 0x9AF DUP3 PUSH2 0xA38 JUMP JUMPDEST SWAP2 POP PUSH2 0x9BA DUP4 PUSH2 0xA38 JUMP JUMPDEST SWAP3 POP DUP3 PUSH32 0xFFFFFFFFFFFFFFFFFFFFFFFFFFFFFFFFFFFFFFFFFFFFFFFFFFFFFFFFFFFFFFFF SUB DUP3 GT ISZERO PUSH2 0x9EF JUMPI PUSH2 0x9EE PUSH2 0xAA7 JUMP JUMPDEST JUMPDEST DUP3 DUP3 ADD SWAP1 POP SWAP3 SWAP2 POP POP JUMP JUMPDEST PUSH1 0x0 PUSH2 0xA05 DUP3 PUSH2 0xA18 JUMP JUMPDEST SWAP1 POP SWAP2 SWAP1 POP JUMP JUMPDEST PUSH1 0x0 DUP2 ISZERO ISZERO SWAP1 POP SWAP2 SWAP1 POP JUMP JUMPDEST PUSH1 0x0 PUSH20 0xFFFFFFFFFFFFFFFFFFFFFFFFFFFFFFFFFFFFFFFF DUP3 AND SWAP1 POP SWAP2 SWAP1 POP JUMP JUMPDEST PUSH1 0x0 DUP2 SWAP1 POP SWAP2 SWAP1 POP JUMP JUMPDEST PUSH1 0x0 JUMPDEST DUP4 DUP2 LT ISZERO PUSH2 0xA60 JUMPI DUP1 DUP3 ADD MLOAD DUP2 DUP5 ADD MSTORE PUSH1 0x20 DUP2 ADD SWAP1 POP PUSH2 0xA45 JUMP JUMPDEST DUP4 DUP2 GT ISZERO PUSH2 0xA6F JUMPI PUSH1 0x0 DUP5 DUP5 ADD MSTORE JUMPDEST POP POP POP POP JUMP JUMPDEST PUSH1 0x0 PUSH1 0x2 DUP3 DIV SWAP1 POP PUSH1 0x1 DUP3 AND DUP1 PUSH2 0xA8D JUMPI PUSH1 0x7F DUP3 AND SWAP2 POP JUMPDEST PUSH1 0x20 DUP3 LT DUP2 EQ ISZERO PUSH2 0xAA1 JUMPI PUSH2 0xAA0 PUSH2 0xAD6 JUMP JUMPDEST JUMPDEST POP SWAP2 SWAP1 POP JUMP JUMPDEST PUSH32 0x4E487B7100000000000000000000000000000000000000000000000000000000 PUSH1 0x0 MSTORE PUSH1 0x11 PUSH1 0x4 MSTORE PUSH1 0x24 PUSH1 0x0 REVERT JUMPDEST PUSH32 0x4E487B7100000000000000000000000000000000000000000000000000000000 PUSH1 0x0 MSTORE PUSH1 0x22 PUSH1 0x4 MSTORE PUSH1 0x24 PUSH1 0x0 REVERT JUMPDEST PUSH32 0x4E487B7100000000000000000000000000000000000000000000000000000000 PUSH1 0x0 MSTORE PUSH1 0x32 PUSH1 0x4 MSTORE PUSH1 0x24 PUSH1 0x0 REVERT JUMPDEST PUSH1 0x0 DUP1 REVERT JUMPDEST PUSH1 0x0 PUSH1 0x1F NOT PUSH1 0x1F DUP4 ADD AND SWAP1 POP SWAP2 SWAP1 POP JUMP JUMPDEST PUSH32 0x4E6F7420746865206F776E657200000000000000000000000000000000000000 PUSH1 0x0 DUP3 ADD MSTORE POP JUMP JUMPDEST PUSH32 0x747820616C726561647920636F6E6669726D6564000000000000000000000000 PUSH1 0x0 DUP3 ADD MSTORE POP JUMP JUMPDEST PUSH32 0x747820616C726561647920657865637574656400000000000000000000000000 PUSH1 0x0 DUP3 ADD MSTORE POP JUMP JUMPDEST PUSH32 0x7472616E73616374696F6E20646F6573206E6F74206578697374000000000000 PUSH1 0x0 DUP3 ADD MSTORE POP JUMP JUMPDEST PUSH2 0xBF7 DUP2 PUSH2 0x9FA JUMP JUMPDEST DUP2 EQ PUSH2 0xC02 JUMPI PUSH1 0x0 DUP1 REVERT JUMPDEST POP JUMP JUMPDEST PUSH2 0xC0E DUP2 PUSH2 0xA38 JUMP JUMPDEST DUP2 EQ PUSH2 0xC19 JUMPI PUSH1 0x0 DUP1 REVERT JUMPDEST POP JUMP INVALID LOG2 PUSH5 0x6970667358 0x22 SLT KECCAK256 SUB CHAINID PUSH1 0xE8 NUMBER PUSH28 0x14A3BCC2B6A62D0B5B939BDBBB2E4DAEA88603770AC46CBD60CB6473 PUSH16 0x6C634300080700330000000000000000 "
				},
				"gasEstimates": {
					"creation": {
						"codeDepositCost": "630800",
						"executionCost": "infinite",
						"totalCost": "infinite"
					},
					"external": {
						"confirmTransaction(uint256)": "infinite",
						"isConfirmed(uint256,address)": "3109",
						"isOwner(address)": "2845",
						"numConfirmationsRequired()": "2517",
						"owners(uint256)": "4934",
						"transactions(uint256)": "infinite"
					}
				},
				"methodIdentifiers": {
					"confirmTransaction(uint256)": "c01a8c84",
					"isConfirmed(uint256,address)": "80f59a65",
					"isOwner(address)": "2f54bf6e",
					"numConfirmationsRequired()": "d0549b85",
					"owners(uint256)": "025e7c27",
					"transactions(uint256)": "9ace38c2"
				}
			},
			"storageLayout": {
				"storage": [
					{
						"astId": 42,
						"contract": "contracts/multisignaturewallet.sol:MutlisigWallet",
						"label": "owners",
						"offset": 0,
						"slot": "0",
						"type": "t_array(t_address)dyn_storage"
					},
					{
						"astId": 46,
						"contract": "contracts/multisignaturewallet.sol:MutlisigWallet",
						"label": "isOwner",
						"offset": 0,
						"slot": "1",
						"type": "t_mapping(t_address,t_bool)"
					},
					{
						"astId": 48,
						"contract": "contracts/multisignaturewallet.sol:MutlisigWallet",
						"label": "numConfirmationsRequired",
						"offset": 0,
						"slot": "2",
						"type": "t_uint256"
					},
					{
						"astId": 65,
						"contract": "contracts/multisignaturewallet.sol:MutlisigWallet",
						"label": "isConfirmed",
						"offset": 0,
						"slot": "3",
						"type": "t_mapping(t_uint256,t_mapping(t_address,t_bool))"
					},
					{
						"astId": 69,
						"contract": "contracts/multisignaturewallet.sol:MutlisigWallet",
						"label": "transactions",
						"offset": 0,
						"slot": "4",
						"type": "t_array(t_struct(Transaction)59_storage)dyn_storage"
					}
				],
				"types": {
					"t_address": {
						"encoding": "inplace",
						"label": "address",
						"numberOfBytes": "20"
					},
					"t_array(t_address)dyn_storage": {
						"base": "t_address",
						"encoding": "dynamic_array",
						"label": "address[]",
						"numberOfBytes": "32"
					},
					"t_array(t_struct(Transaction)59_storage)dyn_storage": {
						"base": "t_struct(Transaction)59_storage",
						"encoding": "dynamic_array",
						"label": "struct MutlisigWallet.Transaction[]",
						"numberOfBytes": "32"
					},
					"t_bool": {
						"encoding": "inplace",
						"label": "bool",
						"numberOfBytes": "1"
					},
					"t_bytes_storage": {
						"encoding": "bytes",
						"label": "bytes",
						"numberOfBytes": "32"
					},
					"t_mapping(t_address,t_bool)": {
						"encoding": "mapping",
						"key": "t_address",
						"label": "mapping(address => bool)",
						"numberOfBytes": "32",
						"value": "t_bool"
					},
					"t_mapping(t_uint256,t_mapping(t_address,t_bool))": {
						"encoding": "mapping",
						"key": "t_uint256",
						"label": "mapping(uint256 => mapping(address => bool))",
						"numberOfBytes": "32",
						"value": "t_mapping(t_address,t_bool)"
					},
					"t_struct(Transaction)59_storage": {
						"encoding": "inplace",
						"label": "struct MutlisigWallet.Transaction",
						"members": [
							{
								"astId": 50,
								"contract": "contracts/multisignaturewallet.sol:MutlisigWallet",
								"label": "to",
								"offset": 0,
								"slot": "0",
								"type": "t_address"
							},
							{
								"astId": 52,
								"contract": "contracts/multisignaturewallet.sol:MutlisigWallet",
								"label": "value",
								"offset": 0,
								"slot": "1",
								"type": "t_uint256"
							},
							{
								"astId": 54,
								"contract": "contracts/multisignaturewallet.sol:MutlisigWallet",
								"label": "data",
								"offset": 0,
								"slot": "2",
								"type": "t_bytes_storage"
							},
							{
								"astId": 56,
								"contract": "contracts/multisignaturewallet.sol:MutlisigWallet",
								"label": "executed",
								"offset": 0,
								"slot": "3",
								"type": "t_bool"
							},
							{
								"astId": 58,
								"contract": "contracts/multisignaturewallet.sol:MutlisigWallet",
								"label": "numConfirmations",
								"offset": 0,
								"slot": "4",
								"type": "t_uint256"
							}
						],
						"numberOfBytes": "160"
					},
					"t_uint256": {
						"encoding": "inplace",
						"label": "uint256",
						"numberOfBytes": "32"
					}
				}
			},
			"userdoc": {
				"kind": "user",
				"methods": {},
				"version": 1
			}
		}
	}
}