{
	"contracts/Eventlog.sol": {
		"Eventlog": {
			"abi": [
				{
					"anonymous": false,
					"inputs": [],
					"name": "Event2",
					"type": "event"
				},
				{
					"anonymous": false,
					"inputs": [
						{
							"indexed": true,
							"internalType": "address",
							"name": "sender",
							"type": "address"
						},
						{
							"indexed": false,
							"internalType": "string",
							"name": "message",
							"type": "string"
						},
						{
							"indexed": true,
							"internalType": "uint256",
							"name": "value",
							"type": "uint256"
						}
					],
					"name": "Log",
					"type": "event"
				},
				{
					"inputs": [],
					"name": "testWorkingEvents",
					"outputs": [],
					"stateMutability": "nonpayable",
					"type": "function"
				}
			],
			"devdoc": {
				"kind": "dev",
				"methods": {},
				"version": 1
			},
			"evm": {
				"assembly": "    /* \"contracts/Eventlog.sol\":56:376  contract Eventlog\r... */\n  mstore(0x40, 0x80)\n  callvalue\n  dup1\n  iszero\n  tag_1\n  jumpi\n  0x00\n  dup1\n  revert\ntag_1:\n  pop\n  dataSize(sub_0)\n  dup1\n  dataOffset(sub_0)\n  0x00\n  codecopy\n  0x00\n  return\nstop\n\nsub_0: assembly {\n        /* \"contracts/Eventlog.sol\":56:376  contract Eventlog\r... */\n      mstore(0x40, 0x80)\n      callvalue\n      dup1\n      iszero\n      tag_1\n      jumpi\n      0x00\n      dup1\n      revert\n    tag_1:\n      pop\n      jumpi(tag_2, lt(calldatasize, 0x04))\n      shr(0xe0, calldataload(0x00))\n      dup1\n      0xdd1591ca\n      eq\n      tag_3\n      jumpi\n    tag_2:\n      0x00\n      dup1\n      revert\n        /* \"contracts/Eventlog.sol\":179:373  function testWorkingEvents()public{\r... */\n    tag_3:\n      tag_4\n      tag_5\n      jump\t// in\n    tag_4:\n      stop\n    tag_5:\n        /* \"contracts/Eventlog.sol\":268:270  12 */\n      0x0c\n        /* \"contracts/Eventlog.sol\":233:243  msg.sender */\n      caller\n        /* \"contracts/Eventlog.sol\":229:271  Log(msg.sender,\"BlockChain is awesome\",12) */\n      0xffffffffffffffffffffffffffffffffffffffff\n      and\n      0xfd33e90d0eac940755277aa91045b95664988beeeafc4ed7d1281a6d83afbc00\n      mload(0x40)\n      tag_7\n      swap1\n      tag_8\n      jump\t// in\n    tag_7:\n      mload(0x40)\n      dup1\n      swap2\n      sub\n      swap1\n      log3\n        /* \"contracts/Eventlog.sol\":336:338  13 */\n      0x0d\n        /* \"contracts/Eventlog.sol\":291:301  msg.sender */\n      caller\n        /* \"contracts/Eventlog.sol\":287:339  Log(msg.sender,\"User is successfully created!!!\",13) */\n      0xffffffffffffffffffffffffffffffffffffffff\n      and\n      0xfd33e90d0eac940755277aa91045b95664988beeeafc4ed7d1281a6d83afbc00\n      mload(0x40)\n      tag_9\n      swap1\n      tag_10\n      jump\t// in\n    tag_9:\n      mload(0x40)\n      dup1\n      swap2\n      sub\n      swap1\n      log3\n        /* \"contracts/Eventlog.sol\":355:363  Event2() */\n      0xf8eb641b4da774cab432e72f24b258ec539677496d7f9ec48fcbb16fda0e4425\n      mload(0x40)\n      mload(0x40)\n      dup1\n      swap2\n      sub\n      swap1\n      log1\n        /* \"contracts/Eventlog.sol\":179:373  function testWorkingEvents()public{\r... */\n      jump\t// out\n        /* \"#utility.yul\":7:373   */\n    tag_12:\n        /* \"#utility.yul\":149:152   */\n      0x00\n        /* \"#utility.yul\":170:237   */\n      tag_14\n        /* \"#utility.yul\":234:236   */\n      0x1f\n        /* \"#utility.yul\":229:232   */\n      dup4\n        /* \"#utility.yul\":170:237   */\n      tag_15\n      jump\t// in\n    tag_14:\n        /* \"#utility.yul\":163:237   */\n      swap2\n      pop\n        /* \"#utility.yul\":246:339   */\n      tag_16\n        /* \"#utility.yul\":335:338   */\n      dup3\n        /* \"#utility.yul\":246:339   */\n      tag_17\n      jump\t// in\n    tag_16:\n        /* \"#utility.yul\":364:366   */\n      0x20\n        /* \"#utility.yul\":359:362   */\n      dup3\n        /* \"#utility.yul\":355:367   */\n      add\n        /* \"#utility.yul\":348:367   */\n      swap1\n      pop\n        /* \"#utility.yul\":7:373   */\n      swap2\n      swap1\n      pop\n      jump\t// out\n        /* \"#utility.yul\":379:745   */\n    tag_18:\n        /* \"#utility.yul\":521:524   */\n      0x00\n        /* \"#utility.yul\":542:609   */\n      tag_20\n        /* \"#utility.yul\":606:608   */\n      0x15\n        /* \"#utility.yul\":601:604   */\n      dup4\n        /* \"#utility.yul\":542:609   */\n      tag_15\n      jump\t// in\n    tag_20:\n        /* \"#utility.yul\":535:609   */\n      swap2\n      pop\n        /* \"#utility.yul\":618:711   */\n      tag_21\n        /* \"#utility.yul\":707:710   */\n      dup3\n        /* \"#utility.yul\":618:711   */\n      tag_22\n      jump\t// in\n    tag_21:\n        /* \"#utility.yul\":736:738   */\n      0x20\n        /* \"#utility.yul\":731:734   */\n      dup3\n        /* \"#utility.yul\":727:739   */\n      add\n        /* \"#utility.yul\":720:739   */\n      swap1\n      pop\n        /* \"#utility.yul\":379:745   */\n      swap2\n      swap1\n      pop\n      jump\t// out\n        /* \"#utility.yul\":751:1170   */\n    tag_10:\n        /* \"#utility.yul\":917:921   */\n      0x00\n        /* \"#utility.yul\":955:957   */\n      0x20\n        /* \"#utility.yul\":944:953   */\n      dup3\n        /* \"#utility.yul\":940:958   */\n      add\n        /* \"#utility.yul\":932:958   */\n      swap1\n      pop\n        /* \"#utility.yul\":1004:1013   */\n      dup2\n        /* \"#utility.yul\":998:1002   */\n      dup2\n        /* \"#utility.yul\":994:1014   */\n      sub\n        /* \"#utility.yul\":990:991   */\n      0x00\n        /* \"#utility.yul\":979:988   */\n      dup4\n        /* \"#utility.yul\":975:992   */\n      add\n        /* \"#utility.yul\":968:1015   */\n      mstore\n        /* \"#utility.yul\":1032:1163   */\n      tag_24\n        /* \"#utility.yul\":1158:1162   */\n      dup2\n        /* \"#utility.yul\":1032:1163   */\n      tag_12\n      jump\t// in\n    tag_24:\n        /* \"#utility.yul\":1024:1163   */\n      swap1\n      pop\n        /* \"#utility.yul\":751:1170   */\n      swap2\n      swap1\n      pop\n      jump\t// out\n        /* \"#utility.yul\":1176:1595   */\n    tag_8:\n        /* \"#utility.yul\":1342:1346   */\n      0x00\n        /* \"#utility.yul\":1380:1382   */\n      0x20\n        /* \"#utility.yul\":1369:1378   */\n      dup3\n        /* \"#utility.yul\":1365:1383   */\n      add\n        /* \"#utility.yul\":1357:1383   */\n      swap1\n      pop\n        /* \"#utility.yul\":1429:1438   */\n      dup2\n        /* \"#utility.yul\":1423:1427   */\n      dup2\n        /* \"#utility.yul\":1419:1439   */\n      sub\n        /* \"#utility.yul\":1415:1416   */\n      0x00\n        /* \"#utility.yul\":1404:1413   */\n      dup4\n        /* \"#utility.yul\":1400:1417   */\n      add\n        /* \"#utility.yul\":1393:1440   */\n      mstore\n        /* \"#utility.yul\":1457:1588   */\n      tag_26\n        /* \"#utility.yul\":1583:1587   */\n      dup2\n        /* \"#utility.yul\":1457:1588   */\n      tag_18\n      jump\t// in\n    tag_26:\n        /* \"#utility.yul\":1449:1588   */\n      swap1\n      pop\n        /* \"#utility.yul\":1176:1595   */\n      swap2\n      swap1\n      pop\n      jump\t// out\n        /* \"#utility.yul\":1601:1770   */\n    tag_15:\n        /* \"#utility.yul\":1685:1696   */\n      0x00\n        /* \"#utility.yul\":1719:1725   */\n      dup3\n        /* \"#utility.yul\":1714:1717   */\n      dup3\n        /* \"#utility.yul\":1707:1726   */\n      mstore\n        /* \"#utility.yul\":1759:1763   */\n      0x20\n        /* \"#utility.yul\":1754:1757   */\n      dup3\n        /* \"#utility.yul\":1750:1764   */\n      add\n        /* \"#utility.yul\":1735:1764   */\n      swap1\n      pop\n        /* \"#utility.yul\":1601:1770   */\n      swap3\n      swap2\n      pop\n      pop\n      jump\t// out\n        /* \"#utility.yul\":1776:1957   */\n    tag_17:\n        /* \"#utility.yul\":1916:1949   */\n      0x55736572206973207375636365737366756c6c79206372656174656421212100\n        /* \"#utility.yul\":1912:1913   */\n      0x00\n        /* \"#utility.yul\":1904:1910   */\n      dup3\n        /* \"#utility.yul\":1900:1914   */\n      add\n        /* \"#utility.yul\":1893:1950   */\n      mstore\n        /* \"#utility.yul\":1776:1957   */\n      pop\n      jump\t// out\n        /* \"#utility.yul\":1963:2134   */\n    tag_22:\n        /* \"#utility.yul\":2103:2126   */\n      0x426c6f636b436861696e20697320617765736f6d650000000000000000000000\n        /* \"#utility.yul\":2099:2100   */\n      0x00\n        /* \"#utility.yul\":2091:2097   */\n      dup3\n        /* \"#utility.yul\":2087:2101   */\n      add\n        /* \"#utility.yul\":2080:2127   */\n      mstore\n        /* \"#utility.yul\":1963:2134   */\n      pop\n      jump\t// out\n\n    auxdata: 0xa2646970667358221220b195e1af9b9a98b3615b3ddf7783b4282bf30e4049c039072165b86fb6a1bb8064736f6c63430008070033\n}\n",
				"bytecode": {
					"linkReferences": {},
					"object": "608060405234801561001057600080fd5b50610223806100206000396000f3fe608060405234801561001057600080fd5b506004361061002b5760003560e01c8063dd1591ca14610030575b600080fd5b61003861003a565b005b600c3373ffffffffffffffffffffffffffffffffffffffff167ffd33e90d0eac940755277aa91045b95664988beeeafc4ed7d1281a6d83afbc006040516100809061016a565b60405180910390a3600d3373ffffffffffffffffffffffffffffffffffffffff167ffd33e90d0eac940755277aa91045b95664988beeeafc4ed7d1281a6d83afbc006040516100ce9061014a565b60405180910390a37ff8eb641b4da774cab432e72f24b258ec539677496d7f9ec48fcbb16fda0e442560405160405180910390a1565b6000610111601f8361018a565b915061011c8261019b565b602082019050919050565b600061013460158361018a565b915061013f826101c4565b602082019050919050565b6000602082019050818103600083015261016381610104565b9050919050565b6000602082019050818103600083015261018381610127565b9050919050565b600082825260208201905092915050565b7f55736572206973207375636365737366756c6c79206372656174656421212100600082015250565b7f426c6f636b436861696e20697320617765736f6d65000000000000000000000060008201525056fea2646970667358221220b195e1af9b9a98b3615b3ddf7783b4282bf30e4049c039072165b86fb6a1bb8064736f6c63430008070033",
					"opcodes": "PUSH1 0x80 PUSH1 0x40 MSTORE CALLVALUE DUP1 ISZERO PUSH2 0x10 JUMPI PUSH1 0x0 DUP1 REVERT JUMPDEST POP PUSH2 0x223 DUP1 PUSH2 0x20 PUSH1 0x0 CODECOPY PUSH1 0x0 RETURN INVALID PUSH1 0x80 PUSH1 0x40 MSTORE CALLVALUE DUP1 ISZERO PUSH2 0x10 JUMPI PUSH1 0x0 DUP1 REVERT JUMPDEST POP PUSH1 0x4 CALLDATASIZE LT PUSH2 0x2B JUMPI PUSH1 0x0 CALLDATALOAD PUSH1 0xE0 SHR DUP1 PUSH4 0xDD1591CA EQ PUSH2 0x30 JUMPI JUMPDEST PUSH1 0x0 DUP1 REVERT JUMPDEST PUSH2 0x38 PUSH2 0x3A JUMP JUMPDEST STOP JUMPDEST PUSH1 0xC CALLER PUSH20 0xFFFFFFFFFFFFFFFFFFFFFFFFFFFFFFFFFFFFFFFF AND PUSH32 0xFD33E90D0EAC940755277AA91045B95664988BEEEAFC4ED7D1281A6D83AFBC00 PUSH1 0x40 MLOAD PUSH2 0x80 SWAP1 PUSH2 0x16A JUMP JUMPDEST PUSH1 0x40 MLOAD DUP1 SWAP2 SUB SWAP1 LOG3 PUSH1 0xD CALLER PUSH20 0xFFFFFFFFFFFFFFFFFFFFFFFFFFFFFFFFFFFFFFFF AND PUSH32 0xFD33E90D0EAC940755277AA91045B95664988BEEEAFC4ED7D1281A6D83AFBC00 PUSH1 0x40 MLOAD PUSH2 0xCE SWAP1 PUSH2 0x14A JUMP JUMPDEST PUSH1 0x40 MLOAD DUP1 SWAP2 SUB SWAP1 LOG3 PUSH32 0xF8EB641B4DA774CAB432E72F24B258EC539677496D7F9EC48FCBB16FDA0E4425 PUSH1 0x40 MLOAD PUSH1 0x40 MLOAD DUP1 SWAP2 SUB SWAP1 LOG1 JUMP JUMPDEST PUSH1 0x0 PUSH2 0x111 PUSH1 0x1F DUP4 PUSH2 0x18A JUMP JUMPDEST SWAP2 POP PUSH2 0x11C DUP3 PUSH2 0x19B JUMP JUMPDEST PUSH1 0x20 DUP3 ADD SWAP1 POP SWAP2 SWAP1 POP JUMP JUMPDEST PUSH1 0x0 PUSH2 0x134 PUSH1 0x15 DUP4 PUSH2 0x18A JUMP JUMPDEST SWAP2 POP PUSH2 0x13F DUP3 PUSH2 0x1C4 JUMP JUMPDEST PUSH1 0x20 DUP3 ADD SWAP1 POP SWAP2 SWAP1 POP JUMP JUMPDEST PUSH1 0x0 PUSH1 0x20 DUP3 ADD SWAP1 POP DUP2 DUP2 SUB PUSH1 0x0 DUP4 ADD MSTORE PUSH2 0x163 DUP2 PUSH2 0x104 JUMP JUMPDEST SWAP1 POP SWAP2 SWAP1 POP JUMP JUMPDEST PUSH1 0x0 PUSH1 0x20 DUP3 ADD SWAP1 POP DUP2 DUP2 SUB PUSH1 0x0 DUP4 ADD MSTORE PUSH2 0x183 DUP2 PUSH2 0x127 JUMP JUMPDEST SWAP1 POP SWAP2 SWAP1 POP JUMP JUMPDEST PUSH1 0x0 DUP3 DUP3 MSTORE PUSH1 0x20 DUP3 ADD SWAP1 POP SWAP3 SWAP2 POP POP JUMP JUMPDEST PUSH32 0x55736572206973207375636365737366756C6C79206372656174656421212100 PUSH1 0x0 DUP3 ADD MSTORE POP JUMP JUMPDEST PUSH32 0x426C6F636B436861696E20697320617765736F6D650000000000000000000000 PUSH1 0x0 DUP3 ADD MSTORE POP JUMP INVALID LOG2 PUSH5 0x6970667358 0x22 SLT KECCAK256 0xB1 SWAP6 0xE1 0xAF SWAP12 SWAP11 SWAP9 0xB3 PUSH2 0x5B3D 0xDF PUSH24 0x83B4282BF30E4049C039072165B86FB6A1BB8064736F6C63 NUMBER STOP ADDMOD SMOD STOP CALLER "
				},
				"gasEstimates": {
					"creation": {
						"codeDepositCost": "109400",
						"executionCost": "159",
						"totalCost": "109559"
					},
					"external": {
						"testWorkingEvents()": "infinite"
					}
				},
				"methodIdentifiers": {
					"testWorkingEvents()": "dd1591ca"
				}
			},
			"storageLayout": {
				"storage": [],
				"types": null
			},
			"userdoc": {
				"kind": "user",
				"methods": {},
				"version": 1
			}
		}
	}
}