{
	"contracts/Etherunits.sol": {
		"Etherunits": {
			"abi": [
				{
					"inputs": [],
					"name": "isOneEther",
					"outputs": [
						{
							"internalType": "bool",
							"name": "",
							"type": "bool"
						}
					],
					"stateMutability": "view",
					"type": "function"
				},
				{
					"inputs": [],
					"name": "isOneWei",
					"outputs": [
						{
							"internalType": "bool",
							"name": "",
							"type": "bool"
						}
					],
					"stateMutability": "view",
					"type": "function"
				},
				{
					"inputs": [],
					"name": "isOneWeicheck",
					"outputs": [
						{
							"internalType": "bool",
							"name": "",
							"type": "bool"
						}
					],
					"stateMutability": "view",
					"type": "function"
				},
				{
					"inputs": [],
					"name": "oneEther",
					"outputs": [
						{
							"internalType": "uint256",
							"name": "",
							"type": "uint256"
						}
					],
					"stateMutability": "view",
					"type": "function"
				},
				{
					"inputs": [],
					"name": "oneWei",
					"outputs": [
						{
							"internalType": "uint256",
							"name": "",
							"type": "uint256"
						}
					],
					"stateMutability": "view",
					"type": "function"
				}
			],
			"devdoc": {
				"kind": "dev",
				"methods": {},
				"version": 1
			},
			"evm": {
				"assembly": "    /* \"contracts/Etherunits.sol\":59:304  contract Etherunits\r... */\n  mstore(0x40, 0x80)\n    /* \"contracts/Etherunits.sol\":108:113  1 wei */\n  0x01\n    /* \"contracts/Etherunits.sol\":87:113  uint public oneWei = 1 wei */\n  0x00\n  sstore\n    /* \"contracts/Etherunits.sol\":150:151  2 */\n  0x02\n    /* \"contracts/Etherunits.sol\":143:148  1 wei */\n  0x01\n    /* \"contracts/Etherunits.sol\":143:151  1 wei==2 */\n  eq\n    /* \"contracts/Etherunits.sol\":120:151  bool public isOneWei = 1 wei==2 */\n  0x01\n  exp(0x0100, 0x00)\n  dup2\n  sload\n  dup2\n  0xff\n  mul\n  not\n  and\n  swap1\n  dup4\n  iszero\n  iszero\n  mul\n  or\n  swap1\n  sstore\n  pop\n    /* \"contracts/Etherunits.sol\":183:190  1 ether */\n  0x0de0b6b3a7640000\n    /* \"contracts/Etherunits.sol\":160:190  uint public oneEther = 1 ether */\n  0x02\n  sstore\n    /* \"contracts/Etherunits.sol\":231:250  1000000000000000000 */\n  0x0de0b6b3a7640000\n    /* \"contracts/Etherunits.sol\":222:229  1 ether */\n  dup1\n    /* \"contracts/Etherunits.sol\":222:250  1 ether==1000000000000000000 */\n  eq\n    /* \"contracts/Etherunits.sol\":197:250  bool public isOneEther = 1 ether==1000000000000000000 */\n  0x03\n  exp(0x0100, 0x00)\n  dup2\n  sload\n  dup2\n  0xff\n  mul\n  not\n  and\n  swap1\n  dup4\n  iszero\n  iszero\n  mul\n  or\n  swap1\n  sstore\n  pop\n    /* \"contracts/Etherunits.sol\":294:300  oneWei */\n  sload(0x00)\n    /* \"contracts/Etherunits.sol\":287:292  1 wei */\n  0x01\n    /* \"contracts/Etherunits.sol\":287:300  1 wei==oneWei */\n  eq\n    /* \"contracts/Etherunits.sol\":259:300  bool public isOneWeicheck = 1 wei==oneWei */\n  0x03\n  exp(0x0100, 0x01)\n  dup2\n  sload\n  dup2\n  0xff\n  mul\n  not\n  and\n  swap1\n  dup4\n  iszero\n  iszero\n  mul\n  or\n  swap1\n  sstore\n  pop\n    /* \"contracts/Etherunits.sol\":59:304  contract Etherunits\r... */\n  callvalue\n  dup1\n  iszero\n  tag_1\n  jumpi\n  0x00\n  dup1\n  revert\ntag_1:\n  pop\n  dataSize(sub_0)\n  dup1\n  dataOffset(sub_0)\n  0x00\n  codecopy\n  0x00\n  return\nstop\n\nsub_0: assembly {\n        /* \"contracts/Etherunits.sol\":59:304  contract Etherunits\r... */\n      mstore(0x40, 0x80)\n      callvalue\n      dup1\n      iszero\n      tag_1\n      jumpi\n      0x00\n      dup1\n      revert\n    tag_1:\n      pop\n      jumpi(tag_2, lt(calldatasize, 0x04))\n      shr(0xe0, calldataload(0x00))\n      dup1\n      0x28dc556f\n      eq\n      tag_3\n      jumpi\n      dup1\n      0x4fb2e0be\n      eq\n      tag_4\n      jumpi\n      dup1\n      0xcf0f5d29\n      eq\n      tag_5\n      jumpi\n      dup1\n      0xd297a89f\n      eq\n      tag_6\n      jumpi\n      dup1\n      0xeba275e6\n      eq\n      tag_7\n      jumpi\n    tag_2:\n      0x00\n      dup1\n      revert\n        /* \"contracts/Etherunits.sol\":120:151  bool public isOneWei = 1 wei==2 */\n    tag_3:\n      tag_8\n      tag_9\n      jump\t// in\n    tag_8:\n      mload(0x40)\n      tag_10\n      swap2\n      swap1\n      tag_11\n      jump\t// in\n    tag_10:\n      mload(0x40)\n      dup1\n      swap2\n      sub\n      swap1\n      return\n        /* \"contracts/Etherunits.sol\":87:113  uint public oneWei = 1 wei */\n    tag_4:\n      tag_12\n      tag_13\n      jump\t// in\n    tag_12:\n      mload(0x40)\n      tag_14\n      swap2\n      swap1\n      tag_15\n      jump\t// in\n    tag_14:\n      mload(0x40)\n      dup1\n      swap2\n      sub\n      swap1\n      return\n        /* \"contracts/Etherunits.sol\":197:250  bool public isOneEther = 1 ether==1000000000000000000 */\n    tag_5:\n      tag_16\n      tag_17\n      jump\t// in\n    tag_16:\n      mload(0x40)\n      tag_18\n      swap2\n      swap1\n      tag_11\n      jump\t// in\n    tag_18:\n      mload(0x40)\n      dup1\n      swap2\n      sub\n      swap1\n      return\n        /* \"contracts/Etherunits.sol\":160:190  uint public oneEther = 1 ether */\n    tag_6:\n      tag_19\n      tag_20\n      jump\t// in\n    tag_19:\n      mload(0x40)\n      tag_21\n      swap2\n      swap1\n      tag_15\n      jump\t// in\n    tag_21:\n      mload(0x40)\n      dup1\n      swap2\n      sub\n      swap1\n      return\n        /* \"contracts/Etherunits.sol\":259:300  bool public isOneWeicheck = 1 wei==oneWei */\n    tag_7:\n      tag_22\n      tag_23\n      jump\t// in\n    tag_22:\n      mload(0x40)\n      tag_24\n      swap2\n      swap1\n      tag_11\n      jump\t// in\n    tag_24:\n      mload(0x40)\n      dup1\n      swap2\n      sub\n      swap1\n      return\n        /* \"contracts/Etherunits.sol\":120:151  bool public isOneWei = 1 wei==2 */\n    tag_9:\n      0x01\n      0x00\n      swap1\n      sload\n      swap1\n      0x0100\n      exp\n      swap1\n      div\n      0xff\n      and\n      dup2\n      jump\t// out\n        /* \"contracts/Etherunits.sol\":87:113  uint public oneWei = 1 wei */\n    tag_13:\n      sload(0x00)\n      dup2\n      jump\t// out\n        /* \"contracts/Etherunits.sol\":197:250  bool public isOneEther = 1 ether==1000000000000000000 */\n    tag_17:\n      0x03\n      0x00\n      swap1\n      sload\n      swap1\n      0x0100\n      exp\n      swap1\n      div\n      0xff\n      and\n      dup2\n      jump\t// out\n        /* \"contracts/Etherunits.sol\":160:190  uint public oneEther = 1 ether */\n    tag_20:\n      sload(0x02)\n      dup2\n      jump\t// out\n        /* \"contracts/Etherunits.sol\":259:300  bool public isOneWeicheck = 1 wei==oneWei */\n    tag_23:\n      0x03\n      0x01\n      swap1\n      sload\n      swap1\n      0x0100\n      exp\n      swap1\n      div\n      0xff\n      and\n      dup2\n      jump\t// out\n        /* \"#utility.yul\":7:116   */\n    tag_26:\n        /* \"#utility.yul\":88:109   */\n      tag_28\n        /* \"#utility.yul\":103:108   */\n      dup2\n        /* \"#utility.yul\":88:109   */\n      tag_29\n      jump\t// in\n    tag_28:\n        /* \"#utility.yul\":83:86   */\n      dup3\n        /* \"#utility.yul\":76:110   */\n      mstore\n        /* \"#utility.yul\":66:116   */\n      pop\n      pop\n      jump\t// out\n        /* \"#utility.yul\":122:240   */\n    tag_30:\n        /* \"#utility.yul\":209:233   */\n      tag_32\n        /* \"#utility.yul\":227:232   */\n      dup2\n        /* \"#utility.yul\":209:233   */\n      tag_33\n      jump\t// in\n    tag_32:\n        /* \"#utility.yul\":204:207   */\n      dup3\n        /* \"#utility.yul\":197:234   */\n      mstore\n        /* \"#utility.yul\":187:240   */\n      pop\n      pop\n      jump\t// out\n        /* \"#utility.yul\":246:456   */\n    tag_11:\n        /* \"#utility.yul\":333:337   */\n      0x00\n        /* \"#utility.yul\":371:373   */\n      0x20\n        /* \"#utility.yul\":360:369   */\n      dup3\n        /* \"#utility.yul\":356:374   */\n      add\n        /* \"#utility.yul\":348:374   */\n      swap1\n      pop\n        /* \"#utility.yul\":384:449   */\n      tag_35\n        /* \"#utility.yul\":446:447   */\n      0x00\n        /* \"#utility.yul\":435:444   */\n      dup4\n        /* \"#utility.yul\":431:448   */\n      add\n        /* \"#utility.yul\":422:428   */\n      dup5\n        /* \"#utility.yul\":384:449   */\n      tag_26\n      jump\t// in\n    tag_35:\n        /* \"#utility.yul\":338:456   */\n      swap3\n      swap2\n      pop\n      pop\n      jump\t// out\n        /* \"#utility.yul\":462:684   */\n    tag_15:\n        /* \"#utility.yul\":555:559   */\n      0x00\n        /* \"#utility.yul\":593:595   */\n      0x20\n        /* \"#utility.yul\":582:591   */\n      dup3\n        /* \"#utility.yul\":578:596   */\n      add\n        /* \"#utility.yul\":570:596   */\n      swap1\n      pop\n        /* \"#utility.yul\":606:677   */\n      tag_37\n        /* \"#utility.yul\":674:675   */\n      0x00\n        /* \"#utility.yul\":663:672   */\n      dup4\n        /* \"#utility.yul\":659:676   */\n      add\n        /* \"#utility.yul\":650:656   */\n      dup5\n        /* \"#utility.yul\":606:677   */\n      tag_30\n      jump\t// in\n    tag_37:\n        /* \"#utility.yul\":560:684   */\n      swap3\n      swap2\n      pop\n      pop\n      jump\t// out\n        /* \"#utility.yul\":690:780   */\n    tag_29:\n        /* \"#utility.yul\":724:731   */\n      0x00\n        /* \"#utility.yul\":767:772   */\n      dup2\n        /* \"#utility.yul\":760:773   */\n      iszero\n        /* \"#utility.yul\":753:774   */\n      iszero\n        /* \"#utility.yul\":742:774   */\n      swap1\n      pop\n        /* \"#utility.yul\":732:780   */\n      swap2\n      swap1\n      pop\n      jump\t// out\n        /* \"#utility.yul\":786:863   */\n    tag_33:\n        /* \"#utility.yul\":823:830   */\n      0x00\n        /* \"#utility.yul\":852:857   */\n      dup2\n        /* \"#utility.yul\":841:857   */\n      swap1\n      pop\n        /* \"#utility.yul\":831:863   */\n      swap2\n      swap1\n      pop\n      jump\t// out\n\n    auxdata: 0xa26469706673582212200a5f361cf1eeee8b633b69fae82785bb74ae609a2edfb49bd622a956833b994264736f6c63430008060033\n}\n",
				"bytecode": {
					"linkReferences": {},
					"object": "608060405260016000556002600114600160006101000a81548160ff021916908315150217905550670de0b6b3a7640000600255670de0b6b3a76400008014600360006101000a81548160ff021916908315150217905550600054600114600360016101000a81548160ff02191690831515021790555034801561008257600080fd5b506101d7806100926000396000f3fe608060405234801561001057600080fd5b50600436106100575760003560e01c806328dc556f1461005c5780634fb2e0be1461007a578063cf0f5d2914610098578063d297a89f146100b6578063eba275e6146100d4575b600080fd5b6100646100f2565b6040516100719190610155565b60405180910390f35b610082610105565b60405161008f9190610170565b60405180910390f35b6100a061010b565b6040516100ad9190610155565b60405180910390f35b6100be61011e565b6040516100cb9190610170565b60405180910390f35b6100dc610124565b6040516100e99190610155565b60405180910390f35b600160009054906101000a900460ff1681565b60005481565b600360009054906101000a900460ff1681565b60025481565b600360019054906101000a900460ff1681565b6101408161018b565b82525050565b61014f81610197565b82525050565b600060208201905061016a6000830184610137565b92915050565b60006020820190506101856000830184610146565b92915050565b60008115159050919050565b600081905091905056fea26469706673582212200a5f361cf1eeee8b633b69fae82785bb74ae609a2edfb49bd622a956833b994264736f6c63430008060033",
					"opcodes": "PUSH1 0x80 PUSH1 0x40 MSTORE PUSH1 0x1 PUSH1 0x0 SSTORE PUSH1 0x2 PUSH1 0x1 EQ PUSH1 0x1 PUSH1 0x0 PUSH2 0x100 EXP DUP2 SLOAD DUP2 PUSH1 0xFF MUL NOT AND SWAP1 DUP4 ISZERO ISZERO MUL OR SWAP1 SSTORE POP PUSH8 0xDE0B6B3A7640000 PUSH1 0x2 SSTORE PUSH8 0xDE0B6B3A7640000 DUP1 EQ PUSH1 0x3 PUSH1 0x0 PUSH2 0x100 EXP DUP2 SLOAD DUP2 PUSH1 0xFF MUL NOT AND SWAP1 DUP4 ISZERO ISZERO MUL OR SWAP1 SSTORE POP PUSH1 0x0 SLOAD PUSH1 0x1 EQ PUSH1 0x3 PUSH1 0x1 PUSH2 0x100 EXP DUP2 SLOAD DUP2 PUSH1 0xFF MUL NOT AND SWAP1 DUP4 ISZERO ISZERO MUL OR SWAP1 SSTORE POP CALLVALUE DUP1 ISZERO PUSH2 0x82 JUMPI PUSH1 0x0 DUP1 REVERT JUMPDEST POP PUSH2 0x1D7 DUP1 PUSH2 0x92 PUSH1 0x0 CODECOPY PUSH1 0x0 RETURN INVALID PUSH1 0x80 PUSH1 0x40 MSTORE CALLVALUE DUP1 ISZERO PUSH2 0x10 JUMPI PUSH1 0x0 DUP1 REVERT JUMPDEST POP PUSH1 0x4 CALLDATASIZE LT PUSH2 0x57 JUMPI PUSH1 0x0 CALLDATALOAD PUSH1 0xE0 SHR DUP1 PUSH4 0x28DC556F EQ PUSH2 0x5C JUMPI DUP1 PUSH4 0x4FB2E0BE EQ PUSH2 0x7A JUMPI DUP1 PUSH4 0xCF0F5D29 EQ PUSH2 0x98 JUMPI DUP1 PUSH4 0xD297A89F EQ PUSH2 0xB6 JUMPI DUP1 PUSH4 0xEBA275E6 EQ PUSH2 0xD4 JUMPI JUMPDEST PUSH1 0x0 DUP1 REVERT JUMPDEST PUSH2 0x64 PUSH2 0xF2 JUMP JUMPDEST PUSH1 0x40 MLOAD PUSH2 0x71 SWAP2 SWAP1 PUSH2 0x155 JUMP JUMPDEST PUSH1 0x40 MLOAD DUP1 SWAP2 SUB SWAP1 RETURN JUMPDEST PUSH2 0x82 PUSH2 0x105 JUMP JUMPDEST PUSH1 0x40 MLOAD PUSH2 0x8F SWAP2 SWAP1 PUSH2 0x170 JUMP JUMPDEST PUSH1 0x40 MLOAD DUP1 SWAP2 SUB SWAP1 RETURN JUMPDEST PUSH2 0xA0 PUSH2 0x10B JUMP JUMPDEST PUSH1 0x40 MLOAD PUSH2 0xAD SWAP2 SWAP1 PUSH2 0x155 JUMP JUMPDEST PUSH1 0x40 MLOAD DUP1 SWAP2 SUB SWAP1 RETURN JUMPDEST PUSH2 0xBE PUSH2 0x11E JUMP JUMPDEST PUSH1 0x40 MLOAD PUSH2 0xCB SWAP2 SWAP1 PUSH2 0x170 JUMP JUMPDEST PUSH1 0x40 MLOAD DUP1 SWAP2 SUB SWAP1 RETURN JUMPDEST PUSH2 0xDC PUSH2 0x124 JUMP JUMPDEST PUSH1 0x40 MLOAD PUSH2 0xE9 SWAP2 SWAP1 PUSH2 0x155 JUMP JUMPDEST PUSH1 0x40 MLOAD DUP1 SWAP2 SUB SWAP1 RETURN JUMPDEST PUSH1 0x1 PUSH1 0x0 SWAP1 SLOAD SWAP1 PUSH2 0x100 EXP SWAP1 DIV PUSH1 0xFF AND DUP2 JUMP JUMPDEST PUSH1 0x0 SLOAD DUP2 JUMP JUMPDEST PUSH1 0x3 PUSH1 0x0 SWAP1 SLOAD SWAP1 PUSH2 0x100 EXP SWAP1 DIV PUSH1 0xFF AND DUP2 JUMP JUMPDEST PUSH1 0x2 SLOAD DUP2 JUMP JUMPDEST PUSH1 0x3 PUSH1 0x1 SWAP1 SLOAD SWAP1 PUSH2 0x100 EXP SWAP1 DIV PUSH1 0xFF AND DUP2 JUMP JUMPDEST PUSH2 0x140 DUP2 PUSH2 0x18B JUMP JUMPDEST DUP3 MSTORE POP POP JUMP JUMPDEST PUSH2 0x14F DUP2 PUSH2 0x197 JUMP JUMPDEST DUP3 MSTORE POP POP JUMP JUMPDEST PUSH1 0x0 PUSH1 0x20 DUP3 ADD SWAP1 POP PUSH2 0x16A PUSH1 0x0 DUP4 ADD DUP5 PUSH2 0x137 JUMP JUMPDEST SWAP3 SWAP2 POP POP JUMP JUMPDEST PUSH1 0x0 PUSH1 0x20 DUP3 ADD SWAP1 POP PUSH2 0x185 PUSH1 0x0 DUP4 ADD DUP5 PUSH2 0x146 JUMP JUMPDEST SWAP3 SWAP2 POP POP JUMP JUMPDEST PUSH1 0x0 DUP2 ISZERO ISZERO SWAP1 POP SWAP2 SWAP1 POP JUMP JUMPDEST PUSH1 0x0 DUP2 SWAP1 POP SWAP2 SWAP1 POP JUMP INVALID LOG2 PUSH5 0x6970667358 0x22 SLT KECCAK256 EXP 0x5F CALLDATASIZE SHR CALL 0xEE 0xEE DUP12 PUSH4 0x3B69FAE8 0x27 DUP6 0xBB PUSH21 0xAE609A2EDFB49BD622A956833B994264736F6C6343 STOP ADDMOD MOD STOP CALLER "
				},
				"gasEstimates": {
					"creation": {
						"codeDepositCost": "94200",
						"executionCost": "119322",
						"totalCost": "213522"
					},
					"external": {
						"isOneEther()": "2493",
						"isOneWei()": "2449",
						"isOneWeicheck()": "2587",
						"oneEther()": "2473",
						"oneWei()": "2429"
					}
				},
				"methodIdentifiers": {
					"isOneEther()": "cf0f5d29",
					"isOneWei()": "28dc556f",
					"isOneWeicheck()": "eba275e6",
					"oneEther()": "d297a89f",
					"oneWei()": "4fb2e0be"
				}
			},
			"storageLayout": {
				"storage": [
					{
						"astId": 4,
						"contract": "contracts/Etherunits.sol:Etherunits",
						"label": "oneWei",
						"offset": 0,
						"slot": "0",
						"type": "t_uint256"
					},
					{
						"astId": 9,
						"contract": "contracts/Etherunits.sol:Etherunits",
						"label": "isOneWei",
						"offset": 0,
						"slot": "1",
						"type": "t_bool"
					},
					{
						"astId": 12,
						"contract": "contracts/Etherunits.sol:Etherunits",
						"label": "oneEther",
						"offset": 0,
						"slot": "2",
						"type": "t_uint256"
					},
					{
						"astId": 17,
						"contract": "contracts/Etherunits.sol:Etherunits",
						"label": "isOneEther",
						"offset": 0,
						"slot": "3",
						"type": "t_bool"
					},
					{
						"astId": 22,
						"contract": "contracts/Etherunits.sol:Etherunits",
						"label": "isOneWeicheck",
						"offset": 1,
						"slot": "3",
						"type": "t_bool"
					}
				],
				"types": {
					"t_bool": {
						"encoding": "inplace",
						"label": "bool",
						"numberOfBytes": "1"
					},
					"t_uint256": {
						"encoding": "inplace",
						"label": "uint256",
						"numberOfBytes": "32"
					}
				}
			},
			"userdoc": {
				"kind": "user",
				"methods": {},
				"version": 1
			}
		}
	}
}