{
	"contracts/Token.sol": {
		"Token": {
			"abi": [
				{
					"inputs": [],
					"stateMutability": "nonpayable",
					"type": "constructor"
				},
				{
					"inputs": [
						{
							"internalType": "address",
							"name": "acc",
							"type": "address"
						}
					],
					"name": "getBalance",
					"outputs": [
						{
							"internalType": "uint256",
							"name": "",
							"type": "uint256"
						}
					],
					"stateMutability": "view",
					"type": "function"
				},
				{
					"inputs": [],
					"name": "name",
					"outputs": [
						{
							"internalType": "string",
							"name": "",
							"type": "string"
						}
					],
					"stateMutability": "view",
					"type": "function"
				},
				{
					"inputs": [],
					"name": "owner",
					"outputs": [
						{
							"internalType": "address",
							"name": "",
							"type": "address"
						}
					],
					"stateMutability": "view",
					"type": "function"
				},
				{
					"inputs": [],
					"name": "symbol",
					"outputs": [
						{
							"internalType": "string",
							"name": "",
							"type": "string"
						}
					],
					"stateMutability": "view",
					"type": "function"
				},
				{
					"inputs": [],
					"name": "totalSupply",
					"outputs": [
						{
							"internalType": "uint256",
							"name": "",
							"type": "uint256"
						}
					],
					"stateMutability": "view",
					"type": "function"
				},
				{
					"inputs": [
						{
							"internalType": "address",
							"name": "to",
							"type": "address"
						},
						{
							"internalType": "uint256",
							"name": "amt",
							"type": "uint256"
						}
					],
					"name": "transfer",
					"outputs": [],
					"stateMutability": "nonpayable",
					"type": "function"
				}
			],
			"devdoc": {
				"kind": "dev",
				"methods": {},
				"version": 1
			},
			"evm": {
				"assembly": "    /* \"contracts/Token.sol\":79:110  string public name=\"BlockToken\" */\n  0xc0\n    /* \"contracts/Token.sol\":58:580  contract Token{\r... */\n  0x40\n    /* \"contracts/Token.sol\":79:110  string public name=\"BlockToken\" */\n  mstore\n  0x0a\n    /* \"contracts/Token.sol\":58:580  contract Token{\r... */\n  0x80\n    /* \"contracts/Token.sol\":79:110  string public name=\"BlockToken\" */\n  dup2\n  swap1\n  mstore\n  shl(0xb1, 0x213637b1b5aa37b5b2b7)\n  0xa0\n  swap1\n  dup2\n  mstore\n  tag_1\n  swap2\n  0x00\n  swap2\n  swap1\n  tag_2\n  jump\t// in\ntag_1:\n  pop\n    /* \"contracts/Token.sol\":117:142  string public symbol=\"BT\" */\n  0x40\n  dup1\n  mload\n  dup1\n  dup3\n  add\n  swap1\n  swap2\n  mstore\n  0x02\n  dup1\n  dup3\n  mstore\n  shl(0xf2, 0x1095)\n  0x20\n  swap1\n  swap3\n  add\n  swap2\n  dup3\n  mstore\n  tag_3\n  swap2\n  0x01\n  swap2\n  tag_2\n  jump\t// in\ntag_3:\n  pop\n    /* \"contracts/Token.sol\":173:177  1000 */\n  0x03e8\n    /* \"contracts/Token.sol\":149:177  uint public totalSupply=1000 */\n  0x02\n  sstore\n    /* \"contracts/Token.sol\":251:332  constructor(){\r... */\n  callvalue\n  dup1\n  iszero\n  tag_4\n  jumpi\n  0x00\n  dup1\n  revert\ntag_4:\n  pop\n    /* \"contracts/Token.sol\":275:280  owner */\n  0x03\n    /* \"contracts/Token.sol\":275:291  owner=msg.sender */\n  dup1\n  sload\n  not(sub(shl(0xa0, 0x01), 0x01))\n  and\n    /* \"contracts/Token.sol\":281:291  msg.sender */\n  caller\n    /* \"contracts/Token.sol\":275:291  owner=msg.sender */\n  swap1\n  dup2\n  or\n  swap1\n  swap2\n  sstore\n    /* \"contracts/Token.sol\":275:280  owner */\n  0x00\n    /* \"contracts/Token.sol\":302:317  balances[owner] */\n  swap1\n  dup2\n  mstore\n    /* \"contracts/Token.sol\":302:310  balances */\n  0x04\n    /* \"contracts/Token.sol\":302:317  balances[owner] */\n  0x20\n  mstore\n  0x40\n  swap1\n  keccak256\n    /* \"contracts/Token.sol\":320:324  1000 */\n  0x03e8\n    /* \"contracts/Token.sol\":302:324  balances[owner] = 1000 */\n  swap1\n  sstore\n    /* \"contracts/Token.sol\":58:580  contract Token{\r... */\n  jump(tag_19)\ntag_2:\n  dup3\n  dup1\n  sload\n  tag_8\n  swap1\n  tag_9\n  jump\t// in\ntag_8:\n  swap1\n  0x00\n  mstore\n  keccak256(0x00, 0x20)\n  swap1\n  0x1f\n  add\n  0x20\n  swap1\n  div\n  dup2\n  add\n  swap3\n  dup3\n  tag_11\n  jumpi\n  0x00\n  dup6\n  sstore\n  jump(tag_14)\ntag_11:\n  dup3\n  0x1f\n  lt\n  tag_12\n  jumpi\n  dup1\n  mload\n  not(0xff)\n  and\n  dup4\n  dup1\n  add\n  or\n  dup6\n  sstore\n  jump(tag_14)\ntag_12:\n  dup3\n  dup1\n  add\n  0x01\n  add\n  dup6\n  sstore\n  dup3\n  iszero\n  tag_14\n  jumpi\n  swap2\n  dup3\n  add\ntag_13:\n  dup3\n  dup2\n  gt\n  iszero\n  tag_14\n  jumpi\n  dup3\n  mload\n  dup3\n  sstore\n  swap2\n  0x20\n  add\n  swap2\n  swap1\n  0x01\n  add\n  swap1\n  jump(tag_13)\ntag_14:\n  pop\n  tag_15\n  swap3\n  swap2\n  pop\n  tag_16\n  jump\t// in\ntag_15:\n  pop\n  swap1\n  jump\t// out\ntag_16:\ntag_17:\n  dup1\n  dup3\n  gt\n  iszero\n  tag_15\n  jumpi\n  0x00\n  dup2\n  sstore\n  0x01\n  add\n  jump(tag_17)\n    /* \"#utility.yul\":14:394   */\ntag_9:\n    /* \"#utility.yul\":93:94   */\n  0x01\n    /* \"#utility.yul\":89:101   */\n  dup2\n  dup2\n  shr\n  swap1\n    /* \"#utility.yul\":136:148   */\n  dup3\n  and\n  dup1\n    /* \"#utility.yul\":157:218   */\n  tag_21\n  jumpi\n    /* \"#utility.yul\":211:215   */\n  0x7f\n    /* \"#utility.yul\":203:209   */\n  dup3\n    /* \"#utility.yul\":199:216   */\n  and\n    /* \"#utility.yul\":189:216   */\n  swap2\n  pop\n    /* \"#utility.yul\":157:218   */\ntag_21:\n    /* \"#utility.yul\":264:266   */\n  0x20\n    /* \"#utility.yul\":256:262   */\n  dup3\n    /* \"#utility.yul\":253:267   */\n  lt\n    /* \"#utility.yul\":233:251   */\n  dup2\n    /* \"#utility.yul\":230:268   */\n  eq\n    /* \"#utility.yul\":227:388   */\n  iszero\n  tag_22\n  jumpi\n    /* \"#utility.yul\":310:320   */\n  0x4e487b71\n    /* \"#utility.yul\":305:308   */\n  0xe0\n    /* \"#utility.yul\":301:321   */\n  shl\n    /* \"#utility.yul\":298:299   */\n  0x00\n    /* \"#utility.yul\":291:322   */\n  mstore\n    /* \"#utility.yul\":345:349   */\n  0x22\n    /* \"#utility.yul\":342:343   */\n  0x04\n    /* \"#utility.yul\":335:350   */\n  mstore\n    /* \"#utility.yul\":373:377   */\n  0x24\n    /* \"#utility.yul\":370:371   */\n  0x00\n    /* \"#utility.yul\":363:378   */\n  revert\n    /* \"#utility.yul\":227:388   */\ntag_22:\n  pop\n    /* \"#utility.yul\":14:394   */\n  swap2\n  swap1\n  pop\n  jump\t// out\ntag_19:\n    /* \"contracts/Token.sol\":58:580  contract Token{\r... */\n  dataSize(sub_0)\n  dup1\n  dataOffset(sub_0)\n  0x00\n  codecopy\n  0x00\n  return\nstop\n\nsub_0: assembly {\n        /* \"contracts/Token.sol\":58:580  contract Token{\r... */\n      mstore(0x40, 0x80)\n      callvalue\n      dup1\n      iszero\n      tag_1\n      jumpi\n      0x00\n      dup1\n      revert\n    tag_1:\n      pop\n      jumpi(tag_2, lt(calldatasize, 0x04))\n      shr(0xe0, calldataload(0x00))\n      dup1\n      0x06fdde03\n      eq\n      tag_3\n      jumpi\n      dup1\n      0x18160ddd\n      eq\n      tag_4\n      jumpi\n      dup1\n      0x8da5cb5b\n      eq\n      tag_5\n      jumpi\n      dup1\n      0x95d89b41\n      eq\n      tag_6\n      jumpi\n      dup1\n      0xa9059cbb\n      eq\n      tag_7\n      jumpi\n      dup1\n      0xf8b2cb4f\n      eq\n      tag_8\n      jumpi\n    tag_2:\n      0x00\n      dup1\n      revert\n        /* \"contracts/Token.sol\":79:110  string public name=\"BlockToken\" */\n    tag_3:\n      tag_9\n      tag_10\n      jump\t// in\n    tag_9:\n      mload(0x40)\n      tag_11\n      swap2\n      swap1\n      tag_12\n      jump\t// in\n    tag_11:\n      mload(0x40)\n      dup1\n      swap2\n      sub\n      swap1\n      return\n        /* \"contracts/Token.sol\":149:177  uint public totalSupply=1000 */\n    tag_4:\n      tag_13\n      sload(0x02)\n      dup2\n      jump\n    tag_13:\n      mload(0x40)\n        /* \"#utility.yul\":1598:1623   */\n      swap1\n      dup2\n      mstore\n        /* \"#utility.yul\":1586:1588   */\n      0x20\n        /* \"#utility.yul\":1571:1589   */\n      add\n        /* \"contracts/Token.sol\":149:177  uint public totalSupply=1000 */\n      tag_11\n        /* \"#utility.yul\":1452:1629   */\n      jump\n        /* \"contracts/Token.sol\":186:206  address public owner */\n    tag_5:\n      sload(0x03)\n      tag_17\n      swap1\n      sub(shl(0xa0, 0x01), 0x01)\n      and\n      dup2\n      jump\n    tag_17:\n      mload(0x40)\n      sub(shl(0xa0, 0x01), 0x01)\n        /* \"#utility.yul\":806:838   */\n      swap1\n      swap2\n      and\n        /* \"#utility.yul\":788:839   */\n      dup2\n      mstore\n        /* \"#utility.yul\":776:778   */\n      0x20\n        /* \"#utility.yul\":761:779   */\n      add\n        /* \"contracts/Token.sol\":186:206  address public owner */\n      tag_11\n        /* \"#utility.yul\":642:845   */\n      jump\n        /* \"contracts/Token.sol\":117:142  string public symbol=\"BT\" */\n    tag_6:\n      tag_9\n      tag_22\n      jump\t// in\n        /* \"contracts/Token.sol\":338:467  function transfer(address to, uint amt)external\r... */\n    tag_7:\n      tag_24\n      tag_25\n      calldatasize\n      0x04\n      tag_26\n      jump\t// in\n    tag_25:\n      tag_27\n      jump\t// in\n    tag_24:\n      stop\n        /* \"contracts/Token.sol\":473:577  function getBalance(address acc)external view returns(uint)\r... */\n    tag_8:\n      tag_13\n      tag_29\n      calldatasize\n      0x04\n      tag_30\n      jump\t// in\n    tag_29:\n      sub(shl(0xa0, 0x01), 0x01)\n        /* \"contracts/Token.sol\":556:569  balances[acc] */\n      and\n        /* \"contracts/Token.sol\":527:531  uint */\n      0x00\n        /* \"contracts/Token.sol\":556:569  balances[acc] */\n      swap1\n      dup2\n      mstore\n        /* \"contracts/Token.sol\":556:564  balances */\n      0x04\n        /* \"contracts/Token.sol\":556:569  balances[acc] */\n      0x20\n      mstore\n      0x40\n      swap1\n      keccak256\n      sload\n      swap1\n        /* \"contracts/Token.sol\":473:577  function getBalance(address acc)external view returns(uint)\r... */\n      jump\n        /* \"contracts/Token.sol\":79:110  string public name=\"BlockToken\" */\n    tag_10:\n      0x00\n      dup1\n      sload\n      tag_33\n      swap1\n      tag_34\n      jump\t// in\n    tag_33:\n      dup1\n      0x1f\n      add\n      0x20\n      dup1\n      swap2\n      div\n      mul\n      0x20\n      add\n      mload(0x40)\n      swap1\n      dup2\n      add\n      0x40\n      mstore\n      dup1\n      swap3\n      swap2\n      swap1\n      dup2\n      dup2\n      mstore\n      0x20\n      add\n      dup3\n      dup1\n      sload\n      tag_35\n      swap1\n      tag_34\n      jump\t// in\n    tag_35:\n      dup1\n      iszero\n      tag_36\n      jumpi\n      dup1\n      0x1f\n      lt\n      tag_37\n      jumpi\n      0x0100\n      dup1\n      dup4\n      sload\n      div\n      mul\n      dup4\n      mstore\n      swap2\n      0x20\n      add\n      swap2\n      jump(tag_36)\n    tag_37:\n      dup3\n      add\n      swap2\n      swap1\n      0x00\n      mstore\n      keccak256(0x00, 0x20)\n      swap1\n    tag_38:\n      dup2\n      sload\n      dup2\n      mstore\n      swap1\n      0x01\n      add\n      swap1\n      0x20\n      add\n      dup1\n      dup4\n      gt\n      tag_38\n      jumpi\n      dup3\n      swap1\n      sub\n      0x1f\n      and\n      dup3\n      add\n      swap2\n    tag_36:\n      pop\n      pop\n      pop\n      pop\n      pop\n      dup2\n      jump\t// out\n        /* \"contracts/Token.sol\":117:142  string public symbol=\"BT\" */\n    tag_22:\n      0x01\n      dup1\n      sload\n      tag_33\n      swap1\n      tag_34\n      jump\t// in\n        /* \"contracts/Token.sol\":338:467  function transfer(address to, uint amt)external\r... */\n    tag_27:\n        /* \"contracts/Token.sol\":411:421  msg.sender */\n      caller\n        /* \"contracts/Token.sol\":402:422  balances[msg.sender] */\n      0x00\n      swap1\n      dup2\n      mstore\n        /* \"contracts/Token.sol\":402:410  balances */\n      0x04\n        /* \"contracts/Token.sol\":402:422  balances[msg.sender] */\n      0x20\n      mstore\n      0x40\n      dup2\n      keccak256\n        /* \"contracts/Token.sol\":402:429  balances[msg.sender] -= amt */\n      dup1\n      sload\n        /* \"contracts/Token.sol\":426:429  amt */\n      dup4\n      swap3\n        /* \"contracts/Token.sol\":402:422  balances[msg.sender] */\n      swap1\n        /* \"contracts/Token.sol\":402:429  balances[msg.sender] -= amt */\n      tag_45\n      swap1\n        /* \"contracts/Token.sol\":426:429  amt */\n      dup5\n      swap1\n        /* \"contracts/Token.sol\":402:429  balances[msg.sender] -= amt */\n      tag_46\n      jump\t// in\n    tag_45:\n      swap1\n      swap2\n      sstore\n      pop\n      pop\n      sub(shl(0xa0, 0x01), 0x01)\n        /* \"contracts/Token.sol\":440:452  balances[to] */\n      dup3\n      and\n      0x00\n      swap1\n      dup2\n      mstore\n        /* \"contracts/Token.sol\":440:448  balances */\n      0x04\n        /* \"contracts/Token.sol\":440:452  balances[to] */\n      0x20\n      mstore\n      0x40\n      dup2\n      keccak256\n        /* \"contracts/Token.sol\":440:459  balances[to] += amt */\n      dup1\n      sload\n        /* \"contracts/Token.sol\":456:459  amt */\n      dup4\n      swap3\n        /* \"contracts/Token.sol\":440:452  balances[to] */\n      swap1\n        /* \"contracts/Token.sol\":440:459  balances[to] += amt */\n      tag_47\n      swap1\n        /* \"contracts/Token.sol\":456:459  amt */\n      dup5\n      swap1\n        /* \"contracts/Token.sol\":440:459  balances[to] += amt */\n      tag_48\n      jump\t// in\n    tag_47:\n      swap1\n      swap2\n      sstore\n      pop\n      pop\n      pop\n      pop\n        /* \"contracts/Token.sol\":338:467  function transfer(address to, uint amt)external\r... */\n      jump\t// out\n        /* \"#utility.yul\":14:187   */\n    tag_51:\n        /* \"#utility.yul\":82:102   */\n      dup1\n      calldataload\n      sub(shl(0xa0, 0x01), 0x01)\n        /* \"#utility.yul\":131:162   */\n      dup2\n      and\n        /* \"#utility.yul\":121:163   */\n      dup2\n      eq\n        /* \"#utility.yul\":111:181   */\n      tag_53\n      jumpi\n        /* \"#utility.yul\":177:178   */\n      0x00\n        /* \"#utility.yul\":174:175   */\n      dup1\n        /* \"#utility.yul\":167:179   */\n      revert\n        /* \"#utility.yul\":111:181   */\n    tag_53:\n        /* \"#utility.yul\":14:187   */\n      swap2\n      swap1\n      pop\n      jump\t// out\n        /* \"#utility.yul\":192:378   */\n    tag_30:\n        /* \"#utility.yul\":251:257   */\n      0x00\n        /* \"#utility.yul\":304:306   */\n      0x20\n        /* \"#utility.yul\":292:301   */\n      dup3\n        /* \"#utility.yul\":283:290   */\n      dup5\n        /* \"#utility.yul\":279:302   */\n      sub\n        /* \"#utility.yul\":275:307   */\n      slt\n        /* \"#utility.yul\":272:324   */\n      iszero\n      tag_55\n      jumpi\n        /* \"#utility.yul\":320:321   */\n      0x00\n        /* \"#utility.yul\":317:318   */\n      dup1\n        /* \"#utility.yul\":310:322   */\n      revert\n        /* \"#utility.yul\":272:324   */\n    tag_55:\n        /* \"#utility.yul\":343:372   */\n      tag_56\n        /* \"#utility.yul\":362:371   */\n      dup3\n        /* \"#utility.yul\":343:372   */\n      tag_51\n      jump\t// in\n    tag_56:\n        /* \"#utility.yul\":333:372   */\n      swap4\n        /* \"#utility.yul\":192:378   */\n      swap3\n      pop\n      pop\n      pop\n      jump\t// out\n        /* \"#utility.yul\":383:637   */\n    tag_26:\n        /* \"#utility.yul\":451:457   */\n      0x00\n        /* \"#utility.yul\":459:465   */\n      dup1\n        /* \"#utility.yul\":512:514   */\n      0x40\n        /* \"#utility.yul\":500:509   */\n      dup4\n        /* \"#utility.yul\":491:498   */\n      dup6\n        /* \"#utility.yul\":487:510   */\n      sub\n        /* \"#utility.yul\":483:515   */\n      slt\n        /* \"#utility.yul\":480:532   */\n      iszero\n      tag_58\n      jumpi\n        /* \"#utility.yul\":528:529   */\n      0x00\n        /* \"#utility.yul\":525:526   */\n      dup1\n        /* \"#utility.yul\":518:530   */\n      revert\n        /* \"#utility.yul\":480:532   */\n    tag_58:\n        /* \"#utility.yul\":551:580   */\n      tag_59\n        /* \"#utility.yul\":570:579   */\n      dup4\n        /* \"#utility.yul\":551:580   */\n      tag_51\n      jump\t// in\n    tag_59:\n        /* \"#utility.yul\":541:580   */\n      swap5\n        /* \"#utility.yul\":627:629   */\n      0x20\n        /* \"#utility.yul\":612:630   */\n      swap4\n      swap1\n      swap4\n      add\n        /* \"#utility.yul\":599:631   */\n      calldataload\n      swap4\n      pop\n      pop\n      pop\n        /* \"#utility.yul\":383:637   */\n      jump\t// out\n        /* \"#utility.yul\":850:1447   */\n    tag_12:\n        /* \"#utility.yul\":962:966   */\n      0x00\n        /* \"#utility.yul\":991:993   */\n      0x20\n        /* \"#utility.yul\":1020:1022   */\n      dup1\n        /* \"#utility.yul\":1009:1018   */\n      dup4\n        /* \"#utility.yul\":1002:1023   */\n      mstore\n        /* \"#utility.yul\":1052:1058   */\n      dup4\n        /* \"#utility.yul\":1046:1059   */\n      mload\n        /* \"#utility.yul\":1095:1101   */\n      dup1\n        /* \"#utility.yul\":1090:1092   */\n      dup3\n        /* \"#utility.yul\":1079:1088   */\n      dup6\n        /* \"#utility.yul\":1075:1093   */\n      add\n        /* \"#utility.yul\":1068:1102   */\n      mstore\n        /* \"#utility.yul\":1120:1121   */\n      0x00\n        /* \"#utility.yul\":1130:1270   */\n    tag_62:\n        /* \"#utility.yul\":1144:1150   */\n      dup2\n        /* \"#utility.yul\":1141:1142   */\n      dup2\n        /* \"#utility.yul\":1138:1151   */\n      lt\n        /* \"#utility.yul\":1130:1270   */\n      iszero\n      tag_64\n      jumpi\n        /* \"#utility.yul\":1239:1253   */\n      dup6\n      dup2\n      add\n        /* \"#utility.yul\":1235:1258   */\n      dup4\n      add\n        /* \"#utility.yul\":1229:1259   */\n      mload\n        /* \"#utility.yul\":1205:1222   */\n      dup6\n      dup3\n      add\n        /* \"#utility.yul\":1224:1226   */\n      0x40\n        /* \"#utility.yul\":1201:1227   */\n      add\n        /* \"#utility.yul\":1194:1260   */\n      mstore\n        /* \"#utility.yul\":1159:1169   */\n      dup3\n      add\n        /* \"#utility.yul\":1130:1270   */\n      jump(tag_62)\n    tag_64:\n        /* \"#utility.yul\":1288:1294   */\n      dup2\n        /* \"#utility.yul\":1285:1286   */\n      dup2\n        /* \"#utility.yul\":1282:1295   */\n      gt\n        /* \"#utility.yul\":1279:1370   */\n      iszero\n      tag_65\n      jumpi\n        /* \"#utility.yul\":1358:1359   */\n      0x00\n        /* \"#utility.yul\":1353:1355   */\n      0x40\n        /* \"#utility.yul\":1344:1350   */\n      dup4\n        /* \"#utility.yul\":1333:1342   */\n      dup8\n        /* \"#utility.yul\":1329:1351   */\n      add\n        /* \"#utility.yul\":1325:1356   */\n      add\n        /* \"#utility.yul\":1318:1360   */\n      mstore\n        /* \"#utility.yul\":1279:1370   */\n    tag_65:\n      pop\n        /* \"#utility.yul\":1431:1433   */\n      0x1f\n        /* \"#utility.yul\":1410:1425   */\n      add\n      not(0x1f)\n        /* \"#utility.yul\":1406:1435   */\n      and\n        /* \"#utility.yul\":1391:1436   */\n      swap3\n      swap1\n      swap3\n      add\n        /* \"#utility.yul\":1438:1440   */\n      0x40\n        /* \"#utility.yul\":1387:1441   */\n      add\n      swap4\n        /* \"#utility.yul\":850:1447   */\n      swap3\n      pop\n      pop\n      pop\n      jump\t// out\n        /* \"#utility.yul\":1634:1762   */\n    tag_48:\n        /* \"#utility.yul\":1674:1677   */\n      0x00\n        /* \"#utility.yul\":1705:1706   */\n      dup3\n        /* \"#utility.yul\":1701:1707   */\n      not\n        /* \"#utility.yul\":1698:1699   */\n      dup3\n        /* \"#utility.yul\":1695:1708   */\n      gt\n        /* \"#utility.yul\":1692:1731   */\n      iszero\n      tag_69\n      jumpi\n        /* \"#utility.yul\":1711:1729   */\n      tag_69\n      tag_70\n      jump\t// in\n    tag_69:\n      pop\n        /* \"#utility.yul\":1747:1756   */\n      add\n      swap1\n        /* \"#utility.yul\":1634:1762   */\n      jump\t// out\n        /* \"#utility.yul\":1767:1892   */\n    tag_46:\n        /* \"#utility.yul\":1807:1811   */\n      0x00\n        /* \"#utility.yul\":1835:1836   */\n      dup3\n        /* \"#utility.yul\":1832:1833   */\n      dup3\n        /* \"#utility.yul\":1829:1837   */\n      lt\n        /* \"#utility.yul\":1826:1860   */\n      iszero\n      tag_73\n      jumpi\n        /* \"#utility.yul\":1840:1858   */\n      tag_73\n      tag_70\n      jump\t// in\n    tag_73:\n      pop\n        /* \"#utility.yul\":1877:1886   */\n      sub\n      swap1\n        /* \"#utility.yul\":1767:1892   */\n      jump\t// out\n        /* \"#utility.yul\":1897:2277   */\n    tag_34:\n        /* \"#utility.yul\":1976:1977   */\n      0x01\n        /* \"#utility.yul\":1972:1984   */\n      dup2\n      dup2\n      shr\n      swap1\n        /* \"#utility.yul\":2019:2031   */\n      dup3\n      and\n      dup1\n        /* \"#utility.yul\":2040:2101   */\n      tag_75\n      jumpi\n        /* \"#utility.yul\":2094:2098   */\n      0x7f\n        /* \"#utility.yul\":2086:2092   */\n      dup3\n        /* \"#utility.yul\":2082:2099   */\n      and\n        /* \"#utility.yul\":2072:2099   */\n      swap2\n      pop\n        /* \"#utility.yul\":2040:2101   */\n    tag_75:\n        /* \"#utility.yul\":2147:2149   */\n      0x20\n        /* \"#utility.yul\":2139:2145   */\n      dup3\n        /* \"#utility.yul\":2136:2150   */\n      lt\n        /* \"#utility.yul\":2116:2134   */\n      dup2\n        /* \"#utility.yul\":2113:2151   */\n      eq\n        /* \"#utility.yul\":2110:2271   */\n      iszero\n      tag_76\n      jumpi\n        /* \"#utility.yul\":2193:2203   */\n      0x4e487b71\n        /* \"#utility.yul\":2188:2191   */\n      0xe0\n        /* \"#utility.yul\":2184:2204   */\n      shl\n        /* \"#utility.yul\":2181:2182   */\n      0x00\n        /* \"#utility.yul\":2174:2205   */\n      mstore\n        /* \"#utility.yul\":2228:2232   */\n      0x22\n        /* \"#utility.yul\":2225:2226   */\n      0x04\n        /* \"#utility.yul\":2218:2233   */\n      mstore\n        /* \"#utility.yul\":2256:2260   */\n      0x24\n        /* \"#utility.yul\":2253:2254   */\n      0x00\n        /* \"#utility.yul\":2246:2261   */\n      revert\n        /* \"#utility.yul\":2110:2271   */\n    tag_76:\n      pop\n        /* \"#utility.yul\":1897:2277   */\n      swap2\n      swap1\n      pop\n      jump\t// out\n        /* \"#utility.yul\":2282:2409   */\n    tag_70:\n        /* \"#utility.yul\":2343:2353   */\n      0x4e487b71\n        /* \"#utility.yul\":2338:2341   */\n      0xe0\n        /* \"#utility.yul\":2334:2354   */\n      shl\n        /* \"#utility.yul\":2331:2332   */\n      0x00\n        /* \"#utility.yul\":2324:2355   */\n      mstore\n        /* \"#utility.yul\":2374:2378   */\n      0x11\n        /* \"#utility.yul\":2371:2372   */\n      0x04\n        /* \"#utility.yul\":2364:2379   */\n      mstore\n        /* \"#utility.yul\":2398:2402   */\n      0x24\n        /* \"#utility.yul\":2395:2396   */\n      0x00\n        /* \"#utility.yul\":2388:2403   */\n      revert\n\n    auxdata: 0xa2646970667358221220336ec99295404a1d9598ae713dcee08340a14cf1403ad3640c576dbc7e7a6cd964736f6c63430008070033\n}\n",
				"bytecode": {
					"linkReferences": {},
					"object": "60c0604052600a608081905269213637b1b5aa37b5b2b760b11b60a090815261002b9160009190610096565b5060408051808201909152600280825261109560f21b602090920191825261005591600191610096565b506103e860025534801561006857600080fd5b50600380546001600160a01b0319163390811790915560009081526004602052604090206103e8905561016a565b8280546100a29061012f565b90600052602060002090601f0160209004810192826100c4576000855561010a565b82601f106100dd57805160ff191683800117855561010a565b8280016001018555821561010a579182015b8281111561010a5782518255916020019190600101906100ef565b5061011692915061011a565b5090565b5b80821115610116576000815560010161011b565b600181811c9082168061014357607f821691505b6020821081141561016457634e487b7160e01b600052602260045260246000fd5b50919050565b610370806101796000396000f3fe608060405234801561001057600080fd5b50600436106100625760003560e01c806306fdde031461006757806318160ddd146100855780638da5cb5b1461009c57806395d89b41146100c7578063a9059cbb146100cf578063f8b2cb4f146100e4575b600080fd5b61006f61010d565b60405161007c9190610265565b60405180910390f35b61008e60025481565b60405190815260200161007c565b6003546100af906001600160a01b031681565b6040516001600160a01b03909116815260200161007c565b61006f61019b565b6100e26100dd36600461023b565b6101a8565b005b61008e6100f2366004610219565b6001600160a01b031660009081526004602052604090205490565b6000805461011a906102e9565b80601f0160208091040260200160405190810160405280929190818152602001828054610146906102e9565b80156101935780601f1061016857610100808354040283529160200191610193565b820191906000526020600020905b81548152906001019060200180831161017657829003601f168201915b505050505081565b6001805461011a906102e9565b33600090815260046020526040812080548392906101c79084906102d2565b90915550506001600160a01b038216600090815260046020526040812080548392906101f49084906102ba565b90915550505050565b80356001600160a01b038116811461021457600080fd5b919050565b60006020828403121561022b57600080fd5b610234826101fd565b9392505050565b6000806040838503121561024e57600080fd5b610257836101fd565b946020939093013593505050565b600060208083528351808285015260005b8181101561029257858101830151858201604001528201610276565b818111156102a4576000604083870101525b50601f01601f1916929092016040019392505050565b600082198211156102cd576102cd610324565b500190565b6000828210156102e4576102e4610324565b500390565b600181811c908216806102fd57607f821691505b6020821081141561031e57634e487b7160e01b600052602260045260246000fd5b50919050565b634e487b7160e01b600052601160045260246000fdfea2646970667358221220336ec99295404a1d9598ae713dcee08340a14cf1403ad3640c576dbc7e7a6cd964736f6c63430008070033",
					"opcodes": "PUSH1 0xC0 PUSH1 0x40 MSTORE PUSH1 0xA PUSH1 0x80 DUP2 SWAP1 MSTORE PUSH10 0x213637B1B5AA37B5B2B7 PUSH1 0xB1 SHL PUSH1 0xA0 SWAP1 DUP2 MSTORE PUSH2 0x2B SWAP2 PUSH1 0x0 SWAP2 SWAP1 PUSH2 0x96 JUMP JUMPDEST POP PUSH1 0x40 DUP1 MLOAD DUP1 DUP3 ADD SWAP1 SWAP2 MSTORE PUSH1 0x2 DUP1 DUP3 MSTORE PUSH2 0x1095 PUSH1 0xF2 SHL PUSH1 0x20 SWAP1 SWAP3 ADD SWAP2 DUP3 MSTORE PUSH2 0x55 SWAP2 PUSH1 0x1 SWAP2 PUSH2 0x96 JUMP JUMPDEST POP PUSH2 0x3E8 PUSH1 0x2 SSTORE CALLVALUE DUP1 ISZERO PUSH2 0x68 JUMPI PUSH1 0x0 DUP1 REVERT JUMPDEST POP PUSH1 0x3 DUP1 SLOAD PUSH1 0x1 PUSH1 0x1 PUSH1 0xA0 SHL SUB NOT AND CALLER SWAP1 DUP2 OR SWAP1 SWAP2 SSTORE PUSH1 0x0 SWAP1 DUP2 MSTORE PUSH1 0x4 PUSH1 0x20 MSTORE PUSH1 0x40 SWAP1 KECCAK256 PUSH2 0x3E8 SWAP1 SSTORE PUSH2 0x16A JUMP JUMPDEST DUP3 DUP1 SLOAD PUSH2 0xA2 SWAP1 PUSH2 0x12F JUMP JUMPDEST SWAP1 PUSH1 0x0 MSTORE PUSH1 0x20 PUSH1 0x0 KECCAK256 SWAP1 PUSH1 0x1F ADD PUSH1 0x20 SWAP1 DIV DUP2 ADD SWAP3 DUP3 PUSH2 0xC4 JUMPI PUSH1 0x0 DUP6 SSTORE PUSH2 0x10A JUMP JUMPDEST DUP3 PUSH1 0x1F LT PUSH2 0xDD JUMPI DUP1 MLOAD PUSH1 0xFF NOT AND DUP4 DUP1 ADD OR DUP6 SSTORE PUSH2 0x10A JUMP JUMPDEST DUP3 DUP1 ADD PUSH1 0x1 ADD DUP6 SSTORE DUP3 ISZERO PUSH2 0x10A JUMPI SWAP2 DUP3 ADD JUMPDEST DUP3 DUP2 GT ISZERO PUSH2 0x10A JUMPI DUP3 MLOAD DUP3 SSTORE SWAP2 PUSH1 0x20 ADD SWAP2 SWAP1 PUSH1 0x1 ADD SWAP1 PUSH2 0xEF JUMP JUMPDEST POP PUSH2 0x116 SWAP3 SWAP2 POP PUSH2 0x11A JUMP JUMPDEST POP SWAP1 JUMP JUMPDEST JUMPDEST DUP1 DUP3 GT ISZERO PUSH2 0x116 JUMPI PUSH1 0x0 DUP2 SSTORE PUSH1 0x1 ADD PUSH2 0x11B JUMP JUMPDEST PUSH1 0x1 DUP2 DUP2 SHR SWAP1 DUP3 AND DUP1 PUSH2 0x143 JUMPI PUSH1 0x7F DUP3 AND SWAP2 POP JUMPDEST PUSH1 0x20 DUP3 LT DUP2 EQ ISZERO PUSH2 0x164 JUMPI PUSH4 0x4E487B71 PUSH1 0xE0 SHL PUSH1 0x0 MSTORE PUSH1 0x22 PUSH1 0x4 MSTORE PUSH1 0x24 PUSH1 0x0 REVERT JUMPDEST POP SWAP2 SWAP1 POP JUMP JUMPDEST PUSH2 0x370 DUP1 PUSH2 0x179 PUSH1 0x0 CODECOPY PUSH1 0x0 RETURN INVALID PUSH1 0x80 PUSH1 0x40 MSTORE CALLVALUE DUP1 ISZERO PUSH2 0x10 JUMPI PUSH1 0x0 DUP1 REVERT JUMPDEST POP PUSH1 0x4 CALLDATASIZE LT PUSH2 0x62 JUMPI PUSH1 0x0 CALLDATALOAD PUSH1 0xE0 SHR DUP1 PUSH4 0x6FDDE03 EQ PUSH2 0x67 JUMPI DUP1 PUSH4 0x18160DDD EQ PUSH2 0x85 JUMPI DUP1 PUSH4 0x8DA5CB5B EQ PUSH2 0x9C JUMPI DUP1 PUSH4 0x95D89B41 EQ PUSH2 0xC7 JUMPI DUP1 PUSH4 0xA9059CBB EQ PUSH2 0xCF JUMPI DUP1 PUSH4 0xF8B2CB4F EQ PUSH2 0xE4 JUMPI JUMPDEST PUSH1 0x0 DUP1 REVERT JUMPDEST PUSH2 0x6F PUSH2 0x10D JUMP JUMPDEST PUSH1 0x40 MLOAD PUSH2 0x7C SWAP2 SWAP1 PUSH2 0x265 JUMP JUMPDEST PUSH1 0x40 MLOAD DUP1 SWAP2 SUB SWAP1 RETURN JUMPDEST PUSH2 0x8E PUSH1 0x2 SLOAD DUP2 JUMP JUMPDEST PUSH1 0x40 MLOAD SWAP1 DUP2 MSTORE PUSH1 0x20 ADD PUSH2 0x7C JUMP JUMPDEST PUSH1 0x3 SLOAD PUSH2 0xAF SWAP1 PUSH1 0x1 PUSH1 0x1 PUSH1 0xA0 SHL SUB AND DUP2 JUMP JUMPDEST PUSH1 0x40 MLOAD PUSH1 0x1 PUSH1 0x1 PUSH1 0xA0 SHL SUB SWAP1 SWAP2 AND DUP2 MSTORE PUSH1 0x20 ADD PUSH2 0x7C JUMP JUMPDEST PUSH2 0x6F PUSH2 0x19B JUMP JUMPDEST PUSH2 0xE2 PUSH2 0xDD CALLDATASIZE PUSH1 0x4 PUSH2 0x23B JUMP JUMPDEST PUSH2 0x1A8 JUMP JUMPDEST STOP JUMPDEST PUSH2 0x8E PUSH2 0xF2 CALLDATASIZE PUSH1 0x4 PUSH2 0x219 JUMP JUMPDEST PUSH1 0x1 PUSH1 0x1 PUSH1 0xA0 SHL SUB AND PUSH1 0x0 SWAP1 DUP2 MSTORE PUSH1 0x4 PUSH1 0x20 MSTORE PUSH1 0x40 SWAP1 KECCAK256 SLOAD SWAP1 JUMP JUMPDEST PUSH1 0x0 DUP1 SLOAD PUSH2 0x11A SWAP1 PUSH2 0x2E9 JUMP JUMPDEST DUP1 PUSH1 0x1F ADD PUSH1 0x20 DUP1 SWAP2 DIV MUL PUSH1 0x20 ADD PUSH1 0x40 MLOAD SWAP1 DUP2 ADD PUSH1 0x40 MSTORE DUP1 SWAP3 SWAP2 SWAP1 DUP2 DUP2 MSTORE PUSH1 0x20 ADD DUP3 DUP1 SLOAD PUSH2 0x146 SWAP1 PUSH2 0x2E9 JUMP JUMPDEST DUP1 ISZERO PUSH2 0x193 JUMPI DUP1 PUSH1 0x1F LT PUSH2 0x168 JUMPI PUSH2 0x100 DUP1 DUP4 SLOAD DIV MUL DUP4 MSTORE SWAP2 PUSH1 0x20 ADD SWAP2 PUSH2 0x193 JUMP JUMPDEST DUP3 ADD SWAP2 SWAP1 PUSH1 0x0 MSTORE PUSH1 0x20 PUSH1 0x0 KECCAK256 SWAP1 JUMPDEST DUP2 SLOAD DUP2 MSTORE SWAP1 PUSH1 0x1 ADD SWAP1 PUSH1 0x20 ADD DUP1 DUP4 GT PUSH2 0x176 JUMPI DUP3 SWAP1 SUB PUSH1 0x1F AND DUP3 ADD SWAP2 JUMPDEST POP POP POP POP POP DUP2 JUMP JUMPDEST PUSH1 0x1 DUP1 SLOAD PUSH2 0x11A SWAP1 PUSH2 0x2E9 JUMP JUMPDEST CALLER PUSH1 0x0 SWAP1 DUP2 MSTORE PUSH1 0x4 PUSH1 0x20 MSTORE PUSH1 0x40 DUP2 KECCAK256 DUP1 SLOAD DUP4 SWAP3 SWAP1 PUSH2 0x1C7 SWAP1 DUP5 SWAP1 PUSH2 0x2D2 JUMP JUMPDEST SWAP1 SWAP2 SSTORE POP POP PUSH1 0x1 PUSH1 0x1 PUSH1 0xA0 SHL SUB DUP3 AND PUSH1 0x0 SWAP1 DUP2 MSTORE PUSH1 0x4 PUSH1 0x20 MSTORE PUSH1 0x40 DUP2 KECCAK256 DUP1 SLOAD DUP4 SWAP3 SWAP1 PUSH2 0x1F4 SWAP1 DUP5 SWAP1 PUSH2 0x2BA JUMP JUMPDEST SWAP1 SWAP2 SSTORE POP POP POP POP JUMP JUMPDEST DUP1 CALLDATALOAD PUSH1 0x1 PUSH1 0x1 PUSH1 0xA0 SHL SUB DUP2 AND DUP2 EQ PUSH2 0x214 JUMPI PUSH1 0x0 DUP1 REVERT JUMPDEST SWAP2 SWAP1 POP JUMP JUMPDEST PUSH1 0x0 PUSH1 0x20 DUP3 DUP5 SUB SLT ISZERO PUSH2 0x22B JUMPI PUSH1 0x0 DUP1 REVERT JUMPDEST PUSH2 0x234 DUP3 PUSH2 0x1FD JUMP JUMPDEST SWAP4 SWAP3 POP POP POP JUMP JUMPDEST PUSH1 0x0 DUP1 PUSH1 0x40 DUP4 DUP6 SUB SLT ISZERO PUSH2 0x24E JUMPI PUSH1 0x0 DUP1 REVERT JUMPDEST PUSH2 0x257 DUP4 PUSH2 0x1FD JUMP JUMPDEST SWAP5 PUSH1 0x20 SWAP4 SWAP1 SWAP4 ADD CALLDATALOAD SWAP4 POP POP POP JUMP JUMPDEST PUSH1 0x0 PUSH1 0x20 DUP1 DUP4 MSTORE DUP4 MLOAD DUP1 DUP3 DUP6 ADD MSTORE PUSH1 0x0 JUMPDEST DUP2 DUP2 LT ISZERO PUSH2 0x292 JUMPI DUP6 DUP2 ADD DUP4 ADD MLOAD DUP6 DUP3 ADD PUSH1 0x40 ADD MSTORE DUP3 ADD PUSH2 0x276 JUMP JUMPDEST DUP2 DUP2 GT ISZERO PUSH2 0x2A4 JUMPI PUSH1 0x0 PUSH1 0x40 DUP4 DUP8 ADD ADD MSTORE JUMPDEST POP PUSH1 0x1F ADD PUSH1 0x1F NOT AND SWAP3 SWAP1 SWAP3 ADD PUSH1 0x40 ADD SWAP4 SWAP3 POP POP POP JUMP JUMPDEST PUSH1 0x0 DUP3 NOT DUP3 GT ISZERO PUSH2 0x2CD JUMPI PUSH2 0x2CD PUSH2 0x324 JUMP JUMPDEST POP ADD SWAP1 JUMP JUMPDEST PUSH1 0x0 DUP3 DUP3 LT ISZERO PUSH2 0x2E4 JUMPI PUSH2 0x2E4 PUSH2 0x324 JUMP JUMPDEST POP SUB SWAP1 JUMP JUMPDEST PUSH1 0x1 DUP2 DUP2 SHR SWAP1 DUP3 AND DUP1 PUSH2 0x2FD JUMPI PUSH1 0x7F DUP3 AND SWAP2 POP JUMPDEST PUSH1 0x20 DUP3 LT DUP2 EQ ISZERO PUSH2 0x31E JUMPI PUSH4 0x4E487B71 PUSH1 0xE0 SHL PUSH1 0x0 MSTORE PUSH1 0x22 PUSH1 0x4 MSTORE PUSH1 0x24 PUSH1 0x0 REVERT JUMPDEST POP SWAP2 SWAP1 POP JUMP JUMPDEST PUSH4 0x4E487B71 PUSH1 0xE0 SHL PUSH1 0x0 MSTORE PUSH1 0x11 PUSH1 0x4 MSTORE PUSH1 0x24 PUSH1 0x0 REVERT INVALID LOG2 PUSH5 0x6970667358 0x22 SLT KECCAK256 CALLER PUSH15 0xC99295404A1D9598AE713DCEE08340 LOG1 0x4C CALL BLOCKHASH GASPRICE 0xD3 PUSH5 0xC576DBC7E PUSH27 0x6CD964736F6C634300080700330000000000000000000000000000 "
				},
				"gasEstimates": {
					"creation": {
						"codeDepositCost": "176000",
						"executionCost": "infinite",
						"totalCost": "infinite"
					},
					"external": {
						"getBalance(address)": "2625",
						"name()": "infinite",
						"owner()": "2359",
						"symbol()": "infinite",
						"totalSupply()": "2295",
						"transfer(address,uint256)": "49141"
					}
				},
				"methodIdentifiers": {
					"getBalance(address)": "f8b2cb4f",
					"name()": "06fdde03",
					"owner()": "8da5cb5b",
					"symbol()": "95d89b41",
					"totalSupply()": "18160ddd",
					"transfer(address,uint256)": "a9059cbb"
				}
			},
			"storageLayout": {
				"storage": [
					{
						"astId": 4,
						"contract": "contracts/Token.sol:Token",
						"label": "name",
						"offset": 0,
						"slot": "0",
						"type": "t_string_storage"
					},
					{
						"astId": 7,
						"contract": "contracts/Token.sol:Token",
						"label": "symbol",
						"offset": 0,
						"slot": "1",
						"type": "t_string_storage"
					},
					{
						"astId": 10,
						"contract": "contracts/Token.sol:Token",
						"label": "totalSupply",
						"offset": 0,
						"slot": "2",
						"type": "t_uint256"
					},
					{
						"astId": 12,
						"contract": "contracts/Token.sol:Token",
						"label": "owner",
						"offset": 0,
						"slot": "3",
						"type": "t_address"
					},
					{
						"astId": 16,
						"contract": "contracts/Token.sol:Token",
						"label": "balances",
						"offset": 0,
						"slot": "4",
						"type": "t_mapping(t_address,t_uint256)"
					}
				],
				"types": {
					"t_address": {
						"encoding": "inplace",
						"label": "address",
						"numberOfBytes": "20"
					},
					"t_mapping(t_address,t_uint256)": {
						"encoding": "mapping",
						"key": "t_address",
						"label": "mapping(address => uint256)",
						"numberOfBytes": "32",
						"value": "t_uint256"
					},
					"t_string_storage": {
						"encoding": "bytes",
						"label": "string",
						"numberOfBytes": "32"
					},
					"t_uint256": {
						"encoding": "inplace",
						"label": "uint256",
						"numberOfBytes": "32"
					}
				}
			},
			"userdoc": {
				"kind": "user",
				"methods": {},
				"version": 1
			}
		}
	}
}