{
	"contracts/Enumerated.sol": {
		"enum1": {
			"abi": [
				{
					"inputs": [],
					"name": "getChoice",
					"outputs": [
						{
							"internalType": "enum enum1.FreshJuice",
							"name": "",
							"type": "uint8"
						}
					],
					"stateMutability": "view",
					"type": "function"
				},
				{
					"inputs": [],
					"name": "getDefault",
					"outputs": [
						{
							"internalType": "uint256",
							"name": "",
							"type": "uint256"
						}
					],
					"stateMutability": "view",
					"type": "function"
				},
				{
					"inputs": [],
					"name": "setLarge",
					"outputs": [],
					"stateMutability": "nonpayable",
					"type": "function"
				}
			],
			"devdoc": {
				"kind": "dev",
				"methods": {},
				"version": 1
			},
			"evm": {
				"assembly": "    /* \"contracts/Enumerated.sol\":58:483  contract enum1\r... */\n  mstore(0x40, 0x80)\n  callvalue\n  dup1\n  iszero\n  tag_1\n  jumpi\n  0x00\n  dup1\n  revert\ntag_1:\n  pop\n  dataSize(sub_0)\n  dup1\n  dataOffset(sub_0)\n  0x00\n  codecopy\n  0x00\n  return\nstop\n\nsub_0: assembly {\n        /* \"contracts/Enumerated.sol\":58:483  contract enum1\r... */\n      mstore(0x40, 0x80)\n      callvalue\n      dup1\n      iszero\n      tag_1\n      jumpi\n      0x00\n      dup1\n      revert\n    tag_1:\n      pop\n      jumpi(tag_2, lt(calldatasize, 0x04))\n      shr(0xe0, calldataload(0x00))\n      dup1\n      0x466858b2\n      eq\n      tag_3\n      jumpi\n      dup1\n      0x67cb61b6\n      eq\n      tag_4\n      jumpi\n      dup1\n      0x694ebe4f\n      eq\n      tag_5\n      jumpi\n    tag_2:\n      0x00\n      dup1\n      revert\n        /* \"contracts/Enumerated.sol\":379:480  function getDefault() public view returns (uint)\r... */\n    tag_3:\n      tag_6\n      tag_7\n      jump\t// in\n    tag_6:\n      mload(0x40)\n      tag_8\n      swap2\n      swap1\n      tag_9\n      jump\t// in\n    tag_8:\n      mload(0x40)\n      dup1\n      swap2\n      sub\n      swap1\n      return\n        /* \"contracts/Enumerated.sol\":283:373  function getChoice() public view returns(FreshJuice)\r... */\n    tag_4:\n      tag_10\n      tag_11\n      jump\t// in\n    tag_10:\n      mload(0x40)\n      tag_12\n      swap2\n      swap1\n      tag_13\n      jump\t// in\n    tag_12:\n      mload(0x40)\n      dup1\n      swap2\n      sub\n      swap1\n      return\n        /* \"contracts/Enumerated.sol\":208:277  function setLarge() public {\r... */\n    tag_5:\n      tag_14\n      tag_15\n      jump\t// in\n    tag_14:\n      stop\n        /* \"contracts/Enumerated.sol\":379:480  function getDefault() public view returns (uint)\r... */\n    tag_7:\n        /* \"contracts/Enumerated.sol\":422:426  uint */\n      0x00\n        /* \"contracts/Enumerated.sol\":180:197  FreshJuice.medium */\n      0x01\n        /* \"contracts/Enumerated.sol\":451:470  uint(defaultChoice) */\n      0x02\n      dup2\n      gt\n      iszero\n      tag_17\n      jumpi\n      tag_18\n      tag_19\n      jump\t// in\n    tag_18:\n    tag_17:\n        /* \"contracts/Enumerated.sol\":444:470  return uint(defaultChoice) */\n      swap1\n      pop\n        /* \"contracts/Enumerated.sol\":379:480  function getDefault() public view returns (uint)\r... */\n      swap1\n      jump\t// out\n        /* \"contracts/Enumerated.sol\":283:373  function getChoice() public view returns(FreshJuice)\r... */\n    tag_11:\n        /* \"contracts/Enumerated.sol\":324:334  FreshJuice */\n      0x00\n        /* \"contracts/Enumerated.sol\":359:365  choice */\n      dup1\n      0x00\n      swap1\n      sload\n      swap1\n      0x0100\n      exp\n      swap1\n      div\n      0xff\n      and\n        /* \"contracts/Enumerated.sol\":352:365  return choice */\n      swap1\n      pop\n        /* \"contracts/Enumerated.sol\":283:373  function getChoice() public view returns(FreshJuice)\r... */\n      swap1\n      jump\t// out\n        /* \"contracts/Enumerated.sol\":208:277  function setLarge() public {\r... */\n    tag_15:\n        /* \"contracts/Enumerated.sol\":253:269  FreshJuice.large */\n      0x02\n        /* \"contracts/Enumerated.sol\":246:252  choice */\n      0x00\n      dup1\n        /* \"contracts/Enumerated.sol\":246:269  choice=FreshJuice.large */\n      0x0100\n      exp\n      dup2\n      sload\n      dup2\n      0xff\n      mul\n      not\n      and\n      swap1\n      dup4\n      0x02\n      dup2\n      gt\n      iszero\n      tag_22\n      jumpi\n      tag_23\n      tag_19\n      jump\t// in\n    tag_23:\n    tag_22:\n      mul\n      or\n      swap1\n      sstore\n      pop\n        /* \"contracts/Enumerated.sol\":208:277  function setLarge() public {\r... */\n      jump\t// out\n        /* \"#utility.yul\":7:158   */\n    tag_25:\n        /* \"#utility.yul\":104:151   */\n      tag_27\n        /* \"#utility.yul\":145:150   */\n      dup2\n        /* \"#utility.yul\":104:151   */\n      tag_28\n      jump\t// in\n    tag_27:\n        /* \"#utility.yul\":99:102   */\n      dup3\n        /* \"#utility.yul\":92:152   */\n      mstore\n        /* \"#utility.yul\":82:158   */\n      pop\n      pop\n      jump\t// out\n        /* \"#utility.yul\":164:282   */\n    tag_29:\n        /* \"#utility.yul\":251:275   */\n      tag_31\n        /* \"#utility.yul\":269:274   */\n      dup2\n        /* \"#utility.yul\":251:275   */\n      tag_32\n      jump\t// in\n    tag_31:\n        /* \"#utility.yul\":246:249   */\n      dup3\n        /* \"#utility.yul\":239:276   */\n      mstore\n        /* \"#utility.yul\":229:282   */\n      pop\n      pop\n      jump\t// out\n        /* \"#utility.yul\":288:530   */\n    tag_13:\n        /* \"#utility.yul\":391:395   */\n      0x00\n        /* \"#utility.yul\":429:431   */\n      0x20\n        /* \"#utility.yul\":418:427   */\n      dup3\n        /* \"#utility.yul\":414:432   */\n      add\n        /* \"#utility.yul\":406:432   */\n      swap1\n      pop\n        /* \"#utility.yul\":442:523   */\n      tag_34\n        /* \"#utility.yul\":520:521   */\n      0x00\n        /* \"#utility.yul\":509:518   */\n      dup4\n        /* \"#utility.yul\":505:522   */\n      add\n        /* \"#utility.yul\":496:502   */\n      dup5\n        /* \"#utility.yul\":442:523   */\n      tag_25\n      jump\t// in\n    tag_34:\n        /* \"#utility.yul\":396:530   */\n      swap3\n      swap2\n      pop\n      pop\n      jump\t// out\n        /* \"#utility.yul\":536:758   */\n    tag_9:\n        /* \"#utility.yul\":629:633   */\n      0x00\n        /* \"#utility.yul\":667:669   */\n      0x20\n        /* \"#utility.yul\":656:665   */\n      dup3\n        /* \"#utility.yul\":652:670   */\n      add\n        /* \"#utility.yul\":644:670   */\n      swap1\n      pop\n        /* \"#utility.yul\":680:751   */\n      tag_36\n        /* \"#utility.yul\":748:749   */\n      0x00\n        /* \"#utility.yul\":737:746   */\n      dup4\n        /* \"#utility.yul\":733:750   */\n      add\n        /* \"#utility.yul\":724:730   */\n      dup5\n        /* \"#utility.yul\":680:751   */\n      tag_29\n      jump\t// in\n    tag_36:\n        /* \"#utility.yul\":634:758   */\n      swap3\n      swap2\n      pop\n      pop\n      jump\t// out\n        /* \"#utility.yul\":764:899   */\n    tag_37:\n        /* \"#utility.yul\":813:820   */\n      0x00\n        /* \"#utility.yul\":842:847   */\n      dup2\n        /* \"#utility.yul\":831:847   */\n      swap1\n      pop\n        /* \"#utility.yul\":848:893   */\n      tag_39\n        /* \"#utility.yul\":887:892   */\n      dup3\n        /* \"#utility.yul\":848:893   */\n      tag_40\n      jump\t// in\n    tag_39:\n        /* \"#utility.yul\":821:899   */\n      swap2\n      swap1\n      pop\n      jump\t// out\n        /* \"#utility.yul\":905:982   */\n    tag_32:\n        /* \"#utility.yul\":942:949   */\n      0x00\n        /* \"#utility.yul\":971:976   */\n      dup2\n        /* \"#utility.yul\":960:976   */\n      swap1\n      pop\n        /* \"#utility.yul\":950:982   */\n      swap2\n      swap1\n      pop\n      jump\t// out\n        /* \"#utility.yul\":988:1123   */\n    tag_28:\n        /* \"#utility.yul\":1048:1057   */\n      0x00\n        /* \"#utility.yul\":1081:1117   */\n      tag_43\n        /* \"#utility.yul\":1111:1116   */\n      dup3\n        /* \"#utility.yul\":1081:1117   */\n      tag_37\n      jump\t// in\n    tag_43:\n        /* \"#utility.yul\":1068:1117   */\n      swap1\n      pop\n        /* \"#utility.yul\":1058:1123   */\n      swap2\n      swap1\n      pop\n      jump\t// out\n        /* \"#utility.yul\":1129:1309   */\n    tag_19:\n        /* \"#utility.yul\":1177:1254   */\n      0x4e487b7100000000000000000000000000000000000000000000000000000000\n        /* \"#utility.yul\":1174:1175   */\n      0x00\n        /* \"#utility.yul\":1167:1255   */\n      mstore\n        /* \"#utility.yul\":1274:1278   */\n      0x21\n        /* \"#utility.yul\":1271:1272   */\n      0x04\n        /* \"#utility.yul\":1264:1279   */\n      mstore\n        /* \"#utility.yul\":1298:1302   */\n      0x24\n        /* \"#utility.yul\":1295:1296   */\n      0x00\n        /* \"#utility.yul\":1288:1303   */\n      revert\n        /* \"#utility.yul\":1315:1432   */\n    tag_40:\n        /* \"#utility.yul\":1400:1401   */\n      0x03\n        /* \"#utility.yul\":1393:1398   */\n      dup2\n        /* \"#utility.yul\":1390:1402   */\n      lt\n        /* \"#utility.yul\":1380:1382   */\n      tag_46\n      jumpi\n        /* \"#utility.yul\":1406:1424   */\n      tag_47\n      tag_19\n      jump\t// in\n    tag_47:\n        /* \"#utility.yul\":1380:1382   */\n    tag_46:\n        /* \"#utility.yul\":1370:1432   */\n      pop\n      jump\t// out\n\n    auxdata: 0xa2646970667358221220134a5aee49aada899c9c8862bfbd91eefb9f3285c171d7e33d4445437fc1af7964736f6c63430008060033\n}\n",
				"bytecode": {
					"linkReferences": {},
					"object": "608060405234801561001057600080fd5b506101e5806100206000396000f3fe608060405234801561001057600080fd5b50600436106100415760003560e01c8063466858b21461004657806367cb61b614610064578063694ebe4f14610082575b600080fd5b61004e61008c565b60405161005b9190610122565b60405180910390f35b61006c6100a7565b6040516100799190610107565b60405180910390f35b61008a6100bd565b005b6000600160028111156100a2576100a161016c565b5b905090565b60008060009054906101000a900460ff16905090565b60026000806101000a81548160ff021916908360028111156100e2576100e161016c565b5b0217905550565b6100f28161015a565b82525050565b61010181610150565b82525050565b600060208201905061011c60008301846100e9565b92915050565b600060208201905061013760008301846100f8565b92915050565b600081905061014b8261019b565b919050565b6000819050919050565b60006101658261013d565b9050919050565b7f4e487b7100000000000000000000000000000000000000000000000000000000600052602160045260246000fd5b600381106101ac576101ab61016c565b5b5056fea2646970667358221220134a5aee49aada899c9c8862bfbd91eefb9f3285c171d7e33d4445437fc1af7964736f6c63430008060033",
					"opcodes": "PUSH1 0x80 PUSH1 0x40 MSTORE CALLVALUE DUP1 ISZERO PUSH2 0x10 JUMPI PUSH1 0x0 DUP1 REVERT JUMPDEST POP PUSH2 0x1E5 DUP1 PUSH2 0x20 PUSH1 0x0 CODECOPY PUSH1 0x0 RETURN INVALID PUSH1 0x80 PUSH1 0x40 MSTORE CALLVALUE DUP1 ISZERO PUSH2 0x10 JUMPI PUSH1 0x0 DUP1 REVERT JUMPDEST POP PUSH1 0x4 CALLDATASIZE LT PUSH2 0x41 JUMPI PUSH1 0x0 CALLDATALOAD PUSH1 0xE0 SHR DUP1 PUSH4 0x466858B2 EQ PUSH2 0x46 JUMPI DUP1 PUSH4 0x67CB61B6 EQ PUSH2 0x64 JUMPI DUP1 PUSH4 0x694EBE4F EQ PUSH2 0x82 JUMPI JUMPDEST PUSH1 0x0 DUP1 REVERT JUMPDEST PUSH2 0x4E PUSH2 0x8C JUMP JUMPDEST PUSH1 0x40 MLOAD PUSH2 0x5B SWAP2 SWAP1 PUSH2 0x122 JUMP JUMPDEST PUSH1 0x40 MLOAD DUP1 SWAP2 SUB SWAP1 RETURN JUMPDEST PUSH2 0x6C PUSH2 0xA7 JUMP JUMPDEST PUSH1 0x40 MLOAD PUSH2 0x79 SWAP2 SWAP1 PUSH2 0x107 JUMP JUMPDEST PUSH1 0x40 MLOAD DUP1 SWAP2 SUB SWAP1 RETURN JUMPDEST PUSH2 0x8A PUSH2 0xBD JUMP JUMPDEST STOP JUMPDEST PUSH1 0x0 PUSH1 0x1 PUSH1 0x2 DUP2 GT ISZERO PUSH2 0xA2 JUMPI PUSH2 0xA1 PUSH2 0x16C JUMP JUMPDEST JUMPDEST SWAP1 POP SWAP1 JUMP JUMPDEST PUSH1 0x0 DUP1 PUSH1 0x0 SWAP1 SLOAD SWAP1 PUSH2 0x100 EXP SWAP1 DIV PUSH1 0xFF AND SWAP1 POP SWAP1 JUMP JUMPDEST PUSH1 0x2 PUSH1 0x0 DUP1 PUSH2 0x100 EXP DUP2 SLOAD DUP2 PUSH1 0xFF MUL NOT AND SWAP1 DUP4 PUSH1 0x2 DUP2 GT ISZERO PUSH2 0xE2 JUMPI PUSH2 0xE1 PUSH2 0x16C JUMP JUMPDEST JUMPDEST MUL OR SWAP1 SSTORE POP JUMP JUMPDEST PUSH2 0xF2 DUP2 PUSH2 0x15A JUMP JUMPDEST DUP3 MSTORE POP POP JUMP JUMPDEST PUSH2 0x101 DUP2 PUSH2 0x150 JUMP JUMPDEST DUP3 MSTORE POP POP JUMP JUMPDEST PUSH1 0x0 PUSH1 0x20 DUP3 ADD SWAP1 POP PUSH2 0x11C PUSH1 0x0 DUP4 ADD DUP5 PUSH2 0xE9 JUMP JUMPDEST SWAP3 SWAP2 POP POP JUMP JUMPDEST PUSH1 0x0 PUSH1 0x20 DUP3 ADD SWAP1 POP PUSH2 0x137 PUSH1 0x0 DUP4 ADD DUP5 PUSH2 0xF8 JUMP JUMPDEST SWAP3 SWAP2 POP POP JUMP JUMPDEST PUSH1 0x0 DUP2 SWAP1 POP PUSH2 0x14B DUP3 PUSH2 0x19B JUMP JUMPDEST SWAP2 SWAP1 POP JUMP JUMPDEST PUSH1 0x0 DUP2 SWAP1 POP SWAP2 SWAP1 POP JUMP JUMPDEST PUSH1 0x0 PUSH2 0x165 DUP3 PUSH2 0x13D JUMP JUMPDEST SWAP1 POP SWAP2 SWAP1 POP JUMP JUMPDEST PUSH32 0x4E487B7100000000000000000000000000000000000000000000000000000000 PUSH1 0x0 MSTORE PUSH1 0x21 PUSH1 0x4 MSTORE PUSH1 0x24 PUSH1 0x0 REVERT JUMPDEST PUSH1 0x3 DUP2 LT PUSH2 0x1AC JUMPI PUSH2 0x1AB PUSH2 0x16C JUMP JUMPDEST JUMPDEST POP JUMP INVALID LOG2 PUSH5 0x6970667358 0x22 SLT KECCAK256 SGT 0x4A GAS 0xEE 0x49 0xAA 0xDA DUP10 SWAP13 SWAP13 DUP9 PUSH3 0xBFBD91 0xEE 0xFB SWAP16 ORIGIN DUP6 0xC1 PUSH18 0xD7E33D4445437FC1AF7964736F6C63430008 MOD STOP CALLER "
				},
				"gasEstimates": {
					"creation": {
						"codeDepositCost": "97000",
						"executionCost": "147",
						"totalCost": "97147"
					},
					"external": {
						"getChoice()": "2568",
						"getDefault()": "341",
						"setLarge()": "24453"
					}
				},
				"methodIdentifiers": {
					"getChoice()": "67cb61b6",
					"getDefault()": "466858b2",
					"setLarge()": "694ebe4f"
				}
			},
			"storageLayout": {
				"storage": [
					{
						"astId": 8,
						"contract": "contracts/Enumerated.sol:enum1",
						"label": "choice",
						"offset": 0,
						"slot": "0",
						"type": "t_enum(FreshJuice)5"
					}
				],
				"types": {
					"t_enum(FreshJuice)5": {
						"encoding": "inplace",
						"label": "enum enum1.FreshJuice",
						"numberOfBytes": "1"
					}
				}
			},
			"userdoc": {
				"kind": "user",
				"methods": {},
				"version": 1
			}
		}
	}
}