{
	"contracts/CallFunctionContracttoContract.sol": {
		"ContractTwo": {
			"abi": [
				{
					"inputs": [
						{
							"internalType": "address",
							"name": "_address",
							"type": "address"
						}
					],
					"name": "callAdress",
					"outputs": [],
					"stateMutability": "nonpayable",
					"type": "function"
				}
			],
			"devdoc": {
				"kind": "dev",
				"methods": {},
				"version": 1
			},
			"evm": {
				"assembly": "    /* \"contracts/CallFunctionContracttoContract.sol\":266:429  contract ContractTwo\r... */\n  mstore(0x40, 0x80)\n  callvalue\n  dup1\n  iszero\n  tag_1\n  jumpi\n  0x00\n  dup1\n  revert\ntag_1:\n  pop\n  dataSize(sub_0)\n  dup1\n  dataOffset(sub_0)\n  0x00\n  codecopy\n  0x00\n  return\nstop\n\nsub_0: assembly {\n        /* \"contracts/CallFunctionContracttoContract.sol\":266:429  contract ContractTwo\r... */\n      mstore(0x40, 0x80)\n      callvalue\n      dup1\n      iszero\n      tag_1\n      jumpi\n      0x00\n      dup1\n      revert\n    tag_1:\n      pop\n      jumpi(tag_2, lt(calldatasize, 0x04))\n      shr(0xe0, calldataload(0x00))\n      dup1\n      0x5c43093c\n      eq\n      tag_3\n      jumpi\n    tag_2:\n      0x00\n      dup1\n      revert\n        /* \"contracts/CallFunctionContracttoContract.sol\":295:426  function callAdress(address _address)public\r... */\n    tag_3:\n      tag_4\n      0x04\n      dup1\n      calldatasize\n      sub\n      dup2\n      add\n      swap1\n      tag_5\n      swap2\n      swap1\n      tag_6\n      jump\t// in\n    tag_5:\n      tag_7\n      jump\t// in\n    tag_4:\n      stop\n    tag_7:\n        /* \"contracts/CallFunctionContracttoContract.sol\":363:371  _address */\n      dup1\n        /* \"contracts/CallFunctionContracttoContract.sol\":355:377  address(_address).call */\n      0xffffffffffffffffffffffffffffffffffffffff\n      and\n        /* \"contracts/CallFunctionContracttoContract.sol\":378:417  abi.encodeWithSignature(\"callMethod()\") */\n      add(0x24, mload(0x40))\n      mload(0x40)\n      0x20\n      dup2\n      dup4\n      sub\n      sub\n      dup2\n      mstore\n      swap1\n      0x40\n      mstore\n      and(not(0xffffffffffffffffffffffffffffffffffffffffffffffffffffffff), 0x06f4281e00000000000000000000000000000000000000000000000000000000)\n      0x20\n      dup3\n      add\n      dup1\n      mload\n      0xffffffffffffffffffffffffffffffffffffffffffffffffffffffff\n      dup4\n      dup2\n      dup4\n      and\n      or\n      dup4\n      mstore\n      pop\n      pop\n      pop\n      pop\n        /* \"contracts/CallFunctionContracttoContract.sol\":355:418  address(_address).call(abi.encodeWithSignature(\"callMethod()\")) */\n      mload(0x40)\n      tag_9\n      swap2\n      swap1\n      tag_10\n      jump\t// in\n    tag_9:\n      0x00\n      mload(0x40)\n      dup1\n      dup4\n      sub\n      dup2\n      0x00\n      dup7\n      gas\n      call\n      swap2\n      pop\n      pop\n      returndatasize\n      dup1\n      0x00\n      dup2\n      eq\n      tag_13\n      jumpi\n      mload(0x40)\n      swap2\n      pop\n      and(add(returndatasize, 0x3f), not(0x1f))\n      dup3\n      add\n      0x40\n      mstore\n      returndatasize\n      dup3\n      mstore\n      returndatasize\n      0x00\n      0x20\n      dup5\n      add\n      returndatacopy\n      jump(tag_12)\n    tag_13:\n      0x60\n      swap2\n      pop\n    tag_12:\n      pop\n      pop\n      pop\n        /* \"contracts/CallFunctionContracttoContract.sol\":295:426  function callAdress(address _address)public\r... */\n      pop\n      jump\t// out\n        /* \"#utility.yul\":7:146   */\n    tag_15:\n        /* \"#utility.yul\":53:58   */\n      0x00\n        /* \"#utility.yul\":91:97   */\n      dup2\n        /* \"#utility.yul\":78:98   */\n      calldataload\n        /* \"#utility.yul\":69:98   */\n      swap1\n      pop\n        /* \"#utility.yul\":107:140   */\n      tag_17\n        /* \"#utility.yul\":134:139   */\n      dup2\n        /* \"#utility.yul\":107:140   */\n      tag_18\n      jump\t// in\n    tag_17:\n        /* \"#utility.yul\":7:146   */\n      swap3\n      swap2\n      pop\n      pop\n      jump\t// out\n        /* \"#utility.yul\":152:481   */\n    tag_6:\n        /* \"#utility.yul\":211:217   */\n      0x00\n        /* \"#utility.yul\":260:262   */\n      0x20\n        /* \"#utility.yul\":248:257   */\n      dup3\n        /* \"#utility.yul\":239:246   */\n      dup5\n        /* \"#utility.yul\":235:258   */\n      sub\n        /* \"#utility.yul\":231:263   */\n      slt\n        /* \"#utility.yul\":228:347   */\n      iszero\n      tag_20\n      jumpi\n        /* \"#utility.yul\":266:345   */\n      tag_21\n      tag_22\n      jump\t// in\n    tag_21:\n        /* \"#utility.yul\":228:347   */\n    tag_20:\n        /* \"#utility.yul\":386:387   */\n      0x00\n        /* \"#utility.yul\":411:464   */\n      tag_23\n        /* \"#utility.yul\":456:463   */\n      dup5\n        /* \"#utility.yul\":447:453   */\n      dup3\n        /* \"#utility.yul\":436:445   */\n      dup6\n        /* \"#utility.yul\":432:454   */\n      add\n        /* \"#utility.yul\":411:464   */\n      tag_15\n      jump\t// in\n    tag_23:\n        /* \"#utility.yul\":401:464   */\n      swap2\n      pop\n        /* \"#utility.yul\":357:474   */\n      pop\n        /* \"#utility.yul\":152:481   */\n      swap3\n      swap2\n      pop\n      pop\n      jump\t// out\n        /* \"#utility.yul\":487:860   */\n    tag_24:\n        /* \"#utility.yul\":591:594   */\n      0x00\n        /* \"#utility.yul\":619:657   */\n      tag_26\n        /* \"#utility.yul\":651:656   */\n      dup3\n        /* \"#utility.yul\":619:657   */\n      tag_27\n      jump\t// in\n    tag_26:\n        /* \"#utility.yul\":673:761   */\n      tag_28\n        /* \"#utility.yul\":754:760   */\n      dup2\n        /* \"#utility.yul\":749:752   */\n      dup6\n        /* \"#utility.yul\":673:761   */\n      tag_29\n      jump\t// in\n    tag_28:\n        /* \"#utility.yul\":666:761   */\n      swap4\n      pop\n        /* \"#utility.yul\":770:822   */\n      tag_30\n        /* \"#utility.yul\":815:821   */\n      dup2\n        /* \"#utility.yul\":810:813   */\n      dup6\n        /* \"#utility.yul\":803:807   */\n      0x20\n        /* \"#utility.yul\":796:801   */\n      dup7\n        /* \"#utility.yul\":792:808   */\n      add\n        /* \"#utility.yul\":770:822   */\n      tag_31\n      jump\t// in\n    tag_30:\n        /* \"#utility.yul\":847:853   */\n      dup1\n        /* \"#utility.yul\":842:845   */\n      dup5\n        /* \"#utility.yul\":838:854   */\n      add\n        /* \"#utility.yul\":831:854   */\n      swap2\n      pop\n        /* \"#utility.yul\":595:860   */\n      pop\n        /* \"#utility.yul\":487:860   */\n      swap3\n      swap2\n      pop\n      pop\n      jump\t// out\n        /* \"#utility.yul\":866:1137   */\n    tag_10:\n        /* \"#utility.yul\":996:999   */\n      0x00\n        /* \"#utility.yul\":1018:1111   */\n      tag_33\n        /* \"#utility.yul\":1107:1110   */\n      dup3\n        /* \"#utility.yul\":1098:1104   */\n      dup5\n        /* \"#utility.yul\":1018:1111   */\n      tag_24\n      jump\t// in\n    tag_33:\n        /* \"#utility.yul\":1011:1111   */\n      swap2\n      pop\n        /* \"#utility.yul\":1128:1131   */\n      dup2\n        /* \"#utility.yul\":1121:1131   */\n      swap1\n      pop\n        /* \"#utility.yul\":866:1137   */\n      swap3\n      swap2\n      pop\n      pop\n      jump\t// out\n        /* \"#utility.yul\":1224:1322   */\n    tag_27:\n        /* \"#utility.yul\":1275:1281   */\n      0x00\n        /* \"#utility.yul\":1309:1314   */\n      dup2\n        /* \"#utility.yul\":1303:1315   */\n      mload\n        /* \"#utility.yul\":1293:1315   */\n      swap1\n      pop\n        /* \"#utility.yul\":1224:1322   */\n      swap2\n      swap1\n      pop\n      jump\t// out\n        /* \"#utility.yul\":1328:1475   */\n    tag_29:\n        /* \"#utility.yul\":1429:1440   */\n      0x00\n        /* \"#utility.yul\":1466:1469   */\n      dup2\n        /* \"#utility.yul\":1451:1469   */\n      swap1\n      pop\n        /* \"#utility.yul\":1328:1475   */\n      swap3\n      swap2\n      pop\n      pop\n      jump\t// out\n        /* \"#utility.yul\":1481:1577   */\n    tag_38:\n        /* \"#utility.yul\":1518:1525   */\n      0x00\n        /* \"#utility.yul\":1547:1571   */\n      tag_40\n        /* \"#utility.yul\":1565:1570   */\n      dup3\n        /* \"#utility.yul\":1547:1571   */\n      tag_41\n      jump\t// in\n    tag_40:\n        /* \"#utility.yul\":1536:1571   */\n      swap1\n      pop\n        /* \"#utility.yul\":1481:1577   */\n      swap2\n      swap1\n      pop\n      jump\t// out\n        /* \"#utility.yul\":1583:1709   */\n    tag_41:\n        /* \"#utility.yul\":1620:1627   */\n      0x00\n        /* \"#utility.yul\":1660:1702   */\n      0xffffffffffffffffffffffffffffffffffffffff\n        /* \"#utility.yul\":1653:1658   */\n      dup3\n        /* \"#utility.yul\":1649:1703   */\n      and\n        /* \"#utility.yul\":1638:1703   */\n      swap1\n      pop\n        /* \"#utility.yul\":1583:1709   */\n      swap2\n      swap1\n      pop\n      jump\t// out\n        /* \"#utility.yul\":1715:2022   */\n    tag_31:\n        /* \"#utility.yul\":1783:1784   */\n      0x00\n        /* \"#utility.yul\":1793:1906   */\n    tag_44:\n        /* \"#utility.yul\":1807:1813   */\n      dup4\n        /* \"#utility.yul\":1804:1805   */\n      dup2\n        /* \"#utility.yul\":1801:1814   */\n      lt\n        /* \"#utility.yul\":1793:1906   */\n      iszero\n      tag_46\n      jumpi\n        /* \"#utility.yul\":1892:1893   */\n      dup1\n        /* \"#utility.yul\":1887:1890   */\n      dup3\n        /* \"#utility.yul\":1883:1894   */\n      add\n        /* \"#utility.yul\":1877:1895   */\n      mload\n        /* \"#utility.yul\":1873:1874   */\n      dup2\n        /* \"#utility.yul\":1868:1871   */\n      dup5\n        /* \"#utility.yul\":1864:1875   */\n      add\n        /* \"#utility.yul\":1857:1896   */\n      mstore\n        /* \"#utility.yul\":1829:1831   */\n      0x20\n        /* \"#utility.yul\":1826:1827   */\n      dup2\n        /* \"#utility.yul\":1822:1832   */\n      add\n        /* \"#utility.yul\":1817:1832   */\n      swap1\n      pop\n        /* \"#utility.yul\":1793:1906   */\n      jump(tag_44)\n    tag_46:\n        /* \"#utility.yul\":1924:1930   */\n      dup4\n        /* \"#utility.yul\":1921:1922   */\n      dup2\n        /* \"#utility.yul\":1918:1931   */\n      gt\n        /* \"#utility.yul\":1915:2016   */\n      iszero\n      tag_47\n      jumpi\n        /* \"#utility.yul\":2004:2005   */\n      0x00\n        /* \"#utility.yul\":1995:2001   */\n      dup5\n        /* \"#utility.yul\":1990:1993   */\n      dup5\n        /* \"#utility.yul\":1986:2002   */\n      add\n        /* \"#utility.yul\":1979:2006   */\n      mstore\n        /* \"#utility.yul\":1915:2016   */\n    tag_47:\n        /* \"#utility.yul\":1764:2022   */\n      pop\n        /* \"#utility.yul\":1715:2022   */\n      pop\n      pop\n      pop\n      jump\t// out\n        /* \"#utility.yul\":2151:2268   */\n    tag_22:\n        /* \"#utility.yul\":2260:2261   */\n      0x00\n        /* \"#utility.yul\":2257:2258   */\n      dup1\n        /* \"#utility.yul\":2250:2262   */\n      revert\n        /* \"#utility.yul\":2274:2396   */\n    tag_18:\n        /* \"#utility.yul\":2347:2371   */\n      tag_52\n        /* \"#utility.yul\":2365:2370   */\n      dup2\n        /* \"#utility.yul\":2347:2371   */\n      tag_38\n      jump\t// in\n    tag_52:\n        /* \"#utility.yul\":2340:2345   */\n      dup2\n        /* \"#utility.yul\":2337:2372   */\n      eq\n        /* \"#utility.yul\":2327:2390   */\n      tag_53\n      jumpi\n        /* \"#utility.yul\":2386:2387   */\n      0x00\n        /* \"#utility.yul\":2383:2384   */\n      dup1\n        /* \"#utility.yul\":2376:2388   */\n      revert\n        /* \"#utility.yul\":2327:2390   */\n    tag_53:\n        /* \"#utility.yul\":2274:2396   */\n      pop\n      jump\t// out\n\n    auxdata: 0xa26469706673582212200b696c1b55dabd8d2cee0e36abb6b0f80183ec0ea3c0e1af9f5cf576a6f7800b64736f6c63430008070033\n}\n",
				"bytecode": {
					"linkReferences": {},
					"object": "608060405234801561001057600080fd5b50610292806100206000396000f3fe608060405234801561001057600080fd5b506004361061002b5760003560e01c80635c43093c14610030575b600080fd5b61004a60048036038101906100459190610150565b61004c565b005b8073ffffffffffffffffffffffffffffffffffffffff166040516024016040516020818303038152906040527f06f4281e000000000000000000000000000000000000000000000000000000007bffffffffffffffffffffffffffffffffffffffffffffffffffffffff19166020820180517bffffffffffffffffffffffffffffffffffffffffffffffffffffffff83818316178352505050506040516100f391906101ae565b6000604051808303816000865af19150503d8060008114610130576040519150601f19603f3d011682016040523d82523d6000602084013e610135565b606091505b50505050565b60008135905061014a81610245565b92915050565b60006020828403121561016657610165610240565b5b60006101748482850161013b565b91505092915050565b6000610188826101c5565b61019281856101d0565b93506101a281856020860161020d565b80840191505092915050565b60006101ba828461017d565b915081905092915050565b600081519050919050565b600081905092915050565b60006101e6826101ed565b9050919050565b600073ffffffffffffffffffffffffffffffffffffffff82169050919050565b60005b8381101561022b578082015181840152602081019050610210565b8381111561023a576000848401525b50505050565b600080fd5b61024e816101db565b811461025957600080fd5b5056fea26469706673582212200b696c1b55dabd8d2cee0e36abb6b0f80183ec0ea3c0e1af9f5cf576a6f7800b64736f6c63430008070033",
					"opcodes": "PUSH1 0x80 PUSH1 0x40 MSTORE CALLVALUE DUP1 ISZERO PUSH2 0x10 JUMPI PUSH1 0x0 DUP1 REVERT JUMPDEST POP PUSH2 0x292 DUP1 PUSH2 0x20 PUSH1 0x0 CODECOPY PUSH1 0x0 RETURN INVALID PUSH1 0x80 PUSH1 0x40 MSTORE CALLVALUE DUP1 ISZERO PUSH2 0x10 JUMPI PUSH1 0x0 DUP1 REVERT JUMPDEST POP PUSH1 0x4 CALLDATASIZE LT PUSH2 0x2B JUMPI PUSH1 0x0 CALLDATALOAD PUSH1 0xE0 SHR DUP1 PUSH4 0x5C43093C EQ PUSH2 0x30 JUMPI JUMPDEST PUSH1 0x0 DUP1 REVERT JUMPDEST PUSH2 0x4A PUSH1 0x4 DUP1 CALLDATASIZE SUB DUP2 ADD SWAP1 PUSH2 0x45 SWAP2 SWAP1 PUSH2 0x150 JUMP JUMPDEST PUSH2 0x4C JUMP JUMPDEST STOP JUMPDEST DUP1 PUSH20 0xFFFFFFFFFFFFFFFFFFFFFFFFFFFFFFFFFFFFFFFF AND PUSH1 0x40 MLOAD PUSH1 0x24 ADD PUSH1 0x40 MLOAD PUSH1 0x20 DUP2 DUP4 SUB SUB DUP2 MSTORE SWAP1 PUSH1 0x40 MSTORE PUSH32 0x6F4281E00000000000000000000000000000000000000000000000000000000 PUSH28 0xFFFFFFFFFFFFFFFFFFFFFFFFFFFFFFFFFFFFFFFFFFFFFFFFFFFFFFFF NOT AND PUSH1 0x20 DUP3 ADD DUP1 MLOAD PUSH28 0xFFFFFFFFFFFFFFFFFFFFFFFFFFFFFFFFFFFFFFFFFFFFFFFFFFFFFFFF DUP4 DUP2 DUP4 AND OR DUP4 MSTORE POP POP POP POP PUSH1 0x40 MLOAD PUSH2 0xF3 SWAP2 SWAP1 PUSH2 0x1AE JUMP JUMPDEST PUSH1 0x0 PUSH1 0x40 MLOAD DUP1 DUP4 SUB DUP2 PUSH1 0x0 DUP7 GAS CALL SWAP2 POP POP RETURNDATASIZE DUP1 PUSH1 0x0 DUP2 EQ PUSH2 0x130 JUMPI PUSH1 0x40 MLOAD SWAP2 POP PUSH1 0x1F NOT PUSH1 0x3F RETURNDATASIZE ADD AND DUP3 ADD PUSH1 0x40 MSTORE RETURNDATASIZE DUP3 MSTORE RETURNDATASIZE PUSH1 0x0 PUSH1 0x20 DUP5 ADD RETURNDATACOPY PUSH2 0x135 JUMP JUMPDEST PUSH1 0x60 SWAP2 POP JUMPDEST POP POP POP POP JUMP JUMPDEST PUSH1 0x0 DUP2 CALLDATALOAD SWAP1 POP PUSH2 0x14A DUP2 PUSH2 0x245 JUMP JUMPDEST SWAP3 SWAP2 POP POP JUMP JUMPDEST PUSH1 0x0 PUSH1 0x20 DUP3 DUP5 SUB SLT ISZERO PUSH2 0x166 JUMPI PUSH2 0x165 PUSH2 0x240 JUMP JUMPDEST JUMPDEST PUSH1 0x0 PUSH2 0x174 DUP5 DUP3 DUP6 ADD PUSH2 0x13B JUMP JUMPDEST SWAP2 POP POP SWAP3 SWAP2 POP POP JUMP JUMPDEST PUSH1 0x0 PUSH2 0x188 DUP3 PUSH2 0x1C5 JUMP JUMPDEST PUSH2 0x192 DUP2 DUP6 PUSH2 0x1D0 JUMP JUMPDEST SWAP4 POP PUSH2 0x1A2 DUP2 DUP6 PUSH1 0x20 DUP7 ADD PUSH2 0x20D JUMP JUMPDEST DUP1 DUP5 ADD SWAP2 POP POP SWAP3 SWAP2 POP POP JUMP JUMPDEST PUSH1 0x0 PUSH2 0x1BA DUP3 DUP5 PUSH2 0x17D JUMP JUMPDEST SWAP2 POP DUP2 SWAP1 POP SWAP3 SWAP2 POP POP JUMP JUMPDEST PUSH1 0x0 DUP2 MLOAD SWAP1 POP SWAP2 SWAP1 POP JUMP JUMPDEST PUSH1 0x0 DUP2 SWAP1 POP SWAP3 SWAP2 POP POP JUMP JUMPDEST PUSH1 0x0 PUSH2 0x1E6 DUP3 PUSH2 0x1ED JUMP JUMPDEST SWAP1 POP SWAP2 SWAP1 POP JUMP JUMPDEST PUSH1 0x0 PUSH20 0xFFFFFFFFFFFFFFFFFFFFFFFFFFFFFFFFFFFFFFFF DUP3 AND SWAP1 POP SWAP2 SWAP1 POP JUMP JUMPDEST PUSH1 0x0 JUMPDEST DUP4 DUP2 LT ISZERO PUSH2 0x22B JUMPI DUP1 DUP3 ADD MLOAD DUP2 DUP5 ADD MSTORE PUSH1 0x20 DUP2 ADD SWAP1 POP PUSH2 0x210 JUMP JUMPDEST DUP4 DUP2 GT ISZERO PUSH2 0x23A JUMPI PUSH1 0x0 DUP5 DUP5 ADD MSTORE JUMPDEST POP POP POP POP JUMP JUMPDEST PUSH1 0x0 DUP1 REVERT JUMPDEST PUSH2 0x24E DUP2 PUSH2 0x1DB JUMP JUMPDEST DUP2 EQ PUSH2 0x259 JUMPI PUSH1 0x0 DUP1 REVERT JUMPDEST POP JUMP INVALID LOG2 PUSH5 0x6970667358 0x22 SLT KECCAK256 SIGNEXTEND PUSH10 0x6C1B55DABD8D2CEE0E36 0xAB 0xB6 0xB0 0xF8 ADD DUP4 0xEC 0xE LOG3 0xC0 0xE1 0xAF SWAP16 0x5C CREATE2 PUSH23 0xA6F7800B64736F6C634300080700330000000000000000 "
				},
				"gasEstimates": {
					"creation": {
						"codeDepositCost": "131600",
						"executionCost": "177",
						"totalCost": "131777"
					},
					"external": {
						"callAdress(address)": "infinite"
					}
				},
				"methodIdentifiers": {
					"callAdress(address)": "5c43093c"
				}
			},
			"storageLayout": {
				"storage": [],
				"types": null
			},
			"userdoc": {
				"kind": "user",
				"methods": {},
				"version": 1
			}
		}
	}
}