{
	"contracts/viewpurediff.sol": {
		"ViewPure": {
			"abi": [
				{
					"inputs": [
						{
							"internalType": "uint256",
							"name": "y",
							"type": "uint256"
						},
						{
							"internalType": "uint256",
							"name": "z",
							"type": "uint256"
						}
					],
					"name": "AddX",
					"outputs": [
						{
							"internalType": "uint256",
							"name": "",
							"type": "uint256"
						}
					],
					"stateMutability": "pure",
					"type": "function"
				},
				{
					"inputs": [
						{
							"internalType": "uint256",
							"name": "y",
							"type": "uint256"
						}
					],
					"name": "addX",
					"outputs": [
						{
							"internalType": "uint256",
							"name": "",
							"type": "uint256"
						}
					],
					"stateMutability": "view",
					"type": "function"
				},
				{
					"inputs": [],
					"name": "x",
					"outputs": [
						{
							"internalType": "uint256",
							"name": "",
							"type": "uint256"
						}
					],
					"stateMutability": "view",
					"type": "function"
				}
			],
			"devdoc": {
				"kind": "dev",
				"methods": {},
				"version": 1
			},
			"evm": {
				"assembly": "    /* \"contracts/viewpurediff.sol\":58:454  contract ViewPure{\r... */\n  mstore(0x40, 0x80)\n    /* \"contracts/viewpurediff.sol\":117:118  1 */\n  0x01\n    /* \"contracts/viewpurediff.sol\":103:118  uint public x=1 */\n  0x00\n  sstore\n    /* \"contracts/viewpurediff.sol\":58:454  contract ViewPure{\r... */\n  callvalue\n  dup1\n  iszero\n  tag_1\n  jumpi\n  0x00\n  dup1\n  revert\ntag_1:\n  pop\n  dataSize(sub_0)\n  dup1\n  dataOffset(sub_0)\n  0x00\n  codecopy\n  0x00\n  return\nstop\n\nsub_0: assembly {\n        /* \"contracts/viewpurediff.sol\":58:454  contract ViewPure{\r... */\n      mstore(0x40, 0x80)\n      callvalue\n      dup1\n      iszero\n      tag_1\n      jumpi\n      0x00\n      dup1\n      revert\n    tag_1:\n      pop\n      jumpi(tag_2, lt(calldatasize, 0x04))\n      shr(0xe0, calldataload(0x00))\n      dup1\n      0x0c55699c\n      eq\n      tag_3\n      jumpi\n      dup1\n      0x36d3dc4b\n      eq\n      tag_4\n      jumpi\n      dup1\n      0xbfd6196d\n      eq\n      tag_5\n      jumpi\n    tag_2:\n      0x00\n      dup1\n      revert\n        /* \"contracts/viewpurediff.sol\":103:118  uint public x=1 */\n    tag_3:\n      tag_6\n      tag_7\n      jump\t// in\n    tag_6:\n      mload(0x40)\n      tag_8\n      swap2\n      swap1\n      tag_9\n      jump\t// in\n    tag_8:\n      mload(0x40)\n      dup1\n      swap2\n      sub\n      swap1\n      return\n        /* \"contracts/viewpurediff.sol\":181:336  function addX(uint y) public view returns(uint)\r... */\n    tag_4:\n      tag_10\n      0x04\n      dup1\n      calldatasize\n      sub\n      dup2\n      add\n      swap1\n      tag_11\n      swap2\n      swap1\n      tag_12\n      jump\t// in\n    tag_11:\n      tag_13\n      jump\t// in\n    tag_10:\n      mload(0x40)\n      tag_14\n      swap2\n      swap1\n      tag_9\n      jump\t// in\n    tag_14:\n      mload(0x40)\n      dup1\n      swap2\n      sub\n      swap1\n      return\n        /* \"contracts/viewpurediff.sol\":342:449  function AddX(uint y,uint z)public pure returns(uint)\r... */\n    tag_5:\n      tag_15\n      0x04\n      dup1\n      calldatasize\n      sub\n      dup2\n      add\n      swap1\n      tag_16\n      swap2\n      swap1\n      tag_17\n      jump\t// in\n    tag_16:\n      tag_18\n      jump\t// in\n    tag_15:\n      mload(0x40)\n      tag_19\n      swap2\n      swap1\n      tag_9\n      jump\t// in\n    tag_19:\n      mload(0x40)\n      dup1\n      swap2\n      sub\n      swap1\n      return\n        /* \"contracts/viewpurediff.sol\":103:118  uint public x=1 */\n    tag_7:\n      sload(0x00)\n      dup2\n      jump\t// out\n        /* \"contracts/viewpurediff.sol\":181:336  function addX(uint y) public view returns(uint)\r... */\n    tag_13:\n        /* \"contracts/viewpurediff.sol\":223:227  uint */\n      0x00\n        /* \"contracts/viewpurediff.sol\":298:304  uint c */\n      dup1\n        /* \"contracts/viewpurediff.sol\":307:308  y */\n      dup3\n        /* \"contracts/viewpurediff.sol\":305:306  x */\n      sload(0x00)\n        /* \"contracts/viewpurediff.sol\":305:308  x+y */\n      tag_21\n      swap2\n      swap1\n      tag_22\n      jump\t// in\n    tag_21:\n        /* \"contracts/viewpurediff.sol\":298:308  uint c=x+y */\n      swap1\n      pop\n        /* \"contracts/viewpurediff.sol\":326:327  c */\n      dup1\n        /* \"contracts/viewpurediff.sol\":319:327  return c */\n      swap2\n      pop\n      pop\n        /* \"contracts/viewpurediff.sol\":181:336  function addX(uint y) public view returns(uint)\r... */\n      swap2\n      swap1\n      pop\n      jump\t// out\n        /* \"contracts/viewpurediff.sol\":342:449  function AddX(uint y,uint z)public pure returns(uint)\r... */\n    tag_18:\n        /* \"contracts/viewpurediff.sol\":390:394  uint */\n      0x00\n        /* \"contracts/viewpurediff.sol\":412:418  uint w */\n      dup1\n        /* \"contracts/viewpurediff.sol\":421:422  z */\n      dup3\n        /* \"contracts/viewpurediff.sol\":419:420  y */\n      dup5\n        /* \"contracts/viewpurediff.sol\":419:422  y+z */\n      tag_24\n      swap2\n      swap1\n      tag_22\n      jump\t// in\n    tag_24:\n        /* \"contracts/viewpurediff.sol\":412:422  uint w=y+z */\n      swap1\n      pop\n        /* \"contracts/viewpurediff.sol\":440:441  w */\n      dup1\n        /* \"contracts/viewpurediff.sol\":433:441  return w */\n      swap2\n      pop\n      pop\n        /* \"contracts/viewpurediff.sol\":342:449  function AddX(uint y,uint z)public pure returns(uint)\r... */\n      swap3\n      swap2\n      pop\n      pop\n      jump\t// out\n        /* \"#utility.yul\":7:146   */\n    tag_26:\n        /* \"#utility.yul\":53:58   */\n      0x00\n        /* \"#utility.yul\":91:97   */\n      dup2\n        /* \"#utility.yul\":78:98   */\n      calldataload\n        /* \"#utility.yul\":69:98   */\n      swap1\n      pop\n        /* \"#utility.yul\":107:140   */\n      tag_28\n        /* \"#utility.yul\":134:139   */\n      dup2\n        /* \"#utility.yul\":107:140   */\n      tag_29\n      jump\t// in\n    tag_28:\n        /* \"#utility.yul\":59:146   */\n      swap3\n      swap2\n      pop\n      pop\n      jump\t// out\n        /* \"#utility.yul\":152:481   */\n    tag_12:\n        /* \"#utility.yul\":211:217   */\n      0x00\n        /* \"#utility.yul\":260:262   */\n      0x20\n        /* \"#utility.yul\":248:257   */\n      dup3\n        /* \"#utility.yul\":239:246   */\n      dup5\n        /* \"#utility.yul\":235:258   */\n      sub\n        /* \"#utility.yul\":231:263   */\n      slt\n        /* \"#utility.yul\":228:230   */\n      iszero\n      tag_31\n      jumpi\n        /* \"#utility.yul\":266:345   */\n      tag_32\n      tag_33\n      jump\t// in\n    tag_32:\n        /* \"#utility.yul\":228:230   */\n    tag_31:\n        /* \"#utility.yul\":386:387   */\n      0x00\n        /* \"#utility.yul\":411:464   */\n      tag_34\n        /* \"#utility.yul\":456:463   */\n      dup5\n        /* \"#utility.yul\":447:453   */\n      dup3\n        /* \"#utility.yul\":436:445   */\n      dup6\n        /* \"#utility.yul\":432:454   */\n      add\n        /* \"#utility.yul\":411:464   */\n      tag_26\n      jump\t// in\n    tag_34:\n        /* \"#utility.yul\":401:464   */\n      swap2\n      pop\n        /* \"#utility.yul\":357:474   */\n      pop\n        /* \"#utility.yul\":218:481   */\n      swap3\n      swap2\n      pop\n      pop\n      jump\t// out\n        /* \"#utility.yul\":487:961   */\n    tag_17:\n        /* \"#utility.yul\":555:561   */\n      0x00\n        /* \"#utility.yul\":563:569   */\n      dup1\n        /* \"#utility.yul\":612:614   */\n      0x40\n        /* \"#utility.yul\":600:609   */\n      dup4\n        /* \"#utility.yul\":591:598   */\n      dup6\n        /* \"#utility.yul\":587:610   */\n      sub\n        /* \"#utility.yul\":583:615   */\n      slt\n        /* \"#utility.yul\":580:582   */\n      iszero\n      tag_36\n      jumpi\n        /* \"#utility.yul\":618:697   */\n      tag_37\n      tag_33\n      jump\t// in\n    tag_37:\n        /* \"#utility.yul\":580:582   */\n    tag_36:\n        /* \"#utility.yul\":738:739   */\n      0x00\n        /* \"#utility.yul\":763:816   */\n      tag_38\n        /* \"#utility.yul\":808:815   */\n      dup6\n        /* \"#utility.yul\":799:805   */\n      dup3\n        /* \"#utility.yul\":788:797   */\n      dup7\n        /* \"#utility.yul\":784:806   */\n      add\n        /* \"#utility.yul\":763:816   */\n      tag_26\n      jump\t// in\n    tag_38:\n        /* \"#utility.yul\":753:816   */\n      swap3\n      pop\n        /* \"#utility.yul\":709:826   */\n      pop\n        /* \"#utility.yul\":865:867   */\n      0x20\n        /* \"#utility.yul\":891:944   */\n      tag_39\n        /* \"#utility.yul\":936:943   */\n      dup6\n        /* \"#utility.yul\":927:933   */\n      dup3\n        /* \"#utility.yul\":916:925   */\n      dup7\n        /* \"#utility.yul\":912:934   */\n      add\n        /* \"#utility.yul\":891:944   */\n      tag_26\n      jump\t// in\n    tag_39:\n        /* \"#utility.yul\":881:944   */\n      swap2\n      pop\n        /* \"#utility.yul\":836:954   */\n      pop\n        /* \"#utility.yul\":570:961   */\n      swap3\n      pop\n      swap3\n      swap1\n      pop\n      jump\t// out\n        /* \"#utility.yul\":967:1085   */\n    tag_40:\n        /* \"#utility.yul\":1054:1078   */\n      tag_42\n        /* \"#utility.yul\":1072:1077   */\n      dup2\n        /* \"#utility.yul\":1054:1078   */\n      tag_43\n      jump\t// in\n    tag_42:\n        /* \"#utility.yul\":1049:1052   */\n      dup3\n        /* \"#utility.yul\":1042:1079   */\n      mstore\n        /* \"#utility.yul\":1032:1085   */\n      pop\n      pop\n      jump\t// out\n        /* \"#utility.yul\":1091:1313   */\n    tag_9:\n        /* \"#utility.yul\":1184:1188   */\n      0x00\n        /* \"#utility.yul\":1222:1224   */\n      0x20\n        /* \"#utility.yul\":1211:1220   */\n      dup3\n        /* \"#utility.yul\":1207:1225   */\n      add\n        /* \"#utility.yul\":1199:1225   */\n      swap1\n      pop\n        /* \"#utility.yul\":1235:1306   */\n      tag_45\n        /* \"#utility.yul\":1303:1304   */\n      0x00\n        /* \"#utility.yul\":1292:1301   */\n      dup4\n        /* \"#utility.yul\":1288:1305   */\n      add\n        /* \"#utility.yul\":1279:1285   */\n      dup5\n        /* \"#utility.yul\":1235:1306   */\n      tag_40\n      jump\t// in\n    tag_45:\n        /* \"#utility.yul\":1189:1313   */\n      swap3\n      swap2\n      pop\n      pop\n      jump\t// out\n        /* \"#utility.yul\":1400:1705   */\n    tag_22:\n        /* \"#utility.yul\":1440:1443   */\n      0x00\n        /* \"#utility.yul\":1459:1479   */\n      tag_49\n        /* \"#utility.yul\":1477:1478   */\n      dup3\n        /* \"#utility.yul\":1459:1479   */\n      tag_43\n      jump\t// in\n    tag_49:\n        /* \"#utility.yul\":1454:1479   */\n      swap2\n      pop\n        /* \"#utility.yul\":1493:1513   */\n      tag_50\n        /* \"#utility.yul\":1511:1512   */\n      dup4\n        /* \"#utility.yul\":1493:1513   */\n      tag_43\n      jump\t// in\n    tag_50:\n        /* \"#utility.yul\":1488:1513   */\n      swap3\n      pop\n        /* \"#utility.yul\":1647:1648   */\n      dup3\n        /* \"#utility.yul\":1579:1645   */\n      0xffffffffffffffffffffffffffffffffffffffffffffffffffffffffffffffff\n        /* \"#utility.yul\":1575:1649   */\n      sub\n        /* \"#utility.yul\":1572:1573   */\n      dup3\n        /* \"#utility.yul\":1569:1650   */\n      gt\n        /* \"#utility.yul\":1566:1568   */\n      iszero\n      tag_51\n      jumpi\n        /* \"#utility.yul\":1653:1671   */\n      tag_52\n      tag_53\n      jump\t// in\n    tag_52:\n        /* \"#utility.yul\":1566:1568   */\n    tag_51:\n        /* \"#utility.yul\":1697:1698   */\n      dup3\n        /* \"#utility.yul\":1694:1695   */\n      dup3\n        /* \"#utility.yul\":1690:1699   */\n      add\n        /* \"#utility.yul\":1683:1699   */\n      swap1\n      pop\n        /* \"#utility.yul\":1444:1705   */\n      swap3\n      swap2\n      pop\n      pop\n      jump\t// out\n        /* \"#utility.yul\":1711:1788   */\n    tag_43:\n        /* \"#utility.yul\":1748:1755   */\n      0x00\n        /* \"#utility.yul\":1777:1782   */\n      dup2\n        /* \"#utility.yul\":1766:1782   */\n      swap1\n      pop\n        /* \"#utility.yul\":1756:1788   */\n      swap2\n      swap1\n      pop\n      jump\t// out\n        /* \"#utility.yul\":1794:1974   */\n    tag_53:\n        /* \"#utility.yul\":1842:1919   */\n      0x4e487b7100000000000000000000000000000000000000000000000000000000\n        /* \"#utility.yul\":1839:1840   */\n      0x00\n        /* \"#utility.yul\":1832:1920   */\n      mstore\n        /* \"#utility.yul\":1939:1943   */\n      0x11\n        /* \"#utility.yul\":1936:1937   */\n      0x04\n        /* \"#utility.yul\":1929:1944   */\n      mstore\n        /* \"#utility.yul\":1963:1967   */\n      0x24\n        /* \"#utility.yul\":1960:1961   */\n      0x00\n        /* \"#utility.yul\":1953:1968   */\n      revert\n        /* \"#utility.yul\":2103:2220   */\n    tag_33:\n        /* \"#utility.yul\":2212:2213   */\n      0x00\n        /* \"#utility.yul\":2209:2210   */\n      dup1\n        /* \"#utility.yul\":2202:2214   */\n      revert\n        /* \"#utility.yul\":2226:2348   */\n    tag_29:\n        /* \"#utility.yul\":2299:2323   */\n      tag_60\n        /* \"#utility.yul\":2317:2322   */\n      dup2\n        /* \"#utility.yul\":2299:2323   */\n      tag_43\n      jump\t// in\n    tag_60:\n        /* \"#utility.yul\":2292:2297   */\n      dup2\n        /* \"#utility.yul\":2289:2324   */\n      eq\n        /* \"#utility.yul\":2279:2281   */\n      tag_61\n      jumpi\n        /* \"#utility.yul\":2338:2339   */\n      0x00\n        /* \"#utility.yul\":2335:2336   */\n      dup1\n        /* \"#utility.yul\":2328:2340   */\n      revert\n        /* \"#utility.yul\":2279:2281   */\n    tag_61:\n        /* \"#utility.yul\":2269:2348   */\n      pop\n      jump\t// out\n\n    auxdata: 0xa2646970667358221220dca97b368723bb2166e4426fe207dbac5251f4c76f5916f78535947b2cfdd1bd64736f6c63430008060033\n}\n",
				"bytecode": {
					"linkReferences": {},
					"object": "6080604052600160005534801561001557600080fd5b5061028e806100256000396000f3fe608060405234801561001057600080fd5b50600436106100415760003560e01c80630c55699c1461004657806336d3dc4b14610064578063bfd6196d14610094575b600080fd5b61004e6100c4565b60405161005b9190610192565b60405180910390f35b61007e60048036038101906100799190610116565b6100ca565b60405161008b9190610192565b60405180910390f35b6100ae60048036038101906100a99190610143565b6100e6565b6040516100bb9190610192565b60405180910390f35b60005481565b600080826000546100db91906101ad565b905080915050919050565b60008082846100f591906101ad565b90508091505092915050565b60008135905061011081610241565b92915050565b60006020828403121561012c5761012b61023c565b5b600061013a84828501610101565b91505092915050565b6000806040838503121561015a5761015961023c565b5b600061016885828601610101565b925050602061017985828601610101565b9150509250929050565b61018c81610203565b82525050565b60006020820190506101a76000830184610183565b92915050565b60006101b882610203565b91506101c383610203565b9250827fffffffffffffffffffffffffffffffffffffffffffffffffffffffffffffffff038211156101f8576101f761020d565b5b828201905092915050565b6000819050919050565b7f4e487b7100000000000000000000000000000000000000000000000000000000600052601160045260246000fd5b600080fd5b61024a81610203565b811461025557600080fd5b5056fea2646970667358221220dca97b368723bb2166e4426fe207dbac5251f4c76f5916f78535947b2cfdd1bd64736f6c63430008060033",
					"opcodes": "PUSH1 0x80 PUSH1 0x40 MSTORE PUSH1 0x1 PUSH1 0x0 SSTORE CALLVALUE DUP1 ISZERO PUSH2 0x15 JUMPI PUSH1 0x0 DUP1 REVERT JUMPDEST POP PUSH2 0x28E DUP1 PUSH2 0x25 PUSH1 0x0 CODECOPY PUSH1 0x0 RETURN INVALID PUSH1 0x80 PUSH1 0x40 MSTORE CALLVALUE DUP1 ISZERO PUSH2 0x10 JUMPI PUSH1 0x0 DUP1 REVERT JUMPDEST POP PUSH1 0x4 CALLDATASIZE LT PUSH2 0x41 JUMPI PUSH1 0x0 CALLDATALOAD PUSH1 0xE0 SHR DUP1 PUSH4 0xC55699C EQ PUSH2 0x46 JUMPI DUP1 PUSH4 0x36D3DC4B EQ PUSH2 0x64 JUMPI DUP1 PUSH4 0xBFD6196D EQ PUSH2 0x94 JUMPI JUMPDEST PUSH1 0x0 DUP1 REVERT JUMPDEST PUSH2 0x4E PUSH2 0xC4 JUMP JUMPDEST PUSH1 0x40 MLOAD PUSH2 0x5B SWAP2 SWAP1 PUSH2 0x192 JUMP JUMPDEST PUSH1 0x40 MLOAD DUP1 SWAP2 SUB SWAP1 RETURN JUMPDEST PUSH2 0x7E PUSH1 0x4 DUP1 CALLDATASIZE SUB DUP2 ADD SWAP1 PUSH2 0x79 SWAP2 SWAP1 PUSH2 0x116 JUMP JUMPDEST PUSH2 0xCA JUMP JUMPDEST PUSH1 0x40 MLOAD PUSH2 0x8B SWAP2 SWAP1 PUSH2 0x192 JUMP JUMPDEST PUSH1 0x40 MLOAD DUP1 SWAP2 SUB SWAP1 RETURN JUMPDEST PUSH2 0xAE PUSH1 0x4 DUP1 CALLDATASIZE SUB DUP2 ADD SWAP1 PUSH2 0xA9 SWAP2 SWAP1 PUSH2 0x143 JUMP JUMPDEST PUSH2 0xE6 JUMP JUMPDEST PUSH1 0x40 MLOAD PUSH2 0xBB SWAP2 SWAP1 PUSH2 0x192 JUMP JUMPDEST PUSH1 0x40 MLOAD DUP1 SWAP2 SUB SWAP1 RETURN JUMPDEST PUSH1 0x0 SLOAD DUP2 JUMP JUMPDEST PUSH1 0x0 DUP1 DUP3 PUSH1 0x0 SLOAD PUSH2 0xDB SWAP2 SWAP1 PUSH2 0x1AD JUMP JUMPDEST SWAP1 POP DUP1 SWAP2 POP POP SWAP2 SWAP1 POP JUMP JUMPDEST PUSH1 0x0 DUP1 DUP3 DUP5 PUSH2 0xF5 SWAP2 SWAP1 PUSH2 0x1AD JUMP JUMPDEST SWAP1 POP DUP1 SWAP2 POP POP SWAP3 SWAP2 POP POP JUMP JUMPDEST PUSH1 0x0 DUP2 CALLDATALOAD SWAP1 POP PUSH2 0x110 DUP2 PUSH2 0x241 JUMP JUMPDEST SWAP3 SWAP2 POP POP JUMP JUMPDEST PUSH1 0x0 PUSH1 0x20 DUP3 DUP5 SUB SLT ISZERO PUSH2 0x12C JUMPI PUSH2 0x12B PUSH2 0x23C JUMP JUMPDEST JUMPDEST PUSH1 0x0 PUSH2 0x13A DUP5 DUP3 DUP6 ADD PUSH2 0x101 JUMP JUMPDEST SWAP2 POP POP SWAP3 SWAP2 POP POP JUMP JUMPDEST PUSH1 0x0 DUP1 PUSH1 0x40 DUP4 DUP6 SUB SLT ISZERO PUSH2 0x15A JUMPI PUSH2 0x159 PUSH2 0x23C JUMP JUMPDEST JUMPDEST PUSH1 0x0 PUSH2 0x168 DUP6 DUP3 DUP7 ADD PUSH2 0x101 JUMP JUMPDEST SWAP3 POP POP PUSH1 0x20 PUSH2 0x179 DUP6 DUP3 DUP7 ADD PUSH2 0x101 JUMP JUMPDEST SWAP2 POP POP SWAP3 POP SWAP3 SWAP1 POP JUMP JUMPDEST PUSH2 0x18C DUP2 PUSH2 0x203 JUMP JUMPDEST DUP3 MSTORE POP POP JUMP JUMPDEST PUSH1 0x0 PUSH1 0x20 DUP3 ADD SWAP1 POP PUSH2 0x1A7 PUSH1 0x0 DUP4 ADD DUP5 PUSH2 0x183 JUMP JUMPDEST SWAP3 SWAP2 POP POP JUMP JUMPDEST PUSH1 0x0 PUSH2 0x1B8 DUP3 PUSH2 0x203 JUMP JUMPDEST SWAP2 POP PUSH2 0x1C3 DUP4 PUSH2 0x203 JUMP JUMPDEST SWAP3 POP DUP3 PUSH32 0xFFFFFFFFFFFFFFFFFFFFFFFFFFFFFFFFFFFFFFFFFFFFFFFFFFFFFFFFFFFFFFFF SUB DUP3 GT ISZERO PUSH2 0x1F8 JUMPI PUSH2 0x1F7 PUSH2 0x20D JUMP JUMPDEST JUMPDEST DUP3 DUP3 ADD SWAP1 POP SWAP3 SWAP2 POP POP JUMP JUMPDEST PUSH1 0x0 DUP2 SWAP1 POP SWAP2 SWAP1 POP JUMP JUMPDEST PUSH32 0x4E487B7100000000000000000000000000000000000000000000000000000000 PUSH1 0x0 MSTORE PUSH1 0x11 PUSH1 0x4 MSTORE PUSH1 0x24 PUSH1 0x0 REVERT JUMPDEST PUSH1 0x0 DUP1 REVERT JUMPDEST PUSH2 0x24A DUP2 PUSH2 0x203 JUMP JUMPDEST DUP2 EQ PUSH2 0x255 JUMPI PUSH1 0x0 DUP1 REVERT JUMPDEST POP JUMP INVALID LOG2 PUSH5 0x6970667358 0x22 SLT KECCAK256 0xDC 0xA9 PUSH28 0x368723BB2166E4426FE207DBAC5251F4C76F5916F78535947B2CFDD1 0xBD PUSH5 0x736F6C6343 STOP ADDMOD MOD STOP CALLER "
				},
				"gasEstimates": {
					"creation": {
						"codeDepositCost": "130800",
						"executionCost": "22283",
						"totalCost": "153083"
					},
					"external": {
						"AddX(uint256,uint256)": "infinite",
						"addX(uint256)": "infinite",
						"x()": "2407"
					}
				},
				"methodIdentifiers": {
					"AddX(uint256,uint256)": "bfd6196d",
					"addX(uint256)": "36d3dc4b",
					"x()": "0c55699c"
				}
			},
			"storageLayout": {
				"storage": [
					{
						"astId": 4,
						"contract": "contracts/viewpurediff.sol:ViewPure",
						"label": "x",
						"offset": 0,
						"slot": "0",
						"type": "t_uint256"
					}
				],
				"types": {
					"t_uint256": {
						"encoding": "inplace",
						"label": "uint256",
						"numberOfBytes": "32"
					}
				}
			},
			"userdoc": {
				"kind": "user",
				"methods": {},
				"version": 1
			}
		}
	}
}