{
	"contracts/Error.sol": {
		"A": {
			"abi": [
				{
					"inputs": [
						{
							"internalType": "uint256",
							"name": "x",
							"type": "uint256"
						}
					],
					"name": "doSomething",
					"outputs": [],
					"stateMutability": "nonpayable",
					"type": "function"
				}
			],
			"devdoc": {
				"kind": "dev",
				"methods": {},
				"version": 1
			},
			"evm": {
				"assembly": "    /* \"contracts/Error.sol\":58:218  contract A\r... */\n  mstore(0x40, 0x80)\n  callvalue\n  dup1\n  iszero\n  tag_1\n  jumpi\n  0x00\n  dup1\n  revert\ntag_1:\n  pop\n  dataSize(sub_0)\n  dup1\n  dataOffset(sub_0)\n  0x00\n  codecopy\n  0x00\n  return\nstop\n\nsub_0: assembly {\n        /* \"contracts/Error.sol\":58:218  contract A\r... */\n      mstore(0x40, 0x80)\n      callvalue\n      dup1\n      iszero\n      tag_1\n      jumpi\n      0x00\n      dup1\n      revert\n    tag_1:\n      pop\n      jumpi(tag_2, lt(calldatasize, 0x04))\n      shr(0xe0, calldataload(0x00))\n      dup1\n      0xa6b206bf\n      eq\n      tag_3\n      jumpi\n    tag_2:\n      0x00\n      dup1\n      revert\n        /* \"contracts/Error.sol\":77:215  function doSomething(uint x) external\r... */\n    tag_3:\n      tag_4\n      0x04\n      dup1\n      calldatasize\n      sub\n      dup2\n      add\n      swap1\n      tag_5\n      swap2\n      swap1\n      tag_6\n      jump\t// in\n    tag_5:\n      tag_7\n      jump\t// in\n    tag_4:\n      stop\n    tag_7:\n        /* \"contracts/Error.sol\":136:138  10 */\n      0x0a\n        /* \"contracts/Error.sol\":134:135  x */\n      dup2\n        /* \"contracts/Error.sol\":134:138  x>10 */\n      gt\n        /* \"contracts/Error.sol\":131:208  if(x>10)\r... */\n      iszero\n      tag_9\n      jumpi\n        /* \"contracts/Error.sol\":165:196  revert(\"do somthing is called\") */\n      mload(0x40)\n      0x08c379a000000000000000000000000000000000000000000000000000000000\n      dup2\n      mstore\n      0x04\n      add\n      tag_10\n      swap1\n      tag_11\n      jump\t// in\n    tag_10:\n      mload(0x40)\n      dup1\n      swap2\n      sub\n      swap1\n      revert\n        /* \"contracts/Error.sol\":131:208  if(x>10)\r... */\n    tag_9:\n        /* \"contracts/Error.sol\":77:215  function doSomething(uint x) external\r... */\n      pop\n      jump\t// out\n        /* \"#utility.yul\":7:146   */\n    tag_13:\n        /* \"#utility.yul\":53:58   */\n      0x00\n        /* \"#utility.yul\":91:97   */\n      dup2\n        /* \"#utility.yul\":78:98   */\n      calldataload\n        /* \"#utility.yul\":69:98   */\n      swap1\n      pop\n        /* \"#utility.yul\":107:140   */\n      tag_15\n        /* \"#utility.yul\":134:139   */\n      dup2\n        /* \"#utility.yul\":107:140   */\n      tag_16\n      jump\t// in\n    tag_15:\n        /* \"#utility.yul\":7:146   */\n      swap3\n      swap2\n      pop\n      pop\n      jump\t// out\n        /* \"#utility.yul\":152:481   */\n    tag_6:\n        /* \"#utility.yul\":211:217   */\n      0x00\n        /* \"#utility.yul\":260:262   */\n      0x20\n        /* \"#utility.yul\":248:257   */\n      dup3\n        /* \"#utility.yul\":239:246   */\n      dup5\n        /* \"#utility.yul\":235:258   */\n      sub\n        /* \"#utility.yul\":231:263   */\n      slt\n        /* \"#utility.yul\":228:347   */\n      iszero\n      tag_18\n      jumpi\n        /* \"#utility.yul\":266:345   */\n      tag_19\n      tag_20\n      jump\t// in\n    tag_19:\n        /* \"#utility.yul\":228:347   */\n    tag_18:\n        /* \"#utility.yul\":386:387   */\n      0x00\n        /* \"#utility.yul\":411:464   */\n      tag_21\n        /* \"#utility.yul\":456:463   */\n      dup5\n        /* \"#utility.yul\":447:453   */\n      dup3\n        /* \"#utility.yul\":436:445   */\n      dup6\n        /* \"#utility.yul\":432:454   */\n      add\n        /* \"#utility.yul\":411:464   */\n      tag_13\n      jump\t// in\n    tag_21:\n        /* \"#utility.yul\":401:464   */\n      swap2\n      pop\n        /* \"#utility.yul\":357:474   */\n      pop\n        /* \"#utility.yul\":152:481   */\n      swap3\n      swap2\n      pop\n      pop\n      jump\t// out\n        /* \"#utility.yul\":487:853   */\n    tag_22:\n        /* \"#utility.yul\":629:632   */\n      0x00\n        /* \"#utility.yul\":650:717   */\n      tag_24\n        /* \"#utility.yul\":714:716   */\n      0x15\n        /* \"#utility.yul\":709:712   */\n      dup4\n        /* \"#utility.yul\":650:717   */\n      tag_25\n      jump\t// in\n    tag_24:\n        /* \"#utility.yul\":643:717   */\n      swap2\n      pop\n        /* \"#utility.yul\":726:819   */\n      tag_26\n        /* \"#utility.yul\":815:818   */\n      dup3\n        /* \"#utility.yul\":726:819   */\n      tag_27\n      jump\t// in\n    tag_26:\n        /* \"#utility.yul\":844:846   */\n      0x20\n        /* \"#utility.yul\":839:842   */\n      dup3\n        /* \"#utility.yul\":835:847   */\n      add\n        /* \"#utility.yul\":828:847   */\n      swap1\n      pop\n        /* \"#utility.yul\":487:853   */\n      swap2\n      swap1\n      pop\n      jump\t// out\n        /* \"#utility.yul\":859:1278   */\n    tag_11:\n        /* \"#utility.yul\":1025:1029   */\n      0x00\n        /* \"#utility.yul\":1063:1065   */\n      0x20\n        /* \"#utility.yul\":1052:1061   */\n      dup3\n        /* \"#utility.yul\":1048:1066   */\n      add\n        /* \"#utility.yul\":1040:1066   */\n      swap1\n      pop\n        /* \"#utility.yul\":1112:1121   */\n      dup2\n        /* \"#utility.yul\":1106:1110   */\n      dup2\n        /* \"#utility.yul\":1102:1122   */\n      sub\n        /* \"#utility.yul\":1098:1099   */\n      0x00\n        /* \"#utility.yul\":1087:1096   */\n      dup4\n        /* \"#utility.yul\":1083:1100   */\n      add\n        /* \"#utility.yul\":1076:1123   */\n      mstore\n        /* \"#utility.yul\":1140:1271   */\n      tag_29\n        /* \"#utility.yul\":1266:1270   */\n      dup2\n        /* \"#utility.yul\":1140:1271   */\n      tag_22\n      jump\t// in\n    tag_29:\n        /* \"#utility.yul\":1132:1271   */\n      swap1\n      pop\n        /* \"#utility.yul\":859:1278   */\n      swap2\n      swap1\n      pop\n      jump\t// out\n        /* \"#utility.yul\":1365:1534   */\n    tag_25:\n        /* \"#utility.yul\":1449:1460   */\n      0x00\n        /* \"#utility.yul\":1483:1489   */\n      dup3\n        /* \"#utility.yul\":1478:1481   */\n      dup3\n        /* \"#utility.yul\":1471:1490   */\n      mstore\n        /* \"#utility.yul\":1523:1527   */\n      0x20\n        /* \"#utility.yul\":1518:1521   */\n      dup3\n        /* \"#utility.yul\":1514:1528   */\n      add\n        /* \"#utility.yul\":1499:1528   */\n      swap1\n      pop\n        /* \"#utility.yul\":1365:1534   */\n      swap3\n      swap2\n      pop\n      pop\n      jump\t// out\n        /* \"#utility.yul\":1540:1617   */\n    tag_33:\n        /* \"#utility.yul\":1577:1584   */\n      0x00\n        /* \"#utility.yul\":1606:1611   */\n      dup2\n        /* \"#utility.yul\":1595:1611   */\n      swap1\n      pop\n        /* \"#utility.yul\":1540:1617   */\n      swap2\n      swap1\n      pop\n      jump\t// out\n        /* \"#utility.yul\":1746:1863   */\n    tag_20:\n        /* \"#utility.yul\":1855:1856   */\n      0x00\n        /* \"#utility.yul\":1852:1853   */\n      dup1\n        /* \"#utility.yul\":1845:1857   */\n      revert\n        /* \"#utility.yul\":1869:2040   */\n    tag_27:\n        /* \"#utility.yul\":2009:2032   */\n      0x646f20736f6d7468696e672069732063616c6c65640000000000000000000000\n        /* \"#utility.yul\":2005:2006   */\n      0x00\n        /* \"#utility.yul\":1997:2003   */\n      dup3\n        /* \"#utility.yul\":1993:2007   */\n      add\n        /* \"#utility.yul\":1986:2033   */\n      mstore\n        /* \"#utility.yul\":1869:2040   */\n      pop\n      jump\t// out\n        /* \"#utility.yul\":2046:2168   */\n    tag_16:\n        /* \"#utility.yul\":2119:2143   */\n      tag_40\n        /* \"#utility.yul\":2137:2142   */\n      dup2\n        /* \"#utility.yul\":2119:2143   */\n      tag_33\n      jump\t// in\n    tag_40:\n        /* \"#utility.yul\":2112:2117   */\n      dup2\n        /* \"#utility.yul\":2109:2144   */\n      eq\n        /* \"#utility.yul\":2099:2162   */\n      tag_41\n      jumpi\n        /* \"#utility.yul\":2158:2159   */\n      0x00\n        /* \"#utility.yul\":2155:2156   */\n      dup1\n        /* \"#utility.yul\":2148:2160   */\n      revert\n        /* \"#utility.yul\":2099:2162   */\n    tag_41:\n        /* \"#utility.yul\":2046:2168   */\n      pop\n      jump\t// out\n\n    auxdata: 0xa264697066735822122082f31ef23eeb6656c7673780536f5df3684121ed4768bb4263c5764e84fd695564736f6c63430008070033\n}\n",
				"bytecode": {
					"linkReferences": {},
					"object": "608060405234801561001057600080fd5b506101ae806100206000396000f3fe608060405234801561001057600080fd5b506004361061002b5760003560e01c8063a6b206bf14610030575b600080fd5b61004a600480360381019061004591906100a8565b61004c565b005b600a811115610090576040517f08c379a0000000000000000000000000000000000000000000000000000000008152600401610087906100f8565b60405180910390fd5b50565b6000813590506100a281610161565b92915050565b6000602082840312156100be576100bd610133565b5b60006100cc84828501610093565b91505092915050565b60006100e2601583610118565b91506100ed82610138565b602082019050919050565b60006020820190508181036000830152610111816100d5565b9050919050565b600082825260208201905092915050565b6000819050919050565b600080fd5b7f646f20736f6d7468696e672069732063616c6c65640000000000000000000000600082015250565b61016a81610129565b811461017557600080fd5b5056fea264697066735822122082f31ef23eeb6656c7673780536f5df3684121ed4768bb4263c5764e84fd695564736f6c63430008070033",
					"opcodes": "PUSH1 0x80 PUSH1 0x40 MSTORE CALLVALUE DUP1 ISZERO PUSH2 0x10 JUMPI PUSH1 0x0 DUP1 REVERT JUMPDEST POP PUSH2 0x1AE DUP1 PUSH2 0x20 PUSH1 0x0 CODECOPY PUSH1 0x0 RETURN INVALID PUSH1 0x80 PUSH1 0x40 MSTORE CALLVALUE DUP1 ISZERO PUSH2 0x10 JUMPI PUSH1 0x0 DUP1 REVERT JUMPDEST POP PUSH1 0x4 CALLDATASIZE LT PUSH2 0x2B JUMPI PUSH1 0x0 CALLDATALOAD PUSH1 0xE0 SHR DUP1 PUSH4 0xA6B206BF EQ PUSH2 0x30 JUMPI JUMPDEST PUSH1 0x0 DUP1 REVERT JUMPDEST PUSH2 0x4A PUSH1 0x4 DUP1 CALLDATASIZE SUB DUP2 ADD SWAP1 PUSH2 0x45 SWAP2 SWAP1 PUSH2 0xA8 JUMP JUMPDEST PUSH2 0x4C JUMP JUMPDEST STOP JUMPDEST PUSH1 0xA DUP2 GT ISZERO PUSH2 0x90 JUMPI PUSH1 0x40 MLOAD PUSH32 0x8C379A000000000000000000000000000000000000000000000000000000000 DUP2 MSTORE PUSH1 0x4 ADD PUSH2 0x87 SWAP1 PUSH2 0xF8 JUMP JUMPDEST PUSH1 0x40 MLOAD DUP1 SWAP2 SUB SWAP1 REVERT JUMPDEST POP JUMP JUMPDEST PUSH1 0x0 DUP2 CALLDATALOAD SWAP1 POP PUSH2 0xA2 DUP2 PUSH2 0x161 JUMP JUMPDEST SWAP3 SWAP2 POP POP JUMP JUMPDEST PUSH1 0x0 PUSH1 0x20 DUP3 DUP5 SUB SLT ISZERO PUSH2 0xBE JUMPI PUSH2 0xBD PUSH2 0x133 JUMP JUMPDEST JUMPDEST PUSH1 0x0 PUSH2 0xCC DUP5 DUP3 DUP6 ADD PUSH2 0x93 JUMP JUMPDEST SWAP2 POP POP SWAP3 SWAP2 POP POP JUMP JUMPDEST PUSH1 0x0 PUSH2 0xE2 PUSH1 0x15 DUP4 PUSH2 0x118 JUMP JUMPDEST SWAP2 POP PUSH2 0xED DUP3 PUSH2 0x138 JUMP JUMPDEST PUSH1 0x20 DUP3 ADD SWAP1 POP SWAP2 SWAP1 POP JUMP JUMPDEST PUSH1 0x0 PUSH1 0x20 DUP3 ADD SWAP1 POP DUP2 DUP2 SUB PUSH1 0x0 DUP4 ADD MSTORE PUSH2 0x111 DUP2 PUSH2 0xD5 JUMP JUMPDEST SWAP1 POP SWAP2 SWAP1 POP JUMP JUMPDEST PUSH1 0x0 DUP3 DUP3 MSTORE PUSH1 0x20 DUP3 ADD SWAP1 POP SWAP3 SWAP2 POP POP JUMP JUMPDEST PUSH1 0x0 DUP2 SWAP1 POP SWAP2 SWAP1 POP JUMP JUMPDEST PUSH1 0x0 DUP1 REVERT JUMPDEST PUSH32 0x646F20736F6D7468696E672069732063616C6C65640000000000000000000000 PUSH1 0x0 DUP3 ADD MSTORE POP JUMP JUMPDEST PUSH2 0x16A DUP2 PUSH2 0x129 JUMP JUMPDEST DUP2 EQ PUSH2 0x175 JUMPI PUSH1 0x0 DUP1 REVERT JUMPDEST POP JUMP INVALID LOG2 PUSH5 0x6970667358 0x22 SLT KECCAK256 DUP3 RETURN 0x1E CALLCODE RETURNDATACOPY 0xEB PUSH7 0x56C7673780536F 0x5D RETURN PUSH9 0x4121ED4768BB4263C5 PUSH23 0x4E84FD695564736F6C6343000807003300000000000000 "
				},
				"gasEstimates": {
					"creation": {
						"codeDepositCost": "86000",
						"executionCost": "135",
						"totalCost": "86135"
					},
					"external": {
						"doSomething(uint256)": "697"
					}
				},
				"methodIdentifiers": {
					"doSomething(uint256)": "a6b206bf"
				}
			},
			"storageLayout": {
				"storage": [],
				"types": null
			},
			"userdoc": {
				"kind": "user",
				"methods": {},
				"version": 1
			}
		}
	}
}