{
	"contracts/AbiEncodingDecoding.sol": {
		"EncodingDeconding": {
			"abi": [
				{
					"inputs": [
						{
							"internalType": "bytes",
							"name": "data",
							"type": "bytes"
						}
					],
					"name": "deCode",
					"outputs": [
						{
							"internalType": "string",
							"name": "_str1",
							"type": "string"
						},
						{
							"internalType": "uint256",
							"name": "_int",
							"type": "uint256"
						},
						{
							"internalType": "string",
							"name": "_str2",
							"type": "string"
						}
					],
					"stateMutability": "pure",
					"type": "function"
				},
				{
					"inputs": [
						{
							"internalType": "bytes",
							"name": "data",
							"type": "bytes"
						}
					],
					"name": "deCode2",
					"outputs": [
						{
							"internalType": "string",
							"name": "_str",
							"type": "string"
						}
					],
					"stateMutability": "pure",
					"type": "function"
				},
				{
					"inputs": [
						{
							"internalType": "string",
							"name": "_str1",
							"type": "string"
						},
						{
							"internalType": "uint256",
							"name": "_int",
							"type": "uint256"
						},
						{
							"internalType": "string",
							"name": "_str2",
							"type": "string"
						}
					],
					"name": "encode",
					"outputs": [
						{
							"internalType": "bytes",
							"name": "",
							"type": "bytes"
						}
					],
					"stateMutability": "pure",
					"type": "function"
				}
			],
			"devdoc": {
				"kind": "dev",
				"methods": {},
				"version": 1
			},
			"evm": {
				"assembly": "    /* \"contracts/AbiEncodingDecoding.sol\":56:596  contract EncodingDeconding\r... */\n  mstore(0x40, 0x80)\n  callvalue\n  dup1\n  iszero\n  tag_1\n  jumpi\n  0x00\n  dup1\n  revert\ntag_1:\n  pop\n  dataSize(sub_0)\n  dup1\n  dataOffset(sub_0)\n  0x00\n  codecopy\n  0x00\n  return\nstop\n\nsub_0: assembly {\n        /* \"contracts/AbiEncodingDecoding.sol\":56:596  contract EncodingDeconding\r... */\n      mstore(0x40, 0x80)\n      callvalue\n      dup1\n      iszero\n      tag_1\n      jumpi\n      0x00\n      dup1\n      revert\n    tag_1:\n      pop\n      jumpi(tag_2, lt(calldatasize, 0x04))\n      shr(0xe0, calldataload(0x00))\n      dup1\n      0x3b7fa265\n      eq\n      tag_3\n      jumpi\n      dup1\n      0x3d9c6d4f\n      eq\n      tag_4\n      jumpi\n      dup1\n      0xd097af29\n      eq\n      tag_5\n      jumpi\n    tag_2:\n      0x00\n      dup1\n      revert\n        /* \"contracts/AbiEncodingDecoding.sol\":91:251  function encode(string memory _str1,uint _int,string memory _str2)public pure returns(bytes memory)\r... */\n    tag_3:\n      tag_6\n      0x04\n      dup1\n      calldatasize\n      sub\n      dup2\n      add\n      swap1\n      tag_7\n      swap2\n      swap1\n      tag_8\n      jump\t// in\n    tag_7:\n      tag_9\n      jump\t// in\n    tag_6:\n      mload(0x40)\n      tag_10\n      swap2\n      swap1\n      tag_11\n      jump\t// in\n    tag_10:\n      mload(0x40)\n      dup1\n      swap2\n      sub\n      swap1\n      return\n        /* \"contracts/AbiEncodingDecoding.sol\":455:593  function deCode2(bytes  memory data) public pure returns(string memory _str)\r... */\n    tag_4:\n      tag_12\n      0x04\n      dup1\n      calldatasize\n      sub\n      dup2\n      add\n      swap1\n      tag_13\n      swap2\n      swap1\n      tag_14\n      jump\t// in\n    tag_13:\n      tag_15\n      jump\t// in\n    tag_12:\n      mload(0x40)\n      tag_16\n      swap2\n      swap1\n      tag_17\n      jump\t// in\n    tag_16:\n      mload(0x40)\n      dup1\n      swap2\n      sub\n      swap1\n      return\n        /* \"contracts/AbiEncodingDecoding.sol\":258:448  function deCode(bytes  memory data) public pure returns(string memory _str1,uint _int,string memory _str2)\r... */\n    tag_5:\n      tag_18\n      0x04\n      dup1\n      calldatasize\n      sub\n      dup2\n      add\n      swap1\n      tag_19\n      swap2\n      swap1\n      tag_14\n      jump\t// in\n    tag_19:\n      tag_20\n      jump\t// in\n    tag_18:\n      mload(0x40)\n      tag_21\n      swap4\n      swap3\n      swap2\n      swap1\n      tag_22\n      jump\t// in\n    tag_21:\n      mload(0x40)\n      dup1\n      swap2\n      sub\n      swap1\n      return\n        /* \"contracts/AbiEncodingDecoding.sol\":91:251  function encode(string memory _str1,uint _int,string memory _str2)public pure returns(bytes memory)\r... */\n    tag_9:\n        /* \"contracts/AbiEncodingDecoding.sol\":177:189  bytes memory */\n      0x60\n        /* \"contracts/AbiEncodingDecoding.sol\":225:230  _str1 */\n      dup4\n        /* \"contracts/AbiEncodingDecoding.sol\":231:235  _int */\n      dup4\n        /* \"contracts/AbiEncodingDecoding.sol\":236:241  _str2 */\n      dup4\n        /* \"contracts/AbiEncodingDecoding.sol\":214:242  abi.encode(_str1,_int,_str2) */\n      add(0x20, mload(0x40))\n      tag_24\n      swap4\n      swap3\n      swap2\n      swap1\n      tag_22\n      jump\t// in\n    tag_24:\n      mload(0x40)\n      0x20\n      dup2\n      dup4\n      sub\n      sub\n      dup2\n      mstore\n      swap1\n      0x40\n      mstore\n        /* \"contracts/AbiEncodingDecoding.sol\":207:243  return(abi.encode(_str1,_int,_str2)) */\n      swap1\n      pop\n        /* \"contracts/AbiEncodingDecoding.sol\":91:251  function encode(string memory _str1,uint _int,string memory _str2)public pure returns(bytes memory)\r... */\n      swap4\n      swap3\n      pop\n      pop\n      pop\n      jump\t// out\n        /* \"contracts/AbiEncodingDecoding.sol\":455:593  function deCode2(bytes  memory data) public pure returns(string memory _str)\r... */\n    tag_15:\n        /* \"contracts/AbiEncodingDecoding.sol\":512:530  string memory _str */\n      0x60\n        /* \"contracts/AbiEncodingDecoding.sol\":569:573  data */\n      dup2\n        /* \"contracts/AbiEncodingDecoding.sol\":558:583  abi.decode(data,(string)) */\n      dup1\n      0x20\n      add\n      swap1\n      mload\n      dup2\n      add\n      swap1\n      tag_26\n      swap2\n      swap1\n      tag_27\n      jump\t// in\n    tag_26:\n        /* \"contracts/AbiEncodingDecoding.sol\":550:584  return (abi.decode(data,(string))) */\n      swap1\n      pop\n        /* \"contracts/AbiEncodingDecoding.sol\":455:593  function deCode2(bytes  memory data) public pure returns(string memory _str)\r... */\n      swap2\n      swap1\n      pop\n      jump\t// out\n        /* \"contracts/AbiEncodingDecoding.sol\":258:448  function deCode(bytes  memory data) public pure returns(string memory _str1,uint _int,string memory _str2)\r... */\n    tag_20:\n        /* \"contracts/AbiEncodingDecoding.sol\":314:333  string memory _str1 */\n      0x60\n        /* \"contracts/AbiEncodingDecoding.sol\":334:343  uint _int */\n      0x00\n        /* \"contracts/AbiEncodingDecoding.sol\":344:363  string memory _str2 */\n      0x60\n        /* \"contracts/AbiEncodingDecoding.sol\":413:417  data */\n      dup4\n        /* \"contracts/AbiEncodingDecoding.sol\":402:439  abi.decode(data,(string,uint,string)) */\n      dup1\n      0x20\n      add\n      swap1\n      mload\n      dup2\n      add\n      swap1\n      tag_29\n      swap2\n      swap1\n      tag_30\n      jump\t// in\n    tag_29:\n        /* \"contracts/AbiEncodingDecoding.sol\":383:439  (_str1,_int,_str2)=abi.decode(data,(string,uint,string)) */\n      dup1\n      swap4\n      pop\n      dup2\n      swap5\n      pop\n      dup3\n      swap6\n      pop\n      pop\n      pop\n      pop\n        /* \"contracts/AbiEncodingDecoding.sol\":258:448  function deCode(bytes  memory data) public pure returns(string memory _str1,uint _int,string memory _str2)\r... */\n      swap2\n      swap4\n      swap1\n      swap3\n      pop\n      jump\t// out\n        /* \"#utility.yul\":7:417   */\n    tag_32:\n        /* \"#utility.yul\":84:89   */\n      0x00\n        /* \"#utility.yul\":109:174   */\n      tag_34\n        /* \"#utility.yul\":125:173   */\n      tag_35\n        /* \"#utility.yul\":166:172   */\n      dup5\n        /* \"#utility.yul\":125:173   */\n      tag_36\n      jump\t// in\n    tag_35:\n        /* \"#utility.yul\":109:174   */\n      tag_37\n      jump\t// in\n    tag_34:\n        /* \"#utility.yul\":100:174   */\n      swap1\n      pop\n        /* \"#utility.yul\":197:203   */\n      dup3\n        /* \"#utility.yul\":190:195   */\n      dup2\n        /* \"#utility.yul\":183:204   */\n      mstore\n        /* \"#utility.yul\":235:239   */\n      0x20\n        /* \"#utility.yul\":228:233   */\n      dup2\n        /* \"#utility.yul\":224:240   */\n      add\n        /* \"#utility.yul\":273:276   */\n      dup5\n        /* \"#utility.yul\":264:270   */\n      dup5\n        /* \"#utility.yul\":259:262   */\n      dup5\n        /* \"#utility.yul\":255:271   */\n      add\n        /* \"#utility.yul\":252:277   */\n      gt\n        /* \"#utility.yul\":249:361   */\n      iszero\n      tag_38\n      jumpi\n        /* \"#utility.yul\":280:359   */\n      tag_39\n      tag_40\n      jump\t// in\n    tag_39:\n        /* \"#utility.yul\":249:361   */\n    tag_38:\n        /* \"#utility.yul\":370:411   */\n      tag_41\n        /* \"#utility.yul\":404:410   */\n      dup5\n        /* \"#utility.yul\":399:402   */\n      dup3\n        /* \"#utility.yul\":394:397   */\n      dup6\n        /* \"#utility.yul\":370:411   */\n      tag_42\n      jump\t// in\n    tag_41:\n        /* \"#utility.yul\":90:417   */\n      pop\n        /* \"#utility.yul\":7:417   */\n      swap4\n      swap3\n      pop\n      pop\n      pop\n      jump\t// out\n        /* \"#utility.yul\":423:835   */\n    tag_43:\n        /* \"#utility.yul\":501:506   */\n      0x00\n        /* \"#utility.yul\":526:592   */\n      tag_45\n        /* \"#utility.yul\":542:591   */\n      tag_46\n        /* \"#utility.yul\":584:590   */\n      dup5\n        /* \"#utility.yul\":542:591   */\n      tag_47\n      jump\t// in\n    tag_46:\n        /* \"#utility.yul\":526:592   */\n      tag_37\n      jump\t// in\n    tag_45:\n        /* \"#utility.yul\":517:592   */\n      swap1\n      pop\n        /* \"#utility.yul\":615:621   */\n      dup3\n        /* \"#utility.yul\":608:613   */\n      dup2\n        /* \"#utility.yul\":601:622   */\n      mstore\n        /* \"#utility.yul\":653:657   */\n      0x20\n        /* \"#utility.yul\":646:651   */\n      dup2\n        /* \"#utility.yul\":642:658   */\n      add\n        /* \"#utility.yul\":691:694   */\n      dup5\n        /* \"#utility.yul\":682:688   */\n      dup5\n        /* \"#utility.yul\":677:680   */\n      dup5\n        /* \"#utility.yul\":673:689   */\n      add\n        /* \"#utility.yul\":670:695   */\n      gt\n        /* \"#utility.yul\":667:779   */\n      iszero\n      tag_48\n      jumpi\n        /* \"#utility.yul\":698:777   */\n      tag_49\n      tag_40\n      jump\t// in\n    tag_49:\n        /* \"#utility.yul\":667:779   */\n    tag_48:\n        /* \"#utility.yul\":788:829   */\n      tag_50\n        /* \"#utility.yul\":822:828   */\n      dup5\n        /* \"#utility.yul\":817:820   */\n      dup3\n        /* \"#utility.yul\":812:815   */\n      dup6\n        /* \"#utility.yul\":788:829   */\n      tag_42\n      jump\t// in\n    tag_50:\n        /* \"#utility.yul\":507:835   */\n      pop\n        /* \"#utility.yul\":423:835   */\n      swap4\n      swap3\n      pop\n      pop\n      pop\n      jump\t// out\n        /* \"#utility.yul\":841:1262   */\n    tag_51:\n        /* \"#utility.yul\":930:935   */\n      0x00\n        /* \"#utility.yul\":955:1021   */\n      tag_53\n        /* \"#utility.yul\":971:1020   */\n      tag_54\n        /* \"#utility.yul\":1013:1019   */\n      dup5\n        /* \"#utility.yul\":971:1020   */\n      tag_47\n      jump\t// in\n    tag_54:\n        /* \"#utility.yul\":955:1021   */\n      tag_37\n      jump\t// in\n    tag_53:\n        /* \"#utility.yul\":946:1021   */\n      swap1\n      pop\n        /* \"#utility.yul\":1044:1050   */\n      dup3\n        /* \"#utility.yul\":1037:1042   */\n      dup2\n        /* \"#utility.yul\":1030:1051   */\n      mstore\n        /* \"#utility.yul\":1082:1086   */\n      0x20\n        /* \"#utility.yul\":1075:1080   */\n      dup2\n        /* \"#utility.yul\":1071:1087   */\n      add\n        /* \"#utility.yul\":1120:1123   */\n      dup5\n        /* \"#utility.yul\":1111:1117   */\n      dup5\n        /* \"#utility.yul\":1106:1109   */\n      dup5\n        /* \"#utility.yul\":1102:1118   */\n      add\n        /* \"#utility.yul\":1099:1124   */\n      gt\n        /* \"#utility.yul\":1096:1208   */\n      iszero\n      tag_55\n      jumpi\n        /* \"#utility.yul\":1127:1206   */\n      tag_56\n      tag_40\n      jump\t// in\n    tag_56:\n        /* \"#utility.yul\":1096:1208   */\n    tag_55:\n        /* \"#utility.yul\":1217:1256   */\n      tag_57\n        /* \"#utility.yul\":1249:1255   */\n      dup5\n        /* \"#utility.yul\":1244:1247   */\n      dup3\n        /* \"#utility.yul\":1239:1242   */\n      dup6\n        /* \"#utility.yul\":1217:1256   */\n      tag_58\n      jump\t// in\n    tag_57:\n        /* \"#utility.yul\":936:1262   */\n      pop\n        /* \"#utility.yul\":841:1262   */\n      swap4\n      swap3\n      pop\n      pop\n      pop\n      jump\t// out\n        /* \"#utility.yul\":1281:1619   */\n    tag_59:\n        /* \"#utility.yul\":1336:1341   */\n      0x00\n        /* \"#utility.yul\":1385:1388   */\n      dup3\n        /* \"#utility.yul\":1378:1382   */\n      0x1f\n        /* \"#utility.yul\":1370:1376   */\n      dup4\n        /* \"#utility.yul\":1366:1383   */\n      add\n        /* \"#utility.yul\":1362:1389   */\n      slt\n        /* \"#utility.yul\":1352:1474   */\n      tag_61\n      jumpi\n        /* \"#utility.yul\":1393:1472   */\n      tag_62\n      tag_63\n      jump\t// in\n    tag_62:\n        /* \"#utility.yul\":1352:1474   */\n    tag_61:\n        /* \"#utility.yul\":1510:1516   */\n      dup2\n        /* \"#utility.yul\":1497:1517   */\n      calldataload\n        /* \"#utility.yul\":1535:1613   */\n      tag_64\n        /* \"#utility.yul\":1609:1612   */\n      dup5\n        /* \"#utility.yul\":1601:1607   */\n      dup3\n        /* \"#utility.yul\":1594:1598   */\n      0x20\n        /* \"#utility.yul\":1586:1592   */\n      dup7\n        /* \"#utility.yul\":1582:1599   */\n      add\n        /* \"#utility.yul\":1535:1613   */\n      tag_32\n      jump\t// in\n    tag_64:\n        /* \"#utility.yul\":1526:1613   */\n      swap2\n      pop\n        /* \"#utility.yul\":1342:1619   */\n      pop\n        /* \"#utility.yul\":1281:1619   */\n      swap3\n      swap2\n      pop\n      pop\n      jump\t// out\n        /* \"#utility.yul\":1639:1979   */\n    tag_65:\n        /* \"#utility.yul\":1695:1700   */\n      0x00\n        /* \"#utility.yul\":1744:1747   */\n      dup3\n        /* \"#utility.yul\":1737:1741   */\n      0x1f\n        /* \"#utility.yul\":1729:1735   */\n      dup4\n        /* \"#utility.yul\":1725:1742   */\n      add\n        /* \"#utility.yul\":1721:1748   */\n      slt\n        /* \"#utility.yul\":1711:1833   */\n      tag_67\n      jumpi\n        /* \"#utility.yul\":1752:1831   */\n      tag_68\n      tag_63\n      jump\t// in\n    tag_68:\n        /* \"#utility.yul\":1711:1833   */\n    tag_67:\n        /* \"#utility.yul\":1869:1875   */\n      dup2\n        /* \"#utility.yul\":1856:1876   */\n      calldataload\n        /* \"#utility.yul\":1894:1973   */\n      tag_69\n        /* \"#utility.yul\":1969:1972   */\n      dup5\n        /* \"#utility.yul\":1961:1967   */\n      dup3\n        /* \"#utility.yul\":1954:1958   */\n      0x20\n        /* \"#utility.yul\":1946:1952   */\n      dup7\n        /* \"#utility.yul\":1942:1959   */\n      add\n        /* \"#utility.yul\":1894:1973   */\n      tag_43\n      jump\t// in\n    tag_69:\n        /* \"#utility.yul\":1885:1973   */\n      swap2\n      pop\n        /* \"#utility.yul\":1701:1979   */\n      pop\n        /* \"#utility.yul\":1639:1979   */\n      swap3\n      swap2\n      pop\n      pop\n      jump\t// out\n        /* \"#utility.yul\":1999:2354   */\n    tag_70:\n        /* \"#utility.yul\":2066:2071   */\n      0x00\n        /* \"#utility.yul\":2115:2118   */\n      dup3\n        /* \"#utility.yul\":2108:2112   */\n      0x1f\n        /* \"#utility.yul\":2100:2106   */\n      dup4\n        /* \"#utility.yul\":2096:2113   */\n      add\n        /* \"#utility.yul\":2092:2119   */\n      slt\n        /* \"#utility.yul\":2082:2204   */\n      tag_72\n      jumpi\n        /* \"#utility.yul\":2123:2202   */\n      tag_73\n      tag_63\n      jump\t// in\n    tag_73:\n        /* \"#utility.yul\":2082:2204   */\n    tag_72:\n        /* \"#utility.yul\":2233:2239   */\n      dup2\n        /* \"#utility.yul\":2227:2240   */\n      mload\n        /* \"#utility.yul\":2258:2348   */\n      tag_74\n        /* \"#utility.yul\":2344:2347   */\n      dup5\n        /* \"#utility.yul\":2336:2342   */\n      dup3\n        /* \"#utility.yul\":2329:2333   */\n      0x20\n        /* \"#utility.yul\":2321:2327   */\n      dup7\n        /* \"#utility.yul\":2317:2334   */\n      add\n        /* \"#utility.yul\":2258:2348   */\n      tag_51\n      jump\t// in\n    tag_74:\n        /* \"#utility.yul\":2249:2348   */\n      swap2\n      pop\n        /* \"#utility.yul\":2072:2354   */\n      pop\n        /* \"#utility.yul\":1999:2354   */\n      swap3\n      swap2\n      pop\n      pop\n      jump\t// out\n        /* \"#utility.yul\":2360:2499   */\n    tag_75:\n        /* \"#utility.yul\":2406:2411   */\n      0x00\n        /* \"#utility.yul\":2444:2450   */\n      dup2\n        /* \"#utility.yul\":2431:2451   */\n      calldataload\n        /* \"#utility.yul\":2422:2451   */\n      swap1\n      pop\n        /* \"#utility.yul\":2460:2493   */\n      tag_77\n        /* \"#utility.yul\":2487:2492   */\n      dup2\n        /* \"#utility.yul\":2460:2493   */\n      tag_78\n      jump\t// in\n    tag_77:\n        /* \"#utility.yul\":2360:2499   */\n      swap3\n      swap2\n      pop\n      pop\n      jump\t// out\n        /* \"#utility.yul\":2505:2648   */\n    tag_79:\n        /* \"#utility.yul\":2562:2567   */\n      0x00\n        /* \"#utility.yul\":2593:2599   */\n      dup2\n        /* \"#utility.yul\":2587:2600   */\n      mload\n        /* \"#utility.yul\":2578:2600   */\n      swap1\n      pop\n        /* \"#utility.yul\":2609:2642   */\n      tag_81\n        /* \"#utility.yul\":2636:2641   */\n      dup2\n        /* \"#utility.yul\":2609:2642   */\n      tag_78\n      jump\t// in\n    tag_81:\n        /* \"#utility.yul\":2505:2648   */\n      swap3\n      swap2\n      pop\n      pop\n      jump\t// out\n        /* \"#utility.yul\":2654:3161   */\n    tag_14:\n        /* \"#utility.yul\":2722:2728   */\n      0x00\n        /* \"#utility.yul\":2771:2773   */\n      0x20\n        /* \"#utility.yul\":2759:2768   */\n      dup3\n        /* \"#utility.yul\":2750:2757   */\n      dup5\n        /* \"#utility.yul\":2746:2769   */\n      sub\n        /* \"#utility.yul\":2742:2774   */\n      slt\n        /* \"#utility.yul\":2739:2858   */\n      iszero\n      tag_83\n      jumpi\n        /* \"#utility.yul\":2777:2856   */\n      tag_84\n      tag_85\n      jump\t// in\n    tag_84:\n        /* \"#utility.yul\":2739:2858   */\n    tag_83:\n        /* \"#utility.yul\":2925:2926   */\n      0x00\n        /* \"#utility.yul\":2914:2923   */\n      dup3\n        /* \"#utility.yul\":2910:2927   */\n      add\n        /* \"#utility.yul\":2897:2928   */\n      calldataload\n        /* \"#utility.yul\":2955:2973   */\n      0xffffffffffffffff\n        /* \"#utility.yul\":2947:2953   */\n      dup2\n        /* \"#utility.yul\":2944:2974   */\n      gt\n        /* \"#utility.yul\":2941:3058   */\n      iszero\n      tag_86\n      jumpi\n        /* \"#utility.yul\":2977:3056   */\n      tag_87\n      tag_88\n      jump\t// in\n    tag_87:\n        /* \"#utility.yul\":2941:3058   */\n    tag_86:\n        /* \"#utility.yul\":3082:3144   */\n      tag_89\n        /* \"#utility.yul\":3136:3143   */\n      dup5\n        /* \"#utility.yul\":3127:3133   */\n      dup3\n        /* \"#utility.yul\":3116:3125   */\n      dup6\n        /* \"#utility.yul\":3112:3134   */\n      add\n        /* \"#utility.yul\":3082:3144   */\n      tag_59\n      jump\t// in\n    tag_89:\n        /* \"#utility.yul\":3072:3144   */\n      swap2\n      pop\n        /* \"#utility.yul\":2868:3154   */\n      pop\n        /* \"#utility.yul\":2654:3161   */\n      swap3\n      swap2\n      pop\n      pop\n      jump\t// out\n        /* \"#utility.yul\":3167:3691   */\n    tag_27:\n        /* \"#utility.yul\":3247:3253   */\n      0x00\n        /* \"#utility.yul\":3296:3298   */\n      0x20\n        /* \"#utility.yul\":3284:3293   */\n      dup3\n        /* \"#utility.yul\":3275:3282   */\n      dup5\n        /* \"#utility.yul\":3271:3294   */\n      sub\n        /* \"#utility.yul\":3267:3299   */\n      slt\n        /* \"#utility.yul\":3264:3383   */\n      iszero\n      tag_91\n      jumpi\n        /* \"#utility.yul\":3302:3381   */\n      tag_92\n      tag_85\n      jump\t// in\n    tag_92:\n        /* \"#utility.yul\":3264:3383   */\n    tag_91:\n        /* \"#utility.yul\":3443:3444   */\n      0x00\n        /* \"#utility.yul\":3432:3441   */\n      dup3\n        /* \"#utility.yul\":3428:3445   */\n      add\n        /* \"#utility.yul\":3422:3446   */\n      mload\n        /* \"#utility.yul\":3473:3491   */\n      0xffffffffffffffff\n        /* \"#utility.yul\":3465:3471   */\n      dup2\n        /* \"#utility.yul\":3462:3492   */\n      gt\n        /* \"#utility.yul\":3459:3576   */\n      iszero\n      tag_93\n      jumpi\n        /* \"#utility.yul\":3495:3574   */\n      tag_94\n      tag_88\n      jump\t// in\n    tag_94:\n        /* \"#utility.yul\":3459:3576   */\n    tag_93:\n        /* \"#utility.yul\":3600:3674   */\n      tag_95\n        /* \"#utility.yul\":3666:3673   */\n      dup5\n        /* \"#utility.yul\":3657:3663   */\n      dup3\n        /* \"#utility.yul\":3646:3655   */\n      dup6\n        /* \"#utility.yul\":3642:3664   */\n      add\n        /* \"#utility.yul\":3600:3674   */\n      tag_70\n      jump\t// in\n    tag_95:\n        /* \"#utility.yul\":3590:3674   */\n      swap2\n      pop\n        /* \"#utility.yul\":3393:3684   */\n      pop\n        /* \"#utility.yul\":3167:3691   */\n      swap3\n      swap2\n      pop\n      pop\n      jump\t// out\n        /* \"#utility.yul\":3697:4676   */\n    tag_8:\n        /* \"#utility.yul\":3794:3800   */\n      0x00\n        /* \"#utility.yul\":3802:3808   */\n      dup1\n        /* \"#utility.yul\":3810:3816   */\n      0x00\n        /* \"#utility.yul\":3859:3861   */\n      0x60\n        /* \"#utility.yul\":3847:3856   */\n      dup5\n        /* \"#utility.yul\":3838:3845   */\n      dup7\n        /* \"#utility.yul\":3834:3857   */\n      sub\n        /* \"#utility.yul\":3830:3862   */\n      slt\n        /* \"#utility.yul\":3827:3946   */\n      iszero\n      tag_97\n      jumpi\n        /* \"#utility.yul\":3865:3944   */\n      tag_98\n      tag_85\n      jump\t// in\n    tag_98:\n        /* \"#utility.yul\":3827:3946   */\n    tag_97:\n        /* \"#utility.yul\":4013:4014   */\n      0x00\n        /* \"#utility.yul\":4002:4011   */\n      dup5\n        /* \"#utility.yul\":3998:4015   */\n      add\n        /* \"#utility.yul\":3985:4016   */\n      calldataload\n        /* \"#utility.yul\":4043:4061   */\n      0xffffffffffffffff\n        /* \"#utility.yul\":4035:4041   */\n      dup2\n        /* \"#utility.yul\":4032:4062   */\n      gt\n        /* \"#utility.yul\":4029:4146   */\n      iszero\n      tag_99\n      jumpi\n        /* \"#utility.yul\":4065:4144   */\n      tag_100\n      tag_88\n      jump\t// in\n    tag_100:\n        /* \"#utility.yul\":4029:4146   */\n    tag_99:\n        /* \"#utility.yul\":4170:4233   */\n      tag_101\n        /* \"#utility.yul\":4225:4232   */\n      dup7\n        /* \"#utility.yul\":4216:4222   */\n      dup3\n        /* \"#utility.yul\":4205:4214   */\n      dup8\n        /* \"#utility.yul\":4201:4223   */\n      add\n        /* \"#utility.yul\":4170:4233   */\n      tag_65\n      jump\t// in\n    tag_101:\n        /* \"#utility.yul\":4160:4233   */\n      swap4\n      pop\n        /* \"#utility.yul\":3956:4243   */\n      pop\n        /* \"#utility.yul\":4282:4284   */\n      0x20\n        /* \"#utility.yul\":4308:4361   */\n      tag_102\n        /* \"#utility.yul\":4353:4360   */\n      dup7\n        /* \"#utility.yul\":4344:4350   */\n      dup3\n        /* \"#utility.yul\":4333:4342   */\n      dup8\n        /* \"#utility.yul\":4329:4351   */\n      add\n        /* \"#utility.yul\":4308:4361   */\n      tag_75\n      jump\t// in\n    tag_102:\n        /* \"#utility.yul\":4298:4361   */\n      swap3\n      pop\n        /* \"#utility.yul\":4253:4371   */\n      pop\n        /* \"#utility.yul\":4438:4440   */\n      0x40\n        /* \"#utility.yul\":4427:4436   */\n      dup5\n        /* \"#utility.yul\":4423:4441   */\n      add\n        /* \"#utility.yul\":4410:4442   */\n      calldataload\n        /* \"#utility.yul\":4469:4487   */\n      0xffffffffffffffff\n        /* \"#utility.yul\":4461:4467   */\n      dup2\n        /* \"#utility.yul\":4458:4488   */\n      gt\n        /* \"#utility.yul\":4455:4572   */\n      iszero\n      tag_103\n      jumpi\n        /* \"#utility.yul\":4491:4570   */\n      tag_104\n      tag_88\n      jump\t// in\n    tag_104:\n        /* \"#utility.yul\":4455:4572   */\n    tag_103:\n        /* \"#utility.yul\":4596:4659   */\n      tag_105\n        /* \"#utility.yul\":4651:4658   */\n      dup7\n        /* \"#utility.yul\":4642:4648   */\n      dup3\n        /* \"#utility.yul\":4631:4640   */\n      dup8\n        /* \"#utility.yul\":4627:4649   */\n      add\n        /* \"#utility.yul\":4596:4659   */\n      tag_65\n      jump\t// in\n    tag_105:\n        /* \"#utility.yul\":4586:4659   */\n      swap2\n      pop\n        /* \"#utility.yul\":4381:4669   */\n      pop\n        /* \"#utility.yul\":3697:4676   */\n      swap3\n      pop\n      swap3\n      pop\n      swap3\n      jump\t// out\n        /* \"#utility.yul\":4682:5691   */\n    tag_30:\n        /* \"#utility.yul\":4790:4796   */\n      0x00\n        /* \"#utility.yul\":4798:4804   */\n      dup1\n        /* \"#utility.yul\":4806:4812   */\n      0x00\n        /* \"#utility.yul\":4855:4857   */\n      0x60\n        /* \"#utility.yul\":4843:4852   */\n      dup5\n        /* \"#utility.yul\":4834:4841   */\n      dup7\n        /* \"#utility.yul\":4830:4853   */\n      sub\n        /* \"#utility.yul\":4826:4858   */\n      slt\n        /* \"#utility.yul\":4823:4942   */\n      iszero\n      tag_107\n      jumpi\n        /* \"#utility.yul\":4861:4940   */\n      tag_108\n      tag_85\n      jump\t// in\n    tag_108:\n        /* \"#utility.yul\":4823:4942   */\n    tag_107:\n        /* \"#utility.yul\":5002:5003   */\n      0x00\n        /* \"#utility.yul\":4991:5000   */\n      dup5\n        /* \"#utility.yul\":4987:5004   */\n      add\n        /* \"#utility.yul\":4981:5005   */\n      mload\n        /* \"#utility.yul\":5032:5050   */\n      0xffffffffffffffff\n        /* \"#utility.yul\":5024:5030   */\n      dup2\n        /* \"#utility.yul\":5021:5051   */\n      gt\n        /* \"#utility.yul\":5018:5135   */\n      iszero\n      tag_109\n      jumpi\n        /* \"#utility.yul\":5054:5133   */\n      tag_110\n      tag_88\n      jump\t// in\n    tag_110:\n        /* \"#utility.yul\":5018:5135   */\n    tag_109:\n        /* \"#utility.yul\":5159:5233   */\n      tag_111\n        /* \"#utility.yul\":5225:5232   */\n      dup7\n        /* \"#utility.yul\":5216:5222   */\n      dup3\n        /* \"#utility.yul\":5205:5214   */\n      dup8\n        /* \"#utility.yul\":5201:5223   */\n      add\n        /* \"#utility.yul\":5159:5233   */\n      tag_70\n      jump\t// in\n    tag_111:\n        /* \"#utility.yul\":5149:5233   */\n      swap4\n      pop\n        /* \"#utility.yul\":4952:5243   */\n      pop\n        /* \"#utility.yul\":5282:5284   */\n      0x20\n        /* \"#utility.yul\":5308:5372   */\n      tag_112\n        /* \"#utility.yul\":5364:5371   */\n      dup7\n        /* \"#utility.yul\":5355:5361   */\n      dup3\n        /* \"#utility.yul\":5344:5353   */\n      dup8\n        /* \"#utility.yul\":5340:5362   */\n      add\n        /* \"#utility.yul\":5308:5372   */\n      tag_79\n      jump\t// in\n    tag_112:\n        /* \"#utility.yul\":5298:5372   */\n      swap3\n      pop\n        /* \"#utility.yul\":5253:5382   */\n      pop\n        /* \"#utility.yul\":5442:5444   */\n      0x40\n        /* \"#utility.yul\":5431:5440   */\n      dup5\n        /* \"#utility.yul\":5427:5445   */\n      add\n        /* \"#utility.yul\":5421:5446   */\n      mload\n        /* \"#utility.yul\":5473:5491   */\n      0xffffffffffffffff\n        /* \"#utility.yul\":5465:5471   */\n      dup2\n        /* \"#utility.yul\":5462:5492   */\n      gt\n        /* \"#utility.yul\":5459:5576   */\n      iszero\n      tag_113\n      jumpi\n        /* \"#utility.yul\":5495:5574   */\n      tag_114\n      tag_88\n      jump\t// in\n    tag_114:\n        /* \"#utility.yul\":5459:5576   */\n    tag_113:\n        /* \"#utility.yul\":5600:5674   */\n      tag_115\n        /* \"#utility.yul\":5666:5673   */\n      dup7\n        /* \"#utility.yul\":5657:5663   */\n      dup3\n        /* \"#utility.yul\":5646:5655   */\n      dup8\n        /* \"#utility.yul\":5642:5664   */\n      add\n        /* \"#utility.yul\":5600:5674   */\n      tag_70\n      jump\t// in\n    tag_115:\n        /* \"#utility.yul\":5590:5674   */\n      swap2\n      pop\n        /* \"#utility.yul\":5392:5684   */\n      pop\n        /* \"#utility.yul\":4682:5691   */\n      swap3\n      pop\n      swap3\n      pop\n      swap3\n      jump\t// out\n        /* \"#utility.yul\":5697:6057   */\n    tag_116:\n        /* \"#utility.yul\":5783:5786   */\n      0x00\n        /* \"#utility.yul\":5811:5849   */\n      tag_118\n        /* \"#utility.yul\":5843:5848   */\n      dup3\n        /* \"#utility.yul\":5811:5849   */\n      tag_119\n      jump\t// in\n    tag_118:\n        /* \"#utility.yul\":5865:5935   */\n      tag_120\n        /* \"#utility.yul\":5928:5934   */\n      dup2\n        /* \"#utility.yul\":5923:5926   */\n      dup6\n        /* \"#utility.yul\":5865:5935   */\n      tag_121\n      jump\t// in\n    tag_120:\n        /* \"#utility.yul\":5858:5935   */\n      swap4\n      pop\n        /* \"#utility.yul\":5944:5996   */\n      tag_122\n        /* \"#utility.yul\":5989:5995   */\n      dup2\n        /* \"#utility.yul\":5984:5987   */\n      dup6\n        /* \"#utility.yul\":5977:5981   */\n      0x20\n        /* \"#utility.yul\":5970:5975   */\n      dup7\n        /* \"#utility.yul\":5966:5982   */\n      add\n        /* \"#utility.yul\":5944:5996   */\n      tag_58\n      jump\t// in\n    tag_122:\n        /* \"#utility.yul\":6021:6050   */\n      tag_123\n        /* \"#utility.yul\":6043:6049   */\n      dup2\n        /* \"#utility.yul\":6021:6050   */\n      tag_124\n      jump\t// in\n    tag_123:\n        /* \"#utility.yul\":6016:6019   */\n      dup5\n        /* \"#utility.yul\":6012:6051   */\n      add\n        /* \"#utility.yul\":6005:6051   */\n      swap2\n      pop\n        /* \"#utility.yul\":5787:6057   */\n      pop\n        /* \"#utility.yul\":5697:6057   */\n      swap3\n      swap2\n      pop\n      pop\n      jump\t// out\n        /* \"#utility.yul\":6063:6427   */\n    tag_125:\n        /* \"#utility.yul\":6151:6154   */\n      0x00\n        /* \"#utility.yul\":6179:6218   */\n      tag_127\n        /* \"#utility.yul\":6212:6217   */\n      dup3\n        /* \"#utility.yul\":6179:6218   */\n      tag_128\n      jump\t// in\n    tag_127:\n        /* \"#utility.yul\":6234:6305   */\n      tag_129\n        /* \"#utility.yul\":6298:6304   */\n      dup2\n        /* \"#utility.yul\":6293:6296   */\n      dup6\n        /* \"#utility.yul\":6234:6305   */\n      tag_130\n      jump\t// in\n    tag_129:\n        /* \"#utility.yul\":6227:6305   */\n      swap4\n      pop\n        /* \"#utility.yul\":6314:6366   */\n      tag_131\n        /* \"#utility.yul\":6359:6365   */\n      dup2\n        /* \"#utility.yul\":6354:6357   */\n      dup6\n        /* \"#utility.yul\":6347:6351   */\n      0x20\n        /* \"#utility.yul\":6340:6345   */\n      dup7\n        /* \"#utility.yul\":6336:6352   */\n      add\n        /* \"#utility.yul\":6314:6366   */\n      tag_58\n      jump\t// in\n    tag_131:\n        /* \"#utility.yul\":6391:6420   */\n      tag_132\n        /* \"#utility.yul\":6413:6419   */\n      dup2\n        /* \"#utility.yul\":6391:6420   */\n      tag_124\n      jump\t// in\n    tag_132:\n        /* \"#utility.yul\":6386:6389   */\n      dup5\n        /* \"#utility.yul\":6382:6421   */\n      add\n        /* \"#utility.yul\":6375:6421   */\n      swap2\n      pop\n        /* \"#utility.yul\":6155:6427   */\n      pop\n        /* \"#utility.yul\":6063:6427   */\n      swap3\n      swap2\n      pop\n      pop\n      jump\t// out\n        /* \"#utility.yul\":6433:6551   */\n    tag_133:\n        /* \"#utility.yul\":6520:6544   */\n      tag_135\n        /* \"#utility.yul\":6538:6543   */\n      dup2\n        /* \"#utility.yul\":6520:6544   */\n      tag_136\n      jump\t// in\n    tag_135:\n        /* \"#utility.yul\":6515:6518   */\n      dup3\n        /* \"#utility.yul\":6508:6545   */\n      mstore\n        /* \"#utility.yul\":6433:6551   */\n      pop\n      pop\n      jump\t// out\n        /* \"#utility.yul\":6557:6866   */\n    tag_11:\n        /* \"#utility.yul\":6668:6672   */\n      0x00\n        /* \"#utility.yul\":6706:6708   */\n      0x20\n        /* \"#utility.yul\":6695:6704   */\n      dup3\n        /* \"#utility.yul\":6691:6709   */\n      add\n        /* \"#utility.yul\":6683:6709   */\n      swap1\n      pop\n        /* \"#utility.yul\":6755:6764   */\n      dup2\n        /* \"#utility.yul\":6749:6753   */\n      dup2\n        /* \"#utility.yul\":6745:6765   */\n      sub\n        /* \"#utility.yul\":6741:6742   */\n      0x00\n        /* \"#utility.yul\":6730:6739   */\n      dup4\n        /* \"#utility.yul\":6726:6743   */\n      add\n        /* \"#utility.yul\":6719:6766   */\n      mstore\n        /* \"#utility.yul\":6783:6859   */\n      tag_138\n        /* \"#utility.yul\":6854:6858   */\n      dup2\n        /* \"#utility.yul\":6845:6851   */\n      dup5\n        /* \"#utility.yul\":6783:6859   */\n      tag_116\n      jump\t// in\n    tag_138:\n        /* \"#utility.yul\":6775:6859   */\n      swap1\n      pop\n        /* \"#utility.yul\":6557:6866   */\n      swap3\n      swap2\n      pop\n      pop\n      jump\t// out\n        /* \"#utility.yul\":6872:7185   */\n    tag_17:\n        /* \"#utility.yul\":6985:6989   */\n      0x00\n        /* \"#utility.yul\":7023:7025   */\n      0x20\n        /* \"#utility.yul\":7012:7021   */\n      dup3\n        /* \"#utility.yul\":7008:7026   */\n      add\n        /* \"#utility.yul\":7000:7026   */\n      swap1\n      pop\n        /* \"#utility.yul\":7072:7081   */\n      dup2\n        /* \"#utility.yul\":7066:7070   */\n      dup2\n        /* \"#utility.yul\":7062:7082   */\n      sub\n        /* \"#utility.yul\":7058:7059   */\n      0x00\n        /* \"#utility.yul\":7047:7056   */\n      dup4\n        /* \"#utility.yul\":7043:7060   */\n      add\n        /* \"#utility.yul\":7036:7083   */\n      mstore\n        /* \"#utility.yul\":7100:7178   */\n      tag_140\n        /* \"#utility.yul\":7173:7177   */\n      dup2\n        /* \"#utility.yul\":7164:7170   */\n      dup5\n        /* \"#utility.yul\":7100:7178   */\n      tag_125\n      jump\t// in\n    tag_140:\n        /* \"#utility.yul\":7092:7178   */\n      swap1\n      pop\n        /* \"#utility.yul\":6872:7185   */\n      swap3\n      swap2\n      pop\n      pop\n      jump\t// out\n        /* \"#utility.yul\":7191:7815   */\n    tag_22:\n        /* \"#utility.yul\":7380:7384   */\n      0x00\n        /* \"#utility.yul\":7418:7420   */\n      0x60\n        /* \"#utility.yul\":7407:7416   */\n      dup3\n        /* \"#utility.yul\":7403:7421   */\n      add\n        /* \"#utility.yul\":7395:7421   */\n      swap1\n      pop\n        /* \"#utility.yul\":7467:7476   */\n      dup2\n        /* \"#utility.yul\":7461:7465   */\n      dup2\n        /* \"#utility.yul\":7457:7477   */\n      sub\n        /* \"#utility.yul\":7453:7454   */\n      0x00\n        /* \"#utility.yul\":7442:7451   */\n      dup4\n        /* \"#utility.yul\":7438:7455   */\n      add\n        /* \"#utility.yul\":7431:7478   */\n      mstore\n        /* \"#utility.yul\":7495:7573   */\n      tag_142\n        /* \"#utility.yul\":7568:7572   */\n      dup2\n        /* \"#utility.yul\":7559:7565   */\n      dup7\n        /* \"#utility.yul\":7495:7573   */\n      tag_125\n      jump\t// in\n    tag_142:\n        /* \"#utility.yul\":7487:7573   */\n      swap1\n      pop\n        /* \"#utility.yul\":7583:7655   */\n      tag_143\n        /* \"#utility.yul\":7651:7653   */\n      0x20\n        /* \"#utility.yul\":7640:7649   */\n      dup4\n        /* \"#utility.yul\":7636:7654   */\n      add\n        /* \"#utility.yul\":7627:7633   */\n      dup6\n        /* \"#utility.yul\":7583:7655   */\n      tag_133\n      jump\t// in\n    tag_143:\n        /* \"#utility.yul\":7702:7711   */\n      dup2\n        /* \"#utility.yul\":7696:7700   */\n      dup2\n        /* \"#utility.yul\":7692:7712   */\n      sub\n        /* \"#utility.yul\":7687:7689   */\n      0x40\n        /* \"#utility.yul\":7676:7685   */\n      dup4\n        /* \"#utility.yul\":7672:7690   */\n      add\n        /* \"#utility.yul\":7665:7713   */\n      mstore\n        /* \"#utility.yul\":7730:7808   */\n      tag_144\n        /* \"#utility.yul\":7803:7807   */\n      dup2\n        /* \"#utility.yul\":7794:7800   */\n      dup5\n        /* \"#utility.yul\":7730:7808   */\n      tag_125\n      jump\t// in\n    tag_144:\n        /* \"#utility.yul\":7722:7808   */\n      swap1\n      pop\n        /* \"#utility.yul\":7191:7815   */\n      swap5\n      swap4\n      pop\n      pop\n      pop\n      pop\n      jump\t// out\n        /* \"#utility.yul\":7821:7950   */\n    tag_37:\n        /* \"#utility.yul\":7855:7861   */\n      0x00\n        /* \"#utility.yul\":7882:7902   */\n      tag_146\n      tag_147\n      jump\t// in\n    tag_146:\n        /* \"#utility.yul\":7872:7902   */\n      swap1\n      pop\n        /* \"#utility.yul\":7911:7944   */\n      tag_148\n        /* \"#utility.yul\":7939:7943   */\n      dup3\n        /* \"#utility.yul\":7931:7937   */\n      dup3\n        /* \"#utility.yul\":7911:7944   */\n      tag_149\n      jump\t// in\n    tag_148:\n        /* \"#utility.yul\":7821:7950   */\n      swap2\n      swap1\n      pop\n      jump\t// out\n        /* \"#utility.yul\":7956:8031   */\n    tag_147:\n        /* \"#utility.yul\":7989:7995   */\n      0x00\n        /* \"#utility.yul\":8022:8024   */\n      0x40\n        /* \"#utility.yul\":8016:8025   */\n      mload\n        /* \"#utility.yul\":8006:8025   */\n      swap1\n      pop\n        /* \"#utility.yul\":7956:8031   */\n      swap1\n      jump\t// out\n        /* \"#utility.yul\":8037:8344   */\n    tag_36:\n        /* \"#utility.yul\":8098:8102   */\n      0x00\n        /* \"#utility.yul\":8188:8206   */\n      0xffffffffffffffff\n        /* \"#utility.yul\":8180:8186   */\n      dup3\n        /* \"#utility.yul\":8177:8207   */\n      gt\n        /* \"#utility.yul\":8174:8230   */\n      iszero\n      tag_152\n      jumpi\n        /* \"#utility.yul\":8210:8228   */\n      tag_153\n      tag_154\n      jump\t// in\n    tag_153:\n        /* \"#utility.yul\":8174:8230   */\n    tag_152:\n        /* \"#utility.yul\":8248:8277   */\n      tag_155\n        /* \"#utility.yul\":8270:8276   */\n      dup3\n        /* \"#utility.yul\":8248:8277   */\n      tag_124\n      jump\t// in\n    tag_155:\n        /* \"#utility.yul\":8240:8277   */\n      swap1\n      pop\n        /* \"#utility.yul\":8332:8336   */\n      0x20\n        /* \"#utility.yul\":8326:8330   */\n      dup2\n        /* \"#utility.yul\":8322:8337   */\n      add\n        /* \"#utility.yul\":8314:8337   */\n      swap1\n      pop\n        /* \"#utility.yul\":8037:8344   */\n      swap2\n      swap1\n      pop\n      jump\t// out\n        /* \"#utility.yul\":8350:8658   */\n    tag_47:\n        /* \"#utility.yul\":8412:8416   */\n      0x00\n        /* \"#utility.yul\":8502:8520   */\n      0xffffffffffffffff\n        /* \"#utility.yul\":8494:8500   */\n      dup3\n        /* \"#utility.yul\":8491:8521   */\n      gt\n        /* \"#utility.yul\":8488:8544   */\n      iszero\n      tag_157\n      jumpi\n        /* \"#utility.yul\":8524:8542   */\n      tag_158\n      tag_154\n      jump\t// in\n    tag_158:\n        /* \"#utility.yul\":8488:8544   */\n    tag_157:\n        /* \"#utility.yul\":8562:8591   */\n      tag_159\n        /* \"#utility.yul\":8584:8590   */\n      dup3\n        /* \"#utility.yul\":8562:8591   */\n      tag_124\n      jump\t// in\n    tag_159:\n        /* \"#utility.yul\":8554:8591   */\n      swap1\n      pop\n        /* \"#utility.yul\":8646:8650   */\n      0x20\n        /* \"#utility.yul\":8640:8644   */\n      dup2\n        /* \"#utility.yul\":8636:8651   */\n      add\n        /* \"#utility.yul\":8628:8651   */\n      swap1\n      pop\n        /* \"#utility.yul\":8350:8658   */\n      swap2\n      swap1\n      pop\n      jump\t// out\n        /* \"#utility.yul\":8664:8762   */\n    tag_119:\n        /* \"#utility.yul\":8715:8721   */\n      0x00\n        /* \"#utility.yul\":8749:8754   */\n      dup2\n        /* \"#utility.yul\":8743:8755   */\n      mload\n        /* \"#utility.yul\":8733:8755   */\n      swap1\n      pop\n        /* \"#utility.yul\":8664:8762   */\n      swap2\n      swap1\n      pop\n      jump\t// out\n        /* \"#utility.yul\":8768:8867   */\n    tag_128:\n        /* \"#utility.yul\":8820:8826   */\n      0x00\n        /* \"#utility.yul\":8854:8859   */\n      dup2\n        /* \"#utility.yul\":8848:8860   */\n      mload\n        /* \"#utility.yul\":8838:8860   */\n      swap1\n      pop\n        /* \"#utility.yul\":8768:8867   */\n      swap2\n      swap1\n      pop\n      jump\t// out\n        /* \"#utility.yul\":8873:9041   */\n    tag_121:\n        /* \"#utility.yul\":8956:8967   */\n      0x00\n        /* \"#utility.yul\":8990:8996   */\n      dup3\n        /* \"#utility.yul\":8985:8988   */\n      dup3\n        /* \"#utility.yul\":8978:8997   */\n      mstore\n        /* \"#utility.yul\":9030:9034   */\n      0x20\n        /* \"#utility.yul\":9025:9028   */\n      dup3\n        /* \"#utility.yul\":9021:9035   */\n      add\n        /* \"#utility.yul\":9006:9035   */\n      swap1\n      pop\n        /* \"#utility.yul\":8873:9041   */\n      swap3\n      swap2\n      pop\n      pop\n      jump\t// out\n        /* \"#utility.yul\":9047:9216   */\n    tag_130:\n        /* \"#utility.yul\":9131:9142   */\n      0x00\n        /* \"#utility.yul\":9165:9171   */\n      dup3\n        /* \"#utility.yul\":9160:9163   */\n      dup3\n        /* \"#utility.yul\":9153:9172   */\n      mstore\n        /* \"#utility.yul\":9205:9209   */\n      0x20\n        /* \"#utility.yul\":9200:9203   */\n      dup3\n        /* \"#utility.yul\":9196:9210   */\n      add\n        /* \"#utility.yul\":9181:9210   */\n      swap1\n      pop\n        /* \"#utility.yul\":9047:9216   */\n      swap3\n      swap2\n      pop\n      pop\n      jump\t// out\n        /* \"#utility.yul\":9222:9299   */\n    tag_136:\n        /* \"#utility.yul\":9259:9266   */\n      0x00\n        /* \"#utility.yul\":9288:9293   */\n      dup2\n        /* \"#utility.yul\":9277:9293   */\n      swap1\n      pop\n        /* \"#utility.yul\":9222:9299   */\n      swap2\n      swap1\n      pop\n      jump\t// out\n        /* \"#utility.yul\":9305:9459   */\n    tag_42:\n        /* \"#utility.yul\":9389:9395   */\n      dup3\n        /* \"#utility.yul\":9384:9387   */\n      dup2\n        /* \"#utility.yul\":9379:9382   */\n      dup4\n        /* \"#utility.yul\":9366:9396   */\n      calldatacopy\n        /* \"#utility.yul\":9451:9452   */\n      0x00\n        /* \"#utility.yul\":9442:9448   */\n      dup4\n        /* \"#utility.yul\":9437:9440   */\n      dup4\n        /* \"#utility.yul\":9433:9449   */\n      add\n        /* \"#utility.yul\":9426:9453   */\n      mstore\n        /* \"#utility.yul\":9305:9459   */\n      pop\n      pop\n      pop\n      jump\t// out\n        /* \"#utility.yul\":9465:9772   */\n    tag_58:\n        /* \"#utility.yul\":9533:9534   */\n      0x00\n        /* \"#utility.yul\":9543:9656   */\n    tag_167:\n        /* \"#utility.yul\":9557:9563   */\n      dup4\n        /* \"#utility.yul\":9554:9555   */\n      dup2\n        /* \"#utility.yul\":9551:9564   */\n      lt\n        /* \"#utility.yul\":9543:9656   */\n      iszero\n      tag_169\n      jumpi\n        /* \"#utility.yul\":9642:9643   */\n      dup1\n        /* \"#utility.yul\":9637:9640   */\n      dup3\n        /* \"#utility.yul\":9633:9644   */\n      add\n        /* \"#utility.yul\":9627:9645   */\n      mload\n        /* \"#utility.yul\":9623:9624   */\n      dup2\n        /* \"#utility.yul\":9618:9621   */\n      dup5\n        /* \"#utility.yul\":9614:9625   */\n      add\n        /* \"#utility.yul\":9607:9646   */\n      mstore\n        /* \"#utility.yul\":9579:9581   */\n      0x20\n        /* \"#utility.yul\":9576:9577   */\n      dup2\n        /* \"#utility.yul\":9572:9582   */\n      add\n        /* \"#utility.yul\":9567:9582   */\n      swap1\n      pop\n        /* \"#utility.yul\":9543:9656   */\n      jump(tag_167)\n    tag_169:\n        /* \"#utility.yul\":9674:9680   */\n      dup4\n        /* \"#utility.yul\":9671:9672   */\n      dup2\n        /* \"#utility.yul\":9668:9681   */\n      gt\n        /* \"#utility.yul\":9665:9766   */\n      iszero\n      tag_170\n      jumpi\n        /* \"#utility.yul\":9754:9755   */\n      0x00\n        /* \"#utility.yul\":9745:9751   */\n      dup5\n        /* \"#utility.yul\":9740:9743   */\n      dup5\n        /* \"#utility.yul\":9736:9752   */\n      add\n        /* \"#utility.yul\":9729:9756   */\n      mstore\n        /* \"#utility.yul\":9665:9766   */\n    tag_170:\n        /* \"#utility.yul\":9514:9772   */\n      pop\n        /* \"#utility.yul\":9465:9772   */\n      pop\n      pop\n      pop\n      jump\t// out\n        /* \"#utility.yul\":9778:10059   */\n    tag_149:\n        /* \"#utility.yul\":9861:9888   */\n      tag_172\n        /* \"#utility.yul\":9883:9887   */\n      dup3\n        /* \"#utility.yul\":9861:9888   */\n      tag_124\n      jump\t// in\n    tag_172:\n        /* \"#utility.yul\":9853:9859   */\n      dup2\n        /* \"#utility.yul\":9849:9889   */\n      add\n        /* \"#utility.yul\":9991:9997   */\n      dup2\n        /* \"#utility.yul\":9979:9989   */\n      dup2\n        /* \"#utility.yul\":9976:9998   */\n      lt\n        /* \"#utility.yul\":9955:9973   */\n      0xffffffffffffffff\n        /* \"#utility.yul\":9943:9953   */\n      dup3\n        /* \"#utility.yul\":9940:9974   */\n      gt\n        /* \"#utility.yul\":9937:9999   */\n      or\n        /* \"#utility.yul\":9934:10022   */\n      iszero\n      tag_173\n      jumpi\n        /* \"#utility.yul\":10002:10020   */\n      tag_174\n      tag_154\n      jump\t// in\n    tag_174:\n        /* \"#utility.yul\":9934:10022   */\n    tag_173:\n        /* \"#utility.yul\":10042:10052   */\n      dup1\n        /* \"#utility.yul\":10038:10040   */\n      0x40\n        /* \"#utility.yul\":10031:10053   */\n      mstore\n        /* \"#utility.yul\":9821:10059   */\n      pop\n        /* \"#utility.yul\":9778:10059   */\n      pop\n      pop\n      jump\t// out\n        /* \"#utility.yul\":10065:10245   */\n    tag_154:\n        /* \"#utility.yul\":10113:10190   */\n      0x4e487b7100000000000000000000000000000000000000000000000000000000\n        /* \"#utility.yul\":10110:10111   */\n      0x00\n        /* \"#utility.yul\":10103:10191   */\n      mstore\n        /* \"#utility.yul\":10210:10214   */\n      0x41\n        /* \"#utility.yul\":10207:10208   */\n      0x04\n        /* \"#utility.yul\":10200:10215   */\n      mstore\n        /* \"#utility.yul\":10234:10238   */\n      0x24\n        /* \"#utility.yul\":10231:10232   */\n      0x00\n        /* \"#utility.yul\":10224:10239   */\n      revert\n        /* \"#utility.yul\":10251:10368   */\n    tag_63:\n        /* \"#utility.yul\":10360:10361   */\n      0x00\n        /* \"#utility.yul\":10357:10358   */\n      dup1\n        /* \"#utility.yul\":10350:10362   */\n      revert\n        /* \"#utility.yul\":10374:10491   */\n    tag_40:\n        /* \"#utility.yul\":10483:10484   */\n      0x00\n        /* \"#utility.yul\":10480:10481   */\n      dup1\n        /* \"#utility.yul\":10473:10485   */\n      revert\n        /* \"#utility.yul\":10497:10614   */\n    tag_88:\n        /* \"#utility.yul\":10606:10607   */\n      0x00\n        /* \"#utility.yul\":10603:10604   */\n      dup1\n        /* \"#utility.yul\":10596:10608   */\n      revert\n        /* \"#utility.yul\":10620:10737   */\n    tag_85:\n        /* \"#utility.yul\":10729:10730   */\n      0x00\n        /* \"#utility.yul\":10726:10727   */\n      dup1\n        /* \"#utility.yul\":10719:10731   */\n      revert\n        /* \"#utility.yul\":10743:10845   */\n    tag_124:\n        /* \"#utility.yul\":10784:10790   */\n      0x00\n        /* \"#utility.yul\":10835:10837   */\n      0x1f\n        /* \"#utility.yul\":10831:10838   */\n      not\n        /* \"#utility.yul\":10826:10828   */\n      0x1f\n        /* \"#utility.yul\":10819:10824   */\n      dup4\n        /* \"#utility.yul\":10815:10829   */\n      add\n        /* \"#utility.yul\":10811:10839   */\n      and\n        /* \"#utility.yul\":10801:10839   */\n      swap1\n      pop\n        /* \"#utility.yul\":10743:10845   */\n      swap2\n      swap1\n      pop\n      jump\t// out\n        /* \"#utility.yul\":10851:10973   */\n    tag_78:\n        /* \"#utility.yul\":10924:10948   */\n      tag_182\n        /* \"#utility.yul\":10942:10947   */\n      dup2\n        /* \"#utility.yul\":10924:10948   */\n      tag_136\n      jump\t// in\n    tag_182:\n        /* \"#utility.yul\":10917:10922   */\n      dup2\n        /* \"#utility.yul\":10914:10949   */\n      eq\n        /* \"#utility.yul\":10904:10967   */\n      tag_183\n      jumpi\n        /* \"#utility.yul\":10963:10964   */\n      0x00\n        /* \"#utility.yul\":10960:10961   */\n      dup1\n        /* \"#utility.yul\":10953:10965   */\n      revert\n        /* \"#utility.yul\":10904:10967   */\n    tag_183:\n        /* \"#utility.yul\":10851:10973   */\n      pop\n      jump\t// out\n\n    auxdata: 0xa2646970667358221220847ba52bc5d6071d1b7303f732afaac0530c6d375e960055a58fa5561d0ff8cd64736f6c63430008070033\n}\n",
				"bytecode": {
					"linkReferences": {},
					"object": "608060405234801561001057600080fd5b5061075a806100206000396000f3fe608060405234801561001057600080fd5b50600436106100415760003560e01c80633b7fa265146100465780633d9c6d4f14610076578063d097af29146100a6575b600080fd5b610060600480360381019061005b919061035d565b6100d8565b60405161006d91906104f4565b60405180910390f35b610090600480360381019061008b91906102cb565b610107565b60405161009d9190610516565b60405180910390f35b6100c060048036038101906100bb91906102cb565b610124565b6040516100cf93929190610538565b60405180910390f35b60608383836040516020016100ef93929190610538565b60405160208183030381529060405290509392505050565b60608180602001905181019061011d9190610314565b9050919050565b6060600060608380602001905181019061013e91906103e8565b8093508194508295505050509193909250565b600061016461015f846105a2565b61057d565b9050828152602081018484840111156101805761017f6106ed565b5b61018b848285610646565b509392505050565b60006101a66101a1846105d3565b61057d565b9050828152602081018484840111156101c2576101c16106ed565b5b6101cd848285610646565b509392505050565b60006101e86101e3846105d3565b61057d565b905082815260208101848484011115610204576102036106ed565b5b61020f848285610655565b509392505050565b600082601f83011261022c5761022b6106e8565b5b813561023c848260208601610151565b91505092915050565b600082601f83011261025a576102596106e8565b5b813561026a848260208601610193565b91505092915050565b600082601f830112610288576102876106e8565b5b81516102988482602086016101d5565b91505092915050565b6000813590506102b08161070d565b92915050565b6000815190506102c58161070d565b92915050565b6000602082840312156102e1576102e06106f7565b5b600082013567ffffffffffffffff8111156102ff576102fe6106f2565b5b61030b84828501610217565b91505092915050565b60006020828403121561032a576103296106f7565b5b600082015167ffffffffffffffff811115610348576103476106f2565b5b61035484828501610273565b91505092915050565b600080600060608486031215610376576103756106f7565b5b600084013567ffffffffffffffff811115610394576103936106f2565b5b6103a086828701610245565b93505060206103b1868287016102a1565b925050604084013567ffffffffffffffff8111156103d2576103d16106f2565b5b6103de86828701610245565b9150509250925092565b600080600060608486031215610401576104006106f7565b5b600084015167ffffffffffffffff81111561041f5761041e6106f2565b5b61042b86828701610273565b935050602061043c868287016102b6565b925050604084015167ffffffffffffffff81111561045d5761045c6106f2565b5b61046986828701610273565b9150509250925092565b600061047e82610604565b610488818561061a565b9350610498818560208601610655565b6104a1816106fc565b840191505092915050565b60006104b78261060f565b6104c1818561062b565b93506104d1818560208601610655565b6104da816106fc565b840191505092915050565b6104ee8161063c565b82525050565b6000602082019050818103600083015261050e8184610473565b905092915050565b6000602082019050818103600083015261053081846104ac565b905092915050565b6000606082019050818103600083015261055281866104ac565b905061056160208301856104e5565b818103604083015261057381846104ac565b9050949350505050565b6000610587610598565b90506105938282610688565b919050565b6000604051905090565b600067ffffffffffffffff8211156105bd576105bc6106b9565b5b6105c6826106fc565b9050602081019050919050565b600067ffffffffffffffff8211156105ee576105ed6106b9565b5b6105f7826106fc565b9050602081019050919050565b600081519050919050565b600081519050919050565b600082825260208201905092915050565b600082825260208201905092915050565b6000819050919050565b82818337600083830152505050565b60005b83811015610673578082015181840152602081019050610658565b83811115610682576000848401525b50505050565b610691826106fc565b810181811067ffffffffffffffff821117156106b0576106af6106b9565b5b80604052505050565b7f4e487b7100000000000000000000000000000000000000000000000000000000600052604160045260246000fd5b600080fd5b600080fd5b600080fd5b600080fd5b6000601f19601f8301169050919050565b6107168161063c565b811461072157600080fd5b5056fea2646970667358221220847ba52bc5d6071d1b7303f732afaac0530c6d375e960055a58fa5561d0ff8cd64736f6c63430008070033",
					"opcodes": "PUSH1 0x80 PUSH1 0x40 MSTORE CALLVALUE DUP1 ISZERO PUSH2 0x10 JUMPI PUSH1 0x0 DUP1 REVERT JUMPDEST POP PUSH2 0x75A DUP1 PUSH2 0x20 PUSH1 0x0 CODECOPY PUSH1 0x0 RETURN INVALID PUSH1 0x80 PUSH1 0x40 MSTORE CALLVALUE DUP1 ISZERO PUSH2 0x10 JUMPI PUSH1 0x0 DUP1 REVERT JUMPDEST POP PUSH1 0x4 CALLDATASIZE LT PUSH2 0x41 JUMPI PUSH1 0x0 CALLDATALOAD PUSH1 0xE0 SHR DUP1 PUSH4 0x3B7FA265 EQ PUSH2 0x46 JUMPI DUP1 PUSH4 0x3D9C6D4F EQ PUSH2 0x76 JUMPI DUP1 PUSH4 0xD097AF29 EQ PUSH2 0xA6 JUMPI JUMPDEST PUSH1 0x0 DUP1 REVERT JUMPDEST PUSH2 0x60 PUSH1 0x4 DUP1 CALLDATASIZE SUB DUP2 ADD SWAP1 PUSH2 0x5B SWAP2 SWAP1 PUSH2 0x35D JUMP JUMPDEST PUSH2 0xD8 JUMP JUMPDEST PUSH1 0x40 MLOAD PUSH2 0x6D SWAP2 SWAP1 PUSH2 0x4F4 JUMP JUMPDEST PUSH1 0x40 MLOAD DUP1 SWAP2 SUB SWAP1 RETURN JUMPDEST PUSH2 0x90 PUSH1 0x4 DUP1 CALLDATASIZE SUB DUP2 ADD SWAP1 PUSH2 0x8B SWAP2 SWAP1 PUSH2 0x2CB JUMP JUMPDEST PUSH2 0x107 JUMP JUMPDEST PUSH1 0x40 MLOAD PUSH2 0x9D SWAP2 SWAP1 PUSH2 0x516 JUMP JUMPDEST PUSH1 0x40 MLOAD DUP1 SWAP2 SUB SWAP1 RETURN JUMPDEST PUSH2 0xC0 PUSH1 0x4 DUP1 CALLDATASIZE SUB DUP2 ADD SWAP1 PUSH2 0xBB SWAP2 SWAP1 PUSH2 0x2CB JUMP JUMPDEST PUSH2 0x124 JUMP JUMPDEST PUSH1 0x40 MLOAD PUSH2 0xCF SWAP4 SWAP3 SWAP2 SWAP1 PUSH2 0x538 JUMP JUMPDEST PUSH1 0x40 MLOAD DUP1 SWAP2 SUB SWAP1 RETURN JUMPDEST PUSH1 0x60 DUP4 DUP4 DUP4 PUSH1 0x40 MLOAD PUSH1 0x20 ADD PUSH2 0xEF SWAP4 SWAP3 SWAP2 SWAP1 PUSH2 0x538 JUMP JUMPDEST PUSH1 0x40 MLOAD PUSH1 0x20 DUP2 DUP4 SUB SUB DUP2 MSTORE SWAP1 PUSH1 0x40 MSTORE SWAP1 POP SWAP4 SWAP3 POP POP POP JUMP JUMPDEST PUSH1 0x60 DUP2 DUP1 PUSH1 0x20 ADD SWAP1 MLOAD DUP2 ADD SWAP1 PUSH2 0x11D SWAP2 SWAP1 PUSH2 0x314 JUMP JUMPDEST SWAP1 POP SWAP2 SWAP1 POP JUMP JUMPDEST PUSH1 0x60 PUSH1 0x0 PUSH1 0x60 DUP4 DUP1 PUSH1 0x20 ADD SWAP1 MLOAD DUP2 ADD SWAP1 PUSH2 0x13E SWAP2 SWAP1 PUSH2 0x3E8 JUMP JUMPDEST DUP1 SWAP4 POP DUP2 SWAP5 POP DUP3 SWAP6 POP POP POP POP SWAP2 SWAP4 SWAP1 SWAP3 POP JUMP JUMPDEST PUSH1 0x0 PUSH2 0x164 PUSH2 0x15F DUP5 PUSH2 0x5A2 JUMP JUMPDEST PUSH2 0x57D JUMP JUMPDEST SWAP1 POP DUP3 DUP2 MSTORE PUSH1 0x20 DUP2 ADD DUP5 DUP5 DUP5 ADD GT ISZERO PUSH2 0x180 JUMPI PUSH2 0x17F PUSH2 0x6ED JUMP JUMPDEST JUMPDEST PUSH2 0x18B DUP5 DUP3 DUP6 PUSH2 0x646 JUMP JUMPDEST POP SWAP4 SWAP3 POP POP POP JUMP JUMPDEST PUSH1 0x0 PUSH2 0x1A6 PUSH2 0x1A1 DUP5 PUSH2 0x5D3 JUMP JUMPDEST PUSH2 0x57D JUMP JUMPDEST SWAP1 POP DUP3 DUP2 MSTORE PUSH1 0x20 DUP2 ADD DUP5 DUP5 DUP5 ADD GT ISZERO PUSH2 0x1C2 JUMPI PUSH2 0x1C1 PUSH2 0x6ED JUMP JUMPDEST JUMPDEST PUSH2 0x1CD DUP5 DUP3 DUP6 PUSH2 0x646 JUMP JUMPDEST POP SWAP4 SWAP3 POP POP POP JUMP JUMPDEST PUSH1 0x0 PUSH2 0x1E8 PUSH2 0x1E3 DUP5 PUSH2 0x5D3 JUMP JUMPDEST PUSH2 0x57D JUMP JUMPDEST SWAP1 POP DUP3 DUP2 MSTORE PUSH1 0x20 DUP2 ADD DUP5 DUP5 DUP5 ADD GT ISZERO PUSH2 0x204 JUMPI PUSH2 0x203 PUSH2 0x6ED JUMP JUMPDEST JUMPDEST PUSH2 0x20F DUP5 DUP3 DUP6 PUSH2 0x655 JUMP JUMPDEST POP SWAP4 SWAP3 POP POP POP JUMP JUMPDEST PUSH1 0x0 DUP3 PUSH1 0x1F DUP4 ADD SLT PUSH2 0x22C JUMPI PUSH2 0x22B PUSH2 0x6E8 JUMP JUMPDEST JUMPDEST DUP2 CALLDATALOAD PUSH2 0x23C DUP5 DUP3 PUSH1 0x20 DUP7 ADD PUSH2 0x151 JUMP JUMPDEST SWAP2 POP POP SWAP3 SWAP2 POP POP JUMP JUMPDEST PUSH1 0x0 DUP3 PUSH1 0x1F DUP4 ADD SLT PUSH2 0x25A JUMPI PUSH2 0x259 PUSH2 0x6E8 JUMP JUMPDEST JUMPDEST DUP2 CALLDATALOAD PUSH2 0x26A DUP5 DUP3 PUSH1 0x20 DUP7 ADD PUSH2 0x193 JUMP JUMPDEST SWAP2 POP POP SWAP3 SWAP2 POP POP JUMP JUMPDEST PUSH1 0x0 DUP3 PUSH1 0x1F DUP4 ADD SLT PUSH2 0x288 JUMPI PUSH2 0x287 PUSH2 0x6E8 JUMP JUMPDEST JUMPDEST DUP2 MLOAD PUSH2 0x298 DUP5 DUP3 PUSH1 0x20 DUP7 ADD PUSH2 0x1D5 JUMP JUMPDEST SWAP2 POP POP SWAP3 SWAP2 POP POP JUMP JUMPDEST PUSH1 0x0 DUP2 CALLDATALOAD SWAP1 POP PUSH2 0x2B0 DUP2 PUSH2 0x70D JUMP JUMPDEST SWAP3 SWAP2 POP POP JUMP JUMPDEST PUSH1 0x0 DUP2 MLOAD SWAP1 POP PUSH2 0x2C5 DUP2 PUSH2 0x70D JUMP JUMPDEST SWAP3 SWAP2 POP POP JUMP JUMPDEST PUSH1 0x0 PUSH1 0x20 DUP3 DUP5 SUB SLT ISZERO PUSH2 0x2E1 JUMPI PUSH2 0x2E0 PUSH2 0x6F7 JUMP JUMPDEST JUMPDEST PUSH1 0x0 DUP3 ADD CALLDATALOAD PUSH8 0xFFFFFFFFFFFFFFFF DUP2 GT ISZERO PUSH2 0x2FF JUMPI PUSH2 0x2FE PUSH2 0x6F2 JUMP JUMPDEST JUMPDEST PUSH2 0x30B DUP5 DUP3 DUP6 ADD PUSH2 0x217 JUMP JUMPDEST SWAP2 POP POP SWAP3 SWAP2 POP POP JUMP JUMPDEST PUSH1 0x0 PUSH1 0x20 DUP3 DUP5 SUB SLT ISZERO PUSH2 0x32A JUMPI PUSH2 0x329 PUSH2 0x6F7 JUMP JUMPDEST JUMPDEST PUSH1 0x0 DUP3 ADD MLOAD PUSH8 0xFFFFFFFFFFFFFFFF DUP2 GT ISZERO PUSH2 0x348 JUMPI PUSH2 0x347 PUSH2 0x6F2 JUMP JUMPDEST JUMPDEST PUSH2 0x354 DUP5 DUP3 DUP6 ADD PUSH2 0x273 JUMP JUMPDEST SWAP2 POP POP SWAP3 SWAP2 POP POP JUMP JUMPDEST PUSH1 0x0 DUP1 PUSH1 0x0 PUSH1 0x60 DUP5 DUP7 SUB SLT ISZERO PUSH2 0x376 JUMPI PUSH2 0x375 PUSH2 0x6F7 JUMP JUMPDEST JUMPDEST PUSH1 0x0 DUP5 ADD CALLDATALOAD PUSH8 0xFFFFFFFFFFFFFFFF DUP2 GT ISZERO PUSH2 0x394 JUMPI PUSH2 0x393 PUSH2 0x6F2 JUMP JUMPDEST JUMPDEST PUSH2 0x3A0 DUP7 DUP3 DUP8 ADD PUSH2 0x245 JUMP JUMPDEST SWAP4 POP POP PUSH1 0x20 PUSH2 0x3B1 DUP7 DUP3 DUP8 ADD PUSH2 0x2A1 JUMP JUMPDEST SWAP3 POP POP PUSH1 0x40 DUP5 ADD CALLDATALOAD PUSH8 0xFFFFFFFFFFFFFFFF DUP2 GT ISZERO PUSH2 0x3D2 JUMPI PUSH2 0x3D1 PUSH2 0x6F2 JUMP JUMPDEST JUMPDEST PUSH2 0x3DE DUP7 DUP3 DUP8 ADD PUSH2 0x245 JUMP JUMPDEST SWAP2 POP POP SWAP3 POP SWAP3 POP SWAP3 JUMP JUMPDEST PUSH1 0x0 DUP1 PUSH1 0x0 PUSH1 0x60 DUP5 DUP7 SUB SLT ISZERO PUSH2 0x401 JUMPI PUSH2 0x400 PUSH2 0x6F7 JUMP JUMPDEST JUMPDEST PUSH1 0x0 DUP5 ADD MLOAD PUSH8 0xFFFFFFFFFFFFFFFF DUP2 GT ISZERO PUSH2 0x41F JUMPI PUSH2 0x41E PUSH2 0x6F2 JUMP JUMPDEST JUMPDEST PUSH2 0x42B DUP7 DUP3 DUP8 ADD PUSH2 0x273 JUMP JUMPDEST SWAP4 POP POP PUSH1 0x20 PUSH2 0x43C DUP7 DUP3 DUP8 ADD PUSH2 0x2B6 JUMP JUMPDEST SWAP3 POP POP PUSH1 0x40 DUP5 ADD MLOAD PUSH8 0xFFFFFFFFFFFFFFFF DUP2 GT ISZERO PUSH2 0x45D JUMPI PUSH2 0x45C PUSH2 0x6F2 JUMP JUMPDEST JUMPDEST PUSH2 0x469 DUP7 DUP3 DUP8 ADD PUSH2 0x273 JUMP JUMPDEST SWAP2 POP POP SWAP3 POP SWAP3 POP SWAP3 JUMP JUMPDEST PUSH1 0x0 PUSH2 0x47E DUP3 PUSH2 0x604 JUMP JUMPDEST PUSH2 0x488 DUP2 DUP6 PUSH2 0x61A JUMP JUMPDEST SWAP4 POP PUSH2 0x498 DUP2 DUP6 PUSH1 0x20 DUP7 ADD PUSH2 0x655 JUMP JUMPDEST PUSH2 0x4A1 DUP2 PUSH2 0x6FC JUMP JUMPDEST DUP5 ADD SWAP2 POP POP SWAP3 SWAP2 POP POP JUMP JUMPDEST PUSH1 0x0 PUSH2 0x4B7 DUP3 PUSH2 0x60F JUMP JUMPDEST PUSH2 0x4C1 DUP2 DUP6 PUSH2 0x62B JUMP JUMPDEST SWAP4 POP PUSH2 0x4D1 DUP2 DUP6 PUSH1 0x20 DUP7 ADD PUSH2 0x655 JUMP JUMPDEST PUSH2 0x4DA DUP2 PUSH2 0x6FC JUMP JUMPDEST DUP5 ADD SWAP2 POP POP SWAP3 SWAP2 POP POP JUMP JUMPDEST PUSH2 0x4EE DUP2 PUSH2 0x63C JUMP JUMPDEST DUP3 MSTORE POP POP JUMP JUMPDEST PUSH1 0x0 PUSH1 0x20 DUP3 ADD SWAP1 POP DUP2 DUP2 SUB PUSH1 0x0 DUP4 ADD MSTORE PUSH2 0x50E DUP2 DUP5 PUSH2 0x473 JUMP JUMPDEST SWAP1 POP SWAP3 SWAP2 POP POP JUMP JUMPDEST PUSH1 0x0 PUSH1 0x20 DUP3 ADD SWAP1 POP DUP2 DUP2 SUB PUSH1 0x0 DUP4 ADD MSTORE PUSH2 0x530 DUP2 DUP5 PUSH2 0x4AC JUMP JUMPDEST SWAP1 POP SWAP3 SWAP2 POP POP JUMP JUMPDEST PUSH1 0x0 PUSH1 0x60 DUP3 ADD SWAP1 POP DUP2 DUP2 SUB PUSH1 0x0 DUP4 ADD MSTORE PUSH2 0x552 DUP2 DUP7 PUSH2 0x4AC JUMP JUMPDEST SWAP1 POP PUSH2 0x561 PUSH1 0x20 DUP4 ADD DUP6 PUSH2 0x4E5 JUMP JUMPDEST DUP2 DUP2 SUB PUSH1 0x40 DUP4 ADD MSTORE PUSH2 0x573 DUP2 DUP5 PUSH2 0x4AC JUMP JUMPDEST SWAP1 POP SWAP5 SWAP4 POP POP POP POP JUMP JUMPDEST PUSH1 0x0 PUSH2 0x587 PUSH2 0x598 JUMP JUMPDEST SWAP1 POP PUSH2 0x593 DUP3 DUP3 PUSH2 0x688 JUMP JUMPDEST SWAP2 SWAP1 POP JUMP JUMPDEST PUSH1 0x0 PUSH1 0x40 MLOAD SWAP1 POP SWAP1 JUMP JUMPDEST PUSH1 0x0 PUSH8 0xFFFFFFFFFFFFFFFF DUP3 GT ISZERO PUSH2 0x5BD JUMPI PUSH2 0x5BC PUSH2 0x6B9 JUMP JUMPDEST JUMPDEST PUSH2 0x5C6 DUP3 PUSH2 0x6FC JUMP JUMPDEST SWAP1 POP PUSH1 0x20 DUP2 ADD SWAP1 POP SWAP2 SWAP1 POP JUMP JUMPDEST PUSH1 0x0 PUSH8 0xFFFFFFFFFFFFFFFF DUP3 GT ISZERO PUSH2 0x5EE JUMPI PUSH2 0x5ED PUSH2 0x6B9 JUMP JUMPDEST JUMPDEST PUSH2 0x5F7 DUP3 PUSH2 0x6FC JUMP JUMPDEST SWAP1 POP PUSH1 0x20 DUP2 ADD SWAP1 POP SWAP2 SWAP1 POP JUMP JUMPDEST PUSH1 0x0 DUP2 MLOAD SWAP1 POP SWAP2 SWAP1 POP JUMP JUMPDEST PUSH1 0x0 DUP2 MLOAD SWAP1 POP SWAP2 SWAP1 POP JUMP JUMPDEST PUSH1 0x0 DUP3 DUP3 MSTORE PUSH1 0x20 DUP3 ADD SWAP1 POP SWAP3 SWAP2 POP POP JUMP JUMPDEST PUSH1 0x0 DUP3 DUP3 MSTORE PUSH1 0x20 DUP3 ADD SWAP1 POP SWAP3 SWAP2 POP POP JUMP JUMPDEST PUSH1 0x0 DUP2 SWAP1 POP SWAP2 SWAP1 POP JUMP JUMPDEST DUP3 DUP2 DUP4 CALLDATACOPY PUSH1 0x0 DUP4 DUP4 ADD MSTORE POP POP POP JUMP JUMPDEST PUSH1 0x0 JUMPDEST DUP4 DUP2 LT ISZERO PUSH2 0x673 JUMPI DUP1 DUP3 ADD MLOAD DUP2 DUP5 ADD MSTORE PUSH1 0x20 DUP2 ADD SWAP1 POP PUSH2 0x658 JUMP JUMPDEST DUP4 DUP2 GT ISZERO PUSH2 0x682 JUMPI PUSH1 0x0 DUP5 DUP5 ADD MSTORE JUMPDEST POP POP POP POP JUMP JUMPDEST PUSH2 0x691 DUP3 PUSH2 0x6FC JUMP JUMPDEST DUP2 ADD DUP2 DUP2 LT PUSH8 0xFFFFFFFFFFFFFFFF DUP3 GT OR ISZERO PUSH2 0x6B0 JUMPI PUSH2 0x6AF PUSH2 0x6B9 JUMP JUMPDEST JUMPDEST DUP1 PUSH1 0x40 MSTORE POP POP POP JUMP JUMPDEST PUSH32 0x4E487B7100000000000000000000000000000000000000000000000000000000 PUSH1 0x0 MSTORE PUSH1 0x41 PUSH1 0x4 MSTORE PUSH1 0x24 PUSH1 0x0 REVERT JUMPDEST PUSH1 0x0 DUP1 REVERT JUMPDEST PUSH1 0x0 DUP1 REVERT JUMPDEST PUSH1 0x0 DUP1 REVERT JUMPDEST PUSH1 0x0 DUP1 REVERT JUMPDEST PUSH1 0x0 PUSH1 0x1F NOT PUSH1 0x1F DUP4 ADD AND SWAP1 POP SWAP2 SWAP1 POP JUMP JUMPDEST PUSH2 0x716 DUP2 PUSH2 0x63C JUMP JUMPDEST DUP2 EQ PUSH2 0x721 JUMPI PUSH1 0x0 DUP1 REVERT JUMPDEST POP JUMP INVALID LOG2 PUSH5 0x6970667358 0x22 SLT KECCAK256 DUP5 PUSH28 0xA52BC5D6071D1B7303F732AFAAC0530C6D375E960055A58FA5561D0F 0xF8 0xCD PUSH5 0x736F6C6343 STOP ADDMOD SMOD STOP CALLER "
				},
				"gasEstimates": {
					"creation": {
						"codeDepositCost": "376400",
						"executionCost": "411",
						"totalCost": "376811"
					},
					"external": {
						"deCode(bytes)": "infinite",
						"deCode2(bytes)": "infinite",
						"encode(string,uint256,string)": "infinite"
					}
				},
				"methodIdentifiers": {
					"deCode(bytes)": "d097af29",
					"deCode2(bytes)": "3d9c6d4f",
					"encode(string,uint256,string)": "3b7fa265"
				}
			},
			"storageLayout": {
				"storage": [],
				"types": null
			},
			"userdoc": {
				"kind": "user",
				"methods": {},
				"version": 1
			}
		}
	}
}