{
	"contracts/BuyWithdrawal.sol": {
		"BuyWithdraw": {
			"abi": [
				{
					"inputs": [],
					"stateMutability": "nonpayable",
					"type": "constructor"
				},
				{
					"anonymous": false,
					"inputs": [
						{
							"indexed": true,
							"internalType": "address",
							"name": "owner",
							"type": "address"
						},
						{
							"indexed": true,
							"internalType": "address",
							"name": "spender",
							"type": "address"
						},
						{
							"indexed": false,
							"internalType": "uint256",
							"name": "value",
							"type": "uint256"
						}
					],
					"name": "Approval",
					"type": "event"
				},
				{
					"anonymous": false,
					"inputs": [
						{
							"indexed": true,
							"internalType": "address",
							"name": "previousOwner",
							"type": "address"
						},
						{
							"indexed": true,
							"internalType": "address",
							"name": "newOwner",
							"type": "address"
						}
					],
					"name": "OwnershipTransferred",
					"type": "event"
				},
				{
					"anonymous": false,
					"inputs": [
						{
							"indexed": true,
							"internalType": "address",
							"name": "from",
							"type": "address"
						},
						{
							"indexed": true,
							"internalType": "address",
							"name": "to",
							"type": "address"
						},
						{
							"indexed": false,
							"internalType": "uint256",
							"name": "value",
							"type": "uint256"
						}
					],
					"name": "Transfer",
					"type": "event"
				},
				{
					"inputs": [
						{
							"internalType": "address",
							"name": "owner",
							"type": "address"
						},
						{
							"internalType": "address",
							"name": "spender",
							"type": "address"
						}
					],
					"name": "allowance",
					"outputs": [
						{
							"internalType": "uint256",
							"name": "",
							"type": "uint256"
						}
					],
					"stateMutability": "view",
					"type": "function"
				},
				{
					"inputs": [
						{
							"internalType": "address",
							"name": "spender",
							"type": "address"
						},
						{
							"internalType": "uint256",
							"name": "amount",
							"type": "uint256"
						}
					],
					"name": "approve",
					"outputs": [
						{
							"internalType": "bool",
							"name": "",
							"type": "bool"
						}
					],
					"stateMutability": "nonpayable",
					"type": "function"
				},
				{
					"inputs": [
						{
							"internalType": "address",
							"name": "account",
							"type": "address"
						}
					],
					"name": "balanceOf",
					"outputs": [
						{
							"internalType": "uint256",
							"name": "",
							"type": "uint256"
						}
					],
					"stateMutability": "view",
					"type": "function"
				},
				{
					"inputs": [],
					"name": "buy",
					"outputs": [
						{
							"internalType": "bool",
							"name": "",
							"type": "bool"
						}
					],
					"stateMutability": "payable",
					"type": "function"
				},
				{
					"inputs": [],
					"name": "decimals",
					"outputs": [
						{
							"internalType": "uint8",
							"name": "",
							"type": "uint8"
						}
					],
					"stateMutability": "view",
					"type": "function"
				},
				{
					"inputs": [
						{
							"internalType": "address",
							"name": "spender",
							"type": "address"
						},
						{
							"internalType": "uint256",
							"name": "subtractedValue",
							"type": "uint256"
						}
					],
					"name": "decreaseAllowance",
					"outputs": [
						{
							"internalType": "bool",
							"name": "",
							"type": "bool"
						}
					],
					"stateMutability": "nonpayable",
					"type": "function"
				},
				{
					"inputs": [
						{
							"internalType": "address",
							"name": "spender",
							"type": "address"
						},
						{
							"internalType": "uint256",
							"name": "addedValue",
							"type": "uint256"
						}
					],
					"name": "increaseAllowance",
					"outputs": [
						{
							"internalType": "bool",
							"name": "",
							"type": "bool"
						}
					],
					"stateMutability": "nonpayable",
					"type": "function"
				},
				{
					"inputs": [],
					"name": "name",
					"outputs": [
						{
							"internalType": "string",
							"name": "",
							"type": "string"
						}
					],
					"stateMutability": "view",
					"type": "function"
				},
				{
					"inputs": [],
					"name": "owner",
					"outputs": [
						{
							"internalType": "address",
							"name": "",
							"type": "address"
						}
					],
					"stateMutability": "view",
					"type": "function"
				},
				{
					"inputs": [],
					"name": "renounceOwnership",
					"outputs": [],
					"stateMutability": "nonpayable",
					"type": "function"
				},
				{
					"inputs": [],
					"name": "symbol",
					"outputs": [
						{
							"internalType": "string",
							"name": "",
							"type": "string"
						}
					],
					"stateMutability": "view",
					"type": "function"
				},
				{
					"inputs": [],
					"name": "totalSupply",
					"outputs": [
						{
							"internalType": "uint256",
							"name": "",
							"type": "uint256"
						}
					],
					"stateMutability": "view",
					"type": "function"
				},
				{
					"inputs": [
						{
							"internalType": "address",
							"name": "to",
							"type": "address"
						},
						{
							"internalType": "uint256",
							"name": "amount",
							"type": "uint256"
						}
					],
					"name": "transfer",
					"outputs": [
						{
							"internalType": "bool",
							"name": "",
							"type": "bool"
						}
					],
					"stateMutability": "nonpayable",
					"type": "function"
				},
				{
					"inputs": [
						{
							"internalType": "address",
							"name": "from",
							"type": "address"
						},
						{
							"internalType": "address",
							"name": "to",
							"type": "address"
						},
						{
							"internalType": "uint256",
							"name": "amount",
							"type": "uint256"
						}
					],
					"name": "transferFrom",
					"outputs": [
						{
							"internalType": "bool",
							"name": "",
							"type": "bool"
						}
					],
					"stateMutability": "nonpayable",
					"type": "function"
				},
				{
					"inputs": [
						{
							"internalType": "address",
							"name": "newOwner",
							"type": "address"
						}
					],
					"name": "transferOwnership",
					"outputs": [],
					"stateMutability": "nonpayable",
					"type": "function"
				}
			],
			"devdoc": {
				"kind": "dev",
				"methods": {
					"allowance(address,address)": {
						"details": "See {IERC20-allowance}."
					},
					"approve(address,uint256)": {
						"details": "See {IERC20-approve}. NOTE: If `amount` is the maximum `uint256`, the allowance is not updated on `transferFrom`. This is semantically equivalent to an infinite approval. Requirements: - `spender` cannot be the zero address."
					},
					"balanceOf(address)": {
						"details": "See {IERC20-balanceOf}."
					},
					"decimals()": {
						"details": "Returns the number of decimals used to get its user representation. For example, if `decimals` equals `2`, a balance of `505` tokens should be displayed to a user as `5.05` (`505 / 10 ** 2`). Tokens usually opt for a value of 18, imitating the relationship between Ether and Wei. This is the value {ERC20} uses, unless this function is overridden; NOTE: This information is only used for _display_ purposes: it in no way affects any of the arithmetic of the contract, including {IERC20-balanceOf} and {IERC20-transfer}."
					},
					"decreaseAllowance(address,uint256)": {
						"details": "Atomically decreases the allowance granted to `spender` by the caller. This is an alternative to {approve} that can be used as a mitigation for problems described in {IERC20-approve}. Emits an {Approval} event indicating the updated allowance. Requirements: - `spender` cannot be the zero address. - `spender` must have allowance for the caller of at least `subtractedValue`."
					},
					"increaseAllowance(address,uint256)": {
						"details": "Atomically increases the allowance granted to `spender` by the caller. This is an alternative to {approve} that can be used as a mitigation for problems described in {IERC20-approve}. Emits an {Approval} event indicating the updated allowance. Requirements: - `spender` cannot be the zero address."
					},
					"name()": {
						"details": "Returns the name of the token."
					},
					"owner()": {
						"details": "Returns the address of the current owner."
					},
					"renounceOwnership()": {
						"details": "Leaves the contract without owner. It will not be possible to call `onlyOwner` functions anymore. Can only be called by the current owner. NOTE: Renouncing ownership will leave the contract without an owner, thereby removing any functionality that is only available to the owner."
					},
					"symbol()": {
						"details": "Returns the symbol of the token, usually a shorter version of the name."
					},
					"totalSupply()": {
						"details": "See {IERC20-totalSupply}."
					},
					"transfer(address,uint256)": {
						"details": "See {IERC20-transfer}. Requirements: - `to` cannot be the zero address. - the caller must have a balance of at least `amount`."
					},
					"transferFrom(address,address,uint256)": {
						"details": "See {IERC20-transferFrom}. Emits an {Approval} event indicating the updated allowance. This is not required by the EIP. See the note at the beginning of {ERC20}. NOTE: Does not update the allowance if the current allowance is the maximum `uint256`. Requirements: - `from` and `to` cannot be the zero address. - `from` must have a balance of at least `amount`. - the caller must have allowance for ``from``'s tokens of at least `amount`."
					},
					"transferOwnership(address)": {
						"details": "Transfers ownership of the contract to a new account (`newOwner`). Can only be called by the current owner."
					}
				},
				"version": 1
			},
			"evm": {
				"assembly": "    /* \"contracts/BuyWithdrawal.sol\":171:940  contract BuyWithdraw is ERC20,Ownable \r... */\n  mstore(0x40, 0x80)\n    /* \"contracts/BuyWithdrawal.sol\":218:365  constructor() ERC20(\"NIHA\",\"NA\")\r... */\n  callvalue\n  dup1\n  iszero\n  tag_1\n  jumpi\n  0x00\n  dup1\n  revert\ntag_1:\n  pop\n    /* \"@openzeppelin/contracts/token/ERC20/ERC20.sol\":1976:2089  constructor(string memory name_, string memory symbol_) {... */\n  0x40\n  dup1\n  mload\n  dup1\n  dup3\n  add\n  dup3\n  mstore\n  0x04\n  dup2\n  mstore\n  shl(0xe0, 0x4e494841)\n  0x20\n  dup1\n  dup4\n  add\n  swap2\n  dup3\n  mstore\n  dup4\n  mload\n  dup1\n  dup6\n  add\n  swap1\n  swap5\n  mstore\n  0x02\n  dup5\n  mstore\n  shl(0xf0, 0x4e41)\n  swap1\n  dup5\n  add\n  mstore\n    /* \"@openzeppelin/contracts/token/ERC20/ERC20.sol\":2042:2055  _name = name_ */\n  dup2\n  mload\n    /* \"@openzeppelin/contracts/token/ERC20/ERC20.sol\":1976:2089  constructor(string memory name_, string memory symbol_) {... */\n  swap2\n  swap3\n  swap2\n    /* \"@openzeppelin/contracts/token/ERC20/ERC20.sol\":2042:2055  _name = name_ */\n  tag_6\n  swap2\n    /* \"@openzeppelin/contracts/token/ERC20/ERC20.sol\":2042:2047  _name */\n  0x03\n  swap2\n    /* \"@openzeppelin/contracts/token/ERC20/ERC20.sol\":2042:2055  _name = name_ */\n  tag_7\n  jump\t// in\ntag_6:\n  pop\n    /* \"@openzeppelin/contracts/token/ERC20/ERC20.sol\":2065:2082  _symbol = symbol_ */\n  dup1\n  mload\n  tag_8\n  swap1\n    /* \"@openzeppelin/contracts/token/ERC20/ERC20.sol\":2065:2072  _symbol */\n  0x04\n  swap1\n    /* \"@openzeppelin/contracts/token/ERC20/ERC20.sol\":2065:2082  _symbol = symbol_ */\n  0x20\n  dup5\n  add\n  swap1\n  tag_7\n  jump\t// in\ntag_8:\n  pop\n    /* \"@openzeppelin/contracts/token/ERC20/ERC20.sol\":1976:2089  constructor(string memory name_, string memory symbol_) {... */\n  pop\n  pop\n    /* \"@openzeppelin/contracts/access/Ownable.sol\":936:968  _transferOwnership(_msgSender()) */\n  tag_10\n    /* \"@openzeppelin/contracts/access/Ownable.sol\":955:967  _msgSender() */\n  tag_11\n    /* \"@openzeppelin/contracts/access/Ownable.sol\":955:965  _msgSender */\n  shl(0x20, tag_12)\n    /* \"@openzeppelin/contracts/access/Ownable.sol\":955:967  _msgSender() */\n  0x20\n  shr\n  jump\t// in\ntag_11:\n    /* \"@openzeppelin/contracts/access/Ownable.sol\":936:954  _transferOwnership */\n  tag_13\n    /* \"@openzeppelin/contracts/access/Ownable.sol\":936:968  _transferOwnership(_msgSender()) */\n  jump\t// in\ntag_10:\n    /* \"contracts/BuyWithdrawal.sol\":305:357  _mint(msg.sender, 1000000*(10**uint256(decimals()))) */\n  tag_15\n    /* \"contracts/BuyWithdrawal.sol\":311:321  msg.sender */\n  caller\n    /* \"contracts/BuyWithdrawal.sol\":332:355  10**uint256(decimals()) */\n  tag_18\n    /* \"@openzeppelin/contracts/token/ERC20/ERC20.sol\":3173:3175  18 */\n  0x12\n    /* \"contracts/BuyWithdrawal.sol\":332:334  10 */\n  0x0a\n    /* \"contracts/BuyWithdrawal.sol\":332:355  10**uint256(decimals()) */\n  tag_19\n  jump\t// in\ntag_18:\n    /* \"contracts/BuyWithdrawal.sol\":323:356  1000000*(10**uint256(decimals())) */\n  tag_20\n  swap1\n    /* \"contracts/BuyWithdrawal.sol\":323:330  1000000 */\n  0x0f4240\n    /* \"contracts/BuyWithdrawal.sol\":323:356  1000000*(10**uint256(decimals())) */\n  tag_21\n  jump\t// in\ntag_20:\n    /* \"contracts/BuyWithdrawal.sol\":305:310  _mint */\n  tag_22\n    /* \"contracts/BuyWithdrawal.sol\":305:357  _mint(msg.sender, 1000000*(10**uint256(decimals()))) */\n  jump\t// in\ntag_15:\n    /* \"contracts/BuyWithdrawal.sol\":171:940  contract BuyWithdraw is ERC20,Ownable \r... */\n  jump(tag_52)\n    /* \"@openzeppelin/contracts/utils/Context.sol\":640:736  function _msgSender() internal view virtual returns (address) {... */\ntag_12:\n    /* \"@openzeppelin/contracts/utils/Context.sol\":719:729  msg.sender */\n  caller\n  swap1\n    /* \"@openzeppelin/contracts/utils/Context.sol\":640:736  function _msgSender() internal view virtual returns (address) {... */\n  jump\t// out\n    /* \"@openzeppelin/contracts/access/Ownable.sol\":2433:2620  function _transferOwnership(address newOwner) internal virtual {... */\ntag_13:\n    /* \"@openzeppelin/contracts/access/Ownable.sol\":2525:2531  _owner */\n  0x05\n  dup1\n  sload\n  sub(shl(0xa0, 0x01), 0x01)\n    /* \"@openzeppelin/contracts/access/Ownable.sol\":2541:2558  _owner = newOwner */\n  dup4\n  dup2\n  and\n  not(sub(shl(0xa0, 0x01), 0x01))\n  dup4\n  and\n  dup2\n  or\n  swap1\n  swap4\n  sstore\n    /* \"@openzeppelin/contracts/access/Ownable.sol\":2573:2613  OwnershipTransferred(oldOwner, newOwner) */\n  mload(0x40)\n    /* \"@openzeppelin/contracts/access/Ownable.sol\":2525:2531  _owner */\n  swap2\n  and\n  swap2\n    /* \"@openzeppelin/contracts/access/Ownable.sol\":2541:2558  _owner = newOwner */\n  swap1\n    /* \"@openzeppelin/contracts/access/Ownable.sol\":2525:2531  _owner */\n  dup3\n  swap1\n    /* \"@openzeppelin/contracts/access/Ownable.sol\":2573:2613  OwnershipTransferred(oldOwner, newOwner) */\n  0x8be0079c531659141344cd1fd0a4f28419497f9722a3daafe3b4186f6b6457e0\n  swap1\n    /* \"@openzeppelin/contracts/access/Ownable.sol\":2506:2522  address oldOwner */\n  0x00\n  swap1\n    /* \"@openzeppelin/contracts/access/Ownable.sol\":2573:2613  OwnershipTransferred(oldOwner, newOwner) */\n  log3\n    /* \"@openzeppelin/contracts/access/Ownable.sol\":2496:2620  {... */\n  pop\n    /* \"@openzeppelin/contracts/access/Ownable.sol\":2433:2620  function _transferOwnership(address newOwner) internal virtual {... */\n  pop\n  jump\t// out\n    /* \"@openzeppelin/contracts/token/ERC20/ERC20.sol\":8567:9102  function _mint(address account, uint256 amount) internal virtual {... */\ntag_22:\n  sub(shl(0xa0, 0x01), 0x01)\n    /* \"@openzeppelin/contracts/token/ERC20/ERC20.sol\":8650:8671  account != address(0) */\n  dup3\n  and\n    /* \"@openzeppelin/contracts/token/ERC20/ERC20.sol\":8642:8707  require(account != address(0), \"ERC20: mint to the zero address\") */\n  tag_28\n  jumpi\n  mload(0x40)\n  shl(0xe5, 0x461bcd)\n  dup2\n  mstore\n    /* \"#utility.yul\":216:218   */\n  0x20\n    /* \"@openzeppelin/contracts/token/ERC20/ERC20.sol\":8642:8707  require(account != address(0), \"ERC20: mint to the zero address\") */\n  0x04\n  dup3\n  add\n    /* \"#utility.yul\":198:219   */\n  mstore\n    /* \"#utility.yul\":255:257   */\n  0x1f\n    /* \"#utility.yul\":235:253   */\n  0x24\n  dup3\n  add\n    /* \"#utility.yul\":228:258   */\n  mstore\n    /* \"#utility.yul\":294:327   */\n  0x45524332303a206d696e7420746f20746865207a65726f206164647265737300\n    /* \"#utility.yul\":274:292   */\n  0x44\n  dup3\n  add\n    /* \"#utility.yul\":267:328   */\n  mstore\n    /* \"#utility.yul\":345:363   */\n  0x64\n  add\n    /* \"@openzeppelin/contracts/token/ERC20/ERC20.sol\":8642:8707  require(account != address(0), \"ERC20: mint to the zero address\") */\n  mload(0x40)\n  dup1\n  swap2\n  sub\n  swap1\n  revert\ntag_28:\n    /* \"@openzeppelin/contracts/token/ERC20/ERC20.sol\":8794:8800  amount */\n  dup1\n    /* \"@openzeppelin/contracts/token/ERC20/ERC20.sol\":8778:8790  _totalSupply */\n  0x02\n  0x00\n    /* \"@openzeppelin/contracts/token/ERC20/ERC20.sol\":8778:8800  _totalSupply += amount */\n  dup3\n  dup3\n  sload\n  tag_33\n  swap2\n  swap1\n  tag_34\n  jump\t// in\ntag_33:\n  swap1\n  swap2\n  sstore\n  pop\n  pop\n  sub(shl(0xa0, 0x01), 0x01)\n    /* \"@openzeppelin/contracts/token/ERC20/ERC20.sol\":8946:8964  _balances[account] */\n  dup3\n  and\n    /* \"@openzeppelin/contracts/token/ERC20/ERC20.sol\":8946:8955  _balances */\n  0x00\n    /* \"@openzeppelin/contracts/token/ERC20/ERC20.sol\":8946:8964  _balances[account] */\n  dup2\n  dup2\n  mstore\n  0x20\n  dup2\n  dup2\n  mstore\n  0x40\n  dup1\n  dup4\n  keccak256\n    /* \"@openzeppelin/contracts/token/ERC20/ERC20.sol\":8946:8974  _balances[account] += amount */\n  dup1\n  sload\n  dup7\n  add\n  swap1\n  sstore\n    /* \"@openzeppelin/contracts/token/ERC20/ERC20.sol\":8999:9036  Transfer(address(0), account, amount) */\n  mload\n    /* \"#utility.yul\":520:545   */\n  dup5\n  dup2\n  mstore\n    /* \"@openzeppelin/contracts/token/ERC20/ERC20.sol\":8999:9036  Transfer(address(0), account, amount) */\n  0xddf252ad1be2c89b69c2b068fc378daa952ba7f163c4a11628f55a4df523b3ef\n  swap2\n    /* \"#utility.yul\":493:511   */\n  add\n    /* \"@openzeppelin/contracts/token/ERC20/ERC20.sol\":8999:9036  Transfer(address(0), account, amount) */\n  mload(0x40)\n  dup1\n  swap2\n  sub\n  swap1\n  log3\n    /* \"@openzeppelin/contracts/token/ERC20/ERC20.sol\":8567:9102  function _mint(address account, uint256 amount) internal virtual {... */\n  pop\n  pop\n  jump\t// out\n    /* \"contracts/BuyWithdrawal.sol\":171:940  contract BuyWithdraw is ERC20,Ownable \r... */\ntag_7:\n  dup3\n  dup1\n  sload\n  tag_41\n  swap1\n  tag_42\n  jump\t// in\ntag_41:\n  swap1\n  0x00\n  mstore\n  keccak256(0x00, 0x20)\n  swap1\n  0x1f\n  add\n  0x20\n  swap1\n  div\n  dup2\n  add\n  swap3\n  dup3\n  tag_44\n  jumpi\n  0x00\n  dup6\n  sstore\n  jump(tag_47)\ntag_44:\n  dup3\n  0x1f\n  lt\n  tag_45\n  jumpi\n  dup1\n  mload\n  not(0xff)\n  and\n  dup4\n  dup1\n  add\n  or\n  dup6\n  sstore\n  jump(tag_47)\ntag_45:\n  dup3\n  dup1\n  add\n  0x01\n  add\n  dup6\n  sstore\n  dup3\n  iszero\n  tag_47\n  jumpi\n  swap2\n  dup3\n  add\ntag_46:\n  dup3\n  dup2\n  gt\n  iszero\n  tag_47\n  jumpi\n  dup3\n  mload\n  dup3\n  sstore\n  swap2\n  0x20\n  add\n  swap2\n  swap1\n  0x01\n  add\n  swap1\n  jump(tag_46)\ntag_47:\n  pop\n  tag_48\n  swap3\n  swap2\n  pop\n  tag_49\n  jump\t// in\ntag_48:\n  pop\n  swap1\n  jump\t// out\ntag_49:\ntag_50:\n  dup1\n  dup3\n  gt\n  iszero\n  tag_48\n  jumpi\n  0x00\n  dup2\n  sstore\n  0x01\n  add\n  jump(tag_50)\n    /* \"#utility.yul\":556:684   */\ntag_34:\n    /* \"#utility.yul\":596:599   */\n  0x00\n    /* \"#utility.yul\":627:628   */\n  dup3\n    /* \"#utility.yul\":623:629   */\n  not\n    /* \"#utility.yul\":620:621   */\n  dup3\n    /* \"#utility.yul\":617:630   */\n  gt\n    /* \"#utility.yul\":614:653   */\n  iszero\n  tag_57\n  jumpi\n    /* \"#utility.yul\":633:651   */\n  tag_57\n  tag_58\n  jump\t// in\ntag_57:\n  pop\n    /* \"#utility.yul\":669:678   */\n  add\n  swap1\n    /* \"#utility.yul\":556:684   */\n  jump\t// out\n    /* \"#utility.yul\":689:1111   */\ntag_59:\n    /* \"#utility.yul\":778:779   */\n  0x01\n    /* \"#utility.yul\":821:826   */\n  dup2\n    /* \"#utility.yul\":778:779   */\n  dup2\n    /* \"#utility.yul\":835:1105   */\ntag_61:\n    /* \"#utility.yul\":856:863   */\n  dup1\n    /* \"#utility.yul\":846:854   */\n  dup6\n    /* \"#utility.yul\":843:864   */\n  gt\n    /* \"#utility.yul\":835:1105   */\n  iszero\n  tag_63\n  jumpi\n    /* \"#utility.yul\":915:919   */\n  dup2\n    /* \"#utility.yul\":911:912   */\n  0x00\n    /* \"#utility.yul\":907:913   */\n  not\n    /* \"#utility.yul\":903:920   */\n  div\n    /* \"#utility.yul\":897:901   */\n  dup3\n    /* \"#utility.yul\":894:921   */\n  gt\n    /* \"#utility.yul\":891:944   */\n  iszero\n  tag_65\n  jumpi\n    /* \"#utility.yul\":924:942   */\n  tag_65\n  tag_58\n  jump\t// in\ntag_65:\n    /* \"#utility.yul\":974:981   */\n  dup1\n    /* \"#utility.yul\":964:972   */\n  dup6\n    /* \"#utility.yul\":960:982   */\n  and\n    /* \"#utility.yul\":957:1012   */\n  iszero\n  tag_66\n  jumpi\n    /* \"#utility.yul\":994:1010   */\n  swap2\n  dup2\n  mul\n  swap2\n    /* \"#utility.yul\":957:1012   */\ntag_66:\n    /* \"#utility.yul\":1073:1095   */\n  swap4\n  dup5\n  shr\n  swap4\n    /* \"#utility.yul\":1033:1048   */\n  swap1\n  dup1\n  mul\n  swap1\n    /* \"#utility.yul\":835:1105   */\n  jump(tag_61)\ntag_63:\n    /* \"#utility.yul\":839:842   */\n  pop\n    /* \"#utility.yul\":689:1111   */\n  swap3\n  pop\n  swap3\n  swap1\n  pop\n  jump\t// out\n    /* \"#utility.yul\":1116:1247   */\ntag_19:\n    /* \"#utility.yul\":1176:1181   */\n  0x00\n    /* \"#utility.yul\":1205:1241   */\n  tag_68\n    /* \"#utility.yul\":1232:1240   */\n  dup4\n    /* \"#utility.yul\":1226:1230   */\n  dup4\n    /* \"#utility.yul\":1205:1241   */\n  tag_69\n  jump\t// in\ntag_68:\n    /* \"#utility.yul\":1196:1241   */\n  swap4\n    /* \"#utility.yul\":1116:1247   */\n  swap3\n  pop\n  pop\n  pop\n  jump\t// out\n    /* \"#utility.yul\":1252:2058   */\ntag_69:\n    /* \"#utility.yul\":1301:1306   */\n  0x00\n    /* \"#utility.yul\":1331:1339   */\n  dup3\n    /* \"#utility.yul\":1321:1401   */\n  tag_71\n  jumpi\n  pop\n    /* \"#utility.yul\":1372:1373   */\n  0x01\n    /* \"#utility.yul\":1386:1391   */\n  jump(tag_70)\n    /* \"#utility.yul\":1321:1401   */\ntag_71:\n    /* \"#utility.yul\":1420:1424   */\n  dup2\n    /* \"#utility.yul\":1410:1486   */\n  tag_72\n  jumpi\n  pop\n    /* \"#utility.yul\":1457:1458   */\n  0x00\n    /* \"#utility.yul\":1471:1476   */\n  jump(tag_70)\n    /* \"#utility.yul\":1410:1486   */\ntag_72:\n    /* \"#utility.yul\":1502:1506   */\n  dup2\n    /* \"#utility.yul\":1520:1521   */\n  0x01\n    /* \"#utility.yul\":1515:1574   */\n  dup2\n  eq\n  tag_74\n  jumpi\n    /* \"#utility.yul\":1588:1589   */\n  0x02\n    /* \"#utility.yul\":1583:1713   */\n  dup2\n  eq\n  tag_75\n  jumpi\n    /* \"#utility.yul\":1495:1713   */\n  jump(tag_73)\n    /* \"#utility.yul\":1515:1574   */\ntag_74:\n    /* \"#utility.yul\":1545:1546   */\n  0x01\n    /* \"#utility.yul\":1536:1546   */\n  swap2\n  pop\n    /* \"#utility.yul\":1559:1564   */\n  pop\n  jump(tag_70)\n    /* \"#utility.yul\":1583:1713   */\ntag_75:\n    /* \"#utility.yul\":1620:1623   */\n  0xff\n    /* \"#utility.yul\":1610:1618   */\n  dup5\n    /* \"#utility.yul\":1607:1624   */\n  gt\n    /* \"#utility.yul\":1604:1647   */\n  iszero\n  tag_77\n  jumpi\n    /* \"#utility.yul\":1627:1645   */\n  tag_77\n  tag_58\n  jump\t// in\ntag_77:\n  pop\n  pop\n    /* \"#utility.yul\":1683:1684   */\n  0x01\n    /* \"#utility.yul\":1669:1685   */\n  dup3\n  shl\n    /* \"#utility.yul\":1698:1703   */\n  jump(tag_70)\n    /* \"#utility.yul\":1495:1713   */\ntag_73:\n  pop\n    /* \"#utility.yul\":1797:1799   */\n  0x20\n    /* \"#utility.yul\":1787:1795   */\n  dup4\n    /* \"#utility.yul\":1784:1800   */\n  lt\n    /* \"#utility.yul\":1778:1781   */\n  0x0133\n    /* \"#utility.yul\":1772:1776   */\n  dup4\n    /* \"#utility.yul\":1769:1782   */\n  lt\n    /* \"#utility.yul\":1765:1801   */\n  and\n    /* \"#utility.yul\":1759:1761   */\n  0x4e\n    /* \"#utility.yul\":1749:1757   */\n  dup5\n    /* \"#utility.yul\":1746:1762   */\n  lt\n    /* \"#utility.yul\":1741:1743   */\n  0x0b\n    /* \"#utility.yul\":1735:1739   */\n  dup5\n    /* \"#utility.yul\":1732:1744   */\n  lt\n    /* \"#utility.yul\":1728:1763   */\n  and\n    /* \"#utility.yul\":1725:1802   */\n  or\n    /* \"#utility.yul\":1722:1881   */\n  iszero\n  tag_78\n  jumpi\n  pop\n    /* \"#utility.yul\":1834:1853   */\n  dup2\n  dup2\n  exp\n    /* \"#utility.yul\":1866:1871   */\n  jump(tag_70)\n    /* \"#utility.yul\":1722:1881   */\ntag_78:\n    /* \"#utility.yul\":1913:1947   */\n  tag_79\n    /* \"#utility.yul\":1938:1946   */\n  dup4\n    /* \"#utility.yul\":1932:1936   */\n  dup4\n    /* \"#utility.yul\":1913:1947   */\n  tag_59\n  jump\t// in\ntag_79:\n    /* \"#utility.yul\":1983:1989   */\n  dup1\n    /* \"#utility.yul\":1979:1980   */\n  0x00\n    /* \"#utility.yul\":1975:1981   */\n  not\n    /* \"#utility.yul\":1971:1990   */\n  div\n    /* \"#utility.yul\":1962:1969   */\n  dup3\n    /* \"#utility.yul\":1959:1991   */\n  gt\n    /* \"#utility.yul\":1956:2014   */\n  iszero\n  tag_81\n  jumpi\n    /* \"#utility.yul\":1994:2012   */\n  tag_81\n  tag_58\n  jump\t// in\ntag_81:\n    /* \"#utility.yul\":2032:2052   */\n  mul\n  swap1\n  pop\n    /* \"#utility.yul\":1252:2058   */\ntag_70:\n  swap3\n  swap2\n  pop\n  pop\n  jump\t// out\n    /* \"#utility.yul\":2063:2231   */\ntag_21:\n    /* \"#utility.yul\":2103:2110   */\n  0x00\n    /* \"#utility.yul\":2169:2170   */\n  dup2\n    /* \"#utility.yul\":2165:2166   */\n  0x00\n    /* \"#utility.yul\":2161:2167   */\n  not\n    /* \"#utility.yul\":2157:2171   */\n  div\n    /* \"#utility.yul\":2154:2155   */\n  dup4\n    /* \"#utility.yul\":2151:2172   */\n  gt\n    /* \"#utility.yul\":2146:2147   */\n  dup3\n    /* \"#utility.yul\":2139:2148   */\n  iszero\n    /* \"#utility.yul\":2132:2149   */\n  iszero\n    /* \"#utility.yul\":2128:2173   */\n  and\n    /* \"#utility.yul\":2125:2196   */\n  iszero\n  tag_84\n  jumpi\n    /* \"#utility.yul\":2176:2194   */\n  tag_84\n  tag_58\n  jump\t// in\ntag_84:\n  pop\n    /* \"#utility.yul\":2216:2225   */\n  mul\n  swap1\n    /* \"#utility.yul\":2063:2231   */\n  jump\t// out\n    /* \"#utility.yul\":2236:2616   */\ntag_42:\n    /* \"#utility.yul\":2315:2316   */\n  0x01\n    /* \"#utility.yul\":2311:2323   */\n  dup2\n  dup2\n  shr\n  swap1\n    /* \"#utility.yul\":2358:2370   */\n  dup3\n  and\n  dup1\n    /* \"#utility.yul\":2379:2440   */\n  tag_86\n  jumpi\n    /* \"#utility.yul\":2433:2437   */\n  0x7f\n    /* \"#utility.yul\":2425:2431   */\n  dup3\n    /* \"#utility.yul\":2421:2438   */\n  and\n    /* \"#utility.yul\":2411:2438   */\n  swap2\n  pop\n    /* \"#utility.yul\":2379:2440   */\ntag_86:\n    /* \"#utility.yul\":2486:2488   */\n  0x20\n    /* \"#utility.yul\":2478:2484   */\n  dup3\n    /* \"#utility.yul\":2475:2489   */\n  lt\n    /* \"#utility.yul\":2455:2473   */\n  dup2\n    /* \"#utility.yul\":2452:2490   */\n  eq\n    /* \"#utility.yul\":2449:2610   */\n  iszero\n  tag_87\n  jumpi\n    /* \"#utility.yul\":2532:2542   */\n  0x4e487b71\n    /* \"#utility.yul\":2527:2530   */\n  0xe0\n    /* \"#utility.yul\":2523:2543   */\n  shl\n    /* \"#utility.yul\":2520:2521   */\n  0x00\n    /* \"#utility.yul\":2513:2544   */\n  mstore\n    /* \"#utility.yul\":2567:2571   */\n  0x22\n    /* \"#utility.yul\":2564:2565   */\n  0x04\n    /* \"#utility.yul\":2557:2572   */\n  mstore\n    /* \"#utility.yul\":2595:2599   */\n  0x24\n    /* \"#utility.yul\":2592:2593   */\n  0x00\n    /* \"#utility.yul\":2585:2600   */\n  revert\n    /* \"#utility.yul\":2449:2610   */\ntag_87:\n  pop\n    /* \"#utility.yul\":2236:2616   */\n  swap2\n  swap1\n  pop\n  jump\t// out\n    /* \"#utility.yul\":2621:2748   */\ntag_58:\n    /* \"#utility.yul\":2682:2692   */\n  0x4e487b71\n    /* \"#utility.yul\":2677:2680   */\n  0xe0\n    /* \"#utility.yul\":2673:2693   */\n  shl\n    /* \"#utility.yul\":2670:2671   */\n  0x00\n    /* \"#utility.yul\":2663:2694   */\n  mstore\n    /* \"#utility.yul\":2713:2717   */\n  0x11\n    /* \"#utility.yul\":2710:2711   */\n  0x04\n    /* \"#utility.yul\":2703:2718   */\n  mstore\n    /* \"#utility.yul\":2737:2741   */\n  0x24\n    /* \"#utility.yul\":2734:2735   */\n  0x00\n    /* \"#utility.yul\":2727:2742   */\n  revert\n    /* \"#utility.yul\":2621:2748   */\ntag_52:\n    /* \"contracts/BuyWithdrawal.sol\":171:940  contract BuyWithdraw is ERC20,Ownable \r... */\n  dataSize(sub_0)\n  dup1\n  dataOffset(sub_0)\n  0x00\n  codecopy\n  0x00\n  return\nstop\n\nsub_0: assembly {\n        /* \"contracts/BuyWithdrawal.sol\":171:940  contract BuyWithdraw is ERC20,Ownable \r... */\n      mstore(0x40, 0x80)\n      jumpi(tag_1, lt(calldatasize, 0x04))\n      shr(0xe0, calldataload(0x00))\n      dup1\n      0x715018a6\n      gt\n      tag_17\n      jumpi\n      dup1\n      0xa6f2ae3a\n      gt\n      tag_18\n      jumpi\n      dup1\n      0xa6f2ae3a\n      eq\n      tag_13\n      jumpi\n      dup1\n      0xa9059cbb\n      eq\n      tag_14\n      jumpi\n      dup1\n      0xdd62ed3e\n      eq\n      tag_15\n      jumpi\n      dup1\n      0xf2fde38b\n      eq\n      tag_16\n      jumpi\n      0x00\n      dup1\n      revert\n    tag_18:\n      dup1\n      0x715018a6\n      eq\n      tag_9\n      jumpi\n      dup1\n      0x8da5cb5b\n      eq\n      tag_10\n      jumpi\n      dup1\n      0x95d89b41\n      eq\n      tag_11\n      jumpi\n      dup1\n      0xa457c2d7\n      eq\n      tag_12\n      jumpi\n      0x00\n      dup1\n      revert\n    tag_17:\n      dup1\n      0x23b872dd\n      gt\n      tag_19\n      jumpi\n      dup1\n      0x23b872dd\n      eq\n      tag_5\n      jumpi\n      dup1\n      0x313ce567\n      eq\n      tag_6\n      jumpi\n      dup1\n      0x39509351\n      eq\n      tag_7\n      jumpi\n      dup1\n      0x70a08231\n      eq\n      tag_8\n      jumpi\n      0x00\n      dup1\n      revert\n    tag_19:\n      dup1\n      0x06fdde03\n      eq\n      tag_2\n      jumpi\n      dup1\n      0x095ea7b3\n      eq\n      tag_3\n      jumpi\n      dup1\n      0x18160ddd\n      eq\n      tag_4\n      jumpi\n    tag_1:\n      0x00\n      dup1\n      revert\n        /* \"@openzeppelin/contracts/token/ERC20/ERC20.sol\":2154:2252  function name() public view virtual override returns (string memory) {... */\n    tag_2:\n      callvalue\n      dup1\n      iszero\n      tag_20\n      jumpi\n      0x00\n      dup1\n      revert\n    tag_20:\n      pop\n      tag_21\n      tag_22\n      jump\t// in\n    tag_21:\n      mload(0x40)\n      tag_23\n      swap2\n      swap1\n      tag_24\n      jump\t// in\n    tag_23:\n      mload(0x40)\n      dup1\n      swap2\n      sub\n      swap1\n      return\n        /* \"@openzeppelin/contracts/token/ERC20/ERC20.sol\":4431:4628  function approve(address spender, uint256 amount) public virtual override returns (bool) {... */\n    tag_3:\n      callvalue\n      dup1\n      iszero\n      tag_25\n      jumpi\n      0x00\n      dup1\n      revert\n    tag_25:\n      pop\n      tag_26\n      tag_27\n      calldatasize\n      0x04\n      tag_28\n      jump\t// in\n    tag_27:\n      tag_29\n      jump\t// in\n    tag_26:\n      mload(0x40)\n        /* \"#utility.yul\":1613:1627   */\n      swap1\n      iszero\n        /* \"#utility.yul\":1606:1628   */\n      iszero\n        /* \"#utility.yul\":1588:1629   */\n      dup2\n      mstore\n        /* \"#utility.yul\":1576:1578   */\n      0x20\n        /* \"#utility.yul\":1561:1579   */\n      add\n        /* \"@openzeppelin/contracts/token/ERC20/ERC20.sol\":4431:4628  function approve(address spender, uint256 amount) public virtual override returns (bool) {... */\n      tag_23\n        /* \"#utility.yul\":1448:1635   */\n      jump\n        /* \"@openzeppelin/contracts/token/ERC20/ERC20.sol\":3242:3348  function totalSupply() public view virtual override returns (uint256) {... */\n    tag_4:\n      callvalue\n      dup1\n      iszero\n      tag_32\n      jumpi\n      0x00\n      dup1\n      revert\n    tag_32:\n      pop\n        /* \"@openzeppelin/contracts/token/ERC20/ERC20.sol\":3329:3341  _totalSupply */\n      sload(0x02)\n        /* \"@openzeppelin/contracts/token/ERC20/ERC20.sol\":3242:3348  function totalSupply() public view virtual override returns (uint256) {... */\n    tag_33:\n      mload(0x40)\n        /* \"#utility.yul\":6305:6330   */\n      swap1\n      dup2\n      mstore\n        /* \"#utility.yul\":6293:6295   */\n      0x20\n        /* \"#utility.yul\":6278:6296   */\n      add\n        /* \"@openzeppelin/contracts/token/ERC20/ERC20.sol\":3242:3348  function totalSupply() public view virtual override returns (uint256) {... */\n      tag_23\n        /* \"#utility.yul\":6159:6336   */\n      jump\n        /* \"@openzeppelin/contracts/token/ERC20/ERC20.sol\":5190:5476  function transferFrom(... */\n    tag_5:\n      callvalue\n      dup1\n      iszero\n      tag_37\n      jumpi\n      0x00\n      dup1\n      revert\n    tag_37:\n      pop\n      tag_26\n      tag_39\n      calldatasize\n      0x04\n      tag_40\n      jump\t// in\n    tag_39:\n      tag_41\n      jump\t// in\n        /* \"@openzeppelin/contracts/token/ERC20/ERC20.sol\":3091:3182  function decimals() public view virtual override returns (uint8) {... */\n    tag_6:\n      callvalue\n      dup1\n      iszero\n      tag_43\n      jumpi\n      0x00\n      dup1\n      revert\n    tag_43:\n      pop\n      mload(0x40)\n        /* \"@openzeppelin/contracts/token/ERC20/ERC20.sol\":3173:3175  18 */\n      0x12\n        /* \"#utility.yul\":6483:6519   */\n      dup2\n      mstore\n        /* \"#utility.yul\":6471:6473   */\n      0x20\n        /* \"#utility.yul\":6456:6474   */\n      add\n        /* \"@openzeppelin/contracts/token/ERC20/ERC20.sol\":3091:3182  function decimals() public view virtual override returns (uint8) {... */\n      tag_23\n        /* \"#utility.yul\":6341:6525   */\n      jump\n        /* \"@openzeppelin/contracts/token/ERC20/ERC20.sol\":5871:6105  function increaseAllowance(address spender, uint256 addedValue) public virtual returns (bool) {... */\n    tag_7:\n      callvalue\n      dup1\n      iszero\n      tag_48\n      jumpi\n      0x00\n      dup1\n      revert\n    tag_48:\n      pop\n      tag_26\n      tag_50\n      calldatasize\n      0x04\n      tag_28\n      jump\t// in\n    tag_50:\n      tag_51\n      jump\t// in\n        /* \"@openzeppelin/contracts/token/ERC20/ERC20.sol\":3406:3531  function balanceOf(address account) public view virtual override returns (uint256) {... */\n    tag_8:\n      callvalue\n      dup1\n      iszero\n      tag_53\n      jumpi\n      0x00\n      dup1\n      revert\n    tag_53:\n      pop\n      tag_33\n      tag_55\n      calldatasize\n      0x04\n      tag_56\n      jump\t// in\n    tag_55:\n      sub(shl(0xa0, 0x01), 0x01)\n        /* \"@openzeppelin/contracts/token/ERC20/ERC20.sol\":3506:3524  _balances[account] */\n      and\n        /* \"@openzeppelin/contracts/token/ERC20/ERC20.sol\":3480:3487  uint256 */\n      0x00\n        /* \"@openzeppelin/contracts/token/ERC20/ERC20.sol\":3506:3524  _balances[account] */\n      swap1\n      dup2\n      mstore\n      0x20\n      dup2\n      swap1\n      mstore\n      0x40\n      swap1\n      keccak256\n      sload\n      swap1\n        /* \"@openzeppelin/contracts/token/ERC20/ERC20.sol\":3406:3531  function balanceOf(address account) public view virtual override returns (uint256) {... */\n      jump\n        /* \"@openzeppelin/contracts/access/Ownable.sol\":1831:1932  function renounceOwnership() public virtual onlyOwner {... */\n    tag_9:\n      callvalue\n      dup1\n      iszero\n      tag_59\n      jumpi\n      0x00\n      dup1\n      revert\n    tag_59:\n      pop\n      tag_60\n      tag_61\n      jump\t// in\n    tag_60:\n      stop\n        /* \"@openzeppelin/contracts/access/Ownable.sol\":1201:1286  function owner() public view virtual returns (address) {... */\n    tag_10:\n      callvalue\n      dup1\n      iszero\n      tag_62\n      jumpi\n      0x00\n      dup1\n      revert\n    tag_62:\n      pop\n        /* \"@openzeppelin/contracts/access/Ownable.sol\":1273:1279  _owner */\n      sload(0x05)\n        /* \"@openzeppelin/contracts/access/Ownable.sol\":1201:1286  function owner() public view virtual returns (address) {... */\n      mload(0x40)\n      sub(shl(0xa0, 0x01), 0x01)\n        /* \"@openzeppelin/contracts/access/Ownable.sol\":1273:1279  _owner */\n      swap1\n      swap2\n      and\n        /* \"#utility.yul\":1386:1437   */\n      dup2\n      mstore\n        /* \"#utility.yul\":1374:1376   */\n      0x20\n        /* \"#utility.yul\":1359:1377   */\n      add\n        /* \"@openzeppelin/contracts/access/Ownable.sol\":1201:1286  function owner() public view virtual returns (address) {... */\n      tag_23\n        /* \"#utility.yul\":1240:1443   */\n      jump\n        /* \"@openzeppelin/contracts/token/ERC20/ERC20.sol\":2365:2467  function symbol() public view virtual override returns (string memory) {... */\n    tag_11:\n      callvalue\n      dup1\n      iszero\n      tag_67\n      jumpi\n      0x00\n      dup1\n      revert\n    tag_67:\n      pop\n      tag_21\n      tag_69\n      jump\t// in\n        /* \"@openzeppelin/contracts/token/ERC20/ERC20.sol\":6592:7019  function decreaseAllowance(address spender, uint256 subtractedValue) public virtual returns (bool) {... */\n    tag_12:\n      callvalue\n      dup1\n      iszero\n      tag_71\n      jumpi\n      0x00\n      dup1\n      revert\n    tag_71:\n      pop\n      tag_26\n      tag_73\n      calldatasize\n      0x04\n      tag_28\n      jump\t// in\n    tag_73:\n      tag_74\n      jump\t// in\n        /* \"contracts/BuyWithdrawal.sol\":665:937  function buy() public payable returns (bool) {\r... */\n    tag_13:\n      tag_26\n      tag_77\n      jump\t// in\n        /* \"@openzeppelin/contracts/token/ERC20/ERC20.sol\":3727:3916  function transfer(address to, uint256 amount) public virtual override returns (bool) {... */\n    tag_14:\n      callvalue\n      dup1\n      iszero\n      tag_79\n      jumpi\n      0x00\n      dup1\n      revert\n    tag_79:\n      pop\n      tag_26\n      tag_81\n      calldatasize\n      0x04\n      tag_28\n      jump\t// in\n    tag_81:\n      tag_82\n      jump\t// in\n        /* \"@openzeppelin/contracts/token/ERC20/ERC20.sol\":3974:4123  function allowance(address owner, address spender) public view virtual override returns (uint256) {... */\n    tag_15:\n      callvalue\n      dup1\n      iszero\n      tag_84\n      jumpi\n      0x00\n      dup1\n      revert\n    tag_84:\n      pop\n      tag_33\n      tag_86\n      calldatasize\n      0x04\n      tag_87\n      jump\t// in\n    tag_86:\n      tag_88\n      jump\t// in\n        /* \"@openzeppelin/contracts/access/Ownable.sol\":2081:2279  function transferOwnership(address newOwner) public virtual onlyOwner {... */\n    tag_16:\n      callvalue\n      dup1\n      iszero\n      tag_90\n      jumpi\n      0x00\n      dup1\n      revert\n    tag_90:\n      pop\n      tag_60\n      tag_92\n      calldatasize\n      0x04\n      tag_56\n      jump\t// in\n    tag_92:\n      tag_93\n      jump\t// in\n        /* \"@openzeppelin/contracts/token/ERC20/ERC20.sol\":2154:2252  function name() public view virtual override returns (string memory) {... */\n    tag_22:\n        /* \"@openzeppelin/contracts/token/ERC20/ERC20.sol\":2208:2221  string memory */\n      0x60\n        /* \"@openzeppelin/contracts/token/ERC20/ERC20.sol\":2240:2245  _name */\n      0x03\n        /* \"@openzeppelin/contracts/token/ERC20/ERC20.sol\":2233:2245  return _name */\n      dup1\n      sload\n      tag_95\n      swap1\n      tag_96\n      jump\t// in\n    tag_95:\n      dup1\n      0x1f\n      add\n      0x20\n      dup1\n      swap2\n      div\n      mul\n      0x20\n      add\n      mload(0x40)\n      swap1\n      dup2\n      add\n      0x40\n      mstore\n      dup1\n      swap3\n      swap2\n      swap1\n      dup2\n      dup2\n      mstore\n      0x20\n      add\n      dup3\n      dup1\n      sload\n      tag_97\n      swap1\n      tag_96\n      jump\t// in\n    tag_97:\n      dup1\n      iszero\n      tag_98\n      jumpi\n      dup1\n      0x1f\n      lt\n      tag_99\n      jumpi\n      0x0100\n      dup1\n      dup4\n      sload\n      div\n      mul\n      dup4\n      mstore\n      swap2\n      0x20\n      add\n      swap2\n      jump(tag_98)\n    tag_99:\n      dup3\n      add\n      swap2\n      swap1\n      0x00\n      mstore\n      keccak256(0x00, 0x20)\n      swap1\n    tag_100:\n      dup2\n      sload\n      dup2\n      mstore\n      swap1\n      0x01\n      add\n      swap1\n      0x20\n      add\n      dup1\n      dup4\n      gt\n      tag_100\n      jumpi\n      dup3\n      swap1\n      sub\n      0x1f\n      and\n      dup3\n      add\n      swap2\n    tag_98:\n      pop\n      pop\n      pop\n      pop\n      pop\n      swap1\n      pop\n        /* \"@openzeppelin/contracts/token/ERC20/ERC20.sol\":2154:2252  function name() public view virtual override returns (string memory) {... */\n      swap1\n      jump\t// out\n        /* \"@openzeppelin/contracts/token/ERC20/ERC20.sol\":4431:4628  function approve(address spender, uint256 amount) public virtual override returns (bool) {... */\n    tag_29:\n        /* \"@openzeppelin/contracts/token/ERC20/ERC20.sol\":4514:4518  bool */\n      0x00\n        /* \"@openzeppelin/contracts/utils/Context.sol\":719:729  msg.sender */\n      caller\n        /* \"@openzeppelin/contracts/token/ERC20/ERC20.sol\":4568:4600  _approve(owner, spender, amount) */\n      tag_104\n        /* \"@openzeppelin/contracts/utils/Context.sol\":719:729  msg.sender */\n      dup2\n        /* \"@openzeppelin/contracts/token/ERC20/ERC20.sol\":4584:4591  spender */\n      dup6\n        /* \"@openzeppelin/contracts/token/ERC20/ERC20.sol\":4593:4599  amount */\n      dup6\n        /* \"@openzeppelin/contracts/token/ERC20/ERC20.sol\":4568:4576  _approve */\n      tag_105\n        /* \"@openzeppelin/contracts/token/ERC20/ERC20.sol\":4568:4600  _approve(owner, spender, amount) */\n      jump\t// in\n    tag_104:\n      pop\n        /* \"@openzeppelin/contracts/token/ERC20/ERC20.sol\":4617:4621  true */\n      0x01\n      swap4\n        /* \"@openzeppelin/contracts/token/ERC20/ERC20.sol\":4431:4628  function approve(address spender, uint256 amount) public virtual override returns (bool) {... */\n      swap3\n      pop\n      pop\n      pop\n      jump\t// out\n        /* \"@openzeppelin/contracts/token/ERC20/ERC20.sol\":5190:5476  function transferFrom(... */\n    tag_41:\n        /* \"@openzeppelin/contracts/token/ERC20/ERC20.sol\":5317:5321  bool */\n      0x00\n        /* \"@openzeppelin/contracts/utils/Context.sol\":719:729  msg.sender */\n      caller\n        /* \"@openzeppelin/contracts/token/ERC20/ERC20.sol\":5373:5411  _spendAllowance(from, spender, amount) */\n      tag_109\n        /* \"@openzeppelin/contracts/token/ERC20/ERC20.sol\":5389:5393  from */\n      dup6\n        /* \"@openzeppelin/contracts/utils/Context.sol\":719:729  msg.sender */\n      dup3\n        /* \"@openzeppelin/contracts/token/ERC20/ERC20.sol\":5404:5410  amount */\n      dup6\n        /* \"@openzeppelin/contracts/token/ERC20/ERC20.sol\":5373:5388  _spendAllowance */\n      tag_110\n        /* \"@openzeppelin/contracts/token/ERC20/ERC20.sol\":5373:5411  _spendAllowance(from, spender, amount) */\n      jump\t// in\n    tag_109:\n        /* \"@openzeppelin/contracts/token/ERC20/ERC20.sol\":5421:5448  _transfer(from, to, amount) */\n      tag_111\n        /* \"@openzeppelin/contracts/token/ERC20/ERC20.sol\":5431:5435  from */\n      dup6\n        /* \"@openzeppelin/contracts/token/ERC20/ERC20.sol\":5437:5439  to */\n      dup6\n        /* \"@openzeppelin/contracts/token/ERC20/ERC20.sol\":5441:5447  amount */\n      dup6\n        /* \"@openzeppelin/contracts/token/ERC20/ERC20.sol\":5421:5430  _transfer */\n      tag_112\n        /* \"@openzeppelin/contracts/token/ERC20/ERC20.sol\":5421:5448  _transfer(from, to, amount) */\n      jump\t// in\n    tag_111:\n      pop\n        /* \"@openzeppelin/contracts/token/ERC20/ERC20.sol\":5465:5469  true */\n      0x01\n      swap5\n        /* \"@openzeppelin/contracts/token/ERC20/ERC20.sol\":5190:5476  function transferFrom(... */\n      swap4\n      pop\n      pop\n      pop\n      pop\n      jump\t// out\n        /* \"@openzeppelin/contracts/token/ERC20/ERC20.sol\":5871:6105  function increaseAllowance(address spender, uint256 addedValue) public virtual returns (bool) {... */\n    tag_51:\n        /* \"@openzeppelin/contracts/token/ERC20/ERC20.sol\":5959:5963  bool */\n      0x00\n        /* \"@openzeppelin/contracts/utils/Context.sol\":719:729  msg.sender */\n      caller\n        /* \"@openzeppelin/contracts/token/ERC20/ERC20.sol\":6013:6077  _approve(owner, spender, allowance(owner, spender) + addedValue) */\n      tag_104\n        /* \"@openzeppelin/contracts/utils/Context.sol\":719:729  msg.sender */\n      dup2\n        /* \"@openzeppelin/contracts/token/ERC20/ERC20.sol\":6029:6036  spender */\n      dup6\n        /* \"@openzeppelin/contracts/token/ERC20/ERC20.sol\":6066:6076  addedValue */\n      dup6\n        /* \"@openzeppelin/contracts/token/ERC20/ERC20.sol\":6038:6063  allowance(owner, spender) */\n      tag_117\n        /* \"@openzeppelin/contracts/utils/Context.sol\":719:729  msg.sender */\n      dup4\n        /* \"@openzeppelin/contracts/token/ERC20/ERC20.sol\":6029:6036  spender */\n      dup4\n        /* \"@openzeppelin/contracts/token/ERC20/ERC20.sol\":6038:6047  allowance */\n      tag_88\n        /* \"@openzeppelin/contracts/token/ERC20/ERC20.sol\":6038:6063  allowance(owner, spender) */\n      jump\t// in\n    tag_117:\n        /* \"@openzeppelin/contracts/token/ERC20/ERC20.sol\":6038:6076  allowance(owner, spender) + addedValue */\n      tag_118\n      swap2\n      swap1\n      tag_119\n      jump\t// in\n    tag_118:\n        /* \"@openzeppelin/contracts/token/ERC20/ERC20.sol\":6013:6021  _approve */\n      tag_105\n        /* \"@openzeppelin/contracts/token/ERC20/ERC20.sol\":6013:6077  _approve(owner, spender, allowance(owner, spender) + addedValue) */\n      jump\t// in\n        /* \"@openzeppelin/contracts/access/Ownable.sol\":1831:1932  function renounceOwnership() public virtual onlyOwner {... */\n    tag_61:\n        /* \"@openzeppelin/contracts/access/Ownable.sol\":1094:1107  _checkOwner() */\n      tag_122\n        /* \"@openzeppelin/contracts/access/Ownable.sol\":1094:1105  _checkOwner */\n      tag_123\n        /* \"@openzeppelin/contracts/access/Ownable.sol\":1094:1107  _checkOwner() */\n      jump\t// in\n    tag_122:\n        /* \"@openzeppelin/contracts/access/Ownable.sol\":1895:1925  _transferOwnership(address(0)) */\n      tag_125\n        /* \"@openzeppelin/contracts/access/Ownable.sol\":1922:1923  0 */\n      0x00\n        /* \"@openzeppelin/contracts/access/Ownable.sol\":1895:1913  _transferOwnership */\n      tag_126\n        /* \"@openzeppelin/contracts/access/Ownable.sol\":1895:1925  _transferOwnership(address(0)) */\n      jump\t// in\n    tag_125:\n        /* \"@openzeppelin/contracts/access/Ownable.sol\":1831:1932  function renounceOwnership() public virtual onlyOwner {... */\n      jump\t// out\n        /* \"@openzeppelin/contracts/token/ERC20/ERC20.sol\":2365:2467  function symbol() public view virtual override returns (string memory) {... */\n    tag_69:\n        /* \"@openzeppelin/contracts/token/ERC20/ERC20.sol\":2421:2434  string memory */\n      0x60\n        /* \"@openzeppelin/contracts/token/ERC20/ERC20.sol\":2453:2460  _symbol */\n      0x04\n        /* \"@openzeppelin/contracts/token/ERC20/ERC20.sol\":2446:2460  return _symbol */\n      dup1\n      sload\n      tag_95\n      swap1\n      tag_96\n      jump\t// in\n        /* \"@openzeppelin/contracts/token/ERC20/ERC20.sol\":6592:7019  function decreaseAllowance(address spender, uint256 subtractedValue) public virtual returns (bool) {... */\n    tag_74:\n        /* \"@openzeppelin/contracts/token/ERC20/ERC20.sol\":6685:6689  bool */\n      0x00\n        /* \"@openzeppelin/contracts/utils/Context.sol\":719:729  msg.sender */\n      caller\n        /* \"@openzeppelin/contracts/token/ERC20/ERC20.sol\":6685:6689  bool */\n      dup2\n        /* \"@openzeppelin/contracts/token/ERC20/ERC20.sol\":6766:6791  allowance(owner, spender) */\n      tag_136\n        /* \"@openzeppelin/contracts/utils/Context.sol\":719:729  msg.sender */\n      dup3\n        /* \"@openzeppelin/contracts/token/ERC20/ERC20.sol\":6783:6790  spender */\n      dup7\n        /* \"@openzeppelin/contracts/token/ERC20/ERC20.sol\":6766:6775  allowance */\n      tag_88\n        /* \"@openzeppelin/contracts/token/ERC20/ERC20.sol\":6766:6791  allowance(owner, spender) */\n      jump\t// in\n    tag_136:\n        /* \"@openzeppelin/contracts/token/ERC20/ERC20.sol\":6739:6791  uint256 currentAllowance = allowance(owner, spender) */\n      swap1\n      pop\n        /* \"@openzeppelin/contracts/token/ERC20/ERC20.sol\":6829:6844  subtractedValue */\n      dup4\n        /* \"@openzeppelin/contracts/token/ERC20/ERC20.sol\":6809:6825  currentAllowance */\n      dup2\n        /* \"@openzeppelin/contracts/token/ERC20/ERC20.sol\":6809:6844  currentAllowance >= subtractedValue */\n      lt\n      iszero\n        /* \"@openzeppelin/contracts/token/ERC20/ERC20.sol\":6801:6886  require(currentAllowance >= subtractedValue, \"ERC20: decreased allowance below zero\") */\n      tag_137\n      jumpi\n      mload(0x40)\n      shl(0xe5, 0x461bcd)\n      dup2\n      mstore\n        /* \"#utility.yul\":5955:5957   */\n      0x20\n        /* \"@openzeppelin/contracts/token/ERC20/ERC20.sol\":6801:6886  require(currentAllowance >= subtractedValue, \"ERC20: decreased allowance below zero\") */\n      0x04\n      dup3\n      add\n        /* \"#utility.yul\":5937:5958   */\n      mstore\n        /* \"#utility.yul\":5994:5996   */\n      0x25\n        /* \"#utility.yul\":5974:5992   */\n      0x24\n      dup3\n      add\n        /* \"#utility.yul\":5967:5997   */\n      mstore\n        /* \"#utility.yul\":6033:6067   */\n      0x45524332303a2064656372656173656420616c6c6f77616e63652062656c6f77\n        /* \"#utility.yul\":6013:6031   */\n      0x44\n      dup3\n      add\n        /* \"#utility.yul\":6006:6068   */\n      mstore\n      shl(0xd8, 0x207a65726f)\n        /* \"#utility.yul\":6084:6102   */\n      0x64\n      dup3\n      add\n        /* \"#utility.yul\":6077:6112   */\n      mstore\n        /* \"#utility.yul\":6129:6148   */\n      0x84\n      add\n        /* \"@openzeppelin/contracts/token/ERC20/ERC20.sol\":6801:6886  require(currentAllowance >= subtractedValue, \"ERC20: decreased allowance below zero\") */\n    tag_138:\n      mload(0x40)\n      dup1\n      swap2\n      sub\n      swap1\n      revert\n    tag_137:\n        /* \"@openzeppelin/contracts/token/ERC20/ERC20.sol\":6920:6980  _approve(owner, spender, currentAllowance - subtractedValue) */\n      tag_111\n        /* \"@openzeppelin/contracts/token/ERC20/ERC20.sol\":6929:6934  owner */\n      dup3\n        /* \"@openzeppelin/contracts/token/ERC20/ERC20.sol\":6936:6943  spender */\n      dup7\n        /* \"@openzeppelin/contracts/token/ERC20/ERC20.sol\":6964:6979  subtractedValue */\n      dup7\n        /* \"@openzeppelin/contracts/token/ERC20/ERC20.sol\":6945:6961  currentAllowance */\n      dup5\n        /* \"@openzeppelin/contracts/token/ERC20/ERC20.sol\":6945:6979  currentAllowance - subtractedValue */\n      sub\n        /* \"@openzeppelin/contracts/token/ERC20/ERC20.sol\":6920:6928  _approve */\n      tag_105\n        /* \"@openzeppelin/contracts/token/ERC20/ERC20.sol\":6920:6980  _approve(owner, spender, currentAllowance - subtractedValue) */\n      jump\t// in\n        /* \"contracts/BuyWithdrawal.sol\":665:937  function buy() public payable returns (bool) {\r... */\n    tag_77:\n        /* \"contracts/BuyWithdrawal.sol\":704:708  bool */\n      0x00\n        /* \"contracts/BuyWithdrawal.sol\":749:758  msg.value */\n      callvalue\n        /* \"contracts/BuyWithdrawal.sol\":727:737  msg.sender */\n      caller\n        /* \"contracts/BuyWithdrawal.sol\":727:745  msg.sender.balance */\n      balance\n        /* \"contracts/BuyWithdrawal.sol\":727:758  msg.sender.balance >= msg.value */\n      lt\n      dup1\n      iszero\n      swap1\n        /* \"contracts/BuyWithdrawal.sol\":727:782  msg.sender.balance >= msg.value && msg.value != 0 ether */\n      tag_142\n      jumpi\n      pop\n        /* \"contracts/BuyWithdrawal.sol\":762:771  msg.value */\n      callvalue\n        /* \"contracts/BuyWithdrawal.sol\":762:782  msg.value != 0 ether */\n      iszero\n      iszero\n        /* \"contracts/BuyWithdrawal.sol\":727:782  msg.sender.balance >= msg.value && msg.value != 0 ether */\n    tag_142:\n        /* \"contracts/BuyWithdrawal.sol\":719:818  require(msg.sender.balance >= msg.value && msg.value != 0 ether, \"ICO: function buy invalid input\") */\n      tag_143\n      jumpi\n      mload(0x40)\n      shl(0xe5, 0x461bcd)\n      dup2\n      mstore\n        /* \"#utility.yul\":4784:4786   */\n      0x20\n        /* \"contracts/BuyWithdrawal.sol\":719:818  require(msg.sender.balance >= msg.value && msg.value != 0 ether, \"ICO: function buy invalid input\") */\n      0x04\n      dup3\n      add\n        /* \"#utility.yul\":4766:4787   */\n      mstore\n        /* \"#utility.yul\":4823:4825   */\n      0x1f\n        /* \"#utility.yul\":4803:4821   */\n      0x24\n      dup3\n      add\n        /* \"#utility.yul\":4796:4826   */\n      mstore\n        /* \"#utility.yul\":4862:4895   */\n      0x49434f3a2066756e6374696f6e2062757920696e76616c696420696e70757400\n        /* \"#utility.yul\":4842:4860   */\n      0x44\n      dup3\n      add\n        /* \"#utility.yul\":4835:4896   */\n      mstore\n        /* \"#utility.yul\":4913:4931   */\n      0x64\n      add\n        /* \"contracts/BuyWithdrawal.sol\":719:818  require(msg.sender.balance >= msg.value && msg.value != 0 ether, \"ICO: function buy invalid input\") */\n      tag_138\n        /* \"#utility.yul\":4582:4937   */\n      jump\n        /* \"contracts/BuyWithdrawal.sol\":719:818  require(msg.sender.balance >= msg.value && msg.value != 0 ether, \"ICO: function buy invalid input\") */\n    tag_143:\n        /* \"contracts/BuyWithdrawal.sol\":827:841  uint256 amount */\n      0x00\n        /* \"contracts/BuyWithdrawal.sol\":844:860  msg.value * 1000 */\n      tag_146\n        /* \"contracts/BuyWithdrawal.sol\":844:853  msg.value */\n      callvalue\n        /* \"contracts/BuyWithdrawal.sol\":856:860  1000 */\n      0x03e8\n        /* \"contracts/BuyWithdrawal.sol\":844:860  msg.value * 1000 */\n      tag_147\n      jump\t// in\n    tag_146:\n        /* \"contracts/BuyWithdrawal.sol\":827:860  uint256 amount = msg.value * 1000 */\n      swap1\n      pop\n        /* \"contracts/BuyWithdrawal.sol\":869:909  _transfer(owner(), _msgSender(), amount) */\n      tag_148\n        /* \"contracts/BuyWithdrawal.sol\":879:886  owner() */\n      tag_149\n        /* \"@openzeppelin/contracts/access/Ownable.sol\":1273:1279  _owner */\n      and(sub(shl(0xa0, 0x01), 0x01), sload(0x05))\n      swap1\n        /* \"@openzeppelin/contracts/access/Ownable.sol\":1201:1286  function owner() public view virtual returns (address) {... */\n      jump\n        /* \"contracts/BuyWithdrawal.sol\":879:886  owner() */\n    tag_149:\n        /* \"@openzeppelin/contracts/utils/Context.sol\":719:729  msg.sender */\n      caller\n        /* \"contracts/BuyWithdrawal.sol\":902:908  amount */\n      dup4\n        /* \"contracts/BuyWithdrawal.sol\":869:878  _transfer */\n      tag_112\n        /* \"contracts/BuyWithdrawal.sol\":869:909  _transfer(owner(), _msgSender(), amount) */\n      jump\t// in\n    tag_148:\n        /* \"contracts/BuyWithdrawal.sol\":925:929  true */\n      0x01\n        /* \"contracts/BuyWithdrawal.sol\":918:929  return true */\n      swap2\n      pop\n      pop\n        /* \"contracts/BuyWithdrawal.sol\":665:937  function buy() public payable returns (bool) {\r... */\n      swap1\n      jump\t// out\n        /* \"@openzeppelin/contracts/token/ERC20/ERC20.sol\":3727:3916  function transfer(address to, uint256 amount) public virtual override returns (bool) {... */\n    tag_82:\n        /* \"@openzeppelin/contracts/token/ERC20/ERC20.sol\":3806:3810  bool */\n      0x00\n        /* \"@openzeppelin/contracts/utils/Context.sol\":719:729  msg.sender */\n      caller\n        /* \"@openzeppelin/contracts/token/ERC20/ERC20.sol\":3860:3888  _transfer(owner, to, amount) */\n      tag_104\n        /* \"@openzeppelin/contracts/utils/Context.sol\":719:729  msg.sender */\n      dup2\n        /* \"@openzeppelin/contracts/token/ERC20/ERC20.sol\":3877:3879  to */\n      dup6\n        /* \"@openzeppelin/contracts/token/ERC20/ERC20.sol\":3881:3887  amount */\n      dup6\n        /* \"@openzeppelin/contracts/token/ERC20/ERC20.sol\":3860:3869  _transfer */\n      tag_112\n        /* \"@openzeppelin/contracts/token/ERC20/ERC20.sol\":3860:3888  _transfer(owner, to, amount) */\n      jump\t// in\n        /* \"@openzeppelin/contracts/token/ERC20/ERC20.sol\":3974:4123  function allowance(address owner, address spender) public view virtual override returns (uint256) {... */\n    tag_88:\n      sub(shl(0xa0, 0x01), 0x01)\n        /* \"@openzeppelin/contracts/token/ERC20/ERC20.sol\":4089:4107  _allowances[owner] */\n      swap2\n      dup3\n      and\n        /* \"@openzeppelin/contracts/token/ERC20/ERC20.sol\":4063:4070  uint256 */\n      0x00\n        /* \"@openzeppelin/contracts/token/ERC20/ERC20.sol\":4089:4107  _allowances[owner] */\n      swap1\n      dup2\n      mstore\n        /* \"@openzeppelin/contracts/token/ERC20/ERC20.sol\":4089:4100  _allowances */\n      0x01\n        /* \"@openzeppelin/contracts/token/ERC20/ERC20.sol\":4089:4107  _allowances[owner] */\n      0x20\n      swap1\n      dup2\n      mstore\n      0x40\n      dup1\n      dup4\n      keccak256\n        /* \"@openzeppelin/contracts/token/ERC20/ERC20.sol\":4089:4116  _allowances[owner][spender] */\n      swap4\n      swap1\n      swap5\n      and\n      dup3\n      mstore\n      swap2\n      swap1\n      swap2\n      mstore\n      keccak256\n      sload\n      swap1\n        /* \"@openzeppelin/contracts/token/ERC20/ERC20.sol\":3974:4123  function allowance(address owner, address spender) public view virtual override returns (uint256) {... */\n      jump\t// out\n        /* \"@openzeppelin/contracts/access/Ownable.sol\":2081:2279  function transferOwnership(address newOwner) public virtual onlyOwner {... */\n    tag_93:\n        /* \"@openzeppelin/contracts/access/Ownable.sol\":1094:1107  _checkOwner() */\n      tag_156\n        /* \"@openzeppelin/contracts/access/Ownable.sol\":1094:1105  _checkOwner */\n      tag_123\n        /* \"@openzeppelin/contracts/access/Ownable.sol\":1094:1107  _checkOwner() */\n      jump\t// in\n    tag_156:\n      sub(shl(0xa0, 0x01), 0x01)\n        /* \"@openzeppelin/contracts/access/Ownable.sol\":2169:2191  newOwner != address(0) */\n      dup2\n      and\n        /* \"@openzeppelin/contracts/access/Ownable.sol\":2161:2234  require(newOwner != address(0), \"Ownable: new owner is the zero address\") */\n      tag_158\n      jumpi\n      mload(0x40)\n      shl(0xe5, 0x461bcd)\n      dup2\n      mstore\n        /* \"#utility.yul\":2848:2850   */\n      0x20\n        /* \"@openzeppelin/contracts/access/Ownable.sol\":2161:2234  require(newOwner != address(0), \"Ownable: new owner is the zero address\") */\n      0x04\n      dup3\n      add\n        /* \"#utility.yul\":2830:2851   */\n      mstore\n        /* \"#utility.yul\":2887:2889   */\n      0x26\n        /* \"#utility.yul\":2867:2885   */\n      0x24\n      dup3\n      add\n        /* \"#utility.yul\":2860:2890   */\n      mstore\n        /* \"#utility.yul\":2926:2960   */\n      0x4f776e61626c653a206e6577206f776e657220697320746865207a65726f2061\n        /* \"#utility.yul\":2906:2924   */\n      0x44\n      dup3\n      add\n        /* \"#utility.yul\":2899:2961   */\n      mstore\n      shl(0xd0, 0x646472657373)\n        /* \"#utility.yul\":2977:2995   */\n      0x64\n      dup3\n      add\n        /* \"#utility.yul\":2970:3006   */\n      mstore\n        /* \"#utility.yul\":3023:3042   */\n      0x84\n      add\n        /* \"@openzeppelin/contracts/access/Ownable.sol\":2161:2234  require(newOwner != address(0), \"Ownable: new owner is the zero address\") */\n      tag_138\n        /* \"#utility.yul\":2646:3048   */\n      jump\n        /* \"@openzeppelin/contracts/access/Ownable.sol\":2161:2234  require(newOwner != address(0), \"Ownable: new owner is the zero address\") */\n    tag_158:\n        /* \"@openzeppelin/contracts/access/Ownable.sol\":2244:2272  _transferOwnership(newOwner) */\n      tag_161\n        /* \"@openzeppelin/contracts/access/Ownable.sol\":2263:2271  newOwner */\n      dup2\n        /* \"@openzeppelin/contracts/access/Ownable.sol\":2244:2262  _transferOwnership */\n      tag_126\n        /* \"@openzeppelin/contracts/access/Ownable.sol\":2244:2272  _transferOwnership(newOwner) */\n      jump\t// in\n    tag_161:\n        /* \"@openzeppelin/contracts/access/Ownable.sol\":2081:2279  function transferOwnership(address newOwner) public virtual onlyOwner {... */\n      pop\n      jump\t// out\n        /* \"@openzeppelin/contracts/token/ERC20/ERC20.sol\":10504:10874  function _approve(... */\n    tag_105:\n      sub(shl(0xa0, 0x01), 0x01)\n        /* \"@openzeppelin/contracts/token/ERC20/ERC20.sol\":10635:10654  owner != address(0) */\n      dup4\n      and\n        /* \"@openzeppelin/contracts/token/ERC20/ERC20.sol\":10627:10695  require(owner != address(0), \"ERC20: approve from the zero address\") */\n      tag_164\n      jumpi\n      mload(0x40)\n      shl(0xe5, 0x461bcd)\n      dup2\n      mstore\n        /* \"#utility.yul\":5550:5552   */\n      0x20\n        /* \"@openzeppelin/contracts/token/ERC20/ERC20.sol\":10627:10695  require(owner != address(0), \"ERC20: approve from the zero address\") */\n      0x04\n      dup3\n      add\n        /* \"#utility.yul\":5532:5553   */\n      mstore\n        /* \"#utility.yul\":5589:5591   */\n      0x24\n        /* \"#utility.yul\":5569:5587   */\n      dup1\n      dup3\n      add\n        /* \"#utility.yul\":5562:5592   */\n      mstore\n        /* \"#utility.yul\":5628:5662   */\n      0x45524332303a20617070726f76652066726f6d20746865207a65726f20616464\n        /* \"#utility.yul\":5608:5626   */\n      0x44\n      dup3\n      add\n        /* \"#utility.yul\":5601:5663   */\n      mstore\n      shl(0xe0, 0x72657373)\n        /* \"#utility.yul\":5679:5697   */\n      0x64\n      dup3\n      add\n        /* \"#utility.yul\":5672:5706   */\n      mstore\n        /* \"#utility.yul\":5723:5742   */\n      0x84\n      add\n        /* \"@openzeppelin/contracts/token/ERC20/ERC20.sol\":10627:10695  require(owner != address(0), \"ERC20: approve from the zero address\") */\n      tag_138\n        /* \"#utility.yul\":5348:5748   */\n      jump\n        /* \"@openzeppelin/contracts/token/ERC20/ERC20.sol\":10627:10695  require(owner != address(0), \"ERC20: approve from the zero address\") */\n    tag_164:\n      sub(shl(0xa0, 0x01), 0x01)\n        /* \"@openzeppelin/contracts/token/ERC20/ERC20.sol\":10713:10734  spender != address(0) */\n      dup3\n      and\n        /* \"@openzeppelin/contracts/token/ERC20/ERC20.sol\":10705:10773  require(spender != address(0), \"ERC20: approve to the zero address\") */\n      tag_167\n      jumpi\n      mload(0x40)\n      shl(0xe5, 0x461bcd)\n      dup2\n      mstore\n        /* \"#utility.yul\":3255:3257   */\n      0x20\n        /* \"@openzeppelin/contracts/token/ERC20/ERC20.sol\":10705:10773  require(spender != address(0), \"ERC20: approve to the zero address\") */\n      0x04\n      dup3\n      add\n        /* \"#utility.yul\":3237:3258   */\n      mstore\n        /* \"#utility.yul\":3294:3296   */\n      0x22\n        /* \"#utility.yul\":3274:3292   */\n      0x24\n      dup3\n      add\n        /* \"#utility.yul\":3267:3297   */\n      mstore\n        /* \"#utility.yul\":3333:3367   */\n      0x45524332303a20617070726f766520746f20746865207a65726f206164647265\n        /* \"#utility.yul\":3313:3331   */\n      0x44\n      dup3\n      add\n        /* \"#utility.yul\":3306:3368   */\n      mstore\n      shl(0xf0, 0x7373)\n        /* \"#utility.yul\":3384:3402   */\n      0x64\n      dup3\n      add\n        /* \"#utility.yul\":3377:3409   */\n      mstore\n        /* \"#utility.yul\":3426:3445   */\n      0x84\n      add\n        /* \"@openzeppelin/contracts/token/ERC20/ERC20.sol\":10705:10773  require(spender != address(0), \"ERC20: approve to the zero address\") */\n      tag_138\n        /* \"#utility.yul\":3053:3451   */\n      jump\n        /* \"@openzeppelin/contracts/token/ERC20/ERC20.sol\":10705:10773  require(spender != address(0), \"ERC20: approve to the zero address\") */\n    tag_167:\n      sub(shl(0xa0, 0x01), 0x01)\n        /* \"@openzeppelin/contracts/token/ERC20/ERC20.sol\":10784:10802  _allowances[owner] */\n      dup4\n      dup2\n      and\n      0x00\n      dup2\n      dup2\n      mstore\n        /* \"@openzeppelin/contracts/token/ERC20/ERC20.sol\":10784:10795  _allowances */\n      0x01\n        /* \"@openzeppelin/contracts/token/ERC20/ERC20.sol\":10784:10802  _allowances[owner] */\n      0x20\n      swap1\n      dup2\n      mstore\n      0x40\n      dup1\n      dup4\n      keccak256\n        /* \"@openzeppelin/contracts/token/ERC20/ERC20.sol\":10784:10811  _allowances[owner][spender] */\n      swap5\n      dup8\n      and\n      dup1\n      dup5\n      mstore\n      swap5\n      dup3\n      mstore\n      swap2\n      dup3\n      swap1\n      keccak256\n        /* \"@openzeppelin/contracts/token/ERC20/ERC20.sol\":10784:10820  _allowances[owner][spender] = amount */\n      dup6\n      swap1\n      sstore\n        /* \"@openzeppelin/contracts/token/ERC20/ERC20.sol\":10835:10867  Approval(owner, spender, amount) */\n      swap1\n      mload\n        /* \"#utility.yul\":6305:6330   */\n      dup5\n      dup2\n      mstore\n        /* \"@openzeppelin/contracts/token/ERC20/ERC20.sol\":10835:10867  Approval(owner, spender, amount) */\n      0x8c5be1e5ebec7d5bd14f71427d1e84f3dd0314c0f7b2291e5b200ac8c7c3b925\n      swap2\n        /* \"#utility.yul\":6278:6296   */\n      add\n        /* \"@openzeppelin/contracts/token/ERC20/ERC20.sol\":10835:10867  Approval(owner, spender, amount) */\n      mload(0x40)\n      dup1\n      swap2\n      sub\n      swap1\n      log3\n        /* \"@openzeppelin/contracts/token/ERC20/ERC20.sol\":10504:10874  function _approve(... */\n      pop\n      pop\n      pop\n      jump\t// out\n        /* \"@openzeppelin/contracts/token/ERC20/ERC20.sol\":11155:11596  function _spendAllowance(... */\n    tag_110:\n        /* \"@openzeppelin/contracts/token/ERC20/ERC20.sol\":11285:11309  uint256 currentAllowance */\n      0x00\n        /* \"@openzeppelin/contracts/token/ERC20/ERC20.sol\":11312:11337  allowance(owner, spender) */\n      tag_172\n        /* \"@openzeppelin/contracts/token/ERC20/ERC20.sol\":11322:11327  owner */\n      dup5\n        /* \"@openzeppelin/contracts/token/ERC20/ERC20.sol\":11329:11336  spender */\n      dup5\n        /* \"@openzeppelin/contracts/token/ERC20/ERC20.sol\":11312:11321  allowance */\n      tag_88\n        /* \"@openzeppelin/contracts/token/ERC20/ERC20.sol\":11312:11337  allowance(owner, spender) */\n      jump\t// in\n    tag_172:\n        /* \"@openzeppelin/contracts/token/ERC20/ERC20.sol\":11285:11337  uint256 currentAllowance = allowance(owner, spender) */\n      swap1\n      pop\n      not(0x00)\n        /* \"@openzeppelin/contracts/token/ERC20/ERC20.sol\":11351:11367  currentAllowance */\n      dup2\n        /* \"@openzeppelin/contracts/token/ERC20/ERC20.sol\":11351:11388  currentAllowance != type(uint256).max */\n      eq\n        /* \"@openzeppelin/contracts/token/ERC20/ERC20.sol\":11347:11590  if (currentAllowance != type(uint256).max) {... */\n      tag_177\n      jumpi\n        /* \"@openzeppelin/contracts/token/ERC20/ERC20.sol\":11432:11438  amount */\n      dup2\n        /* \"@openzeppelin/contracts/token/ERC20/ERC20.sol\":11412:11428  currentAllowance */\n      dup2\n        /* \"@openzeppelin/contracts/token/ERC20/ERC20.sol\":11412:11438  currentAllowance >= amount */\n      lt\n      iszero\n        /* \"@openzeppelin/contracts/token/ERC20/ERC20.sol\":11404:11472  require(currentAllowance >= amount, \"ERC20: insufficient allowance\") */\n      tag_174\n      jumpi\n      mload(0x40)\n      shl(0xe5, 0x461bcd)\n      dup2\n      mstore\n        /* \"#utility.yul\":3658:3660   */\n      0x20\n        /* \"@openzeppelin/contracts/token/ERC20/ERC20.sol\":11404:11472  require(currentAllowance >= amount, \"ERC20: insufficient allowance\") */\n      0x04\n      dup3\n      add\n        /* \"#utility.yul\":3640:3661   */\n      mstore\n        /* \"#utility.yul\":3697:3699   */\n      0x1d\n        /* \"#utility.yul\":3677:3695   */\n      0x24\n      dup3\n      add\n        /* \"#utility.yul\":3670:3700   */\n      mstore\n        /* \"#utility.yul\":3736:3767   */\n      0x45524332303a20696e73756666696369656e7420616c6c6f77616e6365000000\n        /* \"#utility.yul\":3716:3734   */\n      0x44\n      dup3\n      add\n        /* \"#utility.yul\":3709:3768   */\n      mstore\n        /* \"#utility.yul\":3785:3803   */\n      0x64\n      add\n        /* \"@openzeppelin/contracts/token/ERC20/ERC20.sol\":11404:11472  require(currentAllowance >= amount, \"ERC20: insufficient allowance\") */\n      tag_138\n        /* \"#utility.yul\":3456:3809   */\n      jump\n        /* \"@openzeppelin/contracts/token/ERC20/ERC20.sol\":11404:11472  require(currentAllowance >= amount, \"ERC20: insufficient allowance\") */\n    tag_174:\n        /* \"@openzeppelin/contracts/token/ERC20/ERC20.sol\":11514:11565  _approve(owner, spender, currentAllowance - amount) */\n      tag_177\n        /* \"@openzeppelin/contracts/token/ERC20/ERC20.sol\":11523:11528  owner */\n      dup5\n        /* \"@openzeppelin/contracts/token/ERC20/ERC20.sol\":11530:11537  spender */\n      dup5\n        /* \"@openzeppelin/contracts/token/ERC20/ERC20.sol\":11558:11564  amount */\n      dup5\n        /* \"@openzeppelin/contracts/token/ERC20/ERC20.sol\":11539:11555  currentAllowance */\n      dup5\n        /* \"@openzeppelin/contracts/token/ERC20/ERC20.sol\":11539:11564  currentAllowance - amount */\n      sub\n        /* \"@openzeppelin/contracts/token/ERC20/ERC20.sol\":11514:11522  _approve */\n      tag_105\n        /* \"@openzeppelin/contracts/token/ERC20/ERC20.sol\":11514:11565  _approve(owner, spender, currentAllowance - amount) */\n      jump\t// in\n    tag_177:\n        /* \"@openzeppelin/contracts/token/ERC20/ERC20.sol\":11275:11596  {... */\n      pop\n        /* \"@openzeppelin/contracts/token/ERC20/ERC20.sol\":11155:11596  function _spendAllowance(... */\n      pop\n      pop\n      pop\n      jump\t// out\n        /* \"@openzeppelin/contracts/token/ERC20/ERC20.sol\":7473:8291  function _transfer(... */\n    tag_112:\n      sub(shl(0xa0, 0x01), 0x01)\n        /* \"@openzeppelin/contracts/token/ERC20/ERC20.sol\":7599:7617  from != address(0) */\n      dup4\n      and\n        /* \"@openzeppelin/contracts/token/ERC20/ERC20.sol\":7591:7659  require(from != address(0), \"ERC20: transfer from the zero address\") */\n      tag_179\n      jumpi\n      mload(0x40)\n      shl(0xe5, 0x461bcd)\n      dup2\n      mstore\n        /* \"#utility.yul\":5144:5146   */\n      0x20\n        /* \"@openzeppelin/contracts/token/ERC20/ERC20.sol\":7591:7659  require(from != address(0), \"ERC20: transfer from the zero address\") */\n      0x04\n      dup3\n      add\n        /* \"#utility.yul\":5126:5147   */\n      mstore\n        /* \"#utility.yul\":5183:5185   */\n      0x25\n        /* \"#utility.yul\":5163:5181   */\n      0x24\n      dup3\n      add\n        /* \"#utility.yul\":5156:5186   */\n      mstore\n        /* \"#utility.yul\":5222:5256   */\n      0x45524332303a207472616e736665722066726f6d20746865207a65726f206164\n        /* \"#utility.yul\":5202:5220   */\n      0x44\n      dup3\n      add\n        /* \"#utility.yul\":5195:5257   */\n      mstore\n      shl(0xd8, 0x6472657373)\n        /* \"#utility.yul\":5273:5291   */\n      0x64\n      dup3\n      add\n        /* \"#utility.yul\":5266:5301   */\n      mstore\n        /* \"#utility.yul\":5318:5337   */\n      0x84\n      add\n        /* \"@openzeppelin/contracts/token/ERC20/ERC20.sol\":7591:7659  require(from != address(0), \"ERC20: transfer from the zero address\") */\n      tag_138\n        /* \"#utility.yul\":4942:5343   */\n      jump\n        /* \"@openzeppelin/contracts/token/ERC20/ERC20.sol\":7591:7659  require(from != address(0), \"ERC20: transfer from the zero address\") */\n    tag_179:\n      sub(shl(0xa0, 0x01), 0x01)\n        /* \"@openzeppelin/contracts/token/ERC20/ERC20.sol\":7677:7693  to != address(0) */\n      dup3\n      and\n        /* \"@openzeppelin/contracts/token/ERC20/ERC20.sol\":7669:7733  require(to != address(0), \"ERC20: transfer to the zero address\") */\n      tag_182\n      jumpi\n      mload(0x40)\n      shl(0xe5, 0x461bcd)\n      dup2\n      mstore\n        /* \"#utility.yul\":2444:2446   */\n      0x20\n        /* \"@openzeppelin/contracts/token/ERC20/ERC20.sol\":7669:7733  require(to != address(0), \"ERC20: transfer to the zero address\") */\n      0x04\n      dup3\n      add\n        /* \"#utility.yul\":2426:2447   */\n      mstore\n        /* \"#utility.yul\":2483:2485   */\n      0x23\n        /* \"#utility.yul\":2463:2481   */\n      0x24\n      dup3\n      add\n        /* \"#utility.yul\":2456:2486   */\n      mstore\n        /* \"#utility.yul\":2522:2556   */\n      0x45524332303a207472616e7366657220746f20746865207a65726f2061646472\n        /* \"#utility.yul\":2502:2520   */\n      0x44\n      dup3\n      add\n        /* \"#utility.yul\":2495:2557   */\n      mstore\n      shl(0xe8, 0x657373)\n        /* \"#utility.yul\":2573:2591   */\n      0x64\n      dup3\n      add\n        /* \"#utility.yul\":2566:2599   */\n      mstore\n        /* \"#utility.yul\":2616:2635   */\n      0x84\n      add\n        /* \"@openzeppelin/contracts/token/ERC20/ERC20.sol\":7669:7733  require(to != address(0), \"ERC20: transfer to the zero address\") */\n      tag_138\n        /* \"#utility.yul\":2242:2641   */\n      jump\n        /* \"@openzeppelin/contracts/token/ERC20/ERC20.sol\":7669:7733  require(to != address(0), \"ERC20: transfer to the zero address\") */\n    tag_182:\n      sub(shl(0xa0, 0x01), 0x01)\n        /* \"@openzeppelin/contracts/token/ERC20/ERC20.sol\":7815:7830  _balances[from] */\n      dup4\n      and\n        /* \"@openzeppelin/contracts/token/ERC20/ERC20.sol\":7793:7812  uint256 fromBalance */\n      0x00\n        /* \"@openzeppelin/contracts/token/ERC20/ERC20.sol\":7815:7830  _balances[from] */\n      swap1\n      dup2\n      mstore\n      0x20\n      dup2\n      swap1\n      mstore\n      0x40\n      swap1\n      keccak256\n      sload\n        /* \"@openzeppelin/contracts/token/ERC20/ERC20.sol\":7848:7869  fromBalance >= amount */\n      dup2\n      dup2\n      lt\n      iszero\n        /* \"@openzeppelin/contracts/token/ERC20/ERC20.sol\":7840:7912  require(fromBalance >= amount, \"ERC20: transfer amount exceeds balance\") */\n      tag_187\n      jumpi\n      mload(0x40)\n      shl(0xe5, 0x461bcd)\n      dup2\n      mstore\n        /* \"#utility.yul\":4016:4018   */\n      0x20\n        /* \"@openzeppelin/contracts/token/ERC20/ERC20.sol\":7840:7912  require(fromBalance >= amount, \"ERC20: transfer amount exceeds balance\") */\n      0x04\n      dup3\n      add\n        /* \"#utility.yul\":3998:4019   */\n      mstore\n        /* \"#utility.yul\":4055:4057   */\n      0x26\n        /* \"#utility.yul\":4035:4053   */\n      0x24\n      dup3\n      add\n        /* \"#utility.yul\":4028:4058   */\n      mstore\n        /* \"#utility.yul\":4094:4128   */\n      0x45524332303a207472616e7366657220616d6f756e7420657863656564732062\n        /* \"#utility.yul\":4074:4092   */\n      0x44\n      dup3\n      add\n        /* \"#utility.yul\":4067:4129   */\n      mstore\n      shl(0xd0, 0x616c616e6365)\n        /* \"#utility.yul\":4145:4163   */\n      0x64\n      dup3\n      add\n        /* \"#utility.yul\":4138:4174   */\n      mstore\n        /* \"#utility.yul\":4191:4210   */\n      0x84\n      add\n        /* \"@openzeppelin/contracts/token/ERC20/ERC20.sol\":7840:7912  require(fromBalance >= amount, \"ERC20: transfer amount exceeds balance\") */\n      tag_138\n        /* \"#utility.yul\":3814:4216   */\n      jump\n        /* \"@openzeppelin/contracts/token/ERC20/ERC20.sol\":7840:7912  require(fromBalance >= amount, \"ERC20: transfer amount exceeds balance\") */\n    tag_187:\n      sub(shl(0xa0, 0x01), 0x01)\n        /* \"@openzeppelin/contracts/token/ERC20/ERC20.sol\":7946:7961  _balances[from] */\n      dup5\n      dup2\n      and\n        /* \"@openzeppelin/contracts/token/ERC20/ERC20.sol\":7946:7955  _balances */\n      0x00\n        /* \"@openzeppelin/contracts/token/ERC20/ERC20.sol\":7946:7961  _balances[from] */\n      dup2\n      dup2\n      mstore\n      0x20\n      dup2\n      dup2\n      mstore\n      0x40\n      dup1\n      dup4\n      keccak256\n        /* \"@openzeppelin/contracts/token/ERC20/ERC20.sol\":7964:7984  fromBalance - amount */\n      dup8\n      dup8\n      sub\n        /* \"@openzeppelin/contracts/token/ERC20/ERC20.sol\":7946:7984  _balances[from] = fromBalance - amount */\n      swap1\n      sstore\n        /* \"@openzeppelin/contracts/token/ERC20/ERC20.sol\":8161:8174  _balances[to] */\n      swap4\n      dup8\n      and\n      dup1\n      dup4\n      mstore\n      swap2\n      dup5\n      swap1\n      keccak256\n        /* \"@openzeppelin/contracts/token/ERC20/ERC20.sol\":8161:8184  _balances[to] += amount */\n      dup1\n      sload\n      dup8\n      add\n      swap1\n      sstore\n        /* \"@openzeppelin/contracts/token/ERC20/ERC20.sol\":8210:8236  Transfer(from, to, amount) */\n      swap3\n      mload\n        /* \"#utility.yul\":6305:6330   */\n      dup6\n      dup2\n      mstore\n        /* \"@openzeppelin/contracts/token/ERC20/ERC20.sol\":8161:8174  _balances[to] */\n      swap1\n      swap3\n        /* \"@openzeppelin/contracts/token/ERC20/ERC20.sol\":8210:8236  Transfer(from, to, amount) */\n      0xddf252ad1be2c89b69c2b068fc378daa952ba7f163c4a11628f55a4df523b3ef\n      swap2\n        /* \"#utility.yul\":6278:6296   */\n      add\n        /* \"@openzeppelin/contracts/token/ERC20/ERC20.sol\":8210:8236  Transfer(from, to, amount) */\n      mload(0x40)\n      dup1\n      swap2\n      sub\n      swap1\n      log3\n        /* \"@openzeppelin/contracts/token/ERC20/ERC20.sol\":8247:8284  _afterTokenTransfer(from, to, amount) */\n      tag_177\n        /* \"@openzeppelin/contracts/token/ERC20/ERC20.sol\":12180:12301  function _beforeTokenTransfer(... */\n      jump\n        /* \"@openzeppelin/contracts/access/Ownable.sol\":1359:1489  function _checkOwner() internal view virtual {... */\n    tag_123:\n        /* \"@openzeppelin/contracts/access/Ownable.sol\":1273:1279  _owner */\n      and(sub(shl(0xa0, 0x01), 0x01), sload(0x05))\n        /* \"@openzeppelin/contracts/utils/Context.sol\":719:729  msg.sender */\n      caller\n        /* \"@openzeppelin/contracts/access/Ownable.sol\":1422:1445  owner() == _msgSender() */\n      eq\n        /* \"@openzeppelin/contracts/access/Ownable.sol\":1414:1482  require(owner() == _msgSender(), \"Ownable: caller is not the owner\") */\n      tag_125\n      jumpi\n      mload(0x40)\n      shl(0xe5, 0x461bcd)\n      dup2\n      mstore\n        /* \"#utility.yul\":4423:4425   */\n      0x20\n        /* \"@openzeppelin/contracts/access/Ownable.sol\":1414:1482  require(owner() == _msgSender(), \"Ownable: caller is not the owner\") */\n      0x04\n      dup3\n      add\n        /* \"#utility.yul\":4405:4426   */\n      dup2\n      swap1\n      mstore\n        /* \"#utility.yul\":4442:4460   */\n      0x24\n      dup3\n      add\n        /* \"#utility.yul\":4435:4465   */\n      mstore\n        /* \"#utility.yul\":4501:4535   */\n      0x4f776e61626c653a2063616c6c6572206973206e6f7420746865206f776e6572\n        /* \"#utility.yul\":4481:4499   */\n      0x44\n      dup3\n      add\n        /* \"#utility.yul\":4474:4536   */\n      mstore\n        /* \"#utility.yul\":4553:4571   */\n      0x64\n      add\n        /* \"@openzeppelin/contracts/access/Ownable.sol\":1414:1482  require(owner() == _msgSender(), \"Ownable: caller is not the owner\") */\n      tag_138\n        /* \"#utility.yul\":4221:4577   */\n      jump\n        /* \"@openzeppelin/contracts/access/Ownable.sol\":2433:2620  function _transferOwnership(address newOwner) internal virtual {... */\n    tag_126:\n        /* \"@openzeppelin/contracts/access/Ownable.sol\":2525:2531  _owner */\n      0x05\n      dup1\n      sload\n      sub(shl(0xa0, 0x01), 0x01)\n        /* \"@openzeppelin/contracts/access/Ownable.sol\":2541:2558  _owner = newOwner */\n      dup4\n      dup2\n      and\n      not(sub(shl(0xa0, 0x01), 0x01))\n      dup4\n      and\n      dup2\n      or\n      swap1\n      swap4\n      sstore\n        /* \"@openzeppelin/contracts/access/Ownable.sol\":2573:2613  OwnershipTransferred(oldOwner, newOwner) */\n      mload(0x40)\n        /* \"@openzeppelin/contracts/access/Ownable.sol\":2525:2531  _owner */\n      swap2\n      and\n      swap2\n        /* \"@openzeppelin/contracts/access/Ownable.sol\":2541:2558  _owner = newOwner */\n      swap1\n        /* \"@openzeppelin/contracts/access/Ownable.sol\":2525:2531  _owner */\n      dup3\n      swap1\n        /* \"@openzeppelin/contracts/access/Ownable.sol\":2573:2613  OwnershipTransferred(oldOwner, newOwner) */\n      0x8be0079c531659141344cd1fd0a4f28419497f9722a3daafe3b4186f6b6457e0\n      swap1\n        /* \"@openzeppelin/contracts/access/Ownable.sol\":2506:2522  address oldOwner */\n      0x00\n      swap1\n        /* \"@openzeppelin/contracts/access/Ownable.sol\":2573:2613  OwnershipTransferred(oldOwner, newOwner) */\n      log3\n        /* \"@openzeppelin/contracts/access/Ownable.sol\":2496:2620  {... */\n      pop\n        /* \"@openzeppelin/contracts/access/Ownable.sol\":2433:2620  function _transferOwnership(address newOwner) internal virtual {... */\n      pop\n      jump\t// out\n        /* \"#utility.yul\":14:187   */\n    tag_203:\n        /* \"#utility.yul\":82:102   */\n      dup1\n      calldataload\n      sub(shl(0xa0, 0x01), 0x01)\n        /* \"#utility.yul\":131:162   */\n      dup2\n      and\n        /* \"#utility.yul\":121:163   */\n      dup2\n      eq\n        /* \"#utility.yul\":111:181   */\n      tag_205\n      jumpi\n        /* \"#utility.yul\":177:178   */\n      0x00\n        /* \"#utility.yul\":174:175   */\n      dup1\n        /* \"#utility.yul\":167:179   */\n      revert\n        /* \"#utility.yul\":111:181   */\n    tag_205:\n        /* \"#utility.yul\":14:187   */\n      swap2\n      swap1\n      pop\n      jump\t// out\n        /* \"#utility.yul\":192:378   */\n    tag_56:\n        /* \"#utility.yul\":251:257   */\n      0x00\n        /* \"#utility.yul\":304:306   */\n      0x20\n        /* \"#utility.yul\":292:301   */\n      dup3\n        /* \"#utility.yul\":283:290   */\n      dup5\n        /* \"#utility.yul\":279:302   */\n      sub\n        /* \"#utility.yul\":275:307   */\n      slt\n        /* \"#utility.yul\":272:324   */\n      iszero\n      tag_207\n      jumpi\n        /* \"#utility.yul\":320:321   */\n      0x00\n        /* \"#utility.yul\":317:318   */\n      dup1\n        /* \"#utility.yul\":310:322   */\n      revert\n        /* \"#utility.yul\":272:324   */\n    tag_207:\n        /* \"#utility.yul\":343:372   */\n      tag_208\n        /* \"#utility.yul\":362:371   */\n      dup3\n        /* \"#utility.yul\":343:372   */\n      tag_203\n      jump\t// in\n    tag_208:\n        /* \"#utility.yul\":333:372   */\n      swap4\n        /* \"#utility.yul\":192:378   */\n      swap3\n      pop\n      pop\n      pop\n      jump\t// out\n        /* \"#utility.yul\":383:643   */\n    tag_87:\n        /* \"#utility.yul\":451:457   */\n      0x00\n        /* \"#utility.yul\":459:465   */\n      dup1\n        /* \"#utility.yul\":512:514   */\n      0x40\n        /* \"#utility.yul\":500:509   */\n      dup4\n        /* \"#utility.yul\":491:498   */\n      dup6\n        /* \"#utility.yul\":487:510   */\n      sub\n        /* \"#utility.yul\":483:515   */\n      slt\n        /* \"#utility.yul\":480:532   */\n      iszero\n      tag_210\n      jumpi\n        /* \"#utility.yul\":528:529   */\n      0x00\n        /* \"#utility.yul\":525:526   */\n      dup1\n        /* \"#utility.yul\":518:530   */\n      revert\n        /* \"#utility.yul\":480:532   */\n    tag_210:\n        /* \"#utility.yul\":551:580   */\n      tag_211\n        /* \"#utility.yul\":570:579   */\n      dup4\n        /* \"#utility.yul\":551:580   */\n      tag_203\n      jump\t// in\n    tag_211:\n        /* \"#utility.yul\":541:580   */\n      swap2\n      pop\n        /* \"#utility.yul\":599:637   */\n      tag_212\n        /* \"#utility.yul\":633:635   */\n      0x20\n        /* \"#utility.yul\":622:631   */\n      dup5\n        /* \"#utility.yul\":618:636   */\n      add\n        /* \"#utility.yul\":599:637   */\n      tag_203\n      jump\t// in\n    tag_212:\n        /* \"#utility.yul\":589:637   */\n      swap1\n      pop\n        /* \"#utility.yul\":383:643   */\n      swap3\n      pop\n      swap3\n      swap1\n      pop\n      jump\t// out\n        /* \"#utility.yul\":648:976   */\n    tag_40:\n        /* \"#utility.yul\":725:731   */\n      0x00\n        /* \"#utility.yul\":733:739   */\n      dup1\n        /* \"#utility.yul\":741:747   */\n      0x00\n        /* \"#utility.yul\":794:796   */\n      0x60\n        /* \"#utility.yul\":782:791   */\n      dup5\n        /* \"#utility.yul\":773:780   */\n      dup7\n        /* \"#utility.yul\":769:792   */\n      sub\n        /* \"#utility.yul\":765:797   */\n      slt\n        /* \"#utility.yul\":762:814   */\n      iszero\n      tag_214\n      jumpi\n        /* \"#utility.yul\":810:811   */\n      0x00\n        /* \"#utility.yul\":807:808   */\n      dup1\n        /* \"#utility.yul\":800:812   */\n      revert\n        /* \"#utility.yul\":762:814   */\n    tag_214:\n        /* \"#utility.yul\":833:862   */\n      tag_215\n        /* \"#utility.yul\":852:861   */\n      dup5\n        /* \"#utility.yul\":833:862   */\n      tag_203\n      jump\t// in\n    tag_215:\n        /* \"#utility.yul\":823:862   */\n      swap3\n      pop\n        /* \"#utility.yul\":881:919   */\n      tag_216\n        /* \"#utility.yul\":915:917   */\n      0x20\n        /* \"#utility.yul\":904:913   */\n      dup6\n        /* \"#utility.yul\":900:918   */\n      add\n        /* \"#utility.yul\":881:919   */\n      tag_203\n      jump\t// in\n    tag_216:\n        /* \"#utility.yul\":871:919   */\n      swap2\n      pop\n        /* \"#utility.yul\":966:968   */\n      0x40\n        /* \"#utility.yul\":955:964   */\n      dup5\n        /* \"#utility.yul\":951:969   */\n      add\n        /* \"#utility.yul\":938:970   */\n      calldataload\n        /* \"#utility.yul\":928:970   */\n      swap1\n      pop\n        /* \"#utility.yul\":648:976   */\n      swap3\n      pop\n      swap3\n      pop\n      swap3\n      jump\t// out\n        /* \"#utility.yul\":981:1235   */\n    tag_28:\n        /* \"#utility.yul\":1049:1055   */\n      0x00\n        /* \"#utility.yul\":1057:1063   */\n      dup1\n        /* \"#utility.yul\":1110:1112   */\n      0x40\n        /* \"#utility.yul\":1098:1107   */\n      dup4\n        /* \"#utility.yul\":1089:1096   */\n      dup6\n        /* \"#utility.yul\":1085:1108   */\n      sub\n        /* \"#utility.yul\":1081:1113   */\n      slt\n        /* \"#utility.yul\":1078:1130   */\n      iszero\n      tag_218\n      jumpi\n        /* \"#utility.yul\":1126:1127   */\n      0x00\n        /* \"#utility.yul\":1123:1124   */\n      dup1\n        /* \"#utility.yul\":1116:1128   */\n      revert\n        /* \"#utility.yul\":1078:1130   */\n    tag_218:\n        /* \"#utility.yul\":1149:1178   */\n      tag_219\n        /* \"#utility.yul\":1168:1177   */\n      dup4\n        /* \"#utility.yul\":1149:1178   */\n      tag_203\n      jump\t// in\n    tag_219:\n        /* \"#utility.yul\":1139:1178   */\n      swap5\n        /* \"#utility.yul\":1225:1227   */\n      0x20\n        /* \"#utility.yul\":1210:1228   */\n      swap4\n      swap1\n      swap4\n      add\n        /* \"#utility.yul\":1197:1229   */\n      calldataload\n      swap4\n      pop\n      pop\n      pop\n        /* \"#utility.yul\":981:1235   */\n      jump\t// out\n        /* \"#utility.yul\":1640:2237   */\n    tag_24:\n        /* \"#utility.yul\":1752:1756   */\n      0x00\n        /* \"#utility.yul\":1781:1783   */\n      0x20\n        /* \"#utility.yul\":1810:1812   */\n      dup1\n        /* \"#utility.yul\":1799:1808   */\n      dup4\n        /* \"#utility.yul\":1792:1813   */\n      mstore\n        /* \"#utility.yul\":1842:1848   */\n      dup4\n        /* \"#utility.yul\":1836:1849   */\n      mload\n        /* \"#utility.yul\":1885:1891   */\n      dup1\n        /* \"#utility.yul\":1880:1882   */\n      dup3\n        /* \"#utility.yul\":1869:1878   */\n      dup6\n        /* \"#utility.yul\":1865:1883   */\n      add\n        /* \"#utility.yul\":1858:1892   */\n      mstore\n        /* \"#utility.yul\":1910:1911   */\n      0x00\n        /* \"#utility.yul\":1920:2060   */\n    tag_223:\n        /* \"#utility.yul\":1934:1940   */\n      dup2\n        /* \"#utility.yul\":1931:1932   */\n      dup2\n        /* \"#utility.yul\":1928:1941   */\n      lt\n        /* \"#utility.yul\":1920:2060   */\n      iszero\n      tag_225\n      jumpi\n        /* \"#utility.yul\":2029:2043   */\n      dup6\n      dup2\n      add\n        /* \"#utility.yul\":2025:2048   */\n      dup4\n      add\n        /* \"#utility.yul\":2019:2049   */\n      mload\n        /* \"#utility.yul\":1995:2012   */\n      dup6\n      dup3\n      add\n        /* \"#utility.yul\":2014:2016   */\n      0x40\n        /* \"#utility.yul\":1991:2017   */\n      add\n        /* \"#utility.yul\":1984:2050   */\n      mstore\n        /* \"#utility.yul\":1949:1959   */\n      dup3\n      add\n        /* \"#utility.yul\":1920:2060   */\n      jump(tag_223)\n    tag_225:\n        /* \"#utility.yul\":2078:2084   */\n      dup2\n        /* \"#utility.yul\":2075:2076   */\n      dup2\n        /* \"#utility.yul\":2072:2085   */\n      gt\n        /* \"#utility.yul\":2069:2160   */\n      iszero\n      tag_226\n      jumpi\n        /* \"#utility.yul\":2148:2149   */\n      0x00\n        /* \"#utility.yul\":2143:2145   */\n      0x40\n        /* \"#utility.yul\":2134:2140   */\n      dup4\n        /* \"#utility.yul\":2123:2132   */\n      dup8\n        /* \"#utility.yul\":2119:2141   */\n      add\n        /* \"#utility.yul\":2115:2146   */\n      add\n        /* \"#utility.yul\":2108:2150   */\n      mstore\n        /* \"#utility.yul\":2069:2160   */\n    tag_226:\n      pop\n        /* \"#utility.yul\":2221:2223   */\n      0x1f\n        /* \"#utility.yul\":2200:2215   */\n      add\n      not(0x1f)\n        /* \"#utility.yul\":2196:2225   */\n      and\n        /* \"#utility.yul\":2181:2226   */\n      swap3\n      swap1\n      swap3\n      add\n        /* \"#utility.yul\":2228:2230   */\n      0x40\n        /* \"#utility.yul\":2177:2231   */\n      add\n      swap4\n        /* \"#utility.yul\":1640:2237   */\n      swap3\n      pop\n      pop\n      pop\n      jump\t// out\n        /* \"#utility.yul\":6530:6658   */\n    tag_119:\n        /* \"#utility.yul\":6570:6573   */\n      0x00\n        /* \"#utility.yul\":6601:6602   */\n      dup3\n        /* \"#utility.yul\":6597:6603   */\n      not\n        /* \"#utility.yul\":6594:6595   */\n      dup3\n        /* \"#utility.yul\":6591:6604   */\n      gt\n        /* \"#utility.yul\":6588:6627   */\n      iszero\n      tag_241\n      jumpi\n        /* \"#utility.yul\":6607:6625   */\n      tag_241\n      tag_242\n      jump\t// in\n    tag_241:\n      pop\n        /* \"#utility.yul\":6643:6652   */\n      add\n      swap1\n        /* \"#utility.yul\":6530:6658   */\n      jump\t// out\n        /* \"#utility.yul\":6663:6831   */\n    tag_147:\n        /* \"#utility.yul\":6703:6710   */\n      0x00\n        /* \"#utility.yul\":6769:6770   */\n      dup2\n        /* \"#utility.yul\":6765:6766   */\n      0x00\n        /* \"#utility.yul\":6761:6767   */\n      not\n        /* \"#utility.yul\":6757:6771   */\n      div\n        /* \"#utility.yul\":6754:6755   */\n      dup4\n        /* \"#utility.yul\":6751:6772   */\n      gt\n        /* \"#utility.yul\":6746:6747   */\n      dup3\n        /* \"#utility.yul\":6739:6748   */\n      iszero\n        /* \"#utility.yul\":6732:6749   */\n      iszero\n        /* \"#utility.yul\":6728:6773   */\n      and\n        /* \"#utility.yul\":6725:6796   */\n      iszero\n      tag_245\n      jumpi\n        /* \"#utility.yul\":6776:6794   */\n      tag_245\n      tag_242\n      jump\t// in\n    tag_245:\n      pop\n        /* \"#utility.yul\":6816:6825   */\n      mul\n      swap1\n        /* \"#utility.yul\":6663:6831   */\n      jump\t// out\n        /* \"#utility.yul\":6836:7216   */\n    tag_96:\n        /* \"#utility.yul\":6915:6916   */\n      0x01\n        /* \"#utility.yul\":6911:6923   */\n      dup2\n      dup2\n      shr\n      swap1\n        /* \"#utility.yul\":6958:6970   */\n      dup3\n      and\n      dup1\n        /* \"#utility.yul\":6979:7040   */\n      tag_247\n      jumpi\n        /* \"#utility.yul\":7033:7037   */\n      0x7f\n        /* \"#utility.yul\":7025:7031   */\n      dup3\n        /* \"#utility.yul\":7021:7038   */\n      and\n        /* \"#utility.yul\":7011:7038   */\n      swap2\n      pop\n        /* \"#utility.yul\":6979:7040   */\n    tag_247:\n        /* \"#utility.yul\":7086:7088   */\n      0x20\n        /* \"#utility.yul\":7078:7084   */\n      dup3\n        /* \"#utility.yul\":7075:7089   */\n      lt\n        /* \"#utility.yul\":7055:7073   */\n      dup2\n        /* \"#utility.yul\":7052:7090   */\n      eq\n        /* \"#utility.yul\":7049:7210   */\n      iszero\n      tag_248\n      jumpi\n        /* \"#utility.yul\":7132:7142   */\n      0x4e487b71\n        /* \"#utility.yul\":7127:7130   */\n      0xe0\n        /* \"#utility.yul\":7123:7143   */\n      shl\n        /* \"#utility.yul\":7120:7121   */\n      0x00\n        /* \"#utility.yul\":7113:7144   */\n      mstore\n        /* \"#utility.yul\":7167:7171   */\n      0x22\n        /* \"#utility.yul\":7164:7165   */\n      0x04\n        /* \"#utility.yul\":7157:7172   */\n      mstore\n        /* \"#utility.yul\":7195:7199   */\n      0x24\n        /* \"#utility.yul\":7192:7193   */\n      0x00\n        /* \"#utility.yul\":7185:7200   */\n      revert\n        /* \"#utility.yul\":7049:7210   */\n    tag_248:\n      pop\n        /* \"#utility.yul\":6836:7216   */\n      swap2\n      swap1\n      pop\n      jump\t// out\n        /* \"#utility.yul\":7221:7348   */\n    tag_242:\n        /* \"#utility.yul\":7282:7292   */\n      0x4e487b71\n        /* \"#utility.yul\":7277:7280   */\n      0xe0\n        /* \"#utility.yul\":7273:7293   */\n      shl\n        /* \"#utility.yul\":7270:7271   */\n      0x00\n        /* \"#utility.yul\":7263:7294   */\n      mstore\n        /* \"#utility.yul\":7313:7317   */\n      0x11\n        /* \"#utility.yul\":7310:7311   */\n      0x04\n        /* \"#utility.yul\":7303:7318   */\n      mstore\n        /* \"#utility.yul\":7337:7341   */\n      0x24\n        /* \"#utility.yul\":7334:7335   */\n      0x00\n        /* \"#utility.yul\":7327:7342   */\n      revert\n\n    auxdata: 0xa2646970667358221220c417e4ba25e5ac82594bdadca0e7eb1206762d05daad983eed0e1eb7ef8a4d8c64736f6c63430008070033\n}\n",
				"bytecode": {
					"linkReferences": {},
					"object": "60806040523480156200001157600080fd5b5060408051808201825260048152634e49484160e01b6020808301918252835180850190945260028452614e4160f01b9084015281519192916200005891600391620001d5565b5080516200006e906004906020840190620001d5565b5050506200008b62000085620000b960201b60201c565b620000bd565b620000b3336200009e6012600a620002df565b620000ad90620f4240620003aa565b6200010f565b6200041f565b3390565b600580546001600160a01b038381166001600160a01b0319831681179093556040519116919082907f8be0079c531659141344cd1fd0a4f28419497f9722a3daafe3b4186f6b6457e090600090a35050565b6001600160a01b0382166200016a5760405162461bcd60e51b815260206004820152601f60248201527f45524332303a206d696e7420746f20746865207a65726f206164647265737300604482015260640160405180910390fd5b80600260008282546200017e91906200027b565b90915550506001600160a01b038216600081815260208181526040808320805486019055518481527fddf252ad1be2c89b69c2b068fc378daa952ba7f163c4a11628f55a4df523b3ef910160405180910390a35050565b828054620001e390620003cc565b90600052602060002090601f01602090048101928262000207576000855562000252565b82601f106200022257805160ff191683800117855562000252565b8280016001018555821562000252579182015b828111156200025257825182559160200191906001019062000235565b506200026092915062000264565b5090565b5b8082111562000260576000815560010162000265565b6000821982111562000291576200029162000409565b500190565b600181815b80851115620002d7578160001904821115620002bb57620002bb62000409565b80851615620002c957918102915b93841c93908002906200029b565b509250929050565b6000620002ed8383620002f4565b9392505050565b6000826200030557506001620003a4565b816200031457506000620003a4565b81600181146200032d5760028114620003385762000358565b6001915050620003a4565b60ff8411156200034c576200034c62000409565b50506001821b620003a4565b5060208310610133831016604e8410600b84101617156200037d575081810a620003a4565b62000389838362000296565b8060001904821115620003a057620003a062000409565b0290505b92915050565b6000816000190483118215151615620003c757620003c762000409565b500290565b600181811c90821680620003e157607f821691505b602082108114156200040357634e487b7160e01b600052602260045260246000fd5b50919050565b634e487b7160e01b600052601160045260246000fd5b610b84806200042f6000396000f3fe6080604052600436106100e85760003560e01c8063715018a61161008a578063a6f2ae3a11610059578063a6f2ae3a1461026d578063a9059cbb14610275578063dd62ed3e14610295578063f2fde38b146102b557600080fd5b8063715018a6146101f95780638da5cb5b1461021057806395d89b4114610238578063a457c2d71461024d57600080fd5b806323b872dd116100c657806323b872dd14610167578063313ce5671461018757806339509351146101a357806370a08231146101c357600080fd5b806306fdde03146100ed578063095ea7b31461011857806318160ddd14610148575b600080fd5b3480156100f957600080fd5b506101026102d5565b60405161010f9190610a71565b60405180910390f35b34801561012457600080fd5b50610138610133366004610a47565b610367565b604051901515815260200161010f565b34801561015457600080fd5b506002545b60405190815260200161010f565b34801561017357600080fd5b50610138610182366004610a0b565b61037f565b34801561019357600080fd5b506040516012815260200161010f565b3480156101af57600080fd5b506101386101be366004610a47565b6103a3565b3480156101cf57600080fd5b506101596101de3660046109b6565b6001600160a01b031660009081526020819052604090205490565b34801561020557600080fd5b5061020e6103c5565b005b34801561021c57600080fd5b506005546040516001600160a01b03909116815260200161010f565b34801561024457600080fd5b506101026103d9565b34801561025957600080fd5b50610138610268366004610a47565b6103e8565b610138610468565b34801561028157600080fd5b50610138610290366004610a47565b6104fa565b3480156102a157600080fd5b506101596102b03660046109d8565b610508565b3480156102c157600080fd5b5061020e6102d03660046109b6565b610533565b6060600380546102e490610afd565b80601f016020809104026020016040519081016040528092919081815260200182805461031090610afd565b801561035d5780601f106103325761010080835404028352916020019161035d565b820191906000526020600020905b81548152906001019060200180831161034057829003601f168201915b5050505050905090565b6000336103758185856105ac565b5060019392505050565b60003361038d8582856106d0565b61039885858561074a565b506001949350505050565b6000336103758185856103b68383610508565b6103c09190610ac6565b6105ac565b6103cd6108ee565b6103d76000610948565b565b6060600480546102e490610afd565b600033816103f68286610508565b90508381101561045b5760405162461bcd60e51b815260206004820152602560248201527f45524332303a2064656372656173656420616c6c6f77616e63652062656c6f77604482015264207a65726f60d81b60648201526084015b60405180910390fd5b61039882868684036105ac565b60003433311080159061047a57503415155b6104c65760405162461bcd60e51b815260206004820152601f60248201527f49434f3a2066756e6374696f6e2062757920696e76616c696420696e707574006044820152606401610452565b60006104d4346103e8610ade565b90506104f26104eb6005546001600160a01b031690565b338361074a565b600191505090565b60003361037581858561074a565b6001600160a01b03918216600090815260016020908152604080832093909416825291909152205490565b61053b6108ee565b6001600160a01b0381166105a05760405162461bcd60e51b815260206004820152602660248201527f4f776e61626c653a206e6577206f776e657220697320746865207a65726f206160448201526564647265737360d01b6064820152608401610452565b6105a981610948565b50565b6001600160a01b03831661060e5760405162461bcd60e51b8152602060048201526024808201527f45524332303a20617070726f76652066726f6d20746865207a65726f206164646044820152637265737360e01b6064820152608401610452565b6001600160a01b03821661066f5760405162461bcd60e51b815260206004820152602260248201527f45524332303a20617070726f766520746f20746865207a65726f206164647265604482015261737360f01b6064820152608401610452565b6001600160a01b0383811660008181526001602090815260408083209487168084529482529182902085905590518481527f8c5be1e5ebec7d5bd14f71427d1e84f3dd0314c0f7b2291e5b200ac8c7c3b925910160405180910390a3505050565b60006106dc8484610508565b9050600019811461074457818110156107375760405162461bcd60e51b815260206004820152601d60248201527f45524332303a20696e73756666696369656e7420616c6c6f77616e63650000006044820152606401610452565b61074484848484036105ac565b50505050565b6001600160a01b0383166107ae5760405162461bcd60e51b815260206004820152602560248201527f45524332303a207472616e736665722066726f6d20746865207a65726f206164604482015264647265737360d81b6064820152608401610452565b6001600160a01b0382166108105760405162461bcd60e51b815260206004820152602360248201527f45524332303a207472616e7366657220746f20746865207a65726f206164647260448201526265737360e81b6064820152608401610452565b6001600160a01b038316600090815260208190526040902054818110156108885760405162461bcd60e51b815260206004820152602660248201527f45524332303a207472616e7366657220616d6f756e7420657863656564732062604482015265616c616e636560d01b6064820152608401610452565b6001600160a01b03848116600081815260208181526040808320878703905593871680835291849020805487019055925185815290927fddf252ad1be2c89b69c2b068fc378daa952ba7f163c4a11628f55a4df523b3ef910160405180910390a3610744565b6005546001600160a01b031633146103d75760405162461bcd60e51b815260206004820181905260248201527f4f776e61626c653a2063616c6c6572206973206e6f7420746865206f776e65726044820152606401610452565b600580546001600160a01b038381166001600160a01b0319831681179093556040519116919082907f8be0079c531659141344cd1fd0a4f28419497f9722a3daafe3b4186f6b6457e090600090a35050565b80356001600160a01b03811681146109b157600080fd5b919050565b6000602082840312156109c857600080fd5b6109d18261099a565b9392505050565b600080604083850312156109eb57600080fd5b6109f48361099a565b9150610a026020840161099a565b90509250929050565b600080600060608486031215610a2057600080fd5b610a298461099a565b9250610a376020850161099a565b9150604084013590509250925092565b60008060408385031215610a5a57600080fd5b610a638361099a565b946020939093013593505050565b600060208083528351808285015260005b81811015610a9e57858101830151858201604001528201610a82565b81811115610ab0576000604083870101525b50601f01601f1916929092016040019392505050565b60008219821115610ad957610ad9610b38565b500190565b6000816000190483118215151615610af857610af8610b38565b500290565b600181811c90821680610b1157607f821691505b60208210811415610b3257634e487b7160e01b600052602260045260246000fd5b50919050565b634e487b7160e01b600052601160045260246000fdfea2646970667358221220c417e4ba25e5ac82594bdadca0e7eb1206762d05daad983eed0e1eb7ef8a4d8c64736f6c63430008070033",
					"opcodes": "PUSH1 0x80 PUSH1 0x40 MSTORE CALLVALUE DUP1 ISZERO PUSH3 0x11 JUMPI PUSH1 0x0 DUP1 REVERT JUMPDEST POP PUSH1 0x40 DUP1 MLOAD DUP1 DUP3 ADD DUP3 MSTORE PUSH1 0x4 DUP2 MSTORE PUSH4 0x4E494841 PUSH1 0xE0 SHL PUSH1 0x20 DUP1 DUP4 ADD SWAP2 DUP3 MSTORE DUP4 MLOAD DUP1 DUP6 ADD SWAP1 SWAP5 MSTORE PUSH1 0x2 DUP5 MSTORE PUSH2 0x4E41 PUSH1 0xF0 SHL SWAP1 DUP5 ADD MSTORE DUP2 MLOAD SWAP2 SWAP3 SWAP2 PUSH3 0x58 SWAP2 PUSH1 0x3 SWAP2 PUSH3 0x1D5 JUMP JUMPDEST POP DUP1 MLOAD PUSH3 0x6E SWAP1 PUSH1 0x4 SWAP1 PUSH1 0x20 DUP5 ADD SWAP1 PUSH3 0x1D5 JUMP JUMPDEST POP POP POP PUSH3 0x8B PUSH3 0x85 PUSH3 0xB9 PUSH1 0x20 SHL PUSH1 0x20 SHR JUMP JUMPDEST PUSH3 0xBD JUMP JUMPDEST PUSH3 0xB3 CALLER PUSH3 0x9E PUSH1 0x12 PUSH1 0xA PUSH3 0x2DF JUMP JUMPDEST PUSH3 0xAD SWAP1 PUSH3 0xF4240 PUSH3 0x3AA JUMP JUMPDEST PUSH3 0x10F JUMP JUMPDEST PUSH3 0x41F JUMP JUMPDEST CALLER SWAP1 JUMP JUMPDEST PUSH1 0x5 DUP1 SLOAD PUSH1 0x1 PUSH1 0x1 PUSH1 0xA0 SHL SUB DUP4 DUP2 AND PUSH1 0x1 PUSH1 0x1 PUSH1 0xA0 SHL SUB NOT DUP4 AND DUP2 OR SWAP1 SWAP4 SSTORE PUSH1 0x40 MLOAD SWAP2 AND SWAP2 SWAP1 DUP3 SWAP1 PUSH32 0x8BE0079C531659141344CD1FD0A4F28419497F9722A3DAAFE3B4186F6B6457E0 SWAP1 PUSH1 0x0 SWAP1 LOG3 POP POP JUMP JUMPDEST PUSH1 0x1 PUSH1 0x1 PUSH1 0xA0 SHL SUB DUP3 AND PUSH3 0x16A JUMPI PUSH1 0x40 MLOAD PUSH3 0x461BCD PUSH1 0xE5 SHL DUP2 MSTORE PUSH1 0x20 PUSH1 0x4 DUP3 ADD MSTORE PUSH1 0x1F PUSH1 0x24 DUP3 ADD MSTORE PUSH32 0x45524332303A206D696E7420746F20746865207A65726F206164647265737300 PUSH1 0x44 DUP3 ADD MSTORE PUSH1 0x64 ADD PUSH1 0x40 MLOAD DUP1 SWAP2 SUB SWAP1 REVERT JUMPDEST DUP1 PUSH1 0x2 PUSH1 0x0 DUP3 DUP3 SLOAD PUSH3 0x17E SWAP2 SWAP1 PUSH3 0x27B JUMP JUMPDEST SWAP1 SWAP2 SSTORE POP POP PUSH1 0x1 PUSH1 0x1 PUSH1 0xA0 SHL SUB DUP3 AND PUSH1 0x0 DUP2 DUP2 MSTORE PUSH1 0x20 DUP2 DUP2 MSTORE PUSH1 0x40 DUP1 DUP4 KECCAK256 DUP1 SLOAD DUP7 ADD SWAP1 SSTORE MLOAD DUP5 DUP2 MSTORE PUSH32 0xDDF252AD1BE2C89B69C2B068FC378DAA952BA7F163C4A11628F55A4DF523B3EF SWAP2 ADD PUSH1 0x40 MLOAD DUP1 SWAP2 SUB SWAP1 LOG3 POP POP JUMP JUMPDEST DUP3 DUP1 SLOAD PUSH3 0x1E3 SWAP1 PUSH3 0x3CC JUMP JUMPDEST SWAP1 PUSH1 0x0 MSTORE PUSH1 0x20 PUSH1 0x0 KECCAK256 SWAP1 PUSH1 0x1F ADD PUSH1 0x20 SWAP1 DIV DUP2 ADD SWAP3 DUP3 PUSH3 0x207 JUMPI PUSH1 0x0 DUP6 SSTORE PUSH3 0x252 JUMP JUMPDEST DUP3 PUSH1 0x1F LT PUSH3 0x222 JUMPI DUP1 MLOAD PUSH1 0xFF NOT AND DUP4 DUP1 ADD OR DUP6 SSTORE PUSH3 0x252 JUMP JUMPDEST DUP3 DUP1 ADD PUSH1 0x1 ADD DUP6 SSTORE DUP3 ISZERO PUSH3 0x252 JUMPI SWAP2 DUP3 ADD JUMPDEST DUP3 DUP2 GT ISZERO PUSH3 0x252 JUMPI DUP3 MLOAD DUP3 SSTORE SWAP2 PUSH1 0x20 ADD SWAP2 SWAP1 PUSH1 0x1 ADD SWAP1 PUSH3 0x235 JUMP JUMPDEST POP PUSH3 0x260 SWAP3 SWAP2 POP PUSH3 0x264 JUMP JUMPDEST POP SWAP1 JUMP JUMPDEST JUMPDEST DUP1 DUP3 GT ISZERO PUSH3 0x260 JUMPI PUSH1 0x0 DUP2 SSTORE PUSH1 0x1 ADD PUSH3 0x265 JUMP JUMPDEST PUSH1 0x0 DUP3 NOT DUP3 GT ISZERO PUSH3 0x291 JUMPI PUSH3 0x291 PUSH3 0x409 JUMP JUMPDEST POP ADD SWAP1 JUMP JUMPDEST PUSH1 0x1 DUP2 DUP2 JUMPDEST DUP1 DUP6 GT ISZERO PUSH3 0x2D7 JUMPI DUP2 PUSH1 0x0 NOT DIV DUP3 GT ISZERO PUSH3 0x2BB JUMPI PUSH3 0x2BB PUSH3 0x409 JUMP JUMPDEST DUP1 DUP6 AND ISZERO PUSH3 0x2C9 JUMPI SWAP2 DUP2 MUL SWAP2 JUMPDEST SWAP4 DUP5 SHR SWAP4 SWAP1 DUP1 MUL SWAP1 PUSH3 0x29B JUMP JUMPDEST POP SWAP3 POP SWAP3 SWAP1 POP JUMP JUMPDEST PUSH1 0x0 PUSH3 0x2ED DUP4 DUP4 PUSH3 0x2F4 JUMP JUMPDEST SWAP4 SWAP3 POP POP POP JUMP JUMPDEST PUSH1 0x0 DUP3 PUSH3 0x305 JUMPI POP PUSH1 0x1 PUSH3 0x3A4 JUMP JUMPDEST DUP2 PUSH3 0x314 JUMPI POP PUSH1 0x0 PUSH3 0x3A4 JUMP JUMPDEST DUP2 PUSH1 0x1 DUP2 EQ PUSH3 0x32D JUMPI PUSH1 0x2 DUP2 EQ PUSH3 0x338 JUMPI PUSH3 0x358 JUMP JUMPDEST PUSH1 0x1 SWAP2 POP POP PUSH3 0x3A4 JUMP JUMPDEST PUSH1 0xFF DUP5 GT ISZERO PUSH3 0x34C JUMPI PUSH3 0x34C PUSH3 0x409 JUMP JUMPDEST POP POP PUSH1 0x1 DUP3 SHL PUSH3 0x3A4 JUMP JUMPDEST POP PUSH1 0x20 DUP4 LT PUSH2 0x133 DUP4 LT AND PUSH1 0x4E DUP5 LT PUSH1 0xB DUP5 LT AND OR ISZERO PUSH3 0x37D JUMPI POP DUP2 DUP2 EXP PUSH3 0x3A4 JUMP JUMPDEST PUSH3 0x389 DUP4 DUP4 PUSH3 0x296 JUMP JUMPDEST DUP1 PUSH1 0x0 NOT DIV DUP3 GT ISZERO PUSH3 0x3A0 JUMPI PUSH3 0x3A0 PUSH3 0x409 JUMP JUMPDEST MUL SWAP1 POP JUMPDEST SWAP3 SWAP2 POP POP JUMP JUMPDEST PUSH1 0x0 DUP2 PUSH1 0x0 NOT DIV DUP4 GT DUP3 ISZERO ISZERO AND ISZERO PUSH3 0x3C7 JUMPI PUSH3 0x3C7 PUSH3 0x409 JUMP JUMPDEST POP MUL SWAP1 JUMP JUMPDEST PUSH1 0x1 DUP2 DUP2 SHR SWAP1 DUP3 AND DUP1 PUSH3 0x3E1 JUMPI PUSH1 0x7F DUP3 AND SWAP2 POP JUMPDEST PUSH1 0x20 DUP3 LT DUP2 EQ ISZERO PUSH3 0x403 JUMPI PUSH4 0x4E487B71 PUSH1 0xE0 SHL PUSH1 0x0 MSTORE PUSH1 0x22 PUSH1 0x4 MSTORE PUSH1 0x24 PUSH1 0x0 REVERT JUMPDEST POP SWAP2 SWAP1 POP JUMP JUMPDEST PUSH4 0x4E487B71 PUSH1 0xE0 SHL PUSH1 0x0 MSTORE PUSH1 0x11 PUSH1 0x4 MSTORE PUSH1 0x24 PUSH1 0x0 REVERT JUMPDEST PUSH2 0xB84 DUP1 PUSH3 0x42F PUSH1 0x0 CODECOPY PUSH1 0x0 RETURN INVALID PUSH1 0x80 PUSH1 0x40 MSTORE PUSH1 0x4 CALLDATASIZE LT PUSH2 0xE8 JUMPI PUSH1 0x0 CALLDATALOAD PUSH1 0xE0 SHR DUP1 PUSH4 0x715018A6 GT PUSH2 0x8A JUMPI DUP1 PUSH4 0xA6F2AE3A GT PUSH2 0x59 JUMPI DUP1 PUSH4 0xA6F2AE3A EQ PUSH2 0x26D JUMPI DUP1 PUSH4 0xA9059CBB EQ PUSH2 0x275 JUMPI DUP1 PUSH4 0xDD62ED3E EQ PUSH2 0x295 JUMPI DUP1 PUSH4 0xF2FDE38B EQ PUSH2 0x2B5 JUMPI PUSH1 0x0 DUP1 REVERT JUMPDEST DUP1 PUSH4 0x715018A6 EQ PUSH2 0x1F9 JUMPI DUP1 PUSH4 0x8DA5CB5B EQ PUSH2 0x210 JUMPI DUP1 PUSH4 0x95D89B41 EQ PUSH2 0x238 JUMPI DUP1 PUSH4 0xA457C2D7 EQ PUSH2 0x24D JUMPI PUSH1 0x0 DUP1 REVERT JUMPDEST DUP1 PUSH4 0x23B872DD GT PUSH2 0xC6 JUMPI DUP1 PUSH4 0x23B872DD EQ PUSH2 0x167 JUMPI DUP1 PUSH4 0x313CE567 EQ PUSH2 0x187 JUMPI DUP1 PUSH4 0x39509351 EQ PUSH2 0x1A3 JUMPI DUP1 PUSH4 0x70A08231 EQ PUSH2 0x1C3 JUMPI PUSH1 0x0 DUP1 REVERT JUMPDEST DUP1 PUSH4 0x6FDDE03 EQ PUSH2 0xED JUMPI DUP1 PUSH4 0x95EA7B3 EQ PUSH2 0x118 JUMPI DUP1 PUSH4 0x18160DDD EQ PUSH2 0x148 JUMPI JUMPDEST PUSH1 0x0 DUP1 REVERT JUMPDEST CALLVALUE DUP1 ISZERO PUSH2 0xF9 JUMPI PUSH1 0x0 DUP1 REVERT JUMPDEST POP PUSH2 0x102 PUSH2 0x2D5 JUMP JUMPDEST PUSH1 0x40 MLOAD PUSH2 0x10F SWAP2 SWAP1 PUSH2 0xA71 JUMP JUMPDEST PUSH1 0x40 MLOAD DUP1 SWAP2 SUB SWAP1 RETURN JUMPDEST CALLVALUE DUP1 ISZERO PUSH2 0x124 JUMPI PUSH1 0x0 DUP1 REVERT JUMPDEST POP PUSH2 0x138 PUSH2 0x133 CALLDATASIZE PUSH1 0x4 PUSH2 0xA47 JUMP JUMPDEST PUSH2 0x367 JUMP JUMPDEST PUSH1 0x40 MLOAD SWAP1 ISZERO ISZERO DUP2 MSTORE PUSH1 0x20 ADD PUSH2 0x10F JUMP JUMPDEST CALLVALUE DUP1 ISZERO PUSH2 0x154 JUMPI PUSH1 0x0 DUP1 REVERT JUMPDEST POP PUSH1 0x2 SLOAD JUMPDEST PUSH1 0x40 MLOAD SWAP1 DUP2 MSTORE PUSH1 0x20 ADD PUSH2 0x10F JUMP JUMPDEST CALLVALUE DUP1 ISZERO PUSH2 0x173 JUMPI PUSH1 0x0 DUP1 REVERT JUMPDEST POP PUSH2 0x138 PUSH2 0x182 CALLDATASIZE PUSH1 0x4 PUSH2 0xA0B JUMP JUMPDEST PUSH2 0x37F JUMP JUMPDEST CALLVALUE DUP1 ISZERO PUSH2 0x193 JUMPI PUSH1 0x0 DUP1 REVERT JUMPDEST POP PUSH1 0x40 MLOAD PUSH1 0x12 DUP2 MSTORE PUSH1 0x20 ADD PUSH2 0x10F JUMP JUMPDEST CALLVALUE DUP1 ISZERO PUSH2 0x1AF JUMPI PUSH1 0x0 DUP1 REVERT JUMPDEST POP PUSH2 0x138 PUSH2 0x1BE CALLDATASIZE PUSH1 0x4 PUSH2 0xA47 JUMP JUMPDEST PUSH2 0x3A3 JUMP JUMPDEST CALLVALUE DUP1 ISZERO PUSH2 0x1CF JUMPI PUSH1 0x0 DUP1 REVERT JUMPDEST POP PUSH2 0x159 PUSH2 0x1DE CALLDATASIZE PUSH1 0x4 PUSH2 0x9B6 JUMP JUMPDEST PUSH1 0x1 PUSH1 0x1 PUSH1 0xA0 SHL SUB AND PUSH1 0x0 SWAP1 DUP2 MSTORE PUSH1 0x20 DUP2 SWAP1 MSTORE PUSH1 0x40 SWAP1 KECCAK256 SLOAD SWAP1 JUMP JUMPDEST CALLVALUE DUP1 ISZERO PUSH2 0x205 JUMPI PUSH1 0x0 DUP1 REVERT JUMPDEST POP PUSH2 0x20E PUSH2 0x3C5 JUMP JUMPDEST STOP JUMPDEST CALLVALUE DUP1 ISZERO PUSH2 0x21C JUMPI PUSH1 0x0 DUP1 REVERT JUMPDEST POP PUSH1 0x5 SLOAD PUSH1 0x40 MLOAD PUSH1 0x1 PUSH1 0x1 PUSH1 0xA0 SHL SUB SWAP1 SWAP2 AND DUP2 MSTORE PUSH1 0x20 ADD PUSH2 0x10F JUMP JUMPDEST CALLVALUE DUP1 ISZERO PUSH2 0x244 JUMPI PUSH1 0x0 DUP1 REVERT JUMPDEST POP PUSH2 0x102 PUSH2 0x3D9 JUMP JUMPDEST CALLVALUE DUP1 ISZERO PUSH2 0x259 JUMPI PUSH1 0x0 DUP1 REVERT JUMPDEST POP PUSH2 0x138 PUSH2 0x268 CALLDATASIZE PUSH1 0x4 PUSH2 0xA47 JUMP JUMPDEST PUSH2 0x3E8 JUMP JUMPDEST PUSH2 0x138 PUSH2 0x468 JUMP JUMPDEST CALLVALUE DUP1 ISZERO PUSH2 0x281 JUMPI PUSH1 0x0 DUP1 REVERT JUMPDEST POP PUSH2 0x138 PUSH2 0x290 CALLDATASIZE PUSH1 0x4 PUSH2 0xA47 JUMP JUMPDEST PUSH2 0x4FA JUMP JUMPDEST CALLVALUE DUP1 ISZERO PUSH2 0x2A1 JUMPI PUSH1 0x0 DUP1 REVERT JUMPDEST POP PUSH2 0x159 PUSH2 0x2B0 CALLDATASIZE PUSH1 0x4 PUSH2 0x9D8 JUMP JUMPDEST PUSH2 0x508 JUMP JUMPDEST CALLVALUE DUP1 ISZERO PUSH2 0x2C1 JUMPI PUSH1 0x0 DUP1 REVERT JUMPDEST POP PUSH2 0x20E PUSH2 0x2D0 CALLDATASIZE PUSH1 0x4 PUSH2 0x9B6 JUMP JUMPDEST PUSH2 0x533 JUMP JUMPDEST PUSH1 0x60 PUSH1 0x3 DUP1 SLOAD PUSH2 0x2E4 SWAP1 PUSH2 0xAFD JUMP JUMPDEST DUP1 PUSH1 0x1F ADD PUSH1 0x20 DUP1 SWAP2 DIV MUL PUSH1 0x20 ADD PUSH1 0x40 MLOAD SWAP1 DUP2 ADD PUSH1 0x40 MSTORE DUP1 SWAP3 SWAP2 SWAP1 DUP2 DUP2 MSTORE PUSH1 0x20 ADD DUP3 DUP1 SLOAD PUSH2 0x310 SWAP1 PUSH2 0xAFD JUMP JUMPDEST DUP1 ISZERO PUSH2 0x35D JUMPI DUP1 PUSH1 0x1F LT PUSH2 0x332 JUMPI PUSH2 0x100 DUP1 DUP4 SLOAD DIV MUL DUP4 MSTORE SWAP2 PUSH1 0x20 ADD SWAP2 PUSH2 0x35D JUMP JUMPDEST DUP3 ADD SWAP2 SWAP1 PUSH1 0x0 MSTORE PUSH1 0x20 PUSH1 0x0 KECCAK256 SWAP1 JUMPDEST DUP2 SLOAD DUP2 MSTORE SWAP1 PUSH1 0x1 ADD SWAP1 PUSH1 0x20 ADD DUP1 DUP4 GT PUSH2 0x340 JUMPI DUP3 SWAP1 SUB PUSH1 0x1F AND DUP3 ADD SWAP2 JUMPDEST POP POP POP POP POP SWAP1 POP SWAP1 JUMP JUMPDEST PUSH1 0x0 CALLER PUSH2 0x375 DUP2 DUP6 DUP6 PUSH2 0x5AC JUMP JUMPDEST POP PUSH1 0x1 SWAP4 SWAP3 POP POP POP JUMP JUMPDEST PUSH1 0x0 CALLER PUSH2 0x38D DUP6 DUP3 DUP6 PUSH2 0x6D0 JUMP JUMPDEST PUSH2 0x398 DUP6 DUP6 DUP6 PUSH2 0x74A JUMP JUMPDEST POP PUSH1 0x1 SWAP5 SWAP4 POP POP POP POP JUMP JUMPDEST PUSH1 0x0 CALLER PUSH2 0x375 DUP2 DUP6 DUP6 PUSH2 0x3B6 DUP4 DUP4 PUSH2 0x508 JUMP JUMPDEST PUSH2 0x3C0 SWAP2 SWAP1 PUSH2 0xAC6 JUMP JUMPDEST PUSH2 0x5AC JUMP JUMPDEST PUSH2 0x3CD PUSH2 0x8EE JUMP JUMPDEST PUSH2 0x3D7 PUSH1 0x0 PUSH2 0x948 JUMP JUMPDEST JUMP JUMPDEST PUSH1 0x60 PUSH1 0x4 DUP1 SLOAD PUSH2 0x2E4 SWAP1 PUSH2 0xAFD JUMP JUMPDEST PUSH1 0x0 CALLER DUP2 PUSH2 0x3F6 DUP3 DUP7 PUSH2 0x508 JUMP JUMPDEST SWAP1 POP DUP4 DUP2 LT ISZERO PUSH2 0x45B JUMPI PUSH1 0x40 MLOAD PUSH3 0x461BCD PUSH1 0xE5 SHL DUP2 MSTORE PUSH1 0x20 PUSH1 0x4 DUP3 ADD MSTORE PUSH1 0x25 PUSH1 0x24 DUP3 ADD MSTORE PUSH32 0x45524332303A2064656372656173656420616C6C6F77616E63652062656C6F77 PUSH1 0x44 DUP3 ADD MSTORE PUSH5 0x207A65726F PUSH1 0xD8 SHL PUSH1 0x64 DUP3 ADD MSTORE PUSH1 0x84 ADD JUMPDEST PUSH1 0x40 MLOAD DUP1 SWAP2 SUB SWAP1 REVERT JUMPDEST PUSH2 0x398 DUP3 DUP7 DUP7 DUP5 SUB PUSH2 0x5AC JUMP JUMPDEST PUSH1 0x0 CALLVALUE CALLER BALANCE LT DUP1 ISZERO SWAP1 PUSH2 0x47A JUMPI POP CALLVALUE ISZERO ISZERO JUMPDEST PUSH2 0x4C6 JUMPI PUSH1 0x40 MLOAD PUSH3 0x461BCD PUSH1 0xE5 SHL DUP2 MSTORE PUSH1 0x20 PUSH1 0x4 DUP3 ADD MSTORE PUSH1 0x1F PUSH1 0x24 DUP3 ADD MSTORE PUSH32 0x49434F3A2066756E6374696F6E2062757920696E76616C696420696E70757400 PUSH1 0x44 DUP3 ADD MSTORE PUSH1 0x64 ADD PUSH2 0x452 JUMP JUMPDEST PUSH1 0x0 PUSH2 0x4D4 CALLVALUE PUSH2 0x3E8 PUSH2 0xADE JUMP JUMPDEST SWAP1 POP PUSH2 0x4F2 PUSH2 0x4EB PUSH1 0x5 SLOAD PUSH1 0x1 PUSH1 0x1 PUSH1 0xA0 SHL SUB AND SWAP1 JUMP JUMPDEST CALLER DUP4 PUSH2 0x74A JUMP JUMPDEST PUSH1 0x1 SWAP2 POP POP SWAP1 JUMP JUMPDEST PUSH1 0x0 CALLER PUSH2 0x375 DUP2 DUP6 DUP6 PUSH2 0x74A JUMP JUMPDEST PUSH1 0x1 PUSH1 0x1 PUSH1 0xA0 SHL SUB SWAP2 DUP3 AND PUSH1 0x0 SWAP1 DUP2 MSTORE PUSH1 0x1 PUSH1 0x20 SWAP1 DUP2 MSTORE PUSH1 0x40 DUP1 DUP4 KECCAK256 SWAP4 SWAP1 SWAP5 AND DUP3 MSTORE SWAP2 SWAP1 SWAP2 MSTORE KECCAK256 SLOAD SWAP1 JUMP JUMPDEST PUSH2 0x53B PUSH2 0x8EE JUMP JUMPDEST PUSH1 0x1 PUSH1 0x1 PUSH1 0xA0 SHL SUB DUP2 AND PUSH2 0x5A0 JUMPI PUSH1 0x40 MLOAD PUSH3 0x461BCD PUSH1 0xE5 SHL DUP2 MSTORE PUSH1 0x20 PUSH1 0x4 DUP3 ADD MSTORE PUSH1 0x26 PUSH1 0x24 DUP3 ADD MSTORE PUSH32 0x4F776E61626C653A206E6577206F776E657220697320746865207A65726F2061 PUSH1 0x44 DUP3 ADD MSTORE PUSH6 0x646472657373 PUSH1 0xD0 SHL PUSH1 0x64 DUP3 ADD MSTORE PUSH1 0x84 ADD PUSH2 0x452 JUMP JUMPDEST PUSH2 0x5A9 DUP2 PUSH2 0x948 JUMP JUMPDEST POP JUMP JUMPDEST PUSH1 0x1 PUSH1 0x1 PUSH1 0xA0 SHL SUB DUP4 AND PUSH2 0x60E JUMPI PUSH1 0x40 MLOAD PUSH3 0x461BCD PUSH1 0xE5 SHL DUP2 MSTORE PUSH1 0x20 PUSH1 0x4 DUP3 ADD MSTORE PUSH1 0x24 DUP1 DUP3 ADD MSTORE PUSH32 0x45524332303A20617070726F76652066726F6D20746865207A65726F20616464 PUSH1 0x44 DUP3 ADD MSTORE PUSH4 0x72657373 PUSH1 0xE0 SHL PUSH1 0x64 DUP3 ADD MSTORE PUSH1 0x84 ADD PUSH2 0x452 JUMP JUMPDEST PUSH1 0x1 PUSH1 0x1 PUSH1 0xA0 SHL SUB DUP3 AND PUSH2 0x66F JUMPI PUSH1 0x40 MLOAD PUSH3 0x461BCD PUSH1 0xE5 SHL DUP2 MSTORE PUSH1 0x20 PUSH1 0x4 DUP3 ADD MSTORE PUSH1 0x22 PUSH1 0x24 DUP3 ADD MSTORE PUSH32 0x45524332303A20617070726F766520746F20746865207A65726F206164647265 PUSH1 0x44 DUP3 ADD MSTORE PUSH2 0x7373 PUSH1 0xF0 SHL PUSH1 0x64 DUP3 ADD MSTORE PUSH1 0x84 ADD PUSH2 0x452 JUMP JUMPDEST PUSH1 0x1 PUSH1 0x1 PUSH1 0xA0 SHL SUB DUP4 DUP2 AND PUSH1 0x0 DUP2 DUP2 MSTORE PUSH1 0x1 PUSH1 0x20 SWAP1 DUP2 MSTORE PUSH1 0x40 DUP1 DUP4 KECCAK256 SWAP5 DUP8 AND DUP1 DUP5 MSTORE SWAP5 DUP3 MSTORE SWAP2 DUP3 SWAP1 KECCAK256 DUP6 SWAP1 SSTORE SWAP1 MLOAD DUP5 DUP2 MSTORE PUSH32 0x8C5BE1E5EBEC7D5BD14F71427D1E84F3DD0314C0F7B2291E5B200AC8C7C3B925 SWAP2 ADD PUSH1 0x40 MLOAD DUP1 SWAP2 SUB SWAP1 LOG3 POP POP POP JUMP JUMPDEST PUSH1 0x0 PUSH2 0x6DC DUP5 DUP5 PUSH2 0x508 JUMP JUMPDEST SWAP1 POP PUSH1 0x0 NOT DUP2 EQ PUSH2 0x744 JUMPI DUP2 DUP2 LT ISZERO PUSH2 0x737 JUMPI PUSH1 0x40 MLOAD PUSH3 0x461BCD PUSH1 0xE5 SHL DUP2 MSTORE PUSH1 0x20 PUSH1 0x4 DUP3 ADD MSTORE PUSH1 0x1D PUSH1 0x24 DUP3 ADD MSTORE PUSH32 0x45524332303A20696E73756666696369656E7420616C6C6F77616E6365000000 PUSH1 0x44 DUP3 ADD MSTORE PUSH1 0x64 ADD PUSH2 0x452 JUMP JUMPDEST PUSH2 0x744 DUP5 DUP5 DUP5 DUP5 SUB PUSH2 0x5AC JUMP JUMPDEST POP POP POP POP JUMP JUMPDEST PUSH1 0x1 PUSH1 0x1 PUSH1 0xA0 SHL SUB DUP4 AND PUSH2 0x7AE JUMPI PUSH1 0x40 MLOAD PUSH3 0x461BCD PUSH1 0xE5 SHL DUP2 MSTORE PUSH1 0x20 PUSH1 0x4 DUP3 ADD MSTORE PUSH1 0x25 PUSH1 0x24 DUP3 ADD MSTORE PUSH32 0x45524332303A207472616E736665722066726F6D20746865207A65726F206164 PUSH1 0x44 DUP3 ADD MSTORE PUSH5 0x6472657373 PUSH1 0xD8 SHL PUSH1 0x64 DUP3 ADD MSTORE PUSH1 0x84 ADD PUSH2 0x452 JUMP JUMPDEST PUSH1 0x1 PUSH1 0x1 PUSH1 0xA0 SHL SUB DUP3 AND PUSH2 0x810 JUMPI PUSH1 0x40 MLOAD PUSH3 0x461BCD PUSH1 0xE5 SHL DUP2 MSTORE PUSH1 0x20 PUSH1 0x4 DUP3 ADD MSTORE PUSH1 0x23 PUSH1 0x24 DUP3 ADD MSTORE PUSH32 0x45524332303A207472616E7366657220746F20746865207A65726F2061646472 PUSH1 0x44 DUP3 ADD MSTORE PUSH3 0x657373 PUSH1 0xE8 SHL PUSH1 0x64 DUP3 ADD MSTORE PUSH1 0x84 ADD PUSH2 0x452 JUMP JUMPDEST PUSH1 0x1 PUSH1 0x1 PUSH1 0xA0 SHL SUB DUP4 AND PUSH1 0x0 SWAP1 DUP2 MSTORE PUSH1 0x20 DUP2 SWAP1 MSTORE PUSH1 0x40 SWAP1 KECCAK256 SLOAD DUP2 DUP2 LT ISZERO PUSH2 0x888 JUMPI PUSH1 0x40 MLOAD PUSH3 0x461BCD PUSH1 0xE5 SHL DUP2 MSTORE PUSH1 0x20 PUSH1 0x4 DUP3 ADD MSTORE PUSH1 0x26 PUSH1 0x24 DUP3 ADD MSTORE PUSH32 0x45524332303A207472616E7366657220616D6F756E7420657863656564732062 PUSH1 0x44 DUP3 ADD MSTORE PUSH6 0x616C616E6365 PUSH1 0xD0 SHL PUSH1 0x64 DUP3 ADD MSTORE PUSH1 0x84 ADD PUSH2 0x452 JUMP JUMPDEST PUSH1 0x1 PUSH1 0x1 PUSH1 0xA0 SHL SUB DUP5 DUP2 AND PUSH1 0x0 DUP2 DUP2 MSTORE PUSH1 0x20 DUP2 DUP2 MSTORE PUSH1 0x40 DUP1 DUP4 KECCAK256 DUP8 DUP8 SUB SWAP1 SSTORE SWAP4 DUP8 AND DUP1 DUP4 MSTORE SWAP2 DUP5 SWAP1 KECCAK256 DUP1 SLOAD DUP8 ADD SWAP1 SSTORE SWAP3 MLOAD DUP6 DUP2 MSTORE SWAP1 SWAP3 PUSH32 0xDDF252AD1BE2C89B69C2B068FC378DAA952BA7F163C4A11628F55A4DF523B3EF SWAP2 ADD PUSH1 0x40 MLOAD DUP1 SWAP2 SUB SWAP1 LOG3 PUSH2 0x744 JUMP JUMPDEST PUSH1 0x5 SLOAD PUSH1 0x1 PUSH1 0x1 PUSH1 0xA0 SHL SUB AND CALLER EQ PUSH2 0x3D7 JUMPI PUSH1 0x40 MLOAD PUSH3 0x461BCD PUSH1 0xE5 SHL DUP2 MSTORE PUSH1 0x20 PUSH1 0x4 DUP3 ADD DUP2 SWAP1 MSTORE PUSH1 0x24 DUP3 ADD MSTORE PUSH32 0x4F776E61626C653A2063616C6C6572206973206E6F7420746865206F776E6572 PUSH1 0x44 DUP3 ADD MSTORE PUSH1 0x64 ADD PUSH2 0x452 JUMP JUMPDEST PUSH1 0x5 DUP1 SLOAD PUSH1 0x1 PUSH1 0x1 PUSH1 0xA0 SHL SUB DUP4 DUP2 AND PUSH1 0x1 PUSH1 0x1 PUSH1 0xA0 SHL SUB NOT DUP4 AND DUP2 OR SWAP1 SWAP4 SSTORE PUSH1 0x40 MLOAD SWAP2 AND SWAP2 SWAP1 DUP3 SWAP1 PUSH32 0x8BE0079C531659141344CD1FD0A4F28419497F9722A3DAAFE3B4186F6B6457E0 SWAP1 PUSH1 0x0 SWAP1 LOG3 POP POP JUMP JUMPDEST DUP1 CALLDATALOAD PUSH1 0x1 PUSH1 0x1 PUSH1 0xA0 SHL SUB DUP2 AND DUP2 EQ PUSH2 0x9B1 JUMPI PUSH1 0x0 DUP1 REVERT JUMPDEST SWAP2 SWAP1 POP JUMP JUMPDEST PUSH1 0x0 PUSH1 0x20 DUP3 DUP5 SUB SLT ISZERO PUSH2 0x9C8 JUMPI PUSH1 0x0 DUP1 REVERT JUMPDEST PUSH2 0x9D1 DUP3 PUSH2 0x99A JUMP JUMPDEST SWAP4 SWAP3 POP POP POP JUMP JUMPDEST PUSH1 0x0 DUP1 PUSH1 0x40 DUP4 DUP6 SUB SLT ISZERO PUSH2 0x9EB JUMPI PUSH1 0x0 DUP1 REVERT JUMPDEST PUSH2 0x9F4 DUP4 PUSH2 0x99A JUMP JUMPDEST SWAP2 POP PUSH2 0xA02 PUSH1 0x20 DUP5 ADD PUSH2 0x99A JUMP JUMPDEST SWAP1 POP SWAP3 POP SWAP3 SWAP1 POP JUMP JUMPDEST PUSH1 0x0 DUP1 PUSH1 0x0 PUSH1 0x60 DUP5 DUP7 SUB SLT ISZERO PUSH2 0xA20 JUMPI PUSH1 0x0 DUP1 REVERT JUMPDEST PUSH2 0xA29 DUP5 PUSH2 0x99A JUMP JUMPDEST SWAP3 POP PUSH2 0xA37 PUSH1 0x20 DUP6 ADD PUSH2 0x99A JUMP JUMPDEST SWAP2 POP PUSH1 0x40 DUP5 ADD CALLDATALOAD SWAP1 POP SWAP3 POP SWAP3 POP SWAP3 JUMP JUMPDEST PUSH1 0x0 DUP1 PUSH1 0x40 DUP4 DUP6 SUB SLT ISZERO PUSH2 0xA5A JUMPI PUSH1 0x0 DUP1 REVERT JUMPDEST PUSH2 0xA63 DUP4 PUSH2 0x99A JUMP JUMPDEST SWAP5 PUSH1 0x20 SWAP4 SWAP1 SWAP4 ADD CALLDATALOAD SWAP4 POP POP POP JUMP JUMPDEST PUSH1 0x0 PUSH1 0x20 DUP1 DUP4 MSTORE DUP4 MLOAD DUP1 DUP3 DUP6 ADD MSTORE PUSH1 0x0 JUMPDEST DUP2 DUP2 LT ISZERO PUSH2 0xA9E JUMPI DUP6 DUP2 ADD DUP4 ADD MLOAD DUP6 DUP3 ADD PUSH1 0x40 ADD MSTORE DUP3 ADD PUSH2 0xA82 JUMP JUMPDEST DUP2 DUP2 GT ISZERO PUSH2 0xAB0 JUMPI PUSH1 0x0 PUSH1 0x40 DUP4 DUP8 ADD ADD MSTORE JUMPDEST POP PUSH1 0x1F ADD PUSH1 0x1F NOT AND SWAP3 SWAP1 SWAP3 ADD PUSH1 0x40 ADD SWAP4 SWAP3 POP POP POP JUMP JUMPDEST PUSH1 0x0 DUP3 NOT DUP3 GT ISZERO PUSH2 0xAD9 JUMPI PUSH2 0xAD9 PUSH2 0xB38 JUMP JUMPDEST POP ADD SWAP1 JUMP JUMPDEST PUSH1 0x0 DUP2 PUSH1 0x0 NOT DIV DUP4 GT DUP3 ISZERO ISZERO AND ISZERO PUSH2 0xAF8 JUMPI PUSH2 0xAF8 PUSH2 0xB38 JUMP JUMPDEST POP MUL SWAP1 JUMP JUMPDEST PUSH1 0x1 DUP2 DUP2 SHR SWAP1 DUP3 AND DUP1 PUSH2 0xB11 JUMPI PUSH1 0x7F DUP3 AND SWAP2 POP JUMPDEST PUSH1 0x20 DUP3 LT DUP2 EQ ISZERO PUSH2 0xB32 JUMPI PUSH4 0x4E487B71 PUSH1 0xE0 SHL PUSH1 0x0 MSTORE PUSH1 0x22 PUSH1 0x4 MSTORE PUSH1 0x24 PUSH1 0x0 REVERT JUMPDEST POP SWAP2 SWAP1 POP JUMP JUMPDEST PUSH4 0x4E487B71 PUSH1 0xE0 SHL PUSH1 0x0 MSTORE PUSH1 0x11 PUSH1 0x4 MSTORE PUSH1 0x24 PUSH1 0x0 REVERT INVALID LOG2 PUSH5 0x6970667358 0x22 SLT KECCAK256 0xC4 OR 0xE4 0xBA 0x25 0xE5 0xAC DUP3 MSIZE 0x4B 0xDA 0xDC LOG0 0xE7 0xEB SLT MOD PUSH23 0x2D05DAAD983EED0E1EB7EF8A4D8C64736F6C6343000807 STOP CALLER "
				},
				"gasEstimates": {
					"creation": {
						"codeDepositCost": "589600",
						"executionCost": "infinite",
						"totalCost": "infinite"
					},
					"external": {
						"allowance(address,address)": "infinite",
						"approve(address,uint256)": "24647",
						"balanceOf(address)": "2629",
						"buy()": "55744",
						"decimals()": "222",
						"decreaseAllowance(address,uint256)": "27039",
						"increaseAllowance(address,uint256)": "27045",
						"name()": "infinite",
						"owner()": "2346",
						"renounceOwnership()": "infinite",
						"symbol()": "infinite",
						"totalSupply()": "2349",
						"transfer(address,uint256)": "51090",
						"transferFrom(address,address,uint256)": "infinite",
						"transferOwnership(address)": "28424"
					}
				},
				"methodIdentifiers": {
					"allowance(address,address)": "dd62ed3e",
					"approve(address,uint256)": "095ea7b3",
					"balanceOf(address)": "70a08231",
					"buy()": "a6f2ae3a",
					"decimals()": "313ce567",
					"decreaseAllowance(address,uint256)": "a457c2d7",
					"increaseAllowance(address,uint256)": "39509351",
					"name()": "06fdde03",
					"owner()": "8da5cb5b",
					"renounceOwnership()": "715018a6",
					"symbol()": "95d89b41",
					"totalSupply()": "18160ddd",
					"transfer(address,uint256)": "a9059cbb",
					"transferFrom(address,address,uint256)": "23b872dd",
					"transferOwnership(address)": "f2fde38b"
				}
			},
			"storageLayout": {
				"storage": [
					{
						"astId": 128,
						"contract": "contracts/BuyWithdrawal.sol:BuyWithdraw",
						"label": "_balances",
						"offset": 0,
						"slot": "0",
						"type": "t_mapping(t_address,t_uint256)"
					},
					{
						"astId": 134,
						"contract": "contracts/BuyWithdrawal.sol:BuyWithdraw",
						"label": "_allowances",
						"offset": 0,
						"slot": "1",
						"type": "t_mapping(t_address,t_mapping(t_address,t_uint256))"
					},
					{
						"astId": 136,
						"contract": "contracts/BuyWithdrawal.sol:BuyWithdraw",
						"label": "_totalSupply",
						"offset": 0,
						"slot": "2",
						"type": "t_uint256"
					},
					{
						"astId": 138,
						"contract": "contracts/BuyWithdrawal.sol:BuyWithdraw",
						"label": "_name",
						"offset": 0,
						"slot": "3",
						"type": "t_string_storage"
					},
					{
						"astId": 140,
						"contract": "contracts/BuyWithdrawal.sol:BuyWithdraw",
						"label": "_symbol",
						"offset": 0,
						"slot": "4",
						"type": "t_string_storage"
					},
					{
						"astId": 7,
						"contract": "contracts/BuyWithdrawal.sol:BuyWithdraw",
						"label": "_owner",
						"offset": 0,
						"slot": "5",
						"type": "t_address"
					}
				],
				"types": {
					"t_address": {
						"encoding": "inplace",
						"label": "address",
						"numberOfBytes": "20"
					},
					"t_mapping(t_address,t_mapping(t_address,t_uint256))": {
						"encoding": "mapping",
						"key": "t_address",
						"label": "mapping(address => mapping(address => uint256))",
						"numberOfBytes": "32",
						"value": "t_mapping(t_address,t_uint256)"
					},
					"t_mapping(t_address,t_uint256)": {
						"encoding": "mapping",
						"key": "t_address",
						"label": "mapping(address => uint256)",
						"numberOfBytes": "32",
						"value": "t_uint256"
					},
					"t_string_storage": {
						"encoding": "bytes",
						"label": "string",
						"numberOfBytes": "32"
					},
					"t_uint256": {
						"encoding": "inplace",
						"label": "uint256",
						"numberOfBytes": "32"
					}
				}
			},
			"userdoc": {
				"kind": "user",
				"methods": {},
				"version": 1
			}
		}
	}
}