{
	"contracts/MutliSigWalletClassExample.sol": {
		"MultiSigWallet": {
			"abi": [
				{
					"inputs": [
						{
							"internalType": "address[]",
							"name": "_owners",
							"type": "address[]"
						},
						{
							"internalType": "uint256",
							"name": "_numConfirmationsRequired",
							"type": "uint256"
						}
					],
					"stateMutability": "nonpayable",
					"type": "constructor"
				},
				{
					"anonymous": false,
					"inputs": [
						{
							"indexed": true,
							"internalType": "address",
							"name": "owner",
							"type": "address"
						},
						{
							"indexed": true,
							"internalType": "uint256",
							"name": "txIndex",
							"type": "uint256"
						}
					],
					"name": "ConfirmTransaction",
					"type": "event"
				},
				{
					"anonymous": false,
					"inputs": [
						{
							"indexed": true,
							"internalType": "address",
							"name": "sender",
							"type": "address"
						},
						{
							"indexed": false,
							"internalType": "uint256",
							"name": "amount",
							"type": "uint256"
						},
						{
							"indexed": false,
							"internalType": "uint256",
							"name": "balance",
							"type": "uint256"
						}
					],
					"name": "Deposit",
					"type": "event"
				},
				{
					"anonymous": false,
					"inputs": [
						{
							"indexed": true,
							"internalType": "address",
							"name": "owner",
							"type": "address"
						},
						{
							"indexed": true,
							"internalType": "uint256",
							"name": "txIndex",
							"type": "uint256"
						}
					],
					"name": "ExecuteTransaction",
					"type": "event"
				},
				{
					"anonymous": false,
					"inputs": [
						{
							"indexed": true,
							"internalType": "address",
							"name": "owner",
							"type": "address"
						},
						{
							"indexed": true,
							"internalType": "uint256",
							"name": "txIndex",
							"type": "uint256"
						}
					],
					"name": "RevokeTransaction",
					"type": "event"
				},
				{
					"anonymous": false,
					"inputs": [
						{
							"indexed": true,
							"internalType": "address",
							"name": "owner",
							"type": "address"
						},
						{
							"indexed": true,
							"internalType": "uint256",
							"name": "txIndex",
							"type": "uint256"
						},
						{
							"indexed": true,
							"internalType": "address",
							"name": "to",
							"type": "address"
						},
						{
							"indexed": false,
							"internalType": "uint256",
							"name": "value",
							"type": "uint256"
						},
						{
							"indexed": false,
							"internalType": "bytes",
							"name": "data",
							"type": "bytes"
						}
					],
					"name": "SubmitTransaction",
					"type": "event"
				},
				{
					"inputs": [],
					"name": "DepositETH",
					"outputs": [],
					"stateMutability": "payable",
					"type": "function"
				},
				{
					"inputs": [
						{
							"internalType": "uint256",
							"name": "_txIndex",
							"type": "uint256"
						}
					],
					"name": "confirmTransaction",
					"outputs": [],
					"stateMutability": "nonpayable",
					"type": "function"
				},
				{
					"inputs": [
						{
							"internalType": "uint256",
							"name": "_txIndex",
							"type": "uint256"
						}
					],
					"name": "executeTransaction",
					"outputs": [],
					"stateMutability": "nonpayable",
					"type": "function"
				},
				{
					"inputs": [],
					"name": "getOwners",
					"outputs": [
						{
							"internalType": "address[]",
							"name": "",
							"type": "address[]"
						}
					],
					"stateMutability": "view",
					"type": "function"
				},
				{
					"inputs": [
						{
							"internalType": "uint256",
							"name": "_txIndex",
							"type": "uint256"
						}
					],
					"name": "getTransaction",
					"outputs": [
						{
							"internalType": "address",
							"name": "to",
							"type": "address"
						},
						{
							"internalType": "uint256",
							"name": "value",
							"type": "uint256"
						},
						{
							"internalType": "bytes",
							"name": "data",
							"type": "bytes"
						},
						{
							"internalType": "bool",
							"name": "executed",
							"type": "bool"
						},
						{
							"internalType": "uint256",
							"name": "numConfirmations",
							"type": "uint256"
						}
					],
					"stateMutability": "view",
					"type": "function"
				},
				{
					"inputs": [],
					"name": "getTransactionCount",
					"outputs": [
						{
							"internalType": "uint256",
							"name": "",
							"type": "uint256"
						}
					],
					"stateMutability": "view",
					"type": "function"
				},
				{
					"inputs": [
						{
							"internalType": "uint256",
							"name": "",
							"type": "uint256"
						},
						{
							"internalType": "address",
							"name": "",
							"type": "address"
						}
					],
					"name": "isConfirmed",
					"outputs": [
						{
							"internalType": "bool",
							"name": "",
							"type": "bool"
						}
					],
					"stateMutability": "view",
					"type": "function"
				},
				{
					"inputs": [
						{
							"internalType": "address",
							"name": "",
							"type": "address"
						}
					],
					"name": "isOwner",
					"outputs": [
						{
							"internalType": "bool",
							"name": "",
							"type": "bool"
						}
					],
					"stateMutability": "view",
					"type": "function"
				},
				{
					"inputs": [],
					"name": "numConfirmationsRequired",
					"outputs": [
						{
							"internalType": "uint256",
							"name": "",
							"type": "uint256"
						}
					],
					"stateMutability": "view",
					"type": "function"
				},
				{
					"inputs": [
						{
							"internalType": "uint256",
							"name": "",
							"type": "uint256"
						}
					],
					"name": "owners",
					"outputs": [
						{
							"internalType": "address",
							"name": "",
							"type": "address"
						}
					],
					"stateMutability": "view",
					"type": "function"
				},
				{
					"inputs": [
						{
							"internalType": "uint256",
							"name": "_txIndex",
							"type": "uint256"
						}
					],
					"name": "revokeConfirmation",
					"outputs": [],
					"stateMutability": "nonpayable",
					"type": "function"
				},
				{
					"inputs": [
						{
							"internalType": "address",
							"name": "_to",
							"type": "address"
						},
						{
							"internalType": "uint256",
							"name": "_value",
							"type": "uint256"
						},
						{
							"internalType": "bytes",
							"name": "_data",
							"type": "bytes"
						}
					],
					"name": "submitTransaction",
					"outputs": [],
					"stateMutability": "nonpayable",
					"type": "function"
				},
				{
					"inputs": [
						{
							"internalType": "uint256",
							"name": "",
							"type": "uint256"
						}
					],
					"name": "transactions",
					"outputs": [
						{
							"internalType": "address",
							"name": "to",
							"type": "address"
						},
						{
							"internalType": "uint256",
							"name": "value",
							"type": "uint256"
						},
						{
							"internalType": "bytes",
							"name": "data",
							"type": "bytes"
						},
						{
							"internalType": "bool",
							"name": "executed",
							"type": "bool"
						},
						{
							"internalType": "uint256",
							"name": "numConfirmations",
							"type": "uint256"
						}
					],
					"stateMutability": "view",
					"type": "function"
				},
				{
					"stateMutability": "payable",
					"type": "receive"
				}
			],
			"devdoc": {
				"kind": "dev",
				"methods": {},
				"version": 1
			},
			"evm": {
				"assembly": "    /* \"contracts/MutliSigWalletClassExample.sol\":59:5019  contract MultiSigWallet{\r... */\n  mstore(0x40, 0x80)\n    /* \"contracts/MutliSigWalletClassExample.sol\":1455:2095  constructor(address[] memory _owners,uint _numConfirmationsRequired){\r... */\n  callvalue\n  dup1\n  iszero\n  tag_1\n  jumpi\n  0x00\n  dup1\n  revert\ntag_1:\n  pop\n  mload(0x40)\n  sub(codesize, bytecodeSize)\n  dup1\n  bytecodeSize\n  dup4\n  codecopy\n  dup2\n  add\n  0x40\n  dup2\n  swap1\n  mstore\n  tag_2\n  swap2\n  tag_3\n  jump\t// in\ntag_2:\n    /* \"contracts/MutliSigWalletClassExample.sol\":1557:1558  0 */\n  0x00\n    /* \"contracts/MutliSigWalletClassExample.sol\":1542:1549  _owners */\n  dup3\n    /* \"contracts/MutliSigWalletClassExample.sol\":1542:1556  _owners.length */\n  mload\n    /* \"contracts/MutliSigWalletClassExample.sol\":1542:1558  _owners.length>0 */\n  gt\n    /* \"contracts/MutliSigWalletClassExample.sol\":1534:1589  require(_owners.length>0,\"at least one owner required\") */\n  tag_6\n  jumpi\n  mload(0x40)\n  shl(0xe5, 0x461bcd)\n  dup2\n  mstore\n    /* \"#utility.yul\":2293:2295   */\n  0x20\n    /* \"contracts/MutliSigWalletClassExample.sol\":1534:1589  require(_owners.length>0,\"at least one owner required\") */\n  0x04\n  dup3\n  add\n    /* \"#utility.yul\":2275:2296   */\n  mstore\n    /* \"#utility.yul\":2332:2334   */\n  0x1b\n    /* \"#utility.yul\":2312:2330   */\n  0x24\n  dup3\n  add\n    /* \"#utility.yul\":2305:2335   */\n  mstore\n    /* \"#utility.yul\":2371:2400   */\n  0x6174206c65617374206f6e65206f776e65722072657175697265640000000000\n    /* \"#utility.yul\":2351:2369   */\n  0x44\n  dup3\n  add\n    /* \"#utility.yul\":2344:2401   */\n  mstore\n    /* \"#utility.yul\":2418:2436   */\n  0x64\n  add\n    /* \"contracts/MutliSigWalletClassExample.sol\":1534:1589  require(_owners.length>0,\"at least one owner required\") */\ntag_7:\n  mload(0x40)\n  dup1\n  swap2\n  sub\n  swap1\n  revert\ntag_6:\n    /* \"contracts/MutliSigWalletClassExample.sol\":1634:1635  0 */\n  0x00\n    /* \"contracts/MutliSigWalletClassExample.sol\":1608:1633  _numConfirmationsRequired */\n  dup2\n    /* \"contracts/MutliSigWalletClassExample.sol\":1608:1635  _numConfirmationsRequired>0 */\n  gt\n    /* \"contracts/MutliSigWalletClassExample.sol\":1608:1680  _numConfirmationsRequired>0 && _numConfirmationsRequired<=_owners.length */\n  dup1\n  iszero\n  tag_9\n  jumpi\n  pop\n    /* \"contracts/MutliSigWalletClassExample.sol\":1666:1673  _owners */\n  dup2\n    /* \"contracts/MutliSigWalletClassExample.sol\":1666:1680  _owners.length */\n  mload\n    /* \"contracts/MutliSigWalletClassExample.sol\":1639:1664  _numConfirmationsRequired */\n  dup2\n    /* \"contracts/MutliSigWalletClassExample.sol\":1639:1680  _numConfirmationsRequired<=_owners.length */\n  gt\n  iszero\n    /* \"contracts/MutliSigWalletClassExample.sol\":1608:1680  _numConfirmationsRequired>0 && _numConfirmationsRequired<=_owners.length */\ntag_9:\n    /* \"contracts/MutliSigWalletClassExample.sol\":1600:1749  require(_numConfirmationsRequired>0 && _numConfirmationsRequired<=_owners.length,\r... */\n  tag_10\n  jumpi\n  mload(0x40)\n  shl(0xe5, 0x461bcd)\n  dup2\n  mstore\n    /* \"#utility.yul\":2649:2651   */\n  0x20\n    /* \"contracts/MutliSigWalletClassExample.sol\":1600:1749  require(_numConfirmationsRequired>0 && _numConfirmationsRequired<=_owners.length,\r... */\n  0x04\n  dup3\n  add\n    /* \"#utility.yul\":2631:2652   */\n  mstore\n    /* \"#utility.yul\":2688:2690   */\n  0x37\n    /* \"#utility.yul\":2668:2686   */\n  0x24\n  dup3\n  add\n    /* \"#utility.yul\":2661:2691   */\n  mstore\n    /* \"#utility.yul\":2727:2761   */\n  0x696e76616c6964206e756d626572206f6620726571756972656420636f6e6669\n    /* \"#utility.yul\":2707:2725   */\n  0x44\n  dup3\n  add\n    /* \"#utility.yul\":2700:2762   */\n  mstore\n    /* \"#utility.yul\":2798:2823   */\n  0x726d6174696f6e7320696e20636f6e7374727563746f72000000000000000000\n    /* \"#utility.yul\":2778:2796   */\n  0x64\n  dup3\n  add\n    /* \"#utility.yul\":2771:2824   */\n  mstore\n    /* \"#utility.yul\":2841:2860   */\n  0x84\n  add\n    /* \"contracts/MutliSigWalletClassExample.sol\":1600:1749  require(_numConfirmationsRequired>0 && _numConfirmationsRequired<=_owners.length,\r... */\n  tag_7\n    /* \"#utility.yul\":2447:2866   */\n  jump\n    /* \"contracts/MutliSigWalletClassExample.sol\":1600:1749  require(_numConfirmationsRequired>0 && _numConfirmationsRequired<=_owners.length,\r... */\ntag_10:\n    /* \"contracts/MutliSigWalletClassExample.sol\":1764:1770  uint i */\n  0x00\n    /* \"contracts/MutliSigWalletClassExample.sol\":1760:2027  for(uint i=0;i<_owners.length;i++){\r... */\ntag_13:\n    /* \"contracts/MutliSigWalletClassExample.sol\":1775:1782  _owners */\n  dup3\n    /* \"contracts/MutliSigWalletClassExample.sol\":1775:1789  _owners.length */\n  mload\n    /* \"contracts/MutliSigWalletClassExample.sol\":1773:1774  i */\n  dup2\n    /* \"contracts/MutliSigWalletClassExample.sol\":1773:1789  i<_owners.length */\n  lt\n    /* \"contracts/MutliSigWalletClassExample.sol\":1760:2027  for(uint i=0;i<_owners.length;i++){\r... */\n  iszero\n  tag_14\n  jumpi\n    /* \"contracts/MutliSigWalletClassExample.sol\":1809:1822  address owner */\n  0x00\n    /* \"contracts/MutliSigWalletClassExample.sol\":1823:1830  _owners */\n  dup4\n    /* \"contracts/MutliSigWalletClassExample.sol\":1831:1832  i */\n  dup3\n    /* \"contracts/MutliSigWalletClassExample.sol\":1823:1833  _owners[i] */\n  dup2\n  mload\n  dup2\n  lt\n  tag_17\n  jumpi\n  tag_17\n  tag_18\n  jump\t// in\ntag_17:\n  0x20\n  mul\n  0x20\n  add\n  add\n  mload\n    /* \"contracts/MutliSigWalletClassExample.sol\":1809:1833  address owner=_owners[i] */\n  swap1\n  pop\n    /* \"contracts/MutliSigWalletClassExample.sol\":1871:1872  0 */\n  0x00\n  sub(shl(0xa0, 0x01), 0x01)\n    /* \"contracts/MutliSigWalletClassExample.sol\":1856:1873  owner!=address(0) */\n  and\n    /* \"contracts/MutliSigWalletClassExample.sol\":1856:1861  owner */\n  dup2\n  sub(shl(0xa0, 0x01), 0x01)\n    /* \"contracts/MutliSigWalletClassExample.sol\":1856:1873  owner!=address(0) */\n  and\n  eq\n  iszero\n    /* \"contracts/MutliSigWalletClassExample.sol\":1848:1890  require(owner!=address(0),\"Invalid owner\") */\n  tag_19\n  jumpi\n  mload(0x40)\n  shl(0xe5, 0x461bcd)\n  dup2\n  mstore\n    /* \"#utility.yul\":1606:1608   */\n  0x20\n    /* \"contracts/MutliSigWalletClassExample.sol\":1848:1890  require(owner!=address(0),\"Invalid owner\") */\n  0x04\n  dup3\n  add\n    /* \"#utility.yul\":1588:1609   */\n  mstore\n    /* \"#utility.yul\":1645:1647   */\n  0x0d\n    /* \"#utility.yul\":1625:1643   */\n  0x24\n  dup3\n  add\n    /* \"#utility.yul\":1618:1648   */\n  mstore\n  shl(0x99, 0x24b73b30b634b21037bbb732b9)\n    /* \"#utility.yul\":1664:1682   */\n  0x44\n  dup3\n  add\n    /* \"#utility.yul\":1657:1700   */\n  mstore\n    /* \"#utility.yul\":1717:1735   */\n  0x64\n  add\n    /* \"contracts/MutliSigWalletClassExample.sol\":1848:1890  require(owner!=address(0),\"Invalid owner\") */\n  tag_7\n    /* \"#utility.yul\":1404:1741   */\n  jump\n    /* \"contracts/MutliSigWalletClassExample.sol\":1848:1890  require(owner!=address(0),\"Invalid owner\") */\ntag_19:\n  sub(shl(0xa0, 0x01), 0x01)\n    /* \"contracts/MutliSigWalletClassExample.sol\":1914:1928  isOwner[owner] */\n  dup2\n  and\n  0x00\n  swap1\n  dup2\n  mstore\n    /* \"contracts/MutliSigWalletClassExample.sol\":1914:1921  isOwner */\n  0x01\n    /* \"contracts/MutliSigWalletClassExample.sol\":1914:1928  isOwner[owner] */\n  0x20\n  mstore\n  0x40\n  swap1\n  keccak256\n  sload\n  0xff\n  and\n    /* \"contracts/MutliSigWalletClassExample.sol\":1913:1928  !isOwner[owner] */\n  iszero\n    /* \"contracts/MutliSigWalletClassExample.sol\":1905:1948  require(!isOwner[owner],\"owner not unique\") */\n  tag_22\n  jumpi\n  mload(0x40)\n  shl(0xe5, 0x461bcd)\n  dup2\n  mstore\n    /* \"#utility.yul\":1948:1950   */\n  0x20\n    /* \"contracts/MutliSigWalletClassExample.sol\":1905:1948  require(!isOwner[owner],\"owner not unique\") */\n  0x04\n  dup3\n  add\n    /* \"#utility.yul\":1930:1951   */\n  mstore\n    /* \"#utility.yul\":1987:1989   */\n  0x10\n    /* \"#utility.yul\":1967:1985   */\n  0x24\n  dup3\n  add\n    /* \"#utility.yul\":1960:1990   */\n  mstore\n  shl(0x80, 0x6f776e6572206e6f7420756e69717565)\n    /* \"#utility.yul\":2006:2024   */\n  0x44\n  dup3\n  add\n    /* \"#utility.yul\":1999:2045   */\n  mstore\n    /* \"#utility.yul\":2062:2080   */\n  0x64\n  add\n    /* \"contracts/MutliSigWalletClassExample.sol\":1905:1948  require(!isOwner[owner],\"owner not unique\") */\n  tag_7\n    /* \"#utility.yul\":1746:2086   */\n  jump\n    /* \"contracts/MutliSigWalletClassExample.sol\":1905:1948  require(!isOwner[owner],\"owner not unique\") */\ntag_22:\n  sub(shl(0xa0, 0x01), 0x01)\n    /* \"contracts/MutliSigWalletClassExample.sol\":1963:1977  isOwner[owner] */\n  and\n  0x00\n  dup2\n  dup2\n  mstore\n    /* \"contracts/MutliSigWalletClassExample.sol\":1978:1982  true */\n  0x01\n    /* \"contracts/MutliSigWalletClassExample.sol\":1963:1977  isOwner[owner] */\n  0x20\n  dup2\n  swap1\n  mstore\n  0x40\n  dup3\n  keccak256\n    /* \"contracts/MutliSigWalletClassExample.sol\":1963:1982  isOwner[owner]=true */\n  dup1\n  sload\n  not(0xff)\n  and\n  dup3\n  or\n  swap1\n  sstore\n    /* \"contracts/MutliSigWalletClassExample.sol\":1997:2015  owners.push(owner) */\n  dup2\n  sload\n  swap1\n  dup2\n  add\n  dup3\n  sstore\n  swap1\n  dup1\n  mstore\n  0x290decd9548b62a8d60345a988386fc84ba6bc95484008f6362f93160ef3e563\n  add\n  dup1\n  sload\n  not(sub(shl(0xa0, 0x01), 0x01))\n  and\n  swap1\n  swap2\n  or\n  swap1\n  sstore\n    /* \"contracts/MutliSigWalletClassExample.sol\":1790:1793  i++ */\n  dup1\n  tag_26\n  dup2\n  tag_27\n  jump\t// in\ntag_26:\n  swap2\n  pop\n  pop\n    /* \"contracts/MutliSigWalletClassExample.sol\":1760:2027  for(uint i=0;i<_owners.length;i++){\r... */\n  jump(tag_13)\ntag_14:\n  pop\n    /* \"contracts/MutliSigWalletClassExample.sol\":2037:2061  numConfirmationsRequired */\n  0x02\n    /* \"contracts/MutliSigWalletClassExample.sol\":2037:2087  numConfirmationsRequired=_numConfirmationsRequired */\n  sstore\n  pop\n    /* \"contracts/MutliSigWalletClassExample.sol\":59:5019  contract MultiSigWallet{\r... */\n  jump(tag_29)\n    /* \"#utility.yul\":14:191   */\ntag_30:\n    /* \"#utility.yul\":93:106   */\n  dup1\n  mload\n  sub(shl(0xa0, 0x01), 0x01)\n    /* \"#utility.yul\":135:166   */\n  dup2\n  and\n    /* \"#utility.yul\":125:167   */\n  dup2\n  eq\n    /* \"#utility.yul\":115:185   */\n  tag_32\n  jumpi\n    /* \"#utility.yul\":181:182   */\n  0x00\n    /* \"#utility.yul\":178:179   */\n  dup1\n    /* \"#utility.yul\":171:183   */\n  revert\n    /* \"#utility.yul\":115:185   */\ntag_32:\n    /* \"#utility.yul\":14:191   */\n  swap2\n  swap1\n  pop\n  jump\t// out\n    /* \"#utility.yul\":196:1399   */\ntag_3:\n    /* \"#utility.yul\":300:306   */\n  0x00\n    /* \"#utility.yul\":308:314   */\n  dup1\n    /* \"#utility.yul\":361:363   */\n  0x40\n    /* \"#utility.yul\":349:358   */\n  dup4\n    /* \"#utility.yul\":340:347   */\n  dup6\n    /* \"#utility.yul\":336:359   */\n  sub\n    /* \"#utility.yul\":332:364   */\n  slt\n    /* \"#utility.yul\":329:381   */\n  iszero\n  tag_34\n  jumpi\n    /* \"#utility.yul\":377:378   */\n  0x00\n    /* \"#utility.yul\":374:375   */\n  dup1\n    /* \"#utility.yul\":367:379   */\n  revert\n    /* \"#utility.yul\":329:381   */\ntag_34:\n    /* \"#utility.yul\":404:420   */\n  dup3\n  mload\n  sub(shl(0x40, 0x01), 0x01)\n    /* \"#utility.yul\":469:483   */\n  dup1\n  dup3\n  gt\n    /* \"#utility.yul\":466:500   */\n  iszero\n  tag_35\n  jumpi\n    /* \"#utility.yul\":496:497   */\n  0x00\n    /* \"#utility.yul\":493:494   */\n  dup1\n    /* \"#utility.yul\":486:498   */\n  revert\n    /* \"#utility.yul\":466:500   */\ntag_35:\n    /* \"#utility.yul\":534:540   */\n  dup2\n    /* \"#utility.yul\":523:532   */\n  dup6\n    /* \"#utility.yul\":519:541   */\n  add\n    /* \"#utility.yul\":509:541   */\n  swap2\n  pop\n    /* \"#utility.yul\":579:586   */\n  dup6\n    /* \"#utility.yul\":572:576   */\n  0x1f\n    /* \"#utility.yul\":568:570   */\n  dup4\n    /* \"#utility.yul\":564:577   */\n  add\n    /* \"#utility.yul\":560:587   */\n  slt\n    /* \"#utility.yul\":550:605   */\n  tag_36\n  jumpi\n    /* \"#utility.yul\":601:602   */\n  0x00\n    /* \"#utility.yul\":598:599   */\n  dup1\n    /* \"#utility.yul\":591:603   */\n  revert\n    /* \"#utility.yul\":550:605   */\ntag_36:\n    /* \"#utility.yul\":630:632   */\n  dup2\n    /* \"#utility.yul\":624:633   */\n  mload\n    /* \"#utility.yul\":652:656   */\n  0x20\n    /* \"#utility.yul\":675:677   */\n  dup3\n    /* \"#utility.yul\":671:673   */\n  dup3\n    /* \"#utility.yul\":668:678   */\n  gt\n    /* \"#utility.yul\":665:701   */\n  iszero\n  tag_38\n  jumpi\n    /* \"#utility.yul\":681:699   */\n  tag_38\n  tag_39\n  jump\t// in\ntag_38:\n    /* \"#utility.yul\":727:729   */\n  dup2\n    /* \"#utility.yul\":724:725   */\n  0x05\n    /* \"#utility.yul\":720:730   */\n  shl\n    /* \"#utility.yul\":759:761   */\n  0x40\n    /* \"#utility.yul\":753:762   */\n  mload\n    /* \"#utility.yul\":822:824   */\n  0x1f\n    /* \"#utility.yul\":818:825   */\n  not\n    /* \"#utility.yul\":813:815   */\n  0x3f\n    /* \"#utility.yul\":809:811   */\n  dup4\n    /* \"#utility.yul\":805:816   */\n  add\n    /* \"#utility.yul\":801:826   */\n  and\n    /* \"#utility.yul\":793:799   */\n  dup2\n    /* \"#utility.yul\":789:827   */\n  add\n    /* \"#utility.yul\":877:883   */\n  dup2\n    /* \"#utility.yul\":865:875   */\n  dup2\n    /* \"#utility.yul\":862:884   */\n  lt\n    /* \"#utility.yul\":857:859   */\n  dup7\n    /* \"#utility.yul\":845:855   */\n  dup3\n    /* \"#utility.yul\":842:860   */\n  gt\n    /* \"#utility.yul\":839:885   */\n  or\n    /* \"#utility.yul\":836:908   */\n  iszero\n  tag_41\n  jumpi\n    /* \"#utility.yul\":888:906   */\n  tag_41\n  tag_39\n  jump\t// in\ntag_41:\n    /* \"#utility.yul\":924:926   */\n  0x40\n    /* \"#utility.yul\":917:939   */\n  mstore\n    /* \"#utility.yul\":974:992   */\n  dup4\n  dup2\n  mstore\n    /* \"#utility.yul\":1008:1023   */\n  dup3\n  dup2\n  add\n  swap5\n  pop\n    /* \"#utility.yul\":1043:1054   */\n  dup6\n  dup4\n  add\n    /* \"#utility.yul\":1073:1084   */\n  dup3\n  dup8\n  add\n    /* \"#utility.yul\":1069:1089   */\n  dup5\n  add\n    /* \"#utility.yul\":1066:1099   */\n  dup12\n  lt\n    /* \"#utility.yul\":1063:1116   */\n  iszero\n  tag_42\n  jumpi\n    /* \"#utility.yul\":1112:1113   */\n  0x00\n    /* \"#utility.yul\":1109:1110   */\n  dup1\n    /* \"#utility.yul\":1102:1114   */\n  revert\n    /* \"#utility.yul\":1063:1116   */\ntag_42:\n    /* \"#utility.yul\":1134:1135   */\n  0x00\n    /* \"#utility.yul\":1125:1135   */\n  swap7\n  pop\n    /* \"#utility.yul\":1144:1324   */\ntag_43:\n    /* \"#utility.yul\":1158:1160   */\n  dup5\n    /* \"#utility.yul\":1155:1156   */\n  dup8\n    /* \"#utility.yul\":1152:1161   */\n  lt\n    /* \"#utility.yul\":1144:1324   */\n  iszero\n  tag_45\n  jumpi\n    /* \"#utility.yul\":1215:1249   */\n  tag_46\n    /* \"#utility.yul\":1245:1248   */\n  dup2\n    /* \"#utility.yul\":1215:1249   */\n  tag_30\n  jump\t// in\ntag_46:\n    /* \"#utility.yul\":1203:1250   */\n  dup7\n  mstore\n    /* \"#utility.yul\":1176:1177   */\n  0x01\n    /* \"#utility.yul\":1169:1178   */\n  swap7\n  swap1\n  swap7\n  add\n  swap6\n    /* \"#utility.yul\":1270:1282   */\n  swap5\n  dup4\n  add\n  swap5\n    /* \"#utility.yul\":1302:1314   */\n  dup4\n  add\n    /* \"#utility.yul\":1144:1324   */\n  jump(tag_43)\ntag_45:\n  pop\n    /* \"#utility.yul\":1374:1392   */\n  swap8\n  swap1\n  swap2\n  add\n    /* \"#utility.yul\":1368:1393   */\n  mload\n    /* \"#utility.yul\":1343:1349   */\n  swap7\n  swap9\n    /* \"#utility.yul\":1368:1393   */\n  swap7\n  swap8\n  pop\n  pop\n  pop\n  pop\n  pop\n  pop\n  pop\n    /* \"#utility.yul\":196:1399   */\n  jump\t// out\n    /* \"#utility.yul\":2871:3103   */\ntag_27:\n    /* \"#utility.yul\":2910:2913   */\n  0x00\n  not(0x00)\n    /* \"#utility.yul\":2931:2948   */\n  dup3\n  eq\n    /* \"#utility.yul\":2928:3068   */\n  iszero\n  tag_52\n  jumpi\n    /* \"#utility.yul\":2990:3000   */\n  0x4e487b71\n    /* \"#utility.yul\":2985:2988   */\n  0xe0\n    /* \"#utility.yul\":2981:3001   */\n  shl\n    /* \"#utility.yul\":2978:2979   */\n  0x00\n    /* \"#utility.yul\":2971:3002   */\n  mstore\n    /* \"#utility.yul\":3025:3029   */\n  0x11\n    /* \"#utility.yul\":3022:3023   */\n  0x04\n    /* \"#utility.yul\":3015:3030   */\n  mstore\n    /* \"#utility.yul\":3053:3057   */\n  0x24\n    /* \"#utility.yul\":3050:3051   */\n  0x00\n    /* \"#utility.yul\":3043:3058   */\n  revert\n    /* \"#utility.yul\":2928:3068   */\ntag_52:\n  pop\n    /* \"#utility.yul\":3095:3096   */\n  0x01\n    /* \"#utility.yul\":3084:3097   */\n  add\n  swap1\n    /* \"#utility.yul\":2871:3103   */\n  jump\t// out\n    /* \"#utility.yul\":3108:3235   */\ntag_18:\n    /* \"#utility.yul\":3169:3179   */\n  0x4e487b71\n    /* \"#utility.yul\":3164:3167   */\n  0xe0\n    /* \"#utility.yul\":3160:3180   */\n  shl\n    /* \"#utility.yul\":3157:3158   */\n  0x00\n    /* \"#utility.yul\":3150:3181   */\n  mstore\n    /* \"#utility.yul\":3200:3204   */\n  0x32\n    /* \"#utility.yul\":3197:3198   */\n  0x04\n    /* \"#utility.yul\":3190:3205   */\n  mstore\n    /* \"#utility.yul\":3224:3228   */\n  0x24\n    /* \"#utility.yul\":3221:3222   */\n  0x00\n    /* \"#utility.yul\":3214:3229   */\n  revert\n    /* \"#utility.yul\":3240:3367   */\ntag_39:\n    /* \"#utility.yul\":3301:3311   */\n  0x4e487b71\n    /* \"#utility.yul\":3296:3299   */\n  0xe0\n    /* \"#utility.yul\":3292:3312   */\n  shl\n    /* \"#utility.yul\":3289:3290   */\n  0x00\n    /* \"#utility.yul\":3282:3313   */\n  mstore\n    /* \"#utility.yul\":3332:3336   */\n  0x41\n    /* \"#utility.yul\":3329:3330   */\n  0x04\n    /* \"#utility.yul\":3322:3337   */\n  mstore\n    /* \"#utility.yul\":3356:3360   */\n  0x24\n    /* \"#utility.yul\":3353:3354   */\n  0x00\n    /* \"#utility.yul\":3346:3361   */\n  revert\n    /* \"#utility.yul\":3240:3367   */\ntag_29:\n    /* \"contracts/MutliSigWalletClassExample.sol\":59:5019  contract MultiSigWallet{\r... */\n  dataSize(sub_0)\n  dup1\n  dataOffset(sub_0)\n  0x00\n  codecopy\n  0x00\n  return\nstop\n\nsub_0: assembly {\n        /* \"contracts/MutliSigWalletClassExample.sol\":59:5019  contract MultiSigWallet{\r... */\n      mstore(0x40, 0x80)\n      jumpi(tag_1, lt(calldatasize, 0x04))\n      shr(0xe0, calldataload(0x00))\n      dup1\n      0x9ace38c2\n      gt\n      tag_16\n      jumpi\n      dup1\n      0xc6427474\n      gt\n      tag_17\n      jumpi\n      dup1\n      0xc6427474\n      eq\n      tag_12\n      jumpi\n      dup1\n      0xd0549b85\n      eq\n      tag_13\n      jumpi\n      dup1\n      0xee22610b\n      eq\n      tag_14\n      jumpi\n      dup1\n      0xfba246de\n      eq\n      tag_15\n      jumpi\n      0x00\n      dup1\n      revert\n    tag_17:\n      dup1\n      0x9ace38c2\n      eq\n      tag_9\n      jumpi\n      dup1\n      0xa0e67e2b\n      eq\n      tag_10\n      jumpi\n      dup1\n      0xc01a8c84\n      eq\n      tag_11\n      jumpi\n      0x00\n      dup1\n      revert\n    tag_16:\n      dup1\n      0x025e7c27\n      eq\n      tag_3\n      jumpi\n      dup1\n      0x20ea8d86\n      eq\n      tag_4\n      jumpi\n      dup1\n      0x2e7700f0\n      eq\n      tag_5\n      jumpi\n      dup1\n      0x2f54bf6e\n      eq\n      tag_6\n      jumpi\n      dup1\n      0x33ea3dc8\n      eq\n      tag_7\n      jumpi\n      dup1\n      0x80f59a65\n      eq\n      tag_8\n      jumpi\n      0x00\n      dup1\n      revert\n    tag_1:\n      jumpi(tag_2, calldatasize)\n      stop\n    tag_2:\n      0x00\n      dup1\n      revert\n        /* \"contracts/MutliSigWalletClassExample.sol\":555:578  address[] public owners */\n    tag_3:\n      callvalue\n      dup1\n      iszero\n      tag_20\n      jumpi\n      0x00\n      dup1\n      revert\n    tag_20:\n      pop\n      tag_21\n      tag_22\n      calldatasize\n      0x04\n      tag_23\n      jump\t// in\n    tag_22:\n      tag_24\n      jump\t// in\n    tag_21:\n      mload(0x40)\n      sub(shl(0xa0, 0x01), 0x01)\n        /* \"#utility.yul\":3846:3878   */\n      swap1\n      swap2\n      and\n        /* \"#utility.yul\":3828:3879   */\n      dup2\n      mstore\n        /* \"#utility.yul\":3816:3818   */\n      0x20\n        /* \"#utility.yul\":3801:3819   */\n      add\n        /* \"contracts/MutliSigWalletClassExample.sol\":555:578  address[] public owners */\n    tag_25:\n      mload(0x40)\n      dup1\n      swap2\n      sub\n      swap1\n      return\n        /* \"contracts/MutliSigWalletClassExample.sol\":3889:4315  function revokeConfirmation(uint _txIndex)\r... */\n    tag_4:\n      callvalue\n      dup1\n      iszero\n      tag_27\n      jumpi\n      0x00\n      dup1\n      revert\n    tag_27:\n      pop\n      tag_28\n      tag_29\n      calldatasize\n      0x04\n      tag_23\n      jump\t// in\n    tag_29:\n      tag_30\n      jump\t// in\n    tag_28:\n      stop\n        /* \"contracts/MutliSigWalletClassExample.sol\":4421:4522  function getTransactionCount() public view returns(uint){\r... */\n    tag_5:\n      callvalue\n      dup1\n      iszero\n      tag_31\n      jumpi\n      0x00\n      dup1\n      revert\n    tag_31:\n      pop\n        /* \"contracts/MutliSigWalletClassExample.sol\":4495:4507  transactions */\n      0x04\n        /* \"contracts/MutliSigWalletClassExample.sol\":4495:4514  transactions.length */\n      sload\n        /* \"contracts/MutliSigWalletClassExample.sol\":4421:4522  function getTransactionCount() public view returns(uint){\r... */\n    tag_32:\n      mload(0x40)\n        /* \"#utility.yul\":8258:8283   */\n      swap1\n      dup2\n      mstore\n        /* \"#utility.yul\":8246:8248   */\n      0x20\n        /* \"#utility.yul\":8231:8249   */\n      add\n        /* \"contracts/MutliSigWalletClassExample.sol\":4421:4522  function getTransactionCount() public view returns(uint){\r... */\n      tag_25\n        /* \"#utility.yul\":8112:8289   */\n      jump\n        /* \"contracts/MutliSigWalletClassExample.sol\":585:622  mapping(address=>bool) public isOwner */\n    tag_6:\n      callvalue\n      dup1\n      iszero\n      tag_36\n      jumpi\n      0x00\n      dup1\n      revert\n    tag_36:\n      pop\n      tag_37\n      tag_38\n      calldatasize\n      0x04\n      tag_39\n      jump\t// in\n    tag_38:\n      mstore(0x20, 0x01)\n      0x00\n      swap1\n      dup2\n      mstore\n      0x40\n      swap1\n      keccak256\n      sload\n      0xff\n      and\n      dup2\n      jump\n    tag_37:\n      mload(0x40)\n        /* \"#utility.yul\":5263:5277   */\n      swap1\n      iszero\n        /* \"#utility.yul\":5256:5278   */\n      iszero\n        /* \"#utility.yul\":5238:5279   */\n      dup2\n      mstore\n        /* \"#utility.yul\":5226:5228   */\n      0x20\n        /* \"#utility.yul\":5211:5229   */\n      add\n        /* \"contracts/MutliSigWalletClassExample.sol\":585:622  mapping(address=>bool) public isOwner */\n      tag_25\n        /* \"#utility.yul\":5098:5285   */\n      jump\n        /* \"contracts/MutliSigWalletClassExample.sol\":4530:5014  function getTransaction(uint _txIndex)\r... */\n    tag_7:\n      callvalue\n      dup1\n      iszero\n      tag_43\n      jumpi\n      0x00\n      dup1\n      revert\n    tag_43:\n      pop\n      tag_44\n      tag_45\n      calldatasize\n      0x04\n      tag_23\n      jump\t// in\n    tag_45:\n      tag_46\n      jump\t// in\n    tag_44:\n      mload(0x40)\n      tag_25\n      swap6\n      swap5\n      swap4\n      swap3\n      swap2\n      swap1\n      tag_48\n      jump\t// in\n        /* \"contracts/MutliSigWalletClassExample.sol\":827:883  mapping(uint=>mapping(address=>bool)) public isConfirmed */\n    tag_8:\n      callvalue\n      dup1\n      iszero\n      tag_49\n      jumpi\n      0x00\n      dup1\n      revert\n    tag_49:\n      pop\n      tag_37\n      tag_51\n      calldatasize\n      0x04\n      tag_52\n      jump\t// in\n    tag_51:\n      0x03\n      0x20\n      swap1\n      dup2\n      mstore\n      0x00\n      swap3\n      dup4\n      mstore\n      0x40\n      dup1\n      dup5\n      keccak256\n      swap1\n      swap2\n      mstore\n      swap1\n      dup3\n      mstore\n      swap1\n      keccak256\n      sload\n      0xff\n      and\n      dup2\n      jump\n        /* \"contracts/MutliSigWalletClassExample.sol\":892:925  Transaction[] public transactions */\n    tag_9:\n      callvalue\n      dup1\n      iszero\n      tag_55\n      jumpi\n      0x00\n      dup1\n      revert\n    tag_55:\n      pop\n      tag_44\n      tag_57\n      calldatasize\n      0x04\n      tag_23\n      jump\t// in\n    tag_57:\n      tag_58\n      jump\t// in\n        /* \"contracts/MutliSigWalletClassExample.sol\":4323:4413  function getOwners() public view returns(address[] memory){\r... */\n    tag_10:\n      callvalue\n      dup1\n      iszero\n      tag_60\n      jumpi\n      0x00\n      dup1\n      revert\n    tag_60:\n      pop\n      tag_61\n      tag_62\n      jump\t// in\n    tag_61:\n      mload(0x40)\n      tag_25\n      swap2\n      swap1\n      tag_64\n      jump\t// in\n        /* \"contracts/MutliSigWalletClassExample.sol\":2105:2466  function confirmTransaction(uint _txIndex)public onlyOwner \r... */\n    tag_11:\n      callvalue\n      dup1\n      iszero\n      tag_65\n      jumpi\n      0x00\n      dup1\n      revert\n    tag_65:\n      pop\n      tag_28\n      tag_67\n      calldatasize\n      0x04\n      tag_23\n      jump\t// in\n    tag_67:\n      tag_68\n      jump\t// in\n        /* \"contracts/MutliSigWalletClassExample.sol\":2474:2958  function submitTransaction(\r... */\n    tag_12:\n      callvalue\n      dup1\n      iszero\n      tag_69\n      jumpi\n      0x00\n      dup1\n      revert\n    tag_69:\n      pop\n      tag_28\n      tag_71\n      calldatasize\n      0x04\n      tag_72\n      jump\t// in\n    tag_71:\n      tag_73\n      jump\t// in\n        /* \"contracts/MutliSigWalletClassExample.sol\":629:665  uint public numConfirmationsRequired */\n    tag_13:\n      callvalue\n      dup1\n      iszero\n      tag_74\n      jumpi\n      0x00\n      dup1\n      revert\n    tag_74:\n      pop\n      tag_32\n      sload(0x02)\n      dup2\n      jump\n        /* \"contracts/MutliSigWalletClassExample.sol\":3221:3879  function executeTransaction(uint256 _txIndex)\r... */\n    tag_14:\n      callvalue\n      dup1\n      iszero\n      tag_78\n      jumpi\n      0x00\n      dup1\n      revert\n    tag_78:\n      pop\n      tag_28\n      tag_80\n      calldatasize\n      0x04\n      tag_23\n      jump\t// in\n    tag_80:\n      tag_81\n      jump\t// in\n        /* \"contracts/MutliSigWalletClassExample.sol\":2966:3180  function DepositETH() public payable{\r... */\n    tag_15:\n      tag_28\n      tag_83\n      jump\t// in\n        /* \"contracts/MutliSigWalletClassExample.sol\":555:578  address[] public owners */\n    tag_24:\n      0x00\n      dup2\n      dup2\n      sload\n      dup2\n      lt\n      tag_84\n      jumpi\n      0x00\n      dup1\n      revert\n    tag_84:\n      0x00\n      swap2\n      dup3\n      mstore\n      0x20\n      swap1\n      swap2\n      keccak256\n      add\n      sload\n      sub(shl(0xa0, 0x01), 0x01)\n      and\n      swap1\n      pop\n      dup2\n      jump\t// out\n        /* \"contracts/MutliSigWalletClassExample.sol\":3889:4315  function revokeConfirmation(uint _txIndex)\r... */\n    tag_30:\n        /* \"contracts/MutliSigWalletClassExample.sol\":981:991  msg.sender */\n      caller\n        /* \"contracts/MutliSigWalletClassExample.sol\":973:992  isOwner[msg.sender] */\n      0x00\n      swap1\n      dup2\n      mstore\n        /* \"contracts/MutliSigWalletClassExample.sol\":973:980  isOwner */\n      0x01\n        /* \"contracts/MutliSigWalletClassExample.sol\":973:992  isOwner[msg.sender] */\n      0x20\n      mstore\n      0x40\n      swap1\n      keccak256\n      sload\n      0xff\n      and\n        /* \"contracts/MutliSigWalletClassExample.sol\":965:1009  require(isOwner[msg.sender],\"Not the owner\") */\n      tag_87\n      jumpi\n      mload(0x40)\n      shl(0xe5, 0x461bcd)\n      dup2\n      mstore\n      0x04\n      add\n      tag_88\n      swap1\n      tag_89\n      jump\t// in\n    tag_88:\n      mload(0x40)\n      dup1\n      swap2\n      sub\n      swap1\n      revert\n    tag_87:\n        /* \"contracts/MutliSigWalletClassExample.sol\":1097:1109  transactions */\n      0x04\n        /* \"contracts/MutliSigWalletClassExample.sol\":1097:1116  transactions.length */\n      sload\n        /* \"contracts/MutliSigWalletClassExample.sol\":3973:3981  _txIndex */\n      dup2\n      swap1\n        /* \"contracts/MutliSigWalletClassExample.sol\":1088:1116  _txIndex<transactions.length */\n      dup2\n      lt\n        /* \"contracts/MutliSigWalletClassExample.sol\":1080:1146  require(_txIndex<transactions.length,\"transaction does not exist\") */\n      tag_91\n      jumpi\n      mload(0x40)\n      shl(0xe5, 0x461bcd)\n      dup2\n      mstore\n      0x04\n      add\n      tag_88\n      swap1\n      tag_93\n      jump\t// in\n    tag_91:\n        /* \"contracts/MutliSigWalletClassExample.sol\":4000:4008  _txIndex */\n      dup2\n        /* \"contracts/MutliSigWalletClassExample.sol\":1229:1241  transactions */\n      0x04\n        /* \"contracts/MutliSigWalletClassExample.sol\":1242:1250  _txIndex */\n      dup2\n        /* \"contracts/MutliSigWalletClassExample.sol\":1229:1251  transactions[_txIndex] */\n      dup2\n      sload\n      dup2\n      lt\n      tag_96\n      jumpi\n      tag_96\n      tag_97\n      jump\t// in\n    tag_96:\n      0x00\n      swap2\n      dup3\n      mstore\n      0x20\n      swap1\n      swap2\n      keccak256\n        /* \"contracts/MutliSigWalletClassExample.sol\":1229:1260  transactions[_txIndex].executed */\n      0x03\n        /* \"contracts/MutliSigWalletClassExample.sol\":1229:1251  transactions[_txIndex] */\n      0x05\n      swap1\n      swap3\n      mul\n      add\n        /* \"contracts/MutliSigWalletClassExample.sol\":1229:1260  transactions[_txIndex].executed */\n      add\n      sload\n      0xff\n      and\n        /* \"contracts/MutliSigWalletClassExample.sol\":1228:1260  !transactions[_txIndex].executed */\n      iszero\n        /* \"contracts/MutliSigWalletClassExample.sol\":1220:1282  require(!transactions[_txIndex].executed,\"tx already excuted\") */\n      tag_99\n      jumpi\n      mload(0x40)\n      shl(0xe5, 0x461bcd)\n      dup2\n      mstore\n      0x04\n      add\n      tag_88\n      swap1\n      tag_101\n      jump\t// in\n    tag_99:\n        /* \"contracts/MutliSigWalletClassExample.sol\":4026:4057  Transaction storage transaction */\n      0x00\n        /* \"contracts/MutliSigWalletClassExample.sol\":4059:4071  transactions */\n      0x04\n        /* \"contracts/MutliSigWalletClassExample.sol\":4072:4080  _txIndex */\n      dup5\n        /* \"contracts/MutliSigWalletClassExample.sol\":4059:4081  transactions[_txIndex] */\n      dup2\n      sload\n      dup2\n      lt\n      tag_104\n      jumpi\n      tag_104\n      tag_97\n      jump\t// in\n    tag_104:\n      0x00\n      swap2\n      dup3\n      mstore\n      0x20\n      dup1\n      dup4\n      keccak256\n        /* \"contracts/MutliSigWalletClassExample.sol\":4101:4122  isConfirmed[_txIndex] */\n      dup8\n      dup5\n      mstore\n        /* \"contracts/MutliSigWalletClassExample.sol\":4101:4112  isConfirmed */\n      0x03\n        /* \"contracts/MutliSigWalletClassExample.sol\":4101:4122  isConfirmed[_txIndex] */\n      dup3\n      mstore\n      0x40\n      dup1\n      dup6\n      keccak256\n        /* \"contracts/MutliSigWalletClassExample.sol\":4123:4133  msg.sender */\n      caller\n        /* \"contracts/MutliSigWalletClassExample.sol\":4101:4134  isConfirmed[_txIndex][msg.sender] */\n      dup7\n      mstore\n      swap1\n      swap3\n      mstore\n      swap3\n      keccak256\n      sload\n        /* \"contracts/MutliSigWalletClassExample.sol\":4059:4081  transactions[_txIndex] */\n      0x05\n      swap1\n      swap2\n      mul\n      swap1\n      swap2\n      add\n      swap2\n      pop\n        /* \"contracts/MutliSigWalletClassExample.sol\":4101:4134  isConfirmed[_txIndex][msg.sender] */\n      0xff\n      and\n        /* \"contracts/MutliSigWalletClassExample.sol\":4092:4157  require (isConfirmed[_txIndex][msg.sender],\"tx is not confirmed\") */\n      tag_106\n      jumpi\n      mload(0x40)\n      shl(0xe5, 0x461bcd)\n      dup2\n      mstore\n        /* \"#utility.yul\":6929:6931   */\n      0x20\n        /* \"contracts/MutliSigWalletClassExample.sol\":4092:4157  require (isConfirmed[_txIndex][msg.sender],\"tx is not confirmed\") */\n      0x04\n      dup3\n      add\n        /* \"#utility.yul\":6911:6932   */\n      mstore\n        /* \"#utility.yul\":6968:6970   */\n      0x13\n        /* \"#utility.yul\":6948:6966   */\n      0x24\n      dup3\n      add\n        /* \"#utility.yul\":6941:6971   */\n      mstore\n      shl(0x6a, 0x1d1e081a5cc81b9bdd0818dbdb999a5c9b5959)\n        /* \"#utility.yul\":6987:7005   */\n      0x44\n      dup3\n      add\n        /* \"#utility.yul\":6980:7029   */\n      mstore\n        /* \"#utility.yul\":7046:7064   */\n      0x64\n      add\n        /* \"contracts/MutliSigWalletClassExample.sol\":4092:4157  require (isConfirmed[_txIndex][msg.sender],\"tx is not confirmed\") */\n      tag_88\n        /* \"#utility.yul\":6727:7070   */\n      jump\n        /* \"contracts/MutliSigWalletClassExample.sol\":4092:4157  require (isConfirmed[_txIndex][msg.sender],\"tx is not confirmed\") */\n    tag_106:\n        /* \"contracts/MutliSigWalletClassExample.sol\":4198:4199  1 */\n      0x01\n        /* \"contracts/MutliSigWalletClassExample.sol\":4168:4179  transaction */\n      dup2\n        /* \"contracts/MutliSigWalletClassExample.sol\":4168:4196  transaction.numConfirmations */\n      0x04\n      add\n      0x00\n        /* \"contracts/MutliSigWalletClassExample.sol\":4168:4199  transaction.numConfirmations-=1 */\n      dup3\n      dup3\n      sload\n      tag_109\n      swap2\n      swap1\n      tag_110\n      jump\t// in\n    tag_109:\n      swap1\n      swap2\n      sstore\n      pop\n      pop\n        /* \"contracts/MutliSigWalletClassExample.sol\":4244:4249  false */\n      0x00\n        /* \"contracts/MutliSigWalletClassExample.sol\":4210:4231  isConfirmed[_txIndex] */\n      dup5\n      dup2\n      mstore\n        /* \"contracts/MutliSigWalletClassExample.sol\":4210:4221  isConfirmed */\n      0x03\n        /* \"contracts/MutliSigWalletClassExample.sol\":4210:4231  isConfirmed[_txIndex] */\n      0x20\n      swap1\n      dup2\n      mstore\n      0x40\n      dup1\n      dup4\n      keccak256\n        /* \"contracts/MutliSigWalletClassExample.sol\":4232:4242  msg.sender */\n      caller\n        /* \"contracts/MutliSigWalletClassExample.sol\":4210:4243  isConfirmed[_txIndex][msg.sender] */\n      dup1\n      dup6\n      mstore\n      swap3\n      mstore\n      dup1\n      dup4\n      keccak256\n        /* \"contracts/MutliSigWalletClassExample.sol\":4210:4249  isConfirmed[_txIndex][msg.sender]=false */\n      dup1\n      sload\n      not(0xff)\n      and\n      swap1\n      sstore\n        /* \"contracts/MutliSigWalletClassExample.sol\":4267:4305  RevokeTransaction(msg.sender,_txIndex) */\n      mload\n        /* \"contracts/MutliSigWalletClassExample.sol\":4222:4230  _txIndex */\n      dup7\n      swap3\n        /* \"contracts/MutliSigWalletClassExample.sol\":4267:4305  RevokeTransaction(msg.sender,_txIndex) */\n      0x1ad870073a851011d852bccd8634c29c7c0ac2265ba96d2bab01285001a465a8\n      swap2\n      log3\n        /* \"contracts/MutliSigWalletClassExample.sol\":4015:4315  {\r... */\n      pop\n        /* \"contracts/MutliSigWalletClassExample.sol\":1157:1158  _ */\n      pop\n        /* \"contracts/MutliSigWalletClassExample.sol\":1020:1021  _ */\n      pop\n        /* \"contracts/MutliSigWalletClassExample.sol\":3889:4315  function revokeConfirmation(uint _txIndex)\r... */\n      pop\n      jump\t// out\n        /* \"contracts/MutliSigWalletClassExample.sol\":4530:5014  function getTransaction(uint _txIndex)\r... */\n    tag_46:\n        /* \"contracts/MutliSigWalletClassExample.sol\":4615:4625  address to */\n      0x00\n        /* \"contracts/MutliSigWalletClassExample.sol\":4636:4646  uint value */\n      dup1\n        /* \"contracts/MutliSigWalletClassExample.sol\":4657:4674  bytes memory data */\n      0x60\n        /* \"contracts/MutliSigWalletClassExample.sol\":4685:4698  bool executed */\n      0x00\n        /* \"contracts/MutliSigWalletClassExample.sol\":4709:4730  uint numConfirmations */\n      dup1\n        /* \"contracts/MutliSigWalletClassExample.sol\":4754:4785  Transaction storage transaction */\n      0x00\n        /* \"contracts/MutliSigWalletClassExample.sol\":4786:4798  transactions */\n      0x04\n        /* \"contracts/MutliSigWalletClassExample.sol\":4799:4807  _txIndex */\n      dup8\n        /* \"contracts/MutliSigWalletClassExample.sol\":4786:4808  transactions[_txIndex] */\n      dup2\n      sload\n      dup2\n      lt\n      tag_114\n      jumpi\n      tag_114\n      tag_97\n      jump\t// in\n    tag_114:\n      0x00\n      swap2\n      dup3\n      mstore\n      0x20\n      swap1\n      swap2\n      keccak256\n      0x05\n      swap1\n      swap2\n      mul\n      add\n        /* \"contracts/MutliSigWalletClassExample.sol\":4840:4854  transaction.to */\n      dup1\n      sload\n      0x01\n        /* \"contracts/MutliSigWalletClassExample.sol\":4869:4886  transaction.value */\n      dup3\n      add\n      sload\n        /* \"contracts/MutliSigWalletClassExample.sol\":4932:4952  transaction.executed */\n      0x03\n      dup4\n      add\n      sload\n        /* \"contracts/MutliSigWalletClassExample.sol\":4967:4995  transaction.numConfirmations */\n      0x04\n      dup5\n      add\n      sload\n        /* \"contracts/MutliSigWalletClassExample.sol\":4901:4917  transaction.data */\n      0x02\n      dup6\n      add\n        /* \"contracts/MutliSigWalletClassExample.sol\":4819:5006  return(\r... */\n      dup1\n      sload\n        /* \"contracts/MutliSigWalletClassExample.sol\":4786:4808  transactions[_txIndex] */\n      swap6\n      swap7\n      pop\n      sub(shl(0xa0, 0x01), 0x01)\n        /* \"contracts/MutliSigWalletClassExample.sol\":4840:4854  transaction.to */\n      swap1\n      swap5\n      and\n      swap5\n        /* \"contracts/MutliSigWalletClassExample.sol\":4869:4886  transaction.value */\n      swap3\n      swap4\n        /* \"contracts/MutliSigWalletClassExample.sol\":4901:4917  transaction.data */\n      swap3\n        /* \"contracts/MutliSigWalletClassExample.sol\":4932:4952  transaction.executed */\n      0xff\n      swap1\n      swap3\n      and\n      swap2\n        /* \"contracts/MutliSigWalletClassExample.sol\":4901:4917  transaction.data */\n      dup4\n      swap1\n        /* \"contracts/MutliSigWalletClassExample.sol\":4819:5006  return(\r... */\n      tag_116\n      swap1\n      tag_117\n      jump\t// in\n    tag_116:\n      dup1\n      0x1f\n      add\n      0x20\n      dup1\n      swap2\n      div\n      mul\n      0x20\n      add\n      mload(0x40)\n      swap1\n      dup2\n      add\n      0x40\n      mstore\n      dup1\n      swap3\n      swap2\n      swap1\n      dup2\n      dup2\n      mstore\n      0x20\n      add\n      dup3\n      dup1\n      sload\n      tag_118\n      swap1\n      tag_117\n      jump\t// in\n    tag_118:\n      dup1\n      iszero\n      tag_119\n      jumpi\n      dup1\n      0x1f\n      lt\n      tag_120\n      jumpi\n      0x0100\n      dup1\n      dup4\n      sload\n      div\n      mul\n      dup4\n      mstore\n      swap2\n      0x20\n      add\n      swap2\n      jump(tag_119)\n    tag_120:\n      dup3\n      add\n      swap2\n      swap1\n      0x00\n      mstore\n      keccak256(0x00, 0x20)\n      swap1\n    tag_121:\n      dup2\n      sload\n      dup2\n      mstore\n      swap1\n      0x01\n      add\n      swap1\n      0x20\n      add\n      dup1\n      dup4\n      gt\n      tag_121\n      jumpi\n      dup3\n      swap1\n      sub\n      0x1f\n      and\n      dup3\n      add\n      swap2\n    tag_119:\n      pop\n      pop\n      pop\n      pop\n      pop\n      swap3\n      pop\n      swap6\n      pop\n      swap6\n      pop\n      swap6\n      pop\n      swap6\n      pop\n      swap6\n      pop\n      pop\n        /* \"contracts/MutliSigWalletClassExample.sol\":4530:5014  function getTransaction(uint _txIndex)\r... */\n      swap2\n      swap4\n      swap6\n      swap1\n      swap3\n      swap5\n      pop\n      jump\t// out\n        /* \"contracts/MutliSigWalletClassExample.sol\":892:925  Transaction[] public transactions */\n    tag_58:\n      0x04\n      dup2\n      dup2\n      sload\n      dup2\n      lt\n      tag_122\n      jumpi\n      0x00\n      dup1\n      revert\n    tag_122:\n      0x00\n      swap2\n      dup3\n      mstore\n      0x20\n      swap1\n      swap2\n      keccak256\n      0x05\n      swap1\n      swap2\n      mul\n      add\n      dup1\n      sload\n      0x01\n      dup3\n      add\n      sload\n      0x02\n      dup4\n      add\n      dup1\n      sload\n      sub(shl(0xa0, 0x01), 0x01)\n      swap1\n      swap4\n      and\n      swap5\n      pop\n      swap1\n      swap3\n      swap2\n      tag_124\n      swap1\n      tag_117\n      jump\t// in\n    tag_124:\n      dup1\n      0x1f\n      add\n      0x20\n      dup1\n      swap2\n      div\n      mul\n      0x20\n      add\n      mload(0x40)\n      swap1\n      dup2\n      add\n      0x40\n      mstore\n      dup1\n      swap3\n      swap2\n      swap1\n      dup2\n      dup2\n      mstore\n      0x20\n      add\n      dup3\n      dup1\n      sload\n      tag_125\n      swap1\n      tag_117\n      jump\t// in\n    tag_125:\n      dup1\n      iszero\n      tag_126\n      jumpi\n      dup1\n      0x1f\n      lt\n      tag_127\n      jumpi\n      0x0100\n      dup1\n      dup4\n      sload\n      div\n      mul\n      dup4\n      mstore\n      swap2\n      0x20\n      add\n      swap2\n      jump(tag_126)\n    tag_127:\n      dup3\n      add\n      swap2\n      swap1\n      0x00\n      mstore\n      keccak256(0x00, 0x20)\n      swap1\n    tag_128:\n      dup2\n      sload\n      dup2\n      mstore\n      swap1\n      0x01\n      add\n      swap1\n      0x20\n      add\n      dup1\n      dup4\n      gt\n      tag_128\n      jumpi\n      dup3\n      swap1\n      sub\n      0x1f\n      and\n      dup3\n      add\n      swap2\n    tag_126:\n      pop\n      pop\n      pop\n      pop\n      0x03\n      dup4\n      add\n      sload\n      0x04\n      swap1\n      swap4\n      add\n      sload\n      swap2\n      swap3\n      0xff\n      and\n      swap2\n      swap1\n      pop\n      dup6\n      jump\t// out\n        /* \"contracts/MutliSigWalletClassExample.sol\":4323:4413  function getOwners() public view returns(address[] memory){\r... */\n    tag_62:\n        /* \"contracts/MutliSigWalletClassExample.sol\":4364:4380  address[] memory */\n      0x60\n        /* \"contracts/MutliSigWalletClassExample.sol\":4399:4405  owners */\n      0x00\n        /* \"contracts/MutliSigWalletClassExample.sol\":4392:4405  return owners */\n      dup1\n      sload\n      dup1\n      0x20\n      mul\n      0x20\n      add\n      mload(0x40)\n      swap1\n      dup2\n      add\n      0x40\n      mstore\n      dup1\n      swap3\n      swap2\n      swap1\n      dup2\n      dup2\n      mstore\n      0x20\n      add\n      dup3\n      dup1\n      sload\n      dup1\n      iszero\n      tag_130\n      jumpi\n      0x20\n      mul\n      dup3\n      add\n      swap2\n      swap1\n      0x00\n      mstore\n      keccak256(0x00, 0x20)\n      swap1\n    tag_131:\n      dup2\n      sload\n      sub(shl(0xa0, 0x01), 0x01)\n      and\n      dup2\n      mstore\n      0x01\n      swap1\n      swap2\n      add\n      swap1\n      0x20\n      add\n      dup1\n      dup4\n      gt\n      tag_131\n      jumpi\n    tag_130:\n      pop\n      pop\n      pop\n      pop\n      pop\n      swap1\n      pop\n        /* \"contracts/MutliSigWalletClassExample.sol\":4323:4413  function getOwners() public view returns(address[] memory){\r... */\n      swap1\n      jump\t// out\n        /* \"contracts/MutliSigWalletClassExample.sol\":2105:2466  function confirmTransaction(uint _txIndex)public onlyOwner \r... */\n    tag_68:\n        /* \"contracts/MutliSigWalletClassExample.sol\":981:991  msg.sender */\n      caller\n        /* \"contracts/MutliSigWalletClassExample.sol\":973:992  isOwner[msg.sender] */\n      0x00\n      swap1\n      dup2\n      mstore\n        /* \"contracts/MutliSigWalletClassExample.sol\":973:980  isOwner */\n      0x01\n        /* \"contracts/MutliSigWalletClassExample.sol\":973:992  isOwner[msg.sender] */\n      0x20\n      mstore\n      0x40\n      swap1\n      keccak256\n      sload\n      0xff\n      and\n        /* \"contracts/MutliSigWalletClassExample.sol\":965:1009  require(isOwner[msg.sender],\"Not the owner\") */\n      tag_133\n      jumpi\n      mload(0x40)\n      shl(0xe5, 0x461bcd)\n      dup2\n      mstore\n      0x04\n      add\n      tag_88\n      swap1\n      tag_89\n      jump\t// in\n    tag_133:\n        /* \"contracts/MutliSigWalletClassExample.sol\":1097:1109  transactions */\n      0x04\n        /* \"contracts/MutliSigWalletClassExample.sol\":1097:1116  transactions.length */\n      sload\n        /* \"contracts/MutliSigWalletClassExample.sol\":2179:2187  _txIndex */\n      dup2\n      swap1\n        /* \"contracts/MutliSigWalletClassExample.sol\":1088:1116  _txIndex<transactions.length */\n      dup2\n      lt\n        /* \"contracts/MutliSigWalletClassExample.sol\":1080:1146  require(_txIndex<transactions.length,\"transaction does not exist\") */\n      tag_136\n      jumpi\n      mload(0x40)\n      shl(0xe5, 0x461bcd)\n      dup2\n      mstore\n      0x04\n      add\n      tag_88\n      swap1\n      tag_93\n      jump\t// in\n    tag_136:\n        /* \"contracts/MutliSigWalletClassExample.sol\":2207:2215  _txIndex */\n      dup2\n        /* \"contracts/MutliSigWalletClassExample.sol\":1229:1241  transactions */\n      0x04\n        /* \"contracts/MutliSigWalletClassExample.sol\":1242:1250  _txIndex */\n      dup2\n        /* \"contracts/MutliSigWalletClassExample.sol\":1229:1251  transactions[_txIndex] */\n      dup2\n      sload\n      dup2\n      lt\n      tag_140\n      jumpi\n      tag_140\n      tag_97\n      jump\t// in\n    tag_140:\n      0x00\n      swap2\n      dup3\n      mstore\n      0x20\n      swap1\n      swap2\n      keccak256\n        /* \"contracts/MutliSigWalletClassExample.sol\":1229:1260  transactions[_txIndex].executed */\n      0x03\n        /* \"contracts/MutliSigWalletClassExample.sol\":1229:1251  transactions[_txIndex] */\n      0x05\n      swap1\n      swap3\n      mul\n      add\n        /* \"contracts/MutliSigWalletClassExample.sol\":1229:1260  transactions[_txIndex].executed */\n      add\n      sload\n      0xff\n      and\n        /* \"contracts/MutliSigWalletClassExample.sol\":1228:1260  !transactions[_txIndex].executed */\n      iszero\n        /* \"contracts/MutliSigWalletClassExample.sol\":1220:1282  require(!transactions[_txIndex].executed,\"tx already excuted\") */\n      tag_142\n      jumpi\n      mload(0x40)\n      shl(0xe5, 0x461bcd)\n      dup2\n      mstore\n      0x04\n      add\n      tag_88\n      swap1\n      tag_101\n      jump\t// in\n    tag_142:\n        /* \"contracts/MutliSigWalletClassExample.sol\":1370:1391  isConfirmed[_txIndex] */\n      0x00\n      dup4\n      dup2\n      mstore\n        /* \"contracts/MutliSigWalletClassExample.sol\":1370:1381  isConfirmed */\n      0x03\n        /* \"contracts/MutliSigWalletClassExample.sol\":1370:1391  isConfirmed[_txIndex] */\n      0x20\n      swap1\n      dup2\n      mstore\n      0x40\n      dup1\n      dup4\n      keccak256\n        /* \"contracts/MutliSigWalletClassExample.sol\":1392:1402  msg.sender */\n      caller\n        /* \"contracts/MutliSigWalletClassExample.sol\":1370:1403  isConfirmed[_txIndex][msg.sender] */\n      dup5\n      mstore\n      swap1\n      swap2\n      mstore\n      swap1\n      keccak256\n      sload\n        /* \"contracts/MutliSigWalletClassExample.sol\":2235:2243  _txIndex */\n      dup4\n      swap1\n        /* \"contracts/MutliSigWalletClassExample.sol\":1370:1403  isConfirmed[_txIndex][msg.sender] */\n      0xff\n      and\n        /* \"contracts/MutliSigWalletClassExample.sol\":1369:1403  !isConfirmed[_txIndex][msg.sender] */\n      iszero\n        /* \"contracts/MutliSigWalletClassExample.sol\":1361:1427  require(!isConfirmed[_txIndex][msg.sender],\"tx already confirmed\") */\n      tag_145\n      jumpi\n      mload(0x40)\n      shl(0xe5, 0x461bcd)\n      dup2\n      mstore\n        /* \"#utility.yul\":6580:6582   */\n      0x20\n        /* \"contracts/MutliSigWalletClassExample.sol\":1361:1427  require(!isConfirmed[_txIndex][msg.sender],\"tx already confirmed\") */\n      0x04\n      dup3\n      add\n        /* \"#utility.yul\":6562:6583   */\n      mstore\n        /* \"#utility.yul\":6619:6621   */\n      0x14\n        /* \"#utility.yul\":6599:6617   */\n      0x24\n      dup3\n      add\n        /* \"#utility.yul\":6592:6622   */\n      mstore\n      shl(0x62, 0x1d1e08185b1c9958591e4818dbdb999a5c9b5959)\n        /* \"#utility.yul\":6638:6656   */\n      0x44\n      dup3\n      add\n        /* \"#utility.yul\":6631:6681   */\n      mstore\n        /* \"#utility.yul\":6698:6716   */\n      0x64\n      add\n        /* \"contracts/MutliSigWalletClassExample.sol\":1361:1427  require(!isConfirmed[_txIndex][msg.sender],\"tx already confirmed\") */\n      tag_88\n        /* \"#utility.yul\":6378:6722   */\n      jump\n        /* \"contracts/MutliSigWalletClassExample.sol\":1361:1427  require(!isConfirmed[_txIndex][msg.sender],\"tx already confirmed\") */\n    tag_145:\n        /* \"contracts/MutliSigWalletClassExample.sol\":2255:2286  Transaction storage transaction */\n      0x00\n        /* \"contracts/MutliSigWalletClassExample.sol\":2288:2300  transactions */\n      0x04\n        /* \"contracts/MutliSigWalletClassExample.sol\":2301:2309  _txIndex */\n      dup6\n        /* \"contracts/MutliSigWalletClassExample.sol\":2288:2310  transactions[_txIndex] */\n      dup2\n      sload\n      dup2\n      lt\n      tag_150\n      jumpi\n      tag_150\n      tag_97\n      jump\t// in\n    tag_150:\n      swap1\n      0x00\n      mstore\n      keccak256(0x00, 0x20)\n      swap1\n      0x05\n      mul\n      add\n        /* \"contracts/MutliSigWalletClassExample.sol\":2255:2310  Transaction storage transaction= transactions[_txIndex] */\n      swap1\n      pop\n        /* \"contracts/MutliSigWalletClassExample.sol\":2351:2352  1 */\n      0x01\n        /* \"contracts/MutliSigWalletClassExample.sol\":2321:2332  transaction */\n      dup2\n        /* \"contracts/MutliSigWalletClassExample.sol\":2321:2349  transaction.numConfirmations */\n      0x04\n      add\n      0x00\n        /* \"contracts/MutliSigWalletClassExample.sol\":2321:2352  transaction.numConfirmations+=1 */\n      dup3\n      dup3\n      sload\n      tag_152\n      swap2\n      swap1\n      tag_153\n      jump\t// in\n    tag_152:\n      swap1\n      swap2\n      sstore\n      pop\n      pop\n        /* \"contracts/MutliSigWalletClassExample.sol\":2363:2384  isConfirmed[_txIndex] */\n      0x00\n      dup6\n      dup2\n      mstore\n        /* \"contracts/MutliSigWalletClassExample.sol\":2363:2374  isConfirmed */\n      0x03\n        /* \"contracts/MutliSigWalletClassExample.sol\":2363:2384  isConfirmed[_txIndex] */\n      0x20\n      swap1\n      dup2\n      mstore\n      0x40\n      dup1\n      dup4\n      keccak256\n        /* \"contracts/MutliSigWalletClassExample.sol\":2385:2395  msg.sender */\n      caller\n        /* \"contracts/MutliSigWalletClassExample.sol\":2363:2396  isConfirmed[_txIndex][msg.sender] */\n      dup1\n      dup6\n      mstore\n      swap3\n      mstore\n      dup1\n      dup4\n      keccak256\n        /* \"contracts/MutliSigWalletClassExample.sol\":2363:2401  isConfirmed[_txIndex][msg.sender]=true */\n      dup1\n      sload\n      not(0xff)\n      and\n        /* \"contracts/MutliSigWalletClassExample.sol\":2397:2401  true */\n      0x01\n        /* \"contracts/MutliSigWalletClassExample.sol\":2363:2401  isConfirmed[_txIndex][msg.sender]=true */\n      or\n      swap1\n      sstore\n        /* \"contracts/MutliSigWalletClassExample.sol\":2419:2458  ConfirmTransaction(msg.sender,_txIndex) */\n      mload\n        /* \"contracts/MutliSigWalletClassExample.sol\":2375:2383  _txIndex */\n      dup8\n      swap3\n        /* \"contracts/MutliSigWalletClassExample.sol\":2419:2458  ConfirmTransaction(msg.sender,_txIndex) */\n      0x5cbe105e36805f7820e291f799d5794ff948af2a5f664e580382defb63390041\n      swap2\n      log3\n        /* \"contracts/MutliSigWalletClassExample.sol\":2244:2466  {\r... */\n      pop\n        /* \"contracts/MutliSigWalletClassExample.sol\":1293:1294  _ */\n      pop\n        /* \"contracts/MutliSigWalletClassExample.sol\":1157:1158  _ */\n      pop\n        /* \"contracts/MutliSigWalletClassExample.sol\":1020:1021  _ */\n      pop\n        /* \"contracts/MutliSigWalletClassExample.sol\":2105:2466  function confirmTransaction(uint _txIndex)public onlyOwner \r... */\n      pop\n      jump\t// out\n        /* \"contracts/MutliSigWalletClassExample.sol\":2474:2958  function submitTransaction(\r... */\n    tag_73:\n        /* \"contracts/MutliSigWalletClassExample.sol\":981:991  msg.sender */\n      caller\n        /* \"contracts/MutliSigWalletClassExample.sol\":973:992  isOwner[msg.sender] */\n      0x00\n      swap1\n      dup2\n      mstore\n        /* \"contracts/MutliSigWalletClassExample.sol\":973:980  isOwner */\n      0x01\n        /* \"contracts/MutliSigWalletClassExample.sol\":973:992  isOwner[msg.sender] */\n      0x20\n      mstore\n      0x40\n      swap1\n      keccak256\n      sload\n      0xff\n      and\n        /* \"contracts/MutliSigWalletClassExample.sol\":965:1009  require(isOwner[msg.sender],\"Not the owner\") */\n      tag_155\n      jumpi\n      mload(0x40)\n      shl(0xe5, 0x461bcd)\n      dup2\n      mstore\n      0x04\n      add\n      tag_88\n      swap1\n      tag_89\n      jump\t// in\n    tag_155:\n        /* \"contracts/MutliSigWalletClassExample.sol\":2621:2633  transactions */\n      0x04\n        /* \"contracts/MutliSigWalletClassExample.sol\":2621:2640  transactions.length */\n      dup1\n      sload\n        /* \"contracts/MutliSigWalletClassExample.sol\":2685:2869  Transaction({\r... */\n      0x40\n      dup1\n      mload\n      0xa0\n      dup2\n      add\n      dup3\n      mstore\n      sub(shl(0xa0, 0x01), 0x01)\n      dup8\n      dup2\n      and\n      dup3\n      mstore\n      0x20\n      dup1\n      dup4\n      add\n      dup9\n      dup2\n      mstore\n      swap4\n      dup4\n      add\n      dup8\n      dup2\n      mstore\n      0x00\n      0x60\n      dup6\n      add\n      dup2\n      swap1\n      mstore\n      0x80\n      dup6\n      add\n      dup2\n      swap1\n      mstore\n      0x01\n        /* \"contracts/MutliSigWalletClassExample.sol\":2653:2880  transactions.push(\r... */\n      dup8\n      add\n      dup9\n      sstore\n      swap7\n      swap1\n      swap7\n      mstore\n      dup3\n      mload\n      0x8a35acfbc15ff81a39ae7d344fd709f28e8600b4aa8c65c6b64bfe7fe36bd19b\n      0x05\n      dup8\n      mul\n      swap1\n      dup2\n      add\n      dup1\n      sload\n      not(sub(shl(0xa0, 0x01), 0x01))\n      and\n      swap3\n      swap1\n      swap5\n      and\n      swap2\n      swap1\n      swap2\n      or\n      dup4\n      sstore\n      swap4\n      mload\n      0x8a35acfbc15ff81a39ae7d344fd709f28e8600b4aa8c65c6b64bfe7fe36bd19c\n      dup6\n      add\n      sstore\n      swap5\n      mload\n      dup1\n      mload\n        /* \"contracts/MutliSigWalletClassExample.sol\":2621:2640  transactions.length */\n      swap5\n      swap6\n        /* \"contracts/MutliSigWalletClassExample.sol\":2685:2869  Transaction({\r... */\n      swap3\n      swap5\n        /* \"contracts/MutliSigWalletClassExample.sol\":2653:2880  transactions.push(\r... */\n      swap2\n      swap4\n      tag_159\n      swap4\n      0x8a35acfbc15ff81a39ae7d344fd709f28e8600b4aa8c65c6b64bfe7fe36bd19d\n      swap1\n      swap2\n      add\n      swap3\n      swap2\n      add\n      swap1\n      tag_160\n      jump\t// in\n    tag_159:\n      pop\n      0x60\n      dup3\n      add\n      mload\n      0x03\n      dup3\n      add\n      dup1\n      sload\n      not(0xff)\n      and\n      swap2\n      iszero\n      iszero\n      swap2\n      swap1\n      swap2\n      or\n      swap1\n      sstore\n      0x80\n      swap1\n      swap2\n      add\n      mload\n      0x04\n      swap1\n      swap2\n      add\n      sstore\n        /* \"contracts/MutliSigWalletClassExample.sol\":2896:2950  SubmitTransaction(msg.sender,txIndex,_to,_value,_data) */\n      mload(0x40)\n      sub(shl(0xa0, 0x01), 0x01)\n      dup6\n      and\n      swap1\n        /* \"contracts/MutliSigWalletClassExample.sol\":2925:2932  txIndex */\n      dup3\n      swap1\n        /* \"contracts/MutliSigWalletClassExample.sol\":2914:2924  msg.sender */\n      caller\n      swap1\n        /* \"contracts/MutliSigWalletClassExample.sol\":2896:2950  SubmitTransaction(msg.sender,txIndex,_to,_value,_data) */\n      0xd5a05bf70715ad82a09a756320284a1b54c9ff74cd0f8cce6219e79b563fe59d\n      swap1\n      tag_161\n      swap1\n        /* \"contracts/MutliSigWalletClassExample.sol\":2937:2943  _value */\n      dup9\n      swap1\n        /* \"contracts/MutliSigWalletClassExample.sol\":2944:2949  _data */\n      dup9\n      swap1\n        /* \"contracts/MutliSigWalletClassExample.sol\":2896:2950  SubmitTransaction(msg.sender,txIndex,_to,_value,_data) */\n      tag_162\n      jump\t// in\n    tag_161:\n      mload(0x40)\n      dup1\n      swap2\n      sub\n      swap1\n      log4\n        /* \"contracts/MutliSigWalletClassExample.sol\":2597:2958  {\r... */\n      pop\n        /* \"contracts/MutliSigWalletClassExample.sol\":2474:2958  function submitTransaction(\r... */\n      pop\n      pop\n      pop\n      jump\t// out\n        /* \"contracts/MutliSigWalletClassExample.sol\":3221:3879  function executeTransaction(uint256 _txIndex)\r... */\n    tag_81:\n        /* \"contracts/MutliSigWalletClassExample.sol\":981:991  msg.sender */\n      caller\n        /* \"contracts/MutliSigWalletClassExample.sol\":973:992  isOwner[msg.sender] */\n      0x00\n      swap1\n      dup2\n      mstore\n        /* \"contracts/MutliSigWalletClassExample.sol\":973:980  isOwner */\n      0x01\n        /* \"contracts/MutliSigWalletClassExample.sol\":973:992  isOwner[msg.sender] */\n      0x20\n      mstore\n      0x40\n      swap1\n      keccak256\n      sload\n      0xff\n      and\n        /* \"contracts/MutliSigWalletClassExample.sol\":965:1009  require(isOwner[msg.sender],\"Not the owner\") */\n      tag_164\n      jumpi\n      mload(0x40)\n      shl(0xe5, 0x461bcd)\n      dup2\n      mstore\n      0x04\n      add\n      tag_88\n      swap1\n      tag_89\n      jump\t// in\n    tag_164:\n        /* \"contracts/MutliSigWalletClassExample.sol\":1097:1109  transactions */\n      0x04\n        /* \"contracts/MutliSigWalletClassExample.sol\":1097:1116  transactions.length */\n      sload\n        /* \"contracts/MutliSigWalletClassExample.sol\":3320:3328  _txIndex */\n      dup2\n      swap1\n        /* \"contracts/MutliSigWalletClassExample.sol\":1088:1116  _txIndex<transactions.length */\n      dup2\n      lt\n        /* \"contracts/MutliSigWalletClassExample.sol\":1080:1146  require(_txIndex<transactions.length,\"transaction does not exist\") */\n      tag_167\n      jumpi\n      mload(0x40)\n      shl(0xe5, 0x461bcd)\n      dup2\n      mstore\n      0x04\n      add\n      tag_88\n      swap1\n      tag_93\n      jump\t// in\n    tag_167:\n        /* \"contracts/MutliSigWalletClassExample.sol\":3351:3359  _txIndex */\n      dup2\n        /* \"contracts/MutliSigWalletClassExample.sol\":1229:1241  transactions */\n      0x04\n        /* \"contracts/MutliSigWalletClassExample.sol\":1242:1250  _txIndex */\n      dup2\n        /* \"contracts/MutliSigWalletClassExample.sol\":1229:1251  transactions[_txIndex] */\n      dup2\n      sload\n      dup2\n      lt\n      tag_171\n      jumpi\n      tag_171\n      tag_97\n      jump\t// in\n    tag_171:\n      0x00\n      swap2\n      dup3\n      mstore\n      0x20\n      swap1\n      swap2\n      keccak256\n        /* \"contracts/MutliSigWalletClassExample.sol\":1229:1260  transactions[_txIndex].executed */\n      0x03\n        /* \"contracts/MutliSigWalletClassExample.sol\":1229:1251  transactions[_txIndex] */\n      0x05\n      swap1\n      swap3\n      mul\n      add\n        /* \"contracts/MutliSigWalletClassExample.sol\":1229:1260  transactions[_txIndex].executed */\n      add\n      sload\n      0xff\n      and\n        /* \"contracts/MutliSigWalletClassExample.sol\":1228:1260  !transactions[_txIndex].executed */\n      iszero\n        /* \"contracts/MutliSigWalletClassExample.sol\":1220:1282  require(!transactions[_txIndex].executed,\"tx already excuted\") */\n      tag_173\n      jumpi\n      mload(0x40)\n      shl(0xe5, 0x461bcd)\n      dup2\n      mstore\n      0x04\n      add\n      tag_88\n      swap1\n      tag_101\n      jump\t// in\n    tag_173:\n        /* \"contracts/MutliSigWalletClassExample.sol\":3387:3418  Transaction storage transaction */\n      0x00\n        /* \"contracts/MutliSigWalletClassExample.sol\":3421:3433  transactions */\n      0x04\n        /* \"contracts/MutliSigWalletClassExample.sol\":3434:3442  _txIndex */\n      dup5\n        /* \"contracts/MutliSigWalletClassExample.sol\":3421:3443  transactions[_txIndex] */\n      dup2\n      sload\n      dup2\n      lt\n      tag_177\n      jumpi\n      tag_177\n      tag_97\n      jump\t// in\n    tag_177:\n      swap1\n      0x00\n      mstore\n      keccak256(0x00, 0x20)\n      swap1\n      0x05\n      mul\n      add\n        /* \"contracts/MutliSigWalletClassExample.sol\":3387:3443  Transaction storage transaction = transactions[_txIndex] */\n      swap1\n      pop\n        /* \"contracts/MutliSigWalletClassExample.sol\":3508:3532  numConfirmationsRequired */\n      sload(0x02)\n        /* \"contracts/MutliSigWalletClassExample.sol\":3476:3487  transaction */\n      dup2\n        /* \"contracts/MutliSigWalletClassExample.sol\":3476:3504  transaction.numConfirmations */\n      0x04\n      add\n      sload\n        /* \"contracts/MutliSigWalletClassExample.sol\":3476:3532  transaction.numConfirmations >= numConfirmationsRequired */\n      lt\n      iszero\n        /* \"contracts/MutliSigWalletClassExample.sol\":3454:3600  require(\r... */\n      tag_179\n      jumpi\n      mload(0x40)\n      shl(0xe5, 0x461bcd)\n      dup2\n      mstore\n        /* \"#utility.yul\":5492:5494   */\n      0x20\n        /* \"contracts/MutliSigWalletClassExample.sol\":3454:3600  require(\r... */\n      0x04\n      dup3\n      add\n        /* \"#utility.yul\":5474:5495   */\n      mstore\n        /* \"#utility.yul\":5531:5533   */\n      0x28\n        /* \"#utility.yul\":5511:5529   */\n      0x24\n      dup3\n      add\n        /* \"#utility.yul\":5504:5534   */\n      mstore\n        /* \"#utility.yul\":5570:5604   */\n      0x2043616e7420657865757465207478206e6f7420656e6f75676820636f6e6669\n        /* \"#utility.yul\":5550:5568   */\n      0x44\n      dup3\n      add\n        /* \"#utility.yul\":5543:5605   */\n      mstore\n      shl(0xc0, 0x726d6174696f6e73)\n        /* \"#utility.yul\":5621:5639   */\n      0x64\n      dup3\n      add\n        /* \"#utility.yul\":5614:5652   */\n      mstore\n        /* \"#utility.yul\":5669:5688   */\n      0x84\n      add\n        /* \"contracts/MutliSigWalletClassExample.sol\":3454:3600  require(\r... */\n      tag_88\n        /* \"#utility.yul\":5290:5694   */\n      jump\n        /* \"contracts/MutliSigWalletClassExample.sol\":3454:3600  require(\r... */\n    tag_179:\n        /* \"contracts/MutliSigWalletClassExample.sol\":3611:3631  transaction.executed */\n      0x03\n      dup2\n      add\n        /* \"contracts/MutliSigWalletClassExample.sol\":3611:3638  transaction.executed = true */\n      dup1\n      sload\n      not(0xff)\n      and\n        /* \"contracts/MutliSigWalletClassExample.sol\":3634:3638  true */\n      0x01\n        /* \"contracts/MutliSigWalletClassExample.sol\":3611:3638  transaction.executed = true */\n      swap1\n      dup2\n      or\n      swap1\n      swap2\n      sstore\n        /* \"contracts/MutliSigWalletClassExample.sol\":3668:3682  transaction.to */\n      dup2\n      sload\n        /* \"contracts/MutliSigWalletClassExample.sol\":3705:3722  transaction.value */\n      swap1\n      dup3\n      add\n      sload\n        /* \"contracts/MutliSigWalletClassExample.sol\":3668:3765  transaction.to.call{gas:20000,value: transaction.value}(\r... */\n      mload(0x40)\n        /* \"contracts/MutliSigWalletClassExample.sol\":3611:3631  transaction.executed */\n      0x00\n      swap3\n      sub(shl(0xa0, 0x01), 0x01)\n        /* \"contracts/MutliSigWalletClassExample.sol\":3668:3682  transaction.to */\n      and\n      swap2\n        /* \"contracts/MutliSigWalletClassExample.sol\":3692:3697  20000 */\n      0x4e20\n      swap2\n        /* \"contracts/MutliSigWalletClassExample.sol\":3668:3765  transaction.to.call{gas:20000,value: transaction.value}(\r... */\n      tag_182\n      swap1\n        /* \"contracts/MutliSigWalletClassExample.sol\":3738:3754  transaction.data */\n      0x02\n      dup8\n      add\n      swap1\n        /* \"contracts/MutliSigWalletClassExample.sol\":3668:3765  transaction.to.call{gas:20000,value: transaction.value}(\r... */\n      tag_183\n      jump\t// in\n    tag_182:\n      0x00\n      mload(0x40)\n      dup1\n      dup4\n      sub\n      dup2\n      dup6\n      dup9\n      dup9\n      call\n      swap4\n      pop\n      pop\n      pop\n      pop\n      returndatasize\n      dup1\n      0x00\n      dup2\n      eq\n      tag_186\n      jumpi\n      mload(0x40)\n      swap2\n      pop\n      and(add(returndatasize, 0x3f), not(0x1f))\n      dup3\n      add\n      0x40\n      mstore\n      returndatasize\n      dup3\n      mstore\n      returndatasize\n      0x00\n      0x20\n      dup5\n      add\n      returndatacopy\n      jump(tag_185)\n    tag_186:\n      0x60\n      swap2\n      pop\n    tag_185:\n      pop\n        /* \"contracts/MutliSigWalletClassExample.sol\":3649:3765  (bool success, ) = transaction.to.call{gas:20000,value: transaction.value}(\r... */\n      pop\n      swap1\n      pop\n        /* \"contracts/MutliSigWalletClassExample.sol\":3784:3791  success */\n      dup1\n        /* \"contracts/MutliSigWalletClassExample.sol\":3776:3805  require(success, \"tx failed\") */\n      tag_187\n      jumpi\n      mload(0x40)\n      shl(0xe5, 0x461bcd)\n      dup2\n      mstore\n        /* \"#utility.yul\":6243:6245   */\n      0x20\n        /* \"contracts/MutliSigWalletClassExample.sol\":3776:3805  require(success, \"tx failed\") */\n      0x04\n      dup3\n      add\n        /* \"#utility.yul\":6225:6246   */\n      mstore\n        /* \"#utility.yul\":6282:6283   */\n      0x09\n        /* \"#utility.yul\":6262:6280   */\n      0x24\n      dup3\n      add\n        /* \"#utility.yul\":6255:6284   */\n      mstore\n      shl(0xba, 0x1d1e0819985a5b1959)\n        /* \"#utility.yul\":6300:6318   */\n      0x44\n      dup3\n      add\n        /* \"#utility.yul\":6293:6332   */\n      mstore\n        /* \"#utility.yul\":6349:6367   */\n      0x64\n      add\n        /* \"contracts/MutliSigWalletClassExample.sol\":3776:3805  require(success, \"tx failed\") */\n      tag_88\n        /* \"#utility.yul\":6041:6373   */\n      jump\n        /* \"contracts/MutliSigWalletClassExample.sol\":3776:3805  require(success, \"tx failed\") */\n    tag_187:\n        /* \"contracts/MutliSigWalletClassExample.sol\":3831:3871  ExecuteTransaction(msg.sender, _txIndex) */\n      mload(0x40)\n        /* \"contracts/MutliSigWalletClassExample.sol\":3862:3870  _txIndex */\n      dup6\n      swap1\n        /* \"contracts/MutliSigWalletClassExample.sol\":3850:3860  msg.sender */\n      caller\n      swap1\n        /* \"contracts/MutliSigWalletClassExample.sol\":3831:3871  ExecuteTransaction(msg.sender, _txIndex) */\n      0x5445f318f4f5fcfb66592e68e0cc5822aa15664039bd5f0ffde24c5a8142b1ac\n      swap1\n      0x00\n      swap1\n      log3\n        /* \"contracts/MutliSigWalletClassExample.sol\":3366:3879  {\r... */\n      pop\n      pop\n        /* \"contracts/MutliSigWalletClassExample.sol\":1157:1158  _ */\n      pop\n        /* \"contracts/MutliSigWalletClassExample.sol\":1020:1021  _ */\n      pop\n        /* \"contracts/MutliSigWalletClassExample.sol\":3221:3879  function executeTransaction(uint256 _txIndex)\r... */\n      pop\n      jump\t// out\n        /* \"contracts/MutliSigWalletClassExample.sol\":2966:3180  function DepositETH() public payable{\r... */\n    tag_83:\n        /* \"contracts/MutliSigWalletClassExample.sol\":3029:3068  address(this).call{value:msg.value}(\"\") */\n      mload(0x40)\n        /* \"contracts/MutliSigWalletClassExample.sol\":3014:3026  bool success */\n      0x00\n      swap1\n        /* \"contracts/MutliSigWalletClassExample.sol\":3037:3041  this */\n      address\n      swap1\n        /* \"contracts/MutliSigWalletClassExample.sol\":3054:3063  msg.value */\n      callvalue\n      swap1\n        /* \"contracts/MutliSigWalletClassExample.sol\":3014:3026  bool success */\n      dup4\n        /* \"contracts/MutliSigWalletClassExample.sol\":3029:3068  address(this).call{value:msg.value}(\"\") */\n      dup2\n        /* \"contracts/MutliSigWalletClassExample.sol\":3014:3026  bool success */\n      dup2\n        /* \"contracts/MutliSigWalletClassExample.sol\":3029:3068  address(this).call{value:msg.value}(\"\") */\n      dup2\n        /* \"contracts/MutliSigWalletClassExample.sol\":3054:3063  msg.value */\n      dup6\n        /* \"contracts/MutliSigWalletClassExample.sol\":3037:3041  this */\n      dup8\n        /* \"contracts/MutliSigWalletClassExample.sol\":3029:3068  address(this).call{value:msg.value}(\"\") */\n      gas\n      call\n      swap3\n      pop\n      pop\n      pop\n      returndatasize\n      dup1\n      0x00\n      dup2\n      eq\n      tag_195\n      jumpi\n      mload(0x40)\n      swap2\n      pop\n      and(add(returndatasize, 0x3f), not(0x1f))\n      dup3\n      add\n      0x40\n      mstore\n      returndatasize\n      dup3\n      mstore\n      returndatasize\n      0x00\n      0x20\n      dup5\n      add\n      returndatacopy\n      jump(tag_194)\n    tag_195:\n      0x60\n      swap2\n      pop\n    tag_194:\n      pop\n        /* \"contracts/MutliSigWalletClassExample.sol\":3013:3068  (bool success,)=address(this).call{value:msg.value}(\"\") */\n      pop\n      swap1\n      pop\n        /* \"contracts/MutliSigWalletClassExample.sol\":3087:3094  success */\n      dup1\n        /* \"contracts/MutliSigWalletClassExample.sol\":3079:3105  require(success,\"invalid\") */\n      tag_196\n      jumpi\n      mload(0x40)\n      shl(0xe5, 0x461bcd)\n      dup2\n      mstore\n        /* \"#utility.yul\":7979:7981   */\n      0x20\n        /* \"contracts/MutliSigWalletClassExample.sol\":3079:3105  require(success,\"invalid\") */\n      0x04\n      dup3\n      add\n        /* \"#utility.yul\":7961:7982   */\n      mstore\n        /* \"#utility.yul\":8018:8019   */\n      0x07\n        /* \"#utility.yul\":7998:8016   */\n      0x24\n      dup3\n      add\n        /* \"#utility.yul\":7991:8020   */\n      mstore\n      shl(0xca, 0x1a5b9d985b1a59)\n        /* \"#utility.yul\":8036:8054   */\n      0x44\n      dup3\n      add\n        /* \"#utility.yul\":8029:8066   */\n      mstore\n        /* \"#utility.yul\":8083:8101   */\n      0x64\n      add\n        /* \"contracts/MutliSigWalletClassExample.sol\":3079:3105  require(success,\"invalid\") */\n      tag_88\n        /* \"#utility.yul\":7777:8107   */\n      jump\n        /* \"contracts/MutliSigWalletClassExample.sol\":3079:3105  require(success,\"invalid\") */\n    tag_196:\n        /* \"contracts/MutliSigWalletClassExample.sol\":3121:3172  Deposit(msg.sender,msg.value,address(this).balance) */\n      0x40\n      dup1\n      mload\n        /* \"contracts/MutliSigWalletClassExample.sol\":3140:3149  msg.value */\n      callvalue\n        /* \"#utility.yul\":8761:8786   */\n      dup2\n      mstore\n        /* \"contracts/MutliSigWalletClassExample.sol\":3150:3171  address(this).balance */\n      selfbalance\n        /* \"#utility.yul\":8817:8819   */\n      0x20\n        /* \"#utility.yul\":8802:8820   */\n      dup3\n      add\n        /* \"#utility.yul\":8795:8829   */\n      mstore\n        /* \"contracts/MutliSigWalletClassExample.sol\":3129:3139  msg.sender */\n      caller\n      swap2\n        /* \"contracts/MutliSigWalletClassExample.sol\":3121:3172  Deposit(msg.sender,msg.value,address(this).balance) */\n      0x90890809c654f11d6e72a28fa60149770a0d11ec6c92319d6ceb2bb0a4ea1a15\n      swap2\n        /* \"#utility.yul\":8734:8752   */\n      add\n        /* \"contracts/MutliSigWalletClassExample.sol\":3121:3172  Deposit(msg.sender,msg.value,address(this).balance) */\n      mload(0x40)\n      dup1\n      swap2\n      sub\n      swap1\n      log2\n        /* \"contracts/MutliSigWalletClassExample.sol\":3002:3180  {\r... */\n      pop\n        /* \"contracts/MutliSigWalletClassExample.sol\":2966:3180  function DepositETH() public payable{\r... */\n      jump\t// out\n    tag_160:\n      dup3\n      dup1\n      sload\n      tag_201\n      swap1\n      tag_117\n      jump\t// in\n    tag_201:\n      swap1\n      0x00\n      mstore\n      keccak256(0x00, 0x20)\n      swap1\n      0x1f\n      add\n      0x20\n      swap1\n      div\n      dup2\n      add\n      swap3\n      dup3\n      tag_203\n      jumpi\n      0x00\n      dup6\n      sstore\n      jump(tag_206)\n    tag_203:\n      dup3\n      0x1f\n      lt\n      tag_204\n      jumpi\n      dup1\n      mload\n      not(0xff)\n      and\n      dup4\n      dup1\n      add\n      or\n      dup6\n      sstore\n      jump(tag_206)\n    tag_204:\n      dup3\n      dup1\n      add\n      0x01\n      add\n      dup6\n      sstore\n      dup3\n      iszero\n      tag_206\n      jumpi\n      swap2\n      dup3\n      add\n    tag_205:\n      dup3\n      dup2\n      gt\n      iszero\n      tag_206\n      jumpi\n      dup3\n      mload\n      dup3\n      sstore\n      swap2\n      0x20\n      add\n      swap2\n      swap1\n      0x01\n      add\n      swap1\n      jump(tag_205)\n    tag_206:\n      pop\n      tag_207\n      swap3\n      swap2\n      pop\n      tag_208\n      jump\t// in\n    tag_207:\n      pop\n      swap1\n      jump\t// out\n    tag_208:\n    tag_209:\n      dup1\n      dup3\n      gt\n      iszero\n      tag_207\n      jumpi\n      0x00\n      dup2\n      sstore\n      0x01\n      add\n      jump(tag_209)\n        /* \"#utility.yul\":14:187   */\n    tag_212:\n        /* \"#utility.yul\":82:102   */\n      dup1\n      calldataload\n      sub(shl(0xa0, 0x01), 0x01)\n        /* \"#utility.yul\":131:162   */\n      dup2\n      and\n        /* \"#utility.yul\":121:163   */\n      dup2\n      eq\n        /* \"#utility.yul\":111:181   */\n      tag_214\n      jumpi\n        /* \"#utility.yul\":177:178   */\n      0x00\n        /* \"#utility.yul\":174:175   */\n      dup1\n        /* \"#utility.yul\":167:179   */\n      revert\n        /* \"#utility.yul\":111:181   */\n    tag_214:\n        /* \"#utility.yul\":14:187   */\n      swap2\n      swap1\n      pop\n      jump\t// out\n        /* \"#utility.yul\":192:378   */\n    tag_39:\n        /* \"#utility.yul\":251:257   */\n      0x00\n        /* \"#utility.yul\":304:306   */\n      0x20\n        /* \"#utility.yul\":292:301   */\n      dup3\n        /* \"#utility.yul\":283:290   */\n      dup5\n        /* \"#utility.yul\":279:302   */\n      sub\n        /* \"#utility.yul\":275:307   */\n      slt\n        /* \"#utility.yul\":272:324   */\n      iszero\n      tag_216\n      jumpi\n        /* \"#utility.yul\":320:321   */\n      0x00\n        /* \"#utility.yul\":317:318   */\n      dup1\n        /* \"#utility.yul\":310:322   */\n      revert\n        /* \"#utility.yul\":272:324   */\n    tag_216:\n        /* \"#utility.yul\":343:372   */\n      tag_217\n        /* \"#utility.yul\":362:371   */\n      dup3\n        /* \"#utility.yul\":343:372   */\n      tag_212\n      jump\t// in\n    tag_217:\n        /* \"#utility.yul\":333:372   */\n      swap4\n        /* \"#utility.yul\":192:378   */\n      swap3\n      pop\n      pop\n      pop\n      jump\t// out\n        /* \"#utility.yul\":383:1446   */\n    tag_72:\n        /* \"#utility.yul\":469:475   */\n      0x00\n        /* \"#utility.yul\":477:483   */\n      dup1\n        /* \"#utility.yul\":485:491   */\n      0x00\n        /* \"#utility.yul\":538:540   */\n      0x60\n        /* \"#utility.yul\":526:535   */\n      dup5\n        /* \"#utility.yul\":517:524   */\n      dup7\n        /* \"#utility.yul\":513:536   */\n      sub\n        /* \"#utility.yul\":509:541   */\n      slt\n        /* \"#utility.yul\":506:558   */\n      iszero\n      tag_219\n      jumpi\n        /* \"#utility.yul\":554:555   */\n      0x00\n        /* \"#utility.yul\":551:552   */\n      dup1\n        /* \"#utility.yul\":544:556   */\n      revert\n        /* \"#utility.yul\":506:558   */\n    tag_219:\n        /* \"#utility.yul\":577:606   */\n      tag_220\n        /* \"#utility.yul\":596:605   */\n      dup5\n        /* \"#utility.yul\":577:606   */\n      tag_212\n      jump\t// in\n    tag_220:\n        /* \"#utility.yul\":567:606   */\n      swap3\n      pop\n        /* \"#utility.yul\":653:655   */\n      0x20\n        /* \"#utility.yul\":642:651   */\n      dup5\n        /* \"#utility.yul\":638:656   */\n      add\n        /* \"#utility.yul\":625:657   */\n      calldataload\n        /* \"#utility.yul\":615:657   */\n      swap2\n      pop\n        /* \"#utility.yul\":708:710   */\n      0x40\n        /* \"#utility.yul\":697:706   */\n      dup5\n        /* \"#utility.yul\":693:711   */\n      add\n        /* \"#utility.yul\":680:712   */\n      calldataload\n        /* \"#utility.yul\":731:749   */\n      0xffffffffffffffff\n        /* \"#utility.yul\":772:774   */\n      dup1\n        /* \"#utility.yul\":764:770   */\n      dup3\n        /* \"#utility.yul\":761:775   */\n      gt\n        /* \"#utility.yul\":758:792   */\n      iszero\n      tag_221\n      jumpi\n        /* \"#utility.yul\":788:789   */\n      0x00\n        /* \"#utility.yul\":785:786   */\n      dup1\n        /* \"#utility.yul\":778:790   */\n      revert\n        /* \"#utility.yul\":758:792   */\n    tag_221:\n        /* \"#utility.yul\":826:832   */\n      dup2\n        /* \"#utility.yul\":815:824   */\n      dup7\n        /* \"#utility.yul\":811:833   */\n      add\n        /* \"#utility.yul\":801:833   */\n      swap2\n      pop\n        /* \"#utility.yul\":871:878   */\n      dup7\n        /* \"#utility.yul\":864:868   */\n      0x1f\n        /* \"#utility.yul\":860:862   */\n      dup4\n        /* \"#utility.yul\":856:869   */\n      add\n        /* \"#utility.yul\":852:879   */\n      slt\n        /* \"#utility.yul\":842:897   */\n      tag_222\n      jumpi\n        /* \"#utility.yul\":893:894   */\n      0x00\n        /* \"#utility.yul\":890:891   */\n      dup1\n        /* \"#utility.yul\":883:895   */\n      revert\n        /* \"#utility.yul\":842:897   */\n    tag_222:\n        /* \"#utility.yul\":929:931   */\n      dup2\n        /* \"#utility.yul\":916:932   */\n      calldataload\n        /* \"#utility.yul\":951:953   */\n      dup2\n        /* \"#utility.yul\":947:949   */\n      dup2\n        /* \"#utility.yul\":944:954   */\n      gt\n        /* \"#utility.yul\":941:977   */\n      iszero\n      tag_224\n      jumpi\n        /* \"#utility.yul\":957:975   */\n      tag_224\n      tag_225\n      jump\t// in\n    tag_224:\n        /* \"#utility.yul\":1032:1034   */\n      0x40\n        /* \"#utility.yul\":1026:1035   */\n      mload\n        /* \"#utility.yul\":1000:1002   */\n      0x1f\n        /* \"#utility.yul\":1086:1099   */\n      dup3\n      add\n      not(0x1f)\n        /* \"#utility.yul\":1082:1104   */\n      swap1\n      dup2\n      and\n        /* \"#utility.yul\":1106:1108   */\n      0x3f\n        /* \"#utility.yul\":1078:1109   */\n      add\n        /* \"#utility.yul\":1074:1114   */\n      and\n        /* \"#utility.yul\":1062:1115   */\n      dup2\n      add\n      swap1\n        /* \"#utility.yul\":1130:1148   */\n      dup4\n      dup3\n      gt\n        /* \"#utility.yul\":1150:1172   */\n      dup2\n      dup4\n      lt\n        /* \"#utility.yul\":1127:1173   */\n      or\n        /* \"#utility.yul\":1124:1196   */\n      iszero\n      tag_227\n      jumpi\n        /* \"#utility.yul\":1176:1194   */\n      tag_227\n      tag_225\n      jump\t// in\n    tag_227:\n        /* \"#utility.yul\":1216:1226   */\n      dup2\n        /* \"#utility.yul\":1212:1214   */\n      0x40\n        /* \"#utility.yul\":1205:1227   */\n      mstore\n        /* \"#utility.yul\":1251:1253   */\n      dup3\n        /* \"#utility.yul\":1243:1249   */\n      dup2\n        /* \"#utility.yul\":1236:1254   */\n      mstore\n        /* \"#utility.yul\":1291:1298   */\n      dup10\n        /* \"#utility.yul\":1286:1288   */\n      0x20\n        /* \"#utility.yul\":1281:1283   */\n      dup5\n        /* \"#utility.yul\":1277:1279   */\n      dup8\n        /* \"#utility.yul\":1273:1284   */\n      add\n        /* \"#utility.yul\":1269:1289   */\n      add\n        /* \"#utility.yul\":1266:1299   */\n      gt\n        /* \"#utility.yul\":1263:1316   */\n      iszero\n      tag_228\n      jumpi\n        /* \"#utility.yul\":1312:1313   */\n      0x00\n        /* \"#utility.yul\":1309:1310   */\n      dup1\n        /* \"#utility.yul\":1302:1314   */\n      revert\n        /* \"#utility.yul\":1263:1316   */\n    tag_228:\n        /* \"#utility.yul\":1368:1370   */\n      dup3\n        /* \"#utility.yul\":1363:1365   */\n      0x20\n        /* \"#utility.yul\":1359:1361   */\n      dup7\n        /* \"#utility.yul\":1355:1366   */\n      add\n        /* \"#utility.yul\":1350:1352   */\n      0x20\n        /* \"#utility.yul\":1342:1348   */\n      dup4\n        /* \"#utility.yul\":1338:1353   */\n      add\n        /* \"#utility.yul\":1325:1371   */\n      calldatacopy\n        /* \"#utility.yul\":1413:1414   */\n      0x00\n        /* \"#utility.yul\":1408:1410   */\n      0x20\n        /* \"#utility.yul\":1403:1405   */\n      dup5\n        /* \"#utility.yul\":1395:1401   */\n      dup4\n        /* \"#utility.yul\":1391:1406   */\n      add\n        /* \"#utility.yul\":1387:1411   */\n      add\n        /* \"#utility.yul\":1380:1415   */\n      mstore\n        /* \"#utility.yul\":1434:1440   */\n      dup1\n        /* \"#utility.yul\":1424:1440   */\n      swap6\n      pop\n      pop\n      pop\n      pop\n      pop\n      pop\n        /* \"#utility.yul\":383:1446   */\n      swap3\n      pop\n      swap3\n      pop\n      swap3\n      jump\t// out\n        /* \"#utility.yul\":1451:1631   */\n    tag_23:\n        /* \"#utility.yul\":1510:1516   */\n      0x00\n        /* \"#utility.yul\":1563:1565   */\n      0x20\n        /* \"#utility.yul\":1551:1560   */\n      dup3\n        /* \"#utility.yul\":1542:1549   */\n      dup5\n        /* \"#utility.yul\":1538:1561   */\n      sub\n        /* \"#utility.yul\":1534:1566   */\n      slt\n        /* \"#utility.yul\":1531:1583   */\n      iszero\n      tag_230\n      jumpi\n        /* \"#utility.yul\":1579:1580   */\n      0x00\n        /* \"#utility.yul\":1576:1577   */\n      dup1\n        /* \"#utility.yul\":1569:1581   */\n      revert\n        /* \"#utility.yul\":1531:1583   */\n    tag_230:\n      pop\n        /* \"#utility.yul\":1602:1625   */\n      calldataload\n      swap2\n        /* \"#utility.yul\":1451:1631   */\n      swap1\n      pop\n      jump\t// out\n        /* \"#utility.yul\":1636:1890   */\n    tag_52:\n        /* \"#utility.yul\":1704:1710   */\n      0x00\n        /* \"#utility.yul\":1712:1718   */\n      dup1\n        /* \"#utility.yul\":1765:1767   */\n      0x40\n        /* \"#utility.yul\":1753:1762   */\n      dup4\n        /* \"#utility.yul\":1744:1751   */\n      dup6\n        /* \"#utility.yul\":1740:1763   */\n      sub\n        /* \"#utility.yul\":1736:1768   */\n      slt\n        /* \"#utility.yul\":1733:1785   */\n      iszero\n      tag_232\n      jumpi\n        /* \"#utility.yul\":1781:1782   */\n      0x00\n        /* \"#utility.yul\":1778:1779   */\n      dup1\n        /* \"#utility.yul\":1771:1783   */\n      revert\n        /* \"#utility.yul\":1733:1785   */\n    tag_232:\n        /* \"#utility.yul\":1817:1826   */\n      dup3\n        /* \"#utility.yul\":1804:1827   */\n      calldataload\n        /* \"#utility.yul\":1794:1827   */\n      swap2\n      pop\n        /* \"#utility.yul\":1846:1884   */\n      tag_233\n        /* \"#utility.yul\":1880:1882   */\n      0x20\n        /* \"#utility.yul\":1869:1878   */\n      dup5\n        /* \"#utility.yul\":1865:1883   */\n      add\n        /* \"#utility.yul\":1846:1884   */\n      tag_212\n      jump\t// in\n    tag_233:\n        /* \"#utility.yul\":1836:1884   */\n      swap1\n      pop\n        /* \"#utility.yul\":1636:1890   */\n      swap3\n      pop\n      swap3\n      swap1\n      pop\n      jump\t// out\n        /* \"#utility.yul\":1895:2366   */\n    tag_234:\n        /* \"#utility.yul\":1936:1939   */\n      0x00\n        /* \"#utility.yul\":1974:1979   */\n      dup2\n        /* \"#utility.yul\":1968:1980   */\n      mload\n        /* \"#utility.yul\":2001:2007   */\n      dup1\n        /* \"#utility.yul\":1996:1999   */\n      dup5\n        /* \"#utility.yul\":1989:2008   */\n      mstore\n        /* \"#utility.yul\":2026:2027   */\n      0x00\n        /* \"#utility.yul\":2036:2198   */\n    tag_236:\n        /* \"#utility.yul\":2050:2056   */\n      dup2\n        /* \"#utility.yul\":2047:2048   */\n      dup2\n        /* \"#utility.yul\":2044:2057   */\n      lt\n        /* \"#utility.yul\":2036:2198   */\n      iszero\n      tag_238\n      jumpi\n        /* \"#utility.yul\":2112:2116   */\n      0x20\n        /* \"#utility.yul\":2168:2181   */\n      dup2\n      dup6\n      add\n        /* \"#utility.yul\":2164:2186   */\n      dup2\n      add\n        /* \"#utility.yul\":2158:2187   */\n      mload\n        /* \"#utility.yul\":2140:2151   */\n      dup7\n      dup4\n      add\n        /* \"#utility.yul\":2136:2156   */\n      dup3\n      add\n        /* \"#utility.yul\":2129:2188   */\n      mstore\n        /* \"#utility.yul\":2065:2077   */\n      add\n        /* \"#utility.yul\":2036:2198   */\n      jump(tag_236)\n    tag_238:\n        /* \"#utility.yul\":2216:2222   */\n      dup2\n        /* \"#utility.yul\":2213:2214   */\n      dup2\n        /* \"#utility.yul\":2210:2223   */\n      gt\n        /* \"#utility.yul\":2207:2294   */\n      iszero\n      tag_239\n      jumpi\n        /* \"#utility.yul\":2282:2283   */\n      0x00\n        /* \"#utility.yul\":2275:2279   */\n      0x20\n        /* \"#utility.yul\":2266:2272   */\n      dup4\n        /* \"#utility.yul\":2261:2264   */\n      dup8\n        /* \"#utility.yul\":2257:2273   */\n      add\n        /* \"#utility.yul\":2253:2280   */\n      add\n        /* \"#utility.yul\":2246:2284   */\n      mstore\n        /* \"#utility.yul\":2207:2294   */\n    tag_239:\n      pop\n        /* \"#utility.yul\":2348:2350   */\n      0x1f\n        /* \"#utility.yul\":2327:2342   */\n      add\n      not(0x1f)\n        /* \"#utility.yul\":2323:2352   */\n      and\n        /* \"#utility.yul\":2314:2353   */\n      swap3\n      swap1\n      swap3\n      add\n        /* \"#utility.yul\":2355:2359   */\n      0x20\n        /* \"#utility.yul\":2310:2360   */\n      add\n      swap3\n        /* \"#utility.yul\":1895:2366   */\n      swap2\n      pop\n      pop\n      jump\t// out\n        /* \"#utility.yul\":2371:3467   */\n    tag_183:\n        /* \"#utility.yul\":2497:2500   */\n      0x00\n        /* \"#utility.yul\":2526:2527   */\n      dup1\n        /* \"#utility.yul\":2559:2565   */\n      dup4\n        /* \"#utility.yul\":2553:2566   */\n      sload\n        /* \"#utility.yul\":2589:2592   */\n      dup2\n        /* \"#utility.yul\":2611:2612   */\n      0x01\n        /* \"#utility.yul\":2639:2648   */\n      dup3\n        /* \"#utility.yul\":2635:2637   */\n      dup2\n        /* \"#utility.yul\":2631:2649   */\n      shr\n        /* \"#utility.yul\":2621:2649   */\n      swap2\n      pop\n        /* \"#utility.yul\":2699:2701   */\n      dup1\n        /* \"#utility.yul\":2688:2697   */\n      dup4\n        /* \"#utility.yul\":2684:2702   */\n      and\n        /* \"#utility.yul\":2721:2739   */\n      dup1\n        /* \"#utility.yul\":2711:2772   */\n      tag_241\n      jumpi\n        /* \"#utility.yul\":2765:2769   */\n      0x7f\n        /* \"#utility.yul\":2757:2763   */\n      dup4\n        /* \"#utility.yul\":2753:2770   */\n      and\n        /* \"#utility.yul\":2743:2770   */\n      swap3\n      pop\n        /* \"#utility.yul\":2711:2772   */\n    tag_241:\n        /* \"#utility.yul\":2791:2793   */\n      0x20\n        /* \"#utility.yul\":2839:2841   */\n      dup1\n        /* \"#utility.yul\":2831:2837   */\n      dup5\n        /* \"#utility.yul\":2828:2842   */\n      lt\n        /* \"#utility.yul\":2808:2826   */\n      dup3\n        /* \"#utility.yul\":2805:2843   */\n      eq\n        /* \"#utility.yul\":2802:2967   */\n      iszero\n      tag_242\n      jumpi\n      shl(0xe0, 0x4e487b71)\n        /* \"#utility.yul\":2866:2899   */\n      dup7\n      mstore\n        /* \"#utility.yul\":2922:2926   */\n      0x22\n        /* \"#utility.yul\":2919:2920   */\n      0x04\n        /* \"#utility.yul\":2912:2927   */\n      mstore\n        /* \"#utility.yul\":2952:2956   */\n      0x24\n        /* \"#utility.yul\":2873:2876   */\n      dup7\n        /* \"#utility.yul\":2940:2957   */\n      revert\n        /* \"#utility.yul\":2802:2967   */\n    tag_242:\n        /* \"#utility.yul\":2983:3001   */\n      dup2\n        /* \"#utility.yul\":3010:3114   */\n      dup1\n      iszero\n      tag_244\n      jumpi\n        /* \"#utility.yul\":3128:3129   */\n      0x01\n        /* \"#utility.yul\":3123:3442   */\n      dup2\n      eq\n      tag_245\n      jumpi\n        /* \"#utility.yul\":2976:3442   */\n      jump(tag_243)\n        /* \"#utility.yul\":3010:3114   */\n    tag_244:\n      not(0xff)\n        /* \"#utility.yul\":3043:3067   */\n      dup7\n      and\n        /* \"#utility.yul\":3031:3068   */\n      dup10\n      mstore\n        /* \"#utility.yul\":3088:3104   */\n      dup5\n      dup10\n      add\n      swap7\n      pop\n        /* \"#utility.yul\":3010:3114   */\n      jump(tag_243)\n        /* \"#utility.yul\":3123:3442   */\n    tag_245:\n        /* \"#utility.yul\":8912:8913   */\n      0x00\n        /* \"#utility.yul\":8905:8919   */\n      dup11\n      dup2\n      mstore\n        /* \"#utility.yul\":8949:8953   */\n      0x20\n        /* \"#utility.yul\":8936:8954   */\n      swap1\n      keccak256\n        /* \"#utility.yul\":3217:3218   */\n      0x00\n        /* \"#utility.yul\":3231:3396   */\n    tag_248:\n        /* \"#utility.yul\":3245:3251   */\n      dup7\n        /* \"#utility.yul\":3242:3243   */\n      dup2\n        /* \"#utility.yul\":3239:3252   */\n      lt\n        /* \"#utility.yul\":3231:3396   */\n      iszero\n      tag_250\n      jumpi\n        /* \"#utility.yul\":3323:3337   */\n      dup2\n      sload\n        /* \"#utility.yul\":3310:3321   */\n      dup12\n      dup3\n      add\n        /* \"#utility.yul\":3303:3338   */\n      mstore\n        /* \"#utility.yul\":3366:3382   */\n      swap1\n      dup6\n      add\n      swap1\n        /* \"#utility.yul\":3260:3270   */\n      dup4\n      add\n        /* \"#utility.yul\":3231:3396   */\n      jump(tag_248)\n    tag_250:\n        /* \"#utility.yul\":3235:3238   */\n      pop\n      pop\n        /* \"#utility.yul\":3425:3431   */\n      dup5\n        /* \"#utility.yul\":3420:3423   */\n      dup10\n        /* \"#utility.yul\":3416:3432   */\n      add\n        /* \"#utility.yul\":3409:3432   */\n      swap7\n      pop\n        /* \"#utility.yul\":2976:3442   */\n    tag_243:\n      pop\n        /* \"#utility.yul\":3458:3461   */\n      swap5\n      swap9\n        /* \"#utility.yul\":2371:3467   */\n      swap8\n      pop\n      pop\n      pop\n      pop\n      pop\n      pop\n      pop\n      pop\n      jump\t// out\n        /* \"#utility.yul\":3890:4430   */\n    tag_48:\n        /* \"#utility.yul\":4172:4173   */\n      0x01\n        /* \"#utility.yul\":4168:4169   */\n      dup1\n        /* \"#utility.yul\":4163:4166   */\n      0xa0\n        /* \"#utility.yul\":4159:4170   */\n      shl\n        /* \"#utility.yul\":4155:4174   */\n      sub\n        /* \"#utility.yul\":4147:4153   */\n      dup7\n        /* \"#utility.yul\":4143:4175   */\n      and\n        /* \"#utility.yul\":4132:4141   */\n      dup2\n        /* \"#utility.yul\":4125:4176   */\n      mstore\n        /* \"#utility.yul\":4212:4218   */\n      dup5\n        /* \"#utility.yul\":4207:4209   */\n      0x20\n        /* \"#utility.yul\":4196:4205   */\n      dup3\n        /* \"#utility.yul\":4192:4210   */\n      add\n        /* \"#utility.yul\":4185:4219   */\n      mstore\n        /* \"#utility.yul\":4255:4258   */\n      0xa0\n        /* \"#utility.yul\":4250:4252   */\n      0x40\n        /* \"#utility.yul\":4239:4248   */\n      dup3\n        /* \"#utility.yul\":4235:4253   */\n      add\n        /* \"#utility.yul\":4228:4259   */\n      mstore\n        /* \"#utility.yul\":4106:4110   */\n      0x00\n        /* \"#utility.yul\":4276:4321   */\n      tag_254\n        /* \"#utility.yul\":4316:4319   */\n      0xa0\n        /* \"#utility.yul\":4305:4314   */\n      dup4\n        /* \"#utility.yul\":4301:4320   */\n      add\n        /* \"#utility.yul\":4293:4299   */\n      dup7\n        /* \"#utility.yul\":4276:4321   */\n      tag_234\n      jump\t// in\n    tag_254:\n        /* \"#utility.yul\":4364:4378   */\n      swap4\n      iszero\n        /* \"#utility.yul\":4357:4379   */\n      iszero\n        /* \"#utility.yul\":4352:4354   */\n      0x60\n        /* \"#utility.yul\":4337:4355   */\n      dup4\n      add\n        /* \"#utility.yul\":4330:4380   */\n      mstore\n      pop\n        /* \"#utility.yul\":4411:4414   */\n      0x80\n        /* \"#utility.yul\":4396:4415   */\n      add\n        /* \"#utility.yul\":4389:4424   */\n      mstore\n        /* \"#utility.yul\":4268:4321   */\n      swap4\n        /* \"#utility.yul\":3890:4430   */\n      swap3\n      pop\n      pop\n      pop\n      jump\t// out\n        /* \"#utility.yul\":4435:5093   */\n    tag_64:\n        /* \"#utility.yul\":4606:4608   */\n      0x20\n        /* \"#utility.yul\":4658:4679   */\n      dup1\n      dup3\n      mstore\n        /* \"#utility.yul\":4728:4741   */\n      dup3\n      mload\n        /* \"#utility.yul\":4631:4649   */\n      dup3\n      dup3\n      add\n        /* \"#utility.yul\":4750:4772   */\n      dup2\n      swap1\n      mstore\n        /* \"#utility.yul\":4577:4581   */\n      0x00\n      swap2\n        /* \"#utility.yul\":4606:4608   */\n      swap1\n        /* \"#utility.yul\":4829:4844   */\n      dup5\n      dup3\n      add\n      swap1\n        /* \"#utility.yul\":4803:4805   */\n      0x40\n        /* \"#utility.yul\":4788:4806   */\n      dup6\n      add\n      swap1\n        /* \"#utility.yul\":4577:4581   */\n      dup5\n        /* \"#utility.yul\":4872:5067   */\n    tag_256:\n        /* \"#utility.yul\":4886:4892   */\n      dup2\n        /* \"#utility.yul\":4883:4884   */\n      dup2\n        /* \"#utility.yul\":4880:4893   */\n      lt\n        /* \"#utility.yul\":4872:5067   */\n      iszero\n      tag_258\n      jumpi\n        /* \"#utility.yul\":4951:4964   */\n      dup4\n      mload\n      sub(shl(0xa0, 0x01), 0x01)\n        /* \"#utility.yul\":4947:4986   */\n      and\n        /* \"#utility.yul\":4935:4987   */\n      dup4\n      mstore\n        /* \"#utility.yul\":5042:5057   */\n      swap3\n      dup5\n      add\n      swap3\n        /* \"#utility.yul\":5007:5019   */\n      swap2\n      dup5\n      add\n      swap2\n        /* \"#utility.yul\":4983:4984   */\n      0x01\n        /* \"#utility.yul\":4901:4910   */\n      add\n        /* \"#utility.yul\":4872:5067   */\n      jump(tag_256)\n    tag_258:\n      pop\n        /* \"#utility.yul\":5084:5087   */\n      swap1\n      swap7\n        /* \"#utility.yul\":4435:5093   */\n      swap6\n      pop\n      pop\n      pop\n      pop\n      pop\n      pop\n      jump\t// out\n        /* \"#utility.yul\":5699:6036   */\n    tag_89:\n        /* \"#utility.yul\":5901:5903   */\n      0x20\n        /* \"#utility.yul\":5883:5904   */\n      dup1\n      dup3\n      mstore\n        /* \"#utility.yul\":5940:5942   */\n      0x0d\n        /* \"#utility.yul\":5920:5938   */\n      swap1\n      dup3\n      add\n        /* \"#utility.yul\":5913:5943   */\n      mstore\n      shl(0x99, 0x2737ba103a34329037bbb732b9)\n        /* \"#utility.yul\":5974:5976   */\n      0x40\n        /* \"#utility.yul\":5959:5977   */\n      dup3\n      add\n        /* \"#utility.yul\":5952:5995   */\n      mstore\n        /* \"#utility.yul\":6027:6029   */\n      0x60\n        /* \"#utility.yul\":6012:6030   */\n      add\n      swap1\n        /* \"#utility.yul\":5699:6036   */\n      jump\t// out\n        /* \"#utility.yul\":7075:7417   */\n    tag_101:\n        /* \"#utility.yul\":7277:7279   */\n      0x20\n        /* \"#utility.yul\":7259:7280   */\n      dup1\n      dup3\n      mstore\n        /* \"#utility.yul\":7316:7318   */\n      0x12\n        /* \"#utility.yul\":7296:7314   */\n      swap1\n      dup3\n      add\n        /* \"#utility.yul\":7289:7319   */\n      mstore\n      shl(0x72, 0x1d1e08185b1c9958591e48195e18dd5d1959)\n        /* \"#utility.yul\":7350:7352   */\n      0x40\n        /* \"#utility.yul\":7335:7353   */\n      dup3\n      add\n        /* \"#utility.yul\":7328:7376   */\n      mstore\n        /* \"#utility.yul\":7408:7410   */\n      0x60\n        /* \"#utility.yul\":7393:7411   */\n      add\n      swap1\n        /* \"#utility.yul\":7075:7417   */\n      jump\t// out\n        /* \"#utility.yul\":7422:7772   */\n    tag_93:\n        /* \"#utility.yul\":7624:7626   */\n      0x20\n        /* \"#utility.yul\":7606:7627   */\n      dup1\n      dup3\n      mstore\n        /* \"#utility.yul\":7663:7665   */\n      0x1a\n        /* \"#utility.yul\":7643:7661   */\n      swap1\n      dup3\n      add\n        /* \"#utility.yul\":7636:7666   */\n      mstore\n        /* \"#utility.yul\":7702:7730   */\n      0x7472616e73616374696f6e20646f6573206e6f74206578697374000000000000\n        /* \"#utility.yul\":7697:7699   */\n      0x40\n        /* \"#utility.yul\":7682:7700   */\n      dup3\n      add\n        /* \"#utility.yul\":7675:7731   */\n      mstore\n        /* \"#utility.yul\":7763:7765   */\n      0x60\n        /* \"#utility.yul\":7748:7766   */\n      add\n      swap1\n        /* \"#utility.yul\":7422:7772   */\n      jump\t// out\n        /* \"#utility.yul\":8294:8582   */\n    tag_162:\n        /* \"#utility.yul\":8469:8475   */\n      dup3\n        /* \"#utility.yul\":8458:8467   */\n      dup2\n        /* \"#utility.yul\":8451:8476   */\n      mstore\n        /* \"#utility.yul\":8512:8514   */\n      0x40\n        /* \"#utility.yul\":8507:8509   */\n      0x20\n        /* \"#utility.yul\":8496:8505   */\n      dup3\n        /* \"#utility.yul\":8492:8510   */\n      add\n        /* \"#utility.yul\":8485:8515   */\n      mstore\n        /* \"#utility.yul\":8432:8436   */\n      0x00\n        /* \"#utility.yul\":8532:8576   */\n      tag_270\n        /* \"#utility.yul\":8572:8574   */\n      0x40\n        /* \"#utility.yul\":8561:8570   */\n      dup4\n        /* \"#utility.yul\":8557:8575   */\n      add\n        /* \"#utility.yul\":8549:8555   */\n      dup5\n        /* \"#utility.yul\":8532:8576   */\n      tag_234\n      jump\t// in\n    tag_270:\n        /* \"#utility.yul\":8524:8576   */\n      swap5\n        /* \"#utility.yul\":8294:8582   */\n      swap4\n      pop\n      pop\n      pop\n      pop\n      jump\t// out\n        /* \"#utility.yul\":8965:9093   */\n    tag_153:\n        /* \"#utility.yul\":9005:9008   */\n      0x00\n        /* \"#utility.yul\":9036:9037   */\n      dup3\n        /* \"#utility.yul\":9032:9038   */\n      not\n        /* \"#utility.yul\":9029:9030   */\n      dup3\n        /* \"#utility.yul\":9026:9039   */\n      gt\n        /* \"#utility.yul\":9023:9062   */\n      iszero\n      tag_275\n      jumpi\n        /* \"#utility.yul\":9042:9060   */\n      tag_275\n      tag_276\n      jump\t// in\n    tag_275:\n      pop\n        /* \"#utility.yul\":9078:9087   */\n      add\n      swap1\n        /* \"#utility.yul\":8965:9093   */\n      jump\t// out\n        /* \"#utility.yul\":9098:9223   */\n    tag_110:\n        /* \"#utility.yul\":9138:9142   */\n      0x00\n        /* \"#utility.yul\":9166:9167   */\n      dup3\n        /* \"#utility.yul\":9163:9164   */\n      dup3\n        /* \"#utility.yul\":9160:9168   */\n      lt\n        /* \"#utility.yul\":9157:9191   */\n      iszero\n      tag_279\n      jumpi\n        /* \"#utility.yul\":9171:9189   */\n      tag_279\n      tag_276\n      jump\t// in\n    tag_279:\n      pop\n        /* \"#utility.yul\":9208:9217   */\n      sub\n      swap1\n        /* \"#utility.yul\":9098:9223   */\n      jump\t// out\n        /* \"#utility.yul\":9228:9608   */\n    tag_117:\n        /* \"#utility.yul\":9307:9308   */\n      0x01\n        /* \"#utility.yul\":9303:9315   */\n      dup2\n      dup2\n      shr\n      swap1\n        /* \"#utility.yul\":9350:9362   */\n      dup3\n      and\n      dup1\n        /* \"#utility.yul\":9371:9432   */\n      tag_281\n      jumpi\n        /* \"#utility.yul\":9425:9429   */\n      0x7f\n        /* \"#utility.yul\":9417:9423   */\n      dup3\n        /* \"#utility.yul\":9413:9430   */\n      and\n        /* \"#utility.yul\":9403:9430   */\n      swap2\n      pop\n        /* \"#utility.yul\":9371:9432   */\n    tag_281:\n        /* \"#utility.yul\":9478:9480   */\n      0x20\n        /* \"#utility.yul\":9470:9476   */\n      dup3\n        /* \"#utility.yul\":9467:9481   */\n      lt\n        /* \"#utility.yul\":9447:9465   */\n      dup2\n        /* \"#utility.yul\":9444:9482   */\n      eq\n        /* \"#utility.yul\":9441:9602   */\n      iszero\n      tag_282\n      jumpi\n        /* \"#utility.yul\":9524:9534   */\n      0x4e487b71\n        /* \"#utility.yul\":9519:9522   */\n      0xe0\n        /* \"#utility.yul\":9515:9535   */\n      shl\n        /* \"#utility.yul\":9512:9513   */\n      0x00\n        /* \"#utility.yul\":9505:9536   */\n      mstore\n        /* \"#utility.yul\":9559:9563   */\n      0x22\n        /* \"#utility.yul\":9556:9557   */\n      0x04\n        /* \"#utility.yul\":9549:9564   */\n      mstore\n        /* \"#utility.yul\":9587:9591   */\n      0x24\n        /* \"#utility.yul\":9584:9585   */\n      0x00\n        /* \"#utility.yul\":9577:9592   */\n      revert\n        /* \"#utility.yul\":9441:9602   */\n    tag_282:\n      pop\n        /* \"#utility.yul\":9228:9608   */\n      swap2\n      swap1\n      pop\n      jump\t// out\n        /* \"#utility.yul\":9613:9740   */\n    tag_276:\n        /* \"#utility.yul\":9674:9684   */\n      0x4e487b71\n        /* \"#utility.yul\":9669:9672   */\n      0xe0\n        /* \"#utility.yul\":9665:9685   */\n      shl\n        /* \"#utility.yul\":9662:9663   */\n      0x00\n        /* \"#utility.yul\":9655:9686   */\n      mstore\n        /* \"#utility.yul\":9705:9709   */\n      0x11\n        /* \"#utility.yul\":9702:9703   */\n      0x04\n        /* \"#utility.yul\":9695:9710   */\n      mstore\n        /* \"#utility.yul\":9729:9733   */\n      0x24\n        /* \"#utility.yul\":9726:9727   */\n      0x00\n        /* \"#utility.yul\":9719:9734   */\n      revert\n        /* \"#utility.yul\":9745:9872   */\n    tag_97:\n        /* \"#utility.yul\":9806:9816   */\n      0x4e487b71\n        /* \"#utility.yul\":9801:9804   */\n      0xe0\n        /* \"#utility.yul\":9797:9817   */\n      shl\n        /* \"#utility.yul\":9794:9795   */\n      0x00\n        /* \"#utility.yul\":9787:9818   */\n      mstore\n        /* \"#utility.yul\":9837:9841   */\n      0x32\n        /* \"#utility.yul\":9834:9835   */\n      0x04\n        /* \"#utility.yul\":9827:9842   */\n      mstore\n        /* \"#utility.yul\":9861:9865   */\n      0x24\n        /* \"#utility.yul\":9858:9859   */\n      0x00\n        /* \"#utility.yul\":9851:9866   */\n      revert\n        /* \"#utility.yul\":9877:10004   */\n    tag_225:\n        /* \"#utility.yul\":9938:9948   */\n      0x4e487b71\n        /* \"#utility.yul\":9933:9936   */\n      0xe0\n        /* \"#utility.yul\":9929:9949   */\n      shl\n        /* \"#utility.yul\":9926:9927   */\n      0x00\n        /* \"#utility.yul\":9919:9950   */\n      mstore\n        /* \"#utility.yul\":9969:9973   */\n      0x41\n        /* \"#utility.yul\":9966:9967   */\n      0x04\n        /* \"#utility.yul\":9959:9974   */\n      mstore\n        /* \"#utility.yul\":9993:9997   */\n      0x24\n        /* \"#utility.yul\":9990:9991   */\n      0x00\n        /* \"#utility.yul\":9983:9998   */\n      revert\n\n    auxdata: 0xa26469706673582212202edfac6b9e2e8bbf025b49b9d7b8aaa633f48d2bc4b30f4bd962da99008c3c0664736f6c63430008070033\n}\n",
				"bytecode": {
					"linkReferences": {},
					"object": "60806040523480156200001157600080fd5b506040516200154d3803806200154d83398101604081905262000034916200028f565b60008251116200008b5760405162461bcd60e51b815260206004820152601b60248201527f6174206c65617374206f6e65206f776e6572207265717569726564000000000060448201526064015b60405180910390fd5b6000811180156200009d575081518111155b620001115760405162461bcd60e51b815260206004820152603760248201527f696e76616c6964206e756d626572206f6620726571756972656420636f6e666960448201527f726d6174696f6e7320696e20636f6e7374727563746f72000000000000000000606482015260840162000082565b60005b8251811015620002675760008382815181106200013557620001356200039a565b6020026020010151905060006001600160a01b0316816001600160a01b03161415620001945760405162461bcd60e51b815260206004820152600d60248201526c24b73b30b634b21037bbb732b960991b604482015260640162000082565b6001600160a01b03811660009081526001602052604090205460ff1615620001f25760405162461bcd60e51b815260206004820152601060248201526f6f776e6572206e6f7420756e6971756560801b604482015260640162000082565b6001600160a01b031660008181526001602081905260408220805460ff191682179055815490810182559080527f290decd9548b62a8d60345a988386fc84ba6bc95484008f6362f93160ef3e5630180546001600160a01b0319169091179055806200025e8162000370565b91505062000114565b5060025550620003c6565b80516001600160a01b03811681146200028a57600080fd5b919050565b60008060408385031215620002a357600080fd5b82516001600160401b0380821115620002bb57600080fd5b818501915085601f830112620002d057600080fd5b8151602082821115620002e757620002e7620003b0565b8160051b604051601f19603f830116810181811086821117156200030f576200030f620003b0565b604052838152828101945085830182870184018b10156200032f57600080fd5b600096505b848710156200035d57620003488162000272565b86526001969096019594830194830162000334565b5097909101519698969750505050505050565b60006000198214156200039357634e487b7160e01b600052601160045260246000fd5b5060010190565b634e487b7160e01b600052603260045260246000fd5b634e487b7160e01b600052604160045260246000fd5b61117780620003d66000396000f3fe6080604052600436106100c65760003560e01c80639ace38c21161007f578063c642747411610059578063c64274741461025e578063d0549b851461027e578063ee22610b14610294578063fba246de146102b457600080fd5b80639ace38c2146101fc578063a0e67e2b1461021c578063c01a8c841461023e57600080fd5b8063025e7c27146100d257806320ea8d861461010f5780632e7700f0146101315780632f54bf6e1461015057806333ea3dc81461019057806380f59a65146101c157600080fd5b366100cd57005b600080fd5b3480156100de57600080fd5b506100f26100ed366004610e34565b6102bc565b6040516001600160a01b0390911681526020015b60405180910390f35b34801561011b57600080fd5b5061012f61012a366004610e34565b6102e6565b005b34801561013d57600080fd5b506004545b604051908152602001610106565b34801561015c57600080fd5b5061018061016b366004610d47565b60016020526000908152604090205460ff1681565b6040519015158152602001610106565b34801561019c57600080fd5b506101b06101ab366004610e34565b610474565b604051610106959493929190610f62565b3480156101cd57600080fd5b506101806101dc366004610e4d565b600360209081526000928352604080842090915290825290205460ff1681565b34801561020857600080fd5b506101b0610217366004610e34565b61056f565b34801561022857600080fd5b50610231610648565b6040516101069190610f9d565b34801561024a57600080fd5b5061012f610259366004610e34565b6106aa565b34801561026a57600080fd5b5061012f610279366004610d69565b610838565b34801561028a57600080fd5b5061014260025481565b3480156102a057600080fd5b5061012f6102af366004610e34565b6109bf565b61012f610bd3565b600081815481106102cc57600080fd5b6000918252602090912001546001600160a01b0316905081565b3360009081526001602052604090205460ff1661031e5760405162461bcd60e51b815260040161031590610fea565b60405180910390fd5b600454819081106103415760405162461bcd60e51b81526004016103159061103d565b816004818154811061035557610355611115565b600091825260209091206003600590920201015460ff16156103895760405162461bcd60e51b815260040161031590611011565b60006004848154811061039e5761039e611115565b600091825260208083208784526003825260408085203386529092529220546005909102909101915060ff1661040c5760405162461bcd60e51b81526020600482015260136024820152721d1e081a5cc81b9bdd0818dbdb999a5c9b5959606a1b6044820152606401610315565b600181600401600082825461042191906110ad565b90915550506000848152600360209081526040808320338085529252808320805460ff191690555186927f1ad870073a851011d852bccd8634c29c7c0ac2265ba96d2bab01285001a465a891a350505050565b600080606060008060006004878154811061049157610491611115565b6000918252602090912060059091020180546001820154600383015460048401546002850180549596506001600160a01b039094169492939260ff9092169183906104db906110c4565b80601f0160208091040260200160405190810160405280929190818152602001828054610507906110c4565b80156105545780601f1061052957610100808354040283529160200191610554565b820191906000526020600020905b81548152906001019060200180831161053757829003601f168201915b50505050509250955095509550955095505091939590929450565b6004818154811061057f57600080fd5b60009182526020909120600590910201805460018201546002830180546001600160a01b0390931694509092916105b5906110c4565b80601f01602080910402602001604051908101604052809291908181526020018280546105e1906110c4565b801561062e5780601f106106035761010080835404028352916020019161062e565b820191906000526020600020905b81548152906001019060200180831161061157829003601f168201915b505050506003830154600490930154919260ff1691905085565b606060008054806020026020016040519081016040528092919081815260200182805480156106a057602002820191906000526020600020905b81546001600160a01b03168152600190910190602001808311610682575b5050505050905090565b3360009081526001602052604090205460ff166106d95760405162461bcd60e51b815260040161031590610fea565b600454819081106106fc5760405162461bcd60e51b81526004016103159061103d565b816004818154811061071057610710611115565b600091825260209091206003600590920201015460ff16156107445760405162461bcd60e51b815260040161031590611011565b6000838152600360209081526040808320338452909152902054839060ff16156107a75760405162461bcd60e51b81526020600482015260146024820152731d1e08185b1c9958591e4818dbdb999a5c9b595960621b6044820152606401610315565b6000600485815481106107bc576107bc611115565b9060005260206000209060050201905060018160040160008282546107e19190611095565b90915550506000858152600360209081526040808320338085529252808320805460ff191660011790555187927f5cbe105e36805f7820e291f799d5794ff948af2a5f664e580382defb6339004191a35050505050565b3360009081526001602052604090205460ff166108675760405162461bcd60e51b815260040161031590610fea565b600480546040805160a0810182526001600160a01b0387811682526020808301888152938301878152600060608501819052608085018190526001870188559690965282517f8a35acfbc15ff81a39ae7d344fd709f28e8600b4aa8c65c6b64bfe7fe36bd19b6005870290810180546001600160a01b0319169290941691909117835593517f8a35acfbc15ff81a39ae7d344fd709f28e8600b4aa8c65c6b64bfe7fe36bd19c8501559451805194959294919361094b937f8a35acfbc15ff81a39ae7d344fd709f28e8600b4aa8c65c6b64bfe7fe36bd19d90910192910190610c92565b50606082015160038201805460ff19169115159190911790556080909101516004909101556040516001600160a01b03851690829033907fd5a05bf70715ad82a09a756320284a1b54c9ff74cd0f8cce6219e79b563fe59d906109b19088908890611074565b60405180910390a450505050565b3360009081526001602052604090205460ff166109ee5760405162461bcd60e51b815260040161031590610fea565b60045481908110610a115760405162461bcd60e51b81526004016103159061103d565b8160048181548110610a2557610a25611115565b600091825260209091206003600590920201015460ff1615610a595760405162461bcd60e51b815260040161031590611011565b600060048481548110610a6e57610a6e611115565b9060005260206000209060050201905060025481600401541015610ae55760405162461bcd60e51b815260206004820152602860248201527f2043616e7420657865757465207478206e6f7420656e6f75676820636f6e6669604482015267726d6174696f6e7360c01b6064820152608401610315565b60038101805460ff191660019081179091558154908201546040516000926001600160a01b031691614e2091610b1f906002870190610ec6565b600060405180830381858888f193505050503d8060008114610b5d576040519150601f19603f3d011682016040523d82523d6000602084013e610b62565b606091505b5050905080610b9f5760405162461bcd60e51b81526020600482015260096024820152681d1e0819985a5b195960ba1b6044820152606401610315565b604051859033907f5445f318f4f5fcfb66592e68e0cc5822aa15664039bd5f0ffde24c5a8142b1ac90600090a35050505050565b604051600090309034908381818185875af1925050503d8060008114610c15576040519150601f19603f3d011682016040523d82523d6000602084013e610c1a565b606091505b5050905080610c555760405162461bcd60e51b81526020600482015260076024820152661a5b9d985b1a5960ca1b6044820152606401610315565b6040805134815247602082015233917f90890809c654f11d6e72a28fa60149770a0d11ec6c92319d6ceb2bb0a4ea1a15910160405180910390a250565b828054610c9e906110c4565b90600052602060002090601f016020900481019282610cc05760008555610d06565b82601f10610cd957805160ff1916838001178555610d06565b82800160010185558215610d06579182015b82811115610d06578251825591602001919060010190610ceb565b50610d12929150610d16565b5090565b5b80821115610d125760008155600101610d17565b80356001600160a01b0381168114610d4257600080fd5b919050565b600060208284031215610d5957600080fd5b610d6282610d2b565b9392505050565b600080600060608486031215610d7e57600080fd5b610d8784610d2b565b925060208401359150604084013567ffffffffffffffff80821115610dab57600080fd5b818601915086601f830112610dbf57600080fd5b813581811115610dd157610dd161112b565b604051601f8201601f19908116603f01168101908382118183101715610df957610df961112b565b81604052828152896020848701011115610e1257600080fd5b8260208601602083013760006020848301015280955050505050509250925092565b600060208284031215610e4657600080fd5b5035919050565b60008060408385031215610e6057600080fd5b82359150610e7060208401610d2b565b90509250929050565b6000815180845260005b81811015610e9f57602081850181015186830182015201610e83565b81811115610eb1576000602083870101525b50601f01601f19169290920160200192915050565b600080835481600182811c915080831680610ee257607f831692505b6020808410821415610f0257634e487b7160e01b86526022600452602486fd5b818015610f165760018114610f2757610f54565b60ff19861689528489019650610f54565b60008a81526020902060005b86811015610f4c5781548b820152908501908301610f33565b505084890196505b509498975050505050505050565b60018060a01b038616815284602082015260a060408201526000610f8960a0830186610e79565b931515606083015250608001529392505050565b6020808252825182820181905260009190848201906040850190845b81811015610fde5783516001600160a01b031683529284019291840191600101610fb9565b50909695505050505050565b6020808252600d908201526c2737ba103a34329037bbb732b960991b604082015260600190565b6020808252601290820152711d1e08185b1c9958591e48195e18dd5d195960721b604082015260600190565b6020808252601a908201527f7472616e73616374696f6e20646f6573206e6f74206578697374000000000000604082015260600190565b82815260406020820152600061108d6040830184610e79565b949350505050565b600082198211156110a8576110a86110ff565b500190565b6000828210156110bf576110bf6110ff565b500390565b600181811c908216806110d857607f821691505b602082108114156110f957634e487b7160e01b600052602260045260246000fd5b50919050565b634e487b7160e01b600052601160045260246000fd5b634e487b7160e01b600052603260045260246000fd5b634e487b7160e01b600052604160045260246000fdfea26469706673582212202edfac6b9e2e8bbf025b49b9d7b8aaa633f48d2bc4b30f4bd962da99008c3c0664736f6c63430008070033",
					"opcodes": "PUSH1 0x80 PUSH1 0x40 MSTORE CALLVALUE DUP1 ISZERO PUSH3 0x11 JUMPI PUSH1 0x0 DUP1 REVERT JUMPDEST POP PUSH1 0x40 MLOAD PUSH3 0x154D CODESIZE SUB DUP1 PUSH3 0x154D DUP4 CODECOPY DUP2 ADD PUSH1 0x40 DUP2 SWAP1 MSTORE PUSH3 0x34 SWAP2 PUSH3 0x28F JUMP JUMPDEST PUSH1 0x0 DUP3 MLOAD GT PUSH3 0x8B JUMPI PUSH1 0x40 MLOAD PUSH3 0x461BCD PUSH1 0xE5 SHL DUP2 MSTORE PUSH1 0x20 PUSH1 0x4 DUP3 ADD MSTORE PUSH1 0x1B PUSH1 0x24 DUP3 ADD MSTORE PUSH32 0x6174206C65617374206F6E65206F776E65722072657175697265640000000000 PUSH1 0x44 DUP3 ADD MSTORE PUSH1 0x64 ADD JUMPDEST PUSH1 0x40 MLOAD DUP1 SWAP2 SUB SWAP1 REVERT JUMPDEST PUSH1 0x0 DUP2 GT DUP1 ISZERO PUSH3 0x9D JUMPI POP DUP2 MLOAD DUP2 GT ISZERO JUMPDEST PUSH3 0x111 JUMPI PUSH1 0x40 MLOAD PUSH3 0x461BCD PUSH1 0xE5 SHL DUP2 MSTORE PUSH1 0x20 PUSH1 0x4 DUP3 ADD MSTORE PUSH1 0x37 PUSH1 0x24 DUP3 ADD MSTORE PUSH32 0x696E76616C6964206E756D626572206F6620726571756972656420636F6E6669 PUSH1 0x44 DUP3 ADD MSTORE PUSH32 0x726D6174696F6E7320696E20636F6E7374727563746F72000000000000000000 PUSH1 0x64 DUP3 ADD MSTORE PUSH1 0x84 ADD PUSH3 0x82 JUMP JUMPDEST PUSH1 0x0 JUMPDEST DUP3 MLOAD DUP2 LT ISZERO PUSH3 0x267 JUMPI PUSH1 0x0 DUP4 DUP3 DUP2 MLOAD DUP2 LT PUSH3 0x135 JUMPI PUSH3 0x135 PUSH3 0x39A JUMP JUMPDEST PUSH1 0x20 MUL PUSH1 0x20 ADD ADD MLOAD SWAP1 POP PUSH1 0x0 PUSH1 0x1 PUSH1 0x1 PUSH1 0xA0 SHL SUB AND DUP2 PUSH1 0x1 PUSH1 0x1 PUSH1 0xA0 SHL SUB AND EQ ISZERO PUSH3 0x194 JUMPI PUSH1 0x40 MLOAD PUSH3 0x461BCD PUSH1 0xE5 SHL DUP2 MSTORE PUSH1 0x20 PUSH1 0x4 DUP3 ADD MSTORE PUSH1 0xD PUSH1 0x24 DUP3 ADD MSTORE PUSH13 0x24B73B30B634B21037BBB732B9 PUSH1 0x99 SHL PUSH1 0x44 DUP3 ADD MSTORE PUSH1 0x64 ADD PUSH3 0x82 JUMP JUMPDEST PUSH1 0x1 PUSH1 0x1 PUSH1 0xA0 SHL SUB DUP2 AND PUSH1 0x0 SWAP1 DUP2 MSTORE PUSH1 0x1 PUSH1 0x20 MSTORE PUSH1 0x40 SWAP1 KECCAK256 SLOAD PUSH1 0xFF AND ISZERO PUSH3 0x1F2 JUMPI PUSH1 0x40 MLOAD PUSH3 0x461BCD PUSH1 0xE5 SHL DUP2 MSTORE PUSH1 0x20 PUSH1 0x4 DUP3 ADD MSTORE PUSH1 0x10 PUSH1 0x24 DUP3 ADD MSTORE PUSH16 0x6F776E6572206E6F7420756E69717565 PUSH1 0x80 SHL PUSH1 0x44 DUP3 ADD MSTORE PUSH1 0x64 ADD PUSH3 0x82 JUMP JUMPDEST PUSH1 0x1 PUSH1 0x1 PUSH1 0xA0 SHL SUB AND PUSH1 0x0 DUP2 DUP2 MSTORE PUSH1 0x1 PUSH1 0x20 DUP2 SWAP1 MSTORE PUSH1 0x40 DUP3 KECCAK256 DUP1 SLOAD PUSH1 0xFF NOT AND DUP3 OR SWAP1 SSTORE DUP2 SLOAD SWAP1 DUP2 ADD DUP3 SSTORE SWAP1 DUP1 MSTORE PUSH32 0x290DECD9548B62A8D60345A988386FC84BA6BC95484008F6362F93160EF3E563 ADD DUP1 SLOAD PUSH1 0x1 PUSH1 0x1 PUSH1 0xA0 SHL SUB NOT AND SWAP1 SWAP2 OR SWAP1 SSTORE DUP1 PUSH3 0x25E DUP2 PUSH3 0x370 JUMP JUMPDEST SWAP2 POP POP PUSH3 0x114 JUMP JUMPDEST POP PUSH1 0x2 SSTORE POP PUSH3 0x3C6 JUMP JUMPDEST DUP1 MLOAD PUSH1 0x1 PUSH1 0x1 PUSH1 0xA0 SHL SUB DUP2 AND DUP2 EQ PUSH3 0x28A JUMPI PUSH1 0x0 DUP1 REVERT JUMPDEST SWAP2 SWAP1 POP JUMP JUMPDEST PUSH1 0x0 DUP1 PUSH1 0x40 DUP4 DUP6 SUB SLT ISZERO PUSH3 0x2A3 JUMPI PUSH1 0x0 DUP1 REVERT JUMPDEST DUP3 MLOAD PUSH1 0x1 PUSH1 0x1 PUSH1 0x40 SHL SUB DUP1 DUP3 GT ISZERO PUSH3 0x2BB JUMPI PUSH1 0x0 DUP1 REVERT JUMPDEST DUP2 DUP6 ADD SWAP2 POP DUP6 PUSH1 0x1F DUP4 ADD SLT PUSH3 0x2D0 JUMPI PUSH1 0x0 DUP1 REVERT JUMPDEST DUP2 MLOAD PUSH1 0x20 DUP3 DUP3 GT ISZERO PUSH3 0x2E7 JUMPI PUSH3 0x2E7 PUSH3 0x3B0 JUMP JUMPDEST DUP2 PUSH1 0x5 SHL PUSH1 0x40 MLOAD PUSH1 0x1F NOT PUSH1 0x3F DUP4 ADD AND DUP2 ADD DUP2 DUP2 LT DUP7 DUP3 GT OR ISZERO PUSH3 0x30F JUMPI PUSH3 0x30F PUSH3 0x3B0 JUMP JUMPDEST PUSH1 0x40 MSTORE DUP4 DUP2 MSTORE DUP3 DUP2 ADD SWAP5 POP DUP6 DUP4 ADD DUP3 DUP8 ADD DUP5 ADD DUP12 LT ISZERO PUSH3 0x32F JUMPI PUSH1 0x0 DUP1 REVERT JUMPDEST PUSH1 0x0 SWAP7 POP JUMPDEST DUP5 DUP8 LT ISZERO PUSH3 0x35D JUMPI PUSH3 0x348 DUP2 PUSH3 0x272 JUMP JUMPDEST DUP7 MSTORE PUSH1 0x1 SWAP7 SWAP1 SWAP7 ADD SWAP6 SWAP5 DUP4 ADD SWAP5 DUP4 ADD PUSH3 0x334 JUMP JUMPDEST POP SWAP8 SWAP1 SWAP2 ADD MLOAD SWAP7 SWAP9 SWAP7 SWAP8 POP POP POP POP POP POP POP JUMP JUMPDEST PUSH1 0x0 PUSH1 0x0 NOT DUP3 EQ ISZERO PUSH3 0x393 JUMPI PUSH4 0x4E487B71 PUSH1 0xE0 SHL PUSH1 0x0 MSTORE PUSH1 0x11 PUSH1 0x4 MSTORE PUSH1 0x24 PUSH1 0x0 REVERT JUMPDEST POP PUSH1 0x1 ADD SWAP1 JUMP JUMPDEST PUSH4 0x4E487B71 PUSH1 0xE0 SHL PUSH1 0x0 MSTORE PUSH1 0x32 PUSH1 0x4 MSTORE PUSH1 0x24 PUSH1 0x0 REVERT JUMPDEST PUSH4 0x4E487B71 PUSH1 0xE0 SHL PUSH1 0x0 MSTORE PUSH1 0x41 PUSH1 0x4 MSTORE PUSH1 0x24 PUSH1 0x0 REVERT JUMPDEST PUSH2 0x1177 DUP1 PUSH3 0x3D6 PUSH1 0x0 CODECOPY PUSH1 0x0 RETURN INVALID PUSH1 0x80 PUSH1 0x40 MSTORE PUSH1 0x4 CALLDATASIZE LT PUSH2 0xC6 JUMPI PUSH1 0x0 CALLDATALOAD PUSH1 0xE0 SHR DUP1 PUSH4 0x9ACE38C2 GT PUSH2 0x7F JUMPI DUP1 PUSH4 0xC6427474 GT PUSH2 0x59 JUMPI DUP1 PUSH4 0xC6427474 EQ PUSH2 0x25E JUMPI DUP1 PUSH4 0xD0549B85 EQ PUSH2 0x27E JUMPI DUP1 PUSH4 0xEE22610B EQ PUSH2 0x294 JUMPI DUP1 PUSH4 0xFBA246DE EQ PUSH2 0x2B4 JUMPI PUSH1 0x0 DUP1 REVERT JUMPDEST DUP1 PUSH4 0x9ACE38C2 EQ PUSH2 0x1FC JUMPI DUP1 PUSH4 0xA0E67E2B EQ PUSH2 0x21C JUMPI DUP1 PUSH4 0xC01A8C84 EQ PUSH2 0x23E JUMPI PUSH1 0x0 DUP1 REVERT JUMPDEST DUP1 PUSH4 0x25E7C27 EQ PUSH2 0xD2 JUMPI DUP1 PUSH4 0x20EA8D86 EQ PUSH2 0x10F JUMPI DUP1 PUSH4 0x2E7700F0 EQ PUSH2 0x131 JUMPI DUP1 PUSH4 0x2F54BF6E EQ PUSH2 0x150 JUMPI DUP1 PUSH4 0x33EA3DC8 EQ PUSH2 0x190 JUMPI DUP1 PUSH4 0x80F59A65 EQ PUSH2 0x1C1 JUMPI PUSH1 0x0 DUP1 REVERT JUMPDEST CALLDATASIZE PUSH2 0xCD JUMPI STOP JUMPDEST PUSH1 0x0 DUP1 REVERT JUMPDEST CALLVALUE DUP1 ISZERO PUSH2 0xDE JUMPI PUSH1 0x0 DUP1 REVERT JUMPDEST POP PUSH2 0xF2 PUSH2 0xED CALLDATASIZE PUSH1 0x4 PUSH2 0xE34 JUMP JUMPDEST PUSH2 0x2BC JUMP JUMPDEST PUSH1 0x40 MLOAD PUSH1 0x1 PUSH1 0x1 PUSH1 0xA0 SHL SUB SWAP1 SWAP2 AND DUP2 MSTORE PUSH1 0x20 ADD JUMPDEST PUSH1 0x40 MLOAD DUP1 SWAP2 SUB SWAP1 RETURN JUMPDEST CALLVALUE DUP1 ISZERO PUSH2 0x11B JUMPI PUSH1 0x0 DUP1 REVERT JUMPDEST POP PUSH2 0x12F PUSH2 0x12A CALLDATASIZE PUSH1 0x4 PUSH2 0xE34 JUMP JUMPDEST PUSH2 0x2E6 JUMP JUMPDEST STOP JUMPDEST CALLVALUE DUP1 ISZERO PUSH2 0x13D JUMPI PUSH1 0x0 DUP1 REVERT JUMPDEST POP PUSH1 0x4 SLOAD JUMPDEST PUSH1 0x40 MLOAD SWAP1 DUP2 MSTORE PUSH1 0x20 ADD PUSH2 0x106 JUMP JUMPDEST CALLVALUE DUP1 ISZERO PUSH2 0x15C JUMPI PUSH1 0x0 DUP1 REVERT JUMPDEST POP PUSH2 0x180 PUSH2 0x16B CALLDATASIZE PUSH1 0x4 PUSH2 0xD47 JUMP JUMPDEST PUSH1 0x1 PUSH1 0x20 MSTORE PUSH1 0x0 SWAP1 DUP2 MSTORE PUSH1 0x40 SWAP1 KECCAK256 SLOAD PUSH1 0xFF AND DUP2 JUMP JUMPDEST PUSH1 0x40 MLOAD SWAP1 ISZERO ISZERO DUP2 MSTORE PUSH1 0x20 ADD PUSH2 0x106 JUMP JUMPDEST CALLVALUE DUP1 ISZERO PUSH2 0x19C JUMPI PUSH1 0x0 DUP1 REVERT JUMPDEST POP PUSH2 0x1B0 PUSH2 0x1AB CALLDATASIZE PUSH1 0x4 PUSH2 0xE34 JUMP JUMPDEST PUSH2 0x474 JUMP JUMPDEST PUSH1 0x40 MLOAD PUSH2 0x106 SWAP6 SWAP5 SWAP4 SWAP3 SWAP2 SWAP1 PUSH2 0xF62 JUMP JUMPDEST CALLVALUE DUP1 ISZERO PUSH2 0x1CD JUMPI PUSH1 0x0 DUP1 REVERT JUMPDEST POP PUSH2 0x180 PUSH2 0x1DC CALLDATASIZE PUSH1 0x4 PUSH2 0xE4D JUMP JUMPDEST PUSH1 0x3 PUSH1 0x20 SWAP1 DUP2 MSTORE PUSH1 0x0 SWAP3 DUP4 MSTORE PUSH1 0x40 DUP1 DUP5 KECCAK256 SWAP1 SWAP2 MSTORE SWAP1 DUP3 MSTORE SWAP1 KECCAK256 SLOAD PUSH1 0xFF AND DUP2 JUMP JUMPDEST CALLVALUE DUP1 ISZERO PUSH2 0x208 JUMPI PUSH1 0x0 DUP1 REVERT JUMPDEST POP PUSH2 0x1B0 PUSH2 0x217 CALLDATASIZE PUSH1 0x4 PUSH2 0xE34 JUMP JUMPDEST PUSH2 0x56F JUMP JUMPDEST CALLVALUE DUP1 ISZERO PUSH2 0x228 JUMPI PUSH1 0x0 DUP1 REVERT JUMPDEST POP PUSH2 0x231 PUSH2 0x648 JUMP JUMPDEST PUSH1 0x40 MLOAD PUSH2 0x106 SWAP2 SWAP1 PUSH2 0xF9D JUMP JUMPDEST CALLVALUE DUP1 ISZERO PUSH2 0x24A JUMPI PUSH1 0x0 DUP1 REVERT JUMPDEST POP PUSH2 0x12F PUSH2 0x259 CALLDATASIZE PUSH1 0x4 PUSH2 0xE34 JUMP JUMPDEST PUSH2 0x6AA JUMP JUMPDEST CALLVALUE DUP1 ISZERO PUSH2 0x26A JUMPI PUSH1 0x0 DUP1 REVERT JUMPDEST POP PUSH2 0x12F PUSH2 0x279 CALLDATASIZE PUSH1 0x4 PUSH2 0xD69 JUMP JUMPDEST PUSH2 0x838 JUMP JUMPDEST CALLVALUE DUP1 ISZERO PUSH2 0x28A JUMPI PUSH1 0x0 DUP1 REVERT JUMPDEST POP PUSH2 0x142 PUSH1 0x2 SLOAD DUP2 JUMP JUMPDEST CALLVALUE DUP1 ISZERO PUSH2 0x2A0 JUMPI PUSH1 0x0 DUP1 REVERT JUMPDEST POP PUSH2 0x12F PUSH2 0x2AF CALLDATASIZE PUSH1 0x4 PUSH2 0xE34 JUMP JUMPDEST PUSH2 0x9BF JUMP JUMPDEST PUSH2 0x12F PUSH2 0xBD3 JUMP JUMPDEST PUSH1 0x0 DUP2 DUP2 SLOAD DUP2 LT PUSH2 0x2CC JUMPI PUSH1 0x0 DUP1 REVERT JUMPDEST PUSH1 0x0 SWAP2 DUP3 MSTORE PUSH1 0x20 SWAP1 SWAP2 KECCAK256 ADD SLOAD PUSH1 0x1 PUSH1 0x1 PUSH1 0xA0 SHL SUB AND SWAP1 POP DUP2 JUMP JUMPDEST CALLER PUSH1 0x0 SWAP1 DUP2 MSTORE PUSH1 0x1 PUSH1 0x20 MSTORE PUSH1 0x40 SWAP1 KECCAK256 SLOAD PUSH1 0xFF AND PUSH2 0x31E JUMPI PUSH1 0x40 MLOAD PUSH3 0x461BCD PUSH1 0xE5 SHL DUP2 MSTORE PUSH1 0x4 ADD PUSH2 0x315 SWAP1 PUSH2 0xFEA JUMP JUMPDEST PUSH1 0x40 MLOAD DUP1 SWAP2 SUB SWAP1 REVERT JUMPDEST PUSH1 0x4 SLOAD DUP2 SWAP1 DUP2 LT PUSH2 0x341 JUMPI PUSH1 0x40 MLOAD PUSH3 0x461BCD PUSH1 0xE5 SHL DUP2 MSTORE PUSH1 0x4 ADD PUSH2 0x315 SWAP1 PUSH2 0x103D JUMP JUMPDEST DUP2 PUSH1 0x4 DUP2 DUP2 SLOAD DUP2 LT PUSH2 0x355 JUMPI PUSH2 0x355 PUSH2 0x1115 JUMP JUMPDEST PUSH1 0x0 SWAP2 DUP3 MSTORE PUSH1 0x20 SWAP1 SWAP2 KECCAK256 PUSH1 0x3 PUSH1 0x5 SWAP1 SWAP3 MUL ADD ADD SLOAD PUSH1 0xFF AND ISZERO PUSH2 0x389 JUMPI PUSH1 0x40 MLOAD PUSH3 0x461BCD PUSH1 0xE5 SHL DUP2 MSTORE PUSH1 0x4 ADD PUSH2 0x315 SWAP1 PUSH2 0x1011 JUMP JUMPDEST PUSH1 0x0 PUSH1 0x4 DUP5 DUP2 SLOAD DUP2 LT PUSH2 0x39E JUMPI PUSH2 0x39E PUSH2 0x1115 JUMP JUMPDEST PUSH1 0x0 SWAP2 DUP3 MSTORE PUSH1 0x20 DUP1 DUP4 KECCAK256 DUP8 DUP5 MSTORE PUSH1 0x3 DUP3 MSTORE PUSH1 0x40 DUP1 DUP6 KECCAK256 CALLER DUP7 MSTORE SWAP1 SWAP3 MSTORE SWAP3 KECCAK256 SLOAD PUSH1 0x5 SWAP1 SWAP2 MUL SWAP1 SWAP2 ADD SWAP2 POP PUSH1 0xFF AND PUSH2 0x40C JUMPI PUSH1 0x40 MLOAD PUSH3 0x461BCD PUSH1 0xE5 SHL DUP2 MSTORE PUSH1 0x20 PUSH1 0x4 DUP3 ADD MSTORE PUSH1 0x13 PUSH1 0x24 DUP3 ADD MSTORE PUSH19 0x1D1E081A5CC81B9BDD0818DBDB999A5C9B5959 PUSH1 0x6A SHL PUSH1 0x44 DUP3 ADD MSTORE PUSH1 0x64 ADD PUSH2 0x315 JUMP JUMPDEST PUSH1 0x1 DUP2 PUSH1 0x4 ADD PUSH1 0x0 DUP3 DUP3 SLOAD PUSH2 0x421 SWAP2 SWAP1 PUSH2 0x10AD JUMP JUMPDEST SWAP1 SWAP2 SSTORE POP POP PUSH1 0x0 DUP5 DUP2 MSTORE PUSH1 0x3 PUSH1 0x20 SWAP1 DUP2 MSTORE PUSH1 0x40 DUP1 DUP4 KECCAK256 CALLER DUP1 DUP6 MSTORE SWAP3 MSTORE DUP1 DUP4 KECCAK256 DUP1 SLOAD PUSH1 0xFF NOT AND SWAP1 SSTORE MLOAD DUP7 SWAP3 PUSH32 0x1AD870073A851011D852BCCD8634C29C7C0AC2265BA96D2BAB01285001A465A8 SWAP2 LOG3 POP POP POP POP JUMP JUMPDEST PUSH1 0x0 DUP1 PUSH1 0x60 PUSH1 0x0 DUP1 PUSH1 0x0 PUSH1 0x4 DUP8 DUP2 SLOAD DUP2 LT PUSH2 0x491 JUMPI PUSH2 0x491 PUSH2 0x1115 JUMP JUMPDEST PUSH1 0x0 SWAP2 DUP3 MSTORE PUSH1 0x20 SWAP1 SWAP2 KECCAK256 PUSH1 0x5 SWAP1 SWAP2 MUL ADD DUP1 SLOAD PUSH1 0x1 DUP3 ADD SLOAD PUSH1 0x3 DUP4 ADD SLOAD PUSH1 0x4 DUP5 ADD SLOAD PUSH1 0x2 DUP6 ADD DUP1 SLOAD SWAP6 SWAP7 POP PUSH1 0x1 PUSH1 0x1 PUSH1 0xA0 SHL SUB SWAP1 SWAP5 AND SWAP5 SWAP3 SWAP4 SWAP3 PUSH1 0xFF SWAP1 SWAP3 AND SWAP2 DUP4 SWAP1 PUSH2 0x4DB SWAP1 PUSH2 0x10C4 JUMP JUMPDEST DUP1 PUSH1 0x1F ADD PUSH1 0x20 DUP1 SWAP2 DIV MUL PUSH1 0x20 ADD PUSH1 0x40 MLOAD SWAP1 DUP2 ADD PUSH1 0x40 MSTORE DUP1 SWAP3 SWAP2 SWAP1 DUP2 DUP2 MSTORE PUSH1 0x20 ADD DUP3 DUP1 SLOAD PUSH2 0x507 SWAP1 PUSH2 0x10C4 JUMP JUMPDEST DUP1 ISZERO PUSH2 0x554 JUMPI DUP1 PUSH1 0x1F LT PUSH2 0x529 JUMPI PUSH2 0x100 DUP1 DUP4 SLOAD DIV MUL DUP4 MSTORE SWAP2 PUSH1 0x20 ADD SWAP2 PUSH2 0x554 JUMP JUMPDEST DUP3 ADD SWAP2 SWAP1 PUSH1 0x0 MSTORE PUSH1 0x20 PUSH1 0x0 KECCAK256 SWAP1 JUMPDEST DUP2 SLOAD DUP2 MSTORE SWAP1 PUSH1 0x1 ADD SWAP1 PUSH1 0x20 ADD DUP1 DUP4 GT PUSH2 0x537 JUMPI DUP3 SWAP1 SUB PUSH1 0x1F AND DUP3 ADD SWAP2 JUMPDEST POP POP POP POP POP SWAP3 POP SWAP6 POP SWAP6 POP SWAP6 POP SWAP6 POP SWAP6 POP POP SWAP2 SWAP4 SWAP6 SWAP1 SWAP3 SWAP5 POP JUMP JUMPDEST PUSH1 0x4 DUP2 DUP2 SLOAD DUP2 LT PUSH2 0x57F JUMPI PUSH1 0x0 DUP1 REVERT JUMPDEST PUSH1 0x0 SWAP2 DUP3 MSTORE PUSH1 0x20 SWAP1 SWAP2 KECCAK256 PUSH1 0x5 SWAP1 SWAP2 MUL ADD DUP1 SLOAD PUSH1 0x1 DUP3 ADD SLOAD PUSH1 0x2 DUP4 ADD DUP1 SLOAD PUSH1 0x1 PUSH1 0x1 PUSH1 0xA0 SHL SUB SWAP1 SWAP4 AND SWAP5 POP SWAP1 SWAP3 SWAP2 PUSH2 0x5B5 SWAP1 PUSH2 0x10C4 JUMP JUMPDEST DUP1 PUSH1 0x1F ADD PUSH1 0x20 DUP1 SWAP2 DIV MUL PUSH1 0x20 ADD PUSH1 0x40 MLOAD SWAP1 DUP2 ADD PUSH1 0x40 MSTORE DUP1 SWAP3 SWAP2 SWAP1 DUP2 DUP2 MSTORE PUSH1 0x20 ADD DUP3 DUP1 SLOAD PUSH2 0x5E1 SWAP1 PUSH2 0x10C4 JUMP JUMPDEST DUP1 ISZERO PUSH2 0x62E JUMPI DUP1 PUSH1 0x1F LT PUSH2 0x603 JUMPI PUSH2 0x100 DUP1 DUP4 SLOAD DIV MUL DUP4 MSTORE SWAP2 PUSH1 0x20 ADD SWAP2 PUSH2 0x62E JUMP JUMPDEST DUP3 ADD SWAP2 SWAP1 PUSH1 0x0 MSTORE PUSH1 0x20 PUSH1 0x0 KECCAK256 SWAP1 JUMPDEST DUP2 SLOAD DUP2 MSTORE SWAP1 PUSH1 0x1 ADD SWAP1 PUSH1 0x20 ADD DUP1 DUP4 GT PUSH2 0x611 JUMPI DUP3 SWAP1 SUB PUSH1 0x1F AND DUP3 ADD SWAP2 JUMPDEST POP POP POP POP PUSH1 0x3 DUP4 ADD SLOAD PUSH1 0x4 SWAP1 SWAP4 ADD SLOAD SWAP2 SWAP3 PUSH1 0xFF AND SWAP2 SWAP1 POP DUP6 JUMP JUMPDEST PUSH1 0x60 PUSH1 0x0 DUP1 SLOAD DUP1 PUSH1 0x20 MUL PUSH1 0x20 ADD PUSH1 0x40 MLOAD SWAP1 DUP2 ADD PUSH1 0x40 MSTORE DUP1 SWAP3 SWAP2 SWAP1 DUP2 DUP2 MSTORE PUSH1 0x20 ADD DUP3 DUP1 SLOAD DUP1 ISZERO PUSH2 0x6A0 JUMPI PUSH1 0x20 MUL DUP3 ADD SWAP2 SWAP1 PUSH1 0x0 MSTORE PUSH1 0x20 PUSH1 0x0 KECCAK256 SWAP1 JUMPDEST DUP2 SLOAD PUSH1 0x1 PUSH1 0x1 PUSH1 0xA0 SHL SUB AND DUP2 MSTORE PUSH1 0x1 SWAP1 SWAP2 ADD SWAP1 PUSH1 0x20 ADD DUP1 DUP4 GT PUSH2 0x682 JUMPI JUMPDEST POP POP POP POP POP SWAP1 POP SWAP1 JUMP JUMPDEST CALLER PUSH1 0x0 SWAP1 DUP2 MSTORE PUSH1 0x1 PUSH1 0x20 MSTORE PUSH1 0x40 SWAP1 KECCAK256 SLOAD PUSH1 0xFF AND PUSH2 0x6D9 JUMPI PUSH1 0x40 MLOAD PUSH3 0x461BCD PUSH1 0xE5 SHL DUP2 MSTORE PUSH1 0x4 ADD PUSH2 0x315 SWAP1 PUSH2 0xFEA JUMP JUMPDEST PUSH1 0x4 SLOAD DUP2 SWAP1 DUP2 LT PUSH2 0x6FC JUMPI PUSH1 0x40 MLOAD PUSH3 0x461BCD PUSH1 0xE5 SHL DUP2 MSTORE PUSH1 0x4 ADD PUSH2 0x315 SWAP1 PUSH2 0x103D JUMP JUMPDEST DUP2 PUSH1 0x4 DUP2 DUP2 SLOAD DUP2 LT PUSH2 0x710 JUMPI PUSH2 0x710 PUSH2 0x1115 JUMP JUMPDEST PUSH1 0x0 SWAP2 DUP3 MSTORE PUSH1 0x20 SWAP1 SWAP2 KECCAK256 PUSH1 0x3 PUSH1 0x5 SWAP1 SWAP3 MUL ADD ADD SLOAD PUSH1 0xFF AND ISZERO PUSH2 0x744 JUMPI PUSH1 0x40 MLOAD PUSH3 0x461BCD PUSH1 0xE5 SHL DUP2 MSTORE PUSH1 0x4 ADD PUSH2 0x315 SWAP1 PUSH2 0x1011 JUMP JUMPDEST PUSH1 0x0 DUP4 DUP2 MSTORE PUSH1 0x3 PUSH1 0x20 SWAP1 DUP2 MSTORE PUSH1 0x40 DUP1 DUP4 KECCAK256 CALLER DUP5 MSTORE SWAP1 SWAP2 MSTORE SWAP1 KECCAK256 SLOAD DUP4 SWAP1 PUSH1 0xFF AND ISZERO PUSH2 0x7A7 JUMPI PUSH1 0x40 MLOAD PUSH3 0x461BCD PUSH1 0xE5 SHL DUP2 MSTORE PUSH1 0x20 PUSH1 0x4 DUP3 ADD MSTORE PUSH1 0x14 PUSH1 0x24 DUP3 ADD MSTORE PUSH20 0x1D1E08185B1C9958591E4818DBDB999A5C9B5959 PUSH1 0x62 SHL PUSH1 0x44 DUP3 ADD MSTORE PUSH1 0x64 ADD PUSH2 0x315 JUMP JUMPDEST PUSH1 0x0 PUSH1 0x4 DUP6 DUP2 SLOAD DUP2 LT PUSH2 0x7BC JUMPI PUSH2 0x7BC PUSH2 0x1115 JUMP JUMPDEST SWAP1 PUSH1 0x0 MSTORE PUSH1 0x20 PUSH1 0x0 KECCAK256 SWAP1 PUSH1 0x5 MUL ADD SWAP1 POP PUSH1 0x1 DUP2 PUSH1 0x4 ADD PUSH1 0x0 DUP3 DUP3 SLOAD PUSH2 0x7E1 SWAP2 SWAP1 PUSH2 0x1095 JUMP JUMPDEST SWAP1 SWAP2 SSTORE POP POP PUSH1 0x0 DUP6 DUP2 MSTORE PUSH1 0x3 PUSH1 0x20 SWAP1 DUP2 MSTORE PUSH1 0x40 DUP1 DUP4 KECCAK256 CALLER DUP1 DUP6 MSTORE SWAP3 MSTORE DUP1 DUP4 KECCAK256 DUP1 SLOAD PUSH1 0xFF NOT AND PUSH1 0x1 OR SWAP1 SSTORE MLOAD DUP8 SWAP3 PUSH32 0x5CBE105E36805F7820E291F799D5794FF948AF2A5F664E580382DEFB63390041 SWAP2 LOG3 POP POP POP POP POP JUMP JUMPDEST CALLER PUSH1 0x0 SWAP1 DUP2 MSTORE PUSH1 0x1 PUSH1 0x20 MSTORE PUSH1 0x40 SWAP1 KECCAK256 SLOAD PUSH1 0xFF AND PUSH2 0x867 JUMPI PUSH1 0x40 MLOAD PUSH3 0x461BCD PUSH1 0xE5 SHL DUP2 MSTORE PUSH1 0x4 ADD PUSH2 0x315 SWAP1 PUSH2 0xFEA JUMP JUMPDEST PUSH1 0x4 DUP1 SLOAD PUSH1 0x40 DUP1 MLOAD PUSH1 0xA0 DUP2 ADD DUP3 MSTORE PUSH1 0x1 PUSH1 0x1 PUSH1 0xA0 SHL SUB DUP8 DUP2 AND DUP3 MSTORE PUSH1 0x20 DUP1 DUP4 ADD DUP9 DUP2 MSTORE SWAP4 DUP4 ADD DUP8 DUP2 MSTORE PUSH1 0x0 PUSH1 0x60 DUP6 ADD DUP2 SWAP1 MSTORE PUSH1 0x80 DUP6 ADD DUP2 SWAP1 MSTORE PUSH1 0x1 DUP8 ADD DUP9 SSTORE SWAP7 SWAP1 SWAP7 MSTORE DUP3 MLOAD PUSH32 0x8A35ACFBC15FF81A39AE7D344FD709F28E8600B4AA8C65C6B64BFE7FE36BD19B PUSH1 0x5 DUP8 MUL SWAP1 DUP2 ADD DUP1 SLOAD PUSH1 0x1 PUSH1 0x1 PUSH1 0xA0 SHL SUB NOT AND SWAP3 SWAP1 SWAP5 AND SWAP2 SWAP1 SWAP2 OR DUP4 SSTORE SWAP4 MLOAD PUSH32 0x8A35ACFBC15FF81A39AE7D344FD709F28E8600B4AA8C65C6B64BFE7FE36BD19C DUP6 ADD SSTORE SWAP5 MLOAD DUP1 MLOAD SWAP5 SWAP6 SWAP3 SWAP5 SWAP2 SWAP4 PUSH2 0x94B SWAP4 PUSH32 0x8A35ACFBC15FF81A39AE7D344FD709F28E8600B4AA8C65C6B64BFE7FE36BD19D SWAP1 SWAP2 ADD SWAP3 SWAP2 ADD SWAP1 PUSH2 0xC92 JUMP JUMPDEST POP PUSH1 0x60 DUP3 ADD MLOAD PUSH1 0x3 DUP3 ADD DUP1 SLOAD PUSH1 0xFF NOT AND SWAP2 ISZERO ISZERO SWAP2 SWAP1 SWAP2 OR SWAP1 SSTORE PUSH1 0x80 SWAP1 SWAP2 ADD MLOAD PUSH1 0x4 SWAP1 SWAP2 ADD SSTORE PUSH1 0x40 MLOAD PUSH1 0x1 PUSH1 0x1 PUSH1 0xA0 SHL SUB DUP6 AND SWAP1 DUP3 SWAP1 CALLER SWAP1 PUSH32 0xD5A05BF70715AD82A09A756320284A1B54C9FF74CD0F8CCE6219E79B563FE59D SWAP1 PUSH2 0x9B1 SWAP1 DUP9 SWAP1 DUP9 SWAP1 PUSH2 0x1074 JUMP JUMPDEST PUSH1 0x40 MLOAD DUP1 SWAP2 SUB SWAP1 LOG4 POP POP POP POP JUMP JUMPDEST CALLER PUSH1 0x0 SWAP1 DUP2 MSTORE PUSH1 0x1 PUSH1 0x20 MSTORE PUSH1 0x40 SWAP1 KECCAK256 SLOAD PUSH1 0xFF AND PUSH2 0x9EE JUMPI PUSH1 0x40 MLOAD PUSH3 0x461BCD PUSH1 0xE5 SHL DUP2 MSTORE PUSH1 0x4 ADD PUSH2 0x315 SWAP1 PUSH2 0xFEA JUMP JUMPDEST PUSH1 0x4 SLOAD DUP2 SWAP1 DUP2 LT PUSH2 0xA11 JUMPI PUSH1 0x40 MLOAD PUSH3 0x461BCD PUSH1 0xE5 SHL DUP2 MSTORE PUSH1 0x4 ADD PUSH2 0x315 SWAP1 PUSH2 0x103D JUMP JUMPDEST DUP2 PUSH1 0x4 DUP2 DUP2 SLOAD DUP2 LT PUSH2 0xA25 JUMPI PUSH2 0xA25 PUSH2 0x1115 JUMP JUMPDEST PUSH1 0x0 SWAP2 DUP3 MSTORE PUSH1 0x20 SWAP1 SWAP2 KECCAK256 PUSH1 0x3 PUSH1 0x5 SWAP1 SWAP3 MUL ADD ADD SLOAD PUSH1 0xFF AND ISZERO PUSH2 0xA59 JUMPI PUSH1 0x40 MLOAD PUSH3 0x461BCD PUSH1 0xE5 SHL DUP2 MSTORE PUSH1 0x4 ADD PUSH2 0x315 SWAP1 PUSH2 0x1011 JUMP JUMPDEST PUSH1 0x0 PUSH1 0x4 DUP5 DUP2 SLOAD DUP2 LT PUSH2 0xA6E JUMPI PUSH2 0xA6E PUSH2 0x1115 JUMP JUMPDEST SWAP1 PUSH1 0x0 MSTORE PUSH1 0x20 PUSH1 0x0 KECCAK256 SWAP1 PUSH1 0x5 MUL ADD SWAP1 POP PUSH1 0x2 SLOAD DUP2 PUSH1 0x4 ADD SLOAD LT ISZERO PUSH2 0xAE5 JUMPI PUSH1 0x40 MLOAD PUSH3 0x461BCD PUSH1 0xE5 SHL DUP2 MSTORE PUSH1 0x20 PUSH1 0x4 DUP3 ADD MSTORE PUSH1 0x28 PUSH1 0x24 DUP3 ADD MSTORE PUSH32 0x2043616E7420657865757465207478206E6F7420656E6F75676820636F6E6669 PUSH1 0x44 DUP3 ADD MSTORE PUSH8 0x726D6174696F6E73 PUSH1 0xC0 SHL PUSH1 0x64 DUP3 ADD MSTORE PUSH1 0x84 ADD PUSH2 0x315 JUMP JUMPDEST PUSH1 0x3 DUP2 ADD DUP1 SLOAD PUSH1 0xFF NOT AND PUSH1 0x1 SWAP1 DUP2 OR SWAP1 SWAP2 SSTORE DUP2 SLOAD SWAP1 DUP3 ADD SLOAD PUSH1 0x40 MLOAD PUSH1 0x0 SWAP3 PUSH1 0x1 PUSH1 0x1 PUSH1 0xA0 SHL SUB AND SWAP2 PUSH2 0x4E20 SWAP2 PUSH2 0xB1F SWAP1 PUSH1 0x2 DUP8 ADD SWAP1 PUSH2 0xEC6 JUMP JUMPDEST PUSH1 0x0 PUSH1 0x40 MLOAD DUP1 DUP4 SUB DUP2 DUP6 DUP9 DUP9 CALL SWAP4 POP POP POP POP RETURNDATASIZE DUP1 PUSH1 0x0 DUP2 EQ PUSH2 0xB5D JUMPI PUSH1 0x40 MLOAD SWAP2 POP PUSH1 0x1F NOT PUSH1 0x3F RETURNDATASIZE ADD AND DUP3 ADD PUSH1 0x40 MSTORE RETURNDATASIZE DUP3 MSTORE RETURNDATASIZE PUSH1 0x0 PUSH1 0x20 DUP5 ADD RETURNDATACOPY PUSH2 0xB62 JUMP JUMPDEST PUSH1 0x60 SWAP2 POP JUMPDEST POP POP SWAP1 POP DUP1 PUSH2 0xB9F JUMPI PUSH1 0x40 MLOAD PUSH3 0x461BCD PUSH1 0xE5 SHL DUP2 MSTORE PUSH1 0x20 PUSH1 0x4 DUP3 ADD MSTORE PUSH1 0x9 PUSH1 0x24 DUP3 ADD MSTORE PUSH9 0x1D1E0819985A5B1959 PUSH1 0xBA SHL PUSH1 0x44 DUP3 ADD MSTORE PUSH1 0x64 ADD PUSH2 0x315 JUMP JUMPDEST PUSH1 0x40 MLOAD DUP6 SWAP1 CALLER SWAP1 PUSH32 0x5445F318F4F5FCFB66592E68E0CC5822AA15664039BD5F0FFDE24C5A8142B1AC SWAP1 PUSH1 0x0 SWAP1 LOG3 POP POP POP POP POP JUMP JUMPDEST PUSH1 0x40 MLOAD PUSH1 0x0 SWAP1 ADDRESS SWAP1 CALLVALUE SWAP1 DUP4 DUP2 DUP2 DUP2 DUP6 DUP8 GAS CALL SWAP3 POP POP POP RETURNDATASIZE DUP1 PUSH1 0x0 DUP2 EQ PUSH2 0xC15 JUMPI PUSH1 0x40 MLOAD SWAP2 POP PUSH1 0x1F NOT PUSH1 0x3F RETURNDATASIZE ADD AND DUP3 ADD PUSH1 0x40 MSTORE RETURNDATASIZE DUP3 MSTORE RETURNDATASIZE PUSH1 0x0 PUSH1 0x20 DUP5 ADD RETURNDATACOPY PUSH2 0xC1A JUMP JUMPDEST PUSH1 0x60 SWAP2 POP JUMPDEST POP POP SWAP1 POP DUP1 PUSH2 0xC55 JUMPI PUSH1 0x40 MLOAD PUSH3 0x461BCD PUSH1 0xE5 SHL DUP2 MSTORE PUSH1 0x20 PUSH1 0x4 DUP3 ADD MSTORE PUSH1 0x7 PUSH1 0x24 DUP3 ADD MSTORE PUSH7 0x1A5B9D985B1A59 PUSH1 0xCA SHL PUSH1 0x44 DUP3 ADD MSTORE PUSH1 0x64 ADD PUSH2 0x315 JUMP JUMPDEST PUSH1 0x40 DUP1 MLOAD CALLVALUE DUP2 MSTORE SELFBALANCE PUSH1 0x20 DUP3 ADD MSTORE CALLER SWAP2 PUSH32 0x90890809C654F11D6E72A28FA60149770A0D11EC6C92319D6CEB2BB0A4EA1A15 SWAP2 ADD PUSH1 0x40 MLOAD DUP1 SWAP2 SUB SWAP1 LOG2 POP JUMP JUMPDEST DUP3 DUP1 SLOAD PUSH2 0xC9E SWAP1 PUSH2 0x10C4 JUMP JUMPDEST SWAP1 PUSH1 0x0 MSTORE PUSH1 0x20 PUSH1 0x0 KECCAK256 SWAP1 PUSH1 0x1F ADD PUSH1 0x20 SWAP1 DIV DUP2 ADD SWAP3 DUP3 PUSH2 0xCC0 JUMPI PUSH1 0x0 DUP6 SSTORE PUSH2 0xD06 JUMP JUMPDEST DUP3 PUSH1 0x1F LT PUSH2 0xCD9 JUMPI DUP1 MLOAD PUSH1 0xFF NOT AND DUP4 DUP1 ADD OR DUP6 SSTORE PUSH2 0xD06 JUMP JUMPDEST DUP3 DUP1 ADD PUSH1 0x1 ADD DUP6 SSTORE DUP3 ISZERO PUSH2 0xD06 JUMPI SWAP2 DUP3 ADD JUMPDEST DUP3 DUP2 GT ISZERO PUSH2 0xD06 JUMPI DUP3 MLOAD DUP3 SSTORE SWAP2 PUSH1 0x20 ADD SWAP2 SWAP1 PUSH1 0x1 ADD SWAP1 PUSH2 0xCEB JUMP JUMPDEST POP PUSH2 0xD12 SWAP3 SWAP2 POP PUSH2 0xD16 JUMP JUMPDEST POP SWAP1 JUMP JUMPDEST JUMPDEST DUP1 DUP3 GT ISZERO PUSH2 0xD12 JUMPI PUSH1 0x0 DUP2 SSTORE PUSH1 0x1 ADD PUSH2 0xD17 JUMP JUMPDEST DUP1 CALLDATALOAD PUSH1 0x1 PUSH1 0x1 PUSH1 0xA0 SHL SUB DUP2 AND DUP2 EQ PUSH2 0xD42 JUMPI PUSH1 0x0 DUP1 REVERT JUMPDEST SWAP2 SWAP1 POP JUMP JUMPDEST PUSH1 0x0 PUSH1 0x20 DUP3 DUP5 SUB SLT ISZERO PUSH2 0xD59 JUMPI PUSH1 0x0 DUP1 REVERT JUMPDEST PUSH2 0xD62 DUP3 PUSH2 0xD2B JUMP JUMPDEST SWAP4 SWAP3 POP POP POP JUMP JUMPDEST PUSH1 0x0 DUP1 PUSH1 0x0 PUSH1 0x60 DUP5 DUP7 SUB SLT ISZERO PUSH2 0xD7E JUMPI PUSH1 0x0 DUP1 REVERT JUMPDEST PUSH2 0xD87 DUP5 PUSH2 0xD2B JUMP JUMPDEST SWAP3 POP PUSH1 0x20 DUP5 ADD CALLDATALOAD SWAP2 POP PUSH1 0x40 DUP5 ADD CALLDATALOAD PUSH8 0xFFFFFFFFFFFFFFFF DUP1 DUP3 GT ISZERO PUSH2 0xDAB JUMPI PUSH1 0x0 DUP1 REVERT JUMPDEST DUP2 DUP7 ADD SWAP2 POP DUP7 PUSH1 0x1F DUP4 ADD SLT PUSH2 0xDBF JUMPI PUSH1 0x0 DUP1 REVERT JUMPDEST DUP2 CALLDATALOAD DUP2 DUP2 GT ISZERO PUSH2 0xDD1 JUMPI PUSH2 0xDD1 PUSH2 0x112B JUMP JUMPDEST PUSH1 0x40 MLOAD PUSH1 0x1F DUP3 ADD PUSH1 0x1F NOT SWAP1 DUP2 AND PUSH1 0x3F ADD AND DUP2 ADD SWAP1 DUP4 DUP3 GT DUP2 DUP4 LT OR ISZERO PUSH2 0xDF9 JUMPI PUSH2 0xDF9 PUSH2 0x112B JUMP JUMPDEST DUP2 PUSH1 0x40 MSTORE DUP3 DUP2 MSTORE DUP10 PUSH1 0x20 DUP5 DUP8 ADD ADD GT ISZERO PUSH2 0xE12 JUMPI PUSH1 0x0 DUP1 REVERT JUMPDEST DUP3 PUSH1 0x20 DUP7 ADD PUSH1 0x20 DUP4 ADD CALLDATACOPY PUSH1 0x0 PUSH1 0x20 DUP5 DUP4 ADD ADD MSTORE DUP1 SWAP6 POP POP POP POP POP POP SWAP3 POP SWAP3 POP SWAP3 JUMP JUMPDEST PUSH1 0x0 PUSH1 0x20 DUP3 DUP5 SUB SLT ISZERO PUSH2 0xE46 JUMPI PUSH1 0x0 DUP1 REVERT JUMPDEST POP CALLDATALOAD SWAP2 SWAP1 POP JUMP JUMPDEST PUSH1 0x0 DUP1 PUSH1 0x40 DUP4 DUP6 SUB SLT ISZERO PUSH2 0xE60 JUMPI PUSH1 0x0 DUP1 REVERT JUMPDEST DUP3 CALLDATALOAD SWAP2 POP PUSH2 0xE70 PUSH1 0x20 DUP5 ADD PUSH2 0xD2B JUMP JUMPDEST SWAP1 POP SWAP3 POP SWAP3 SWAP1 POP JUMP JUMPDEST PUSH1 0x0 DUP2 MLOAD DUP1 DUP5 MSTORE PUSH1 0x0 JUMPDEST DUP2 DUP2 LT ISZERO PUSH2 0xE9F JUMPI PUSH1 0x20 DUP2 DUP6 ADD DUP2 ADD MLOAD DUP7 DUP4 ADD DUP3 ADD MSTORE ADD PUSH2 0xE83 JUMP JUMPDEST DUP2 DUP2 GT ISZERO PUSH2 0xEB1 JUMPI PUSH1 0x0 PUSH1 0x20 DUP4 DUP8 ADD ADD MSTORE JUMPDEST POP PUSH1 0x1F ADD PUSH1 0x1F NOT AND SWAP3 SWAP1 SWAP3 ADD PUSH1 0x20 ADD SWAP3 SWAP2 POP POP JUMP JUMPDEST PUSH1 0x0 DUP1 DUP4 SLOAD DUP2 PUSH1 0x1 DUP3 DUP2 SHR SWAP2 POP DUP1 DUP4 AND DUP1 PUSH2 0xEE2 JUMPI PUSH1 0x7F DUP4 AND SWAP3 POP JUMPDEST PUSH1 0x20 DUP1 DUP5 LT DUP3 EQ ISZERO PUSH2 0xF02 JUMPI PUSH4 0x4E487B71 PUSH1 0xE0 SHL DUP7 MSTORE PUSH1 0x22 PUSH1 0x4 MSTORE PUSH1 0x24 DUP7 REVERT JUMPDEST DUP2 DUP1 ISZERO PUSH2 0xF16 JUMPI PUSH1 0x1 DUP2 EQ PUSH2 0xF27 JUMPI PUSH2 0xF54 JUMP JUMPDEST PUSH1 0xFF NOT DUP7 AND DUP10 MSTORE DUP5 DUP10 ADD SWAP7 POP PUSH2 0xF54 JUMP JUMPDEST PUSH1 0x0 DUP11 DUP2 MSTORE PUSH1 0x20 SWAP1 KECCAK256 PUSH1 0x0 JUMPDEST DUP7 DUP2 LT ISZERO PUSH2 0xF4C JUMPI DUP2 SLOAD DUP12 DUP3 ADD MSTORE SWAP1 DUP6 ADD SWAP1 DUP4 ADD PUSH2 0xF33 JUMP JUMPDEST POP POP DUP5 DUP10 ADD SWAP7 POP JUMPDEST POP SWAP5 SWAP9 SWAP8 POP POP POP POP POP POP POP POP JUMP JUMPDEST PUSH1 0x1 DUP1 PUSH1 0xA0 SHL SUB DUP7 AND DUP2 MSTORE DUP5 PUSH1 0x20 DUP3 ADD MSTORE PUSH1 0xA0 PUSH1 0x40 DUP3 ADD MSTORE PUSH1 0x0 PUSH2 0xF89 PUSH1 0xA0 DUP4 ADD DUP7 PUSH2 0xE79 JUMP JUMPDEST SWAP4 ISZERO ISZERO PUSH1 0x60 DUP4 ADD MSTORE POP PUSH1 0x80 ADD MSTORE SWAP4 SWAP3 POP POP POP JUMP JUMPDEST PUSH1 0x20 DUP1 DUP3 MSTORE DUP3 MLOAD DUP3 DUP3 ADD DUP2 SWAP1 MSTORE PUSH1 0x0 SWAP2 SWAP1 DUP5 DUP3 ADD SWAP1 PUSH1 0x40 DUP6 ADD SWAP1 DUP5 JUMPDEST DUP2 DUP2 LT ISZERO PUSH2 0xFDE JUMPI DUP4 MLOAD PUSH1 0x1 PUSH1 0x1 PUSH1 0xA0 SHL SUB AND DUP4 MSTORE SWAP3 DUP5 ADD SWAP3 SWAP2 DUP5 ADD SWAP2 PUSH1 0x1 ADD PUSH2 0xFB9 JUMP JUMPDEST POP SWAP1 SWAP7 SWAP6 POP POP POP POP POP POP JUMP JUMPDEST PUSH1 0x20 DUP1 DUP3 MSTORE PUSH1 0xD SWAP1 DUP3 ADD MSTORE PUSH13 0x2737BA103A34329037BBB732B9 PUSH1 0x99 SHL PUSH1 0x40 DUP3 ADD MSTORE PUSH1 0x60 ADD SWAP1 JUMP JUMPDEST PUSH1 0x20 DUP1 DUP3 MSTORE PUSH1 0x12 SWAP1 DUP3 ADD MSTORE PUSH18 0x1D1E08185B1C9958591E48195E18DD5D1959 PUSH1 0x72 SHL PUSH1 0x40 DUP3 ADD MSTORE PUSH1 0x60 ADD SWAP1 JUMP JUMPDEST PUSH1 0x20 DUP1 DUP3 MSTORE PUSH1 0x1A SWAP1 DUP3 ADD MSTORE PUSH32 0x7472616E73616374696F6E20646F6573206E6F74206578697374000000000000 PUSH1 0x40 DUP3 ADD MSTORE PUSH1 0x60 ADD SWAP1 JUMP JUMPDEST DUP3 DUP2 MSTORE PUSH1 0x40 PUSH1 0x20 DUP3 ADD MSTORE PUSH1 0x0 PUSH2 0x108D PUSH1 0x40 DUP4 ADD DUP5 PUSH2 0xE79 JUMP JUMPDEST SWAP5 SWAP4 POP POP POP POP JUMP JUMPDEST PUSH1 0x0 DUP3 NOT DUP3 GT ISZERO PUSH2 0x10A8 JUMPI PUSH2 0x10A8 PUSH2 0x10FF JUMP JUMPDEST POP ADD SWAP1 JUMP JUMPDEST PUSH1 0x0 DUP3 DUP3 LT ISZERO PUSH2 0x10BF JUMPI PUSH2 0x10BF PUSH2 0x10FF JUMP JUMPDEST POP SUB SWAP1 JUMP JUMPDEST PUSH1 0x1 DUP2 DUP2 SHR SWAP1 DUP3 AND DUP1 PUSH2 0x10D8 JUMPI PUSH1 0x7F DUP3 AND SWAP2 POP JUMPDEST PUSH1 0x20 DUP3 LT DUP2 EQ ISZERO PUSH2 0x10F9 JUMPI PUSH4 0x4E487B71 PUSH1 0xE0 SHL PUSH1 0x0 MSTORE PUSH1 0x22 PUSH1 0x4 MSTORE PUSH1 0x24 PUSH1 0x0 REVERT JUMPDEST POP SWAP2 SWAP1 POP JUMP JUMPDEST PUSH4 0x4E487B71 PUSH1 0xE0 SHL PUSH1 0x0 MSTORE PUSH1 0x11 PUSH1 0x4 MSTORE PUSH1 0x24 PUSH1 0x0 REVERT JUMPDEST PUSH4 0x4E487B71 PUSH1 0xE0 SHL PUSH1 0x0 MSTORE PUSH1 0x32 PUSH1 0x4 MSTORE PUSH1 0x24 PUSH1 0x0 REVERT JUMPDEST PUSH4 0x4E487B71 PUSH1 0xE0 SHL PUSH1 0x0 MSTORE PUSH1 0x41 PUSH1 0x4 MSTORE PUSH1 0x24 PUSH1 0x0 REVERT INVALID LOG2 PUSH5 0x6970667358 0x22 SLT KECCAK256 0x2E 0xDF 0xAC PUSH12 0x9E2E8BBF025B49B9D7B8AAA6 CALLER DELEGATECALL DUP14 0x2B 0xC4 0xB3 0xF 0x4B 0xD9 PUSH3 0xDA9900 DUP13 EXTCODECOPY MOD PUSH5 0x736F6C6343 STOP ADDMOD SMOD STOP CALLER "
				},
				"gasEstimates": {
					"creation": {
						"codeDepositCost": "894200",
						"executionCost": "infinite",
						"totalCost": "infinite"
					},
					"external": {
						"DepositETH()": "infinite",
						"confirmTransaction(uint256)": "63604",
						"executeTransaction(uint256)": "infinite",
						"getOwners()": "infinite",
						"getTransaction(uint256)": "infinite",
						"getTransactionCount()": "2326",
						"isConfirmed(uint256,address)": "2740",
						"isOwner(address)": "2598",
						"numConfirmationsRequired()": "2339",
						"owners(uint256)": "4604",
						"revokeConfirmation(uint256)": "63546",
						"submitTransaction(address,uint256,bytes)": "infinite",
						"transactions(uint256)": "infinite"
					}
				},
				"methodIdentifiers": {
					"DepositETH()": "fba246de",
					"confirmTransaction(uint256)": "c01a8c84",
					"executeTransaction(uint256)": "ee22610b",
					"getOwners()": "a0e67e2b",
					"getTransaction(uint256)": "33ea3dc8",
					"getTransactionCount()": "2e7700f0",
					"isConfirmed(uint256,address)": "80f59a65",
					"isOwner(address)": "2f54bf6e",
					"numConfirmationsRequired()": "d0549b85",
					"owners(uint256)": "025e7c27",
					"revokeConfirmation(uint256)": "20ea8d86",
					"submitTransaction(address,uint256,bytes)": "c6427474",
					"transactions(uint256)": "9ace38c2"
				}
			},
			"storageLayout": {
				"storage": [
					{
						"astId": 42,
						"contract": "contracts/MutliSigWalletClassExample.sol:MultiSigWallet",
						"label": "owners",
						"offset": 0,
						"slot": "0",
						"type": "t_array(t_address)dyn_storage"
					},
					{
						"astId": 46,
						"contract": "contracts/MutliSigWalletClassExample.sol:MultiSigWallet",
						"label": "isOwner",
						"offset": 0,
						"slot": "1",
						"type": "t_mapping(t_address,t_bool)"
					},
					{
						"astId": 48,
						"contract": "contracts/MutliSigWalletClassExample.sol:MultiSigWallet",
						"label": "numConfirmationsRequired",
						"offset": 0,
						"slot": "2",
						"type": "t_uint256"
					},
					{
						"astId": 65,
						"contract": "contracts/MutliSigWalletClassExample.sol:MultiSigWallet",
						"label": "isConfirmed",
						"offset": 0,
						"slot": "3",
						"type": "t_mapping(t_uint256,t_mapping(t_address,t_bool))"
					},
					{
						"astId": 69,
						"contract": "contracts/MutliSigWalletClassExample.sol:MultiSigWallet",
						"label": "transactions",
						"offset": 0,
						"slot": "4",
						"type": "t_array(t_struct(Transaction)59_storage)dyn_storage"
					}
				],
				"types": {
					"t_address": {
						"encoding": "inplace",
						"label": "address",
						"numberOfBytes": "20"
					},
					"t_array(t_address)dyn_storage": {
						"base": "t_address",
						"encoding": "dynamic_array",
						"label": "address[]",
						"numberOfBytes": "32"
					},
					"t_array(t_struct(Transaction)59_storage)dyn_storage": {
						"base": "t_struct(Transaction)59_storage",
						"encoding": "dynamic_array",
						"label": "struct MultiSigWallet.Transaction[]",
						"numberOfBytes": "32"
					},
					"t_bool": {
						"encoding": "inplace",
						"label": "bool",
						"numberOfBytes": "1"
					},
					"t_bytes_storage": {
						"encoding": "bytes",
						"label": "bytes",
						"numberOfBytes": "32"
					},
					"t_mapping(t_address,t_bool)": {
						"encoding": "mapping",
						"key": "t_address",
						"label": "mapping(address => bool)",
						"numberOfBytes": "32",
						"value": "t_bool"
					},
					"t_mapping(t_uint256,t_mapping(t_address,t_bool))": {
						"encoding": "mapping",
						"key": "t_uint256",
						"label": "mapping(uint256 => mapping(address => bool))",
						"numberOfBytes": "32",
						"value": "t_mapping(t_address,t_bool)"
					},
					"t_struct(Transaction)59_storage": {
						"encoding": "inplace",
						"label": "struct MultiSigWallet.Transaction",
						"members": [
							{
								"astId": 50,
								"contract": "contracts/MutliSigWalletClassExample.sol:MultiSigWallet",
								"label": "to",
								"offset": 0,
								"slot": "0",
								"type": "t_address"
							},
							{
								"astId": 52,
								"contract": "contracts/MutliSigWalletClassExample.sol:MultiSigWallet",
								"label": "value",
								"offset": 0,
								"slot": "1",
								"type": "t_uint256"
							},
							{
								"astId": 54,
								"contract": "contracts/MutliSigWalletClassExample.sol:MultiSigWallet",
								"label": "data",
								"offset": 0,
								"slot": "2",
								"type": "t_bytes_storage"
							},
							{
								"astId": 56,
								"contract": "contracts/MutliSigWalletClassExample.sol:MultiSigWallet",
								"label": "executed",
								"offset": 0,
								"slot": "3",
								"type": "t_bool"
							},
							{
								"astId": 58,
								"contract": "contracts/MutliSigWalletClassExample.sol:MultiSigWallet",
								"label": "numConfirmations",
								"offset": 0,
								"slot": "4",
								"type": "t_uint256"
							}
						],
						"numberOfBytes": "160"
					},
					"t_uint256": {
						"encoding": "inplace",
						"label": "uint256",
						"numberOfBytes": "32"
					}
				}
			},
			"userdoc": {
				"kind": "user",
				"methods": {},
				"version": 1
			}
		}
	}
}