{
	"contracts/Ifelse.sol": {
		"Ifelse": {
			"abi": [
				{
					"inputs": [
						{
							"internalType": "uint256",
							"name": "x",
							"type": "uint256"
						}
					],
					"name": "condition",
					"outputs": [
						{
							"internalType": "uint256",
							"name": "",
							"type": "uint256"
						}
					],
					"stateMutability": "view",
					"type": "function"
				},
				{
					"inputs": [
						{
							"internalType": "int256",
							"name": "y",
							"type": "int256"
						}
					],
					"name": "condition2",
					"outputs": [
						{
							"internalType": "int256",
							"name": "",
							"type": "int256"
						}
					],
					"stateMutability": "view",
					"type": "function"
				}
			],
			"devdoc": {
				"kind": "dev",
				"methods": {},
				"version": 1
			},
			"evm": {
				"assembly": "    /* \"contracts/Ifelse.sol\":56:740  contract Ifelse\r... */\n  mstore(0x40, 0x80)\n  callvalue\n  dup1\n  iszero\n  tag_1\n  jumpi\n  0x00\n  dup1\n  revert\ntag_1:\n  pop\n  dataSize(sub_0)\n  dup1\n  dataOffset(sub_0)\n  0x00\n  codecopy\n  0x00\n  return\nstop\n\nsub_0: assembly {\n        /* \"contracts/Ifelse.sol\":56:740  contract Ifelse\r... */\n      mstore(0x40, 0x80)\n      callvalue\n      dup1\n      iszero\n      tag_1\n      jumpi\n      0x00\n      dup1\n      revert\n    tag_1:\n      pop\n      jumpi(tag_2, lt(calldatasize, 0x04))\n      shr(0xe0, calldataload(0x00))\n      dup1\n      0xf0fbda46\n      eq\n      tag_3\n      jumpi\n      dup1\n      0xf24fc903\n      eq\n      tag_4\n      jumpi\n    tag_2:\n      0x00\n      dup1\n      revert\n        /* \"contracts/Ifelse.sol\":332:737  function condition2(int y) public view returns(int)\r... */\n    tag_3:\n      tag_5\n      0x04\n      dup1\n      calldatasize\n      sub\n      dup2\n      add\n      swap1\n      tag_6\n      swap2\n      swap1\n      tag_7\n      jump\t// in\n    tag_6:\n      tag_8\n      jump\t// in\n    tag_5:\n      mload(0x40)\n      tag_9\n      swap2\n      swap1\n      tag_10\n      jump\t// in\n    tag_9:\n      mload(0x40)\n      dup1\n      swap2\n      sub\n      swap1\n      return\n        /* \"contracts/Ifelse.sol\":80:326  function condition(uint x) public view returns(uint)\r... */\n    tag_4:\n      tag_11\n      0x04\n      dup1\n      calldatasize\n      sub\n      dup2\n      add\n      swap1\n      tag_12\n      swap2\n      swap1\n      tag_13\n      jump\t// in\n    tag_12:\n      tag_14\n      jump\t// in\n    tag_11:\n      mload(0x40)\n      tag_15\n      swap2\n      swap1\n      tag_16\n      jump\t// in\n    tag_15:\n      mload(0x40)\n      dup1\n      swap2\n      sub\n      swap1\n      return\n        /* \"contracts/Ifelse.sol\":332:737  function condition2(int y) public view returns(int)\r... */\n    tag_8:\n        /* \"contracts/Ifelse.sol\":379:382  int */\n      0x00\n        /* \"contracts/Ifelse.sol\":406:407  0 */\n      dup1\n        /* \"contracts/Ifelse.sol\":403:404  y */\n      dup3\n        /* \"contracts/Ifelse.sol\":403:407  y<=0 */\n      sgt\n        /* \"contracts/Ifelse.sol\":400:719  if(y<=0)\r... */\n      tag_18\n      jumpi\n        /* \"contracts/Ifelse.sol\":440:441  5 */\n      0x05\n        /* \"contracts/Ifelse.sol\":433:441  return 5 */\n      swap1\n      pop\n      jump(tag_17)\n        /* \"contracts/Ifelse.sol\":400:719  if(y<=0)\r... */\n    tag_18:\n        /* \"contracts/Ifelse.sol\":473:474  0 */\n      0x00\n        /* \"contracts/Ifelse.sol\":471:472  y */\n      dup3\n        /* \"contracts/Ifelse.sol\":471:474  y>0 */\n      sgt\n        /* \"contracts/Ifelse.sol\":471:483  y>0 && y<=10 */\n      dup1\n      iszero\n      tag_20\n      jumpi\n      pop\n        /* \"contracts/Ifelse.sol\":481:483  10 */\n      0x0a\n        /* \"contracts/Ifelse.sol\":478:479  y */\n      dup3\n        /* \"contracts/Ifelse.sol\":478:483  y<=10 */\n      sgt\n      iszero\n        /* \"contracts/Ifelse.sol\":471:483  y>0 && y<=10 */\n    tag_20:\n        /* \"contracts/Ifelse.sol\":468:719  if(y>0 && y<=10)\r... */\n      iszero\n      tag_21\n      jumpi\n        /* \"contracts/Ifelse.sol\":516:517  1 */\n      0x01\n        /* \"contracts/Ifelse.sol\":509:517  return 1 */\n      swap1\n      pop\n      jump(tag_17)\n        /* \"contracts/Ifelse.sol\":468:719  if(y>0 && y<=10)\r... */\n    tag_21:\n        /* \"contracts/Ifelse.sol\":549:551  10 */\n      0x0a\n        /* \"contracts/Ifelse.sol\":547:548  y */\n      dup3\n        /* \"contracts/Ifelse.sol\":547:551  y>10 */\n      sgt\n        /* \"contracts/Ifelse.sol\":547:560  y>10 && y<=20 */\n      dup1\n      iszero\n      tag_23\n      jumpi\n      pop\n        /* \"contracts/Ifelse.sol\":558:560  20 */\n      0x14\n        /* \"contracts/Ifelse.sol\":555:556  y */\n      dup3\n        /* \"contracts/Ifelse.sol\":555:560  y<=20 */\n      sgt\n      iszero\n        /* \"contracts/Ifelse.sol\":547:560  y>10 && y<=20 */\n    tag_23:\n        /* \"contracts/Ifelse.sol\":544:719  if(y>10 && y<=20)\r... */\n      iszero\n      tag_24\n      jumpi\n        /* \"contracts/Ifelse.sol\":593:594  2 */\n      0x02\n        /* \"contracts/Ifelse.sol\":586:594  return 2 */\n      swap1\n      pop\n      jump(tag_17)\n        /* \"contracts/Ifelse.sol\":544:719  if(y>10 && y<=20)\r... */\n    tag_24:\n        /* \"contracts/Ifelse.sol\":627:629  20 */\n      0x14\n        /* \"contracts/Ifelse.sol\":625:626  y */\n      dup3\n        /* \"contracts/Ifelse.sol\":625:629  y>20 */\n      sgt\n        /* \"contracts/Ifelse.sol\":625:638  y>20 && y<=30 */\n      dup1\n      iszero\n      tag_26\n      jumpi\n      pop\n        /* \"contracts/Ifelse.sol\":636:638  30 */\n      0x1e\n        /* \"contracts/Ifelse.sol\":633:634  y */\n      dup3\n        /* \"contracts/Ifelse.sol\":633:638  y<=30 */\n      sgt\n      iszero\n        /* \"contracts/Ifelse.sol\":625:638  y>20 && y<=30 */\n    tag_26:\n        /* \"contracts/Ifelse.sol\":622:719  if(y>20 && y<=30)\r... */\n      iszero\n      tag_27\n      jumpi\n        /* \"contracts/Ifelse.sol\":671:672  3 */\n      0x03\n        /* \"contracts/Ifelse.sol\":664:672  return 3 */\n      swap1\n      pop\n      jump(tag_17)\n        /* \"contracts/Ifelse.sol\":622:719  if(y>20 && y<=30)\r... */\n    tag_27:\n        /* \"contracts/Ifelse.sol\":718:719  4 */\n      0x04\n        /* \"contracts/Ifelse.sol\":711:719  return 4 */\n      swap1\n      pop\n        /* \"contracts/Ifelse.sol\":332:737  function condition2(int y) public view returns(int)\r... */\n    tag_17:\n      swap2\n      swap1\n      pop\n      jump\t// out\n        /* \"contracts/Ifelse.sol\":80:326  function condition(uint x) public view returns(uint)\r... */\n    tag_14:\n        /* \"contracts/Ifelse.sol\":127:131  uint */\n      0x00\n        /* \"contracts/Ifelse.sol\":154:156  10 */\n      0x0a\n        /* \"contracts/Ifelse.sol\":152:153  x */\n      dup3\n        /* \"contracts/Ifelse.sol\":152:156  x>10 */\n      gt\n        /* \"contracts/Ifelse.sol\":149:319  if(x>10)\r... */\n      iszero\n      tag_30\n      jumpi\n        /* \"contracts/Ifelse.sol\":189:190  0 */\n      0x00\n        /* \"contracts/Ifelse.sol\":182:190  return 0 */\n      swap1\n      pop\n      jump(tag_29)\n        /* \"contracts/Ifelse.sol\":149:319  if(x>10)\r... */\n    tag_30:\n        /* \"contracts/Ifelse.sol\":222:224  10 */\n      0x0a\n        /* \"contracts/Ifelse.sol\":220:221  x */\n      dup3\n        /* \"contracts/Ifelse.sol\":220:224  x<10 */\n      lt\n        /* \"contracts/Ifelse.sol\":217:319  if(x<10)\r... */\n      iszero\n      tag_32\n      jumpi\n        /* \"contracts/Ifelse.sol\":257:258  1 */\n      0x01\n        /* \"contracts/Ifelse.sol\":250:258  return 1 */\n      swap1\n      pop\n      jump(tag_29)\n        /* \"contracts/Ifelse.sol\":217:319  if(x<10)\r... */\n    tag_32:\n        /* \"contracts/Ifelse.sol\":306:307  2 */\n      0x02\n        /* \"contracts/Ifelse.sol\":299:307  return 2 */\n      swap1\n      pop\n        /* \"contracts/Ifelse.sol\":80:326  function condition(uint x) public view returns(uint)\r... */\n    tag_29:\n      swap2\n      swap1\n      pop\n      jump\t// out\n        /* \"#utility.yul\":7:144   */\n    tag_35:\n        /* \"#utility.yul\":52:57   */\n      0x00\n        /* \"#utility.yul\":90:96   */\n      dup2\n        /* \"#utility.yul\":77:97   */\n      calldataload\n        /* \"#utility.yul\":68:97   */\n      swap1\n      pop\n        /* \"#utility.yul\":106:138   */\n      tag_37\n        /* \"#utility.yul\":132:137   */\n      dup2\n        /* \"#utility.yul\":106:138   */\n      tag_38\n      jump\t// in\n    tag_37:\n        /* \"#utility.yul\":7:144   */\n      swap3\n      swap2\n      pop\n      pop\n      jump\t// out\n        /* \"#utility.yul\":150:289   */\n    tag_39:\n        /* \"#utility.yul\":196:201   */\n      0x00\n        /* \"#utility.yul\":234:240   */\n      dup2\n        /* \"#utility.yul\":221:241   */\n      calldataload\n        /* \"#utility.yul\":212:241   */\n      swap1\n      pop\n        /* \"#utility.yul\":250:283   */\n      tag_41\n        /* \"#utility.yul\":277:282   */\n      dup2\n        /* \"#utility.yul\":250:283   */\n      tag_42\n      jump\t// in\n    tag_41:\n        /* \"#utility.yul\":150:289   */\n      swap3\n      swap2\n      pop\n      pop\n      jump\t// out\n        /* \"#utility.yul\":295:622   */\n    tag_7:\n        /* \"#utility.yul\":353:359   */\n      0x00\n        /* \"#utility.yul\":402:404   */\n      0x20\n        /* \"#utility.yul\":390:399   */\n      dup3\n        /* \"#utility.yul\":381:388   */\n      dup5\n        /* \"#utility.yul\":377:400   */\n      sub\n        /* \"#utility.yul\":373:405   */\n      slt\n        /* \"#utility.yul\":370:489   */\n      iszero\n      tag_44\n      jumpi\n        /* \"#utility.yul\":408:487   */\n      tag_45\n      tag_46\n      jump\t// in\n    tag_45:\n        /* \"#utility.yul\":370:489   */\n    tag_44:\n        /* \"#utility.yul\":528:529   */\n      0x00\n        /* \"#utility.yul\":553:605   */\n      tag_47\n        /* \"#utility.yul\":597:604   */\n      dup5\n        /* \"#utility.yul\":588:594   */\n      dup3\n        /* \"#utility.yul\":577:586   */\n      dup6\n        /* \"#utility.yul\":573:595   */\n      add\n        /* \"#utility.yul\":553:605   */\n      tag_35\n      jump\t// in\n    tag_47:\n        /* \"#utility.yul\":543:605   */\n      swap2\n      pop\n        /* \"#utility.yul\":499:615   */\n      pop\n        /* \"#utility.yul\":295:622   */\n      swap3\n      swap2\n      pop\n      pop\n      jump\t// out\n        /* \"#utility.yul\":628:957   */\n    tag_13:\n        /* \"#utility.yul\":687:693   */\n      0x00\n        /* \"#utility.yul\":736:738   */\n      0x20\n        /* \"#utility.yul\":724:733   */\n      dup3\n        /* \"#utility.yul\":715:722   */\n      dup5\n        /* \"#utility.yul\":711:734   */\n      sub\n        /* \"#utility.yul\":707:739   */\n      slt\n        /* \"#utility.yul\":704:823   */\n      iszero\n      tag_49\n      jumpi\n        /* \"#utility.yul\":742:821   */\n      tag_50\n      tag_46\n      jump\t// in\n    tag_50:\n        /* \"#utility.yul\":704:823   */\n    tag_49:\n        /* \"#utility.yul\":862:863   */\n      0x00\n        /* \"#utility.yul\":887:940   */\n      tag_51\n        /* \"#utility.yul\":932:939   */\n      dup5\n        /* \"#utility.yul\":923:929   */\n      dup3\n        /* \"#utility.yul\":912:921   */\n      dup6\n        /* \"#utility.yul\":908:930   */\n      add\n        /* \"#utility.yul\":887:940   */\n      tag_39\n      jump\t// in\n    tag_51:\n        /* \"#utility.yul\":877:940   */\n      swap2\n      pop\n        /* \"#utility.yul\":833:950   */\n      pop\n        /* \"#utility.yul\":628:957   */\n      swap3\n      swap2\n      pop\n      pop\n      jump\t// out\n        /* \"#utility.yul\":963:1078   */\n    tag_52:\n        /* \"#utility.yul\":1048:1071   */\n      tag_54\n        /* \"#utility.yul\":1065:1070   */\n      dup2\n        /* \"#utility.yul\":1048:1071   */\n      tag_55\n      jump\t// in\n    tag_54:\n        /* \"#utility.yul\":1043:1046   */\n      dup3\n        /* \"#utility.yul\":1036:1072   */\n      mstore\n        /* \"#utility.yul\":963:1078   */\n      pop\n      pop\n      jump\t// out\n        /* \"#utility.yul\":1084:1202   */\n    tag_56:\n        /* \"#utility.yul\":1171:1195   */\n      tag_58\n        /* \"#utility.yul\":1189:1194   */\n      dup2\n        /* \"#utility.yul\":1171:1195   */\n      tag_59\n      jump\t// in\n    tag_58:\n        /* \"#utility.yul\":1166:1169   */\n      dup3\n        /* \"#utility.yul\":1159:1196   */\n      mstore\n        /* \"#utility.yul\":1084:1202   */\n      pop\n      pop\n      jump\t// out\n        /* \"#utility.yul\":1208:1426   */\n    tag_10:\n        /* \"#utility.yul\":1299:1303   */\n      0x00\n        /* \"#utility.yul\":1337:1339   */\n      0x20\n        /* \"#utility.yul\":1326:1335   */\n      dup3\n        /* \"#utility.yul\":1322:1340   */\n      add\n        /* \"#utility.yul\":1314:1340   */\n      swap1\n      pop\n        /* \"#utility.yul\":1350:1419   */\n      tag_61\n        /* \"#utility.yul\":1416:1417   */\n      0x00\n        /* \"#utility.yul\":1405:1414   */\n      dup4\n        /* \"#utility.yul\":1401:1418   */\n      add\n        /* \"#utility.yul\":1392:1398   */\n      dup5\n        /* \"#utility.yul\":1350:1419   */\n      tag_52\n      jump\t// in\n    tag_61:\n        /* \"#utility.yul\":1208:1426   */\n      swap3\n      swap2\n      pop\n      pop\n      jump\t// out\n        /* \"#utility.yul\":1432:1654   */\n    tag_16:\n        /* \"#utility.yul\":1525:1529   */\n      0x00\n        /* \"#utility.yul\":1563:1565   */\n      0x20\n        /* \"#utility.yul\":1552:1561   */\n      dup3\n        /* \"#utility.yul\":1548:1566   */\n      add\n        /* \"#utility.yul\":1540:1566   */\n      swap1\n      pop\n        /* \"#utility.yul\":1576:1647   */\n      tag_63\n        /* \"#utility.yul\":1644:1645   */\n      0x00\n        /* \"#utility.yul\":1633:1642   */\n      dup4\n        /* \"#utility.yul\":1629:1646   */\n      add\n        /* \"#utility.yul\":1620:1626   */\n      dup5\n        /* \"#utility.yul\":1576:1647   */\n      tag_56\n      jump\t// in\n    tag_63:\n        /* \"#utility.yul\":1432:1654   */\n      swap3\n      swap2\n      pop\n      pop\n      jump\t// out\n        /* \"#utility.yul\":1741:1817   */\n    tag_55:\n        /* \"#utility.yul\":1777:1784   */\n      0x00\n        /* \"#utility.yul\":1806:1811   */\n      dup2\n        /* \"#utility.yul\":1795:1811   */\n      swap1\n      pop\n        /* \"#utility.yul\":1741:1817   */\n      swap2\n      swap1\n      pop\n      jump\t// out\n        /* \"#utility.yul\":1823:1900   */\n    tag_59:\n        /* \"#utility.yul\":1860:1867   */\n      0x00\n        /* \"#utility.yul\":1889:1894   */\n      dup2\n        /* \"#utility.yul\":1878:1894   */\n      swap1\n      pop\n        /* \"#utility.yul\":1823:1900   */\n      swap2\n      swap1\n      pop\n      jump\t// out\n        /* \"#utility.yul\":2029:2146   */\n    tag_46:\n        /* \"#utility.yul\":2138:2139   */\n      0x00\n        /* \"#utility.yul\":2135:2136   */\n      dup1\n        /* \"#utility.yul\":2128:2140   */\n      revert\n        /* \"#utility.yul\":2152:2272   */\n    tag_38:\n        /* \"#utility.yul\":2224:2247   */\n      tag_72\n        /* \"#utility.yul\":2241:2246   */\n      dup2\n        /* \"#utility.yul\":2224:2247   */\n      tag_55\n      jump\t// in\n    tag_72:\n        /* \"#utility.yul\":2217:2222   */\n      dup2\n        /* \"#utility.yul\":2214:2248   */\n      eq\n        /* \"#utility.yul\":2204:2266   */\n      tag_73\n      jumpi\n        /* \"#utility.yul\":2262:2263   */\n      0x00\n        /* \"#utility.yul\":2259:2260   */\n      dup1\n        /* \"#utility.yul\":2252:2264   */\n      revert\n        /* \"#utility.yul\":2204:2266   */\n    tag_73:\n        /* \"#utility.yul\":2152:2272   */\n      pop\n      jump\t// out\n        /* \"#utility.yul\":2278:2400   */\n    tag_42:\n        /* \"#utility.yul\":2351:2375   */\n      tag_75\n        /* \"#utility.yul\":2369:2374   */\n      dup2\n        /* \"#utility.yul\":2351:2375   */\n      tag_59\n      jump\t// in\n    tag_75:\n        /* \"#utility.yul\":2344:2349   */\n      dup2\n        /* \"#utility.yul\":2341:2376   */\n      eq\n        /* \"#utility.yul\":2331:2394   */\n      tag_76\n      jumpi\n        /* \"#utility.yul\":2390:2391   */\n      0x00\n        /* \"#utility.yul\":2387:2388   */\n      dup1\n        /* \"#utility.yul\":2380:2392   */\n      revert\n        /* \"#utility.yul\":2331:2394   */\n    tag_76:\n        /* \"#utility.yul\":2278:2400   */\n      pop\n      jump\t// out\n\n    auxdata: 0xa264697066735822122012021814eac48545d1d018d7711e1d9b2ac33c9cfec4ed5b59f96b5a0c0b5fb464736f6c63430008070033\n}\n",
				"bytecode": {
					"linkReferences": {},
					"object": "608060405234801561001057600080fd5b50610299806100206000396000f3fe608060405234801561001057600080fd5b50600436106100365760003560e01c8063f0fbda461461003b578063f24fc9031461006b575b600080fd5b6100556004803603810190610050919061016e565b61009b565b60405161006291906101e6565b60405180910390f35b6100856004803603810190610080919061019b565b610114565b6040516100929190610201565b60405180910390f35b60008082136100ad576005905061010f565b6000821380156100be5750600a8213155b156100cc576001905061010f565b600a821380156100dd575060148213155b156100eb576002905061010f565b6014821380156100fc5750601e8213155b1561010a576003905061010f565b600490505b919050565b6000600a821115610128576000905061013f565b600a82101561013a576001905061013f565b600290505b919050565b60008135905061015381610235565b92915050565b6000813590506101688161024c565b92915050565b60006020828403121561018457610183610230565b5b600061019284828501610144565b91505092915050565b6000602082840312156101b1576101b0610230565b5b60006101bf84828501610159565b91505092915050565b6101d18161021c565b82525050565b6101e081610226565b82525050565b60006020820190506101fb60008301846101c8565b92915050565b600060208201905061021660008301846101d7565b92915050565b6000819050919050565b6000819050919050565b600080fd5b61023e8161021c565b811461024957600080fd5b50565b61025581610226565b811461026057600080fd5b5056fea264697066735822122012021814eac48545d1d018d7711e1d9b2ac33c9cfec4ed5b59f96b5a0c0b5fb464736f6c63430008070033",
					"opcodes": "PUSH1 0x80 PUSH1 0x40 MSTORE CALLVALUE DUP1 ISZERO PUSH2 0x10 JUMPI PUSH1 0x0 DUP1 REVERT JUMPDEST POP PUSH2 0x299 DUP1 PUSH2 0x20 PUSH1 0x0 CODECOPY PUSH1 0x0 RETURN INVALID PUSH1 0x80 PUSH1 0x40 MSTORE CALLVALUE DUP1 ISZERO PUSH2 0x10 JUMPI PUSH1 0x0 DUP1 REVERT JUMPDEST POP PUSH1 0x4 CALLDATASIZE LT PUSH2 0x36 JUMPI PUSH1 0x0 CALLDATALOAD PUSH1 0xE0 SHR DUP1 PUSH4 0xF0FBDA46 EQ PUSH2 0x3B JUMPI DUP1 PUSH4 0xF24FC903 EQ PUSH2 0x6B JUMPI JUMPDEST PUSH1 0x0 DUP1 REVERT JUMPDEST PUSH2 0x55 PUSH1 0x4 DUP1 CALLDATASIZE SUB DUP2 ADD SWAP1 PUSH2 0x50 SWAP2 SWAP1 PUSH2 0x16E JUMP JUMPDEST PUSH2 0x9B JUMP JUMPDEST PUSH1 0x40 MLOAD PUSH2 0x62 SWAP2 SWAP1 PUSH2 0x1E6 JUMP JUMPDEST PUSH1 0x40 MLOAD DUP1 SWAP2 SUB SWAP1 RETURN JUMPDEST PUSH2 0x85 PUSH1 0x4 DUP1 CALLDATASIZE SUB DUP2 ADD SWAP1 PUSH2 0x80 SWAP2 SWAP1 PUSH2 0x19B JUMP JUMPDEST PUSH2 0x114 JUMP JUMPDEST PUSH1 0x40 MLOAD PUSH2 0x92 SWAP2 SWAP1 PUSH2 0x201 JUMP JUMPDEST PUSH1 0x40 MLOAD DUP1 SWAP2 SUB SWAP1 RETURN JUMPDEST PUSH1 0x0 DUP1 DUP3 SGT PUSH2 0xAD JUMPI PUSH1 0x5 SWAP1 POP PUSH2 0x10F JUMP JUMPDEST PUSH1 0x0 DUP3 SGT DUP1 ISZERO PUSH2 0xBE JUMPI POP PUSH1 0xA DUP3 SGT ISZERO JUMPDEST ISZERO PUSH2 0xCC JUMPI PUSH1 0x1 SWAP1 POP PUSH2 0x10F JUMP JUMPDEST PUSH1 0xA DUP3 SGT DUP1 ISZERO PUSH2 0xDD JUMPI POP PUSH1 0x14 DUP3 SGT ISZERO JUMPDEST ISZERO PUSH2 0xEB JUMPI PUSH1 0x2 SWAP1 POP PUSH2 0x10F JUMP JUMPDEST PUSH1 0x14 DUP3 SGT DUP1 ISZERO PUSH2 0xFC JUMPI POP PUSH1 0x1E DUP3 SGT ISZERO JUMPDEST ISZERO PUSH2 0x10A JUMPI PUSH1 0x3 SWAP1 POP PUSH2 0x10F JUMP JUMPDEST PUSH1 0x4 SWAP1 POP JUMPDEST SWAP2 SWAP1 POP JUMP JUMPDEST PUSH1 0x0 PUSH1 0xA DUP3 GT ISZERO PUSH2 0x128 JUMPI PUSH1 0x0 SWAP1 POP PUSH2 0x13F JUMP JUMPDEST PUSH1 0xA DUP3 LT ISZERO PUSH2 0x13A JUMPI PUSH1 0x1 SWAP1 POP PUSH2 0x13F JUMP JUMPDEST PUSH1 0x2 SWAP1 POP JUMPDEST SWAP2 SWAP1 POP JUMP JUMPDEST PUSH1 0x0 DUP2 CALLDATALOAD SWAP1 POP PUSH2 0x153 DUP2 PUSH2 0x235 JUMP JUMPDEST SWAP3 SWAP2 POP POP JUMP JUMPDEST PUSH1 0x0 DUP2 CALLDATALOAD SWAP1 POP PUSH2 0x168 DUP2 PUSH2 0x24C JUMP JUMPDEST SWAP3 SWAP2 POP POP JUMP JUMPDEST PUSH1 0x0 PUSH1 0x20 DUP3 DUP5 SUB SLT ISZERO PUSH2 0x184 JUMPI PUSH2 0x183 PUSH2 0x230 JUMP JUMPDEST JUMPDEST PUSH1 0x0 PUSH2 0x192 DUP5 DUP3 DUP6 ADD PUSH2 0x144 JUMP JUMPDEST SWAP2 POP POP SWAP3 SWAP2 POP POP JUMP JUMPDEST PUSH1 0x0 PUSH1 0x20 DUP3 DUP5 SUB SLT ISZERO PUSH2 0x1B1 JUMPI PUSH2 0x1B0 PUSH2 0x230 JUMP JUMPDEST JUMPDEST PUSH1 0x0 PUSH2 0x1BF DUP5 DUP3 DUP6 ADD PUSH2 0x159 JUMP JUMPDEST SWAP2 POP POP SWAP3 SWAP2 POP POP JUMP JUMPDEST PUSH2 0x1D1 DUP2 PUSH2 0x21C JUMP JUMPDEST DUP3 MSTORE POP POP JUMP JUMPDEST PUSH2 0x1E0 DUP2 PUSH2 0x226 JUMP JUMPDEST DUP3 MSTORE POP POP JUMP JUMPDEST PUSH1 0x0 PUSH1 0x20 DUP3 ADD SWAP1 POP PUSH2 0x1FB PUSH1 0x0 DUP4 ADD DUP5 PUSH2 0x1C8 JUMP JUMPDEST SWAP3 SWAP2 POP POP JUMP JUMPDEST PUSH1 0x0 PUSH1 0x20 DUP3 ADD SWAP1 POP PUSH2 0x216 PUSH1 0x0 DUP4 ADD DUP5 PUSH2 0x1D7 JUMP JUMPDEST SWAP3 SWAP2 POP POP JUMP JUMPDEST PUSH1 0x0 DUP2 SWAP1 POP SWAP2 SWAP1 POP JUMP JUMPDEST PUSH1 0x0 DUP2 SWAP1 POP SWAP2 SWAP1 POP JUMP JUMPDEST PUSH1 0x0 DUP1 REVERT JUMPDEST PUSH2 0x23E DUP2 PUSH2 0x21C JUMP JUMPDEST DUP2 EQ PUSH2 0x249 JUMPI PUSH1 0x0 DUP1 REVERT JUMPDEST POP JUMP JUMPDEST PUSH2 0x255 DUP2 PUSH2 0x226 JUMP JUMPDEST DUP2 EQ PUSH2 0x260 JUMPI PUSH1 0x0 DUP1 REVERT JUMPDEST POP JUMP INVALID LOG2 PUSH5 0x6970667358 0x22 SLT KECCAK256 SLT MUL XOR EQ 0xEA 0xC4 DUP6 GASLIMIT 0xD1 0xD0 XOR 0xD7 PUSH18 0x1E1D9B2AC33C9CFEC4ED5B59F96B5A0C0B5F 0xB4 PUSH5 0x736F6C6343 STOP ADDMOD SMOD STOP CALLER "
				},
				"gasEstimates": {
					"creation": {
						"codeDepositCost": "133000",
						"executionCost": "177",
						"totalCost": "133177"
					},
					"external": {
						"condition(uint256)": "infinite",
						"condition2(int256)": "infinite"
					}
				},
				"methodIdentifiers": {
					"condition(uint256)": "f24fc903",
					"condition2(int256)": "f0fbda46"
				}
			},
			"storageLayout": {
				"storage": [],
				"types": null
			},
			"userdoc": {
				"kind": "user",
				"methods": {},
				"version": 1
			}
		}
	}
}