{
	"contracts/Etherunits.sol": {
		"Etherunits": {
			"abi": [
				{
					"inputs": [],
					"name": "isOneEther",
					"outputs": [
						{
							"internalType": "bool",
							"name": "",
							"type": "bool"
						}
					],
					"stateMutability": "view",
					"type": "function"
				},
				{
					"inputs": [],
					"name": "isOneEthercheck",
					"outputs": [
						{
							"internalType": "bool",
							"name": "",
							"type": "bool"
						}
					],
					"stateMutability": "view",
					"type": "function"
				},
				{
					"inputs": [],
					"name": "isOneWei",
					"outputs": [
						{
							"internalType": "bool",
							"name": "",
							"type": "bool"
						}
					],
					"stateMutability": "view",
					"type": "function"
				},
				{
					"inputs": [],
					"name": "isOneWeicheck",
					"outputs": [
						{
							"internalType": "bool",
							"name": "",
							"type": "bool"
						}
					],
					"stateMutability": "view",
					"type": "function"
				},
				{
					"inputs": [],
					"name": "oneEther",
					"outputs": [
						{
							"internalType": "uint256",
							"name": "",
							"type": "uint256"
						}
					],
					"stateMutability": "view",
					"type": "function"
				},
				{
					"inputs": [],
					"name": "oneWei",
					"outputs": [
						{
							"internalType": "uint256",
							"name": "",
							"type": "uint256"
						}
					],
					"stateMutability": "view",
					"type": "function"
				}
			],
			"devdoc": {
				"kind": "dev",
				"methods": {},
				"version": 1
			},
			"evm": {
				"assembly": "    /* \"contracts/Etherunits.sol\":59:362  contract Etherunits\r... */\n  mstore(0x40, 0x80)\n    /* \"contracts/Etherunits.sol\":108:113  1 wei */\n  0x01\n    /* \"contracts/Etherunits.sol\":87:113  uint public oneWei = 1 wei */\n  0x00\n  sstore\n    /* \"contracts/Etherunits.sol\":150:151  1 */\n  0x01\n    /* \"contracts/Etherunits.sol\":143:148  1 wei */\n  dup1\n    /* \"contracts/Etherunits.sol\":143:151  1 wei==1 */\n  eq\n    /* \"contracts/Etherunits.sol\":120:151  bool public isOneWei = 1 wei==1 */\n  0x01\n  exp(0x0100, 0x00)\n  dup2\n  sload\n  dup2\n  0xff\n  mul\n  not\n  and\n  swap1\n  dup4\n  iszero\n  iszero\n  mul\n  or\n  swap1\n  sstore\n  pop\n    /* \"contracts/Etherunits.sol\":183:190  1 ether */\n  0x0de0b6b3a7640000\n    /* \"contracts/Etherunits.sol\":160:190  uint public oneEther = 1 ether */\n  0x02\n  sstore\n    /* \"contracts/Etherunits.sol\":231:254  1000000000000000000 wei */\n  0x0de0b6b3a7640000\n    /* \"contracts/Etherunits.sol\":222:229  1 ether */\n  dup1\n    /* \"contracts/Etherunits.sol\":222:254  1 ether==1000000000000000000 wei */\n  eq\n    /* \"contracts/Etherunits.sol\":197:254  bool public isOneEther = 1 ether==1000000000000000000 wei */\n  0x03\n  exp(0x0100, 0x00)\n  dup2\n  sload\n  dup2\n  0xff\n  mul\n  not\n  and\n  swap1\n  dup4\n  iszero\n  iszero\n  mul\n  or\n  swap1\n  sstore\n  pop\n    /* \"contracts/Etherunits.sol\":298:304  oneWei */\n  sload(0x00)\n    /* \"contracts/Etherunits.sol\":291:296  1 wei */\n  0x01\n    /* \"contracts/Etherunits.sol\":291:304  1 wei==oneWei */\n  eq\n    /* \"contracts/Etherunits.sol\":263:304  bool public isOneWeicheck = 1 wei==oneWei */\n  0x03\n  exp(0x0100, 0x01)\n  dup2\n  sload\n  dup2\n  0xff\n  mul\n  not\n  and\n  swap1\n  dup4\n  iszero\n  iszero\n  mul\n  or\n  swap1\n  sstore\n  pop\n    /* \"contracts/Etherunits.sol\":350:358  oneEther */\n  sload(0x02)\n    /* \"contracts/Etherunits.sol\":341:348  1 ether */\n  0x0de0b6b3a7640000\n    /* \"contracts/Etherunits.sol\":341:358  1 ether==oneEther */\n  eq\n    /* \"contracts/Etherunits.sol\":311:358  bool public isOneEthercheck = 1 ether==oneEther */\n  0x03\n  exp(0x0100, 0x02)\n  dup2\n  sload\n  dup2\n  0xff\n  mul\n  not\n  and\n  swap1\n  dup4\n  iszero\n  iszero\n  mul\n  or\n  swap1\n  sstore\n  pop\n    /* \"contracts/Etherunits.sol\":59:362  contract Etherunits\r... */\n  callvalue\n  dup1\n  iszero\n  tag_1\n  jumpi\n  0x00\n  dup1\n  revert\ntag_1:\n  pop\n  dataSize(sub_0)\n  dup1\n  dataOffset(sub_0)\n  0x00\n  codecopy\n  0x00\n  return\nstop\n\nsub_0: assembly {\n        /* \"contracts/Etherunits.sol\":59:362  contract Etherunits\r... */\n      mstore(0x40, 0x80)\n      callvalue\n      dup1\n      iszero\n      tag_1\n      jumpi\n      0x00\n      dup1\n      revert\n    tag_1:\n      pop\n      jumpi(tag_2, lt(calldatasize, 0x04))\n      shr(0xe0, calldataload(0x00))\n      dup1\n      0x28dc556f\n      eq\n      tag_3\n      jumpi\n      dup1\n      0x4fb2e0be\n      eq\n      tag_4\n      jumpi\n      dup1\n      0x95c5311f\n      eq\n      tag_5\n      jumpi\n      dup1\n      0xcf0f5d29\n      eq\n      tag_6\n      jumpi\n      dup1\n      0xd297a89f\n      eq\n      tag_7\n      jumpi\n      dup1\n      0xeba275e6\n      eq\n      tag_8\n      jumpi\n    tag_2:\n      0x00\n      dup1\n      revert\n        /* \"contracts/Etherunits.sol\":120:151  bool public isOneWei = 1 wei==1 */\n    tag_3:\n      tag_9\n      tag_10\n      jump\t// in\n    tag_9:\n      mload(0x40)\n      tag_11\n      swap2\n      swap1\n      tag_12\n      jump\t// in\n    tag_11:\n      mload(0x40)\n      dup1\n      swap2\n      sub\n      swap1\n      return\n        /* \"contracts/Etherunits.sol\":87:113  uint public oneWei = 1 wei */\n    tag_4:\n      tag_13\n      tag_14\n      jump\t// in\n    tag_13:\n      mload(0x40)\n      tag_15\n      swap2\n      swap1\n      tag_16\n      jump\t// in\n    tag_15:\n      mload(0x40)\n      dup1\n      swap2\n      sub\n      swap1\n      return\n        /* \"contracts/Etherunits.sol\":311:358  bool public isOneEthercheck = 1 ether==oneEther */\n    tag_5:\n      tag_17\n      tag_18\n      jump\t// in\n    tag_17:\n      mload(0x40)\n      tag_19\n      swap2\n      swap1\n      tag_12\n      jump\t// in\n    tag_19:\n      mload(0x40)\n      dup1\n      swap2\n      sub\n      swap1\n      return\n        /* \"contracts/Etherunits.sol\":197:254  bool public isOneEther = 1 ether==1000000000000000000 wei */\n    tag_6:\n      tag_20\n      tag_21\n      jump\t// in\n    tag_20:\n      mload(0x40)\n      tag_22\n      swap2\n      swap1\n      tag_12\n      jump\t// in\n    tag_22:\n      mload(0x40)\n      dup1\n      swap2\n      sub\n      swap1\n      return\n        /* \"contracts/Etherunits.sol\":160:190  uint public oneEther = 1 ether */\n    tag_7:\n      tag_23\n      tag_24\n      jump\t// in\n    tag_23:\n      mload(0x40)\n      tag_25\n      swap2\n      swap1\n      tag_16\n      jump\t// in\n    tag_25:\n      mload(0x40)\n      dup1\n      swap2\n      sub\n      swap1\n      return\n        /* \"contracts/Etherunits.sol\":263:304  bool public isOneWeicheck = 1 wei==oneWei */\n    tag_8:\n      tag_26\n      tag_27\n      jump\t// in\n    tag_26:\n      mload(0x40)\n      tag_28\n      swap2\n      swap1\n      tag_12\n      jump\t// in\n    tag_28:\n      mload(0x40)\n      dup1\n      swap2\n      sub\n      swap1\n      return\n        /* \"contracts/Etherunits.sol\":120:151  bool public isOneWei = 1 wei==1 */\n    tag_10:\n      0x01\n      0x00\n      swap1\n      sload\n      swap1\n      0x0100\n      exp\n      swap1\n      div\n      0xff\n      and\n      dup2\n      jump\t// out\n        /* \"contracts/Etherunits.sol\":87:113  uint public oneWei = 1 wei */\n    tag_14:\n      sload(0x00)\n      dup2\n      jump\t// out\n        /* \"contracts/Etherunits.sol\":311:358  bool public isOneEthercheck = 1 ether==oneEther */\n    tag_18:\n      0x03\n      0x02\n      swap1\n      sload\n      swap1\n      0x0100\n      exp\n      swap1\n      div\n      0xff\n      and\n      dup2\n      jump\t// out\n        /* \"contracts/Etherunits.sol\":197:254  bool public isOneEther = 1 ether==1000000000000000000 wei */\n    tag_21:\n      0x03\n      0x00\n      swap1\n      sload\n      swap1\n      0x0100\n      exp\n      swap1\n      div\n      0xff\n      and\n      dup2\n      jump\t// out\n        /* \"contracts/Etherunits.sol\":160:190  uint public oneEther = 1 ether */\n    tag_24:\n      sload(0x02)\n      dup2\n      jump\t// out\n        /* \"contracts/Etherunits.sol\":263:304  bool public isOneWeicheck = 1 wei==oneWei */\n    tag_27:\n      0x03\n      0x01\n      swap1\n      sload\n      swap1\n      0x0100\n      exp\n      swap1\n      div\n      0xff\n      and\n      dup2\n      jump\t// out\n        /* \"#utility.yul\":7:116   */\n    tag_30:\n        /* \"#utility.yul\":88:109   */\n      tag_32\n        /* \"#utility.yul\":103:108   */\n      dup2\n        /* \"#utility.yul\":88:109   */\n      tag_33\n      jump\t// in\n    tag_32:\n        /* \"#utility.yul\":83:86   */\n      dup3\n        /* \"#utility.yul\":76:110   */\n      mstore\n        /* \"#utility.yul\":66:116   */\n      pop\n      pop\n      jump\t// out\n        /* \"#utility.yul\":122:240   */\n    tag_34:\n        /* \"#utility.yul\":209:233   */\n      tag_36\n        /* \"#utility.yul\":227:232   */\n      dup2\n        /* \"#utility.yul\":209:233   */\n      tag_37\n      jump\t// in\n    tag_36:\n        /* \"#utility.yul\":204:207   */\n      dup3\n        /* \"#utility.yul\":197:234   */\n      mstore\n        /* \"#utility.yul\":187:240   */\n      pop\n      pop\n      jump\t// out\n        /* \"#utility.yul\":246:456   */\n    tag_12:\n        /* \"#utility.yul\":333:337   */\n      0x00\n        /* \"#utility.yul\":371:373   */\n      0x20\n        /* \"#utility.yul\":360:369   */\n      dup3\n        /* \"#utility.yul\":356:374   */\n      add\n        /* \"#utility.yul\":348:374   */\n      swap1\n      pop\n        /* \"#utility.yul\":384:449   */\n      tag_39\n        /* \"#utility.yul\":446:447   */\n      0x00\n        /* \"#utility.yul\":435:444   */\n      dup4\n        /* \"#utility.yul\":431:448   */\n      add\n        /* \"#utility.yul\":422:428   */\n      dup5\n        /* \"#utility.yul\":384:449   */\n      tag_30\n      jump\t// in\n    tag_39:\n        /* \"#utility.yul\":338:456   */\n      swap3\n      swap2\n      pop\n      pop\n      jump\t// out\n        /* \"#utility.yul\":462:684   */\n    tag_16:\n        /* \"#utility.yul\":555:559   */\n      0x00\n        /* \"#utility.yul\":593:595   */\n      0x20\n        /* \"#utility.yul\":582:591   */\n      dup3\n        /* \"#utility.yul\":578:596   */\n      add\n        /* \"#utility.yul\":570:596   */\n      swap1\n      pop\n        /* \"#utility.yul\":606:677   */\n      tag_41\n        /* \"#utility.yul\":674:675   */\n      0x00\n        /* \"#utility.yul\":663:672   */\n      dup4\n        /* \"#utility.yul\":659:676   */\n      add\n        /* \"#utility.yul\":650:656   */\n      dup5\n        /* \"#utility.yul\":606:677   */\n      tag_34\n      jump\t// in\n    tag_41:\n        /* \"#utility.yul\":560:684   */\n      swap3\n      swap2\n      pop\n      pop\n      jump\t// out\n        /* \"#utility.yul\":690:780   */\n    tag_33:\n        /* \"#utility.yul\":724:731   */\n      0x00\n        /* \"#utility.yul\":767:772   */\n      dup2\n        /* \"#utility.yul\":760:773   */\n      iszero\n        /* \"#utility.yul\":753:774   */\n      iszero\n        /* \"#utility.yul\":742:774   */\n      swap1\n      pop\n        /* \"#utility.yul\":732:780   */\n      swap2\n      swap1\n      pop\n      jump\t// out\n        /* \"#utility.yul\":786:863   */\n    tag_37:\n        /* \"#utility.yul\":823:830   */\n      0x00\n        /* \"#utility.yul\":852:857   */\n      dup2\n        /* \"#utility.yul\":841:857   */\n      swap1\n      pop\n        /* \"#utility.yul\":831:863   */\n      swap2\n      swap1\n      pop\n      jump\t// out\n\n    auxdata: 0xa2646970667358221220ef004ef91619961071dd1dcf4e1101be17e91d25b6d99d79de4b907246c3c25b64736f6c63430008060033\n}\n",
				"bytecode": {
					"linkReferences": {},
					"object": "6080604052600160005560018014600160006101000a81548160ff021916908315150217905550670de0b6b3a7640000600255670de0b6b3a76400008014600360006101000a81548160ff021916908315150217905550600054600114600360016101000a81548160ff021916908315150217905550600254670de0b6b3a764000014600360026101000a81548160ff0219169083151502179055503480156100a757600080fd5b50610213806100b76000396000f3fe608060405234801561001057600080fd5b50600436106100625760003560e01c806328dc556f146100675780634fb2e0be1461008557806395c5311f146100a3578063cf0f5d29146100c1578063d297a89f146100df578063eba275e6146100fd575b600080fd5b61006f61011b565b60405161007c9190610191565b60405180910390f35b61008d61012e565b60405161009a91906101ac565b60405180910390f35b6100ab610134565b6040516100b89190610191565b60405180910390f35b6100c9610147565b6040516100d69190610191565b60405180910390f35b6100e761015a565b6040516100f491906101ac565b60405180910390f35b610105610160565b6040516101129190610191565b60405180910390f35b600160009054906101000a900460ff1681565b60005481565b600360029054906101000a900460ff1681565b600360009054906101000a900460ff1681565b60025481565b600360019054906101000a900460ff1681565b61017c816101c7565b82525050565b61018b816101d3565b82525050565b60006020820190506101a66000830184610173565b92915050565b60006020820190506101c16000830184610182565b92915050565b60008115159050919050565b600081905091905056fea2646970667358221220ef004ef91619961071dd1dcf4e1101be17e91d25b6d99d79de4b907246c3c25b64736f6c63430008060033",
					"opcodes": "PUSH1 0x80 PUSH1 0x40 MSTORE PUSH1 0x1 PUSH1 0x0 SSTORE PUSH1 0x1 DUP1 EQ PUSH1 0x1 PUSH1 0x0 PUSH2 0x100 EXP DUP2 SLOAD DUP2 PUSH1 0xFF MUL NOT AND SWAP1 DUP4 ISZERO ISZERO MUL OR SWAP1 SSTORE POP PUSH8 0xDE0B6B3A7640000 PUSH1 0x2 SSTORE PUSH8 0xDE0B6B3A7640000 DUP1 EQ PUSH1 0x3 PUSH1 0x0 PUSH2 0x100 EXP DUP2 SLOAD DUP2 PUSH1 0xFF MUL NOT AND SWAP1 DUP4 ISZERO ISZERO MUL OR SWAP1 SSTORE POP PUSH1 0x0 SLOAD PUSH1 0x1 EQ PUSH1 0x3 PUSH1 0x1 PUSH2 0x100 EXP DUP2 SLOAD DUP2 PUSH1 0xFF MUL NOT AND SWAP1 DUP4 ISZERO ISZERO MUL OR SWAP1 SSTORE POP PUSH1 0x2 SLOAD PUSH8 0xDE0B6B3A7640000 EQ PUSH1 0x3 PUSH1 0x2 PUSH2 0x100 EXP DUP2 SLOAD DUP2 PUSH1 0xFF MUL NOT AND SWAP1 DUP4 ISZERO ISZERO MUL OR SWAP1 SSTORE POP CALLVALUE DUP1 ISZERO PUSH2 0xA7 JUMPI PUSH1 0x0 DUP1 REVERT JUMPDEST POP PUSH2 0x213 DUP1 PUSH2 0xB7 PUSH1 0x0 CODECOPY PUSH1 0x0 RETURN INVALID PUSH1 0x80 PUSH1 0x40 MSTORE CALLVALUE DUP1 ISZERO PUSH2 0x10 JUMPI PUSH1 0x0 DUP1 REVERT JUMPDEST POP PUSH1 0x4 CALLDATASIZE LT PUSH2 0x62 JUMPI PUSH1 0x0 CALLDATALOAD PUSH1 0xE0 SHR DUP1 PUSH4 0x28DC556F EQ PUSH2 0x67 JUMPI DUP1 PUSH4 0x4FB2E0BE EQ PUSH2 0x85 JUMPI DUP1 PUSH4 0x95C5311F EQ PUSH2 0xA3 JUMPI DUP1 PUSH4 0xCF0F5D29 EQ PUSH2 0xC1 JUMPI DUP1 PUSH4 0xD297A89F EQ PUSH2 0xDF JUMPI DUP1 PUSH4 0xEBA275E6 EQ PUSH2 0xFD JUMPI JUMPDEST PUSH1 0x0 DUP1 REVERT JUMPDEST PUSH2 0x6F PUSH2 0x11B JUMP JUMPDEST PUSH1 0x40 MLOAD PUSH2 0x7C SWAP2 SWAP1 PUSH2 0x191 JUMP JUMPDEST PUSH1 0x40 MLOAD DUP1 SWAP2 SUB SWAP1 RETURN JUMPDEST PUSH2 0x8D PUSH2 0x12E JUMP JUMPDEST PUSH1 0x40 MLOAD PUSH2 0x9A SWAP2 SWAP1 PUSH2 0x1AC JUMP JUMPDEST PUSH1 0x40 MLOAD DUP1 SWAP2 SUB SWAP1 RETURN JUMPDEST PUSH2 0xAB PUSH2 0x134 JUMP JUMPDEST PUSH1 0x40 MLOAD PUSH2 0xB8 SWAP2 SWAP1 PUSH2 0x191 JUMP JUMPDEST PUSH1 0x40 MLOAD DUP1 SWAP2 SUB SWAP1 RETURN JUMPDEST PUSH2 0xC9 PUSH2 0x147 JUMP JUMPDEST PUSH1 0x40 MLOAD PUSH2 0xD6 SWAP2 SWAP1 PUSH2 0x191 JUMP JUMPDEST PUSH1 0x40 MLOAD DUP1 SWAP2 SUB SWAP1 RETURN JUMPDEST PUSH2 0xE7 PUSH2 0x15A JUMP JUMPDEST PUSH1 0x40 MLOAD PUSH2 0xF4 SWAP2 SWAP1 PUSH2 0x1AC JUMP JUMPDEST PUSH1 0x40 MLOAD DUP1 SWAP2 SUB SWAP1 RETURN JUMPDEST PUSH2 0x105 PUSH2 0x160 JUMP JUMPDEST PUSH1 0x40 MLOAD PUSH2 0x112 SWAP2 SWAP1 PUSH2 0x191 JUMP JUMPDEST PUSH1 0x40 MLOAD DUP1 SWAP2 SUB SWAP1 RETURN JUMPDEST PUSH1 0x1 PUSH1 0x0 SWAP1 SLOAD SWAP1 PUSH2 0x100 EXP SWAP1 DIV PUSH1 0xFF AND DUP2 JUMP JUMPDEST PUSH1 0x0 SLOAD DUP2 JUMP JUMPDEST PUSH1 0x3 PUSH1 0x2 SWAP1 SLOAD SWAP1 PUSH2 0x100 EXP SWAP1 DIV PUSH1 0xFF AND DUP2 JUMP JUMPDEST PUSH1 0x3 PUSH1 0x0 SWAP1 SLOAD SWAP1 PUSH2 0x100 EXP SWAP1 DIV PUSH1 0xFF AND DUP2 JUMP JUMPDEST PUSH1 0x2 SLOAD DUP2 JUMP JUMPDEST PUSH1 0x3 PUSH1 0x1 SWAP1 SLOAD SWAP1 PUSH2 0x100 EXP SWAP1 DIV PUSH1 0xFF AND DUP2 JUMP JUMPDEST PUSH2 0x17C DUP2 PUSH2 0x1C7 JUMP JUMPDEST DUP3 MSTORE POP POP JUMP JUMPDEST PUSH2 0x18B DUP2 PUSH2 0x1D3 JUMP JUMPDEST DUP3 MSTORE POP POP JUMP JUMPDEST PUSH1 0x0 PUSH1 0x20 DUP3 ADD SWAP1 POP PUSH2 0x1A6 PUSH1 0x0 DUP4 ADD DUP5 PUSH2 0x173 JUMP JUMPDEST SWAP3 SWAP2 POP POP JUMP JUMPDEST PUSH1 0x0 PUSH1 0x20 DUP3 ADD SWAP1 POP PUSH2 0x1C1 PUSH1 0x0 DUP4 ADD DUP5 PUSH2 0x182 JUMP JUMPDEST SWAP3 SWAP2 POP POP JUMP JUMPDEST PUSH1 0x0 DUP2 ISZERO ISZERO SWAP1 POP SWAP2 SWAP1 POP JUMP JUMPDEST PUSH1 0x0 DUP2 SWAP1 POP SWAP2 SWAP1 POP JUMP INVALID LOG2 PUSH5 0x6970667358 0x22 SLT KECCAK256 0xEF STOP 0x4E 0xF9 AND NOT SWAP7 LT PUSH18 0xDD1DCF4E1101BE17E91D25B6D99D79DE4B90 PUSH19 0x46C3C25B64736F6C6343000806003300000000 "
				},
				"gasEstimates": {
					"creation": {
						"codeDepositCost": "106200",
						"executionCost": "145757",
						"totalCost": "251957"
					},
					"external": {
						"isOneEther()": "2515",
						"isOneEthercheck()": "2543",
						"isOneWei()": "2449",
						"isOneWeicheck()": "2609",
						"oneEther()": "2495",
						"oneWei()": "2429"
					}
				},
				"methodIdentifiers": {
					"isOneEther()": "cf0f5d29",
					"isOneEthercheck()": "95c5311f",
					"isOneWei()": "28dc556f",
					"isOneWeicheck()": "eba275e6",
					"oneEther()": "d297a89f",
					"oneWei()": "4fb2e0be"
				}
			},
			"storageLayout": {
				"storage": [
					{
						"astId": 4,
						"contract": "contracts/Etherunits.sol:Etherunits",
						"label": "oneWei",
						"offset": 0,
						"slot": "0",
						"type": "t_uint256"
					},
					{
						"astId": 9,
						"contract": "contracts/Etherunits.sol:Etherunits",
						"label": "isOneWei",
						"offset": 0,
						"slot": "1",
						"type": "t_bool"
					},
					{
						"astId": 12,
						"contract": "contracts/Etherunits.sol:Etherunits",
						"label": "oneEther",
						"offset": 0,
						"slot": "2",
						"type": "t_uint256"
					},
					{
						"astId": 17,
						"contract": "contracts/Etherunits.sol:Etherunits",
						"label": "isOneEther",
						"offset": 0,
						"slot": "3",
						"type": "t_bool"
					},
					{
						"astId": 22,
						"contract": "contracts/Etherunits.sol:Etherunits",
						"label": "isOneWeicheck",
						"offset": 1,
						"slot": "3",
						"type": "t_bool"
					},
					{
						"astId": 27,
						"contract": "contracts/Etherunits.sol:Etherunits",
						"label": "isOneEthercheck",
						"offset": 2,
						"slot": "3",
						"type": "t_bool"
					}
				],
				"types": {
					"t_bool": {
						"encoding": "inplace",
						"label": "bool",
						"numberOfBytes": "1"
					},
					"t_uint256": {
						"encoding": "inplace",
						"label": "uint256",
						"numberOfBytes": "32"
					}
				}
			},
			"userdoc": {
				"kind": "user",
				"methods": {},
				"version": 1
			}
		}
	}
}