{
	"data": {
		"bytecode": {
			"linkReferences": {},
			"object": "608060405234801561001057600080fd5b50610161806100206000396000f3fe608060405234801561001057600080fd5b506004361061002b5760003560e01c806306f4281e14610030575b600080fd5b61003861003a565b005b7fb2bcd236ec88a537a752f13fd635231e0d6e9a978a53a9be8e945945227e2a83333230600a6040516100709493929190610098565b60405180910390a1565b610083816100dd565b82525050565b61009281610119565b82525050565b60006080820190506100ad600083018761007a565b6100ba602083018661007a565b6100c7604083018561007a565b6100d46060830184610089565b95945050505050565b60006100e8826100ef565b9050919050565b600073ffffffffffffffffffffffffffffffffffffffff82169050919050565b6000819050919050565b60006101248261010f565b905091905056fea264697066735822122039b3b91954baecf8288c3c03e761d668c6064c298f5af88afbfca7530307460e64736f6c63430008070033",
			"opcodes": "PUSH1 0x80 PUSH1 0x40 MSTORE CALLVALUE DUP1 ISZERO PUSH2 0x10 JUMPI PUSH1 0x0 DUP1 REVERT JUMPDEST POP PUSH2 0x161 DUP1 PUSH2 0x20 PUSH1 0x0 CODECOPY PUSH1 0x0 RETURN INVALID PUSH1 0x80 PUSH1 0x40 MSTORE CALLVALUE DUP1 ISZERO PUSH2 0x10 JUMPI PUSH1 0x0 DUP1 REVERT JUMPDEST POP PUSH1 0x4 CALLDATASIZE LT PUSH2 0x2B JUMPI PUSH1 0x0 CALLDATALOAD PUSH1 0xE0 SHR DUP1 PUSH4 0x6F4281E EQ PUSH2 0x30 JUMPI JUMPDEST PUSH1 0x0 DUP1 REVERT JUMPDEST PUSH2 0x38 PUSH2 0x3A JUMP JUMPDEST STOP JUMPDEST PUSH32 0xB2BCD236EC88A537A752F13FD635231E0D6E9A978A53A9BE8E945945227E2A83 CALLER ORIGIN ADDRESS PUSH1 0xA PUSH1 0x40 MLOAD PUSH2 0x70 SWAP5 SWAP4 SWAP3 SWAP2 SWAP1 PUSH2 0x98 JUMP JUMPDEST PUSH1 0x40 MLOAD DUP1 SWAP2 SUB SWAP1 LOG1 JUMP JUMPDEST PUSH2 0x83 DUP2 PUSH2 0xDD JUMP JUMPDEST DUP3 MSTORE POP POP JUMP JUMPDEST PUSH2 0x92 DUP2 PUSH2 0x119 JUMP JUMPDEST DUP3 MSTORE POP POP JUMP JUMPDEST PUSH1 0x0 PUSH1 0x80 DUP3 ADD SWAP1 POP PUSH2 0xAD PUSH1 0x0 DUP4 ADD DUP8 PUSH2 0x7A JUMP JUMPDEST PUSH2 0xBA PUSH1 0x20 DUP4 ADD DUP7 PUSH2 0x7A JUMP JUMPDEST PUSH2 0xC7 PUSH1 0x40 DUP4 ADD DUP6 PUSH2 0x7A JUMP JUMPDEST PUSH2 0xD4 PUSH1 0x60 DUP4 ADD DUP5 PUSH2 0x89 JUMP JUMPDEST SWAP6 SWAP5 POP POP POP POP POP JUMP JUMPDEST PUSH1 0x0 PUSH2 0xE8 DUP3 PUSH2 0xEF JUMP JUMPDEST SWAP1 POP SWAP2 SWAP1 POP JUMP JUMPDEST PUSH1 0x0 PUSH20 0xFFFFFFFFFFFFFFFFFFFFFFFFFFFFFFFFFFFFFFFF DUP3 AND SWAP1 POP SWAP2 SWAP1 POP JUMP JUMPDEST PUSH1 0x0 DUP2 SWAP1 POP SWAP2 SWAP1 POP JUMP JUMPDEST PUSH1 0x0 PUSH2 0x124 DUP3 PUSH2 0x10F JUMP JUMPDEST SWAP1 POP SWAP2 SWAP1 POP JUMP INVALID LOG2 PUSH5 0x6970667358 0x22 SLT KECCAK256 CODECOPY 0xB3 0xB9 NOT SLOAD 0xBA 0xEC 0xF8 0x28 DUP13 EXTCODECOPY SUB 0xE7 PUSH2 0xD668 0xC6 MOD 0x4C 0x29 DUP16 GAS 0xF8 DUP11 0xFB 0xFC 0xA7 MSTORE8 SUB SMOD CHAINID 0xE PUSH5 0x736F6C6343 STOP ADDMOD SMOD STOP CALLER "
		},
		"gasEstimates": {
			"creation": {
				"codeDepositCost": "70600",
				"executionCost": "123",
				"totalCost": "70723"
			},
			"external": {
				"callMethod()": "infinite"
			}
		},
		"methodIdentifiers": {
			"callMethod()": "06f4281e"
		}
	},
	"abi": [
		{
			"anonymous": false,
			"inputs": [
				{
					"indexed": false,
					"internalType": "address",
					"name": "sender",
					"type": "address"
				},
				{
					"indexed": false,
					"internalType": "address",
					"name": "origin",
					"type": "address"
				},
				{
					"indexed": false,
					"internalType": "address",
					"name": "from",
					"type": "address"
				},
				{
					"indexed": false,
					"internalType": "uint256",
					"name": "x",
					"type": "uint256"
				}
			],
			"name": "callEvent",
			"type": "event"
		},
		{
			"inputs": [],
			"name": "callMethod",
			"outputs": [],
			"stateMutability": "nonpayable",
			"type": "function"
		}
	]
}