{
	"data": {
		"bytecode": {
			"linkReferences": {},
			"object": "608060405234801561001057600080fd5b506104b4806100206000396000f3fe608060405234801561001057600080fd5b50600436106100885760003560e01c80639ed2d84d1161005b5780639ed2d84d14610103578063b3bcfa8214610133578063c54124be1461013d578063f464a4f71461015b57610088565b8063146af82b1461008d578063371303c0146100ab578063853255cc146100b5578063989ace02146100d3575b600080fd5b61009561018b565b6040516100a291906102b7565b60405180910390f35b6100b3610194565b005b6100bd6101ad565b6040516100ca91906102b7565b60405180910390f35b6100ed60048036038101906100e89190610268565b6101b3565b6040516100fa91906102b7565b60405180910390f35b61011d60048036038101906101189190610268565b6101d2565b60405161012a91906102b7565b60405180910390f35b61013b6101f1565b005b61014561020a565b60405161015291906102b7565b60405180910390f35b6101756004803603810190610170919061023b565b610210565b60405161018291906102b7565b60405180910390f35b60008054905090565b6000808154809291906101a6906103ea565b9190505550565b60015481565b600081836101c19190610382565b600281905550600254905092915050565b600081836101e091906102d2565b600181905550600154905092915050565b600080815480929190610203906103c0565b9190505550565b60025481565b600060028261021f9190610328565b9050919050565b60008135905061023581610467565b92915050565b60006020828403121561025157610250610462565b5b600061025f84828501610226565b91505092915050565b6000806040838503121561027f5761027e610462565b5b600061028d85828601610226565b925050602061029e85828601610226565b9150509250929050565b6102b1816103b6565b82525050565b60006020820190506102cc60008301846102a8565b92915050565b60006102dd826103b6565b91506102e8836103b6565b9250827fffffffffffffffffffffffffffffffffffffffffffffffffffffffffffffffff0382111561031d5761031c610433565b5b828201905092915050565b6000610333826103b6565b915061033e836103b6565b9250817fffffffffffffffffffffffffffffffffffffffffffffffffffffffffffffffff048311821515161561037757610376610433565b5b828202905092915050565b600061038d826103b6565b9150610398836103b6565b9250828210156103ab576103aa610433565b5b828203905092915050565b6000819050919050565b60006103cb826103b6565b915060008214156103df576103de610433565b5b600182039050919050565b60006103f5826103b6565b91507fffffffffffffffffffffffffffffffffffffffffffffffffffffffffffffffff82141561042857610427610433565b5b600182019050919050565b7f4e487b7100000000000000000000000000000000000000000000000000000000600052601160045260246000fd5b600080fd5b610470816103b6565b811461047b57600080fd5b5056fea2646970667358221220b6fa6228b234957faf00d986d252d9dfce63377e022c02cb2256df517fbb670564736f6c63430008070033",
			"opcodes": "PUSH1 0x80 PUSH1 0x40 MSTORE CALLVALUE DUP1 ISZERO PUSH2 0x10 JUMPI PUSH1 0x0 DUP1 REVERT JUMPDEST POP PUSH2 0x4B4 DUP1 PUSH2 0x20 PUSH1 0x0 CODECOPY PUSH1 0x0 RETURN INVALID PUSH1 0x80 PUSH1 0x40 MSTORE CALLVALUE DUP1 ISZERO PUSH2 0x10 JUMPI PUSH1 0x0 DUP1 REVERT JUMPDEST POP PUSH1 0x4 CALLDATASIZE LT PUSH2 0x88 JUMPI PUSH1 0x0 CALLDATALOAD PUSH1 0xE0 SHR DUP1 PUSH4 0x9ED2D84D GT PUSH2 0x5B JUMPI DUP1 PUSH4 0x9ED2D84D EQ PUSH2 0x103 JUMPI DUP1 PUSH4 0xB3BCFA82 EQ PUSH2 0x133 JUMPI DUP1 PUSH4 0xC54124BE EQ PUSH2 0x13D JUMPI DUP1 PUSH4 0xF464A4F7 EQ PUSH2 0x15B JUMPI PUSH2 0x88 JUMP JUMPDEST DUP1 PUSH4 0x146AF82B EQ PUSH2 0x8D JUMPI DUP1 PUSH4 0x371303C0 EQ PUSH2 0xAB JUMPI DUP1 PUSH4 0x853255CC EQ PUSH2 0xB5 JUMPI DUP1 PUSH4 0x989ACE02 EQ PUSH2 0xD3 JUMPI JUMPDEST PUSH1 0x0 DUP1 REVERT JUMPDEST PUSH2 0x95 PUSH2 0x18B JUMP JUMPDEST PUSH1 0x40 MLOAD PUSH2 0xA2 SWAP2 SWAP1 PUSH2 0x2B7 JUMP JUMPDEST PUSH1 0x40 MLOAD DUP1 SWAP2 SUB SWAP1 RETURN JUMPDEST PUSH2 0xB3 PUSH2 0x194 JUMP JUMPDEST STOP JUMPDEST PUSH2 0xBD PUSH2 0x1AD JUMP JUMPDEST PUSH1 0x40 MLOAD PUSH2 0xCA SWAP2 SWAP1 PUSH2 0x2B7 JUMP JUMPDEST PUSH1 0x40 MLOAD DUP1 SWAP2 SUB SWAP1 RETURN JUMPDEST PUSH2 0xED PUSH1 0x4 DUP1 CALLDATASIZE SUB DUP2 ADD SWAP1 PUSH2 0xE8 SWAP2 SWAP1 PUSH2 0x268 JUMP JUMPDEST PUSH2 0x1B3 JUMP JUMPDEST PUSH1 0x40 MLOAD PUSH2 0xFA SWAP2 SWAP1 PUSH2 0x2B7 JUMP JUMPDEST PUSH1 0x40 MLOAD DUP1 SWAP2 SUB SWAP1 RETURN JUMPDEST PUSH2 0x11D PUSH1 0x4 DUP1 CALLDATASIZE SUB DUP2 ADD SWAP1 PUSH2 0x118 SWAP2 SWAP1 PUSH2 0x268 JUMP JUMPDEST PUSH2 0x1D2 JUMP JUMPDEST PUSH1 0x40 MLOAD PUSH2 0x12A SWAP2 SWAP1 PUSH2 0x2B7 JUMP JUMPDEST PUSH1 0x40 MLOAD DUP1 SWAP2 SUB SWAP1 RETURN JUMPDEST PUSH2 0x13B PUSH2 0x1F1 JUMP JUMPDEST STOP JUMPDEST PUSH2 0x145 PUSH2 0x20A JUMP JUMPDEST PUSH1 0x40 MLOAD PUSH2 0x152 SWAP2 SWAP1 PUSH2 0x2B7 JUMP JUMPDEST PUSH1 0x40 MLOAD DUP1 SWAP2 SUB SWAP1 RETURN JUMPDEST PUSH2 0x175 PUSH1 0x4 DUP1 CALLDATASIZE SUB DUP2 ADD SWAP1 PUSH2 0x170 SWAP2 SWAP1 PUSH2 0x23B JUMP JUMPDEST PUSH2 0x210 JUMP JUMPDEST PUSH1 0x40 MLOAD PUSH2 0x182 SWAP2 SWAP1 PUSH2 0x2B7 JUMP JUMPDEST PUSH1 0x40 MLOAD DUP1 SWAP2 SUB SWAP1 RETURN JUMPDEST PUSH1 0x0 DUP1 SLOAD SWAP1 POP SWAP1 JUMP JUMPDEST PUSH1 0x0 DUP1 DUP2 SLOAD DUP1 SWAP3 SWAP2 SWAP1 PUSH2 0x1A6 SWAP1 PUSH2 0x3EA JUMP JUMPDEST SWAP2 SWAP1 POP SSTORE POP JUMP JUMPDEST PUSH1 0x1 SLOAD DUP2 JUMP JUMPDEST PUSH1 0x0 DUP2 DUP4 PUSH2 0x1C1 SWAP2 SWAP1 PUSH2 0x382 JUMP JUMPDEST PUSH1 0x2 DUP2 SWAP1 SSTORE POP PUSH1 0x2 SLOAD SWAP1 POP SWAP3 SWAP2 POP POP JUMP JUMPDEST PUSH1 0x0 DUP2 DUP4 PUSH2 0x1E0 SWAP2 SWAP1 PUSH2 0x2D2 JUMP JUMPDEST PUSH1 0x1 DUP2 SWAP1 SSTORE POP PUSH1 0x1 SLOAD SWAP1 POP SWAP3 SWAP2 POP POP JUMP JUMPDEST PUSH1 0x0 DUP1 DUP2 SLOAD DUP1 SWAP3 SWAP2 SWAP1 PUSH2 0x203 SWAP1 PUSH2 0x3C0 JUMP JUMPDEST SWAP2 SWAP1 POP SSTORE POP JUMP JUMPDEST PUSH1 0x2 SLOAD DUP2 JUMP JUMPDEST PUSH1 0x0 PUSH1 0x2 DUP3 PUSH2 0x21F SWAP2 SWAP1 PUSH2 0x328 JUMP JUMPDEST SWAP1 POP SWAP2 SWAP1 POP JUMP JUMPDEST PUSH1 0x0 DUP2 CALLDATALOAD SWAP1 POP PUSH2 0x235 DUP2 PUSH2 0x467 JUMP JUMPDEST SWAP3 SWAP2 POP POP JUMP JUMPDEST PUSH1 0x0 PUSH1 0x20 DUP3 DUP5 SUB SLT ISZERO PUSH2 0x251 JUMPI PUSH2 0x250 PUSH2 0x462 JUMP JUMPDEST JUMPDEST PUSH1 0x0 PUSH2 0x25F DUP5 DUP3 DUP6 ADD PUSH2 0x226 JUMP JUMPDEST SWAP2 POP POP SWAP3 SWAP2 POP POP JUMP JUMPDEST PUSH1 0x0 DUP1 PUSH1 0x40 DUP4 DUP6 SUB SLT ISZERO PUSH2 0x27F JUMPI PUSH2 0x27E PUSH2 0x462 JUMP JUMPDEST JUMPDEST PUSH1 0x0 PUSH2 0x28D DUP6 DUP3 DUP7 ADD PUSH2 0x226 JUMP JUMPDEST SWAP3 POP POP PUSH1 0x20 PUSH2 0x29E DUP6 DUP3 DUP7 ADD PUSH2 0x226 JUMP JUMPDEST SWAP2 POP POP SWAP3 POP SWAP3 SWAP1 POP JUMP JUMPDEST PUSH2 0x2B1 DUP2 PUSH2 0x3B6 JUMP JUMPDEST DUP3 MSTORE POP POP JUMP JUMPDEST PUSH1 0x0 PUSH1 0x20 DUP3 ADD SWAP1 POP PUSH2 0x2CC PUSH1 0x0 DUP4 ADD DUP5 PUSH2 0x2A8 JUMP JUMPDEST SWAP3 SWAP2 POP POP JUMP JUMPDEST PUSH1 0x0 PUSH2 0x2DD DUP3 PUSH2 0x3B6 JUMP JUMPDEST SWAP2 POP PUSH2 0x2E8 DUP4 PUSH2 0x3B6 JUMP JUMPDEST SWAP3 POP DUP3 PUSH32 0xFFFFFFFFFFFFFFFFFFFFFFFFFFFFFFFFFFFFFFFFFFFFFFFFFFFFFFFFFFFFFFFF SUB DUP3 GT ISZERO PUSH2 0x31D JUMPI PUSH2 0x31C PUSH2 0x433 JUMP JUMPDEST JUMPDEST DUP3 DUP3 ADD SWAP1 POP SWAP3 SWAP2 POP POP JUMP JUMPDEST PUSH1 0x0 PUSH2 0x333 DUP3 PUSH2 0x3B6 JUMP JUMPDEST SWAP2 POP PUSH2 0x33E DUP4 PUSH2 0x3B6 JUMP JUMPDEST SWAP3 POP DUP2 PUSH32 0xFFFFFFFFFFFFFFFFFFFFFFFFFFFFFFFFFFFFFFFFFFFFFFFFFFFFFFFFFFFFFFFF DIV DUP4 GT DUP3 ISZERO ISZERO AND ISZERO PUSH2 0x377 JUMPI PUSH2 0x376 PUSH2 0x433 JUMP JUMPDEST JUMPDEST DUP3 DUP3 MUL SWAP1 POP SWAP3 SWAP2 POP POP JUMP JUMPDEST PUSH1 0x0 PUSH2 0x38D DUP3 PUSH2 0x3B6 JUMP JUMPDEST SWAP2 POP PUSH2 0x398 DUP4 PUSH2 0x3B6 JUMP JUMPDEST SWAP3 POP DUP3 DUP3 LT ISZERO PUSH2 0x3AB JUMPI PUSH2 0x3AA PUSH2 0x433 JUMP JUMPDEST JUMPDEST DUP3 DUP3 SUB SWAP1 POP SWAP3 SWAP2 POP POP JUMP JUMPDEST PUSH1 0x0 DUP2 SWAP1 POP SWAP2 SWAP1 POP JUMP JUMPDEST PUSH1 0x0 PUSH2 0x3CB DUP3 PUSH2 0x3B6 JUMP JUMPDEST SWAP2 POP PUSH1 0x0 DUP3 EQ ISZERO PUSH2 0x3DF JUMPI PUSH2 0x3DE PUSH2 0x433 JUMP JUMPDEST JUMPDEST PUSH1 0x1 DUP3 SUB SWAP1 POP SWAP2 SWAP1 POP JUMP JUMPDEST PUSH1 0x0 PUSH2 0x3F5 DUP3 PUSH2 0x3B6 JUMP JUMPDEST SWAP2 POP PUSH32 0xFFFFFFFFFFFFFFFFFFFFFFFFFFFFFFFFFFFFFFFFFFFFFFFFFFFFFFFFFFFFFFFF DUP3 EQ ISZERO PUSH2 0x428 JUMPI PUSH2 0x427 PUSH2 0x433 JUMP JUMPDEST JUMPDEST PUSH1 0x1 DUP3 ADD SWAP1 POP SWAP2 SWAP1 POP JUMP JUMPDEST PUSH32 0x4E487B7100000000000000000000000000000000000000000000000000000000 PUSH1 0x0 MSTORE PUSH1 0x11 PUSH1 0x4 MSTORE PUSH1 0x24 PUSH1 0x0 REVERT JUMPDEST PUSH1 0x0 DUP1 REVERT JUMPDEST PUSH2 0x470 DUP2 PUSH2 0x3B6 JUMP JUMPDEST DUP2 EQ PUSH2 0x47B JUMPI PUSH1 0x0 DUP1 REVERT JUMPDEST POP JUMP INVALID LOG2 PUSH5 0x6970667358 0x22 SLT KECCAK256 0xB6 STATICCALL PUSH3 0x28B234 SWAP6 PUSH32 0xAF00D986D252D9DFCE63377E022C02CB2256DF517FBB670564736F6C63430008 SMOD STOP CALLER "
		},
		"gasEstimates": {
			"creation": {
				"codeDepositCost": "240800",
				"executionCost": "281",
				"totalCost": "241081"
			},
			"external": {
				"dec()": "24526",
				"getadd(uint256,uint256)": "infinite",
				"getcount()": "2438",
				"getlocalCalc(uint256)": "infinite",
				"getsub(uint256,uint256)": "infinite",
				"inc()": "24527",
				"sub()": "2473",
				"sum()": "2474"
			}
		},
		"methodIdentifiers": {
			"dec()": "b3bcfa82",
			"getadd(uint256,uint256)": "9ed2d84d",
			"getcount()": "146af82b",
			"getlocalCalc(uint256)": "f464a4f7",
			"getsub(uint256,uint256)": "989ace02",
			"inc()": "371303c0",
			"sub()": "c54124be",
			"sum()": "853255cc"
		}
	},
	"abi": [
		{
			"inputs": [],
			"name": "dec",
			"outputs": [],
			"stateMutability": "nonpayable",
			"type": "function"
		},
		{
			"inputs": [
				{
					"internalType": "uint256",
					"name": "x",
					"type": "uint256"
				},
				{
					"internalType": "uint256",
					"name": "y",
					"type": "uint256"
				}
			],
			"name": "getadd",
			"outputs": [
				{
					"internalType": "uint256",
					"name": "",
					"type": "uint256"
				}
			],
			"stateMutability": "nonpayable",
			"type": "function"
		},
		{
			"inputs": [],
			"name": "getcount",
			"outputs": [
				{
					"internalType": "uint256",
					"name": "",
					"type": "uint256"
				}
			],
			"stateMutability": "view",
			"type": "function"
		},
		{
			"inputs": [
				{
					"internalType": "uint256",
					"name": "XX",
					"type": "uint256"
				}
			],
			"name": "getlocalCalc",
			"outputs": [
				{
					"internalType": "uint256",
					"name": "",
					"type": "uint256"
				}
			],
			"stateMutability": "pure",
			"type": "function"
		},
		{
			"inputs": [
				{
					"internalType": "uint256",
					"name": "x",
					"type": "uint256"
				},
				{
					"internalType": "uint256",
					"name": "y",
					"type": "uint256"
				}
			],
			"name": "getsub",
			"outputs": [
				{
					"internalType": "uint256",
					"name": "",
					"type": "uint256"
				}
			],
			"stateMutability": "nonpayable",
			"type": "function"
		},
		{
			"inputs": [],
			"name": "inc",
			"outputs": [],
			"stateMutability": "nonpayable",
			"type": "function"
		},
		{
			"inputs": [],
			"name": "sub",
			"outputs": [
				{
					"internalType": "uint256",
					"name": "",
					"type": "uint256"
				}
			],
			"stateMutability": "view",
			"type": "function"
		},
		{
			"inputs": [],
			"name": "sum",
			"outputs": [
				{
					"internalType": "uint256",
					"name": "",
					"type": "uint256"
				}
			],
			"stateMutability": "view",
			"type": "function"
		}
	]
}