{
	"data": {
		"bytecode": {
			"linkReferences": {},
			"object": "608060405234801561001057600080fd5b506105c4806100206000396000f3fe608060405234801561001057600080fd5b50600436106100415760003560e01c8063bedfc5a114610046578063d67bdd251461006a578063f625a3c014610088575b600080fd5b61004e6100be565b6040516100619796959493929190610352565b60405180910390f35b61007261012a565b60405161007f9190610337565b60405180910390f35b6100a2600480360381019061009d9190610213565b610132565b6040516100b59796959493929190610352565b60405180910390f35b6000806000806000606060006101136001600260033360016040518060400160405280600a81526020017f426c6f636b436861696e00000000000000000000000000000000000000000000815250600b610132565b965096509650965096509650965090919293949596565b600033905090565b6000806000806000606060008d8d8d8d8d8d8d9650965096509650965096509650975097509750975097509750979050565b6000610177610172846103ed565b6103c8565b90508281526020810184848401111561019357610192610529565b5b61019e848285610482565b509392505050565b6000813590506101b581610549565b92915050565b6000813590506101ca81610560565b92915050565b600082601f8301126101e5576101e4610524565b5b81356101f5848260208601610164565b91505092915050565b60008135905061020d81610577565b92915050565b600080600080600080600060e0888a03121561023257610231610533565b5b60006102408a828b016101fe565b97505060206102518a828b016101fe565b96505060406102628a828b016101fe565b95505060606102738a828b016101a6565b94505060806102848a828b016101bb565b93505060a088013567ffffffffffffffff8111156102a5576102a461052e565b5b6102b18a828b016101d0565b92505060c06102c28a828b016101fe565b91505092959891949750929550565b6102da8161043a565b82525050565b6102e98161044c565b82525050565b60006102fa8261041e565b6103048185610429565b9350610314818560208601610491565b61031d81610538565b840191505092915050565b61033181610478565b82525050565b600060208201905061034c60008301846102d1565b92915050565b600060e082019050610367600083018a610328565b6103746020830189610328565b6103816040830188610328565b61038e60608301876102d1565b61039b60808301866102e0565b81810360a08301526103ad81856102ef565b90506103bc60c0830184610328565b98975050505050505050565b60006103d26103e3565b90506103de82826104c4565b919050565b6000604051905090565b600067ffffffffffffffff821115610408576104076104f5565b5b61041182610538565b9050602081019050919050565b600081519050919050565b600082825260208201905092915050565b600061044582610458565b9050919050565b60008115159050919050565b600073ffffffffffffffffffffffffffffffffffffffff82169050919050565b6000819050919050565b82818337600083830152505050565b60005b838110156104af578082015181840152602081019050610494565b838111156104be576000848401525b50505050565b6104cd82610538565b810181811067ffffffffffffffff821117156104ec576104eb6104f5565b5b80604052505050565b7f4e487b7100000000000000000000000000000000000000000000000000000000600052604160045260246000fd5b600080fd5b600080fd5b600080fd5b600080fd5b6000601f19601f8301169050919050565b6105528161043a565b811461055d57600080fd5b50565b6105698161044c565b811461057457600080fd5b50565b61058081610478565b811461058b57600080fd5b5056fea2646970667358221220767684880f0b4ece240e2f09a877fc9a37d87e29871a0531f8503cc94093263264736f6c63430008070033",
			"opcodes": "PUSH1 0x80 PUSH1 0x40 MSTORE CALLVALUE DUP1 ISZERO PUSH2 0x10 JUMPI PUSH1 0x0 DUP1 REVERT JUMPDEST POP PUSH2 0x5C4 DUP1 PUSH2 0x20 PUSH1 0x0 CODECOPY PUSH1 0x0 RETURN INVALID PUSH1 0x80 PUSH1 0x40 MSTORE CALLVALUE DUP1 ISZERO PUSH2 0x10 JUMPI PUSH1 0x0 DUP1 REVERT JUMPDEST POP PUSH1 0x4 CALLDATASIZE LT PUSH2 0x41 JUMPI PUSH1 0x0 CALLDATALOAD PUSH1 0xE0 SHR DUP1 PUSH4 0xBEDFC5A1 EQ PUSH2 0x46 JUMPI DUP1 PUSH4 0xD67BDD25 EQ PUSH2 0x6A JUMPI DUP1 PUSH4 0xF625A3C0 EQ PUSH2 0x88 JUMPI JUMPDEST PUSH1 0x0 DUP1 REVERT JUMPDEST PUSH2 0x4E PUSH2 0xBE JUMP JUMPDEST PUSH1 0x40 MLOAD PUSH2 0x61 SWAP8 SWAP7 SWAP6 SWAP5 SWAP4 SWAP3 SWAP2 SWAP1 PUSH2 0x352 JUMP JUMPDEST PUSH1 0x40 MLOAD DUP1 SWAP2 SUB SWAP1 RETURN JUMPDEST PUSH2 0x72 PUSH2 0x12A JUMP JUMPDEST PUSH1 0x40 MLOAD PUSH2 0x7F SWAP2 SWAP1 PUSH2 0x337 JUMP JUMPDEST PUSH1 0x40 MLOAD DUP1 SWAP2 SUB SWAP1 RETURN JUMPDEST PUSH2 0xA2 PUSH1 0x4 DUP1 CALLDATASIZE SUB DUP2 ADD SWAP1 PUSH2 0x9D SWAP2 SWAP1 PUSH2 0x213 JUMP JUMPDEST PUSH2 0x132 JUMP JUMPDEST PUSH1 0x40 MLOAD PUSH2 0xB5 SWAP8 SWAP7 SWAP6 SWAP5 SWAP4 SWAP3 SWAP2 SWAP1 PUSH2 0x352 JUMP JUMPDEST PUSH1 0x40 MLOAD DUP1 SWAP2 SUB SWAP1 RETURN JUMPDEST PUSH1 0x0 DUP1 PUSH1 0x0 DUP1 PUSH1 0x0 PUSH1 0x60 PUSH1 0x0 PUSH2 0x113 PUSH1 0x1 PUSH1 0x2 PUSH1 0x3 CALLER PUSH1 0x1 PUSH1 0x40 MLOAD DUP1 PUSH1 0x40 ADD PUSH1 0x40 MSTORE DUP1 PUSH1 0xA DUP2 MSTORE PUSH1 0x20 ADD PUSH32 0x426C6F636B436861696E00000000000000000000000000000000000000000000 DUP2 MSTORE POP PUSH1 0xB PUSH2 0x132 JUMP JUMPDEST SWAP7 POP SWAP7 POP SWAP7 POP SWAP7 POP SWAP7 POP SWAP7 POP SWAP7 POP SWAP1 SWAP2 SWAP3 SWAP4 SWAP5 SWAP6 SWAP7 JUMP JUMPDEST PUSH1 0x0 CALLER SWAP1 POP SWAP1 JUMP JUMPDEST PUSH1 0x0 DUP1 PUSH1 0x0 DUP1 PUSH1 0x0 PUSH1 0x60 PUSH1 0x0 DUP14 DUP14 DUP14 DUP14 DUP14 DUP14 DUP14 SWAP7 POP SWAP7 POP SWAP7 POP SWAP7 POP SWAP7 POP SWAP7 POP SWAP7 POP SWAP8 POP SWAP8 POP SWAP8 POP SWAP8 POP SWAP8 POP SWAP8 POP SWAP8 SWAP1 POP JUMP JUMPDEST PUSH1 0x0 PUSH2 0x177 PUSH2 0x172 DUP5 PUSH2 0x3ED JUMP JUMPDEST PUSH2 0x3C8 JUMP JUMPDEST SWAP1 POP DUP3 DUP2 MSTORE PUSH1 0x20 DUP2 ADD DUP5 DUP5 DUP5 ADD GT ISZERO PUSH2 0x193 JUMPI PUSH2 0x192 PUSH2 0x529 JUMP JUMPDEST JUMPDEST PUSH2 0x19E DUP5 DUP3 DUP6 PUSH2 0x482 JUMP JUMPDEST POP SWAP4 SWAP3 POP POP POP JUMP JUMPDEST PUSH1 0x0 DUP2 CALLDATALOAD SWAP1 POP PUSH2 0x1B5 DUP2 PUSH2 0x549 JUMP JUMPDEST SWAP3 SWAP2 POP POP JUMP JUMPDEST PUSH1 0x0 DUP2 CALLDATALOAD SWAP1 POP PUSH2 0x1CA DUP2 PUSH2 0x560 JUMP JUMPDEST SWAP3 SWAP2 POP POP JUMP JUMPDEST PUSH1 0x0 DUP3 PUSH1 0x1F DUP4 ADD SLT PUSH2 0x1E5 JUMPI PUSH2 0x1E4 PUSH2 0x524 JUMP JUMPDEST JUMPDEST DUP2 CALLDATALOAD PUSH2 0x1F5 DUP5 DUP3 PUSH1 0x20 DUP7 ADD PUSH2 0x164 JUMP JUMPDEST SWAP2 POP POP SWAP3 SWAP2 POP POP JUMP JUMPDEST PUSH1 0x0 DUP2 CALLDATALOAD SWAP1 POP PUSH2 0x20D DUP2 PUSH2 0x577 JUMP JUMPDEST SWAP3 SWAP2 POP POP JUMP JUMPDEST PUSH1 0x0 DUP1 PUSH1 0x0 DUP1 PUSH1 0x0 DUP1 PUSH1 0x0 PUSH1 0xE0 DUP9 DUP11 SUB SLT ISZERO PUSH2 0x232 JUMPI PUSH2 0x231 PUSH2 0x533 JUMP JUMPDEST JUMPDEST PUSH1 0x0 PUSH2 0x240 DUP11 DUP3 DUP12 ADD PUSH2 0x1FE JUMP JUMPDEST SWAP8 POP POP PUSH1 0x20 PUSH2 0x251 DUP11 DUP3 DUP12 ADD PUSH2 0x1FE JUMP JUMPDEST SWAP7 POP POP PUSH1 0x40 PUSH2 0x262 DUP11 DUP3 DUP12 ADD PUSH2 0x1FE JUMP JUMPDEST SWAP6 POP POP PUSH1 0x60 PUSH2 0x273 DUP11 DUP3 DUP12 ADD PUSH2 0x1A6 JUMP JUMPDEST SWAP5 POP POP PUSH1 0x80 PUSH2 0x284 DUP11 DUP3 DUP12 ADD PUSH2 0x1BB JUMP JUMPDEST SWAP4 POP POP PUSH1 0xA0 DUP9 ADD CALLDATALOAD PUSH8 0xFFFFFFFFFFFFFFFF DUP2 GT ISZERO PUSH2 0x2A5 JUMPI PUSH2 0x2A4 PUSH2 0x52E JUMP JUMPDEST JUMPDEST PUSH2 0x2B1 DUP11 DUP3 DUP12 ADD PUSH2 0x1D0 JUMP JUMPDEST SWAP3 POP POP PUSH1 0xC0 PUSH2 0x2C2 DUP11 DUP3 DUP12 ADD PUSH2 0x1FE JUMP JUMPDEST SWAP2 POP POP SWAP3 SWAP6 SWAP9 SWAP2 SWAP5 SWAP8 POP SWAP3 SWAP6 POP JUMP JUMPDEST PUSH2 0x2DA DUP2 PUSH2 0x43A JUMP JUMPDEST DUP3 MSTORE POP POP JUMP JUMPDEST PUSH2 0x2E9 DUP2 PUSH2 0x44C JUMP JUMPDEST DUP3 MSTORE POP POP JUMP JUMPDEST PUSH1 0x0 PUSH2 0x2FA DUP3 PUSH2 0x41E JUMP JUMPDEST PUSH2 0x304 DUP2 DUP6 PUSH2 0x429 JUMP JUMPDEST SWAP4 POP PUSH2 0x314 DUP2 DUP6 PUSH1 0x20 DUP7 ADD PUSH2 0x491 JUMP JUMPDEST PUSH2 0x31D DUP2 PUSH2 0x538 JUMP JUMPDEST DUP5 ADD SWAP2 POP POP SWAP3 SWAP2 POP POP JUMP JUMPDEST PUSH2 0x331 DUP2 PUSH2 0x478 JUMP JUMPDEST DUP3 MSTORE POP POP JUMP JUMPDEST PUSH1 0x0 PUSH1 0x20 DUP3 ADD SWAP1 POP PUSH2 0x34C PUSH1 0x0 DUP4 ADD DUP5 PUSH2 0x2D1 JUMP JUMPDEST SWAP3 SWAP2 POP POP JUMP JUMPDEST PUSH1 0x0 PUSH1 0xE0 DUP3 ADD SWAP1 POP PUSH2 0x367 PUSH1 0x0 DUP4 ADD DUP11 PUSH2 0x328 JUMP JUMPDEST PUSH2 0x374 PUSH1 0x20 DUP4 ADD DUP10 PUSH2 0x328 JUMP JUMPDEST PUSH2 0x381 PUSH1 0x40 DUP4 ADD DUP9 PUSH2 0x328 JUMP JUMPDEST PUSH2 0x38E PUSH1 0x60 DUP4 ADD DUP8 PUSH2 0x2D1 JUMP JUMPDEST PUSH2 0x39B PUSH1 0x80 DUP4 ADD DUP7 PUSH2 0x2E0 JUMP JUMPDEST DUP2 DUP2 SUB PUSH1 0xA0 DUP4 ADD MSTORE PUSH2 0x3AD DUP2 DUP6 PUSH2 0x2EF JUMP JUMPDEST SWAP1 POP PUSH2 0x3BC PUSH1 0xC0 DUP4 ADD DUP5 PUSH2 0x328 JUMP JUMPDEST SWAP9 SWAP8 POP POP POP POP POP POP POP POP JUMP JUMPDEST PUSH1 0x0 PUSH2 0x3D2 PUSH2 0x3E3 JUMP JUMPDEST SWAP1 POP PUSH2 0x3DE DUP3 DUP3 PUSH2 0x4C4 JUMP JUMPDEST SWAP2 SWAP1 POP JUMP JUMPDEST PUSH1 0x0 PUSH1 0x40 MLOAD SWAP1 POP SWAP1 JUMP JUMPDEST PUSH1 0x0 PUSH8 0xFFFFFFFFFFFFFFFF DUP3 GT ISZERO PUSH2 0x408 JUMPI PUSH2 0x407 PUSH2 0x4F5 JUMP JUMPDEST JUMPDEST PUSH2 0x411 DUP3 PUSH2 0x538 JUMP JUMPDEST SWAP1 POP PUSH1 0x20 DUP2 ADD SWAP1 POP SWAP2 SWAP1 POP JUMP JUMPDEST PUSH1 0x0 DUP2 MLOAD SWAP1 POP SWAP2 SWAP1 POP JUMP JUMPDEST PUSH1 0x0 DUP3 DUP3 MSTORE PUSH1 0x20 DUP3 ADD SWAP1 POP SWAP3 SWAP2 POP POP JUMP JUMPDEST PUSH1 0x0 PUSH2 0x445 DUP3 PUSH2 0x458 JUMP JUMPDEST SWAP1 POP SWAP2 SWAP1 POP JUMP JUMPDEST PUSH1 0x0 DUP2 ISZERO ISZERO SWAP1 POP SWAP2 SWAP1 POP JUMP JUMPDEST PUSH1 0x0 PUSH20 0xFFFFFFFFFFFFFFFFFFFFFFFFFFFFFFFFFFFFFFFF DUP3 AND SWAP1 POP SWAP2 SWAP1 POP JUMP JUMPDEST PUSH1 0x0 DUP2 SWAP1 POP SWAP2 SWAP1 POP JUMP JUMPDEST DUP3 DUP2 DUP4 CALLDATACOPY PUSH1 0x0 DUP4 DUP4 ADD MSTORE POP POP POP JUMP JUMPDEST PUSH1 0x0 JUMPDEST DUP4 DUP2 LT ISZERO PUSH2 0x4AF JUMPI DUP1 DUP3 ADD MLOAD DUP2 DUP5 ADD MSTORE PUSH1 0x20 DUP2 ADD SWAP1 POP PUSH2 0x494 JUMP JUMPDEST DUP4 DUP2 GT ISZERO PUSH2 0x4BE JUMPI PUSH1 0x0 DUP5 DUP5 ADD MSTORE JUMPDEST POP POP POP POP JUMP JUMPDEST PUSH2 0x4CD DUP3 PUSH2 0x538 JUMP JUMPDEST DUP2 ADD DUP2 DUP2 LT PUSH8 0xFFFFFFFFFFFFFFFF DUP3 GT OR ISZERO PUSH2 0x4EC JUMPI PUSH2 0x4EB PUSH2 0x4F5 JUMP JUMPDEST JUMPDEST DUP1 PUSH1 0x40 MSTORE POP POP POP JUMP JUMPDEST PUSH32 0x4E487B7100000000000000000000000000000000000000000000000000000000 PUSH1 0x0 MSTORE PUSH1 0x41 PUSH1 0x4 MSTORE PUSH1 0x24 PUSH1 0x0 REVERT JUMPDEST PUSH1 0x0 DUP1 REVERT JUMPDEST PUSH1 0x0 DUP1 REVERT JUMPDEST PUSH1 0x0 DUP1 REVERT JUMPDEST PUSH1 0x0 DUP1 REVERT JUMPDEST PUSH1 0x0 PUSH1 0x1F NOT PUSH1 0x1F DUP4 ADD AND SWAP1 POP SWAP2 SWAP1 POP JUMP JUMPDEST PUSH2 0x552 DUP2 PUSH2 0x43A JUMP JUMPDEST DUP2 EQ PUSH2 0x55D JUMPI PUSH1 0x0 DUP1 REVERT JUMPDEST POP JUMP JUMPDEST PUSH2 0x569 DUP2 PUSH2 0x44C JUMP JUMPDEST DUP2 EQ PUSH2 0x574 JUMPI PUSH1 0x0 DUP1 REVERT JUMPDEST POP JUMP JUMPDEST PUSH2 0x580 DUP2 PUSH2 0x478 JUMP JUMPDEST DUP2 EQ PUSH2 0x58B JUMPI PUSH1 0x0 DUP1 REVERT JUMPDEST POP JUMP INVALID LOG2 PUSH5 0x6970667358 0x22 SLT KECCAK256 PUSH23 0x7684880F0B4ECE240E2F09A877FC9A37D87E29871A0531 0xF8 POP EXTCODECOPY 0xC9 BLOCKHASH SWAP4 0x26 ORIGIN PUSH5 0x736F6C6343 STOP ADDMOD SMOD STOP CALLER "
		},
		"gasEstimates": {
			"creation": {
				"codeDepositCost": "295200",
				"executionCost": "337",
				"totalCost": "295537"
			},
			"external": {
				"SecondFunctionContract(uint256,uint256,uint256,address,bool,string,uint256)": "infinite",
				"callFunction()": "infinite",
				"messageSender()": "385"
			}
		},
		"methodIdentifiers": {
			"SecondFunctionContract(uint256,uint256,uint256,address,bool,string,uint256)": "f625a3c0",
			"callFunction()": "bedfc5a1",
			"messageSender()": "d67bdd25"
		}
	},
	"abi": [
		{
			"inputs": [
				{
					"internalType": "uint256",
					"name": "x",
					"type": "uint256"
				},
				{
					"internalType": "uint256",
					"name": "y",
					"type": "uint256"
				},
				{
					"internalType": "uint256",
					"name": "z",
					"type": "uint256"
				},
				{
					"internalType": "address",
					"name": "a",
					"type": "address"
				},
				{
					"internalType": "bool",
					"name": "b",
					"type": "bool"
				},
				{
					"internalType": "string",
					"name": "c",
					"type": "string"
				},
				{
					"internalType": "uint256",
					"name": "s",
					"type": "uint256"
				}
			],
			"name": "SecondFunctionContract",
			"outputs": [
				{
					"internalType": "uint256",
					"name": "",
					"type": "uint256"
				},
				{
					"internalType": "uint256",
					"name": "",
					"type": "uint256"
				},
				{
					"internalType": "uint256",
					"name": "",
					"type": "uint256"
				},
				{
					"internalType": "address",
					"name": "",
					"type": "address"
				},
				{
					"internalType": "bool",
					"name": "",
					"type": "bool"
				},
				{
					"internalType": "string",
					"name": "",
					"type": "string"
				},
				{
					"internalType": "uint256",
					"name": "",
					"type": "uint256"
				}
			],
			"stateMutability": "pure",
			"type": "function"
		},
		{
			"inputs": [],
			"name": "callFunction",
			"outputs": [
				{
					"internalType": "uint256",
					"name": "",
					"type": "uint256"
				},
				{
					"internalType": "uint256",
					"name": "",
					"type": "uint256"
				},
				{
					"internalType": "uint256",
					"name": "",
					"type": "uint256"
				},
				{
					"internalType": "address",
					"name": "",
					"type": "address"
				},
				{
					"internalType": "bool",
					"name": "",
					"type": "bool"
				},
				{
					"internalType": "string",
					"name": "",
					"type": "string"
				},
				{
					"internalType": "uint256",
					"name": "",
					"type": "uint256"
				}
			],
			"stateMutability": "nonpayable",
			"type": "function"
		},
		{
			"inputs": [],
			"name": "messageSender",
			"outputs": [
				{
					"internalType": "address",
					"name": "",
					"type": "address"
				}
			],
			"stateMutability": "view",
			"type": "function"
		}
	]
}