{
	"data": {
		"bytecode": {
			"linkReferences": {},
			"object": "6080604052600160005534801561001557600080fd5b5061025f806100256000396000f3fe608060405234801561001057600080fd5b50600436106100365760003560e01c806336d3dc4b1461003b578063bfd6196d1461006b575b600080fd5b610055600480360381019061005091906100e7565b61009b565b6040516100629190610163565b60405180910390f35b61008560048036038101906100809190610114565b6100b7565b6040516100929190610163565b60405180910390f35b600080826000546100ac919061017e565b905080915050919050565b60008082846100c6919061017e565b90508091505092915050565b6000813590506100e181610212565b92915050565b6000602082840312156100fd576100fc61020d565b5b600061010b848285016100d2565b91505092915050565b6000806040838503121561012b5761012a61020d565b5b6000610139858286016100d2565b925050602061014a858286016100d2565b9150509250929050565b61015d816101d4565b82525050565b60006020820190506101786000830184610154565b92915050565b6000610189826101d4565b9150610194836101d4565b9250827fffffffffffffffffffffffffffffffffffffffffffffffffffffffffffffffff038211156101c9576101c86101de565b5b828201905092915050565b6000819050919050565b7f4e487b7100000000000000000000000000000000000000000000000000000000600052601160045260246000fd5b600080fd5b61021b816101d4565b811461022657600080fd5b5056fea2646970667358221220a9957605cbe22563427621d849efc134544e6e62efa552aa1a0d8546a5494a3664736f6c63430008060033",
			"opcodes": "PUSH1 0x80 PUSH1 0x40 MSTORE PUSH1 0x1 PUSH1 0x0 SSTORE CALLVALUE DUP1 ISZERO PUSH2 0x15 JUMPI PUSH1 0x0 DUP1 REVERT JUMPDEST POP PUSH2 0x25F DUP1 PUSH2 0x25 PUSH1 0x0 CODECOPY PUSH1 0x0 RETURN INVALID PUSH1 0x80 PUSH1 0x40 MSTORE CALLVALUE DUP1 ISZERO PUSH2 0x10 JUMPI PUSH1 0x0 DUP1 REVERT JUMPDEST POP PUSH1 0x4 CALLDATASIZE LT PUSH2 0x36 JUMPI PUSH1 0x0 CALLDATALOAD PUSH1 0xE0 SHR DUP1 PUSH4 0x36D3DC4B EQ PUSH2 0x3B JUMPI DUP1 PUSH4 0xBFD6196D EQ PUSH2 0x6B JUMPI JUMPDEST PUSH1 0x0 DUP1 REVERT JUMPDEST PUSH2 0x55 PUSH1 0x4 DUP1 CALLDATASIZE SUB DUP2 ADD SWAP1 PUSH2 0x50 SWAP2 SWAP1 PUSH2 0xE7 JUMP JUMPDEST PUSH2 0x9B JUMP JUMPDEST PUSH1 0x40 MLOAD PUSH2 0x62 SWAP2 SWAP1 PUSH2 0x163 JUMP JUMPDEST PUSH1 0x40 MLOAD DUP1 SWAP2 SUB SWAP1 RETURN JUMPDEST PUSH2 0x85 PUSH1 0x4 DUP1 CALLDATASIZE SUB DUP2 ADD SWAP1 PUSH2 0x80 SWAP2 SWAP1 PUSH2 0x114 JUMP JUMPDEST PUSH2 0xB7 JUMP JUMPDEST PUSH1 0x40 MLOAD PUSH2 0x92 SWAP2 SWAP1 PUSH2 0x163 JUMP JUMPDEST PUSH1 0x40 MLOAD DUP1 SWAP2 SUB SWAP1 RETURN JUMPDEST PUSH1 0x0 DUP1 DUP3 PUSH1 0x0 SLOAD PUSH2 0xAC SWAP2 SWAP1 PUSH2 0x17E JUMP JUMPDEST SWAP1 POP DUP1 SWAP2 POP POP SWAP2 SWAP1 POP JUMP JUMPDEST PUSH1 0x0 DUP1 DUP3 DUP5 PUSH2 0xC6 SWAP2 SWAP1 PUSH2 0x17E JUMP JUMPDEST SWAP1 POP DUP1 SWAP2 POP POP SWAP3 SWAP2 POP POP JUMP JUMPDEST PUSH1 0x0 DUP2 CALLDATALOAD SWAP1 POP PUSH2 0xE1 DUP2 PUSH2 0x212 JUMP JUMPDEST SWAP3 SWAP2 POP POP JUMP JUMPDEST PUSH1 0x0 PUSH1 0x20 DUP3 DUP5 SUB SLT ISZERO PUSH2 0xFD JUMPI PUSH2 0xFC PUSH2 0x20D JUMP JUMPDEST JUMPDEST PUSH1 0x0 PUSH2 0x10B DUP5 DUP3 DUP6 ADD PUSH2 0xD2 JUMP JUMPDEST SWAP2 POP POP SWAP3 SWAP2 POP POP JUMP JUMPDEST PUSH1 0x0 DUP1 PUSH1 0x40 DUP4 DUP6 SUB SLT ISZERO PUSH2 0x12B JUMPI PUSH2 0x12A PUSH2 0x20D JUMP JUMPDEST JUMPDEST PUSH1 0x0 PUSH2 0x139 DUP6 DUP3 DUP7 ADD PUSH2 0xD2 JUMP JUMPDEST SWAP3 POP POP PUSH1 0x20 PUSH2 0x14A DUP6 DUP3 DUP7 ADD PUSH2 0xD2 JUMP JUMPDEST SWAP2 POP POP SWAP3 POP SWAP3 SWAP1 POP JUMP JUMPDEST PUSH2 0x15D DUP2 PUSH2 0x1D4 JUMP JUMPDEST DUP3 MSTORE POP POP JUMP JUMPDEST PUSH1 0x0 PUSH1 0x20 DUP3 ADD SWAP1 POP PUSH2 0x178 PUSH1 0x0 DUP4 ADD DUP5 PUSH2 0x154 JUMP JUMPDEST SWAP3 SWAP2 POP POP JUMP JUMPDEST PUSH1 0x0 PUSH2 0x189 DUP3 PUSH2 0x1D4 JUMP JUMPDEST SWAP2 POP PUSH2 0x194 DUP4 PUSH2 0x1D4 JUMP JUMPDEST SWAP3 POP DUP3 PUSH32 0xFFFFFFFFFFFFFFFFFFFFFFFFFFFFFFFFFFFFFFFFFFFFFFFFFFFFFFFFFFFFFFFF SUB DUP3 GT ISZERO PUSH2 0x1C9 JUMPI PUSH2 0x1C8 PUSH2 0x1DE JUMP JUMPDEST JUMPDEST DUP3 DUP3 ADD SWAP1 POP SWAP3 SWAP2 POP POP JUMP JUMPDEST PUSH1 0x0 DUP2 SWAP1 POP SWAP2 SWAP1 POP JUMP JUMPDEST PUSH32 0x4E487B7100000000000000000000000000000000000000000000000000000000 PUSH1 0x0 MSTORE PUSH1 0x11 PUSH1 0x4 MSTORE PUSH1 0x24 PUSH1 0x0 REVERT JUMPDEST PUSH1 0x0 DUP1 REVERT JUMPDEST PUSH2 0x21B DUP2 PUSH2 0x1D4 JUMP JUMPDEST DUP2 EQ PUSH2 0x226 JUMPI PUSH1 0x0 DUP1 REVERT JUMPDEST POP JUMP INVALID LOG2 PUSH5 0x6970667358 0x22 SLT KECCAK256 0xA9 SWAP6 PUSH23 0x5CBE22563427621D849EFC134544E6E62EFA552AA1A0D DUP6 CHAINID 0xA5 0x49 0x4A CALLDATASIZE PUSH5 0x736F6C6343 STOP ADDMOD MOD STOP CALLER "
		},
		"gasEstimates": {
			"creation": {
				"codeDepositCost": "121400",
				"executionCost": "22271",
				"totalCost": "143671"
			},
			"external": {
				"AddX(uint256,uint256)": "infinite",
				"addX(uint256)": "infinite"
			}
		},
		"methodIdentifiers": {
			"AddX(uint256,uint256)": "bfd6196d",
			"addX(uint256)": "36d3dc4b"
		}
	},
	"abi": [
		{
			"inputs": [
				{
					"internalType": "uint256",
					"name": "y",
					"type": "uint256"
				},
				{
					"internalType": "uint256",
					"name": "z",
					"type": "uint256"
				}
			],
			"name": "AddX",
			"outputs": [
				{
					"internalType": "uint256",
					"name": "",
					"type": "uint256"
				}
			],
			"stateMutability": "pure",
			"type": "function"
		},
		{
			"inputs": [
				{
					"internalType": "uint256",
					"name": "y",
					"type": "uint256"
				}
			],
			"name": "addX",
			"outputs": [
				{
					"internalType": "uint256",
					"name": "",
					"type": "uint256"
				}
			],
			"stateMutability": "view",
			"type": "function"
		}
	]
}